{
	"contracts/PaymentGateway.sol": {
		"PaymentGateway": {
			"abi": [
				{
					"inputs": [
						{
							"internalType": "address",
							"name": "_stableCoin",
							"type": "address"
						},
						{
							"internalType": "address",
							"name": "_cBTC",
							"type": "address"
						},
						{
							"internalType": "address",
							"name": "_aggregator",
							"type": "address"
						},
						{
							"internalType": "address",
							"name": "_dex",
							"type": "address"
						}
					],
					"stateMutability": "nonpayable",
					"type": "constructor"
				},
				{
					"inputs": [
						{
							"internalType": "address",
							"name": "owner",
							"type": "address"
						}
					],
					"name": "OwnableInvalidOwner",
					"type": "error"
				},
				{
					"inputs": [
						{
							"internalType": "address",
							"name": "account",
							"type": "address"
						}
					],
					"name": "OwnableUnauthorizedAccount",
					"type": "error"
				},
				{
					"anonymous": false,
					"inputs": [
						{
							"indexed": true,
							"internalType": "bytes32",
							"name": "merchantId",
							"type": "bytes32"
						},
						{
							"indexed": false,
							"internalType": "address",
							"name": "payoutAddress",
							"type": "address"
						}
					],
					"name": "MerchantRegistered",
					"type": "event"
				},
				{
					"anonymous": false,
					"inputs": [
						{
							"indexed": true,
							"internalType": "bytes32",
							"name": "merchantId",
							"type": "bytes32"
						},
						{
							"indexed": false,
							"internalType": "address",
							"name": "payoutAddress",
							"type": "address"
						},
						{
							"indexed": false,
							"internalType": "bool",
							"name": "active",
							"type": "bool"
						}
					],
					"name": "MerchantUpdated",
					"type": "event"
				},
				{
					"anonymous": false,
					"inputs": [
						{
							"indexed": true,
							"internalType": "bytes32",
							"name": "merchantId",
							"type": "bytes32"
						},
						{
							"indexed": false,
							"internalType": "uint256",
							"name": "amount",
							"type": "uint256"
						},
						{
							"indexed": false,
							"internalType": "address",
							"name": "payoutAddress",
							"type": "address"
						}
					],
					"name": "MerchantWithdrawn",
					"type": "event"
				},
				{
					"anonymous": false,
					"inputs": [
						{
							"indexed": true,
							"internalType": "address",
							"name": "previousOwner",
							"type": "address"
						},
						{
							"indexed": true,
							"internalType": "address",
							"name": "newOwner",
							"type": "address"
						}
					],
					"name": "OwnershipTransferred",
					"type": "event"
				},
				{
					"anonymous": false,
					"inputs": [
						{
							"indexed": true,
							"internalType": "bytes32",
							"name": "merchantId",
							"type": "bytes32"
						},
						{
							"indexed": true,
							"internalType": "address",
							"name": "buyer",
							"type": "address"
						},
						{
							"indexed": false,
							"internalType": "uint256",
							"name": "amount",
							"type": "uint256"
						}
					],
					"name": "PaymentReceived",
					"type": "event"
				},
				{
					"inputs": [],
					"name": "aggregator",
					"outputs": [
						{
							"internalType": "contract IAggregatorOracle",
							"name": "",
							"type": "address"
						}
					],
					"stateMutability": "view",
					"type": "function"
				},
				{
					"inputs": [],
					"name": "cBTC",
					"outputs": [
						{
							"internalType": "contract ICBTC",
							"name": "",
							"type": "address"
						}
					],
					"stateMutability": "view",
					"type": "function"
				},
				{
					"inputs": [],
					"name": "dex",
					"outputs": [
						{
							"internalType": "contract IDexInterface",
							"name": "",
							"type": "address"
						}
					],
					"stateMutability": "view",
					"type": "function"
				},
				{
					"inputs": [
						{
							"internalType": "bytes32",
							"name": "",
							"type": "bytes32"
						}
					],
					"name": "merchantBalances",
					"outputs": [
						{
							"internalType": "uint256",
							"name": "",
							"type": "uint256"
						}
					],
					"stateMutability": "view",
					"type": "function"
				},
				{
					"inputs": [
						{
							"internalType": "bytes32",
							"name": "",
							"type": "bytes32"
						}
					],
					"name": "merchants",
					"outputs": [
						{
							"internalType": "address payable",
							"name": "payoutAddress",
							"type": "address"
						},
						{
							"internalType": "bool",
							"name": "active",
							"type": "bool"
						}
					],
					"stateMutability": "view",
					"type": "function"
				},
				{
					"inputs": [],
					"name": "owner",
					"outputs": [
						{
							"internalType": "address",
							"name": "",
							"type": "address"
						}
					],
					"stateMutability": "view",
					"type": "function"
				},
				{
					"inputs": [
						{
							"internalType": "bytes32",
							"name": "merchantId",
							"type": "bytes32"
						},
						{
							"internalType": "uint256",
							"name": "amount",
							"type": "uint256"
						}
					],
					"name": "payMerchant",
					"outputs": [],
					"stateMutability": "nonpayable",
					"type": "function"
				},
				{
					"inputs": [
						{
							"internalType": "bytes32",
							"name": "merchantId",
							"type": "bytes32"
						},
						{
							"internalType": "uint256",
							"name": "cUSDTargetAmount",
							"type": "uint256"
						}
					],
					"name": "payMerchantInCBTC",
					"outputs": [],
					"stateMutability": "nonpayable",
					"type": "function"
				},
				{
					"inputs": [
						{
							"internalType": "bytes32",
							"name": "merchantId",
							"type": "bytes32"
						},
						{
							"internalType": "address payable",
							"name": "payoutAddress",
							"type": "address"
						}
					],
					"name": "registerMerchant",
					"outputs": [],
					"stateMutability": "nonpayable",
					"type": "function"
				},
				{
					"inputs": [],
					"name": "renounceOwnership",
					"outputs": [],
					"stateMutability": "nonpayable",
					"type": "function"
				},
				{
					"inputs": [],
					"name": "stableCoin",
					"outputs": [
						{
							"internalType": "contract IStableCoin",
							"name": "",
							"type": "address"
						}
					],
					"stateMutability": "view",
					"type": "function"
				},
				{
					"inputs": [
						{
							"internalType": "address",
							"name": "newOwner",
							"type": "address"
						}
					],
					"name": "transferOwnership",
					"outputs": [],
					"stateMutability": "nonpayable",
					"type": "function"
				},
				{
					"inputs": [
						{
							"internalType": "bytes32",
							"name": "merchantId",
							"type": "bytes32"
						},
						{
							"internalType": "address payable",
							"name": "payoutAddress",
							"type": "address"
						},
						{
							"internalType": "bool",
							"name": "active",
							"type": "bool"
						}
					],
					"name": "updateMerchant",
					"outputs": [],
					"stateMutability": "nonpayable",
					"type": "function"
				},
				{
					"inputs": [
						{
							"internalType": "bytes32",
							"name": "merchantId",
							"type": "bytes32"
						}
					],
					"name": "withdrawMerchantFunds",
					"outputs": [],
					"stateMutability": "nonpayable",
					"type": "function"
				}
			],
			"devdoc": {
				"errors": {
					"OwnableInvalidOwner(address)": [
						{
							"details": "The owner is not a valid owner account. (eg. `address(0)`)"
						}
					],
					"OwnableUnauthorizedAccount(address)": [
						{
							"details": "The caller account is not authorized to perform an operation."
						}
					]
				},
				"kind": "dev",
				"methods": {
					"constructor": {
						"details": "Constructor setting the addresses of stablecoin, aggregator, cBTC, and dex",
						"params": {
							"_aggregator": "The address of the aggregator oracle",
							"_cBTC": "The address of the cBTC token",
							"_dex": "The address of the AMM DEX",
							"_stableCoin": "The address of cUSD stablecoin"
						}
					},
					"owner()": {
						"details": "Returns the address of the current owner."
					},
					"payMerchant(bytes32,uint256)": {
						"details": "Pay a merchant directly in cUSD. User must have approved this contract to spend cUSD.",
						"params": {
							"amount": "The amount of cUSD to pay",
							"merchantId": "The merchant to pay"
						}
					},
					"payMerchantInCBTC(bytes32,uint256)": {
						"details": "Pay a merchant using cBTC. This function: 1. Calculates how much cBTC is needed for the target cUSD amount using aggregator prices. 2. Transfers cBTC from the user. 3. Approves the DEX to spend cBTC. 4. Calls the DEX to swap cBTC into cUSD. 5. Credits the merchant in cUSD. User must have approved this contract to spend cBTC.",
						"params": {
							"cUSDTargetAmount": "How many cUSD the merchant should receive",
							"merchantId": "The merchant to pay"
						}
					},
					"registerMerchant(bytes32,address)": {
						"details": "Register a merchant.",
						"params": {
							"merchantId": "A unique identifier for the merchant (e.g. keccak256(\"merchantName\"))",
							"payoutAddress": "The address where merchant wants to receive funds"
						}
					},
					"renounceOwnership()": {
						"details": "Leaves the contract without owner. It will not be possible to call `onlyOwner` functions. Can only be called by the current owner. NOTE: Renouncing ownership will leave the contract without an owner, thereby disabling any functionality that is only available to the owner."
					},
					"transferOwnership(address)": {
						"details": "Transfers ownership of the contract to a new account (`newOwner`). Can only be called by the current owner."
					},
					"updateMerchant(bytes32,address,bool)": {
						"details": "Update merchant info.",
						"params": {
							"active": "New active status",
							"merchantId": "The merchant identifier",
							"payoutAddress": "New payout address"
						}
					},
					"withdrawMerchantFunds(bytes32)": {
						"details": "Merchant withdraws their accumulated cUSD funds. Only owner can trigger this withdrawal in the current example. A real scenario would allow the merchant themselves to withdraw.",
						"params": {
							"merchantId": "The merchant ID"
						}
					}
				},
				"version": 1
			},
			"evm": {
				"assembly": "    /* \"contracts/PaymentGateway.sol\":600:6796  contract PaymentGateway is Ownable(msg.sender) {... */\n  mstore(0x40, 0x80)\n    /* \"contracts/PaymentGateway.sol\":1663:2226  constructor(... */\n  callvalue\n  dup1\n  iszero\n  tag_1\n  jumpi\n  0x00\n  dup1\n  revert\ntag_1:\n  pop\n  mload(0x40)\n  sub(codesize, bytecodeSize)\n  dup1\n  bytecodeSize\n  dup4\n  codecopy\n  dup2\n  dup2\n  add\n  0x40\n  mstore\n  dup2\n  add\n  swap1\n  tag_2\n  swap2\n  swap1\n  tag_3\n  jump\t// in\ntag_2:\n    /* \"contracts/PaymentGateway.sol\":635:645  msg.sender */\n  caller\n    /* \"@openzeppelin/contracts/access/Ownable.sol\":1297:1298  0 */\n  0x00\n    /* \"@openzeppelin/contracts/access/Ownable.sol\":1273:1299  initialOwner == address(0) */\n  0xffffffffffffffffffffffffffffffffffffffff\n  and\n    /* \"@openzeppelin/contracts/access/Ownable.sol\":1273:1285  initialOwner */\n  dup2\n    /* \"@openzeppelin/contracts/access/Ownable.sol\":1273:1299  initialOwner == address(0) */\n  0xffffffffffffffffffffffffffffffffffffffff\n  and\n  sub\n    /* \"@openzeppelin/contracts/access/Ownable.sol\":1269:1364  if (initialOwner == address(0)) {... */\n  tag_7\n  jumpi\n    /* \"@openzeppelin/contracts/access/Ownable.sol\":1350:1351  0 */\n  0x00\n    /* \"@openzeppelin/contracts/access/Ownable.sol\":1322:1353  OwnableInvalidOwner(address(0)) */\n  mload(0x40)\n  0x1e4fbdf700000000000000000000000000000000000000000000000000000000\n  dup2\n  mstore\n  0x04\n  add\n  tag_8\n  swap2\n  swap1\n  tag_9\n  jump\t// in\ntag_8:\n  mload(0x40)\n  dup1\n  swap2\n  sub\n  swap1\n  revert\n    /* \"@openzeppelin/contracts/access/Ownable.sol\":1269:1364  if (initialOwner == address(0)) {... */\ntag_7:\n    /* \"@openzeppelin/contracts/access/Ownable.sol\":1373:1405  _transferOwnership(initialOwner) */\n  tag_10\n    /* \"@openzeppelin/contracts/access/Ownable.sol\":1392:1404  initialOwner */\n  dup2\n    /* \"@openzeppelin/contracts/access/Ownable.sol\":1373:1391  _transferOwnership */\n  shl(0x20, tag_11)\n    /* \"@openzeppelin/contracts/access/Ownable.sol\":1373:1405  _transferOwnership(initialOwner) */\n  0x20\n  shr\n  jump\t// in\ntag_10:\n    /* \"@openzeppelin/contracts/access/Ownable.sol\":1225:1412  constructor(address initialOwner) {... */\n  pop\n    /* \"contracts/PaymentGateway.sol\":1825:1826  0 */\n  0x00\n    /* \"contracts/PaymentGateway.sol\":1802:1827  _stableCoin != address(0) */\n  0xffffffffffffffffffffffffffffffffffffffff\n  and\n    /* \"contracts/PaymentGateway.sol\":1802:1813  _stableCoin */\n  dup5\n    /* \"contracts/PaymentGateway.sol\":1802:1827  _stableCoin != address(0) */\n  0xffffffffffffffffffffffffffffffffffffffff\n  and\n  sub\n    /* \"contracts/PaymentGateway.sol\":1794:1858  require(_stableCoin != address(0), \"Invalid stablecoin address\") */\n  tag_13\n  jumpi\n  mload(0x40)\n  0x08c379a000000000000000000000000000000000000000000000000000000000\n  dup2\n  mstore\n  0x04\n  add\n  tag_14\n  swap1\n  tag_15\n  jump\t// in\ntag_14:\n  mload(0x40)\n  dup1\n  swap2\n  sub\n  swap1\n  revert\ntag_13:\n    /* \"contracts/PaymentGateway.sol\":1893:1894  0 */\n  0x00\n    /* \"contracts/PaymentGateway.sol\":1876:1895  _cBTC != address(0) */\n  0xffffffffffffffffffffffffffffffffffffffff\n  and\n    /* \"contracts/PaymentGateway.sol\":1876:1881  _cBTC */\n  dup4\n    /* \"contracts/PaymentGateway.sol\":1876:1895  _cBTC != address(0) */\n  0xffffffffffffffffffffffffffffffffffffffff\n  and\n  sub\n    /* \"contracts/PaymentGateway.sol\":1868:1920  require(_cBTC != address(0), \"Invalid cBTC address\") */\n  tag_16\n  jumpi\n  mload(0x40)\n  0x08c379a000000000000000000000000000000000000000000000000000000000\n  dup2\n  mstore\n  0x04\n  add\n  tag_17\n  swap1\n  tag_18\n  jump\t// in\ntag_17:\n  mload(0x40)\n  dup1\n  swap2\n  sub\n  swap1\n  revert\ntag_16:\n    /* \"contracts/PaymentGateway.sol\":1961:1962  0 */\n  0x00\n    /* \"contracts/PaymentGateway.sol\":1938:1963  _aggregator != address(0) */\n  0xffffffffffffffffffffffffffffffffffffffff\n  and\n    /* \"contracts/PaymentGateway.sol\":1938:1949  _aggregator */\n  dup3\n    /* \"contracts/PaymentGateway.sol\":1938:1963  _aggregator != address(0) */\n  0xffffffffffffffffffffffffffffffffffffffff\n  and\n  sub\n    /* \"contracts/PaymentGateway.sol\":1930:1994  require(_aggregator != address(0), \"Invalid aggregator address\") */\n  tag_19\n  jumpi\n  mload(0x40)\n  0x08c379a000000000000000000000000000000000000000000000000000000000\n  dup2\n  mstore\n  0x04\n  add\n  tag_20\n  swap1\n  tag_21\n  jump\t// in\ntag_20:\n  mload(0x40)\n  dup1\n  swap2\n  sub\n  swap1\n  revert\ntag_19:\n    /* \"contracts/PaymentGateway.sol\":2028:2029  0 */\n  0x00\n    /* \"contracts/PaymentGateway.sol\":2012:2030  _dex != address(0) */\n  0xffffffffffffffffffffffffffffffffffffffff\n  and\n    /* \"contracts/PaymentGateway.sol\":2012:2016  _dex */\n  dup2\n    /* \"contracts/PaymentGateway.sol\":2012:2030  _dex != address(0) */\n  0xffffffffffffffffffffffffffffffffffffffff\n  and\n  sub\n    /* \"contracts/PaymentGateway.sol\":2004:2054  require(_dex != address(0), \"Invalid DEX address\") */\n  tag_22\n  jumpi\n  mload(0x40)\n  0x08c379a000000000000000000000000000000000000000000000000000000000\n  dup2\n  mstore\n  0x04\n  add\n  tag_23\n  swap1\n  tag_24\n  jump\t// in\ntag_23:\n  mload(0x40)\n  dup1\n  swap2\n  sub\n  swap1\n  revert\ntag_22:\n    /* \"contracts/PaymentGateway.sol\":2090:2101  _stableCoin */\n  dup4\n    /* \"contracts/PaymentGateway.sol\":2065:2075  stableCoin */\n  0x03\n  0x00\n    /* \"contracts/PaymentGateway.sol\":2065:2102  stableCoin = IStableCoin(_stableCoin) */\n  0x0100\n  exp\n  dup2\n  sload\n  dup2\n  0xffffffffffffffffffffffffffffffffffffffff\n  mul\n  not\n  and\n  swap1\n  dup4\n  0xffffffffffffffffffffffffffffffffffffffff\n  and\n  mul\n  or\n  swap1\n  sstore\n  pop\n    /* \"contracts/PaymentGateway.sol\":2125:2130  _cBTC */\n  dup3\n    /* \"contracts/PaymentGateway.sol\":2112:2116  cBTC */\n  0x04\n  0x00\n    /* \"contracts/PaymentGateway.sol\":2112:2131  cBTC = ICBTC(_cBTC) */\n  0x0100\n  exp\n  dup2\n  sload\n  dup2\n  0xffffffffffffffffffffffffffffffffffffffff\n  mul\n  not\n  and\n  swap1\n  dup4\n  0xffffffffffffffffffffffffffffffffffffffff\n  and\n  mul\n  or\n  swap1\n  sstore\n  pop\n    /* \"contracts/PaymentGateway.sol\":2172:2183  _aggregator */\n  dup2\n    /* \"contracts/PaymentGateway.sol\":2141:2151  aggregator */\n  0x05\n  0x00\n    /* \"contracts/PaymentGateway.sol\":2141:2184  aggregator = IAggregatorOracle(_aggregator) */\n  0x0100\n  exp\n  dup2\n  sload\n  dup2\n  0xffffffffffffffffffffffffffffffffffffffff\n  mul\n  not\n  and\n  swap1\n  dup4\n  0xffffffffffffffffffffffffffffffffffffffff\n  and\n  mul\n  or\n  swap1\n  sstore\n  pop\n    /* \"contracts/PaymentGateway.sol\":2214:2218  _dex */\n  dup1\n    /* \"contracts/PaymentGateway.sol\":2194:2197  dex */\n  0x06\n  0x00\n    /* \"contracts/PaymentGateway.sol\":2194:2219  dex = IDexInterface(_dex) */\n  0x0100\n  exp\n  dup2\n  sload\n  dup2\n  0xffffffffffffffffffffffffffffffffffffffff\n  mul\n  not\n  and\n  swap1\n  dup4\n  0xffffffffffffffffffffffffffffffffffffffff\n  and\n  mul\n  or\n  swap1\n  sstore\n  pop\n    /* \"contracts/PaymentGateway.sol\":1663:2226  constructor(... */\n  pop\n  pop\n  pop\n  pop\n    /* \"contracts/PaymentGateway.sol\":600:6796  contract PaymentGateway is Ownable(msg.sender) {... */\n  jump(tag_25)\n    /* \"@openzeppelin/contracts/access/Ownable.sol\":2912:3099  function _transferOwnership(address newOwner) internal virtual {... */\ntag_11:\n    /* \"@openzeppelin/contracts/access/Ownable.sol\":2985:3001  address oldOwner */\n  0x00\n    /* \"@openzeppelin/contracts/access/Ownable.sol\":3004:3010  _owner */\n  dup1\n  0x00\n  swap1\n  sload\n  swap1\n  0x0100\n  exp\n  swap1\n  div\n  0xffffffffffffffffffffffffffffffffffffffff\n  and\n    /* \"@openzeppelin/contracts/access/Ownable.sol\":2985:3010  address oldOwner = _owner */\n  swap1\n  pop\n    /* \"@openzeppelin/contracts/access/Ownable.sol\":3029:3037  newOwner */\n  dup2\n    /* \"@openzeppelin/contracts/access/Ownable.sol\":3020:3026  _owner */\n  0x00\n  dup1\n    /* \"@openzeppelin/contracts/access/Ownable.sol\":3020:3037  _owner = newOwner */\n  0x0100\n  exp\n  dup2\n  sload\n  dup2\n  0xffffffffffffffffffffffffffffffffffffffff\n  mul\n  not\n  and\n  swap1\n  dup4\n  0xffffffffffffffffffffffffffffffffffffffff\n  and\n  mul\n  or\n  swap1\n  sstore\n  pop\n    /* \"@openzeppelin/contracts/access/Ownable.sol\":3083:3091  newOwner */\n  dup2\n    /* \"@openzeppelin/contracts/access/Ownable.sol\":3052:3092  OwnershipTransferred(oldOwner, newOwner) */\n  0xffffffffffffffffffffffffffffffffffffffff\n  and\n    /* \"@openzeppelin/contracts/access/Ownable.sol\":3073:3081  oldOwner */\n  dup2\n    /* \"@openzeppelin/contracts/access/Ownable.sol\":3052:3092  OwnershipTransferred(oldOwner, newOwner) */\n  0xffffffffffffffffffffffffffffffffffffffff\n  and\n  0x8be0079c531659141344cd1fd0a4f28419497f9722a3daafe3b4186f6b6457e0\n  mload(0x40)\n  mload(0x40)\n  dup1\n  swap2\n  sub\n  swap1\n  log3\n    /* \"@openzeppelin/contracts/access/Ownable.sol\":2975:3099  {... */\n  pop\n    /* \"@openzeppelin/contracts/access/Ownable.sol\":2912:3099  function _transferOwnership(address newOwner) internal virtual {... */\n  pop\n  jump\t// out\n    /* \"#utility.yul\":88:205   */\ntag_28:\n    /* \"#utility.yul\":197:198   */\n  0x00\n    /* \"#utility.yul\":194:195   */\n  dup1\n    /* \"#utility.yul\":187:199   */\n  revert\n    /* \"#utility.yul\":334:460   */\ntag_30:\n    /* \"#utility.yul\":371:378   */\n  0x00\n    /* \"#utility.yul\":411:453   */\n  0xffffffffffffffffffffffffffffffffffffffff\n    /* \"#utility.yul\":404:409   */\n  dup3\n    /* \"#utility.yul\":400:454   */\n  and\n    /* \"#utility.yul\":389:454   */\n  swap1\n  pop\n    /* \"#utility.yul\":334:460   */\n  swap2\n  swap1\n  pop\n  jump\t// out\n    /* \"#utility.yul\":466:562   */\ntag_31:\n    /* \"#utility.yul\":503:510   */\n  0x00\n    /* \"#utility.yul\":532:556   */\n  tag_50\n    /* \"#utility.yul\":550:555   */\n  dup3\n    /* \"#utility.yul\":532:556   */\n  tag_30\n  jump\t// in\ntag_50:\n    /* \"#utility.yul\":521:556   */\n  swap1\n  pop\n    /* \"#utility.yul\":466:562   */\n  swap2\n  swap1\n  pop\n  jump\t// out\n    /* \"#utility.yul\":568:690   */\ntag_32:\n    /* \"#utility.yul\":641:665   */\n  tag_52\n    /* \"#utility.yul\":659:664   */\n  dup2\n    /* \"#utility.yul\":641:665   */\n  tag_31\n  jump\t// in\ntag_52:\n    /* \"#utility.yul\":634:639   */\n  dup2\n    /* \"#utility.yul\":631:666   */\n  eq\n    /* \"#utility.yul\":621:684   */\n  tag_53\n  jumpi\n    /* \"#utility.yul\":680:681   */\n  0x00\n    /* \"#utility.yul\":677:678   */\n  dup1\n    /* \"#utility.yul\":670:682   */\n  revert\n    /* \"#utility.yul\":621:684   */\ntag_53:\n    /* \"#utility.yul\":568:690   */\n  pop\n  jump\t// out\n    /* \"#utility.yul\":696:839   */\ntag_33:\n    /* \"#utility.yul\":753:758   */\n  0x00\n    /* \"#utility.yul\":784:790   */\n  dup2\n    /* \"#utility.yul\":778:791   */\n  mload\n    /* \"#utility.yul\":769:791   */\n  swap1\n  pop\n    /* \"#utility.yul\":800:833   */\n  tag_55\n    /* \"#utility.yul\":827:832   */\n  dup2\n    /* \"#utility.yul\":800:833   */\n  tag_32\n  jump\t// in\ntag_55:\n    /* \"#utility.yul\":696:839   */\n  swap3\n  swap2\n  pop\n  pop\n  jump\t// out\n    /* \"#utility.yul\":845:1665   */\ntag_3:\n    /* \"#utility.yul\":942:948   */\n  0x00\n    /* \"#utility.yul\":950:956   */\n  dup1\n    /* \"#utility.yul\":958:964   */\n  0x00\n    /* \"#utility.yul\":966:972   */\n  dup1\n    /* \"#utility.yul\":1015:1018   */\n  0x80\n    /* \"#utility.yul\":1003:1012   */\n  dup6\n    /* \"#utility.yul\":994:1001   */\n  dup8\n    /* \"#utility.yul\":990:1013   */\n  sub\n    /* \"#utility.yul\":986:1019   */\n  slt\n    /* \"#utility.yul\":983:1103   */\n  iszero\n  tag_57\n  jumpi\n    /* \"#utility.yul\":1022:1101   */\n  tag_58\n  tag_28\n  jump\t// in\ntag_58:\n    /* \"#utility.yul\":983:1103   */\ntag_57:\n    /* \"#utility.yul\":1142:1143   */\n  0x00\n    /* \"#utility.yul\":1167:1231   */\n  tag_59\n    /* \"#utility.yul\":1223:1230   */\n  dup8\n    /* \"#utility.yul\":1214:1220   */\n  dup3\n    /* \"#utility.yul\":1203:1212   */\n  dup9\n    /* \"#utility.yul\":1199:1221   */\n  add\n    /* \"#utility.yul\":1167:1231   */\n  tag_33\n  jump\t// in\ntag_59:\n    /* \"#utility.yul\":1157:1231   */\n  swap5\n  pop\n    /* \"#utility.yul\":1113:1241   */\n  pop\n    /* \"#utility.yul\":1280:1282   */\n  0x20\n    /* \"#utility.yul\":1306:1370   */\n  tag_60\n    /* \"#utility.yul\":1362:1369   */\n  dup8\n    /* \"#utility.yul\":1353:1359   */\n  dup3\n    /* \"#utility.yul\":1342:1351   */\n  dup9\n    /* \"#utility.yul\":1338:1360   */\n  add\n    /* \"#utility.yul\":1306:1370   */\n  tag_33\n  jump\t// in\ntag_60:\n    /* \"#utility.yul\":1296:1370   */\n  swap4\n  pop\n    /* \"#utility.yul\":1251:1380   */\n  pop\n    /* \"#utility.yul\":1419:1421   */\n  0x40\n    /* \"#utility.yul\":1445:1509   */\n  tag_61\n    /* \"#utility.yul\":1501:1508   */\n  dup8\n    /* \"#utility.yul\":1492:1498   */\n  dup3\n    /* \"#utility.yul\":1481:1490   */\n  dup9\n    /* \"#utility.yul\":1477:1499   */\n  add\n    /* \"#utility.yul\":1445:1509   */\n  tag_33\n  jump\t// in\ntag_61:\n    /* \"#utility.yul\":1435:1509   */\n  swap3\n  pop\n    /* \"#utility.yul\":1390:1519   */\n  pop\n    /* \"#utility.yul\":1558:1560   */\n  0x60\n    /* \"#utility.yul\":1584:1648   */\n  tag_62\n    /* \"#utility.yul\":1640:1647   */\n  dup8\n    /* \"#utility.yul\":1631:1637   */\n  dup3\n    /* \"#utility.yul\":1620:1629   */\n  dup9\n    /* \"#utility.yul\":1616:1638   */\n  add\n    /* \"#utility.yul\":1584:1648   */\n  tag_33\n  jump\t// in\ntag_62:\n    /* \"#utility.yul\":1574:1648   */\n  swap2\n  pop\n    /* \"#utility.yul\":1529:1658   */\n  pop\n    /* \"#utility.yul\":845:1665   */\n  swap3\n  swap6\n  swap2\n  swap5\n  pop\n  swap3\n  pop\n  jump\t// out\n    /* \"#utility.yul\":1671:1789   */\ntag_34:\n    /* \"#utility.yul\":1758:1782   */\n  tag_64\n    /* \"#utility.yul\":1776:1781   */\n  dup2\n    /* \"#utility.yul\":1758:1782   */\n  tag_31\n  jump\t// in\ntag_64:\n    /* \"#utility.yul\":1753:1756   */\n  dup3\n    /* \"#utility.yul\":1746:1783   */\n  mstore\n    /* \"#utility.yul\":1671:1789   */\n  pop\n  pop\n  jump\t// out\n    /* \"#utility.yul\":1795:2017   */\ntag_9:\n    /* \"#utility.yul\":1888:1892   */\n  0x00\n    /* \"#utility.yul\":1926:1928   */\n  0x20\n    /* \"#utility.yul\":1915:1924   */\n  dup3\n    /* \"#utility.yul\":1911:1929   */\n  add\n    /* \"#utility.yul\":1903:1929   */\n  swap1\n  pop\n    /* \"#utility.yul\":1939:2010   */\n  tag_66\n    /* \"#utility.yul\":2007:2008   */\n  0x00\n    /* \"#utility.yul\":1996:2005   */\n  dup4\n    /* \"#utility.yul\":1992:2009   */\n  add\n    /* \"#utility.yul\":1983:1989   */\n  dup5\n    /* \"#utility.yul\":1939:2010   */\n  tag_34\n  jump\t// in\ntag_66:\n    /* \"#utility.yul\":1795:2017   */\n  swap3\n  swap2\n  pop\n  pop\n  jump\t// out\n    /* \"#utility.yul\":2023:2192   */\ntag_35:\n    /* \"#utility.yul\":2107:2118   */\n  0x00\n    /* \"#utility.yul\":2141:2147   */\n  dup3\n    /* \"#utility.yul\":2136:2139   */\n  dup3\n    /* \"#utility.yul\":2129:2148   */\n  mstore\n    /* \"#utility.yul\":2181:2185   */\n  0x20\n    /* \"#utility.yul\":2176:2179   */\n  dup3\n    /* \"#utility.yul\":2172:2186   */\n  add\n    /* \"#utility.yul\":2157:2186   */\n  swap1\n  pop\n    /* \"#utility.yul\":2023:2192   */\n  swap3\n  swap2\n  pop\n  pop\n  jump\t// out\n    /* \"#utility.yul\":2198:2374   */\ntag_36:\n    /* \"#utility.yul\":2338:2366   */\n  0x496e76616c696420737461626c65636f696e2061646472657373000000000000\n    /* \"#utility.yul\":2334:2335   */\n  0x00\n    /* \"#utility.yul\":2326:2332   */\n  dup3\n    /* \"#utility.yul\":2322:2336   */\n  add\n    /* \"#utility.yul\":2315:2367   */\n  mstore\n    /* \"#utility.yul\":2198:2374   */\n  pop\n  jump\t// out\n    /* \"#utility.yul\":2380:2746   */\ntag_37:\n    /* \"#utility.yul\":2522:2525   */\n  0x00\n    /* \"#utility.yul\":2543:2610   */\n  tag_70\n    /* \"#utility.yul\":2607:2609   */\n  0x1a\n    /* \"#utility.yul\":2602:2605   */\n  dup4\n    /* \"#utility.yul\":2543:2610   */\n  tag_35\n  jump\t// in\ntag_70:\n    /* \"#utility.yul\":2536:2610   */\n  swap2\n  pop\n    /* \"#utility.yul\":2619:2712   */\n  tag_71\n    /* \"#utility.yul\":2708:2711   */\n  dup3\n    /* \"#utility.yul\":2619:2712   */\n  tag_36\n  jump\t// in\ntag_71:\n    /* \"#utility.yul\":2737:2739   */\n  0x20\n    /* \"#utility.yul\":2732:2735   */\n  dup3\n    /* \"#utility.yul\":2728:2740   */\n  add\n    /* \"#utility.yul\":2721:2740   */\n  swap1\n  pop\n    /* \"#utility.yul\":2380:2746   */\n  swap2\n  swap1\n  pop\n  jump\t// out\n    /* \"#utility.yul\":2752:3171   */\ntag_15:\n    /* \"#utility.yul\":2918:2922   */\n  0x00\n    /* \"#utility.yul\":2956:2958   */\n  0x20\n    /* \"#utility.yul\":2945:2954   */\n  dup3\n    /* \"#utility.yul\":2941:2959   */\n  add\n    /* \"#utility.yul\":2933:2959   */\n  swap1\n  pop\n    /* \"#utility.yul\":3005:3014   */\n  dup2\n    /* \"#utility.yul\":2999:3003   */\n  dup2\n    /* \"#utility.yul\":2995:3015   */\n  sub\n    /* \"#utility.yul\":2991:2992   */\n  0x00\n    /* \"#utility.yul\":2980:2989   */\n  dup4\n    /* \"#utility.yul\":2976:2993   */\n  add\n    /* \"#utility.yul\":2969:3016   */\n  mstore\n    /* \"#utility.yul\":3033:3164   */\n  tag_73\n    /* \"#utility.yul\":3159:3163   */\n  dup2\n    /* \"#utility.yul\":3033:3164   */\n  tag_37\n  jump\t// in\ntag_73:\n    /* \"#utility.yul\":3025:3164   */\n  swap1\n  pop\n    /* \"#utility.yul\":2752:3171   */\n  swap2\n  swap1\n  pop\n  jump\t// out\n    /* \"#utility.yul\":3177:3347   */\ntag_38:\n    /* \"#utility.yul\":3317:3339   */\n  0x496e76616c696420634254432061646472657373000000000000000000000000\n    /* \"#utility.yul\":3313:3314   */\n  0x00\n    /* \"#utility.yul\":3305:3311   */\n  dup3\n    /* \"#utility.yul\":3301:3315   */\n  add\n    /* \"#utility.yul\":3294:3340   */\n  mstore\n    /* \"#utility.yul\":3177:3347   */\n  pop\n  jump\t// out\n    /* \"#utility.yul\":3353:3719   */\ntag_39:\n    /* \"#utility.yul\":3495:3498   */\n  0x00\n    /* \"#utility.yul\":3516:3583   */\n  tag_76\n    /* \"#utility.yul\":3580:3582   */\n  0x14\n    /* \"#utility.yul\":3575:3578   */\n  dup4\n    /* \"#utility.yul\":3516:3583   */\n  tag_35\n  jump\t// in\ntag_76:\n    /* \"#utility.yul\":3509:3583   */\n  swap2\n  pop\n    /* \"#utility.yul\":3592:3685   */\n  tag_77\n    /* \"#utility.yul\":3681:3684   */\n  dup3\n    /* \"#utility.yul\":3592:3685   */\n  tag_38\n  jump\t// in\ntag_77:\n    /* \"#utility.yul\":3710:3712   */\n  0x20\n    /* \"#utility.yul\":3705:3708   */\n  dup3\n    /* \"#utility.yul\":3701:3713   */\n  add\n    /* \"#utility.yul\":3694:3713   */\n  swap1\n  pop\n    /* \"#utility.yul\":3353:3719   */\n  swap2\n  swap1\n  pop\n  jump\t// out\n    /* \"#utility.yul\":3725:4144   */\ntag_18:\n    /* \"#utility.yul\":3891:3895   */\n  0x00\n    /* \"#utility.yul\":3929:3931   */\n  0x20\n    /* \"#utility.yul\":3918:3927   */\n  dup3\n    /* \"#utility.yul\":3914:3932   */\n  add\n    /* \"#utility.yul\":3906:3932   */\n  swap1\n  pop\n    /* \"#utility.yul\":3978:3987   */\n  dup2\n    /* \"#utility.yul\":3972:3976   */\n  dup2\n    /* \"#utility.yul\":3968:3988   */\n  sub\n    /* \"#utility.yul\":3964:3965   */\n  0x00\n    /* \"#utility.yul\":3953:3962   */\n  dup4\n    /* \"#utility.yul\":3949:3966   */\n  add\n    /* \"#utility.yul\":3942:3989   */\n  mstore\n    /* \"#utility.yul\":4006:4137   */\n  tag_79\n    /* \"#utility.yul\":4132:4136   */\n  dup2\n    /* \"#utility.yul\":4006:4137   */\n  tag_39\n  jump\t// in\ntag_79:\n    /* \"#utility.yul\":3998:4137   */\n  swap1\n  pop\n    /* \"#utility.yul\":3725:4144   */\n  swap2\n  swap1\n  pop\n  jump\t// out\n    /* \"#utility.yul\":4150:4326   */\ntag_40:\n    /* \"#utility.yul\":4290:4318   */\n  0x496e76616c69642061676772656761746f722061646472657373000000000000\n    /* \"#utility.yul\":4286:4287   */\n  0x00\n    /* \"#utility.yul\":4278:4284   */\n  dup3\n    /* \"#utility.yul\":4274:4288   */\n  add\n    /* \"#utility.yul\":4267:4319   */\n  mstore\n    /* \"#utility.yul\":4150:4326   */\n  pop\n  jump\t// out\n    /* \"#utility.yul\":4332:4698   */\ntag_41:\n    /* \"#utility.yul\":4474:4477   */\n  0x00\n    /* \"#utility.yul\":4495:4562   */\n  tag_82\n    /* \"#utility.yul\":4559:4561   */\n  0x1a\n    /* \"#utility.yul\":4554:4557   */\n  dup4\n    /* \"#utility.yul\":4495:4562   */\n  tag_35\n  jump\t// in\ntag_82:\n    /* \"#utility.yul\":4488:4562   */\n  swap2\n  pop\n    /* \"#utility.yul\":4571:4664   */\n  tag_83\n    /* \"#utility.yul\":4660:4663   */\n  dup3\n    /* \"#utility.yul\":4571:4664   */\n  tag_40\n  jump\t// in\ntag_83:\n    /* \"#utility.yul\":4689:4691   */\n  0x20\n    /* \"#utility.yul\":4684:4687   */\n  dup3\n    /* \"#utility.yul\":4680:4692   */\n  add\n    /* \"#utility.yul\":4673:4692   */\n  swap1\n  pop\n    /* \"#utility.yul\":4332:4698   */\n  swap2\n  swap1\n  pop\n  jump\t// out\n    /* \"#utility.yul\":4704:5123   */\ntag_21:\n    /* \"#utility.yul\":4870:4874   */\n  0x00\n    /* \"#utility.yul\":4908:4910   */\n  0x20\n    /* \"#utility.yul\":4897:4906   */\n  dup3\n    /* \"#utility.yul\":4893:4911   */\n  add\n    /* \"#utility.yul\":4885:4911   */\n  swap1\n  pop\n    /* \"#utility.yul\":4957:4966   */\n  dup2\n    /* \"#utility.yul\":4951:4955   */\n  dup2\n    /* \"#utility.yul\":4947:4967   */\n  sub\n    /* \"#utility.yul\":4943:4944   */\n  0x00\n    /* \"#utility.yul\":4932:4941   */\n  dup4\n    /* \"#utility.yul\":4928:4945   */\n  add\n    /* \"#utility.yul\":4921:4968   */\n  mstore\n    /* \"#utility.yul\":4985:5116   */\n  tag_85\n    /* \"#utility.yul\":5111:5115   */\n  dup2\n    /* \"#utility.yul\":4985:5116   */\n  tag_41\n  jump\t// in\ntag_85:\n    /* \"#utility.yul\":4977:5116   */\n  swap1\n  pop\n    /* \"#utility.yul\":4704:5123   */\n  swap2\n  swap1\n  pop\n  jump\t// out\n    /* \"#utility.yul\":5129:5298   */\ntag_42:\n    /* \"#utility.yul\":5269:5290   */\n  0x496e76616c696420444558206164647265737300000000000000000000000000\n    /* \"#utility.yul\":5265:5266   */\n  0x00\n    /* \"#utility.yul\":5257:5263   */\n  dup3\n    /* \"#utility.yul\":5253:5267   */\n  add\n    /* \"#utility.yul\":5246:5291   */\n  mstore\n    /* \"#utility.yul\":5129:5298   */\n  pop\n  jump\t// out\n    /* \"#utility.yul\":5304:5670   */\ntag_43:\n    /* \"#utility.yul\":5446:5449   */\n  0x00\n    /* \"#utility.yul\":5467:5534   */\n  tag_88\n    /* \"#utility.yul\":5531:5533   */\n  0x13\n    /* \"#utility.yul\":5526:5529   */\n  dup4\n    /* \"#utility.yul\":5467:5534   */\n  tag_35\n  jump\t// in\ntag_88:\n    /* \"#utility.yul\":5460:5534   */\n  swap2\n  pop\n    /* \"#utility.yul\":5543:5636   */\n  tag_89\n    /* \"#utility.yul\":5632:5635   */\n  dup3\n    /* \"#utility.yul\":5543:5636   */\n  tag_42\n  jump\t// in\ntag_89:\n    /* \"#utility.yul\":5661:5663   */\n  0x20\n    /* \"#utility.yul\":5656:5659   */\n  dup3\n    /* \"#utility.yul\":5652:5664   */\n  add\n    /* \"#utility.yul\":5645:5664   */\n  swap1\n  pop\n    /* \"#utility.yul\":5304:5670   */\n  swap2\n  swap1\n  pop\n  jump\t// out\n    /* \"#utility.yul\":5676:6095   */\ntag_24:\n    /* \"#utility.yul\":5842:5846   */\n  0x00\n    /* \"#utility.yul\":5880:5882   */\n  0x20\n    /* \"#utility.yul\":5869:5878   */\n  dup3\n    /* \"#utility.yul\":5865:5883   */\n  add\n    /* \"#utility.yul\":5857:5883   */\n  swap1\n  pop\n    /* \"#utility.yul\":5929:5938   */\n  dup2\n    /* \"#utility.yul\":5923:5927   */\n  dup2\n    /* \"#utility.yul\":5919:5939   */\n  sub\n    /* \"#utility.yul\":5915:5916   */\n  0x00\n    /* \"#utility.yul\":5904:5913   */\n  dup4\n    /* \"#utility.yul\":5900:5917   */\n  add\n    /* \"#utility.yul\":5893:5940   */\n  mstore\n    /* \"#utility.yul\":5957:6088   */\n  tag_91\n    /* \"#utility.yul\":6083:6087   */\n  dup2\n    /* \"#utility.yul\":5957:6088   */\n  tag_43\n  jump\t// in\ntag_91:\n    /* \"#utility.yul\":5949:6088   */\n  swap1\n  pop\n    /* \"#utility.yul\":5676:6095   */\n  swap2\n  swap1\n  pop\n  jump\t// out\n    /* \"contracts/PaymentGateway.sol\":600:6796  contract PaymentGateway is Ownable(msg.sender) {... */\ntag_25:\n  dataSize(sub_0)\n  dup1\n  dataOffset(sub_0)\n  0x00\n  codecopy\n  0x00\n  return\nstop\n\nsub_0: assembly {\n        /* \"contracts/PaymentGateway.sol\":600:6796  contract PaymentGateway is Ownable(msg.sender) {... */\n      mstore(0x40, 0x80)\n      callvalue\n      dup1\n      iszero\n      tag_1\n      jumpi\n      0x00\n      dup1\n      revert\n    tag_1:\n      pop\n      jumpi(tag_2, lt(calldatasize, 0x04))\n      shr(0xe0, calldataload(0x00))\n      dup1\n      0x715018a6\n      gt\n      tag_17\n      jumpi\n      dup1\n      0xad487f23\n      gt\n      tag_18\n      jumpi\n      dup1\n      0xad487f23\n      eq\n      tag_13\n      jumpi\n      dup1\n      0xe5a5ef4f\n      eq\n      tag_14\n      jumpi\n      dup1\n      0xf2fde38b\n      eq\n      tag_15\n      jumpi\n      dup1\n      0xff0f7b74\n      eq\n      tag_16\n      jumpi\n      jump(tag_2)\n    tag_18:\n      dup1\n      0x715018a6\n      eq\n      tag_10\n      jumpi\n      dup1\n      0x8da5cb5b\n      eq\n      tag_11\n      jumpi\n      dup1\n      0x992642e5\n      eq\n      tag_12\n      jumpi\n      jump(tag_2)\n    tag_17:\n      dup1\n      0x245a7bfc\n      gt\n      tag_19\n      jumpi\n      dup1\n      0x245a7bfc\n      eq\n      tag_6\n      jumpi\n      dup1\n      0x4793f1d9\n      eq\n      tag_7\n      jumpi\n      dup1\n      0x5143fe12\n      eq\n      tag_8\n      jumpi\n      dup1\n      0x692058c2\n      eq\n      tag_9\n      jumpi\n      jump(tag_2)\n    tag_19:\n      dup1\n      0x0ae8c4dc\n      eq\n      tag_3\n      jumpi\n      dup1\n      0x194a7b8e\n      eq\n      tag_4\n      jumpi\n      dup1\n      0x20003022\n      eq\n      tag_5\n      jumpi\n    tag_2:\n      0x00\n      dup1\n      revert\n        /* \"contracts/PaymentGateway.sol\":886:903  ICBTC public cBTC */\n    tag_3:\n      tag_20\n      tag_21\n      jump\t// in\n    tag_20:\n      mload(0x40)\n      tag_22\n      swap2\n      swap1\n      tag_23\n      jump\t// in\n    tag_22:\n      mload(0x40)\n      dup1\n      swap2\n      sub\n      swap1\n      return\n        /* \"contracts/PaymentGateway.sol\":793:844  mapping(bytes32 => uint256) public merchantBalances */\n    tag_4:\n      tag_24\n      0x04\n      dup1\n      calldatasize\n      sub\n      dup2\n      add\n      swap1\n      tag_25\n      swap2\n      swap1\n      tag_26\n      jump\t// in\n    tag_25:\n      tag_27\n      jump\t// in\n    tag_24:\n      mload(0x40)\n      tag_28\n      swap2\n      swap1\n      tag_29\n      jump\t// in\n    tag_28:\n      mload(0x40)\n      dup1\n      swap2\n      sub\n      swap1\n      return\n        /* \"contracts/PaymentGateway.sol\":742:787  mapping(bytes32 => Merchant) public merchants */\n    tag_5:\n      tag_30\n      0x04\n      dup1\n      calldatasize\n      sub\n      dup2\n      add\n      swap1\n      tag_31\n      swap2\n      swap1\n      tag_26\n      jump\t// in\n    tag_31:\n      tag_32\n      jump\t// in\n    tag_30:\n      mload(0x40)\n      tag_33\n      swap3\n      swap2\n      swap1\n      tag_34\n      jump\t// in\n    tag_33:\n      mload(0x40)\n      dup1\n      swap2\n      sub\n      swap1\n      return\n        /* \"contracts/PaymentGateway.sol\":909:944  IAggregatorOracle public aggregator */\n    tag_6:\n      tag_35\n      tag_36\n      jump\t// in\n    tag_35:\n      mload(0x40)\n      tag_37\n      swap2\n      swap1\n      tag_38\n      jump\t// in\n    tag_37:\n      mload(0x40)\n      dup1\n      swap2\n      sub\n      swap1\n      return\n        /* \"contracts/PaymentGateway.sol\":3787:4169  function payMerchant(bytes32 merchantId, uint256 amount) external {... */\n    tag_7:\n      tag_39\n      0x04\n      dup1\n      calldatasize\n      sub\n      dup2\n      add\n      swap1\n      tag_40\n      swap2\n      swap1\n      tag_41\n      jump\t// in\n    tag_40:\n      tag_42\n      jump\t// in\n    tag_39:\n      stop\n        /* \"contracts/PaymentGateway.sol\":5478:6794  function payMerchantInCBTC(bytes32 merchantId, uint256 cUSDTargetAmount) external {... */\n    tag_8:\n      tag_43\n      0x04\n      dup1\n      calldatasize\n      sub\n      dup2\n      add\n      swap1\n      tag_44\n      swap2\n      swap1\n      tag_41\n      jump\t// in\n    tag_44:\n      tag_45\n      jump\t// in\n    tag_43:\n      stop\n        /* \"contracts/PaymentGateway.sol\":950:974  IDexInterface public dex */\n    tag_9:\n      tag_46\n      tag_47\n      jump\t// in\n    tag_46:\n      mload(0x40)\n      tag_48\n      swap2\n      swap1\n      tag_49\n      jump\t// in\n    tag_48:\n      mload(0x40)\n      dup1\n      swap2\n      sub\n      swap1\n      return\n        /* \"@openzeppelin/contracts/access/Ownable.sol\":2293:2394  function renounceOwnership() public virtual onlyOwner {... */\n    tag_10:\n      tag_50\n      tag_51\n      jump\t// in\n    tag_50:\n      stop\n        /* \"@openzeppelin/contracts/access/Ownable.sol\":1638:1723  function owner() public view virtual returns (address) {... */\n    tag_11:\n      tag_52\n      tag_53\n      jump\t// in\n    tag_52:\n      mload(0x40)\n      tag_54\n      swap2\n      swap1\n      tag_55\n      jump\t// in\n    tag_54:\n      mload(0x40)\n      dup1\n      swap2\n      sub\n      swap1\n      return\n        /* \"contracts/PaymentGateway.sol\":851:880  IStableCoin public stableCoin */\n    tag_12:\n      tag_56\n      tag_57\n      jump\t// in\n    tag_56:\n      mload(0x40)\n      tag_58\n      swap2\n      swap1\n      tag_59\n      jump\t// in\n    tag_58:\n      mload(0x40)\n      dup1\n      swap2\n      sub\n      swap1\n      return\n        /* \"contracts/PaymentGateway.sol\":4435:4943  function withdrawMerchantFunds(bytes32 merchantId) external onlyOwner {... */\n    tag_13:\n      tag_60\n      0x04\n      dup1\n      calldatasize\n      sub\n      dup2\n      add\n      swap1\n      tag_61\n      swap2\n      swap1\n      tag_26\n      jump\t// in\n    tag_61:\n      tag_62\n      jump\t// in\n    tag_60:\n      stop\n        /* \"contracts/PaymentGateway.sol\":2454:2950  function registerMerchant(bytes32 merchantId, address payable payoutAddress) external onlyOwner {... */\n    tag_14:\n      tag_63\n      0x04\n      dup1\n      calldatasize\n      sub\n      dup2\n      add\n      swap1\n      tag_64\n      swap2\n      swap1\n      tag_65\n      jump\t// in\n    tag_64:\n      tag_66\n      jump\t// in\n    tag_63:\n      stop\n        /* \"@openzeppelin/contracts/access/Ownable.sol\":2543:2758  function transferOwnership(address newOwner) public virtual onlyOwner {... */\n    tag_15:\n      tag_67\n      0x04\n      dup1\n      calldatasize\n      sub\n      dup2\n      add\n      swap1\n      tag_68\n      swap2\n      swap1\n      tag_69\n      jump\t// in\n    tag_68:\n      tag_70\n      jump\t// in\n    tag_67:\n      stop\n        /* \"contracts/PaymentGateway.sol\":3141:3575  function updateMerchant(bytes32 merchantId, address payable payoutAddress, bool active) external onlyOwner {... */\n    tag_16:\n      tag_71\n      0x04\n      dup1\n      calldatasize\n      sub\n      dup2\n      add\n      swap1\n      tag_72\n      swap2\n      swap1\n      tag_73\n      jump\t// in\n    tag_72:\n      tag_74\n      jump\t// in\n    tag_71:\n      stop\n        /* \"contracts/PaymentGateway.sol\":886:903  ICBTC public cBTC */\n    tag_21:\n      0x04\n      0x00\n      swap1\n      sload\n      swap1\n      0x0100\n      exp\n      swap1\n      div\n      0xffffffffffffffffffffffffffffffffffffffff\n      and\n      dup2\n      jump\t// out\n        /* \"contracts/PaymentGateway.sol\":793:844  mapping(bytes32 => uint256) public merchantBalances */\n    tag_27:\n      mstore(0x20, 0x02)\n      dup1\n      0x00\n      mstore\n      keccak256(0x00, 0x40)\n      0x00\n      swap2\n      pop\n      swap1\n      pop\n      sload\n      dup2\n      jump\t// out\n        /* \"contracts/PaymentGateway.sol\":742:787  mapping(bytes32 => Merchant) public merchants */\n    tag_32:\n      mstore(0x20, 0x01)\n      dup1\n      0x00\n      mstore\n      keccak256(0x00, 0x40)\n      0x00\n      swap2\n      pop\n      swap1\n      pop\n      dup1\n      0x00\n      add\n      0x00\n      swap1\n      sload\n      swap1\n      0x0100\n      exp\n      swap1\n      div\n      0xffffffffffffffffffffffffffffffffffffffff\n      and\n      swap1\n      dup1\n      0x00\n      add\n      0x14\n      swap1\n      sload\n      swap1\n      0x0100\n      exp\n      swap1\n      div\n      0xff\n      and\n      swap1\n      pop\n      dup3\n      jump\t// out\n        /* \"contracts/PaymentGateway.sol\":909:944  IAggregatorOracle public aggregator */\n    tag_36:\n      0x05\n      0x00\n      swap1\n      sload\n      swap1\n      0x0100\n      exp\n      swap1\n      div\n      0xffffffffffffffffffffffffffffffffffffffff\n      and\n      dup2\n      jump\t// out\n        /* \"contracts/PaymentGateway.sol\":3787:4169  function payMerchant(bytes32 merchantId, uint256 amount) external {... */\n    tag_42:\n        /* \"contracts/PaymentGateway.sol\":3863:3880  Merchant memory m */\n      0x00\n        /* \"contracts/PaymentGateway.sol\":3883:3892  merchants */\n      0x01\n        /* \"contracts/PaymentGateway.sol\":3883:3904  merchants[merchantId] */\n      0x00\n        /* \"contracts/PaymentGateway.sol\":3893:3903  merchantId */\n      dup5\n        /* \"contracts/PaymentGateway.sol\":3883:3904  merchants[merchantId] */\n      dup2\n      mstore\n      0x20\n      add\n      swap1\n      dup2\n      mstore\n      0x20\n      add\n      0x00\n      keccak256\n        /* \"contracts/PaymentGateway.sol\":3863:3904  Merchant memory m = merchants[merchantId] */\n      mload(0x40)\n      dup1\n      0x40\n      add\n      0x40\n      mstore\n      swap1\n      dup2\n      0x00\n      dup3\n      add\n      0x00\n      swap1\n      sload\n      swap1\n      0x0100\n      exp\n      swap1\n      div\n      0xffffffffffffffffffffffffffffffffffffffff\n      and\n      0xffffffffffffffffffffffffffffffffffffffff\n      and\n      0xffffffffffffffffffffffffffffffffffffffff\n      and\n      dup2\n      mstore\n      0x20\n      add\n      0x00\n      dup3\n      add\n      0x14\n      swap1\n      sload\n      swap1\n      0x0100\n      exp\n      swap1\n      div\n      0xff\n      and\n      iszero\n      iszero\n      iszero\n      iszero\n      dup2\n      mstore\n      pop\n      pop\n      swap1\n      pop\n        /* \"contracts/PaymentGateway.sol\":3922:3923  m */\n      dup1\n        /* \"contracts/PaymentGateway.sol\":3922:3930  m.active */\n      0x20\n      add\n      mload\n        /* \"contracts/PaymentGateway.sol\":3914:3954  require(m.active, \"Merchant not active\") */\n      tag_76\n      jumpi\n      mload(0x40)\n      0x08c379a000000000000000000000000000000000000000000000000000000000\n      dup2\n      mstore\n      0x04\n      add\n      tag_77\n      swap1\n      tag_78\n      jump\t// in\n    tag_77:\n      mload(0x40)\n      dup1\n      swap2\n      sub\n      swap1\n      revert\n    tag_76:\n        /* \"contracts/PaymentGateway.sol\":3973:3983  stableCoin */\n      0x03\n      0x00\n      swap1\n      sload\n      swap1\n      0x0100\n      exp\n      swap1\n      div\n      0xffffffffffffffffffffffffffffffffffffffff\n      and\n        /* \"contracts/PaymentGateway.sol\":3973:3996  stableCoin.transferFrom */\n      0xffffffffffffffffffffffffffffffffffffffff\n      and\n      0x23b872dd\n        /* \"contracts/PaymentGateway.sol\":3997:4007  msg.sender */\n      caller\n        /* \"contracts/PaymentGateway.sol\":4017:4021  this */\n      address\n        /* \"contracts/PaymentGateway.sol\":4024:4030  amount */\n      dup6\n        /* \"contracts/PaymentGateway.sol\":3973:4031  stableCoin.transferFrom(msg.sender, address(this), amount) */\n      mload(0x40)\n      dup5\n      0xffffffff\n      and\n      0xe0\n      shl\n      dup2\n      mstore\n      0x04\n      add\n      tag_79\n      swap4\n      swap3\n      swap2\n      swap1\n      tag_80\n      jump\t// in\n    tag_79:\n      0x20\n      mload(0x40)\n      dup1\n      dup4\n      sub\n      dup2\n      0x00\n      dup8\n      gas\n      call\n      iszero\n      dup1\n      iszero\n      tag_82\n      jumpi\n      returndatasize\n      0x00\n      dup1\n      returndatacopy\n      revert(0x00, returndatasize)\n    tag_82:\n      pop\n      pop\n      pop\n      pop\n      mload(0x40)\n      returndatasize\n      not(0x1f)\n      0x1f\n      dup3\n      add\n      and\n      dup3\n      add\n      dup1\n      0x40\n      mstore\n      pop\n      dup2\n      add\n      swap1\n      tag_83\n      swap2\n      swap1\n      tag_84\n      jump\t// in\n    tag_83:\n        /* \"contracts/PaymentGateway.sol\":3965:4051  require(stableCoin.transferFrom(msg.sender, address(this), amount), \"Transfer failed\") */\n      tag_85\n      jumpi\n      mload(0x40)\n      0x08c379a000000000000000000000000000000000000000000000000000000000\n      dup2\n      mstore\n      0x04\n      add\n      tag_86\n      swap1\n      tag_87\n      jump\t// in\n    tag_86:\n      mload(0x40)\n      dup1\n      swap2\n      sub\n      swap1\n      revert\n    tag_85:\n        /* \"contracts/PaymentGateway.sol\":4093:4099  amount */\n      dup2\n        /* \"contracts/PaymentGateway.sol\":4061:4077  merchantBalances */\n      0x02\n        /* \"contracts/PaymentGateway.sol\":4061:4089  merchantBalances[merchantId] */\n      0x00\n        /* \"contracts/PaymentGateway.sol\":4078:4088  merchantId */\n      dup6\n        /* \"contracts/PaymentGateway.sol\":4061:4089  merchantBalances[merchantId] */\n      dup2\n      mstore\n      0x20\n      add\n      swap1\n      dup2\n      mstore\n      0x20\n      add\n      0x00\n      keccak256\n      0x00\n        /* \"contracts/PaymentGateway.sol\":4061:4099  merchantBalances[merchantId] += amount */\n      dup3\n      dup3\n      sload\n      tag_88\n      swap2\n      swap1\n      tag_89\n      jump\t// in\n    tag_88:\n      swap3\n      pop\n      pop\n      dup2\n      swap1\n      sstore\n      pop\n        /* \"contracts/PaymentGateway.sol\":4143:4153  msg.sender */\n      caller\n        /* \"contracts/PaymentGateway.sol\":4115:4162  PaymentReceived(merchantId, msg.sender, amount) */\n      0xffffffffffffffffffffffffffffffffffffffff\n      and\n        /* \"contracts/PaymentGateway.sol\":4131:4141  merchantId */\n      dup4\n        /* \"contracts/PaymentGateway.sol\":4115:4162  PaymentReceived(merchantId, msg.sender, amount) */\n      0x3b5907c9aaeaeef015f385111975b015225e1001bf659370e62c15e13373bc6d\n        /* \"contracts/PaymentGateway.sol\":4155:4161  amount */\n      dup5\n        /* \"contracts/PaymentGateway.sol\":4115:4162  PaymentReceived(merchantId, msg.sender, amount) */\n      mload(0x40)\n      tag_90\n      swap2\n      swap1\n      tag_29\n      jump\t// in\n    tag_90:\n      mload(0x40)\n      dup1\n      swap2\n      sub\n      swap1\n      log3\n        /* \"contracts/PaymentGateway.sol\":3853:4169  {... */\n      pop\n        /* \"contracts/PaymentGateway.sol\":3787:4169  function payMerchant(bytes32 merchantId, uint256 amount) external {... */\n      pop\n      pop\n      jump\t// out\n        /* \"contracts/PaymentGateway.sol\":5478:6794  function payMerchantInCBTC(bytes32 merchantId, uint256 cUSDTargetAmount) external {... */\n    tag_45:\n        /* \"contracts/PaymentGateway.sol\":5570:5587  Merchant memory m */\n      0x00\n        /* \"contracts/PaymentGateway.sol\":5590:5599  merchants */\n      0x01\n        /* \"contracts/PaymentGateway.sol\":5590:5611  merchants[merchantId] */\n      0x00\n        /* \"contracts/PaymentGateway.sol\":5600:5610  merchantId */\n      dup5\n        /* \"contracts/PaymentGateway.sol\":5590:5611  merchants[merchantId] */\n      dup2\n      mstore\n      0x20\n      add\n      swap1\n      dup2\n      mstore\n      0x20\n      add\n      0x00\n      keccak256\n        /* \"contracts/PaymentGateway.sol\":5570:5611  Merchant memory m = merchants[merchantId] */\n      mload(0x40)\n      dup1\n      0x40\n      add\n      0x40\n      mstore\n      swap1\n      dup2\n      0x00\n      dup3\n      add\n      0x00\n      swap1\n      sload\n      swap1\n      0x0100\n      exp\n      swap1\n      div\n      0xffffffffffffffffffffffffffffffffffffffff\n      and\n      0xffffffffffffffffffffffffffffffffffffffff\n      and\n      0xffffffffffffffffffffffffffffffffffffffff\n      and\n      dup2\n      mstore\n      0x20\n      add\n      0x00\n      dup3\n      add\n      0x14\n      swap1\n      sload\n      swap1\n      0x0100\n      exp\n      swap1\n      div\n      0xff\n      and\n      iszero\n      iszero\n      iszero\n      iszero\n      dup2\n      mstore\n      pop\n      pop\n      swap1\n      pop\n        /* \"contracts/PaymentGateway.sol\":5629:5630  m */\n      dup1\n        /* \"contracts/PaymentGateway.sol\":5629:5637  m.active */\n      0x20\n      add\n      mload\n        /* \"contracts/PaymentGateway.sol\":5621:5661  require(m.active, \"Merchant not active\") */\n      tag_92\n      jumpi\n      mload(0x40)\n      0x08c379a000000000000000000000000000000000000000000000000000000000\n      dup2\n      mstore\n      0x04\n      add\n      tag_93\n      swap1\n      tag_78\n      jump\t// in\n    tag_93:\n      mload(0x40)\n      dup1\n      swap2\n      sub\n      swap1\n      revert\n    tag_92:\n        /* \"contracts/PaymentGateway.sol\":5738:5761  uint256 cBTCPriceInCUSD */\n      0x00\n        /* \"contracts/PaymentGateway.sol\":5764:5774  aggregator */\n      0x05\n      0x00\n      swap1\n      sload\n      swap1\n      0x0100\n      exp\n      swap1\n      div\n      0xffffffffffffffffffffffffffffffffffffffff\n      and\n        /* \"contracts/PaymentGateway.sol\":5764:5789  aggregator.getMedianPrice */\n      0xffffffffffffffffffffffffffffffffffffffff\n      and\n      0xadfe34f7\n        /* \"contracts/PaymentGateway.sol\":5798:5802  cBTC */\n      0x04\n      0x00\n      swap1\n      sload\n      swap1\n      0x0100\n      exp\n      swap1\n      div\n      0xffffffffffffffffffffffffffffffffffffffff\n      and\n        /* \"contracts/PaymentGateway.sol\":5764:5804  aggregator.getMedianPrice(address(cBTC)) */\n      mload(0x40)\n      dup3\n      0xffffffff\n      and\n      0xe0\n      shl\n      dup2\n      mstore\n      0x04\n      add\n      tag_94\n      swap2\n      swap1\n      tag_55\n      jump\t// in\n    tag_94:\n      0x20\n      mload(0x40)\n      dup1\n      dup4\n      sub\n      dup2\n      dup7\n      gas\n      staticcall\n      iszero\n      dup1\n      iszero\n      tag_96\n      jumpi\n      returndatasize\n      0x00\n      dup1\n      returndatacopy\n      revert(0x00, returndatasize)\n    tag_96:\n      pop\n      pop\n      pop\n      pop\n      mload(0x40)\n      returndatasize\n      not(0x1f)\n      0x1f\n      dup3\n      add\n      and\n      dup3\n      add\n      dup1\n      0x40\n      mstore\n      pop\n      dup2\n      add\n      swap1\n      tag_97\n      swap2\n      swap1\n      tag_98\n      jump\t// in\n    tag_97:\n        /* \"contracts/PaymentGateway.sol\":5738:5804  uint256 cBTCPriceInCUSD = aggregator.getMedianPrice(address(cBTC)) */\n      swap1\n      pop\n        /* \"contracts/PaymentGateway.sol\":5840:5841  0 */\n      0x00\n        /* \"contracts/PaymentGateway.sol\":5822:5837  cBTCPriceInCUSD */\n      dup2\n        /* \"contracts/PaymentGateway.sol\":5822:5841  cBTCPriceInCUSD > 0 */\n      gt\n        /* \"contracts/PaymentGateway.sol\":5814:5859  require(cBTCPriceInCUSD > 0, \"Invalid price\") */\n      tag_99\n      jumpi\n      mload(0x40)\n      0x08c379a000000000000000000000000000000000000000000000000000000000\n      dup2\n      mstore\n      0x04\n      add\n      tag_100\n      swap1\n      tag_101\n      jump\t// in\n    tag_100:\n      mload(0x40)\n      dup1\n      swap2\n      sub\n      swap1\n      revert\n    tag_99:\n        /* \"contracts/PaymentGateway.sol\":5994:6012  uint256 cBTCAmount */\n      0x00\n        /* \"contracts/PaymentGateway.sol\":6043:6058  cBTCPriceInCUSD */\n      dup2\n        /* \"contracts/PaymentGateway.sol\":6035:6039  1e18 */\n      0x0de0b6b3a7640000\n        /* \"contracts/PaymentGateway.sol\":6016:6032  cUSDTargetAmount */\n      dup6\n        /* \"contracts/PaymentGateway.sol\":6016:6039  cUSDTargetAmount * 1e18 */\n      tag_102\n      swap2\n      swap1\n      tag_103\n      jump\t// in\n    tag_102:\n        /* \"contracts/PaymentGateway.sol\":6015:6058  (cUSDTargetAmount * 1e18) / cBTCPriceInCUSD */\n      tag_104\n      swap2\n      swap1\n      tag_105\n      jump\t// in\n    tag_104:\n        /* \"contracts/PaymentGateway.sol\":5994:6058  uint256 cBTCAmount = (cUSDTargetAmount * 1e18) / cBTCPriceInCUSD */\n      swap1\n      pop\n        /* \"contracts/PaymentGateway.sol\":6112:6116  cBTC */\n      0x04\n      0x00\n      swap1\n      sload\n      swap1\n      0x0100\n      exp\n      swap1\n      div\n      0xffffffffffffffffffffffffffffffffffffffff\n      and\n        /* \"contracts/PaymentGateway.sol\":6112:6129  cBTC.transferFrom */\n      0xffffffffffffffffffffffffffffffffffffffff\n      and\n      0x23b872dd\n        /* \"contracts/PaymentGateway.sol\":6130:6140  msg.sender */\n      caller\n        /* \"contracts/PaymentGateway.sol\":6150:6154  this */\n      address\n        /* \"contracts/PaymentGateway.sol\":6157:6167  cBTCAmount */\n      dup5\n        /* \"contracts/PaymentGateway.sol\":6112:6168  cBTC.transferFrom(msg.sender, address(this), cBTCAmount) */\n      mload(0x40)\n      dup5\n      0xffffffff\n      and\n      0xe0\n      shl\n      dup2\n      mstore\n      0x04\n      add\n      tag_106\n      swap4\n      swap3\n      swap2\n      swap1\n      tag_80\n      jump\t// in\n    tag_106:\n      0x20\n      mload(0x40)\n      dup1\n      dup4\n      sub\n      dup2\n      0x00\n      dup8\n      gas\n      call\n      iszero\n      dup1\n      iszero\n      tag_108\n      jumpi\n      returndatasize\n      0x00\n      dup1\n      returndatacopy\n      revert(0x00, returndatasize)\n    tag_108:\n      pop\n      pop\n      pop\n      pop\n      mload(0x40)\n      returndatasize\n      not(0x1f)\n      0x1f\n      dup3\n      add\n      and\n      dup3\n      add\n      dup1\n      0x40\n      mstore\n      pop\n      dup2\n      add\n      swap1\n      tag_109\n      swap2\n      swap1\n      tag_84\n      jump\t// in\n    tag_109:\n        /* \"contracts/PaymentGateway.sol\":6104:6188  require(cBTC.transferFrom(msg.sender, address(this), cBTCAmount), \"Transfer failed\") */\n      tag_110\n      jumpi\n      mload(0x40)\n      0x08c379a000000000000000000000000000000000000000000000000000000000\n      dup2\n      mstore\n      0x04\n      add\n      tag_111\n      swap1\n      tag_87\n      jump\t// in\n    tag_111:\n      mload(0x40)\n      dup1\n      swap2\n      sub\n      swap1\n      revert\n    tag_110:\n        /* \"contracts/PaymentGateway.sol\":6244:6248  cBTC */\n      0x04\n      0x00\n      swap1\n      sload\n      swap1\n      0x0100\n      exp\n      swap1\n      div\n      0xffffffffffffffffffffffffffffffffffffffff\n      and\n        /* \"contracts/PaymentGateway.sol\":6244:6256  cBTC.approve */\n      0xffffffffffffffffffffffffffffffffffffffff\n      and\n      0x095ea7b3\n        /* \"contracts/PaymentGateway.sol\":6265:6268  dex */\n      0x06\n      0x00\n      swap1\n      sload\n      swap1\n      0x0100\n      exp\n      swap1\n      div\n      0xffffffffffffffffffffffffffffffffffffffff\n      and\n        /* \"contracts/PaymentGateway.sol\":6271:6281  cBTCAmount */\n      dup4\n        /* \"contracts/PaymentGateway.sol\":6244:6282  cBTC.approve(address(dex), cBTCAmount) */\n      mload(0x40)\n      dup4\n      0xffffffff\n      and\n      0xe0\n      shl\n      dup2\n      mstore\n      0x04\n      add\n      tag_112\n      swap3\n      swap2\n      swap1\n      tag_113\n      jump\t// in\n    tag_112:\n      0x20\n      mload(0x40)\n      dup1\n      dup4\n      sub\n      dup2\n      0x00\n      dup8\n      gas\n      call\n      iszero\n      dup1\n      iszero\n      tag_115\n      jumpi\n      returndatasize\n      0x00\n      dup1\n      returndatacopy\n      revert(0x00, returndatasize)\n    tag_115:\n      pop\n      pop\n      pop\n      pop\n      mload(0x40)\n      returndatasize\n      not(0x1f)\n      0x1f\n      dup3\n      add\n      and\n      dup3\n      add\n      dup1\n      0x40\n      mstore\n      pop\n      dup2\n      add\n      swap1\n      tag_116\n      swap2\n      swap1\n      tag_84\n      jump\t// in\n    tag_116:\n        /* \"contracts/PaymentGateway.sol\":6236:6306  require(cBTC.approve(address(dex), cBTCAmount), \"cBTC approve failed\") */\n      tag_117\n      jumpi\n      mload(0x40)\n      0x08c379a000000000000000000000000000000000000000000000000000000000\n      dup2\n      mstore\n      0x04\n      add\n      tag_118\n      swap1\n      tag_119\n      jump\t// in\n    tag_118:\n      mload(0x40)\n      dup1\n      swap2\n      sub\n      swap1\n      revert\n    tag_117:\n        /* \"contracts/PaymentGateway.sol\":6521:6524  dex */\n      0x06\n      0x00\n      swap1\n      sload\n      swap1\n      0x0100\n      exp\n      swap1\n      div\n      0xffffffffffffffffffffffffffffffffffffffff\n      and\n        /* \"contracts/PaymentGateway.sol\":6521:6540  dex.swapCBTCForCUSD */\n      0xffffffffffffffffffffffffffffffffffffffff\n      and\n      0x3a96d086\n        /* \"contracts/PaymentGateway.sol\":6541:6551  cBTCAmount */\n      dup3\n        /* \"contracts/PaymentGateway.sol\":6553:6569  cUSDTargetAmount */\n      dup7\n        /* \"contracts/PaymentGateway.sol\":6521:6570  dex.swapCBTCForCUSD(cBTCAmount, cUSDTargetAmount) */\n      mload(0x40)\n      dup4\n      0xffffffff\n      and\n      0xe0\n      shl\n      dup2\n      mstore\n      0x04\n      add\n      tag_120\n      swap3\n      swap2\n      swap1\n      tag_121\n      jump\t// in\n    tag_120:\n      0x00\n      mload(0x40)\n      dup1\n      dup4\n      sub\n      dup2\n      0x00\n      dup8\n      dup1\n      extcodesize\n      iszero\n      dup1\n      iszero\n      tag_122\n      jumpi\n      0x00\n      dup1\n      revert\n    tag_122:\n      pop\n      gas\n      call\n      iszero\n      dup1\n      iszero\n      tag_124\n      jumpi\n      returndatasize\n      0x00\n      dup1\n      returndatacopy\n      revert(0x00, returndatasize)\n    tag_124:\n      pop\n      pop\n      pop\n      pop\n        /* \"contracts/PaymentGateway.sol\":6698:6714  cUSDTargetAmount */\n      dup4\n        /* \"contracts/PaymentGateway.sol\":6666:6682  merchantBalances */\n      0x02\n        /* \"contracts/PaymentGateway.sol\":6666:6694  merchantBalances[merchantId] */\n      0x00\n        /* \"contracts/PaymentGateway.sol\":6683:6693  merchantId */\n      dup8\n        /* \"contracts/PaymentGateway.sol\":6666:6694  merchantBalances[merchantId] */\n      dup2\n      mstore\n      0x20\n      add\n      swap1\n      dup2\n      mstore\n      0x20\n      add\n      0x00\n      keccak256\n      0x00\n        /* \"contracts/PaymentGateway.sol\":6666:6714  merchantBalances[merchantId] += cUSDTargetAmount */\n      dup3\n      dup3\n      sload\n      tag_125\n      swap2\n      swap1\n      tag_89\n      jump\t// in\n    tag_125:\n      swap3\n      pop\n      pop\n      dup2\n      swap1\n      sstore\n      pop\n        /* \"contracts/PaymentGateway.sol\":6758:6768  msg.sender */\n      caller\n        /* \"contracts/PaymentGateway.sol\":6730:6787  PaymentReceived(merchantId, msg.sender, cUSDTargetAmount) */\n      0xffffffffffffffffffffffffffffffffffffffff\n      and\n        /* \"contracts/PaymentGateway.sol\":6746:6756  merchantId */\n      dup6\n        /* \"contracts/PaymentGateway.sol\":6730:6787  PaymentReceived(merchantId, msg.sender, cUSDTargetAmount) */\n      0x3b5907c9aaeaeef015f385111975b015225e1001bf659370e62c15e13373bc6d\n        /* \"contracts/PaymentGateway.sol\":6770:6786  cUSDTargetAmount */\n      dup7\n        /* \"contracts/PaymentGateway.sol\":6730:6787  PaymentReceived(merchantId, msg.sender, cUSDTargetAmount) */\n      mload(0x40)\n      tag_126\n      swap2\n      swap1\n      tag_29\n      jump\t// in\n    tag_126:\n      mload(0x40)\n      dup1\n      swap2\n      sub\n      swap1\n      log3\n        /* \"contracts/PaymentGateway.sol\":5560:6794  {... */\n      pop\n      pop\n      pop\n        /* \"contracts/PaymentGateway.sol\":5478:6794  function payMerchantInCBTC(bytes32 merchantId, uint256 cUSDTargetAmount) external {... */\n      pop\n      pop\n      jump\t// out\n        /* \"contracts/PaymentGateway.sol\":950:974  IDexInterface public dex */\n    tag_47:\n      0x06\n      0x00\n      swap1\n      sload\n      swap1\n      0x0100\n      exp\n      swap1\n      div\n      0xffffffffffffffffffffffffffffffffffffffff\n      and\n      dup2\n      jump\t// out\n        /* \"@openzeppelin/contracts/access/Ownable.sol\":2293:2394  function renounceOwnership() public virtual onlyOwner {... */\n    tag_51:\n        /* \"@openzeppelin/contracts/access/Ownable.sol\":1531:1544  _checkOwner() */\n      tag_128\n        /* \"@openzeppelin/contracts/access/Ownable.sol\":1531:1542  _checkOwner */\n      tag_129\n        /* \"@openzeppelin/contracts/access/Ownable.sol\":1531:1544  _checkOwner() */\n      jump\t// in\n    tag_128:\n        /* \"@openzeppelin/contracts/access/Ownable.sol\":2357:2387  _transferOwnership(address(0)) */\n      tag_131\n        /* \"@openzeppelin/contracts/access/Ownable.sol\":2384:2385  0 */\n      0x00\n        /* \"@openzeppelin/contracts/access/Ownable.sol\":2357:2375  _transferOwnership */\n      tag_132\n        /* \"@openzeppelin/contracts/access/Ownable.sol\":2357:2387  _transferOwnership(address(0)) */\n      jump\t// in\n    tag_131:\n        /* \"@openzeppelin/contracts/access/Ownable.sol\":2293:2394  function renounceOwnership() public virtual onlyOwner {... */\n      jump\t// out\n        /* \"@openzeppelin/contracts/access/Ownable.sol\":1638:1723  function owner() public view virtual returns (address) {... */\n    tag_53:\n        /* \"@openzeppelin/contracts/access/Ownable.sol\":1684:1691  address */\n      0x00\n        /* \"@openzeppelin/contracts/access/Ownable.sol\":1710:1716  _owner */\n      dup1\n      0x00\n      swap1\n      sload\n      swap1\n      0x0100\n      exp\n      swap1\n      div\n      0xffffffffffffffffffffffffffffffffffffffff\n      and\n        /* \"@openzeppelin/contracts/access/Ownable.sol\":1703:1716  return _owner */\n      swap1\n      pop\n        /* \"@openzeppelin/contracts/access/Ownable.sol\":1638:1723  function owner() public view virtual returns (address) {... */\n      swap1\n      jump\t// out\n        /* \"contracts/PaymentGateway.sol\":851:880  IStableCoin public stableCoin */\n    tag_57:\n      0x03\n      0x00\n      swap1\n      sload\n      swap1\n      0x0100\n      exp\n      swap1\n      div\n      0xffffffffffffffffffffffffffffffffffffffff\n      and\n      dup2\n      jump\t// out\n        /* \"contracts/PaymentGateway.sol\":4435:4943  function withdrawMerchantFunds(bytes32 merchantId) external onlyOwner {... */\n    tag_62:\n        /* \"@openzeppelin/contracts/access/Ownable.sol\":1531:1544  _checkOwner() */\n      tag_135\n        /* \"@openzeppelin/contracts/access/Ownable.sol\":1531:1542  _checkOwner */\n      tag_129\n        /* \"@openzeppelin/contracts/access/Ownable.sol\":1531:1544  _checkOwner() */\n      jump\t// in\n    tag_135:\n        /* \"contracts/PaymentGateway.sol\":4523:4532  merchants */\n      0x01\n        /* \"contracts/PaymentGateway.sol\":4523:4544  merchants[merchantId] */\n      0x00\n        /* \"contracts/PaymentGateway.sol\":4533:4543  merchantId */\n      dup3\n        /* \"contracts/PaymentGateway.sol\":4523:4544  merchants[merchantId] */\n      dup2\n      mstore\n      0x20\n      add\n      swap1\n      dup2\n      mstore\n      0x20\n      add\n      0x00\n      keccak256\n        /* \"contracts/PaymentGateway.sol\":4523:4551  merchants[merchantId].active */\n      0x00\n      add\n      0x14\n      swap1\n      sload\n      swap1\n      0x0100\n      exp\n      swap1\n      div\n      0xff\n      and\n        /* \"contracts/PaymentGateway.sol\":4515:4575  require(merchants[merchantId].active, \"Merchant not active\") */\n      tag_137\n      jumpi\n      mload(0x40)\n      0x08c379a000000000000000000000000000000000000000000000000000000000\n      dup2\n      mstore\n      0x04\n      add\n      tag_138\n      swap1\n      tag_78\n      jump\t// in\n    tag_138:\n      mload(0x40)\n      dup1\n      swap2\n      sub\n      swap1\n      revert\n    tag_137:\n        /* \"contracts/PaymentGateway.sol\":4585:4600  uint256 balance */\n      0x00\n        /* \"contracts/PaymentGateway.sol\":4603:4619  merchantBalances */\n      0x02\n        /* \"contracts/PaymentGateway.sol\":4603:4631  merchantBalances[merchantId] */\n      0x00\n        /* \"contracts/PaymentGateway.sol\":4620:4630  merchantId */\n      dup4\n        /* \"contracts/PaymentGateway.sol\":4603:4631  merchantBalances[merchantId] */\n      dup2\n      mstore\n      0x20\n      add\n      swap1\n      dup2\n      mstore\n      0x20\n      add\n      0x00\n      keccak256\n      sload\n        /* \"contracts/PaymentGateway.sol\":4585:4631  uint256 balance = merchantBalances[merchantId] */\n      swap1\n      pop\n        /* \"contracts/PaymentGateway.sol\":4659:4660  0 */\n      0x00\n        /* \"contracts/PaymentGateway.sol\":4649:4656  balance */\n      dup2\n        /* \"contracts/PaymentGateway.sol\":4649:4660  balance > 0 */\n      gt\n        /* \"contracts/PaymentGateway.sol\":4641:4687  require(balance > 0, \"No balance to withdraw\") */\n      tag_139\n      jumpi\n      mload(0x40)\n      0x08c379a000000000000000000000000000000000000000000000000000000000\n      dup2\n      mstore\n      0x04\n      add\n      tag_140\n      swap1\n      tag_141\n      jump\t// in\n    tag_140:\n      mload(0x40)\n      dup1\n      swap2\n      sub\n      swap1\n      revert\n    tag_139:\n        /* \"contracts/PaymentGateway.sol\":4729:4730  0 */\n      0x00\n        /* \"contracts/PaymentGateway.sol\":4698:4714  merchantBalances */\n      0x02\n        /* \"contracts/PaymentGateway.sol\":4698:4726  merchantBalances[merchantId] */\n      0x00\n        /* \"contracts/PaymentGateway.sol\":4715:4725  merchantId */\n      dup5\n        /* \"contracts/PaymentGateway.sol\":4698:4726  merchantBalances[merchantId] */\n      dup2\n      mstore\n      0x20\n      add\n      swap1\n      dup2\n      mstore\n      0x20\n      add\n      0x00\n      keccak256\n        /* \"contracts/PaymentGateway.sol\":4698:4730  merchantBalances[merchantId] = 0 */\n      dup2\n      swap1\n      sstore\n      pop\n        /* \"contracts/PaymentGateway.sol\":4740:4762  address payable payout */\n      0x00\n        /* \"contracts/PaymentGateway.sol\":4765:4774  merchants */\n      0x01\n        /* \"contracts/PaymentGateway.sol\":4765:4786  merchants[merchantId] */\n      0x00\n        /* \"contracts/PaymentGateway.sol\":4775:4785  merchantId */\n      dup5\n        /* \"contracts/PaymentGateway.sol\":4765:4786  merchants[merchantId] */\n      dup2\n      mstore\n      0x20\n      add\n      swap1\n      dup2\n      mstore\n      0x20\n      add\n      0x00\n      keccak256\n        /* \"contracts/PaymentGateway.sol\":4765:4800  merchants[merchantId].payoutAddress */\n      0x00\n      add\n      0x00\n      swap1\n      sload\n      swap1\n      0x0100\n      exp\n      swap1\n      div\n      0xffffffffffffffffffffffffffffffffffffffff\n      and\n        /* \"contracts/PaymentGateway.sol\":4740:4800  address payable payout = merchants[merchantId].payoutAddress */\n      swap1\n      pop\n        /* \"contracts/PaymentGateway.sol\":4819:4829  stableCoin */\n      0x03\n      0x00\n      swap1\n      sload\n      swap1\n      0x0100\n      exp\n      swap1\n      div\n      0xffffffffffffffffffffffffffffffffffffffff\n      and\n        /* \"contracts/PaymentGateway.sol\":4819:4838  stableCoin.transfer */\n      0xffffffffffffffffffffffffffffffffffffffff\n      and\n      0xa9059cbb\n        /* \"contracts/PaymentGateway.sol\":4839:4845  payout */\n      dup3\n        /* \"contracts/PaymentGateway.sol\":4847:4854  balance */\n      dup5\n        /* \"contracts/PaymentGateway.sol\":4819:4855  stableCoin.transfer(payout, balance) */\n      mload(0x40)\n      dup4\n      0xffffffff\n      and\n      0xe0\n      shl\n      dup2\n      mstore\n      0x04\n      add\n      tag_142\n      swap3\n      swap2\n      swap1\n      tag_143\n      jump\t// in\n    tag_142:\n      0x20\n      mload(0x40)\n      dup1\n      dup4\n      sub\n      dup2\n      0x00\n      dup8\n      gas\n      call\n      iszero\n      dup1\n      iszero\n      tag_145\n      jumpi\n      returndatasize\n      0x00\n      dup1\n      returndatacopy\n      revert(0x00, returndatasize)\n    tag_145:\n      pop\n      pop\n      pop\n      pop\n      mload(0x40)\n      returndatasize\n      not(0x1f)\n      0x1f\n      dup3\n      add\n      and\n      dup3\n      add\n      dup1\n      0x40\n      mstore\n      pop\n      dup2\n      add\n      swap1\n      tag_146\n      swap2\n      swap1\n      tag_84\n      jump\t// in\n    tag_146:\n        /* \"contracts/PaymentGateway.sol\":4811:4875  require(stableCoin.transfer(payout, balance), \"Transfer failed\") */\n      tag_147\n      jumpi\n      mload(0x40)\n      0x08c379a000000000000000000000000000000000000000000000000000000000\n      dup2\n      mstore\n      0x04\n      add\n      tag_148\n      swap1\n      tag_87\n      jump\t// in\n    tag_148:\n      mload(0x40)\n      dup1\n      swap2\n      sub\n      swap1\n      revert\n    tag_147:\n        /* \"contracts/PaymentGateway.sol\":4908:4918  merchantId */\n      dup3\n        /* \"contracts/PaymentGateway.sol\":4890:4936  MerchantWithdrawn(merchantId, balance, payout) */\n      0x195f245622abeb539754a2a6a6deb95e6b222cbf894d10cbffbebac70340e587\n        /* \"contracts/PaymentGateway.sol\":4920:4927  balance */\n      dup4\n        /* \"contracts/PaymentGateway.sol\":4929:4935  payout */\n      dup4\n        /* \"contracts/PaymentGateway.sol\":4890:4936  MerchantWithdrawn(merchantId, balance, payout) */\n      mload(0x40)\n      tag_149\n      swap3\n      swap2\n      swap1\n      tag_150\n      jump\t// in\n    tag_149:\n      mload(0x40)\n      dup1\n      swap2\n      sub\n      swap1\n      log2\n        /* \"contracts/PaymentGateway.sol\":4505:4943  {... */\n      pop\n      pop\n        /* \"contracts/PaymentGateway.sol\":4435:4943  function withdrawMerchantFunds(bytes32 merchantId) external onlyOwner {... */\n      pop\n      jump\t// out\n        /* \"contracts/PaymentGateway.sol\":2454:2950  function registerMerchant(bytes32 merchantId, address payable payoutAddress) external onlyOwner {... */\n    tag_66:\n        /* \"@openzeppelin/contracts/access/Ownable.sol\":1531:1544  _checkOwner() */\n      tag_152\n        /* \"@openzeppelin/contracts/access/Ownable.sol\":1531:1542  _checkOwner */\n      tag_129\n        /* \"@openzeppelin/contracts/access/Ownable.sol\":1531:1544  _checkOwner() */\n      jump\t// in\n    tag_152:\n        /* \"contracts/PaymentGateway.sol\":2582:2585  0x0 */\n      0x00\n        /* \"contracts/PaymentGateway.sol\":2568:2585  merchantId != 0x0 */\n      dup1\n      shl\n        /* \"contracts/PaymentGateway.sol\":2568:2578  merchantId */\n      dup3\n        /* \"contracts/PaymentGateway.sol\":2568:2585  merchantId != 0x0 */\n      sub\n        /* \"contracts/PaymentGateway.sol\":2560:2608  require(merchantId != 0x0, \"Invalid merchantId\") */\n      tag_154\n      jumpi\n      mload(0x40)\n      0x08c379a000000000000000000000000000000000000000000000000000000000\n      dup2\n      mstore\n      0x04\n      add\n      tag_155\n      swap1\n      tag_156\n      jump\t// in\n    tag_155:\n      mload(0x40)\n      dup1\n      swap2\n      sub\n      swap1\n      revert\n    tag_154:\n        /* \"contracts/PaymentGateway.sol\":2651:2652  0 */\n      0x00\n        /* \"contracts/PaymentGateway.sol\":2626:2653  payoutAddress != address(0) */\n      0xffffffffffffffffffffffffffffffffffffffff\n      and\n        /* \"contracts/PaymentGateway.sol\":2626:2639  payoutAddress */\n      dup2\n        /* \"contracts/PaymentGateway.sol\":2626:2653  payoutAddress != address(0) */\n      0xffffffffffffffffffffffffffffffffffffffff\n      and\n      sub\n        /* \"contracts/PaymentGateway.sol\":2618:2680  require(payoutAddress != address(0), \"Invalid payout address\") */\n      tag_157\n      jumpi\n      mload(0x40)\n      0x08c379a000000000000000000000000000000000000000000000000000000000\n      dup2\n      mstore\n      0x04\n      add\n      tag_158\n      swap1\n      tag_159\n      jump\t// in\n    tag_158:\n      mload(0x40)\n      dup1\n      swap2\n      sub\n      swap1\n      revert\n    tag_157:\n        /* \"contracts/PaymentGateway.sol\":2699:2708  merchants */\n      0x01\n        /* \"contracts/PaymentGateway.sol\":2699:2720  merchants[merchantId] */\n      0x00\n        /* \"contracts/PaymentGateway.sol\":2709:2719  merchantId */\n      dup4\n        /* \"contracts/PaymentGateway.sol\":2699:2720  merchants[merchantId] */\n      dup2\n      mstore\n      0x20\n      add\n      swap1\n      dup2\n      mstore\n      0x20\n      add\n      0x00\n      keccak256\n        /* \"contracts/PaymentGateway.sol\":2699:2727  merchants[merchantId].active */\n      0x00\n      add\n      0x14\n      swap1\n      sload\n      swap1\n      0x0100\n      exp\n      swap1\n      div\n      0xff\n      and\n        /* \"contracts/PaymentGateway.sol\":2698:2727  !merchants[merchantId].active */\n      iszero\n        /* \"contracts/PaymentGateway.sol\":2690:2759  require(!merchants[merchantId].active, \"Merchant already registered\") */\n      tag_160\n      jumpi\n      mload(0x40)\n      0x08c379a000000000000000000000000000000000000000000000000000000000\n      dup2\n      mstore\n      0x04\n      add\n      tag_161\n      swap1\n      tag_162\n      jump\t// in\n    tag_161:\n      mload(0x40)\n      dup1\n      swap2\n      sub\n      swap1\n      revert\n    tag_160:\n        /* \"contracts/PaymentGateway.sol\":2794:2882  Merchant({... */\n      mload(0x40)\n      dup1\n      0x40\n      add\n      0x40\n      mstore\n      dup1\n        /* \"contracts/PaymentGateway.sol\":2832:2845  payoutAddress */\n      dup3\n        /* \"contracts/PaymentGateway.sol\":2794:2882  Merchant({... */\n      0xffffffffffffffffffffffffffffffffffffffff\n      and\n      dup2\n      mstore\n      0x20\n      add\n        /* \"contracts/PaymentGateway.sol\":2867:2871  true */\n      0x01\n        /* \"contracts/PaymentGateway.sol\":2794:2882  Merchant({... */\n      iszero\n      iszero\n      dup2\n      mstore\n      pop\n        /* \"contracts/PaymentGateway.sol\":2770:2779  merchants */\n      0x01\n        /* \"contracts/PaymentGateway.sol\":2770:2791  merchants[merchantId] */\n      0x00\n        /* \"contracts/PaymentGateway.sol\":2780:2790  merchantId */\n      dup5\n        /* \"contracts/PaymentGateway.sol\":2770:2791  merchants[merchantId] */\n      dup2\n      mstore\n      0x20\n      add\n      swap1\n      dup2\n      mstore\n      0x20\n      add\n      0x00\n      keccak256\n        /* \"contracts/PaymentGateway.sol\":2770:2882  merchants[merchantId] = Merchant({... */\n      0x00\n      dup3\n      add\n      mload\n      dup2\n      0x00\n      add\n      exp(0x0100, 0x00)\n      dup2\n      sload\n      dup2\n      0xffffffffffffffffffffffffffffffffffffffff\n      mul\n      not\n      and\n      swap1\n      dup4\n      0xffffffffffffffffffffffffffffffffffffffff\n      and\n      mul\n      or\n      swap1\n      sstore\n      pop\n      0x20\n      dup3\n      add\n      mload\n      dup2\n      0x00\n      add\n      exp(0x0100, 0x14)\n      dup2\n      sload\n      dup2\n      0xff\n      mul\n      not\n      and\n      swap1\n      dup4\n      iszero\n      iszero\n      mul\n      or\n      swap1\n      sstore\n      pop\n      swap1\n      pop\n      pop\n        /* \"contracts/PaymentGateway.sol\":2917:2927  merchantId */\n      dup2\n        /* \"contracts/PaymentGateway.sol\":2898:2943  MerchantRegistered(merchantId, payoutAddress) */\n      0x1108b573acb7954c6be9806cc3a17ed5864f50fa96ad4cbc9cd82fa63d42b9f7\n        /* \"contracts/PaymentGateway.sol\":2929:2942  payoutAddress */\n      dup3\n        /* \"contracts/PaymentGateway.sol\":2898:2943  MerchantRegistered(merchantId, payoutAddress) */\n      mload(0x40)\n      tag_163\n      swap2\n      swap1\n      tag_164\n      jump\t// in\n    tag_163:\n      mload(0x40)\n      dup1\n      swap2\n      sub\n      swap1\n      log2\n        /* \"contracts/PaymentGateway.sol\":2454:2950  function registerMerchant(bytes32 merchantId, address payable payoutAddress) external onlyOwner {... */\n      pop\n      pop\n      jump\t// out\n        /* \"@openzeppelin/contracts/access/Ownable.sol\":2543:2758  function transferOwnership(address newOwner) public virtual onlyOwner {... */\n    tag_70:\n        /* \"@openzeppelin/contracts/access/Ownable.sol\":1531:1544  _checkOwner() */\n      tag_166\n        /* \"@openzeppelin/contracts/access/Ownable.sol\":1531:1542  _checkOwner */\n      tag_129\n        /* \"@openzeppelin/contracts/access/Ownable.sol\":1531:1544  _checkOwner() */\n      jump\t// in\n    tag_166:\n        /* \"@openzeppelin/contracts/access/Ownable.sol\":2647:2648  0 */\n      0x00\n        /* \"@openzeppelin/contracts/access/Ownable.sol\":2627:2649  newOwner == address(0) */\n      0xffffffffffffffffffffffffffffffffffffffff\n      and\n        /* \"@openzeppelin/contracts/access/Ownable.sol\":2627:2635  newOwner */\n      dup2\n        /* \"@openzeppelin/contracts/access/Ownable.sol\":2627:2649  newOwner == address(0) */\n      0xffffffffffffffffffffffffffffffffffffffff\n      and\n      sub\n        /* \"@openzeppelin/contracts/access/Ownable.sol\":2623:2714  if (newOwner == address(0)) {... */\n      tag_168\n      jumpi\n        /* \"@openzeppelin/contracts/access/Ownable.sol\":2700:2701  0 */\n      0x00\n        /* \"@openzeppelin/contracts/access/Ownable.sol\":2672:2703  OwnableInvalidOwner(address(0)) */\n      mload(0x40)\n      0x1e4fbdf700000000000000000000000000000000000000000000000000000000\n      dup2\n      mstore\n      0x04\n      add\n      tag_169\n      swap2\n      swap1\n      tag_55\n      jump\t// in\n    tag_169:\n      mload(0x40)\n      dup1\n      swap2\n      sub\n      swap1\n      revert\n        /* \"@openzeppelin/contracts/access/Ownable.sol\":2623:2714  if (newOwner == address(0)) {... */\n    tag_168:\n        /* \"@openzeppelin/contracts/access/Ownable.sol\":2723:2751  _transferOwnership(newOwner) */\n      tag_170\n        /* \"@openzeppelin/contracts/access/Ownable.sol\":2742:2750  newOwner */\n      dup2\n        /* \"@openzeppelin/contracts/access/Ownable.sol\":2723:2741  _transferOwnership */\n      tag_132\n        /* \"@openzeppelin/contracts/access/Ownable.sol\":2723:2751  _transferOwnership(newOwner) */\n      jump\t// in\n    tag_170:\n        /* \"@openzeppelin/contracts/access/Ownable.sol\":2543:2758  function transferOwnership(address newOwner) public virtual onlyOwner {... */\n      pop\n      jump\t// out\n        /* \"contracts/PaymentGateway.sol\":3141:3575  function updateMerchant(bytes32 merchantId, address payable payoutAddress, bool active) external onlyOwner {... */\n    tag_74:\n        /* \"@openzeppelin/contracts/access/Ownable.sol\":1531:1544  _checkOwner() */\n      tag_172\n        /* \"@openzeppelin/contracts/access/Ownable.sol\":1531:1542  _checkOwner */\n      tag_129\n        /* \"@openzeppelin/contracts/access/Ownable.sol\":1531:1544  _checkOwner() */\n      jump\t// in\n    tag_172:\n        /* \"contracts/PaymentGateway.sol\":3266:3275  merchants */\n      0x01\n        /* \"contracts/PaymentGateway.sol\":3266:3287  merchants[merchantId] */\n      0x00\n        /* \"contracts/PaymentGateway.sol\":3276:3286  merchantId */\n      dup5\n        /* \"contracts/PaymentGateway.sol\":3266:3287  merchants[merchantId] */\n      dup2\n      mstore\n      0x20\n      add\n      swap1\n      dup2\n      mstore\n      0x20\n      add\n      0x00\n      keccak256\n        /* \"contracts/PaymentGateway.sol\":3266:3294  merchants[merchantId].active */\n      0x00\n      add\n      0x14\n      swap1\n      sload\n      swap1\n      0x0100\n      exp\n      swap1\n      div\n      0xff\n      and\n        /* \"contracts/PaymentGateway.sol\":3258:3322  require(merchants[merchantId].active, \"Merchant not registered\") */\n      tag_174\n      jumpi\n      mload(0x40)\n      0x08c379a000000000000000000000000000000000000000000000000000000000\n      dup2\n      mstore\n      0x04\n      add\n      tag_175\n      swap1\n      tag_176\n      jump\t// in\n    tag_175:\n      mload(0x40)\n      dup1\n      swap2\n      sub\n      swap1\n      revert\n    tag_174:\n        /* \"contracts/PaymentGateway.sol\":3365:3366  0 */\n      0x00\n        /* \"contracts/PaymentGateway.sol\":3340:3367  payoutAddress != address(0) */\n      0xffffffffffffffffffffffffffffffffffffffff\n      and\n        /* \"contracts/PaymentGateway.sol\":3340:3353  payoutAddress */\n      dup3\n        /* \"contracts/PaymentGateway.sol\":3340:3367  payoutAddress != address(0) */\n      0xffffffffffffffffffffffffffffffffffffffff\n      and\n      sub\n        /* \"contracts/PaymentGateway.sol\":3332:3394  require(payoutAddress != address(0), \"Invalid payout address\") */\n      tag_177\n      jumpi\n      mload(0x40)\n      0x08c379a000000000000000000000000000000000000000000000000000000000\n      dup2\n      mstore\n      0x04\n      add\n      tag_178\n      swap1\n      tag_159\n      jump\t// in\n    tag_178:\n      mload(0x40)\n      dup1\n      swap2\n      sub\n      swap1\n      revert\n    tag_177:\n        /* \"contracts/PaymentGateway.sol\":3443:3456  payoutAddress */\n      dup2\n        /* \"contracts/PaymentGateway.sol\":3405:3414  merchants */\n      0x01\n        /* \"contracts/PaymentGateway.sol\":3405:3426  merchants[merchantId] */\n      0x00\n        /* \"contracts/PaymentGateway.sol\":3415:3425  merchantId */\n      dup6\n        /* \"contracts/PaymentGateway.sol\":3405:3426  merchants[merchantId] */\n      dup2\n      mstore\n      0x20\n      add\n      swap1\n      dup2\n      mstore\n      0x20\n      add\n      0x00\n      keccak256\n        /* \"contracts/PaymentGateway.sol\":3405:3440  merchants[merchantId].payoutAddress */\n      0x00\n      add\n      0x00\n        /* \"contracts/PaymentGateway.sol\":3405:3456  merchants[merchantId].payoutAddress = payoutAddress */\n      0x0100\n      exp\n      dup2\n      sload\n      dup2\n      0xffffffffffffffffffffffffffffffffffffffff\n      mul\n      not\n      and\n      swap1\n      dup4\n      0xffffffffffffffffffffffffffffffffffffffff\n      and\n      mul\n      or\n      swap1\n      sstore\n      pop\n        /* \"contracts/PaymentGateway.sol\":3497:3503  active */\n      dup1\n        /* \"contracts/PaymentGateway.sol\":3466:3475  merchants */\n      0x01\n        /* \"contracts/PaymentGateway.sol\":3466:3487  merchants[merchantId] */\n      0x00\n        /* \"contracts/PaymentGateway.sol\":3476:3486  merchantId */\n      dup6\n        /* \"contracts/PaymentGateway.sol\":3466:3487  merchants[merchantId] */\n      dup2\n      mstore\n      0x20\n      add\n      swap1\n      dup2\n      mstore\n      0x20\n      add\n      0x00\n      keccak256\n        /* \"contracts/PaymentGateway.sol\":3466:3494  merchants[merchantId].active */\n      0x00\n      add\n      0x14\n        /* \"contracts/PaymentGateway.sol\":3466:3503  merchants[merchantId].active = active */\n      0x0100\n      exp\n      dup2\n      sload\n      dup2\n      0xff\n      mul\n      not\n      and\n      swap1\n      dup4\n      iszero\n      iszero\n      mul\n      or\n      swap1\n      sstore\n      pop\n        /* \"contracts/PaymentGateway.sol\":3534:3544  merchantId */\n      dup3\n        /* \"contracts/PaymentGateway.sol\":3518:3568  MerchantUpdated(merchantId, payoutAddress, active) */\n      0x7dac21e92520eaedc798f2261da9eecebda327db2d8dff77c1aab26798dc25e8\n        /* \"contracts/PaymentGateway.sol\":3546:3559  payoutAddress */\n      dup4\n        /* \"contracts/PaymentGateway.sol\":3561:3567  active */\n      dup4\n        /* \"contracts/PaymentGateway.sol\":3518:3568  MerchantUpdated(merchantId, payoutAddress, active) */\n      mload(0x40)\n      tag_179\n      swap3\n      swap2\n      swap1\n      tag_180\n      jump\t// in\n    tag_179:\n      mload(0x40)\n      dup1\n      swap2\n      sub\n      swap1\n      log2\n        /* \"contracts/PaymentGateway.sol\":3141:3575  function updateMerchant(bytes32 merchantId, address payable payoutAddress, bool active) external onlyOwner {... */\n      pop\n      pop\n      pop\n      jump\t// out\n        /* \"@openzeppelin/contracts/access/Ownable.sol\":1796:1958  function _checkOwner() internal view virtual {... */\n    tag_129:\n        /* \"@openzeppelin/contracts/access/Ownable.sol\":1866:1878  _msgSender() */\n      tag_182\n        /* \"@openzeppelin/contracts/access/Ownable.sol\":1866:1876  _msgSender */\n      tag_183\n        /* \"@openzeppelin/contracts/access/Ownable.sol\":1866:1878  _msgSender() */\n      jump\t// in\n    tag_182:\n        /* \"@openzeppelin/contracts/access/Ownable.sol\":1855:1878  owner() != _msgSender() */\n      0xffffffffffffffffffffffffffffffffffffffff\n      and\n        /* \"@openzeppelin/contracts/access/Ownable.sol\":1855:1862  owner() */\n      tag_184\n        /* \"@openzeppelin/contracts/access/Ownable.sol\":1855:1860  owner */\n      tag_53\n        /* \"@openzeppelin/contracts/access/Ownable.sol\":1855:1862  owner() */\n      jump\t// in\n    tag_184:\n        /* \"@openzeppelin/contracts/access/Ownable.sol\":1855:1878  owner() != _msgSender() */\n      0xffffffffffffffffffffffffffffffffffffffff\n      and\n      eq\n        /* \"@openzeppelin/contracts/access/Ownable.sol\":1851:1952  if (owner() != _msgSender()) {... */\n      tag_185\n      jumpi\n        /* \"@openzeppelin/contracts/access/Ownable.sol\":1928:1940  _msgSender() */\n      tag_186\n        /* \"@openzeppelin/contracts/access/Ownable.sol\":1928:1938  _msgSender */\n      tag_183\n        /* \"@openzeppelin/contracts/access/Ownable.sol\":1928:1940  _msgSender() */\n      jump\t// in\n    tag_186:\n        /* \"@openzeppelin/contracts/access/Ownable.sol\":1901:1941  OwnableUnauthorizedAccount(_msgSender()) */\n      mload(0x40)\n      0x118cdaa700000000000000000000000000000000000000000000000000000000\n      dup2\n      mstore\n      0x04\n      add\n      tag_187\n      swap2\n      swap1\n      tag_55\n      jump\t// in\n    tag_187:\n      mload(0x40)\n      dup1\n      swap2\n      sub\n      swap1\n      revert\n        /* \"@openzeppelin/contracts/access/Ownable.sol\":1851:1952  if (owner() != _msgSender()) {... */\n    tag_185:\n        /* \"@openzeppelin/contracts/access/Ownable.sol\":1796:1958  function _checkOwner() internal view virtual {... */\n      jump\t// out\n        /* \"@openzeppelin/contracts/access/Ownable.sol\":2912:3099  function _transferOwnership(address newOwner) internal virtual {... */\n    tag_132:\n        /* \"@openzeppelin/contracts/access/Ownable.sol\":2985:3001  address oldOwner */\n      0x00\n        /* \"@openzeppelin/contracts/access/Ownable.sol\":3004:3010  _owner */\n      dup1\n      0x00\n      swap1\n      sload\n      swap1\n      0x0100\n      exp\n      swap1\n      div\n      0xffffffffffffffffffffffffffffffffffffffff\n      and\n        /* \"@openzeppelin/contracts/access/Ownable.sol\":2985:3010  address oldOwner = _owner */\n      swap1\n      pop\n        /* \"@openzeppelin/contracts/access/Ownable.sol\":3029:3037  newOwner */\n      dup2\n        /* \"@openzeppelin/contracts/access/Ownable.sol\":3020:3026  _owner */\n      0x00\n      dup1\n        /* \"@openzeppelin/contracts/access/Ownable.sol\":3020:3037  _owner = newOwner */\n      0x0100\n      exp\n      dup2\n      sload\n      dup2\n      0xffffffffffffffffffffffffffffffffffffffff\n      mul\n      not\n      and\n      swap1\n      dup4\n      0xffffffffffffffffffffffffffffffffffffffff\n      and\n      mul\n      or\n      swap1\n      sstore\n      pop\n        /* \"@openzeppelin/contracts/access/Ownable.sol\":3083:3091  newOwner */\n      dup2\n        /* \"@openzeppelin/contracts/access/Ownable.sol\":3052:3092  OwnershipTransferred(oldOwner, newOwner) */\n      0xffffffffffffffffffffffffffffffffffffffff\n      and\n        /* \"@openzeppelin/contracts/access/Ownable.sol\":3073:3081  oldOwner */\n      dup2\n        /* \"@openzeppelin/contracts/access/Ownable.sol\":3052:3092  OwnershipTransferred(oldOwner, newOwner) */\n      0xffffffffffffffffffffffffffffffffffffffff\n      and\n      0x8be0079c531659141344cd1fd0a4f28419497f9722a3daafe3b4186f6b6457e0\n      mload(0x40)\n      mload(0x40)\n      dup1\n      swap2\n      sub\n      swap1\n      log3\n        /* \"@openzeppelin/contracts/access/Ownable.sol\":2975:3099  {... */\n      pop\n        /* \"@openzeppelin/contracts/access/Ownable.sol\":2912:3099  function _transferOwnership(address newOwner) internal virtual {... */\n      pop\n      jump\t// out\n        /* \"@openzeppelin/contracts/utils/Context.sol\":656:752  function _msgSender() internal view virtual returns (address) {... */\n    tag_183:\n        /* \"@openzeppelin/contracts/utils/Context.sol\":709:716  address */\n      0x00\n        /* \"@openzeppelin/contracts/utils/Context.sol\":735:745  msg.sender */\n      caller\n        /* \"@openzeppelin/contracts/utils/Context.sol\":728:745  return msg.sender */\n      swap1\n      pop\n        /* \"@openzeppelin/contracts/utils/Context.sol\":656:752  function _msgSender() internal view virtual returns (address) {... */\n      swap1\n      jump\t// out\n        /* \"#utility.yul\":7:133   */\n    tag_190:\n        /* \"#utility.yul\":44:51   */\n      0x00\n        /* \"#utility.yul\":84:126   */\n      0xffffffffffffffffffffffffffffffffffffffff\n        /* \"#utility.yul\":77:82   */\n      dup3\n        /* \"#utility.yul\":73:127   */\n      and\n        /* \"#utility.yul\":62:127   */\n      swap1\n      pop\n        /* \"#utility.yul\":7:133   */\n      swap2\n      swap1\n      pop\n      jump\t// out\n        /* \"#utility.yul\":139:199   */\n    tag_191:\n        /* \"#utility.yul\":167:170   */\n      0x00\n        /* \"#utility.yul\":188:193   */\n      dup2\n        /* \"#utility.yul\":181:193   */\n      swap1\n      pop\n        /* \"#utility.yul\":139:199   */\n      swap2\n      swap1\n      pop\n      jump\t// out\n        /* \"#utility.yul\":205:347   */\n    tag_192:\n        /* \"#utility.yul\":255:264   */\n      0x00\n        /* \"#utility.yul\":288:341   */\n      tag_253\n        /* \"#utility.yul\":306:340   */\n      tag_254\n        /* \"#utility.yul\":315:339   */\n      tag_255\n        /* \"#utility.yul\":333:338   */\n      dup5\n        /* \"#utility.yul\":315:339   */\n      tag_190\n      jump\t// in\n    tag_255:\n        /* \"#utility.yul\":306:340   */\n      tag_191\n      jump\t// in\n    tag_254:\n        /* \"#utility.yul\":288:341   */\n      tag_190\n      jump\t// in\n    tag_253:\n        /* \"#utility.yul\":275:341   */\n      swap1\n      pop\n        /* \"#utility.yul\":205:347   */\n      swap2\n      swap1\n      pop\n      jump\t// out\n        /* \"#utility.yul\":353:479   */\n    tag_193:\n        /* \"#utility.yul\":403:412   */\n      0x00\n        /* \"#utility.yul\":436:473   */\n      tag_257\n        /* \"#utility.yul\":467:472   */\n      dup3\n        /* \"#utility.yul\":436:473   */\n      tag_192\n      jump\t// in\n    tag_257:\n        /* \"#utility.yul\":423:473   */\n      swap1\n      pop\n        /* \"#utility.yul\":353:479   */\n      swap2\n      swap1\n      pop\n      jump\t// out\n        /* \"#utility.yul\":485:624   */\n    tag_194:\n        /* \"#utility.yul\":548:557   */\n      0x00\n        /* \"#utility.yul\":581:618   */\n      tag_259\n        /* \"#utility.yul\":612:617   */\n      dup3\n        /* \"#utility.yul\":581:618   */\n      tag_193\n      jump\t// in\n    tag_259:\n        /* \"#utility.yul\":568:618   */\n      swap1\n      pop\n        /* \"#utility.yul\":485:624   */\n      swap2\n      swap1\n      pop\n      jump\t// out\n        /* \"#utility.yul\":630:787   */\n    tag_195:\n        /* \"#utility.yul\":730:780   */\n      tag_261\n        /* \"#utility.yul\":774:779   */\n      dup2\n        /* \"#utility.yul\":730:780   */\n      tag_194\n      jump\t// in\n    tag_261:\n        /* \"#utility.yul\":725:728   */\n      dup3\n        /* \"#utility.yul\":718:781   */\n      mstore\n        /* \"#utility.yul\":630:787   */\n      pop\n      pop\n      jump\t// out\n        /* \"#utility.yul\":793:1041   */\n    tag_23:\n        /* \"#utility.yul\":899:903   */\n      0x00\n        /* \"#utility.yul\":937:939   */\n      0x20\n        /* \"#utility.yul\":926:935   */\n      dup3\n        /* \"#utility.yul\":922:940   */\n      add\n        /* \"#utility.yul\":914:940   */\n      swap1\n      pop\n        /* \"#utility.yul\":950:1034   */\n      tag_263\n        /* \"#utility.yul\":1031:1032   */\n      0x00\n        /* \"#utility.yul\":1020:1029   */\n      dup4\n        /* \"#utility.yul\":1016:1033   */\n      add\n        /* \"#utility.yul\":1007:1013   */\n      dup5\n        /* \"#utility.yul\":950:1034   */\n      tag_195\n      jump\t// in\n    tag_263:\n        /* \"#utility.yul\":793:1041   */\n      swap3\n      swap2\n      pop\n      pop\n      jump\t// out\n        /* \"#utility.yul\":1128:1245   */\n    tag_197:\n        /* \"#utility.yul\":1237:1238   */\n      0x00\n        /* \"#utility.yul\":1234:1235   */\n      dup1\n        /* \"#utility.yul\":1227:1239   */\n      revert\n        /* \"#utility.yul\":1374:1451   */\n    tag_199:\n        /* \"#utility.yul\":1411:1418   */\n      0x00\n        /* \"#utility.yul\":1440:1445   */\n      dup2\n        /* \"#utility.yul\":1429:1445   */\n      swap1\n      pop\n        /* \"#utility.yul\":1374:1451   */\n      swap2\n      swap1\n      pop\n      jump\t// out\n        /* \"#utility.yul\":1457:1579   */\n    tag_200:\n        /* \"#utility.yul\":1530:1554   */\n      tag_269\n        /* \"#utility.yul\":1548:1553   */\n      dup2\n        /* \"#utility.yul\":1530:1554   */\n      tag_199\n      jump\t// in\n    tag_269:\n        /* \"#utility.yul\":1523:1528   */\n      dup2\n        /* \"#utility.yul\":1520:1555   */\n      eq\n        /* \"#utility.yul\":1510:1573   */\n      tag_270\n      jumpi\n        /* \"#utility.yul\":1569:1570   */\n      0x00\n        /* \"#utility.yul\":1566:1567   */\n      dup1\n        /* \"#utility.yul\":1559:1571   */\n      revert\n        /* \"#utility.yul\":1510:1573   */\n    tag_270:\n        /* \"#utility.yul\":1457:1579   */\n      pop\n      jump\t// out\n        /* \"#utility.yul\":1585:1724   */\n    tag_201:\n        /* \"#utility.yul\":1631:1636   */\n      0x00\n        /* \"#utility.yul\":1669:1675   */\n      dup2\n        /* \"#utility.yul\":1656:1676   */\n      calldataload\n        /* \"#utility.yul\":1647:1676   */\n      swap1\n      pop\n        /* \"#utility.yul\":1685:1718   */\n      tag_272\n        /* \"#utility.yul\":1712:1717   */\n      dup2\n        /* \"#utility.yul\":1685:1718   */\n      tag_200\n      jump\t// in\n    tag_272:\n        /* \"#utility.yul\":1585:1724   */\n      swap3\n      swap2\n      pop\n      pop\n      jump\t// out\n        /* \"#utility.yul\":1730:2059   */\n    tag_26:\n        /* \"#utility.yul\":1789:1795   */\n      0x00\n        /* \"#utility.yul\":1838:1840   */\n      0x20\n        /* \"#utility.yul\":1826:1835   */\n      dup3\n        /* \"#utility.yul\":1817:1824   */\n      dup5\n        /* \"#utility.yul\":1813:1836   */\n      sub\n        /* \"#utility.yul\":1809:1841   */\n      slt\n        /* \"#utility.yul\":1806:1925   */\n      iszero\n      tag_274\n      jumpi\n        /* \"#utility.yul\":1844:1923   */\n      tag_275\n      tag_197\n      jump\t// in\n    tag_275:\n        /* \"#utility.yul\":1806:1925   */\n    tag_274:\n        /* \"#utility.yul\":1964:1965   */\n      0x00\n        /* \"#utility.yul\":1989:2042   */\n      tag_276\n        /* \"#utility.yul\":2034:2041   */\n      dup5\n        /* \"#utility.yul\":2025:2031   */\n      dup3\n        /* \"#utility.yul\":2014:2023   */\n      dup6\n        /* \"#utility.yul\":2010:2032   */\n      add\n        /* \"#utility.yul\":1989:2042   */\n      tag_201\n      jump\t// in\n    tag_276:\n        /* \"#utility.yul\":1979:2042   */\n      swap2\n      pop\n        /* \"#utility.yul\":1935:2052   */\n      pop\n        /* \"#utility.yul\":1730:2059   */\n      swap3\n      swap2\n      pop\n      pop\n      jump\t// out\n        /* \"#utility.yul\":2065:2142   */\n    tag_202:\n        /* \"#utility.yul\":2102:2109   */\n      0x00\n        /* \"#utility.yul\":2131:2136   */\n      dup2\n        /* \"#utility.yul\":2120:2136   */\n      swap1\n      pop\n        /* \"#utility.yul\":2065:2142   */\n      swap2\n      swap1\n      pop\n      jump\t// out\n        /* \"#utility.yul\":2148:2266   */\n    tag_203:\n        /* \"#utility.yul\":2235:2259   */\n      tag_279\n        /* \"#utility.yul\":2253:2258   */\n      dup2\n        /* \"#utility.yul\":2235:2259   */\n      tag_202\n      jump\t// in\n    tag_279:\n        /* \"#utility.yul\":2230:2233   */\n      dup3\n        /* \"#utility.yul\":2223:2260   */\n      mstore\n        /* \"#utility.yul\":2148:2266   */\n      pop\n      pop\n      jump\t// out\n        /* \"#utility.yul\":2272:2494   */\n    tag_29:\n        /* \"#utility.yul\":2365:2369   */\n      0x00\n        /* \"#utility.yul\":2403:2405   */\n      0x20\n        /* \"#utility.yul\":2392:2401   */\n      dup3\n        /* \"#utility.yul\":2388:2406   */\n      add\n        /* \"#utility.yul\":2380:2406   */\n      swap1\n      pop\n        /* \"#utility.yul\":2416:2487   */\n      tag_281\n        /* \"#utility.yul\":2484:2485   */\n      0x00\n        /* \"#utility.yul\":2473:2482   */\n      dup4\n        /* \"#utility.yul\":2469:2486   */\n      add\n        /* \"#utility.yul\":2460:2466   */\n      dup5\n        /* \"#utility.yul\":2416:2487   */\n      tag_203\n      jump\t// in\n    tag_281:\n        /* \"#utility.yul\":2272:2494   */\n      swap3\n      swap2\n      pop\n      pop\n      jump\t// out\n        /* \"#utility.yul\":2500:2604   */\n    tag_204:\n        /* \"#utility.yul\":2545:2552   */\n      0x00\n        /* \"#utility.yul\":2574:2598   */\n      tag_283\n        /* \"#utility.yul\":2592:2597   */\n      dup3\n        /* \"#utility.yul\":2574:2598   */\n      tag_190\n      jump\t// in\n    tag_283:\n        /* \"#utility.yul\":2563:2598   */\n      swap1\n      pop\n        /* \"#utility.yul\":2500:2604   */\n      swap2\n      swap1\n      pop\n      jump\t// out\n        /* \"#utility.yul\":2610:2752   */\n    tag_205:\n        /* \"#utility.yul\":2713:2745   */\n      tag_285\n        /* \"#utility.yul\":2739:2744   */\n      dup2\n        /* \"#utility.yul\":2713:2745   */\n      tag_204\n      jump\t// in\n    tag_285:\n        /* \"#utility.yul\":2708:2711   */\n      dup3\n        /* \"#utility.yul\":2701:2746   */\n      mstore\n        /* \"#utility.yul\":2610:2752   */\n      pop\n      pop\n      jump\t// out\n        /* \"#utility.yul\":2758:2848   */\n    tag_206:\n        /* \"#utility.yul\":2792:2799   */\n      0x00\n        /* \"#utility.yul\":2835:2840   */\n      dup2\n        /* \"#utility.yul\":2828:2841   */\n      iszero\n        /* \"#utility.yul\":2821:2842   */\n      iszero\n        /* \"#utility.yul\":2810:2842   */\n      swap1\n      pop\n        /* \"#utility.yul\":2758:2848   */\n      swap2\n      swap1\n      pop\n      jump\t// out\n        /* \"#utility.yul\":2854:2963   */\n    tag_207:\n        /* \"#utility.yul\":2935:2956   */\n      tag_288\n        /* \"#utility.yul\":2950:2955   */\n      dup2\n        /* \"#utility.yul\":2935:2956   */\n      tag_206\n      jump\t// in\n    tag_288:\n        /* \"#utility.yul\":2930:2933   */\n      dup3\n        /* \"#utility.yul\":2923:2957   */\n      mstore\n        /* \"#utility.yul\":2854:2963   */\n      pop\n      pop\n      jump\t// out\n        /* \"#utility.yul\":2969:3321   */\n    tag_34:\n        /* \"#utility.yul\":3100:3104   */\n      0x00\n        /* \"#utility.yul\":3138:3140   */\n      0x40\n        /* \"#utility.yul\":3127:3136   */\n      dup3\n        /* \"#utility.yul\":3123:3141   */\n      add\n        /* \"#utility.yul\":3115:3141   */\n      swap1\n      pop\n        /* \"#utility.yul\":3151:3238   */\n      tag_290\n        /* \"#utility.yul\":3235:3236   */\n      0x00\n        /* \"#utility.yul\":3224:3233   */\n      dup4\n        /* \"#utility.yul\":3220:3237   */\n      add\n        /* \"#utility.yul\":3211:3217   */\n      dup6\n        /* \"#utility.yul\":3151:3238   */\n      tag_205\n      jump\t// in\n    tag_290:\n        /* \"#utility.yul\":3248:3314   */\n      tag_291\n        /* \"#utility.yul\":3310:3312   */\n      0x20\n        /* \"#utility.yul\":3299:3308   */\n      dup4\n        /* \"#utility.yul\":3295:3313   */\n      add\n        /* \"#utility.yul\":3286:3292   */\n      dup5\n        /* \"#utility.yul\":3248:3314   */\n      tag_207\n      jump\t// in\n    tag_291:\n        /* \"#utility.yul\":2969:3321   */\n      swap4\n      swap3\n      pop\n      pop\n      pop\n      jump\t// out\n        /* \"#utility.yul\":3327:3478   */\n    tag_208:\n        /* \"#utility.yul\":3402:3411   */\n      0x00\n        /* \"#utility.yul\":3435:3472   */\n      tag_293\n        /* \"#utility.yul\":3466:3471   */\n      dup3\n        /* \"#utility.yul\":3435:3472   */\n      tag_193\n      jump\t// in\n    tag_293:\n        /* \"#utility.yul\":3422:3472   */\n      swap1\n      pop\n        /* \"#utility.yul\":3327:3478   */\n      swap2\n      swap1\n      pop\n      jump\t// out\n        /* \"#utility.yul\":3484:3665   */\n    tag_209:\n        /* \"#utility.yul\":3596:3658   */\n      tag_295\n        /* \"#utility.yul\":3652:3657   */\n      dup2\n        /* \"#utility.yul\":3596:3658   */\n      tag_208\n      jump\t// in\n    tag_295:\n        /* \"#utility.yul\":3591:3594   */\n      dup3\n        /* \"#utility.yul\":3584:3659   */\n      mstore\n        /* \"#utility.yul\":3484:3665   */\n      pop\n      pop\n      jump\t// out\n        /* \"#utility.yul\":3671:3943   */\n    tag_38:\n        /* \"#utility.yul\":3789:3793   */\n      0x00\n        /* \"#utility.yul\":3827:3829   */\n      0x20\n        /* \"#utility.yul\":3816:3825   */\n      dup3\n        /* \"#utility.yul\":3812:3830   */\n      add\n        /* \"#utility.yul\":3804:3830   */\n      swap1\n      pop\n        /* \"#utility.yul\":3840:3936   */\n      tag_297\n        /* \"#utility.yul\":3933:3934   */\n      0x00\n        /* \"#utility.yul\":3922:3931   */\n      dup4\n        /* \"#utility.yul\":3918:3935   */\n      add\n        /* \"#utility.yul\":3909:3915   */\n      dup5\n        /* \"#utility.yul\":3840:3936   */\n      tag_209\n      jump\t// in\n    tag_297:\n        /* \"#utility.yul\":3671:3943   */\n      swap3\n      swap2\n      pop\n      pop\n      jump\t// out\n        /* \"#utility.yul\":3949:4071   */\n    tag_210:\n        /* \"#utility.yul\":4022:4046   */\n      tag_299\n        /* \"#utility.yul\":4040:4045   */\n      dup2\n        /* \"#utility.yul\":4022:4046   */\n      tag_202\n      jump\t// in\n    tag_299:\n        /* \"#utility.yul\":4015:4020   */\n      dup2\n        /* \"#utility.yul\":4012:4047   */\n      eq\n        /* \"#utility.yul\":4002:4065   */\n      tag_300\n      jumpi\n        /* \"#utility.yul\":4061:4062   */\n      0x00\n        /* \"#utility.yul\":4058:4059   */\n      dup1\n        /* \"#utility.yul\":4051:4063   */\n      revert\n        /* \"#utility.yul\":4002:4065   */\n    tag_300:\n        /* \"#utility.yul\":3949:4071   */\n      pop\n      jump\t// out\n        /* \"#utility.yul\":4077:4216   */\n    tag_211:\n        /* \"#utility.yul\":4123:4128   */\n      0x00\n        /* \"#utility.yul\":4161:4167   */\n      dup2\n        /* \"#utility.yul\":4148:4168   */\n      calldataload\n        /* \"#utility.yul\":4139:4168   */\n      swap1\n      pop\n        /* \"#utility.yul\":4177:4210   */\n      tag_302\n        /* \"#utility.yul\":4204:4209   */\n      dup2\n        /* \"#utility.yul\":4177:4210   */\n      tag_210\n      jump\t// in\n    tag_302:\n        /* \"#utility.yul\":4077:4216   */\n      swap3\n      swap2\n      pop\n      pop\n      jump\t// out\n        /* \"#utility.yul\":4222:4696   */\n    tag_41:\n        /* \"#utility.yul\":4290:4296   */\n      0x00\n        /* \"#utility.yul\":4298:4304   */\n      dup1\n        /* \"#utility.yul\":4347:4349   */\n      0x40\n        /* \"#utility.yul\":4335:4344   */\n      dup4\n        /* \"#utility.yul\":4326:4333   */\n      dup6\n        /* \"#utility.yul\":4322:4345   */\n      sub\n        /* \"#utility.yul\":4318:4350   */\n      slt\n        /* \"#utility.yul\":4315:4434   */\n      iszero\n      tag_304\n      jumpi\n        /* \"#utility.yul\":4353:4432   */\n      tag_305\n      tag_197\n      jump\t// in\n    tag_305:\n        /* \"#utility.yul\":4315:4434   */\n    tag_304:\n        /* \"#utility.yul\":4473:4474   */\n      0x00\n        /* \"#utility.yul\":4498:4551   */\n      tag_306\n        /* \"#utility.yul\":4543:4550   */\n      dup6\n        /* \"#utility.yul\":4534:4540   */\n      dup3\n        /* \"#utility.yul\":4523:4532   */\n      dup7\n        /* \"#utility.yul\":4519:4541   */\n      add\n        /* \"#utility.yul\":4498:4551   */\n      tag_201\n      jump\t// in\n    tag_306:\n        /* \"#utility.yul\":4488:4551   */\n      swap3\n      pop\n        /* \"#utility.yul\":4444:4561   */\n      pop\n        /* \"#utility.yul\":4600:4602   */\n      0x20\n        /* \"#utility.yul\":4626:4679   */\n      tag_307\n        /* \"#utility.yul\":4671:4678   */\n      dup6\n        /* \"#utility.yul\":4662:4668   */\n      dup3\n        /* \"#utility.yul\":4651:4660   */\n      dup7\n        /* \"#utility.yul\":4647:4669   */\n      add\n        /* \"#utility.yul\":4626:4679   */\n      tag_211\n      jump\t// in\n    tag_307:\n        /* \"#utility.yul\":4616:4679   */\n      swap2\n      pop\n        /* \"#utility.yul\":4571:4689   */\n      pop\n        /* \"#utility.yul\":4222:4696   */\n      swap3\n      pop\n      swap3\n      swap1\n      pop\n      jump\t// out\n        /* \"#utility.yul\":4702:4849   */\n    tag_212:\n        /* \"#utility.yul\":4773:4782   */\n      0x00\n        /* \"#utility.yul\":4806:4843   */\n      tag_309\n        /* \"#utility.yul\":4837:4842   */\n      dup3\n        /* \"#utility.yul\":4806:4843   */\n      tag_193\n      jump\t// in\n    tag_309:\n        /* \"#utility.yul\":4793:4843   */\n      swap1\n      pop\n        /* \"#utility.yul\":4702:4849   */\n      swap2\n      swap1\n      pop\n      jump\t// out\n        /* \"#utility.yul\":4855:5028   */\n    tag_213:\n        /* \"#utility.yul\":4963:5021   */\n      tag_311\n        /* \"#utility.yul\":5015:5020   */\n      dup2\n        /* \"#utility.yul\":4963:5021   */\n      tag_212\n      jump\t// in\n    tag_311:\n        /* \"#utility.yul\":4958:4961   */\n      dup3\n        /* \"#utility.yul\":4951:5022   */\n      mstore\n        /* \"#utility.yul\":4855:5028   */\n      pop\n      pop\n      jump\t// out\n        /* \"#utility.yul\":5034:5298   */\n    tag_49:\n        /* \"#utility.yul\":5148:5152   */\n      0x00\n        /* \"#utility.yul\":5186:5188   */\n      0x20\n        /* \"#utility.yul\":5175:5184   */\n      dup3\n        /* \"#utility.yul\":5171:5189   */\n      add\n        /* \"#utility.yul\":5163:5189   */\n      swap1\n      pop\n        /* \"#utility.yul\":5199:5291   */\n      tag_313\n        /* \"#utility.yul\":5288:5289   */\n      0x00\n        /* \"#utility.yul\":5277:5286   */\n      dup4\n        /* \"#utility.yul\":5273:5290   */\n      add\n        /* \"#utility.yul\":5264:5270   */\n      dup5\n        /* \"#utility.yul\":5199:5291   */\n      tag_213\n      jump\t// in\n    tag_313:\n        /* \"#utility.yul\":5034:5298   */\n      swap3\n      swap2\n      pop\n      pop\n      jump\t// out\n        /* \"#utility.yul\":5304:5400   */\n    tag_214:\n        /* \"#utility.yul\":5341:5348   */\n      0x00\n        /* \"#utility.yul\":5370:5394   */\n      tag_315\n        /* \"#utility.yul\":5388:5393   */\n      dup3\n        /* \"#utility.yul\":5370:5394   */\n      tag_190\n      jump\t// in\n    tag_315:\n        /* \"#utility.yul\":5359:5394   */\n      swap1\n      pop\n        /* \"#utility.yul\":5304:5400   */\n      swap2\n      swap1\n      pop\n      jump\t// out\n        /* \"#utility.yul\":5406:5524   */\n    tag_215:\n        /* \"#utility.yul\":5493:5517   */\n      tag_317\n        /* \"#utility.yul\":5511:5516   */\n      dup2\n        /* \"#utility.yul\":5493:5517   */\n      tag_214\n      jump\t// in\n    tag_317:\n        /* \"#utility.yul\":5488:5491   */\n      dup3\n        /* \"#utility.yul\":5481:5518   */\n      mstore\n        /* \"#utility.yul\":5406:5524   */\n      pop\n      pop\n      jump\t// out\n        /* \"#utility.yul\":5530:5752   */\n    tag_55:\n        /* \"#utility.yul\":5623:5627   */\n      0x00\n        /* \"#utility.yul\":5661:5663   */\n      0x20\n        /* \"#utility.yul\":5650:5659   */\n      dup3\n        /* \"#utility.yul\":5646:5664   */\n      add\n        /* \"#utility.yul\":5638:5664   */\n      swap1\n      pop\n        /* \"#utility.yul\":5674:5745   */\n      tag_319\n        /* \"#utility.yul\":5742:5743   */\n      0x00\n        /* \"#utility.yul\":5731:5740   */\n      dup4\n        /* \"#utility.yul\":5727:5744   */\n      add\n        /* \"#utility.yul\":5718:5724   */\n      dup5\n        /* \"#utility.yul\":5674:5745   */\n      tag_215\n      jump\t// in\n    tag_319:\n        /* \"#utility.yul\":5530:5752   */\n      swap3\n      swap2\n      pop\n      pop\n      jump\t// out\n        /* \"#utility.yul\":5758:5903   */\n    tag_216:\n        /* \"#utility.yul\":5827:5836   */\n      0x00\n        /* \"#utility.yul\":5860:5897   */\n      tag_321\n        /* \"#utility.yul\":5891:5896   */\n      dup3\n        /* \"#utility.yul\":5860:5897   */\n      tag_193\n      jump\t// in\n    tag_321:\n        /* \"#utility.yul\":5847:5897   */\n      swap1\n      pop\n        /* \"#utility.yul\":5758:5903   */\n      swap2\n      swap1\n      pop\n      jump\t// out\n        /* \"#utility.yul\":5909:6078   */\n    tag_217:\n        /* \"#utility.yul\":6015:6071   */\n      tag_323\n        /* \"#utility.yul\":6065:6070   */\n      dup2\n        /* \"#utility.yul\":6015:6071   */\n      tag_216\n      jump\t// in\n    tag_323:\n        /* \"#utility.yul\":6010:6013   */\n      dup3\n        /* \"#utility.yul\":6003:6072   */\n      mstore\n        /* \"#utility.yul\":5909:6078   */\n      pop\n      pop\n      jump\t// out\n        /* \"#utility.yul\":6084:6344   */\n    tag_59:\n        /* \"#utility.yul\":6196:6200   */\n      0x00\n        /* \"#utility.yul\":6234:6236   */\n      0x20\n        /* \"#utility.yul\":6223:6232   */\n      dup3\n        /* \"#utility.yul\":6219:6237   */\n      add\n        /* \"#utility.yul\":6211:6237   */\n      swap1\n      pop\n        /* \"#utility.yul\":6247:6337   */\n      tag_325\n        /* \"#utility.yul\":6334:6335   */\n      0x00\n        /* \"#utility.yul\":6323:6332   */\n      dup4\n        /* \"#utility.yul\":6319:6336   */\n      add\n        /* \"#utility.yul\":6310:6316   */\n      dup5\n        /* \"#utility.yul\":6247:6337   */\n      tag_217\n      jump\t// in\n    tag_325:\n        /* \"#utility.yul\":6084:6344   */\n      swap3\n      swap2\n      pop\n      pop\n      jump\t// out\n        /* \"#utility.yul\":6350:6488   */\n    tag_218:\n        /* \"#utility.yul\":6431:6463   */\n      tag_327\n        /* \"#utility.yul\":6457:6462   */\n      dup2\n        /* \"#utility.yul\":6431:6463   */\n      tag_204\n      jump\t// in\n    tag_327:\n        /* \"#utility.yul\":6424:6429   */\n      dup2\n        /* \"#utility.yul\":6421:6464   */\n      eq\n        /* \"#utility.yul\":6411:6482   */\n      tag_328\n      jumpi\n        /* \"#utility.yul\":6478:6479   */\n      0x00\n        /* \"#utility.yul\":6475:6476   */\n      dup1\n        /* \"#utility.yul\":6468:6480   */\n      revert\n        /* \"#utility.yul\":6411:6482   */\n    tag_328:\n        /* \"#utility.yul\":6350:6488   */\n      pop\n      jump\t// out\n        /* \"#utility.yul\":6494:6649   */\n    tag_219:\n        /* \"#utility.yul\":6548:6553   */\n      0x00\n        /* \"#utility.yul\":6586:6592   */\n      dup2\n        /* \"#utility.yul\":6573:6593   */\n      calldataload\n        /* \"#utility.yul\":6564:6593   */\n      swap1\n      pop\n        /* \"#utility.yul\":6602:6643   */\n      tag_330\n        /* \"#utility.yul\":6637:6642   */\n      dup2\n        /* \"#utility.yul\":6602:6643   */\n      tag_218\n      jump\t// in\n    tag_330:\n        /* \"#utility.yul\":6494:6649   */\n      swap3\n      swap2\n      pop\n      pop\n      jump\t// out\n        /* \"#utility.yul\":6655:7145   */\n    tag_65:\n        /* \"#utility.yul\":6731:6737   */\n      0x00\n        /* \"#utility.yul\":6739:6745   */\n      dup1\n        /* \"#utility.yul\":6788:6790   */\n      0x40\n        /* \"#utility.yul\":6776:6785   */\n      dup4\n        /* \"#utility.yul\":6767:6774   */\n      dup6\n        /* \"#utility.yul\":6763:6786   */\n      sub\n        /* \"#utility.yul\":6759:6791   */\n      slt\n        /* \"#utility.yul\":6756:6875   */\n      iszero\n      tag_332\n      jumpi\n        /* \"#utility.yul\":6794:6873   */\n      tag_333\n      tag_197\n      jump\t// in\n    tag_333:\n        /* \"#utility.yul\":6756:6875   */\n    tag_332:\n        /* \"#utility.yul\":6914:6915   */\n      0x00\n        /* \"#utility.yul\":6939:6992   */\n      tag_334\n        /* \"#utility.yul\":6984:6991   */\n      dup6\n        /* \"#utility.yul\":6975:6981   */\n      dup3\n        /* \"#utility.yul\":6964:6973   */\n      dup7\n        /* \"#utility.yul\":6960:6982   */\n      add\n        /* \"#utility.yul\":6939:6992   */\n      tag_201\n      jump\t// in\n    tag_334:\n        /* \"#utility.yul\":6929:6992   */\n      swap3\n      pop\n        /* \"#utility.yul\":6885:7002   */\n      pop\n        /* \"#utility.yul\":7041:7043   */\n      0x20\n        /* \"#utility.yul\":7067:7128   */\n      tag_335\n        /* \"#utility.yul\":7120:7127   */\n      dup6\n        /* \"#utility.yul\":7111:7117   */\n      dup3\n        /* \"#utility.yul\":7100:7109   */\n      dup7\n        /* \"#utility.yul\":7096:7118   */\n      add\n        /* \"#utility.yul\":7067:7128   */\n      tag_219\n      jump\t// in\n    tag_335:\n        /* \"#utility.yul\":7057:7128   */\n      swap2\n      pop\n        /* \"#utility.yul\":7012:7138   */\n      pop\n        /* \"#utility.yul\":6655:7145   */\n      swap3\n      pop\n      swap3\n      swap1\n      pop\n      jump\t// out\n        /* \"#utility.yul\":7151:7273   */\n    tag_220:\n        /* \"#utility.yul\":7224:7248   */\n      tag_337\n        /* \"#utility.yul\":7242:7247   */\n      dup2\n        /* \"#utility.yul\":7224:7248   */\n      tag_214\n      jump\t// in\n    tag_337:\n        /* \"#utility.yul\":7217:7222   */\n      dup2\n        /* \"#utility.yul\":7214:7249   */\n      eq\n        /* \"#utility.yul\":7204:7267   */\n      tag_338\n      jumpi\n        /* \"#utility.yul\":7263:7264   */\n      0x00\n        /* \"#utility.yul\":7260:7261   */\n      dup1\n        /* \"#utility.yul\":7253:7265   */\n      revert\n        /* \"#utility.yul\":7204:7267   */\n    tag_338:\n        /* \"#utility.yul\":7151:7273   */\n      pop\n      jump\t// out\n        /* \"#utility.yul\":7279:7418   */\n    tag_221:\n        /* \"#utility.yul\":7325:7330   */\n      0x00\n        /* \"#utility.yul\":7363:7369   */\n      dup2\n        /* \"#utility.yul\":7350:7370   */\n      calldataload\n        /* \"#utility.yul\":7341:7370   */\n      swap1\n      pop\n        /* \"#utility.yul\":7379:7412   */\n      tag_340\n        /* \"#utility.yul\":7406:7411   */\n      dup2\n        /* \"#utility.yul\":7379:7412   */\n      tag_220\n      jump\t// in\n    tag_340:\n        /* \"#utility.yul\":7279:7418   */\n      swap3\n      swap2\n      pop\n      pop\n      jump\t// out\n        /* \"#utility.yul\":7424:7753   */\n    tag_69:\n        /* \"#utility.yul\":7483:7489   */\n      0x00\n        /* \"#utility.yul\":7532:7534   */\n      0x20\n        /* \"#utility.yul\":7520:7529   */\n      dup3\n        /* \"#utility.yul\":7511:7518   */\n      dup5\n        /* \"#utility.yul\":7507:7530   */\n      sub\n        /* \"#utility.yul\":7503:7535   */\n      slt\n        /* \"#utility.yul\":7500:7619   */\n      iszero\n      tag_342\n      jumpi\n        /* \"#utility.yul\":7538:7617   */\n      tag_343\n      tag_197\n      jump\t// in\n    tag_343:\n        /* \"#utility.yul\":7500:7619   */\n    tag_342:\n        /* \"#utility.yul\":7658:7659   */\n      0x00\n        /* \"#utility.yul\":7683:7736   */\n      tag_344\n        /* \"#utility.yul\":7728:7735   */\n      dup5\n        /* \"#utility.yul\":7719:7725   */\n      dup3\n        /* \"#utility.yul\":7708:7717   */\n      dup6\n        /* \"#utility.yul\":7704:7726   */\n      add\n        /* \"#utility.yul\":7683:7736   */\n      tag_221\n      jump\t// in\n    tag_344:\n        /* \"#utility.yul\":7673:7736   */\n      swap2\n      pop\n        /* \"#utility.yul\":7629:7746   */\n      pop\n        /* \"#utility.yul\":7424:7753   */\n      swap3\n      swap2\n      pop\n      pop\n      jump\t// out\n        /* \"#utility.yul\":7759:7875   */\n    tag_222:\n        /* \"#utility.yul\":7829:7850   */\n      tag_346\n        /* \"#utility.yul\":7844:7849   */\n      dup2\n        /* \"#utility.yul\":7829:7850   */\n      tag_206\n      jump\t// in\n    tag_346:\n        /* \"#utility.yul\":7822:7827   */\n      dup2\n        /* \"#utility.yul\":7819:7851   */\n      eq\n        /* \"#utility.yul\":7809:7869   */\n      tag_347\n      jumpi\n        /* \"#utility.yul\":7865:7866   */\n      0x00\n        /* \"#utility.yul\":7862:7863   */\n      dup1\n        /* \"#utility.yul\":7855:7867   */\n      revert\n        /* \"#utility.yul\":7809:7869   */\n    tag_347:\n        /* \"#utility.yul\":7759:7875   */\n      pop\n      jump\t// out\n        /* \"#utility.yul\":7881:8014   */\n    tag_223:\n        /* \"#utility.yul\":7924:7929   */\n      0x00\n        /* \"#utility.yul\":7962:7968   */\n      dup2\n        /* \"#utility.yul\":7949:7969   */\n      calldataload\n        /* \"#utility.yul\":7940:7969   */\n      swap1\n      pop\n        /* \"#utility.yul\":7978:8008   */\n      tag_349\n        /* \"#utility.yul\":8002:8007   */\n      dup2\n        /* \"#utility.yul\":7978:8008   */\n      tag_222\n      jump\t// in\n    tag_349:\n        /* \"#utility.yul\":7881:8014   */\n      swap3\n      swap2\n      pop\n      pop\n      jump\t// out\n        /* \"#utility.yul\":8020:8649   */\n    tag_73:\n        /* \"#utility.yul\":8102:8108   */\n      0x00\n        /* \"#utility.yul\":8110:8116   */\n      dup1\n        /* \"#utility.yul\":8118:8124   */\n      0x00\n        /* \"#utility.yul\":8167:8169   */\n      0x60\n        /* \"#utility.yul\":8155:8164   */\n      dup5\n        /* \"#utility.yul\":8146:8153   */\n      dup7\n        /* \"#utility.yul\":8142:8165   */\n      sub\n        /* \"#utility.yul\":8138:8170   */\n      slt\n        /* \"#utility.yul\":8135:8254   */\n      iszero\n      tag_351\n      jumpi\n        /* \"#utility.yul\":8173:8252   */\n      tag_352\n      tag_197\n      jump\t// in\n    tag_352:\n        /* \"#utility.yul\":8135:8254   */\n    tag_351:\n        /* \"#utility.yul\":8293:8294   */\n      0x00\n        /* \"#utility.yul\":8318:8371   */\n      tag_353\n        /* \"#utility.yul\":8363:8370   */\n      dup7\n        /* \"#utility.yul\":8354:8360   */\n      dup3\n        /* \"#utility.yul\":8343:8352   */\n      dup8\n        /* \"#utility.yul\":8339:8361   */\n      add\n        /* \"#utility.yul\":8318:8371   */\n      tag_201\n      jump\t// in\n    tag_353:\n        /* \"#utility.yul\":8308:8371   */\n      swap4\n      pop\n        /* \"#utility.yul\":8264:8381   */\n      pop\n        /* \"#utility.yul\":8420:8422   */\n      0x20\n        /* \"#utility.yul\":8446:8507   */\n      tag_354\n        /* \"#utility.yul\":8499:8506   */\n      dup7\n        /* \"#utility.yul\":8490:8496   */\n      dup3\n        /* \"#utility.yul\":8479:8488   */\n      dup8\n        /* \"#utility.yul\":8475:8497   */\n      add\n        /* \"#utility.yul\":8446:8507   */\n      tag_219\n      jump\t// in\n    tag_354:\n        /* \"#utility.yul\":8436:8507   */\n      swap3\n      pop\n        /* \"#utility.yul\":8391:8517   */\n      pop\n        /* \"#utility.yul\":8556:8558   */\n      0x40\n        /* \"#utility.yul\":8582:8632   */\n      tag_355\n        /* \"#utility.yul\":8624:8631   */\n      dup7\n        /* \"#utility.yul\":8615:8621   */\n      dup3\n        /* \"#utility.yul\":8604:8613   */\n      dup8\n        /* \"#utility.yul\":8600:8622   */\n      add\n        /* \"#utility.yul\":8582:8632   */\n      tag_223\n      jump\t// in\n    tag_355:\n        /* \"#utility.yul\":8572:8632   */\n      swap2\n      pop\n        /* \"#utility.yul\":8527:8642   */\n      pop\n        /* \"#utility.yul\":8020:8649   */\n      swap3\n      pop\n      swap3\n      pop\n      swap3\n      jump\t// out\n        /* \"#utility.yul\":8655:8824   */\n    tag_224:\n        /* \"#utility.yul\":8739:8750   */\n      0x00\n        /* \"#utility.yul\":8773:8779   */\n      dup3\n        /* \"#utility.yul\":8768:8771   */\n      dup3\n        /* \"#utility.yul\":8761:8780   */\n      mstore\n        /* \"#utility.yul\":8813:8817   */\n      0x20\n        /* \"#utility.yul\":8808:8811   */\n      dup3\n        /* \"#utility.yul\":8804:8818   */\n      add\n        /* \"#utility.yul\":8789:8818   */\n      swap1\n      pop\n        /* \"#utility.yul\":8655:8824   */\n      swap3\n      swap2\n      pop\n      pop\n      jump\t// out\n        /* \"#utility.yul\":8830:8999   */\n    tag_225:\n        /* \"#utility.yul\":8970:8991   */\n      0x4d65726368616e74206e6f742061637469766500000000000000000000000000\n        /* \"#utility.yul\":8966:8967   */\n      0x00\n        /* \"#utility.yul\":8958:8964   */\n      dup3\n        /* \"#utility.yul\":8954:8968   */\n      add\n        /* \"#utility.yul\":8947:8992   */\n      mstore\n        /* \"#utility.yul\":8830:8999   */\n      pop\n      jump\t// out\n        /* \"#utility.yul\":9005:9371   */\n    tag_226:\n        /* \"#utility.yul\":9147:9150   */\n      0x00\n        /* \"#utility.yul\":9168:9235   */\n      tag_359\n        /* \"#utility.yul\":9232:9234   */\n      0x13\n        /* \"#utility.yul\":9227:9230   */\n      dup4\n        /* \"#utility.yul\":9168:9235   */\n      tag_224\n      jump\t// in\n    tag_359:\n        /* \"#utility.yul\":9161:9235   */\n      swap2\n      pop\n        /* \"#utility.yul\":9244:9337   */\n      tag_360\n        /* \"#utility.yul\":9333:9336   */\n      dup3\n        /* \"#utility.yul\":9244:9337   */\n      tag_225\n      jump\t// in\n    tag_360:\n        /* \"#utility.yul\":9362:9364   */\n      0x20\n        /* \"#utility.yul\":9357:9360   */\n      dup3\n        /* \"#utility.yul\":9353:9365   */\n      add\n        /* \"#utility.yul\":9346:9365   */\n      swap1\n      pop\n        /* \"#utility.yul\":9005:9371   */\n      swap2\n      swap1\n      pop\n      jump\t// out\n        /* \"#utility.yul\":9377:9796   */\n    tag_78:\n        /* \"#utility.yul\":9543:9547   */\n      0x00\n        /* \"#utility.yul\":9581:9583   */\n      0x20\n        /* \"#utility.yul\":9570:9579   */\n      dup3\n        /* \"#utility.yul\":9566:9584   */\n      add\n        /* \"#utility.yul\":9558:9584   */\n      swap1\n      pop\n        /* \"#utility.yul\":9630:9639   */\n      dup2\n        /* \"#utility.yul\":9624:9628   */\n      dup2\n        /* \"#utility.yul\":9620:9640   */\n      sub\n        /* \"#utility.yul\":9616:9617   */\n      0x00\n        /* \"#utility.yul\":9605:9614   */\n      dup4\n        /* \"#utility.yul\":9601:9618   */\n      add\n        /* \"#utility.yul\":9594:9641   */\n      mstore\n        /* \"#utility.yul\":9658:9789   */\n      tag_362\n        /* \"#utility.yul\":9784:9788   */\n      dup2\n        /* \"#utility.yul\":9658:9789   */\n      tag_226\n      jump\t// in\n    tag_362:\n        /* \"#utility.yul\":9650:9789   */\n      swap1\n      pop\n        /* \"#utility.yul\":9377:9796   */\n      swap2\n      swap1\n      pop\n      jump\t// out\n        /* \"#utility.yul\":9802:10244   */\n    tag_80:\n        /* \"#utility.yul\":9951:9955   */\n      0x00\n        /* \"#utility.yul\":9989:9991   */\n      0x60\n        /* \"#utility.yul\":9978:9987   */\n      dup3\n        /* \"#utility.yul\":9974:9992   */\n      add\n        /* \"#utility.yul\":9966:9992   */\n      swap1\n      pop\n        /* \"#utility.yul\":10002:10073   */\n      tag_364\n        /* \"#utility.yul\":10070:10071   */\n      0x00\n        /* \"#utility.yul\":10059:10068   */\n      dup4\n        /* \"#utility.yul\":10055:10072   */\n      add\n        /* \"#utility.yul\":10046:10052   */\n      dup7\n        /* \"#utility.yul\":10002:10073   */\n      tag_215\n      jump\t// in\n    tag_364:\n        /* \"#utility.yul\":10083:10155   */\n      tag_365\n        /* \"#utility.yul\":10151:10153   */\n      0x20\n        /* \"#utility.yul\":10140:10149   */\n      dup4\n        /* \"#utility.yul\":10136:10154   */\n      add\n        /* \"#utility.yul\":10127:10133   */\n      dup6\n        /* \"#utility.yul\":10083:10155   */\n      tag_215\n      jump\t// in\n    tag_365:\n        /* \"#utility.yul\":10165:10237   */\n      tag_366\n        /* \"#utility.yul\":10233:10235   */\n      0x40\n        /* \"#utility.yul\":10222:10231   */\n      dup4\n        /* \"#utility.yul\":10218:10236   */\n      add\n        /* \"#utility.yul\":10209:10215   */\n      dup5\n        /* \"#utility.yul\":10165:10237   */\n      tag_203\n      jump\t// in\n    tag_366:\n        /* \"#utility.yul\":9802:10244   */\n      swap5\n      swap4\n      pop\n      pop\n      pop\n      pop\n      jump\t// out\n        /* \"#utility.yul\":10250:10387   */\n    tag_227:\n        /* \"#utility.yul\":10304:10309   */\n      0x00\n        /* \"#utility.yul\":10335:10341   */\n      dup2\n        /* \"#utility.yul\":10329:10342   */\n      mload\n        /* \"#utility.yul\":10320:10342   */\n      swap1\n      pop\n        /* \"#utility.yul\":10351:10381   */\n      tag_368\n        /* \"#utility.yul\":10375:10380   */\n      dup2\n        /* \"#utility.yul\":10351:10381   */\n      tag_222\n      jump\t// in\n    tag_368:\n        /* \"#utility.yul\":10250:10387   */\n      swap3\n      swap2\n      pop\n      pop\n      jump\t// out\n        /* \"#utility.yul\":10393:10738   */\n    tag_84:\n        /* \"#utility.yul\":10460:10466   */\n      0x00\n        /* \"#utility.yul\":10509:10511   */\n      0x20\n        /* \"#utility.yul\":10497:10506   */\n      dup3\n        /* \"#utility.yul\":10488:10495   */\n      dup5\n        /* \"#utility.yul\":10484:10507   */\n      sub\n        /* \"#utility.yul\":10480:10512   */\n      slt\n        /* \"#utility.yul\":10477:10596   */\n      iszero\n      tag_370\n      jumpi\n        /* \"#utility.yul\":10515:10594   */\n      tag_371\n      tag_197\n      jump\t// in\n    tag_371:\n        /* \"#utility.yul\":10477:10596   */\n    tag_370:\n        /* \"#utility.yul\":10635:10636   */\n      0x00\n        /* \"#utility.yul\":10660:10721   */\n      tag_372\n        /* \"#utility.yul\":10713:10720   */\n      dup5\n        /* \"#utility.yul\":10704:10710   */\n      dup3\n        /* \"#utility.yul\":10693:10702   */\n      dup6\n        /* \"#utility.yul\":10689:10711   */\n      add\n        /* \"#utility.yul\":10660:10721   */\n      tag_227\n      jump\t// in\n    tag_372:\n        /* \"#utility.yul\":10650:10721   */\n      swap2\n      pop\n        /* \"#utility.yul\":10606:10731   */\n      pop\n        /* \"#utility.yul\":10393:10738   */\n      swap3\n      swap2\n      pop\n      pop\n      jump\t// out\n        /* \"#utility.yul\":10744:10909   */\n    tag_228:\n        /* \"#utility.yul\":10884:10901   */\n      0x5472616e73666572206661696c65640000000000000000000000000000000000\n        /* \"#utility.yul\":10880:10881   */\n      0x00\n        /* \"#utility.yul\":10872:10878   */\n      dup3\n        /* \"#utility.yul\":10868:10882   */\n      add\n        /* \"#utility.yul\":10861:10902   */\n      mstore\n        /* \"#utility.yul\":10744:10909   */\n      pop\n      jump\t// out\n        /* \"#utility.yul\":10915:11281   */\n    tag_229:\n        /* \"#utility.yul\":11057:11060   */\n      0x00\n        /* \"#utility.yul\":11078:11145   */\n      tag_375\n        /* \"#utility.yul\":11142:11144   */\n      0x0f\n        /* \"#utility.yul\":11137:11140   */\n      dup4\n        /* \"#utility.yul\":11078:11145   */\n      tag_224\n      jump\t// in\n    tag_375:\n        /* \"#utility.yul\":11071:11145   */\n      swap2\n      pop\n        /* \"#utility.yul\":11154:11247   */\n      tag_376\n        /* \"#utility.yul\":11243:11246   */\n      dup3\n        /* \"#utility.yul\":11154:11247   */\n      tag_228\n      jump\t// in\n    tag_376:\n        /* \"#utility.yul\":11272:11274   */\n      0x20\n        /* \"#utility.yul\":11267:11270   */\n      dup3\n        /* \"#utility.yul\":11263:11275   */\n      add\n        /* \"#utility.yul\":11256:11275   */\n      swap1\n      pop\n        /* \"#utility.yul\":10915:11281   */\n      swap2\n      swap1\n      pop\n      jump\t// out\n        /* \"#utility.yul\":11287:11706   */\n    tag_87:\n        /* \"#utility.yul\":11453:11457   */\n      0x00\n        /* \"#utility.yul\":11491:11493   */\n      0x20\n        /* \"#utility.yul\":11480:11489   */\n      dup3\n        /* \"#utility.yul\":11476:11494   */\n      add\n        /* \"#utility.yul\":11468:11494   */\n      swap1\n      pop\n        /* \"#utility.yul\":11540:11549   */\n      dup2\n        /* \"#utility.yul\":11534:11538   */\n      dup2\n        /* \"#utility.yul\":11530:11550   */\n      sub\n        /* \"#utility.yul\":11526:11527   */\n      0x00\n        /* \"#utility.yul\":11515:11524   */\n      dup4\n        /* \"#utility.yul\":11511:11528   */\n      add\n        /* \"#utility.yul\":11504:11551   */\n      mstore\n        /* \"#utility.yul\":11568:11699   */\n      tag_378\n        /* \"#utility.yul\":11694:11698   */\n      dup2\n        /* \"#utility.yul\":11568:11699   */\n      tag_229\n      jump\t// in\n    tag_378:\n        /* \"#utility.yul\":11560:11699   */\n      swap1\n      pop\n        /* \"#utility.yul\":11287:11706   */\n      swap2\n      swap1\n      pop\n      jump\t// out\n        /* \"#utility.yul\":11712:11892   */\n    tag_230:\n        /* \"#utility.yul\":11760:11837   */\n      0x4e487b7100000000000000000000000000000000000000000000000000000000\n        /* \"#utility.yul\":11757:11758   */\n      0x00\n        /* \"#utility.yul\":11750:11838   */\n      mstore\n        /* \"#utility.yul\":11857:11861   */\n      0x11\n        /* \"#utility.yul\":11854:11855   */\n      0x04\n        /* \"#utility.yul\":11847:11862   */\n      mstore\n        /* \"#utility.yul\":11881:11885   */\n      0x24\n        /* \"#utility.yul\":11878:11879   */\n      0x00\n        /* \"#utility.yul\":11871:11886   */\n      revert\n        /* \"#utility.yul\":11898:12089   */\n    tag_89:\n        /* \"#utility.yul\":11938:11941   */\n      0x00\n        /* \"#utility.yul\":11957:11977   */\n      tag_381\n        /* \"#utility.yul\":11975:11976   */\n      dup3\n        /* \"#utility.yul\":11957:11977   */\n      tag_202\n      jump\t// in\n    tag_381:\n        /* \"#utility.yul\":11952:11977   */\n      swap2\n      pop\n        /* \"#utility.yul\":11991:12011   */\n      tag_382\n        /* \"#utility.yul\":12009:12010   */\n      dup4\n        /* \"#utility.yul\":11991:12011   */\n      tag_202\n      jump\t// in\n    tag_382:\n        /* \"#utility.yul\":11986:12011   */\n      swap3\n      pop\n        /* \"#utility.yul\":12034:12035   */\n      dup3\n        /* \"#utility.yul\":12031:12032   */\n      dup3\n        /* \"#utility.yul\":12027:12036   */\n      add\n        /* \"#utility.yul\":12020:12036   */\n      swap1\n      pop\n        /* \"#utility.yul\":12055:12058   */\n      dup1\n        /* \"#utility.yul\":12052:12053   */\n      dup3\n        /* \"#utility.yul\":12049:12059   */\n      gt\n        /* \"#utility.yul\":12046:12082   */\n      iszero\n      tag_383\n      jumpi\n        /* \"#utility.yul\":12062:12080   */\n      tag_384\n      tag_230\n      jump\t// in\n    tag_384:\n        /* \"#utility.yul\":12046:12082   */\n    tag_383:\n        /* \"#utility.yul\":11898:12089   */\n      swap3\n      swap2\n      pop\n      pop\n      jump\t// out\n        /* \"#utility.yul\":12095:12238   */\n    tag_231:\n        /* \"#utility.yul\":12152:12157   */\n      0x00\n        /* \"#utility.yul\":12183:12189   */\n      dup2\n        /* \"#utility.yul\":12177:12190   */\n      mload\n        /* \"#utility.yul\":12168:12190   */\n      swap1\n      pop\n        /* \"#utility.yul\":12199:12232   */\n      tag_386\n        /* \"#utility.yul\":12226:12231   */\n      dup2\n        /* \"#utility.yul\":12199:12232   */\n      tag_210\n      jump\t// in\n    tag_386:\n        /* \"#utility.yul\":12095:12238   */\n      swap3\n      swap2\n      pop\n      pop\n      jump\t// out\n        /* \"#utility.yul\":12244:12595   */\n    tag_98:\n        /* \"#utility.yul\":12314:12320   */\n      0x00\n        /* \"#utility.yul\":12363:12365   */\n      0x20\n        /* \"#utility.yul\":12351:12360   */\n      dup3\n        /* \"#utility.yul\":12342:12349   */\n      dup5\n        /* \"#utility.yul\":12338:12361   */\n      sub\n        /* \"#utility.yul\":12334:12366   */\n      slt\n        /* \"#utility.yul\":12331:12450   */\n      iszero\n      tag_388\n      jumpi\n        /* \"#utility.yul\":12369:12448   */\n      tag_389\n      tag_197\n      jump\t// in\n    tag_389:\n        /* \"#utility.yul\":12331:12450   */\n    tag_388:\n        /* \"#utility.yul\":12489:12490   */\n      0x00\n        /* \"#utility.yul\":12514:12578   */\n      tag_390\n        /* \"#utility.yul\":12570:12577   */\n      dup5\n        /* \"#utility.yul\":12561:12567   */\n      dup3\n        /* \"#utility.yul\":12550:12559   */\n      dup6\n        /* \"#utility.yul\":12546:12568   */\n      add\n        /* \"#utility.yul\":12514:12578   */\n      tag_231\n      jump\t// in\n    tag_390:\n        /* \"#utility.yul\":12504:12578   */\n      swap2\n      pop\n        /* \"#utility.yul\":12460:12588   */\n      pop\n        /* \"#utility.yul\":12244:12595   */\n      swap3\n      swap2\n      pop\n      pop\n      jump\t// out\n        /* \"#utility.yul\":12601:12764   */\n    tag_232:\n        /* \"#utility.yul\":12741:12756   */\n      0x496e76616c696420707269636500000000000000000000000000000000000000\n        /* \"#utility.yul\":12737:12738   */\n      0x00\n        /* \"#utility.yul\":12729:12735   */\n      dup3\n        /* \"#utility.yul\":12725:12739   */\n      add\n        /* \"#utility.yul\":12718:12757   */\n      mstore\n        /* \"#utility.yul\":12601:12764   */\n      pop\n      jump\t// out\n        /* \"#utility.yul\":12770:13136   */\n    tag_233:\n        /* \"#utility.yul\":12912:12915   */\n      0x00\n        /* \"#utility.yul\":12933:13000   */\n      tag_393\n        /* \"#utility.yul\":12997:12999   */\n      0x0d\n        /* \"#utility.yul\":12992:12995   */\n      dup4\n        /* \"#utility.yul\":12933:13000   */\n      tag_224\n      jump\t// in\n    tag_393:\n        /* \"#utility.yul\":12926:13000   */\n      swap2\n      pop\n        /* \"#utility.yul\":13009:13102   */\n      tag_394\n        /* \"#utility.yul\":13098:13101   */\n      dup3\n        /* \"#utility.yul\":13009:13102   */\n      tag_232\n      jump\t// in\n    tag_394:\n        /* \"#utility.yul\":13127:13129   */\n      0x20\n        /* \"#utility.yul\":13122:13125   */\n      dup3\n        /* \"#utility.yul\":13118:13130   */\n      add\n        /* \"#utility.yul\":13111:13130   */\n      swap1\n      pop\n        /* \"#utility.yul\":12770:13136   */\n      swap2\n      swap1\n      pop\n      jump\t// out\n        /* \"#utility.yul\":13142:13561   */\n    tag_101:\n        /* \"#utility.yul\":13308:13312   */\n      0x00\n        /* \"#utility.yul\":13346:13348   */\n      0x20\n        /* \"#utility.yul\":13335:13344   */\n      dup3\n        /* \"#utility.yul\":13331:13349   */\n      add\n        /* \"#utility.yul\":13323:13349   */\n      swap1\n      pop\n        /* \"#utility.yul\":13395:13404   */\n      dup2\n        /* \"#utility.yul\":13389:13393   */\n      dup2\n        /* \"#utility.yul\":13385:13405   */\n      sub\n        /* \"#utility.yul\":13381:13382   */\n      0x00\n        /* \"#utility.yul\":13370:13379   */\n      dup4\n        /* \"#utility.yul\":13366:13383   */\n      add\n        /* \"#utility.yul\":13359:13406   */\n      mstore\n        /* \"#utility.yul\":13423:13554   */\n      tag_396\n        /* \"#utility.yul\":13549:13553   */\n      dup2\n        /* \"#utility.yul\":13423:13554   */\n      tag_233\n      jump\t// in\n    tag_396:\n        /* \"#utility.yul\":13415:13554   */\n      swap1\n      pop\n        /* \"#utility.yul\":13142:13561   */\n      swap2\n      swap1\n      pop\n      jump\t// out\n        /* \"#utility.yul\":13567:13977   */\n    tag_103:\n        /* \"#utility.yul\":13607:13614   */\n      0x00\n        /* \"#utility.yul\":13630:13650   */\n      tag_398\n        /* \"#utility.yul\":13648:13649   */\n      dup3\n        /* \"#utility.yul\":13630:13650   */\n      tag_202\n      jump\t// in\n    tag_398:\n        /* \"#utility.yul\":13625:13650   */\n      swap2\n      pop\n        /* \"#utility.yul\":13664:13684   */\n      tag_399\n        /* \"#utility.yul\":13682:13683   */\n      dup4\n        /* \"#utility.yul\":13664:13684   */\n      tag_202\n      jump\t// in\n    tag_399:\n        /* \"#utility.yul\":13659:13684   */\n      swap3\n      pop\n        /* \"#utility.yul\":13719:13720   */\n      dup3\n        /* \"#utility.yul\":13716:13717   */\n      dup3\n        /* \"#utility.yul\":13712:13721   */\n      mul\n        /* \"#utility.yul\":13741:13771   */\n      tag_400\n        /* \"#utility.yul\":13759:13770   */\n      dup2\n        /* \"#utility.yul\":13741:13771   */\n      tag_202\n      jump\t// in\n    tag_400:\n        /* \"#utility.yul\":13730:13771   */\n      swap2\n      pop\n        /* \"#utility.yul\":13920:13921   */\n      dup3\n        /* \"#utility.yul\":13911:13918   */\n      dup3\n        /* \"#utility.yul\":13907:13922   */\n      div\n        /* \"#utility.yul\":13904:13905   */\n      dup5\n        /* \"#utility.yul\":13901:13923   */\n      eq\n        /* \"#utility.yul\":13881:13882   */\n      dup4\n        /* \"#utility.yul\":13874:13883   */\n      iszero\n        /* \"#utility.yul\":13854:13937   */\n      or\n        /* \"#utility.yul\":13831:13970   */\n      tag_401\n      jumpi\n        /* \"#utility.yul\":13950:13968   */\n      tag_402\n      tag_230\n      jump\t// in\n    tag_402:\n        /* \"#utility.yul\":13831:13970   */\n    tag_401:\n        /* \"#utility.yul\":13615:13977   */\n      pop\n        /* \"#utility.yul\":13567:13977   */\n      swap3\n      swap2\n      pop\n      pop\n      jump\t// out\n        /* \"#utility.yul\":13983:14163   */\n    tag_234:\n        /* \"#utility.yul\":14031:14108   */\n      0x4e487b7100000000000000000000000000000000000000000000000000000000\n        /* \"#utility.yul\":14028:14029   */\n      0x00\n        /* \"#utility.yul\":14021:14109   */\n      mstore\n        /* \"#utility.yul\":14128:14132   */\n      0x12\n        /* \"#utility.yul\":14125:14126   */\n      0x04\n        /* \"#utility.yul\":14118:14133   */\n      mstore\n        /* \"#utility.yul\":14152:14156   */\n      0x24\n        /* \"#utility.yul\":14149:14150   */\n      0x00\n        /* \"#utility.yul\":14142:14157   */\n      revert\n        /* \"#utility.yul\":14169:14354   */\n    tag_105:\n        /* \"#utility.yul\":14209:14210   */\n      0x00\n        /* \"#utility.yul\":14226:14246   */\n      tag_405\n        /* \"#utility.yul\":14244:14245   */\n      dup3\n        /* \"#utility.yul\":14226:14246   */\n      tag_202\n      jump\t// in\n    tag_405:\n        /* \"#utility.yul\":14221:14246   */\n      swap2\n      pop\n        /* \"#utility.yul\":14260:14280   */\n      tag_406\n        /* \"#utility.yul\":14278:14279   */\n      dup4\n        /* \"#utility.yul\":14260:14280   */\n      tag_202\n      jump\t// in\n    tag_406:\n        /* \"#utility.yul\":14255:14280   */\n      swap3\n      pop\n        /* \"#utility.yul\":14299:14300   */\n      dup3\n        /* \"#utility.yul\":14289:14324   */\n      tag_407\n      jumpi\n        /* \"#utility.yul\":14304:14322   */\n      tag_408\n      tag_234\n      jump\t// in\n    tag_408:\n        /* \"#utility.yul\":14289:14324   */\n    tag_407:\n        /* \"#utility.yul\":14346:14347   */\n      dup3\n        /* \"#utility.yul\":14343:14344   */\n      dup3\n        /* \"#utility.yul\":14339:14348   */\n      div\n        /* \"#utility.yul\":14334:14348   */\n      swap1\n      pop\n        /* \"#utility.yul\":14169:14354   */\n      swap3\n      swap2\n      pop\n      pop\n      jump\t// out\n        /* \"#utility.yul\":14360:14692   */\n    tag_113:\n        /* \"#utility.yul\":14481:14485   */\n      0x00\n        /* \"#utility.yul\":14519:14521   */\n      0x40\n        /* \"#utility.yul\":14508:14517   */\n      dup3\n        /* \"#utility.yul\":14504:14522   */\n      add\n        /* \"#utility.yul\":14496:14522   */\n      swap1\n      pop\n        /* \"#utility.yul\":14532:14603   */\n      tag_410\n        /* \"#utility.yul\":14600:14601   */\n      0x00\n        /* \"#utility.yul\":14589:14598   */\n      dup4\n        /* \"#utility.yul\":14585:14602   */\n      add\n        /* \"#utility.yul\":14576:14582   */\n      dup6\n        /* \"#utility.yul\":14532:14603   */\n      tag_215\n      jump\t// in\n    tag_410:\n        /* \"#utility.yul\":14613:14685   */\n      tag_411\n        /* \"#utility.yul\":14681:14683   */\n      0x20\n        /* \"#utility.yul\":14670:14679   */\n      dup4\n        /* \"#utility.yul\":14666:14684   */\n      add\n        /* \"#utility.yul\":14657:14663   */\n      dup5\n        /* \"#utility.yul\":14613:14685   */\n      tag_203\n      jump\t// in\n    tag_411:\n        /* \"#utility.yul\":14360:14692   */\n      swap4\n      swap3\n      pop\n      pop\n      pop\n      jump\t// out\n        /* \"#utility.yul\":14698:14867   */\n    tag_235:\n        /* \"#utility.yul\":14838:14859   */\n      0x6342544320617070726f7665206661696c656400000000000000000000000000\n        /* \"#utility.yul\":14834:14835   */\n      0x00\n        /* \"#utility.yul\":14826:14832   */\n      dup3\n        /* \"#utility.yul\":14822:14836   */\n      add\n        /* \"#utility.yul\":14815:14860   */\n      mstore\n        /* \"#utility.yul\":14698:14867   */\n      pop\n      jump\t// out\n        /* \"#utility.yul\":14873:15239   */\n    tag_236:\n        /* \"#utility.yul\":15015:15018   */\n      0x00\n        /* \"#utility.yul\":15036:15103   */\n      tag_414\n        /* \"#utility.yul\":15100:15102   */\n      0x13\n        /* \"#utility.yul\":15095:15098   */\n      dup4\n        /* \"#utility.yul\":15036:15103   */\n      tag_224\n      jump\t// in\n    tag_414:\n        /* \"#utility.yul\":15029:15103   */\n      swap2\n      pop\n        /* \"#utility.yul\":15112:15205   */\n      tag_415\n        /* \"#utility.yul\":15201:15204   */\n      dup3\n        /* \"#utility.yul\":15112:15205   */\n      tag_235\n      jump\t// in\n    tag_415:\n        /* \"#utility.yul\":15230:15232   */\n      0x20\n        /* \"#utility.yul\":15225:15228   */\n      dup3\n        /* \"#utility.yul\":15221:15233   */\n      add\n        /* \"#utility.yul\":15214:15233   */\n      swap1\n      pop\n        /* \"#utility.yul\":14873:15239   */\n      swap2\n      swap1\n      pop\n      jump\t// out\n        /* \"#utility.yul\":15245:15664   */\n    tag_119:\n        /* \"#utility.yul\":15411:15415   */\n      0x00\n        /* \"#utility.yul\":15449:15451   */\n      0x20\n        /* \"#utility.yul\":15438:15447   */\n      dup3\n        /* \"#utility.yul\":15434:15452   */\n      add\n        /* \"#utility.yul\":15426:15452   */\n      swap1\n      pop\n        /* \"#utility.yul\":15498:15507   */\n      dup2\n        /* \"#utility.yul\":15492:15496   */\n      dup2\n        /* \"#utility.yul\":15488:15508   */\n      sub\n        /* \"#utility.yul\":15484:15485   */\n      0x00\n        /* \"#utility.yul\":15473:15482   */\n      dup4\n        /* \"#utility.yul\":15469:15486   */\n      add\n        /* \"#utility.yul\":15462:15509   */\n      mstore\n        /* \"#utility.yul\":15526:15657   */\n      tag_417\n        /* \"#utility.yul\":15652:15656   */\n      dup2\n        /* \"#utility.yul\":15526:15657   */\n      tag_236\n      jump\t// in\n    tag_417:\n        /* \"#utility.yul\":15518:15657   */\n      swap1\n      pop\n        /* \"#utility.yul\":15245:15664   */\n      swap2\n      swap1\n      pop\n      jump\t// out\n        /* \"#utility.yul\":15670:16002   */\n    tag_121:\n        /* \"#utility.yul\":15791:15795   */\n      0x00\n        /* \"#utility.yul\":15829:15831   */\n      0x40\n        /* \"#utility.yul\":15818:15827   */\n      dup3\n        /* \"#utility.yul\":15814:15832   */\n      add\n        /* \"#utility.yul\":15806:15832   */\n      swap1\n      pop\n        /* \"#utility.yul\":15842:15913   */\n      tag_419\n        /* \"#utility.yul\":15910:15911   */\n      0x00\n        /* \"#utility.yul\":15899:15908   */\n      dup4\n        /* \"#utility.yul\":15895:15912   */\n      add\n        /* \"#utility.yul\":15886:15892   */\n      dup6\n        /* \"#utility.yul\":15842:15913   */\n      tag_203\n      jump\t// in\n    tag_419:\n        /* \"#utility.yul\":15923:15995   */\n      tag_420\n        /* \"#utility.yul\":15991:15993   */\n      0x20\n        /* \"#utility.yul\":15980:15989   */\n      dup4\n        /* \"#utility.yul\":15976:15994   */\n      add\n        /* \"#utility.yul\":15967:15973   */\n      dup5\n        /* \"#utility.yul\":15923:15995   */\n      tag_203\n      jump\t// in\n    tag_420:\n        /* \"#utility.yul\":15670:16002   */\n      swap4\n      swap3\n      pop\n      pop\n      pop\n      jump\t// out\n        /* \"#utility.yul\":16008:16180   */\n    tag_237:\n        /* \"#utility.yul\":16148:16172   */\n      0x4e6f2062616c616e636520746f20776974686472617700000000000000000000\n        /* \"#utility.yul\":16144:16145   */\n      0x00\n        /* \"#utility.yul\":16136:16142   */\n      dup3\n        /* \"#utility.yul\":16132:16146   */\n      add\n        /* \"#utility.yul\":16125:16173   */\n      mstore\n        /* \"#utility.yul\":16008:16180   */\n      pop\n      jump\t// out\n        /* \"#utility.yul\":16186:16552   */\n    tag_238:\n        /* \"#utility.yul\":16328:16331   */\n      0x00\n        /* \"#utility.yul\":16349:16416   */\n      tag_423\n        /* \"#utility.yul\":16413:16415   */\n      0x16\n        /* \"#utility.yul\":16408:16411   */\n      dup4\n        /* \"#utility.yul\":16349:16416   */\n      tag_224\n      jump\t// in\n    tag_423:\n        /* \"#utility.yul\":16342:16416   */\n      swap2\n      pop\n        /* \"#utility.yul\":16425:16518   */\n      tag_424\n        /* \"#utility.yul\":16514:16517   */\n      dup3\n        /* \"#utility.yul\":16425:16518   */\n      tag_237\n      jump\t// in\n    tag_424:\n        /* \"#utility.yul\":16543:16545   */\n      0x20\n        /* \"#utility.yul\":16538:16541   */\n      dup3\n        /* \"#utility.yul\":16534:16546   */\n      add\n        /* \"#utility.yul\":16527:16546   */\n      swap1\n      pop\n        /* \"#utility.yul\":16186:16552   */\n      swap2\n      swap1\n      pop\n      jump\t// out\n        /* \"#utility.yul\":16558:16977   */\n    tag_141:\n        /* \"#utility.yul\":16724:16728   */\n      0x00\n        /* \"#utility.yul\":16762:16764   */\n      0x20\n        /* \"#utility.yul\":16751:16760   */\n      dup3\n        /* \"#utility.yul\":16747:16765   */\n      add\n        /* \"#utility.yul\":16739:16765   */\n      swap1\n      pop\n        /* \"#utility.yul\":16811:16820   */\n      dup2\n        /* \"#utility.yul\":16805:16809   */\n      dup2\n        /* \"#utility.yul\":16801:16821   */\n      sub\n        /* \"#utility.yul\":16797:16798   */\n      0x00\n        /* \"#utility.yul\":16786:16795   */\n      dup4\n        /* \"#utility.yul\":16782:16799   */\n      add\n        /* \"#utility.yul\":16775:16822   */\n      mstore\n        /* \"#utility.yul\":16839:16970   */\n      tag_426\n        /* \"#utility.yul\":16965:16969   */\n      dup2\n        /* \"#utility.yul\":16839:16970   */\n      tag_238\n      jump\t// in\n    tag_426:\n        /* \"#utility.yul\":16831:16970   */\n      swap1\n      pop\n        /* \"#utility.yul\":16558:16977   */\n      swap2\n      swap1\n      pop\n      jump\t// out\n        /* \"#utility.yul\":16983:17117   */\n    tag_239:\n        /* \"#utility.yul\":17041:17050   */\n      0x00\n        /* \"#utility.yul\":17074:17111   */\n      tag_428\n        /* \"#utility.yul\":17105:17110   */\n      dup3\n        /* \"#utility.yul\":17074:17111   */\n      tag_193\n      jump\t// in\n    tag_428:\n        /* \"#utility.yul\":17061:17111   */\n      swap1\n      pop\n        /* \"#utility.yul\":16983:17117   */\n      swap2\n      swap1\n      pop\n      jump\t// out\n        /* \"#utility.yul\":17123:17270   */\n    tag_240:\n        /* \"#utility.yul\":17218:17263   */\n      tag_430\n        /* \"#utility.yul\":17257:17262   */\n      dup2\n        /* \"#utility.yul\":17218:17263   */\n      tag_239\n      jump\t// in\n    tag_430:\n        /* \"#utility.yul\":17213:17216   */\n      dup3\n        /* \"#utility.yul\":17206:17264   */\n      mstore\n        /* \"#utility.yul\":17123:17270   */\n      pop\n      pop\n      jump\t// out\n        /* \"#utility.yul\":17276:17624   */\n    tag_143:\n        /* \"#utility.yul\":17405:17409   */\n      0x00\n        /* \"#utility.yul\":17443:17445   */\n      0x40\n        /* \"#utility.yul\":17432:17441   */\n      dup3\n        /* \"#utility.yul\":17428:17446   */\n      add\n        /* \"#utility.yul\":17420:17446   */\n      swap1\n      pop\n        /* \"#utility.yul\":17456:17535   */\n      tag_432\n        /* \"#utility.yul\":17532:17533   */\n      0x00\n        /* \"#utility.yul\":17521:17530   */\n      dup4\n        /* \"#utility.yul\":17517:17534   */\n      add\n        /* \"#utility.yul\":17508:17514   */\n      dup6\n        /* \"#utility.yul\":17456:17535   */\n      tag_240\n      jump\t// in\n    tag_432:\n        /* \"#utility.yul\":17545:17617   */\n      tag_433\n        /* \"#utility.yul\":17613:17615   */\n      0x20\n        /* \"#utility.yul\":17602:17611   */\n      dup4\n        /* \"#utility.yul\":17598:17616   */\n      add\n        /* \"#utility.yul\":17589:17595   */\n      dup5\n        /* \"#utility.yul\":17545:17617   */\n      tag_203\n      jump\t// in\n    tag_433:\n        /* \"#utility.yul\":17276:17624   */\n      swap4\n      swap3\n      pop\n      pop\n      pop\n      jump\t// out\n        /* \"#utility.yul\":17630:17978   */\n    tag_150:\n        /* \"#utility.yul\":17759:17763   */\n      0x00\n        /* \"#utility.yul\":17797:17799   */\n      0x40\n        /* \"#utility.yul\":17786:17795   */\n      dup3\n        /* \"#utility.yul\":17782:17800   */\n      add\n        /* \"#utility.yul\":17774:17800   */\n      swap1\n      pop\n        /* \"#utility.yul\":17810:17881   */\n      tag_435\n        /* \"#utility.yul\":17878:17879   */\n      0x00\n        /* \"#utility.yul\":17867:17876   */\n      dup4\n        /* \"#utility.yul\":17863:17880   */\n      add\n        /* \"#utility.yul\":17854:17860   */\n      dup6\n        /* \"#utility.yul\":17810:17881   */\n      tag_203\n      jump\t// in\n    tag_435:\n        /* \"#utility.yul\":17891:17971   */\n      tag_436\n        /* \"#utility.yul\":17967:17969   */\n      0x20\n        /* \"#utility.yul\":17956:17965   */\n      dup4\n        /* \"#utility.yul\":17952:17970   */\n      add\n        /* \"#utility.yul\":17943:17949   */\n      dup5\n        /* \"#utility.yul\":17891:17971   */\n      tag_240\n      jump\t// in\n    tag_436:\n        /* \"#utility.yul\":17630:17978   */\n      swap4\n      swap3\n      pop\n      pop\n      pop\n      jump\t// out\n        /* \"#utility.yul\":17984:18152   */\n    tag_241:\n        /* \"#utility.yul\":18124:18144   */\n      0x496e76616c6964206d65726368616e7449640000000000000000000000000000\n        /* \"#utility.yul\":18120:18121   */\n      0x00\n        /* \"#utility.yul\":18112:18118   */\n      dup3\n        /* \"#utility.yul\":18108:18122   */\n      add\n        /* \"#utility.yul\":18101:18145   */\n      mstore\n        /* \"#utility.yul\":17984:18152   */\n      pop\n      jump\t// out\n        /* \"#utility.yul\":18158:18524   */\n    tag_242:\n        /* \"#utility.yul\":18300:18303   */\n      0x00\n        /* \"#utility.yul\":18321:18388   */\n      tag_439\n        /* \"#utility.yul\":18385:18387   */\n      0x12\n        /* \"#utility.yul\":18380:18383   */\n      dup4\n        /* \"#utility.yul\":18321:18388   */\n      tag_224\n      jump\t// in\n    tag_439:\n        /* \"#utility.yul\":18314:18388   */\n      swap2\n      pop\n        /* \"#utility.yul\":18397:18490   */\n      tag_440\n        /* \"#utility.yul\":18486:18489   */\n      dup3\n        /* \"#utility.yul\":18397:18490   */\n      tag_241\n      jump\t// in\n    tag_440:\n        /* \"#utility.yul\":18515:18517   */\n      0x20\n        /* \"#utility.yul\":18510:18513   */\n      dup3\n        /* \"#utility.yul\":18506:18518   */\n      add\n        /* \"#utility.yul\":18499:18518   */\n      swap1\n      pop\n        /* \"#utility.yul\":18158:18524   */\n      swap2\n      swap1\n      pop\n      jump\t// out\n        /* \"#utility.yul\":18530:18949   */\n    tag_156:\n        /* \"#utility.yul\":18696:18700   */\n      0x00\n        /* \"#utility.yul\":18734:18736   */\n      0x20\n        /* \"#utility.yul\":18723:18732   */\n      dup3\n        /* \"#utility.yul\":18719:18737   */\n      add\n        /* \"#utility.yul\":18711:18737   */\n      swap1\n      pop\n        /* \"#utility.yul\":18783:18792   */\n      dup2\n        /* \"#utility.yul\":18777:18781   */\n      dup2\n        /* \"#utility.yul\":18773:18793   */\n      sub\n        /* \"#utility.yul\":18769:18770   */\n      0x00\n        /* \"#utility.yul\":18758:18767   */\n      dup4\n        /* \"#utility.yul\":18754:18771   */\n      add\n        /* \"#utility.yul\":18747:18794   */\n      mstore\n        /* \"#utility.yul\":18811:18942   */\n      tag_442\n        /* \"#utility.yul\":18937:18941   */\n      dup2\n        /* \"#utility.yul\":18811:18942   */\n      tag_242\n      jump\t// in\n    tag_442:\n        /* \"#utility.yul\":18803:18942   */\n      swap1\n      pop\n        /* \"#utility.yul\":18530:18949   */\n      swap2\n      swap1\n      pop\n      jump\t// out\n        /* \"#utility.yul\":18955:19127   */\n    tag_243:\n        /* \"#utility.yul\":19095:19119   */\n      0x496e76616c6964207061796f7574206164647265737300000000000000000000\n        /* \"#utility.yul\":19091:19092   */\n      0x00\n        /* \"#utility.yul\":19083:19089   */\n      dup3\n        /* \"#utility.yul\":19079:19093   */\n      add\n        /* \"#utility.yul\":19072:19120   */\n      mstore\n        /* \"#utility.yul\":18955:19127   */\n      pop\n      jump\t// out\n        /* \"#utility.yul\":19133:19499   */\n    tag_244:\n        /* \"#utility.yul\":19275:19278   */\n      0x00\n        /* \"#utility.yul\":19296:19363   */\n      tag_445\n        /* \"#utility.yul\":19360:19362   */\n      0x16\n        /* \"#utility.yul\":19355:19358   */\n      dup4\n        /* \"#utility.yul\":19296:19363   */\n      tag_224\n      jump\t// in\n    tag_445:\n        /* \"#utility.yul\":19289:19363   */\n      swap2\n      pop\n        /* \"#utility.yul\":19372:19465   */\n      tag_446\n        /* \"#utility.yul\":19461:19464   */\n      dup3\n        /* \"#utility.yul\":19372:19465   */\n      tag_243\n      jump\t// in\n    tag_446:\n        /* \"#utility.yul\":19490:19492   */\n      0x20\n        /* \"#utility.yul\":19485:19488   */\n      dup3\n        /* \"#utility.yul\":19481:19493   */\n      add\n        /* \"#utility.yul\":19474:19493   */\n      swap1\n      pop\n        /* \"#utility.yul\":19133:19499   */\n      swap2\n      swap1\n      pop\n      jump\t// out\n        /* \"#utility.yul\":19505:19924   */\n    tag_159:\n        /* \"#utility.yul\":19671:19675   */\n      0x00\n        /* \"#utility.yul\":19709:19711   */\n      0x20\n        /* \"#utility.yul\":19698:19707   */\n      dup3\n        /* \"#utility.yul\":19694:19712   */\n      add\n        /* \"#utility.yul\":19686:19712   */\n      swap1\n      pop\n        /* \"#utility.yul\":19758:19767   */\n      dup2\n        /* \"#utility.yul\":19752:19756   */\n      dup2\n        /* \"#utility.yul\":19748:19768   */\n      sub\n        /* \"#utility.yul\":19744:19745   */\n      0x00\n        /* \"#utility.yul\":19733:19742   */\n      dup4\n        /* \"#utility.yul\":19729:19746   */\n      add\n        /* \"#utility.yul\":19722:19769   */\n      mstore\n        /* \"#utility.yul\":19786:19917   */\n      tag_448\n        /* \"#utility.yul\":19912:19916   */\n      dup2\n        /* \"#utility.yul\":19786:19917   */\n      tag_244\n      jump\t// in\n    tag_448:\n        /* \"#utility.yul\":19778:19917   */\n      swap1\n      pop\n        /* \"#utility.yul\":19505:19924   */\n      swap2\n      swap1\n      pop\n      jump\t// out\n        /* \"#utility.yul\":19930:20107   */\n    tag_245:\n        /* \"#utility.yul\":20070:20099   */\n      0x4d65726368616e7420616c726561647920726567697374657265640000000000\n        /* \"#utility.yul\":20066:20067   */\n      0x00\n        /* \"#utility.yul\":20058:20064   */\n      dup3\n        /* \"#utility.yul\":20054:20068   */\n      add\n        /* \"#utility.yul\":20047:20100   */\n      mstore\n        /* \"#utility.yul\":19930:20107   */\n      pop\n      jump\t// out\n        /* \"#utility.yul\":20113:20479   */\n    tag_246:\n        /* \"#utility.yul\":20255:20258   */\n      0x00\n        /* \"#utility.yul\":20276:20343   */\n      tag_451\n        /* \"#utility.yul\":20340:20342   */\n      0x1b\n        /* \"#utility.yul\":20335:20338   */\n      dup4\n        /* \"#utility.yul\":20276:20343   */\n      tag_224\n      jump\t// in\n    tag_451:\n        /* \"#utility.yul\":20269:20343   */\n      swap2\n      pop\n        /* \"#utility.yul\":20352:20445   */\n      tag_452\n        /* \"#utility.yul\":20441:20444   */\n      dup3\n        /* \"#utility.yul\":20352:20445   */\n      tag_245\n      jump\t// in\n    tag_452:\n        /* \"#utility.yul\":20470:20472   */\n      0x20\n        /* \"#utility.yul\":20465:20468   */\n      dup3\n        /* \"#utility.yul\":20461:20473   */\n      add\n        /* \"#utility.yul\":20454:20473   */\n      swap1\n      pop\n        /* \"#utility.yul\":20113:20479   */\n      swap2\n      swap1\n      pop\n      jump\t// out\n        /* \"#utility.yul\":20485:20904   */\n    tag_162:\n        /* \"#utility.yul\":20651:20655   */\n      0x00\n        /* \"#utility.yul\":20689:20691   */\n      0x20\n        /* \"#utility.yul\":20678:20687   */\n      dup3\n        /* \"#utility.yul\":20674:20692   */\n      add\n        /* \"#utility.yul\":20666:20692   */\n      swap1\n      pop\n        /* \"#utility.yul\":20738:20747   */\n      dup2\n        /* \"#utility.yul\":20732:20736   */\n      dup2\n        /* \"#utility.yul\":20728:20748   */\n      sub\n        /* \"#utility.yul\":20724:20725   */\n      0x00\n        /* \"#utility.yul\":20713:20722   */\n      dup4\n        /* \"#utility.yul\":20709:20726   */\n      add\n        /* \"#utility.yul\":20702:20749   */\n      mstore\n        /* \"#utility.yul\":20766:20897   */\n      tag_454\n        /* \"#utility.yul\":20892:20896   */\n      dup2\n        /* \"#utility.yul\":20766:20897   */\n      tag_246\n      jump\t// in\n    tag_454:\n        /* \"#utility.yul\":20758:20897   */\n      swap1\n      pop\n        /* \"#utility.yul\":20485:20904   */\n      swap2\n      swap1\n      pop\n      jump\t// out\n        /* \"#utility.yul\":20910:21148   */\n    tag_164:\n        /* \"#utility.yul\":21011:21015   */\n      0x00\n        /* \"#utility.yul\":21049:21051   */\n      0x20\n        /* \"#utility.yul\":21038:21047   */\n      dup3\n        /* \"#utility.yul\":21034:21052   */\n      add\n        /* \"#utility.yul\":21026:21052   */\n      swap1\n      pop\n        /* \"#utility.yul\":21062:21141   */\n      tag_456\n        /* \"#utility.yul\":21138:21139   */\n      0x00\n        /* \"#utility.yul\":21127:21136   */\n      dup4\n        /* \"#utility.yul\":21123:21140   */\n      add\n        /* \"#utility.yul\":21114:21120   */\n      dup5\n        /* \"#utility.yul\":21062:21141   */\n      tag_240\n      jump\t// in\n    tag_456:\n        /* \"#utility.yul\":20910:21148   */\n      swap3\n      swap2\n      pop\n      pop\n      jump\t// out\n        /* \"#utility.yul\":21154:21327   */\n    tag_247:\n        /* \"#utility.yul\":21294:21319   */\n      0x4d65726368616e74206e6f742072656769737465726564000000000000000000\n        /* \"#utility.yul\":21290:21291   */\n      0x00\n        /* \"#utility.yul\":21282:21288   */\n      dup3\n        /* \"#utility.yul\":21278:21292   */\n      add\n        /* \"#utility.yul\":21271:21320   */\n      mstore\n        /* \"#utility.yul\":21154:21327   */\n      pop\n      jump\t// out\n        /* \"#utility.yul\":21333:21699   */\n    tag_248:\n        /* \"#utility.yul\":21475:21478   */\n      0x00\n        /* \"#utility.yul\":21496:21563   */\n      tag_459\n        /* \"#utility.yul\":21560:21562   */\n      0x17\n        /* \"#utility.yul\":21555:21558   */\n      dup4\n        /* \"#utility.yul\":21496:21563   */\n      tag_224\n      jump\t// in\n    tag_459:\n        /* \"#utility.yul\":21489:21563   */\n      swap2\n      pop\n        /* \"#utility.yul\":21572:21665   */\n      tag_460\n        /* \"#utility.yul\":21661:21664   */\n      dup3\n        /* \"#utility.yul\":21572:21665   */\n      tag_247\n      jump\t// in\n    tag_460:\n        /* \"#utility.yul\":21690:21692   */\n      0x20\n        /* \"#utility.yul\":21685:21688   */\n      dup3\n        /* \"#utility.yul\":21681:21693   */\n      add\n        /* \"#utility.yul\":21674:21693   */\n      swap1\n      pop\n        /* \"#utility.yul\":21333:21699   */\n      swap2\n      swap1\n      pop\n      jump\t// out\n        /* \"#utility.yul\":21705:22124   */\n    tag_176:\n        /* \"#utility.yul\":21871:21875   */\n      0x00\n        /* \"#utility.yul\":21909:21911   */\n      0x20\n        /* \"#utility.yul\":21898:21907   */\n      dup3\n        /* \"#utility.yul\":21894:21912   */\n      add\n        /* \"#utility.yul\":21886:21912   */\n      swap1\n      pop\n        /* \"#utility.yul\":21958:21967   */\n      dup2\n        /* \"#utility.yul\":21952:21956   */\n      dup2\n        /* \"#utility.yul\":21948:21968   */\n      sub\n        /* \"#utility.yul\":21944:21945   */\n      0x00\n        /* \"#utility.yul\":21933:21942   */\n      dup4\n        /* \"#utility.yul\":21929:21946   */\n      add\n        /* \"#utility.yul\":21922:21969   */\n      mstore\n        /* \"#utility.yul\":21986:22117   */\n      tag_462\n        /* \"#utility.yul\":22112:22116   */\n      dup2\n        /* \"#utility.yul\":21986:22117   */\n      tag_248\n      jump\t// in\n    tag_462:\n        /* \"#utility.yul\":21978:22117   */\n      swap1\n      pop\n        /* \"#utility.yul\":21705:22124   */\n      swap2\n      swap1\n      pop\n      jump\t// out\n        /* \"#utility.yul\":22130:22466   */\n    tag_180:\n        /* \"#utility.yul\":22253:22257   */\n      0x00\n        /* \"#utility.yul\":22291:22293   */\n      0x40\n        /* \"#utility.yul\":22280:22289   */\n      dup3\n        /* \"#utility.yul\":22276:22294   */\n      add\n        /* \"#utility.yul\":22268:22294   */\n      swap1\n      pop\n        /* \"#utility.yul\":22304:22383   */\n      tag_464\n        /* \"#utility.yul\":22380:22381   */\n      0x00\n        /* \"#utility.yul\":22369:22378   */\n      dup4\n        /* \"#utility.yul\":22365:22382   */\n      add\n        /* \"#utility.yul\":22356:22362   */\n      dup6\n        /* \"#utility.yul\":22304:22383   */\n      tag_240\n      jump\t// in\n    tag_464:\n        /* \"#utility.yul\":22393:22459   */\n      tag_465\n        /* \"#utility.yul\":22455:22457   */\n      0x20\n        /* \"#utility.yul\":22444:22453   */\n      dup4\n        /* \"#utility.yul\":22440:22458   */\n      add\n        /* \"#utility.yul\":22431:22437   */\n      dup5\n        /* \"#utility.yul\":22393:22459   */\n      tag_207\n      jump\t// in\n    tag_465:\n        /* \"#utility.yul\":22130:22466   */\n      swap4\n      swap3\n      pop\n      pop\n      pop\n      jump\t// out\n\n    auxdata: 0xa26469706673582212207df806cf04ca5ff70c12db778cacc67538042d5114accee73c828b0c7fa873b364736f6c634300081a0033\n}\n",
				"bytecode": {
					"linkReferences": {},
					"object": "608060405234801561000f575f80fd5b506040516123c23803806123c283398181016040528101906100319190610492565b335f73ffffffffffffffffffffffffffffffffffffffff168173ffffffffffffffffffffffffffffffffffffffff16036100a2575f6040517f1e4fbdf70000000000000000000000000000000000000000000000000000000081526004016100999190610505565b60405180910390fd5b6100b18161037360201b60201c565b505f73ffffffffffffffffffffffffffffffffffffffff168473ffffffffffffffffffffffffffffffffffffffff1603610120576040517f08c379a000000000000000000000000000000000000000000000000000000000815260040161011790610578565b60405180910390fd5b5f73ffffffffffffffffffffffffffffffffffffffff168373ffffffffffffffffffffffffffffffffffffffff160361018e576040517f08c379a0000000000000000000000000000000000000000000000000000000008152600401610185906105e0565b60405180910390fd5b5f73ffffffffffffffffffffffffffffffffffffffff168273ffffffffffffffffffffffffffffffffffffffff16036101fc576040517f08c379a00000000000000000000000000000000000000000000000000000000081526004016101f390610648565b60405180910390fd5b5f73ffffffffffffffffffffffffffffffffffffffff168173ffffffffffffffffffffffffffffffffffffffff160361026a576040517f08c379a0000000000000000000000000000000000000000000000000000000008152600401610261906106b0565b60405180910390fd5b8360035f6101000a81548173ffffffffffffffffffffffffffffffffffffffff021916908373ffffffffffffffffffffffffffffffffffffffff1602179055508260045f6101000a81548173ffffffffffffffffffffffffffffffffffffffff021916908373ffffffffffffffffffffffffffffffffffffffff1602179055508160055f6101000a81548173ffffffffffffffffffffffffffffffffffffffff021916908373ffffffffffffffffffffffffffffffffffffffff1602179055508060065f6101000a81548173ffffffffffffffffffffffffffffffffffffffff021916908373ffffffffffffffffffffffffffffffffffffffff160217905550505050506106ce565b5f805f9054906101000a900473ffffffffffffffffffffffffffffffffffffffff169050815f806101000a81548173ffffffffffffffffffffffffffffffffffffffff021916908373ffffffffffffffffffffffffffffffffffffffff1602179055508173ffffffffffffffffffffffffffffffffffffffff168173ffffffffffffffffffffffffffffffffffffffff167f8be0079c531659141344cd1fd0a4f28419497f9722a3daafe3b4186f6b6457e060405160405180910390a35050565b5f80fd5b5f73ffffffffffffffffffffffffffffffffffffffff82169050919050565b5f61046182610438565b9050919050565b61047181610457565b811461047b575f80fd5b50565b5f8151905061048c81610468565b92915050565b5f805f80608085870312156104aa576104a9610434565b5b5f6104b78782880161047e565b94505060206104c88782880161047e565b93505060406104d98782880161047e565b92505060606104ea8782880161047e565b91505092959194509250565b6104ff81610457565b82525050565b5f6020820190506105185f8301846104f6565b92915050565b5f82825260208201905092915050565b7f496e76616c696420737461626c65636f696e20616464726573730000000000005f82015250565b5f610562601a8361051e565b915061056d8261052e565b602082019050919050565b5f6020820190508181035f83015261058f81610556565b9050919050565b7f496e76616c6964206342544320616464726573730000000000000000000000005f82015250565b5f6105ca60148361051e565b91506105d582610596565b602082019050919050565b5f6020820190508181035f8301526105f7816105be565b9050919050565b7f496e76616c69642061676772656761746f7220616464726573730000000000005f82015250565b5f610632601a8361051e565b915061063d826105fe565b602082019050919050565b5f6020820190508181035f83015261065f81610626565b9050919050565b7f496e76616c6964204445582061646472657373000000000000000000000000005f82015250565b5f61069a60138361051e565b91506106a582610666565b602082019050919050565b5f6020820190508181035f8301526106c78161068e565b9050919050565b611ce7806106db5f395ff3fe608060405234801561000f575f80fd5b50600436106100e8575f3560e01c8063715018a61161008a578063ad487f2311610064578063ad487f2314610225578063e5a5ef4f14610241578063f2fde38b1461025d578063ff0f7b7414610279576100e8565b8063715018a6146101df5780638da5cb5b146101e9578063992642e514610207576100e8565b8063245a7bfc116100c6578063245a7bfc1461016b5780634793f1d9146101895780635143fe12146101a5578063692058c2146101c1576100e8565b80630ae8c4dc146100ec578063194a7b8e1461010a578063200030221461013a575b5f80fd5b6100f4610295565b60405161010191906112bc565b60405180910390f35b610124600480360381019061011f919061130c565b6102ba565b604051610131919061134f565b60405180910390f35b610154600480360381019061014f919061130c565b6102cf565b6040516101629291906113a2565b60405180910390f35b61017361031a565b60405161018091906113e9565b60405180910390f35b6101a3600480360381019061019e919061142c565b61033f565b005b6101bf60048036038101906101ba919061142c565b610568565b005b6101c9610a39565b6040516101d6919061148a565b60405180910390f35b6101e7610a5e565b005b6101f1610a71565b6040516101fe91906114c3565b60405180910390f35b61020f610a98565b60405161021c91906114fc565b60405180910390f35b61023f600480360381019061023a919061130c565b610abd565b005b61025b6004803603810190610256919061153f565b610ce2565b005b610277600480360381019061027291906115a7565b610ede565b005b610293600480360381019061028e91906115fc565b610f62565b005b60045f9054906101000a900473ffffffffffffffffffffffffffffffffffffffff1681565b6002602052805f5260405f205f915090505481565b6001602052805f5260405f205f91509050805f015f9054906101000a900473ffffffffffffffffffffffffffffffffffffffff1690805f0160149054906101000a900460ff16905082565b60055f9054906101000a900473ffffffffffffffffffffffffffffffffffffffff1681565b5f60015f8481526020019081526020015f206040518060400160405290815f82015f9054906101000a900473ffffffffffffffffffffffffffffffffffffffff1673ffffffffffffffffffffffffffffffffffffffff1673ffffffffffffffffffffffffffffffffffffffff1681526020015f820160149054906101000a900460ff16151515158152505090508060200151610410576040517f08c379a0000000000000000000000000000000000000000000000000000000008152600401610407906116a6565b60405180910390fd5b60035f9054906101000a900473ffffffffffffffffffffffffffffffffffffffff1673ffffffffffffffffffffffffffffffffffffffff166323b872dd3330856040518463ffffffff1660e01b815260040161046e939291906116c4565b6020604051808303815f875af115801561048a573d5f803e3d5ffd5b505050506040513d601f19601f820116820180604052508101906104ae919061170d565b6104ed576040517f08c379a00000000000000000000000000000000000000000000000000000000081526004016104e490611782565b60405180910390fd5b8160025f8581526020019081526020015f205f82825461050d91906117cd565b925050819055503373ffffffffffffffffffffffffffffffffffffffff16837f3b5907c9aaeaeef015f385111975b015225e1001bf659370e62c15e13373bc6d8460405161055b919061134f565b60405180910390a3505050565b5f60015f8481526020019081526020015f206040518060400160405290815f82015f9054906101000a900473ffffffffffffffffffffffffffffffffffffffff1673ffffffffffffffffffffffffffffffffffffffff1673ffffffffffffffffffffffffffffffffffffffff1681526020015f820160149054906101000a900460ff16151515158152505090508060200151610639576040517f08c379a0000000000000000000000000000000000000000000000000000000008152600401610630906116a6565b60405180910390fd5b5f60055f9054906101000a900473ffffffffffffffffffffffffffffffffffffffff1673ffffffffffffffffffffffffffffffffffffffff1663adfe34f760045f9054906101000a900473ffffffffffffffffffffffffffffffffffffffff166040518263ffffffff1660e01b81526004016106b591906114c3565b602060405180830381865afa1580156106d0573d5f803e3d5ffd5b505050506040513d601f19601f820116820180604052508101906106f49190611814565b90505f8111610738576040517f08c379a000000000000000000000000000000000000000000000000000000000815260040161072f90611889565b60405180910390fd5b5f81670de0b6b3a76400008561074e91906118a7565b6107589190611915565b905060045f9054906101000a900473ffffffffffffffffffffffffffffffffffffffff1673ffffffffffffffffffffffffffffffffffffffff166323b872dd3330846040518463ffffffff1660e01b81526004016107b8939291906116c4565b6020604051808303815f875af11580156107d4573d5f803e3d5ffd5b505050506040513d601f19601f820116820180604052508101906107f8919061170d565b610837576040517f08c379a000000000000000000000000000000000000000000000000000000000815260040161082e90611782565b60405180910390fd5b60045f9054906101000a900473ffffffffffffffffffffffffffffffffffffffff1673ffffffffffffffffffffffffffffffffffffffff1663095ea7b360065f9054906101000a900473ffffffffffffffffffffffffffffffffffffffff16836040518363ffffffff1660e01b81526004016108b4929190611945565b6020604051808303815f875af11580156108d0573d5f803e3d5ffd5b505050506040513d601f19601f820116820180604052508101906108f4919061170d565b610933576040517f08c379a000000000000000000000000000000000000000000000000000000000815260040161092a906119b6565b60405180910390fd5b60065f9054906101000a900473ffffffffffffffffffffffffffffffffffffffff1673ffffffffffffffffffffffffffffffffffffffff16633a96d08682866040518363ffffffff1660e01b815260040161098f9291906119d4565b5f604051808303815f87803b1580156109a6575f80fd5b505af11580156109b8573d5f803e3d5ffd5b505050508360025f8781526020019081526020015f205f8282546109dc91906117cd565b925050819055503373ffffffffffffffffffffffffffffffffffffffff16857f3b5907c9aaeaeef015f385111975b015225e1001bf659370e62c15e13373bc6d86604051610a2a919061134f565b60405180910390a35050505050565b60065f9054906101000a900473ffffffffffffffffffffffffffffffffffffffff1681565b610a666110f3565b610a6f5f61117a565b565b5f805f9054906101000a900473ffffffffffffffffffffffffffffffffffffffff16905090565b60035f9054906101000a900473ffffffffffffffffffffffffffffffffffffffff1681565b610ac56110f3565b60015f8281526020019081526020015f205f0160149054906101000a900460ff16610b25576040517f08c379a0000000000000000000000000000000000000000000000000000000008152600401610b1c906116a6565b60405180910390fd5b5f60025f8381526020019081526020015f205490505f8111610b7c576040517f08c379a0000000000000000000000000000000000000000000000000000000008152600401610b7390611a45565b60405180910390fd5b5f60025f8481526020019081526020015f20819055505f60015f8481526020019081526020015f205f015f9054906101000a900473ffffffffffffffffffffffffffffffffffffffff16905060035f9054906101000a900473ffffffffffffffffffffffffffffffffffffffff1673ffffffffffffffffffffffffffffffffffffffff1663a9059cbb82846040518363ffffffff1660e01b8152600401610c24929190611a83565b6020604051808303815f875af1158015610c40573d5f803e3d5ffd5b505050506040513d601f19601f82011682018060405250810190610c64919061170d565b610ca3576040517f08c379a0000000000000000000000000000000000000000000000000000000008152600401610c9a90611782565b60405180910390fd5b827f195f245622abeb539754a2a6a6deb95e6b222cbf894d10cbffbebac70340e5878383604051610cd5929190611aaa565b60405180910390a2505050565b610cea6110f3565b5f801b8203610d2e576040517f08c379a0000000000000000000000000000000000000000000000000000000008152600401610d2590611b1b565b60405180910390fd5b5f73ffffffffffffffffffffffffffffffffffffffff168173ffffffffffffffffffffffffffffffffffffffff1603610d9c576040517f08c379a0000000000000000000000000000000000000000000000000000000008152600401610d9390611b83565b60405180910390fd5b60015f8381526020019081526020015f205f0160149054906101000a900460ff1615610dfd576040517f08c379a0000000000000000000000000000000000000000000000000000000008152600401610df490611beb565b60405180910390fd5b60405180604001604052808273ffffffffffffffffffffffffffffffffffffffff1681526020016001151581525060015f8481526020019081526020015f205f820151815f015f6101000a81548173ffffffffffffffffffffffffffffffffffffffff021916908373ffffffffffffffffffffffffffffffffffffffff1602179055506020820151815f0160146101000a81548160ff021916908315150217905550905050817f1108b573acb7954c6be9806cc3a17ed5864f50fa96ad4cbc9cd82fa63d42b9f782604051610ed29190611c09565b60405180910390a25050565b610ee66110f3565b5f73ffffffffffffffffffffffffffffffffffffffff168173ffffffffffffffffffffffffffffffffffffffff1603610f56575f6040517f1e4fbdf7000000000000000000000000000000000000000000000000000000008152600401610f4d91906114c3565b60405180910390fd5b610f5f8161117a565b50565b610f6a6110f3565b60015f8481526020019081526020015f205f0160149054906101000a900460ff16610fca576040517f08c379a0000000000000000000000000000000000000000000000000000000008152600401610fc190611c6c565b60405180910390fd5b5f73ffffffffffffffffffffffffffffffffffffffff168273ffffffffffffffffffffffffffffffffffffffff1603611038576040517f08c379a000000000000000000000000000000000000000000000000000000000815260040161102f90611b83565b60405180910390fd5b8160015f8581526020019081526020015f205f015f6101000a81548173ffffffffffffffffffffffffffffffffffffffff021916908373ffffffffffffffffffffffffffffffffffffffff1602179055508060015f8581526020019081526020015f205f0160146101000a81548160ff021916908315150217905550827f7dac21e92520eaedc798f2261da9eecebda327db2d8dff77c1aab26798dc25e883836040516110e6929190611c8a565b60405180910390a2505050565b6110fb61123b565b73ffffffffffffffffffffffffffffffffffffffff16611119610a71565b73ffffffffffffffffffffffffffffffffffffffff16146111785761113c61123b565b6040517f118cdaa700000000000000000000000000000000000000000000000000000000815260040161116f91906114c3565b60405180910390fd5b565b5f805f9054906101000a900473ffffffffffffffffffffffffffffffffffffffff169050815f806101000a81548173ffffffffffffffffffffffffffffffffffffffff021916908373ffffffffffffffffffffffffffffffffffffffff1602179055508173ffffffffffffffffffffffffffffffffffffffff168173ffffffffffffffffffffffffffffffffffffffff167f8be0079c531659141344cd1fd0a4f28419497f9722a3daafe3b4186f6b6457e060405160405180910390a35050565b5f33905090565b5f73ffffffffffffffffffffffffffffffffffffffff82169050919050565b5f819050919050565b5f61128461127f61127a84611242565b611261565b611242565b9050919050565b5f6112958261126a565b9050919050565b5f6112a68261128b565b9050919050565b6112b68161129c565b82525050565b5f6020820190506112cf5f8301846112ad565b92915050565b5f80fd5b5f819050919050565b6112eb816112d9565b81146112f5575f80fd5b50565b5f81359050611306816112e2565b92915050565b5f60208284031215611321576113206112d5565b5b5f61132e848285016112f8565b91505092915050565b5f819050919050565b61134981611337565b82525050565b5f6020820190506113625f830184611340565b92915050565b5f61137282611242565b9050919050565b61138281611368565b82525050565b5f8115159050919050565b61139c81611388565b82525050565b5f6040820190506113b55f830185611379565b6113c26020830184611393565b9392505050565b5f6113d38261128b565b9050919050565b6113e3816113c9565b82525050565b5f6020820190506113fc5f8301846113da565b92915050565b61140b81611337565b8114611415575f80fd5b50565b5f8135905061142681611402565b92915050565b5f8060408385031215611442576114416112d5565b5b5f61144f858286016112f8565b925050602061146085828601611418565b9150509250929050565b5f6114748261128b565b9050919050565b6114848161146a565b82525050565b5f60208201905061149d5f83018461147b565b92915050565b5f6114ad82611242565b9050919050565b6114bd816114a3565b82525050565b5f6020820190506114d65f8301846114b4565b92915050565b5f6114e68261128b565b9050919050565b6114f6816114dc565b82525050565b5f60208201905061150f5f8301846114ed565b92915050565b61151e81611368565b8114611528575f80fd5b50565b5f8135905061153981611515565b92915050565b5f8060408385031215611555576115546112d5565b5b5f611562858286016112f8565b92505060206115738582860161152b565b9150509250929050565b611586816114a3565b8114611590575f80fd5b50565b5f813590506115a18161157d565b92915050565b5f602082840312156115bc576115bb6112d5565b5b5f6115c984828501611593565b91505092915050565b6115db81611388565b81146115e5575f80fd5b50565b5f813590506115f6816115d2565b92915050565b5f805f60608486031215611613576116126112d5565b5b5f611620868287016112f8565b93505060206116318682870161152b565b9250506040611642868287016115e8565b9150509250925092565b5f82825260208201905092915050565b7f4d65726368616e74206e6f7420616374697665000000000000000000000000005f82015250565b5f61169060138361164c565b915061169b8261165c565b602082019050919050565b5f6020820190508181035f8301526116bd81611684565b9050919050565b5f6060820190506116d75f8301866114b4565b6116e460208301856114b4565b6116f16040830184611340565b949350505050565b5f81519050611707816115d2565b92915050565b5f60208284031215611722576117216112d5565b5b5f61172f848285016116f9565b91505092915050565b7f5472616e73666572206661696c656400000000000000000000000000000000005f82015250565b5f61176c600f8361164c565b915061177782611738565b602082019050919050565b5f6020820190508181035f83015261179981611760565b9050919050565b7f4e487b71000000000000000000000000000000000000000000000000000000005f52601160045260245ffd5b5f6117d782611337565b91506117e283611337565b92508282019050808211156117fa576117f96117a0565b5b92915050565b5f8151905061180e81611402565b92915050565b5f60208284031215611829576118286112d5565b5b5f61183684828501611800565b91505092915050565b7f496e76616c6964207072696365000000000000000000000000000000000000005f82015250565b5f611873600d8361164c565b915061187e8261183f565b602082019050919050565b5f6020820190508181035f8301526118a081611867565b9050919050565b5f6118b182611337565b91506118bc83611337565b92508282026118ca81611337565b915082820484148315176118e1576118e06117a0565b5b5092915050565b7f4e487b71000000000000000000000000000000000000000000000000000000005f52601260045260245ffd5b5f61191f82611337565b915061192a83611337565b92508261193a576119396118e8565b5b828204905092915050565b5f6040820190506119585f8301856114b4565b6119656020830184611340565b9392505050565b7f6342544320617070726f7665206661696c6564000000000000000000000000005f82015250565b5f6119a060138361164c565b91506119ab8261196c565b602082019050919050565b5f6020820190508181035f8301526119cd81611994565b9050919050565b5f6040820190506119e75f830185611340565b6119f46020830184611340565b9392505050565b7f4e6f2062616c616e636520746f207769746864726177000000000000000000005f82015250565b5f611a2f60168361164c565b9150611a3a826119fb565b602082019050919050565b5f6020820190508181035f830152611a5c81611a23565b9050919050565b5f611a6d8261128b565b9050919050565b611a7d81611a63565b82525050565b5f604082019050611a965f830185611a74565b611aa36020830184611340565b9392505050565b5f604082019050611abd5f830185611340565b611aca6020830184611a74565b9392505050565b7f496e76616c6964206d65726368616e74496400000000000000000000000000005f82015250565b5f611b0560128361164c565b9150611b1082611ad1565b602082019050919050565b5f6020820190508181035f830152611b3281611af9565b9050919050565b7f496e76616c6964207061796f75742061646472657373000000000000000000005f82015250565b5f611b6d60168361164c565b9150611b7882611b39565b602082019050919050565b5f6020820190508181035f830152611b9a81611b61565b9050919050565b7f4d65726368616e7420616c7265616479207265676973746572656400000000005f82015250565b5f611bd5601b8361164c565b9150611be082611ba1565b602082019050919050565b5f6020820190508181035f830152611c0281611bc9565b9050919050565b5f602082019050611c1c5f830184611a74565b92915050565b7f4d65726368616e74206e6f7420726567697374657265640000000000000000005f82015250565b5f611c5660178361164c565b9150611c6182611c22565b602082019050919050565b5f6020820190508181035f830152611c8381611c4a565b9050919050565b5f604082019050611c9d5f830185611a74565b611caa6020830184611393565b939250505056fea26469706673582212207df806cf04ca5ff70c12db778cacc67538042d5114accee73c828b0c7fa873b364736f6c634300081a0033",
					"opcodes": "PUSH1 0x80 PUSH1 0x40 MSTORE CALLVALUE DUP1 ISZERO PUSH2 0xF JUMPI PUSH0 DUP1 REVERT JUMPDEST POP PUSH1 0x40 MLOAD PUSH2 0x23C2 CODESIZE SUB DUP1 PUSH2 0x23C2 DUP4 CODECOPY DUP2 DUP2 ADD PUSH1 0x40 MSTORE DUP2 ADD SWAP1 PUSH2 0x31 SWAP2 SWAP1 PUSH2 0x492 JUMP JUMPDEST CALLER PUSH0 PUSH20 0xFFFFFFFFFFFFFFFFFFFFFFFFFFFFFFFFFFFFFFFF AND DUP2 PUSH20 0xFFFFFFFFFFFFFFFFFFFFFFFFFFFFFFFFFFFFFFFF AND SUB PUSH2 0xA2 JUMPI PUSH0 PUSH1 0x40 MLOAD PUSH32 0x1E4FBDF700000000000000000000000000000000000000000000000000000000 DUP2 MSTORE PUSH1 0x4 ADD PUSH2 0x99 SWAP2 SWAP1 PUSH2 0x505 JUMP JUMPDEST PUSH1 0x40 MLOAD DUP1 SWAP2 SUB SWAP1 REVERT JUMPDEST PUSH2 0xB1 DUP2 PUSH2 0x373 PUSH1 0x20 SHL PUSH1 0x20 SHR JUMP JUMPDEST POP PUSH0 PUSH20 0xFFFFFFFFFFFFFFFFFFFFFFFFFFFFFFFFFFFFFFFF AND DUP5 PUSH20 0xFFFFFFFFFFFFFFFFFFFFFFFFFFFFFFFFFFFFFFFF AND SUB PUSH2 0x120 JUMPI PUSH1 0x40 MLOAD PUSH32 0x8C379A000000000000000000000000000000000000000000000000000000000 DUP2 MSTORE PUSH1 0x4 ADD PUSH2 0x117 SWAP1 PUSH2 0x578 JUMP JUMPDEST PUSH1 0x40 MLOAD DUP1 SWAP2 SUB SWAP1 REVERT JUMPDEST PUSH0 PUSH20 0xFFFFFFFFFFFFFFFFFFFFFFFFFFFFFFFFFFFFFFFF AND DUP4 PUSH20 0xFFFFFFFFFFFFFFFFFFFFFFFFFFFFFFFFFFFFFFFF AND SUB PUSH2 0x18E JUMPI PUSH1 0x40 MLOAD PUSH32 0x8C379A000000000000000000000000000000000000000000000000000000000 DUP2 MSTORE PUSH1 0x4 ADD PUSH2 0x185 SWAP1 PUSH2 0x5E0 JUMP JUMPDEST PUSH1 0x40 MLOAD DUP1 SWAP2 SUB SWAP1 REVERT JUMPDEST PUSH0 PUSH20 0xFFFFFFFFFFFFFFFFFFFFFFFFFFFFFFFFFFFFFFFF AND DUP3 PUSH20 0xFFFFFFFFFFFFFFFFFFFFFFFFFFFFFFFFFFFFFFFF AND SUB PUSH2 0x1FC JUMPI PUSH1 0x40 MLOAD PUSH32 0x8C379A000000000000000000000000000000000000000000000000000000000 DUP2 MSTORE PUSH1 0x4 ADD PUSH2 0x1F3 SWAP1 PUSH2 0x648 JUMP JUMPDEST PUSH1 0x40 MLOAD DUP1 SWAP2 SUB SWAP1 REVERT JUMPDEST PUSH0 PUSH20 0xFFFFFFFFFFFFFFFFFFFFFFFFFFFFFFFFFFFFFFFF AND DUP2 PUSH20 0xFFFFFFFFFFFFFFFFFFFFFFFFFFFFFFFFFFFFFFFF AND SUB PUSH2 0x26A JUMPI PUSH1 0x40 MLOAD PUSH32 0x8C379A000000000000000000000000000000000000000000000000000000000 DUP2 MSTORE PUSH1 0x4 ADD PUSH2 0x261 SWAP1 PUSH2 0x6B0 JUMP JUMPDEST PUSH1 0x40 MLOAD DUP1 SWAP2 SUB SWAP1 REVERT JUMPDEST DUP4 PUSH1 0x3 PUSH0 PUSH2 0x100 EXP DUP2 SLOAD DUP2 PUSH20 0xFFFFFFFFFFFFFFFFFFFFFFFFFFFFFFFFFFFFFFFF MUL NOT AND SWAP1 DUP4 PUSH20 0xFFFFFFFFFFFFFFFFFFFFFFFFFFFFFFFFFFFFFFFF AND MUL OR SWAP1 SSTORE POP DUP3 PUSH1 0x4 PUSH0 PUSH2 0x100 EXP DUP2 SLOAD DUP2 PUSH20 0xFFFFFFFFFFFFFFFFFFFFFFFFFFFFFFFFFFFFFFFF MUL NOT AND SWAP1 DUP4 PUSH20 0xFFFFFFFFFFFFFFFFFFFFFFFFFFFFFFFFFFFFFFFF AND MUL OR SWAP1 SSTORE POP DUP2 PUSH1 0x5 PUSH0 PUSH2 0x100 EXP DUP2 SLOAD DUP2 PUSH20 0xFFFFFFFFFFFFFFFFFFFFFFFFFFFFFFFFFFFFFFFF MUL NOT AND SWAP1 DUP4 PUSH20 0xFFFFFFFFFFFFFFFFFFFFFFFFFFFFFFFFFFFFFFFF AND MUL OR SWAP1 SSTORE POP DUP1 PUSH1 0x6 PUSH0 PUSH2 0x100 EXP DUP2 SLOAD DUP2 PUSH20 0xFFFFFFFFFFFFFFFFFFFFFFFFFFFFFFFFFFFFFFFF MUL NOT AND SWAP1 DUP4 PUSH20 0xFFFFFFFFFFFFFFFFFFFFFFFFFFFFFFFFFFFFFFFF AND MUL OR SWAP1 SSTORE POP POP POP POP POP PUSH2 0x6CE JUMP JUMPDEST PUSH0 DUP1 PUSH0 SWAP1 SLOAD SWAP1 PUSH2 0x100 EXP SWAP1 DIV PUSH20 0xFFFFFFFFFFFFFFFFFFFFFFFFFFFFFFFFFFFFFFFF AND SWAP1 POP DUP2 PUSH0 DUP1 PUSH2 0x100 EXP DUP2 SLOAD DUP2 PUSH20 0xFFFFFFFFFFFFFFFFFFFFFFFFFFFFFFFFFFFFFFFF MUL NOT AND SWAP1 DUP4 PUSH20 0xFFFFFFFFFFFFFFFFFFFFFFFFFFFFFFFFFFFFFFFF AND MUL OR SWAP1 SSTORE POP DUP2 PUSH20 0xFFFFFFFFFFFFFFFFFFFFFFFFFFFFFFFFFFFFFFFF AND DUP2 PUSH20 0xFFFFFFFFFFFFFFFFFFFFFFFFFFFFFFFFFFFFFFFF AND PUSH32 0x8BE0079C531659141344CD1FD0A4F28419497F9722A3DAAFE3B4186F6B6457E0 PUSH1 0x40 MLOAD PUSH1 0x40 MLOAD DUP1 SWAP2 SUB SWAP1 LOG3 POP POP JUMP JUMPDEST PUSH0 DUP1 REVERT JUMPDEST PUSH0 PUSH20 0xFFFFFFFFFFFFFFFFFFFFFFFFFFFFFFFFFFFFFFFF DUP3 AND SWAP1 POP SWAP2 SWAP1 POP JUMP JUMPDEST PUSH0 PUSH2 0x461 DUP3 PUSH2 0x438 JUMP JUMPDEST SWAP1 POP SWAP2 SWAP1 POP JUMP JUMPDEST PUSH2 0x471 DUP2 PUSH2 0x457 JUMP JUMPDEST DUP2 EQ PUSH2 0x47B JUMPI PUSH0 DUP1 REVERT JUMPDEST POP JUMP JUMPDEST PUSH0 DUP2 MLOAD SWAP1 POP PUSH2 0x48C DUP2 PUSH2 0x468 JUMP JUMPDEST SWAP3 SWAP2 POP POP JUMP JUMPDEST PUSH0 DUP1 PUSH0 DUP1 PUSH1 0x80 DUP6 DUP8 SUB SLT ISZERO PUSH2 0x4AA JUMPI PUSH2 0x4A9 PUSH2 0x434 JUMP JUMPDEST JUMPDEST PUSH0 PUSH2 0x4B7 DUP8 DUP3 DUP9 ADD PUSH2 0x47E JUMP JUMPDEST SWAP5 POP POP PUSH1 0x20 PUSH2 0x4C8 DUP8 DUP3 DUP9 ADD PUSH2 0x47E JUMP JUMPDEST SWAP4 POP POP PUSH1 0x40 PUSH2 0x4D9 DUP8 DUP3 DUP9 ADD PUSH2 0x47E JUMP JUMPDEST SWAP3 POP POP PUSH1 0x60 PUSH2 0x4EA DUP8 DUP3 DUP9 ADD PUSH2 0x47E JUMP JUMPDEST SWAP2 POP POP SWAP3 SWAP6 SWAP2 SWAP5 POP SWAP3 POP JUMP JUMPDEST PUSH2 0x4FF DUP2 PUSH2 0x457 JUMP JUMPDEST DUP3 MSTORE POP POP JUMP JUMPDEST PUSH0 PUSH1 0x20 DUP3 ADD SWAP1 POP PUSH2 0x518 PUSH0 DUP4 ADD DUP5 PUSH2 0x4F6 JUMP JUMPDEST SWAP3 SWAP2 POP POP JUMP JUMPDEST PUSH0 DUP3 DUP3 MSTORE PUSH1 0x20 DUP3 ADD SWAP1 POP SWAP3 SWAP2 POP POP JUMP JUMPDEST PUSH32 0x496E76616C696420737461626C65636F696E2061646472657373000000000000 PUSH0 DUP3 ADD MSTORE POP JUMP JUMPDEST PUSH0 PUSH2 0x562 PUSH1 0x1A DUP4 PUSH2 0x51E JUMP JUMPDEST SWAP2 POP PUSH2 0x56D DUP3 PUSH2 0x52E JUMP JUMPDEST PUSH1 0x20 DUP3 ADD SWAP1 POP SWAP2 SWAP1 POP JUMP JUMPDEST PUSH0 PUSH1 0x20 DUP3 ADD SWAP1 POP DUP2 DUP2 SUB PUSH0 DUP4 ADD MSTORE PUSH2 0x58F DUP2 PUSH2 0x556 JUMP JUMPDEST SWAP1 POP SWAP2 SWAP1 POP JUMP JUMPDEST PUSH32 0x496E76616C696420634254432061646472657373000000000000000000000000 PUSH0 DUP3 ADD MSTORE POP JUMP JUMPDEST PUSH0 PUSH2 0x5CA PUSH1 0x14 DUP4 PUSH2 0x51E JUMP JUMPDEST SWAP2 POP PUSH2 0x5D5 DUP3 PUSH2 0x596 JUMP JUMPDEST PUSH1 0x20 DUP3 ADD SWAP1 POP SWAP2 SWAP1 POP JUMP JUMPDEST PUSH0 PUSH1 0x20 DUP3 ADD SWAP1 POP DUP2 DUP2 SUB PUSH0 DUP4 ADD MSTORE PUSH2 0x5F7 DUP2 PUSH2 0x5BE JUMP JUMPDEST SWAP1 POP SWAP2 SWAP1 POP JUMP JUMPDEST PUSH32 0x496E76616C69642061676772656761746F722061646472657373000000000000 PUSH0 DUP3 ADD MSTORE POP JUMP JUMPDEST PUSH0 PUSH2 0x632 PUSH1 0x1A DUP4 PUSH2 0x51E JUMP JUMPDEST SWAP2 POP PUSH2 0x63D DUP3 PUSH2 0x5FE JUMP JUMPDEST PUSH1 0x20 DUP3 ADD SWAP1 POP SWAP2 SWAP1 POP JUMP JUMPDEST PUSH0 PUSH1 0x20 DUP3 ADD SWAP1 POP DUP2 DUP2 SUB PUSH0 DUP4 ADD MSTORE PUSH2 0x65F DUP2 PUSH2 0x626 JUMP JUMPDEST SWAP1 POP SWAP2 SWAP1 POP JUMP JUMPDEST PUSH32 0x496E76616C696420444558206164647265737300000000000000000000000000 PUSH0 DUP3 ADD MSTORE POP JUMP JUMPDEST PUSH0 PUSH2 0x69A PUSH1 0x13 DUP4 PUSH2 0x51E JUMP JUMPDEST SWAP2 POP PUSH2 0x6A5 DUP3 PUSH2 0x666 JUMP JUMPDEST PUSH1 0x20 DUP3 ADD SWAP1 POP SWAP2 SWAP1 POP JUMP JUMPDEST PUSH0 PUSH1 0x20 DUP3 ADD SWAP1 POP DUP2 DUP2 SUB PUSH0 DUP4 ADD MSTORE PUSH2 0x6C7 DUP2 PUSH2 0x68E JUMP JUMPDEST SWAP1 POP SWAP2 SWAP1 POP JUMP JUMPDEST PUSH2 0x1CE7 DUP1 PUSH2 0x6DB PUSH0 CODECOPY PUSH0 RETURN INVALID PUSH1 0x80 PUSH1 0x40 MSTORE CALLVALUE DUP1 ISZERO PUSH2 0xF JUMPI PUSH0 DUP1 REVERT JUMPDEST POP PUSH1 0x4 CALLDATASIZE LT PUSH2 0xE8 JUMPI PUSH0 CALLDATALOAD PUSH1 0xE0 SHR DUP1 PUSH4 0x715018A6 GT PUSH2 0x8A JUMPI DUP1 PUSH4 0xAD487F23 GT PUSH2 0x64 JUMPI DUP1 PUSH4 0xAD487F23 EQ PUSH2 0x225 JUMPI DUP1 PUSH4 0xE5A5EF4F EQ PUSH2 0x241 JUMPI DUP1 PUSH4 0xF2FDE38B EQ PUSH2 0x25D JUMPI DUP1 PUSH4 0xFF0F7B74 EQ PUSH2 0x279 JUMPI PUSH2 0xE8 JUMP JUMPDEST DUP1 PUSH4 0x715018A6 EQ PUSH2 0x1DF JUMPI DUP1 PUSH4 0x8DA5CB5B EQ PUSH2 0x1E9 JUMPI DUP1 PUSH4 0x992642E5 EQ PUSH2 0x207 JUMPI PUSH2 0xE8 JUMP JUMPDEST DUP1 PUSH4 0x245A7BFC GT PUSH2 0xC6 JUMPI DUP1 PUSH4 0x245A7BFC EQ PUSH2 0x16B JUMPI DUP1 PUSH4 0x4793F1D9 EQ PUSH2 0x189 JUMPI DUP1 PUSH4 0x5143FE12 EQ PUSH2 0x1A5 JUMPI DUP1 PUSH4 0x692058C2 EQ PUSH2 0x1C1 JUMPI PUSH2 0xE8 JUMP JUMPDEST DUP1 PUSH4 0xAE8C4DC EQ PUSH2 0xEC JUMPI DUP1 PUSH4 0x194A7B8E EQ PUSH2 0x10A JUMPI DUP1 PUSH4 0x20003022 EQ PUSH2 0x13A JUMPI JUMPDEST PUSH0 DUP1 REVERT JUMPDEST PUSH2 0xF4 PUSH2 0x295 JUMP JUMPDEST PUSH1 0x40 MLOAD PUSH2 0x101 SWAP2 SWAP1 PUSH2 0x12BC JUMP JUMPDEST PUSH1 0x40 MLOAD DUP1 SWAP2 SUB SWAP1 RETURN JUMPDEST PUSH2 0x124 PUSH1 0x4 DUP1 CALLDATASIZE SUB DUP2 ADD SWAP1 PUSH2 0x11F SWAP2 SWAP1 PUSH2 0x130C JUMP JUMPDEST PUSH2 0x2BA JUMP JUMPDEST PUSH1 0x40 MLOAD PUSH2 0x131 SWAP2 SWAP1 PUSH2 0x134F JUMP JUMPDEST PUSH1 0x40 MLOAD DUP1 SWAP2 SUB SWAP1 RETURN JUMPDEST PUSH2 0x154 PUSH1 0x4 DUP1 CALLDATASIZE SUB DUP2 ADD SWAP1 PUSH2 0x14F SWAP2 SWAP1 PUSH2 0x130C JUMP JUMPDEST PUSH2 0x2CF JUMP JUMPDEST PUSH1 0x40 MLOAD PUSH2 0x162 SWAP3 SWAP2 SWAP1 PUSH2 0x13A2 JUMP JUMPDEST PUSH1 0x40 MLOAD DUP1 SWAP2 SUB SWAP1 RETURN JUMPDEST PUSH2 0x173 PUSH2 0x31A JUMP JUMPDEST PUSH1 0x40 MLOAD PUSH2 0x180 SWAP2 SWAP1 PUSH2 0x13E9 JUMP JUMPDEST PUSH1 0x40 MLOAD DUP1 SWAP2 SUB SWAP1 RETURN JUMPDEST PUSH2 0x1A3 PUSH1 0x4 DUP1 CALLDATASIZE SUB DUP2 ADD SWAP1 PUSH2 0x19E SWAP2 SWAP1 PUSH2 0x142C JUMP JUMPDEST PUSH2 0x33F JUMP JUMPDEST STOP JUMPDEST PUSH2 0x1BF PUSH1 0x4 DUP1 CALLDATASIZE SUB DUP2 ADD SWAP1 PUSH2 0x1BA SWAP2 SWAP1 PUSH2 0x142C JUMP JUMPDEST PUSH2 0x568 JUMP JUMPDEST STOP JUMPDEST PUSH2 0x1C9 PUSH2 0xA39 JUMP JUMPDEST PUSH1 0x40 MLOAD PUSH2 0x1D6 SWAP2 SWAP1 PUSH2 0x148A JUMP JUMPDEST PUSH1 0x40 MLOAD DUP1 SWAP2 SUB SWAP1 RETURN JUMPDEST PUSH2 0x1E7 PUSH2 0xA5E JUMP JUMPDEST STOP JUMPDEST PUSH2 0x1F1 PUSH2 0xA71 JUMP JUMPDEST PUSH1 0x40 MLOAD PUSH2 0x1FE SWAP2 SWAP1 PUSH2 0x14C3 JUMP JUMPDEST PUSH1 0x40 MLOAD DUP1 SWAP2 SUB SWAP1 RETURN JUMPDEST PUSH2 0x20F PUSH2 0xA98 JUMP JUMPDEST PUSH1 0x40 MLOAD PUSH2 0x21C SWAP2 SWAP1 PUSH2 0x14FC JUMP JUMPDEST PUSH1 0x40 MLOAD DUP1 SWAP2 SUB SWAP1 RETURN JUMPDEST PUSH2 0x23F PUSH1 0x4 DUP1 CALLDATASIZE SUB DUP2 ADD SWAP1 PUSH2 0x23A SWAP2 SWAP1 PUSH2 0x130C JUMP JUMPDEST PUSH2 0xABD JUMP JUMPDEST STOP JUMPDEST PUSH2 0x25B PUSH1 0x4 DUP1 CALLDATASIZE SUB DUP2 ADD SWAP1 PUSH2 0x256 SWAP2 SWAP1 PUSH2 0x153F JUMP JUMPDEST PUSH2 0xCE2 JUMP JUMPDEST STOP JUMPDEST PUSH2 0x277 PUSH1 0x4 DUP1 CALLDATASIZE SUB DUP2 ADD SWAP1 PUSH2 0x272 SWAP2 SWAP1 PUSH2 0x15A7 JUMP JUMPDEST PUSH2 0xEDE JUMP JUMPDEST STOP JUMPDEST PUSH2 0x293 PUSH1 0x4 DUP1 CALLDATASIZE SUB DUP2 ADD SWAP1 PUSH2 0x28E SWAP2 SWAP1 PUSH2 0x15FC JUMP JUMPDEST PUSH2 0xF62 JUMP JUMPDEST STOP JUMPDEST PUSH1 0x4 PUSH0 SWAP1 SLOAD SWAP1 PUSH2 0x100 EXP SWAP1 DIV PUSH20 0xFFFFFFFFFFFFFFFFFFFFFFFFFFFFFFFFFFFFFFFF AND DUP2 JUMP JUMPDEST PUSH1 0x2 PUSH1 0x20 MSTORE DUP1 PUSH0 MSTORE PUSH1 0x40 PUSH0 KECCAK256 PUSH0 SWAP2 POP SWAP1 POP SLOAD DUP2 JUMP JUMPDEST PUSH1 0x1 PUSH1 0x20 MSTORE DUP1 PUSH0 MSTORE PUSH1 0x40 PUSH0 KECCAK256 PUSH0 SWAP2 POP SWAP1 POP DUP1 PUSH0 ADD PUSH0 SWAP1 SLOAD SWAP1 PUSH2 0x100 EXP SWAP1 DIV PUSH20 0xFFFFFFFFFFFFFFFFFFFFFFFFFFFFFFFFFFFFFFFF AND SWAP1 DUP1 PUSH0 ADD PUSH1 0x14 SWAP1 SLOAD SWAP1 PUSH2 0x100 EXP SWAP1 DIV PUSH1 0xFF AND SWAP1 POP DUP3 JUMP JUMPDEST PUSH1 0x5 PUSH0 SWAP1 SLOAD SWAP1 PUSH2 0x100 EXP SWAP1 DIV PUSH20 0xFFFFFFFFFFFFFFFFFFFFFFFFFFFFFFFFFFFFFFFF AND DUP2 JUMP JUMPDEST PUSH0 PUSH1 0x1 PUSH0 DUP5 DUP2 MSTORE PUSH1 0x20 ADD SWAP1 DUP2 MSTORE PUSH1 0x20 ADD PUSH0 KECCAK256 PUSH1 0x40 MLOAD DUP1 PUSH1 0x40 ADD PUSH1 0x40 MSTORE SWAP1 DUP2 PUSH0 DUP3 ADD PUSH0 SWAP1 SLOAD SWAP1 PUSH2 0x100 EXP SWAP1 DIV PUSH20 0xFFFFFFFFFFFFFFFFFFFFFFFFFFFFFFFFFFFFFFFF AND PUSH20 0xFFFFFFFFFFFFFFFFFFFFFFFFFFFFFFFFFFFFFFFF AND PUSH20 0xFFFFFFFFFFFFFFFFFFFFFFFFFFFFFFFFFFFFFFFF AND DUP2 MSTORE PUSH1 0x20 ADD PUSH0 DUP3 ADD PUSH1 0x14 SWAP1 SLOAD SWAP1 PUSH2 0x100 EXP SWAP1 DIV PUSH1 0xFF AND ISZERO ISZERO ISZERO ISZERO DUP2 MSTORE POP POP SWAP1 POP DUP1 PUSH1 0x20 ADD MLOAD PUSH2 0x410 JUMPI PUSH1 0x40 MLOAD PUSH32 0x8C379A000000000000000000000000000000000000000000000000000000000 DUP2 MSTORE PUSH1 0x4 ADD PUSH2 0x407 SWAP1 PUSH2 0x16A6 JUMP JUMPDEST PUSH1 0x40 MLOAD DUP1 SWAP2 SUB SWAP1 REVERT JUMPDEST PUSH1 0x3 PUSH0 SWAP1 SLOAD SWAP1 PUSH2 0x100 EXP SWAP1 DIV PUSH20 0xFFFFFFFFFFFFFFFFFFFFFFFFFFFFFFFFFFFFFFFF AND PUSH20 0xFFFFFFFFFFFFFFFFFFFFFFFFFFFFFFFFFFFFFFFF AND PUSH4 0x23B872DD CALLER ADDRESS DUP6 PUSH1 0x40 MLOAD DUP5 PUSH4 0xFFFFFFFF AND PUSH1 0xE0 SHL DUP2 MSTORE PUSH1 0x4 ADD PUSH2 0x46E SWAP4 SWAP3 SWAP2 SWAP1 PUSH2 0x16C4 JUMP JUMPDEST PUSH1 0x20 PUSH1 0x40 MLOAD DUP1 DUP4 SUB DUP2 PUSH0 DUP8 GAS CALL ISZERO DUP1 ISZERO PUSH2 0x48A JUMPI RETURNDATASIZE PUSH0 DUP1 RETURNDATACOPY RETURNDATASIZE PUSH0 REVERT JUMPDEST POP POP POP POP PUSH1 0x40 MLOAD RETURNDATASIZE PUSH1 0x1F NOT PUSH1 0x1F DUP3 ADD AND DUP3 ADD DUP1 PUSH1 0x40 MSTORE POP DUP2 ADD SWAP1 PUSH2 0x4AE SWAP2 SWAP1 PUSH2 0x170D JUMP JUMPDEST PUSH2 0x4ED JUMPI PUSH1 0x40 MLOAD PUSH32 0x8C379A000000000000000000000000000000000000000000000000000000000 DUP2 MSTORE PUSH1 0x4 ADD PUSH2 0x4E4 SWAP1 PUSH2 0x1782 JUMP JUMPDEST PUSH1 0x40 MLOAD DUP1 SWAP2 SUB SWAP1 REVERT JUMPDEST DUP2 PUSH1 0x2 PUSH0 DUP6 DUP2 MSTORE PUSH1 0x20 ADD SWAP1 DUP2 MSTORE PUSH1 0x20 ADD PUSH0 KECCAK256 PUSH0 DUP3 DUP3 SLOAD PUSH2 0x50D SWAP2 SWAP1 PUSH2 0x17CD JUMP JUMPDEST SWAP3 POP POP DUP2 SWAP1 SSTORE POP CALLER PUSH20 0xFFFFFFFFFFFFFFFFFFFFFFFFFFFFFFFFFFFFFFFF AND DUP4 PUSH32 0x3B5907C9AAEAEEF015F385111975B015225E1001BF659370E62C15E13373BC6D DUP5 PUSH1 0x40 MLOAD PUSH2 0x55B SWAP2 SWAP1 PUSH2 0x134F JUMP JUMPDEST PUSH1 0x40 MLOAD DUP1 SWAP2 SUB SWAP1 LOG3 POP POP POP JUMP JUMPDEST PUSH0 PUSH1 0x1 PUSH0 DUP5 DUP2 MSTORE PUSH1 0x20 ADD SWAP1 DUP2 MSTORE PUSH1 0x20 ADD PUSH0 KECCAK256 PUSH1 0x40 MLOAD DUP1 PUSH1 0x40 ADD PUSH1 0x40 MSTORE SWAP1 DUP2 PUSH0 DUP3 ADD PUSH0 SWAP1 SLOAD SWAP1 PUSH2 0x100 EXP SWAP1 DIV PUSH20 0xFFFFFFFFFFFFFFFFFFFFFFFFFFFFFFFFFFFFFFFF AND PUSH20 0xFFFFFFFFFFFFFFFFFFFFFFFFFFFFFFFFFFFFFFFF AND PUSH20 0xFFFFFFFFFFFFFFFFFFFFFFFFFFFFFFFFFFFFFFFF AND DUP2 MSTORE PUSH1 0x20 ADD PUSH0 DUP3 ADD PUSH1 0x14 SWAP1 SLOAD SWAP1 PUSH2 0x100 EXP SWAP1 DIV PUSH1 0xFF AND ISZERO ISZERO ISZERO ISZERO DUP2 MSTORE POP POP SWAP1 POP DUP1 PUSH1 0x20 ADD MLOAD PUSH2 0x639 JUMPI PUSH1 0x40 MLOAD PUSH32 0x8C379A000000000000000000000000000000000000000000000000000000000 DUP2 MSTORE PUSH1 0x4 ADD PUSH2 0x630 SWAP1 PUSH2 0x16A6 JUMP JUMPDEST PUSH1 0x40 MLOAD DUP1 SWAP2 SUB SWAP1 REVERT JUMPDEST PUSH0 PUSH1 0x5 PUSH0 SWAP1 SLOAD SWAP1 PUSH2 0x100 EXP SWAP1 DIV PUSH20 0xFFFFFFFFFFFFFFFFFFFFFFFFFFFFFFFFFFFFFFFF AND PUSH20 0xFFFFFFFFFFFFFFFFFFFFFFFFFFFFFFFFFFFFFFFF AND PUSH4 0xADFE34F7 PUSH1 0x4 PUSH0 SWAP1 SLOAD SWAP1 PUSH2 0x100 EXP SWAP1 DIV PUSH20 0xFFFFFFFFFFFFFFFFFFFFFFFFFFFFFFFFFFFFFFFF AND PUSH1 0x40 MLOAD DUP3 PUSH4 0xFFFFFFFF AND PUSH1 0xE0 SHL DUP2 MSTORE PUSH1 0x4 ADD PUSH2 0x6B5 SWAP2 SWAP1 PUSH2 0x14C3 JUMP JUMPDEST PUSH1 0x20 PUSH1 0x40 MLOAD DUP1 DUP4 SUB DUP2 DUP7 GAS STATICCALL ISZERO DUP1 ISZERO PUSH2 0x6D0 JUMPI RETURNDATASIZE PUSH0 DUP1 RETURNDATACOPY RETURNDATASIZE PUSH0 REVERT JUMPDEST POP POP POP POP PUSH1 0x40 MLOAD RETURNDATASIZE PUSH1 0x1F NOT PUSH1 0x1F DUP3 ADD AND DUP3 ADD DUP1 PUSH1 0x40 MSTORE POP DUP2 ADD SWAP1 PUSH2 0x6F4 SWAP2 SWAP1 PUSH2 0x1814 JUMP JUMPDEST SWAP1 POP PUSH0 DUP2 GT PUSH2 0x738 JUMPI PUSH1 0x40 MLOAD PUSH32 0x8C379A000000000000000000000000000000000000000000000000000000000 DUP2 MSTORE PUSH1 0x4 ADD PUSH2 0x72F SWAP1 PUSH2 0x1889 JUMP JUMPDEST PUSH1 0x40 MLOAD DUP1 SWAP2 SUB SWAP1 REVERT JUMPDEST PUSH0 DUP2 PUSH8 0xDE0B6B3A7640000 DUP6 PUSH2 0x74E SWAP2 SWAP1 PUSH2 0x18A7 JUMP JUMPDEST PUSH2 0x758 SWAP2 SWAP1 PUSH2 0x1915 JUMP JUMPDEST SWAP1 POP PUSH1 0x4 PUSH0 SWAP1 SLOAD SWAP1 PUSH2 0x100 EXP SWAP1 DIV PUSH20 0xFFFFFFFFFFFFFFFFFFFFFFFFFFFFFFFFFFFFFFFF AND PUSH20 0xFFFFFFFFFFFFFFFFFFFFFFFFFFFFFFFFFFFFFFFF AND PUSH4 0x23B872DD CALLER ADDRESS DUP5 PUSH1 0x40 MLOAD DUP5 PUSH4 0xFFFFFFFF AND PUSH1 0xE0 SHL DUP2 MSTORE PUSH1 0x4 ADD PUSH2 0x7B8 SWAP4 SWAP3 SWAP2 SWAP1 PUSH2 0x16C4 JUMP JUMPDEST PUSH1 0x20 PUSH1 0x40 MLOAD DUP1 DUP4 SUB DUP2 PUSH0 DUP8 GAS CALL ISZERO DUP1 ISZERO PUSH2 0x7D4 JUMPI RETURNDATASIZE PUSH0 DUP1 RETURNDATACOPY RETURNDATASIZE PUSH0 REVERT JUMPDEST POP POP POP POP PUSH1 0x40 MLOAD RETURNDATASIZE PUSH1 0x1F NOT PUSH1 0x1F DUP3 ADD AND DUP3 ADD DUP1 PUSH1 0x40 MSTORE POP DUP2 ADD SWAP1 PUSH2 0x7F8 SWAP2 SWAP1 PUSH2 0x170D JUMP JUMPDEST PUSH2 0x837 JUMPI PUSH1 0x40 MLOAD PUSH32 0x8C379A000000000000000000000000000000000000000000000000000000000 DUP2 MSTORE PUSH1 0x4 ADD PUSH2 0x82E SWAP1 PUSH2 0x1782 JUMP JUMPDEST PUSH1 0x40 MLOAD DUP1 SWAP2 SUB SWAP1 REVERT JUMPDEST PUSH1 0x4 PUSH0 SWAP1 SLOAD SWAP1 PUSH2 0x100 EXP SWAP1 DIV PUSH20 0xFFFFFFFFFFFFFFFFFFFFFFFFFFFFFFFFFFFFFFFF AND PUSH20 0xFFFFFFFFFFFFFFFFFFFFFFFFFFFFFFFFFFFFFFFF AND PUSH4 0x95EA7B3 PUSH1 0x6 PUSH0 SWAP1 SLOAD SWAP1 PUSH2 0x100 EXP SWAP1 DIV PUSH20 0xFFFFFFFFFFFFFFFFFFFFFFFFFFFFFFFFFFFFFFFF AND DUP4 PUSH1 0x40 MLOAD DUP4 PUSH4 0xFFFFFFFF AND PUSH1 0xE0 SHL DUP2 MSTORE PUSH1 0x4 ADD PUSH2 0x8B4 SWAP3 SWAP2 SWAP1 PUSH2 0x1945 JUMP JUMPDEST PUSH1 0x20 PUSH1 0x40 MLOAD DUP1 DUP4 SUB DUP2 PUSH0 DUP8 GAS CALL ISZERO DUP1 ISZERO PUSH2 0x8D0 JUMPI RETURNDATASIZE PUSH0 DUP1 RETURNDATACOPY RETURNDATASIZE PUSH0 REVERT JUMPDEST POP POP POP POP PUSH1 0x40 MLOAD RETURNDATASIZE PUSH1 0x1F NOT PUSH1 0x1F DUP3 ADD AND DUP3 ADD DUP1 PUSH1 0x40 MSTORE POP DUP2 ADD SWAP1 PUSH2 0x8F4 SWAP2 SWAP1 PUSH2 0x170D JUMP JUMPDEST PUSH2 0x933 JUMPI PUSH1 0x40 MLOAD PUSH32 0x8C379A000000000000000000000000000000000000000000000000000000000 DUP2 MSTORE PUSH1 0x4 ADD PUSH2 0x92A SWAP1 PUSH2 0x19B6 JUMP JUMPDEST PUSH1 0x40 MLOAD DUP1 SWAP2 SUB SWAP1 REVERT JUMPDEST PUSH1 0x6 PUSH0 SWAP1 SLOAD SWAP1 PUSH2 0x100 EXP SWAP1 DIV PUSH20 0xFFFFFFFFFFFFFFFFFFFFFFFFFFFFFFFFFFFFFFFF AND PUSH20 0xFFFFFFFFFFFFFFFFFFFFFFFFFFFFFFFFFFFFFFFF AND PUSH4 0x3A96D086 DUP3 DUP7 PUSH1 0x40 MLOAD DUP4 PUSH4 0xFFFFFFFF AND PUSH1 0xE0 SHL DUP2 MSTORE PUSH1 0x4 ADD PUSH2 0x98F SWAP3 SWAP2 SWAP1 PUSH2 0x19D4 JUMP JUMPDEST PUSH0 PUSH1 0x40 MLOAD DUP1 DUP4 SUB DUP2 PUSH0 DUP8 DUP1 EXTCODESIZE ISZERO DUP1 ISZERO PUSH2 0x9A6 JUMPI PUSH0 DUP1 REVERT JUMPDEST POP GAS CALL ISZERO DUP1 ISZERO PUSH2 0x9B8 JUMPI RETURNDATASIZE PUSH0 DUP1 RETURNDATACOPY RETURNDATASIZE PUSH0 REVERT JUMPDEST POP POP POP POP DUP4 PUSH1 0x2 PUSH0 DUP8 DUP2 MSTORE PUSH1 0x20 ADD SWAP1 DUP2 MSTORE PUSH1 0x20 ADD PUSH0 KECCAK256 PUSH0 DUP3 DUP3 SLOAD PUSH2 0x9DC SWAP2 SWAP1 PUSH2 0x17CD JUMP JUMPDEST SWAP3 POP POP DUP2 SWAP1 SSTORE POP CALLER PUSH20 0xFFFFFFFFFFFFFFFFFFFFFFFFFFFFFFFFFFFFFFFF AND DUP6 PUSH32 0x3B5907C9AAEAEEF015F385111975B015225E1001BF659370E62C15E13373BC6D DUP7 PUSH1 0x40 MLOAD PUSH2 0xA2A SWAP2 SWAP1 PUSH2 0x134F JUMP JUMPDEST PUSH1 0x40 MLOAD DUP1 SWAP2 SUB SWAP1 LOG3 POP POP POP POP POP JUMP JUMPDEST PUSH1 0x6 PUSH0 SWAP1 SLOAD SWAP1 PUSH2 0x100 EXP SWAP1 DIV PUSH20 0xFFFFFFFFFFFFFFFFFFFFFFFFFFFFFFFFFFFFFFFF AND DUP2 JUMP JUMPDEST PUSH2 0xA66 PUSH2 0x10F3 JUMP JUMPDEST PUSH2 0xA6F PUSH0 PUSH2 0x117A JUMP JUMPDEST JUMP JUMPDEST PUSH0 DUP1 PUSH0 SWAP1 SLOAD SWAP1 PUSH2 0x100 EXP SWAP1 DIV PUSH20 0xFFFFFFFFFFFFFFFFFFFFFFFFFFFFFFFFFFFFFFFF AND SWAP1 POP SWAP1 JUMP JUMPDEST PUSH1 0x3 PUSH0 SWAP1 SLOAD SWAP1 PUSH2 0x100 EXP SWAP1 DIV PUSH20 0xFFFFFFFFFFFFFFFFFFFFFFFFFFFFFFFFFFFFFFFF AND DUP2 JUMP JUMPDEST PUSH2 0xAC5 PUSH2 0x10F3 JUMP JUMPDEST PUSH1 0x1 PUSH0 DUP3 DUP2 MSTORE PUSH1 0x20 ADD SWAP1 DUP2 MSTORE PUSH1 0x20 ADD PUSH0 KECCAK256 PUSH0 ADD PUSH1 0x14 SWAP1 SLOAD SWAP1 PUSH2 0x100 EXP SWAP1 DIV PUSH1 0xFF AND PUSH2 0xB25 JUMPI PUSH1 0x40 MLOAD PUSH32 0x8C379A000000000000000000000000000000000000000000000000000000000 DUP2 MSTORE PUSH1 0x4 ADD PUSH2 0xB1C SWAP1 PUSH2 0x16A6 JUMP JUMPDEST PUSH1 0x40 MLOAD DUP1 SWAP2 SUB SWAP1 REVERT JUMPDEST PUSH0 PUSH1 0x2 PUSH0 DUP4 DUP2 MSTORE PUSH1 0x20 ADD SWAP1 DUP2 MSTORE PUSH1 0x20 ADD PUSH0 KECCAK256 SLOAD SWAP1 POP PUSH0 DUP2 GT PUSH2 0xB7C JUMPI PUSH1 0x40 MLOAD PUSH32 0x8C379A000000000000000000000000000000000000000000000000000000000 DUP2 MSTORE PUSH1 0x4 ADD PUSH2 0xB73 SWAP1 PUSH2 0x1A45 JUMP JUMPDEST PUSH1 0x40 MLOAD DUP1 SWAP2 SUB SWAP1 REVERT JUMPDEST PUSH0 PUSH1 0x2 PUSH0 DUP5 DUP2 MSTORE PUSH1 0x20 ADD SWAP1 DUP2 MSTORE PUSH1 0x20 ADD PUSH0 KECCAK256 DUP2 SWAP1 SSTORE POP PUSH0 PUSH1 0x1 PUSH0 DUP5 DUP2 MSTORE PUSH1 0x20 ADD SWAP1 DUP2 MSTORE PUSH1 0x20 ADD PUSH0 KECCAK256 PUSH0 ADD PUSH0 SWAP1 SLOAD SWAP1 PUSH2 0x100 EXP SWAP1 DIV PUSH20 0xFFFFFFFFFFFFFFFFFFFFFFFFFFFFFFFFFFFFFFFF AND SWAP1 POP PUSH1 0x3 PUSH0 SWAP1 SLOAD SWAP1 PUSH2 0x100 EXP SWAP1 DIV PUSH20 0xFFFFFFFFFFFFFFFFFFFFFFFFFFFFFFFFFFFFFFFF AND PUSH20 0xFFFFFFFFFFFFFFFFFFFFFFFFFFFFFFFFFFFFFFFF AND PUSH4 0xA9059CBB DUP3 DUP5 PUSH1 0x40 MLOAD DUP4 PUSH4 0xFFFFFFFF AND PUSH1 0xE0 SHL DUP2 MSTORE PUSH1 0x4 ADD PUSH2 0xC24 SWAP3 SWAP2 SWAP1 PUSH2 0x1A83 JUMP JUMPDEST PUSH1 0x20 PUSH1 0x40 MLOAD DUP1 DUP4 SUB DUP2 PUSH0 DUP8 GAS CALL ISZERO DUP1 ISZERO PUSH2 0xC40 JUMPI RETURNDATASIZE PUSH0 DUP1 RETURNDATACOPY RETURNDATASIZE PUSH0 REVERT JUMPDEST POP POP POP POP PUSH1 0x40 MLOAD RETURNDATASIZE PUSH1 0x1F NOT PUSH1 0x1F DUP3 ADD AND DUP3 ADD DUP1 PUSH1 0x40 MSTORE POP DUP2 ADD SWAP1 PUSH2 0xC64 SWAP2 SWAP1 PUSH2 0x170D JUMP JUMPDEST PUSH2 0xCA3 JUMPI PUSH1 0x40 MLOAD PUSH32 0x8C379A000000000000000000000000000000000000000000000000000000000 DUP2 MSTORE PUSH1 0x4 ADD PUSH2 0xC9A SWAP1 PUSH2 0x1782 JUMP JUMPDEST PUSH1 0x40 MLOAD DUP1 SWAP2 SUB SWAP1 REVERT JUMPDEST DUP3 PUSH32 0x195F245622ABEB539754A2A6A6DEB95E6B222CBF894D10CBFFBEBAC70340E587 DUP4 DUP4 PUSH1 0x40 MLOAD PUSH2 0xCD5 SWAP3 SWAP2 SWAP1 PUSH2 0x1AAA JUMP JUMPDEST PUSH1 0x40 MLOAD DUP1 SWAP2 SUB SWAP1 LOG2 POP POP POP JUMP JUMPDEST PUSH2 0xCEA PUSH2 0x10F3 JUMP JUMPDEST PUSH0 DUP1 SHL DUP3 SUB PUSH2 0xD2E JUMPI PUSH1 0x40 MLOAD PUSH32 0x8C379A000000000000000000000000000000000000000000000000000000000 DUP2 MSTORE PUSH1 0x4 ADD PUSH2 0xD25 SWAP1 PUSH2 0x1B1B JUMP JUMPDEST PUSH1 0x40 MLOAD DUP1 SWAP2 SUB SWAP1 REVERT JUMPDEST PUSH0 PUSH20 0xFFFFFFFFFFFFFFFFFFFFFFFFFFFFFFFFFFFFFFFF AND DUP2 PUSH20 0xFFFFFFFFFFFFFFFFFFFFFFFFFFFFFFFFFFFFFFFF AND SUB PUSH2 0xD9C JUMPI PUSH1 0x40 MLOAD PUSH32 0x8C379A000000000000000000000000000000000000000000000000000000000 DUP2 MSTORE PUSH1 0x4 ADD PUSH2 0xD93 SWAP1 PUSH2 0x1B83 JUMP JUMPDEST PUSH1 0x40 MLOAD DUP1 SWAP2 SUB SWAP1 REVERT JUMPDEST PUSH1 0x1 PUSH0 DUP4 DUP2 MSTORE PUSH1 0x20 ADD SWAP1 DUP2 MSTORE PUSH1 0x20 ADD PUSH0 KECCAK256 PUSH0 ADD PUSH1 0x14 SWAP1 SLOAD SWAP1 PUSH2 0x100 EXP SWAP1 DIV PUSH1 0xFF AND ISZERO PUSH2 0xDFD JUMPI PUSH1 0x40 MLOAD PUSH32 0x8C379A000000000000000000000000000000000000000000000000000000000 DUP2 MSTORE PUSH1 0x4 ADD PUSH2 0xDF4 SWAP1 PUSH2 0x1BEB JUMP JUMPDEST PUSH1 0x40 MLOAD DUP1 SWAP2 SUB SWAP1 REVERT JUMPDEST PUSH1 0x40 MLOAD DUP1 PUSH1 0x40 ADD PUSH1 0x40 MSTORE DUP1 DUP3 PUSH20 0xFFFFFFFFFFFFFFFFFFFFFFFFFFFFFFFFFFFFFFFF AND DUP2 MSTORE PUSH1 0x20 ADD PUSH1 0x1 ISZERO ISZERO DUP2 MSTORE POP PUSH1 0x1 PUSH0 DUP5 DUP2 MSTORE PUSH1 0x20 ADD SWAP1 DUP2 MSTORE PUSH1 0x20 ADD PUSH0 KECCAK256 PUSH0 DUP3 ADD MLOAD DUP2 PUSH0 ADD PUSH0 PUSH2 0x100 EXP DUP2 SLOAD DUP2 PUSH20 0xFFFFFFFFFFFFFFFFFFFFFFFFFFFFFFFFFFFFFFFF MUL NOT AND SWAP1 DUP4 PUSH20 0xFFFFFFFFFFFFFFFFFFFFFFFFFFFFFFFFFFFFFFFF AND MUL OR SWAP1 SSTORE POP PUSH1 0x20 DUP3 ADD MLOAD DUP2 PUSH0 ADD PUSH1 0x14 PUSH2 0x100 EXP DUP2 SLOAD DUP2 PUSH1 0xFF MUL NOT AND SWAP1 DUP4 ISZERO ISZERO MUL OR SWAP1 SSTORE POP SWAP1 POP POP DUP2 PUSH32 0x1108B573ACB7954C6BE9806CC3A17ED5864F50FA96AD4CBC9CD82FA63D42B9F7 DUP3 PUSH1 0x40 MLOAD PUSH2 0xED2 SWAP2 SWAP1 PUSH2 0x1C09 JUMP JUMPDEST PUSH1 0x40 MLOAD DUP1 SWAP2 SUB SWAP1 LOG2 POP POP JUMP JUMPDEST PUSH2 0xEE6 PUSH2 0x10F3 JUMP JUMPDEST PUSH0 PUSH20 0xFFFFFFFFFFFFFFFFFFFFFFFFFFFFFFFFFFFFFFFF AND DUP2 PUSH20 0xFFFFFFFFFFFFFFFFFFFFFFFFFFFFFFFFFFFFFFFF AND SUB PUSH2 0xF56 JUMPI PUSH0 PUSH1 0x40 MLOAD PUSH32 0x1E4FBDF700000000000000000000000000000000000000000000000000000000 DUP2 MSTORE PUSH1 0x4 ADD PUSH2 0xF4D SWAP2 SWAP1 PUSH2 0x14C3 JUMP JUMPDEST PUSH1 0x40 MLOAD DUP1 SWAP2 SUB SWAP1 REVERT JUMPDEST PUSH2 0xF5F DUP2 PUSH2 0x117A JUMP JUMPDEST POP JUMP JUMPDEST PUSH2 0xF6A PUSH2 0x10F3 JUMP JUMPDEST PUSH1 0x1 PUSH0 DUP5 DUP2 MSTORE PUSH1 0x20 ADD SWAP1 DUP2 MSTORE PUSH1 0x20 ADD PUSH0 KECCAK256 PUSH0 ADD PUSH1 0x14 SWAP1 SLOAD SWAP1 PUSH2 0x100 EXP SWAP1 DIV PUSH1 0xFF AND PUSH2 0xFCA JUMPI PUSH1 0x40 MLOAD PUSH32 0x8C379A000000000000000000000000000000000000000000000000000000000 DUP2 MSTORE PUSH1 0x4 ADD PUSH2 0xFC1 SWAP1 PUSH2 0x1C6C JUMP JUMPDEST PUSH1 0x40 MLOAD DUP1 SWAP2 SUB SWAP1 REVERT JUMPDEST PUSH0 PUSH20 0xFFFFFFFFFFFFFFFFFFFFFFFFFFFFFFFFFFFFFFFF AND DUP3 PUSH20 0xFFFFFFFFFFFFFFFFFFFFFFFFFFFFFFFFFFFFFFFF AND SUB PUSH2 0x1038 JUMPI PUSH1 0x40 MLOAD PUSH32 0x8C379A000000000000000000000000000000000000000000000000000000000 DUP2 MSTORE PUSH1 0x4 ADD PUSH2 0x102F SWAP1 PUSH2 0x1B83 JUMP JUMPDEST PUSH1 0x40 MLOAD DUP1 SWAP2 SUB SWAP1 REVERT JUMPDEST DUP2 PUSH1 0x1 PUSH0 DUP6 DUP2 MSTORE PUSH1 0x20 ADD SWAP1 DUP2 MSTORE PUSH1 0x20 ADD PUSH0 KECCAK256 PUSH0 ADD PUSH0 PUSH2 0x100 EXP DUP2 SLOAD DUP2 PUSH20 0xFFFFFFFFFFFFFFFFFFFFFFFFFFFFFFFFFFFFFFFF MUL NOT AND SWAP1 DUP4 PUSH20 0xFFFFFFFFFFFFFFFFFFFFFFFFFFFFFFFFFFFFFFFF AND MUL OR SWAP1 SSTORE POP DUP1 PUSH1 0x1 PUSH0 DUP6 DUP2 MSTORE PUSH1 0x20 ADD SWAP1 DUP2 MSTORE PUSH1 0x20 ADD PUSH0 KECCAK256 PUSH0 ADD PUSH1 0x14 PUSH2 0x100 EXP DUP2 SLOAD DUP2 PUSH1 0xFF MUL NOT AND SWAP1 DUP4 ISZERO ISZERO MUL OR SWAP1 SSTORE POP DUP3 PUSH32 0x7DAC21E92520EAEDC798F2261DA9EECEBDA327DB2D8DFF77C1AAB26798DC25E8 DUP4 DUP4 PUSH1 0x40 MLOAD PUSH2 0x10E6 SWAP3 SWAP2 SWAP1 PUSH2 0x1C8A JUMP JUMPDEST PUSH1 0x40 MLOAD DUP1 SWAP2 SUB SWAP1 LOG2 POP POP POP JUMP JUMPDEST PUSH2 0x10FB PUSH2 0x123B JUMP JUMPDEST PUSH20 0xFFFFFFFFFFFFFFFFFFFFFFFFFFFFFFFFFFFFFFFF AND PUSH2 0x1119 PUSH2 0xA71 JUMP JUMPDEST PUSH20 0xFFFFFFFFFFFFFFFFFFFFFFFFFFFFFFFFFFFFFFFF AND EQ PUSH2 0x1178 JUMPI PUSH2 0x113C PUSH2 0x123B JUMP JUMPDEST PUSH1 0x40 MLOAD PUSH32 0x118CDAA700000000000000000000000000000000000000000000000000000000 DUP2 MSTORE PUSH1 0x4 ADD PUSH2 0x116F SWAP2 SWAP1 PUSH2 0x14C3 JUMP JUMPDEST PUSH1 0x40 MLOAD DUP1 SWAP2 SUB SWAP1 REVERT JUMPDEST JUMP JUMPDEST PUSH0 DUP1 PUSH0 SWAP1 SLOAD SWAP1 PUSH2 0x100 EXP SWAP1 DIV PUSH20 0xFFFFFFFFFFFFFFFFFFFFFFFFFFFFFFFFFFFFFFFF AND SWAP1 POP DUP2 PUSH0 DUP1 PUSH2 0x100 EXP DUP2 SLOAD DUP2 PUSH20 0xFFFFFFFFFFFFFFFFFFFFFFFFFFFFFFFFFFFFFFFF MUL NOT AND SWAP1 DUP4 PUSH20 0xFFFFFFFFFFFFFFFFFFFFFFFFFFFFFFFFFFFFFFFF AND MUL OR SWAP1 SSTORE POP DUP2 PUSH20 0xFFFFFFFFFFFFFFFFFFFFFFFFFFFFFFFFFFFFFFFF AND DUP2 PUSH20 0xFFFFFFFFFFFFFFFFFFFFFFFFFFFFFFFFFFFFFFFF AND PUSH32 0x8BE0079C531659141344CD1FD0A4F28419497F9722A3DAAFE3B4186F6B6457E0 PUSH1 0x40 MLOAD PUSH1 0x40 MLOAD DUP1 SWAP2 SUB SWAP1 LOG3 POP POP JUMP JUMPDEST PUSH0 CALLER SWAP1 POP SWAP1 JUMP JUMPDEST PUSH0 PUSH20 0xFFFFFFFFFFFFFFFFFFFFFFFFFFFFFFFFFFFFFFFF DUP3 AND SWAP1 POP SWAP2 SWAP1 POP JUMP JUMPDEST PUSH0 DUP2 SWAP1 POP SWAP2 SWAP1 POP JUMP JUMPDEST PUSH0 PUSH2 0x1284 PUSH2 0x127F PUSH2 0x127A DUP5 PUSH2 0x1242 JUMP JUMPDEST PUSH2 0x1261 JUMP JUMPDEST PUSH2 0x1242 JUMP JUMPDEST SWAP1 POP SWAP2 SWAP1 POP JUMP JUMPDEST PUSH0 PUSH2 0x1295 DUP3 PUSH2 0x126A JUMP JUMPDEST SWAP1 POP SWAP2 SWAP1 POP JUMP JUMPDEST PUSH0 PUSH2 0x12A6 DUP3 PUSH2 0x128B JUMP JUMPDEST SWAP1 POP SWAP2 SWAP1 POP JUMP JUMPDEST PUSH2 0x12B6 DUP2 PUSH2 0x129C JUMP JUMPDEST DUP3 MSTORE POP POP JUMP JUMPDEST PUSH0 PUSH1 0x20 DUP3 ADD SWAP1 POP PUSH2 0x12CF PUSH0 DUP4 ADD DUP5 PUSH2 0x12AD JUMP JUMPDEST SWAP3 SWAP2 POP POP JUMP JUMPDEST PUSH0 DUP1 REVERT JUMPDEST PUSH0 DUP2 SWAP1 POP SWAP2 SWAP1 POP JUMP JUMPDEST PUSH2 0x12EB DUP2 PUSH2 0x12D9 JUMP JUMPDEST DUP2 EQ PUSH2 0x12F5 JUMPI PUSH0 DUP1 REVERT JUMPDEST POP JUMP JUMPDEST PUSH0 DUP2 CALLDATALOAD SWAP1 POP PUSH2 0x1306 DUP2 PUSH2 0x12E2 JUMP JUMPDEST SWAP3 SWAP2 POP POP JUMP JUMPDEST PUSH0 PUSH1 0x20 DUP3 DUP5 SUB SLT ISZERO PUSH2 0x1321 JUMPI PUSH2 0x1320 PUSH2 0x12D5 JUMP JUMPDEST JUMPDEST PUSH0 PUSH2 0x132E DUP5 DUP3 DUP6 ADD PUSH2 0x12F8 JUMP JUMPDEST SWAP2 POP POP SWAP3 SWAP2 POP POP JUMP JUMPDEST PUSH0 DUP2 SWAP1 POP SWAP2 SWAP1 POP JUMP JUMPDEST PUSH2 0x1349 DUP2 PUSH2 0x1337 JUMP JUMPDEST DUP3 MSTORE POP POP JUMP JUMPDEST PUSH0 PUSH1 0x20 DUP3 ADD SWAP1 POP PUSH2 0x1362 PUSH0 DUP4 ADD DUP5 PUSH2 0x1340 JUMP JUMPDEST SWAP3 SWAP2 POP POP JUMP JUMPDEST PUSH0 PUSH2 0x1372 DUP3 PUSH2 0x1242 JUMP JUMPDEST SWAP1 POP SWAP2 SWAP1 POP JUMP JUMPDEST PUSH2 0x1382 DUP2 PUSH2 0x1368 JUMP JUMPDEST DUP3 MSTORE POP POP JUMP JUMPDEST PUSH0 DUP2 ISZERO ISZERO SWAP1 POP SWAP2 SWAP1 POP JUMP JUMPDEST PUSH2 0x139C DUP2 PUSH2 0x1388 JUMP JUMPDEST DUP3 MSTORE POP POP JUMP JUMPDEST PUSH0 PUSH1 0x40 DUP3 ADD SWAP1 POP PUSH2 0x13B5 PUSH0 DUP4 ADD DUP6 PUSH2 0x1379 JUMP JUMPDEST PUSH2 0x13C2 PUSH1 0x20 DUP4 ADD DUP5 PUSH2 0x1393 JUMP JUMPDEST SWAP4 SWAP3 POP POP POP JUMP JUMPDEST PUSH0 PUSH2 0x13D3 DUP3 PUSH2 0x128B JUMP JUMPDEST SWAP1 POP SWAP2 SWAP1 POP JUMP JUMPDEST PUSH2 0x13E3 DUP2 PUSH2 0x13C9 JUMP JUMPDEST DUP3 MSTORE POP POP JUMP JUMPDEST PUSH0 PUSH1 0x20 DUP3 ADD SWAP1 POP PUSH2 0x13FC PUSH0 DUP4 ADD DUP5 PUSH2 0x13DA JUMP JUMPDEST SWAP3 SWAP2 POP POP JUMP JUMPDEST PUSH2 0x140B DUP2 PUSH2 0x1337 JUMP JUMPDEST DUP2 EQ PUSH2 0x1415 JUMPI PUSH0 DUP1 REVERT JUMPDEST POP JUMP JUMPDEST PUSH0 DUP2 CALLDATALOAD SWAP1 POP PUSH2 0x1426 DUP2 PUSH2 0x1402 JUMP JUMPDEST SWAP3 SWAP2 POP POP JUMP JUMPDEST PUSH0 DUP1 PUSH1 0x40 DUP4 DUP6 SUB SLT ISZERO PUSH2 0x1442 JUMPI PUSH2 0x1441 PUSH2 0x12D5 JUMP JUMPDEST JUMPDEST PUSH0 PUSH2 0x144F DUP6 DUP3 DUP7 ADD PUSH2 0x12F8 JUMP JUMPDEST SWAP3 POP POP PUSH1 0x20 PUSH2 0x1460 DUP6 DUP3 DUP7 ADD PUSH2 0x1418 JUMP JUMPDEST SWAP2 POP POP SWAP3 POP SWAP3 SWAP1 POP JUMP JUMPDEST PUSH0 PUSH2 0x1474 DUP3 PUSH2 0x128B JUMP JUMPDEST SWAP1 POP SWAP2 SWAP1 POP JUMP JUMPDEST PUSH2 0x1484 DUP2 PUSH2 0x146A JUMP JUMPDEST DUP3 MSTORE POP POP JUMP JUMPDEST PUSH0 PUSH1 0x20 DUP3 ADD SWAP1 POP PUSH2 0x149D PUSH0 DUP4 ADD DUP5 PUSH2 0x147B JUMP JUMPDEST SWAP3 SWAP2 POP POP JUMP JUMPDEST PUSH0 PUSH2 0x14AD DUP3 PUSH2 0x1242 JUMP JUMPDEST SWAP1 POP SWAP2 SWAP1 POP JUMP JUMPDEST PUSH2 0x14BD DUP2 PUSH2 0x14A3 JUMP JUMPDEST DUP3 MSTORE POP POP JUMP JUMPDEST PUSH0 PUSH1 0x20 DUP3 ADD SWAP1 POP PUSH2 0x14D6 PUSH0 DUP4 ADD DUP5 PUSH2 0x14B4 JUMP JUMPDEST SWAP3 SWAP2 POP POP JUMP JUMPDEST PUSH0 PUSH2 0x14E6 DUP3 PUSH2 0x128B JUMP JUMPDEST SWAP1 POP SWAP2 SWAP1 POP JUMP JUMPDEST PUSH2 0x14F6 DUP2 PUSH2 0x14DC JUMP JUMPDEST DUP3 MSTORE POP POP JUMP JUMPDEST PUSH0 PUSH1 0x20 DUP3 ADD SWAP1 POP PUSH2 0x150F PUSH0 DUP4 ADD DUP5 PUSH2 0x14ED JUMP JUMPDEST SWAP3 SWAP2 POP POP JUMP JUMPDEST PUSH2 0x151E DUP2 PUSH2 0x1368 JUMP JUMPDEST DUP2 EQ PUSH2 0x1528 JUMPI PUSH0 DUP1 REVERT JUMPDEST POP JUMP JUMPDEST PUSH0 DUP2 CALLDATALOAD SWAP1 POP PUSH2 0x1539 DUP2 PUSH2 0x1515 JUMP JUMPDEST SWAP3 SWAP2 POP POP JUMP JUMPDEST PUSH0 DUP1 PUSH1 0x40 DUP4 DUP6 SUB SLT ISZERO PUSH2 0x1555 JUMPI PUSH2 0x1554 PUSH2 0x12D5 JUMP JUMPDEST JUMPDEST PUSH0 PUSH2 0x1562 DUP6 DUP3 DUP7 ADD PUSH2 0x12F8 JUMP JUMPDEST SWAP3 POP POP PUSH1 0x20 PUSH2 0x1573 DUP6 DUP3 DUP7 ADD PUSH2 0x152B JUMP JUMPDEST SWAP2 POP POP SWAP3 POP SWAP3 SWAP1 POP JUMP JUMPDEST PUSH2 0x1586 DUP2 PUSH2 0x14A3 JUMP JUMPDEST DUP2 EQ PUSH2 0x1590 JUMPI PUSH0 DUP1 REVERT JUMPDEST POP JUMP JUMPDEST PUSH0 DUP2 CALLDATALOAD SWAP1 POP PUSH2 0x15A1 DUP2 PUSH2 0x157D JUMP JUMPDEST SWAP3 SWAP2 POP POP JUMP JUMPDEST PUSH0 PUSH1 0x20 DUP3 DUP5 SUB SLT ISZERO PUSH2 0x15BC JUMPI PUSH2 0x15BB PUSH2 0x12D5 JUMP JUMPDEST JUMPDEST PUSH0 PUSH2 0x15C9 DUP5 DUP3 DUP6 ADD PUSH2 0x1593 JUMP JUMPDEST SWAP2 POP POP SWAP3 SWAP2 POP POP JUMP JUMPDEST PUSH2 0x15DB DUP2 PUSH2 0x1388 JUMP JUMPDEST DUP2 EQ PUSH2 0x15E5 JUMPI PUSH0 DUP1 REVERT JUMPDEST POP JUMP JUMPDEST PUSH0 DUP2 CALLDATALOAD SWAP1 POP PUSH2 0x15F6 DUP2 PUSH2 0x15D2 JUMP JUMPDEST SWAP3 SWAP2 POP POP JUMP JUMPDEST PUSH0 DUP1 PUSH0 PUSH1 0x60 DUP5 DUP7 SUB SLT ISZERO PUSH2 0x1613 JUMPI PUSH2 0x1612 PUSH2 0x12D5 JUMP JUMPDEST JUMPDEST PUSH0 PUSH2 0x1620 DUP7 DUP3 DUP8 ADD PUSH2 0x12F8 JUMP JUMPDEST SWAP4 POP POP PUSH1 0x20 PUSH2 0x1631 DUP7 DUP3 DUP8 ADD PUSH2 0x152B JUMP JUMPDEST SWAP3 POP POP PUSH1 0x40 PUSH2 0x1642 DUP7 DUP3 DUP8 ADD PUSH2 0x15E8 JUMP JUMPDEST SWAP2 POP POP SWAP3 POP SWAP3 POP SWAP3 JUMP JUMPDEST PUSH0 DUP3 DUP3 MSTORE PUSH1 0x20 DUP3 ADD SWAP1 POP SWAP3 SWAP2 POP POP JUMP JUMPDEST PUSH32 0x4D65726368616E74206E6F742061637469766500000000000000000000000000 PUSH0 DUP3 ADD MSTORE POP JUMP JUMPDEST PUSH0 PUSH2 0x1690 PUSH1 0x13 DUP4 PUSH2 0x164C JUMP JUMPDEST SWAP2 POP PUSH2 0x169B DUP3 PUSH2 0x165C JUMP JUMPDEST PUSH1 0x20 DUP3 ADD SWAP1 POP SWAP2 SWAP1 POP JUMP JUMPDEST PUSH0 PUSH1 0x20 DUP3 ADD SWAP1 POP DUP2 DUP2 SUB PUSH0 DUP4 ADD MSTORE PUSH2 0x16BD DUP2 PUSH2 0x1684 JUMP JUMPDEST SWAP1 POP SWAP2 SWAP1 POP JUMP JUMPDEST PUSH0 PUSH1 0x60 DUP3 ADD SWAP1 POP PUSH2 0x16D7 PUSH0 DUP4 ADD DUP7 PUSH2 0x14B4 JUMP JUMPDEST PUSH2 0x16E4 PUSH1 0x20 DUP4 ADD DUP6 PUSH2 0x14B4 JUMP JUMPDEST PUSH2 0x16F1 PUSH1 0x40 DUP4 ADD DUP5 PUSH2 0x1340 JUMP JUMPDEST SWAP5 SWAP4 POP POP POP POP JUMP JUMPDEST PUSH0 DUP2 MLOAD SWAP1 POP PUSH2 0x1707 DUP2 PUSH2 0x15D2 JUMP JUMPDEST SWAP3 SWAP2 POP POP JUMP JUMPDEST PUSH0 PUSH1 0x20 DUP3 DUP5 SUB SLT ISZERO PUSH2 0x1722 JUMPI PUSH2 0x1721 PUSH2 0x12D5 JUMP JUMPDEST JUMPDEST PUSH0 PUSH2 0x172F DUP5 DUP3 DUP6 ADD PUSH2 0x16F9 JUMP JUMPDEST SWAP2 POP POP SWAP3 SWAP2 POP POP JUMP JUMPDEST PUSH32 0x5472616E73666572206661696C65640000000000000000000000000000000000 PUSH0 DUP3 ADD MSTORE POP JUMP JUMPDEST PUSH0 PUSH2 0x176C PUSH1 0xF DUP4 PUSH2 0x164C JUMP JUMPDEST SWAP2 POP PUSH2 0x1777 DUP3 PUSH2 0x1738 JUMP JUMPDEST PUSH1 0x20 DUP3 ADD SWAP1 POP SWAP2 SWAP1 POP JUMP JUMPDEST PUSH0 PUSH1 0x20 DUP3 ADD SWAP1 POP DUP2 DUP2 SUB PUSH0 DUP4 ADD MSTORE PUSH2 0x1799 DUP2 PUSH2 0x1760 JUMP JUMPDEST SWAP1 POP SWAP2 SWAP1 POP JUMP JUMPDEST PUSH32 0x4E487B7100000000000000000000000000000000000000000000000000000000 PUSH0 MSTORE PUSH1 0x11 PUSH1 0x4 MSTORE PUSH1 0x24 PUSH0 REVERT JUMPDEST PUSH0 PUSH2 0x17D7 DUP3 PUSH2 0x1337 JUMP JUMPDEST SWAP2 POP PUSH2 0x17E2 DUP4 PUSH2 0x1337 JUMP JUMPDEST SWAP3 POP DUP3 DUP3 ADD SWAP1 POP DUP1 DUP3 GT ISZERO PUSH2 0x17FA JUMPI PUSH2 0x17F9 PUSH2 0x17A0 JUMP JUMPDEST JUMPDEST SWAP3 SWAP2 POP POP JUMP JUMPDEST PUSH0 DUP2 MLOAD SWAP1 POP PUSH2 0x180E DUP2 PUSH2 0x1402 JUMP JUMPDEST SWAP3 SWAP2 POP POP JUMP JUMPDEST PUSH0 PUSH1 0x20 DUP3 DUP5 SUB SLT ISZERO PUSH2 0x1829 JUMPI PUSH2 0x1828 PUSH2 0x12D5 JUMP JUMPDEST JUMPDEST PUSH0 PUSH2 0x1836 DUP5 DUP3 DUP6 ADD PUSH2 0x1800 JUMP JUMPDEST SWAP2 POP POP SWAP3 SWAP2 POP POP JUMP JUMPDEST PUSH32 0x496E76616C696420707269636500000000000000000000000000000000000000 PUSH0 DUP3 ADD MSTORE POP JUMP JUMPDEST PUSH0 PUSH2 0x1873 PUSH1 0xD DUP4 PUSH2 0x164C JUMP JUMPDEST SWAP2 POP PUSH2 0x187E DUP3 PUSH2 0x183F JUMP JUMPDEST PUSH1 0x20 DUP3 ADD SWAP1 POP SWAP2 SWAP1 POP JUMP JUMPDEST PUSH0 PUSH1 0x20 DUP3 ADD SWAP1 POP DUP2 DUP2 SUB PUSH0 DUP4 ADD MSTORE PUSH2 0x18A0 DUP2 PUSH2 0x1867 JUMP JUMPDEST SWAP1 POP SWAP2 SWAP1 POP JUMP JUMPDEST PUSH0 PUSH2 0x18B1 DUP3 PUSH2 0x1337 JUMP JUMPDEST SWAP2 POP PUSH2 0x18BC DUP4 PUSH2 0x1337 JUMP JUMPDEST SWAP3 POP DUP3 DUP3 MUL PUSH2 0x18CA DUP2 PUSH2 0x1337 JUMP JUMPDEST SWAP2 POP DUP3 DUP3 DIV DUP5 EQ DUP4 ISZERO OR PUSH2 0x18E1 JUMPI PUSH2 0x18E0 PUSH2 0x17A0 JUMP JUMPDEST JUMPDEST POP SWAP3 SWAP2 POP POP JUMP JUMPDEST PUSH32 0x4E487B7100000000000000000000000000000000000000000000000000000000 PUSH0 MSTORE PUSH1 0x12 PUSH1 0x4 MSTORE PUSH1 0x24 PUSH0 REVERT JUMPDEST PUSH0 PUSH2 0x191F DUP3 PUSH2 0x1337 JUMP JUMPDEST SWAP2 POP PUSH2 0x192A DUP4 PUSH2 0x1337 JUMP JUMPDEST SWAP3 POP DUP3 PUSH2 0x193A JUMPI PUSH2 0x1939 PUSH2 0x18E8 JUMP JUMPDEST JUMPDEST DUP3 DUP3 DIV SWAP1 POP SWAP3 SWAP2 POP POP JUMP JUMPDEST PUSH0 PUSH1 0x40 DUP3 ADD SWAP1 POP PUSH2 0x1958 PUSH0 DUP4 ADD DUP6 PUSH2 0x14B4 JUMP JUMPDEST PUSH2 0x1965 PUSH1 0x20 DUP4 ADD DUP5 PUSH2 0x1340 JUMP JUMPDEST SWAP4 SWAP3 POP POP POP JUMP JUMPDEST PUSH32 0x6342544320617070726F7665206661696C656400000000000000000000000000 PUSH0 DUP3 ADD MSTORE POP JUMP JUMPDEST PUSH0 PUSH2 0x19A0 PUSH1 0x13 DUP4 PUSH2 0x164C JUMP JUMPDEST SWAP2 POP PUSH2 0x19AB DUP3 PUSH2 0x196C JUMP JUMPDEST PUSH1 0x20 DUP3 ADD SWAP1 POP SWAP2 SWAP1 POP JUMP JUMPDEST PUSH0 PUSH1 0x20 DUP3 ADD SWAP1 POP DUP2 DUP2 SUB PUSH0 DUP4 ADD MSTORE PUSH2 0x19CD DUP2 PUSH2 0x1994 JUMP JUMPDEST SWAP1 POP SWAP2 SWAP1 POP JUMP JUMPDEST PUSH0 PUSH1 0x40 DUP3 ADD SWAP1 POP PUSH2 0x19E7 PUSH0 DUP4 ADD DUP6 PUSH2 0x1340 JUMP JUMPDEST PUSH2 0x19F4 PUSH1 0x20 DUP4 ADD DUP5 PUSH2 0x1340 JUMP JUMPDEST SWAP4 SWAP3 POP POP POP JUMP JUMPDEST PUSH32 0x4E6F2062616C616E636520746F20776974686472617700000000000000000000 PUSH0 DUP3 ADD MSTORE POP JUMP JUMPDEST PUSH0 PUSH2 0x1A2F PUSH1 0x16 DUP4 PUSH2 0x164C JUMP JUMPDEST SWAP2 POP PUSH2 0x1A3A DUP3 PUSH2 0x19FB JUMP JUMPDEST PUSH1 0x20 DUP3 ADD SWAP1 POP SWAP2 SWAP1 POP JUMP JUMPDEST PUSH0 PUSH1 0x20 DUP3 ADD SWAP1 POP DUP2 DUP2 SUB PUSH0 DUP4 ADD MSTORE PUSH2 0x1A5C DUP2 PUSH2 0x1A23 JUMP JUMPDEST SWAP1 POP SWAP2 SWAP1 POP JUMP JUMPDEST PUSH0 PUSH2 0x1A6D DUP3 PUSH2 0x128B JUMP JUMPDEST SWAP1 POP SWAP2 SWAP1 POP JUMP JUMPDEST PUSH2 0x1A7D DUP2 PUSH2 0x1A63 JUMP JUMPDEST DUP3 MSTORE POP POP JUMP JUMPDEST PUSH0 PUSH1 0x40 DUP3 ADD SWAP1 POP PUSH2 0x1A96 PUSH0 DUP4 ADD DUP6 PUSH2 0x1A74 JUMP JUMPDEST PUSH2 0x1AA3 PUSH1 0x20 DUP4 ADD DUP5 PUSH2 0x1340 JUMP JUMPDEST SWAP4 SWAP3 POP POP POP JUMP JUMPDEST PUSH0 PUSH1 0x40 DUP3 ADD SWAP1 POP PUSH2 0x1ABD PUSH0 DUP4 ADD DUP6 PUSH2 0x1340 JUMP JUMPDEST PUSH2 0x1ACA PUSH1 0x20 DUP4 ADD DUP5 PUSH2 0x1A74 JUMP JUMPDEST SWAP4 SWAP3 POP POP POP JUMP JUMPDEST PUSH32 0x496E76616C6964206D65726368616E7449640000000000000000000000000000 PUSH0 DUP3 ADD MSTORE POP JUMP JUMPDEST PUSH0 PUSH2 0x1B05 PUSH1 0x12 DUP4 PUSH2 0x164C JUMP JUMPDEST SWAP2 POP PUSH2 0x1B10 DUP3 PUSH2 0x1AD1 JUMP JUMPDEST PUSH1 0x20 DUP3 ADD SWAP1 POP SWAP2 SWAP1 POP JUMP JUMPDEST PUSH0 PUSH1 0x20 DUP3 ADD SWAP1 POP DUP2 DUP2 SUB PUSH0 DUP4 ADD MSTORE PUSH2 0x1B32 DUP2 PUSH2 0x1AF9 JUMP JUMPDEST SWAP1 POP SWAP2 SWAP1 POP JUMP JUMPDEST PUSH32 0x496E76616C6964207061796F7574206164647265737300000000000000000000 PUSH0 DUP3 ADD MSTORE POP JUMP JUMPDEST PUSH0 PUSH2 0x1B6D PUSH1 0x16 DUP4 PUSH2 0x164C JUMP JUMPDEST SWAP2 POP PUSH2 0x1B78 DUP3 PUSH2 0x1B39 JUMP JUMPDEST PUSH1 0x20 DUP3 ADD SWAP1 POP SWAP2 SWAP1 POP JUMP JUMPDEST PUSH0 PUSH1 0x20 DUP3 ADD SWAP1 POP DUP2 DUP2 SUB PUSH0 DUP4 ADD MSTORE PUSH2 0x1B9A DUP2 PUSH2 0x1B61 JUMP JUMPDEST SWAP1 POP SWAP2 SWAP1 POP JUMP JUMPDEST PUSH32 0x4D65726368616E7420616C726561647920726567697374657265640000000000 PUSH0 DUP3 ADD MSTORE POP JUMP JUMPDEST PUSH0 PUSH2 0x1BD5 PUSH1 0x1B DUP4 PUSH2 0x164C JUMP JUMPDEST SWAP2 POP PUSH2 0x1BE0 DUP3 PUSH2 0x1BA1 JUMP JUMPDEST PUSH1 0x20 DUP3 ADD SWAP1 POP SWAP2 SWAP1 POP JUMP JUMPDEST PUSH0 PUSH1 0x20 DUP3 ADD SWAP1 POP DUP2 DUP2 SUB PUSH0 DUP4 ADD MSTORE PUSH2 0x1C02 DUP2 PUSH2 0x1BC9 JUMP JUMPDEST SWAP1 POP SWAP2 SWAP1 POP JUMP JUMPDEST PUSH0 PUSH1 0x20 DUP3 ADD SWAP1 POP PUSH2 0x1C1C PUSH0 DUP4 ADD DUP5 PUSH2 0x1A74 JUMP JUMPDEST SWAP3 SWAP2 POP POP JUMP JUMPDEST PUSH32 0x4D65726368616E74206E6F742072656769737465726564000000000000000000 PUSH0 DUP3 ADD MSTORE POP JUMP JUMPDEST PUSH0 PUSH2 0x1C56 PUSH1 0x17 DUP4 PUSH2 0x164C JUMP JUMPDEST SWAP2 POP PUSH2 0x1C61 DUP3 PUSH2 0x1C22 JUMP JUMPDEST PUSH1 0x20 DUP3 ADD SWAP1 POP SWAP2 SWAP1 POP JUMP JUMPDEST PUSH0 PUSH1 0x20 DUP3 ADD SWAP1 POP DUP2 DUP2 SUB PUSH0 DUP4 ADD MSTORE PUSH2 0x1C83 DUP2 PUSH2 0x1C4A JUMP JUMPDEST SWAP1 POP SWAP2 SWAP1 POP JUMP JUMPDEST PUSH0 PUSH1 0x40 DUP3 ADD SWAP1 POP PUSH2 0x1C9D PUSH0 DUP4 ADD DUP6 PUSH2 0x1A74 JUMP JUMPDEST PUSH2 0x1CAA PUSH1 0x20 DUP4 ADD DUP5 PUSH2 0x1393 JUMP JUMPDEST SWAP4 SWAP3 POP POP POP JUMP INVALID LOG2 PUSH5 0x6970667358 0x22 SLT KECCAK256 PUSH30 0xF806CF04CA5FF70C12DB778CACC67538042D5114ACCEE73C828B0C7FA873 0xB3 PUSH5 0x736F6C6343 STOP ADDMOD BYTE STOP CALLER "
				},
				"gasEstimates": {
					"creation": {
						"codeDepositCost": "1479800",
						"executionCost": "infinite",
						"totalCost": "infinite"
					},
					"external": {
						"aggregator()": "infinite",
						"cBTC()": "infinite",
						"dex()": "infinite",
						"merchantBalances(bytes32)": "2800",
						"merchants(bytes32)": "5220",
						"owner()": "2560",
						"payMerchant(bytes32,uint256)": "infinite",
						"payMerchantInCBTC(bytes32,uint256)": "infinite",
						"registerMerchant(bytes32,address)": "infinite",
						"renounceOwnership()": "infinite",
						"stableCoin()": "infinite",
						"transferOwnership(address)": "infinite",
						"updateMerchant(bytes32,address,bool)": "infinite",
						"withdrawMerchantFunds(bytes32)": "infinite"
					}
				},
				"methodIdentifiers": {
					"aggregator()": "245a7bfc",
					"cBTC()": "0ae8c4dc",
					"dex()": "692058c2",
					"merchantBalances(bytes32)": "194a7b8e",
					"merchants(bytes32)": "20003022",
					"owner()": "8da5cb5b",
					"payMerchant(bytes32,uint256)": "4793f1d9",
					"payMerchantInCBTC(bytes32,uint256)": "5143fe12",
					"registerMerchant(bytes32,address)": "e5a5ef4f",
					"renounceOwnership()": "715018a6",
					"stableCoin()": "992642e5",
					"transferOwnership(address)": "f2fde38b",
					"updateMerchant(bytes32,address,bool)": "ff0f7b74",
					"withdrawMerchantFunds(bytes32)": "ad487f23"
				}
			},
			"storageLayout": {
				"storage": [
					{
						"astId": 8,
						"contract": "contracts/PaymentGateway.sol:PaymentGateway",
						"label": "_owner",
						"offset": 0,
						"slot": "0",
						"type": "t_address"
					},
					{
						"astId": 973,
						"contract": "contracts/PaymentGateway.sol:PaymentGateway",
						"label": "merchants",
						"offset": 0,
						"slot": "1",
						"type": "t_mapping(t_bytes32,t_struct(Merchant)968_storage)"
					},
					{
						"astId": 977,
						"contract": "contracts/PaymentGateway.sol:PaymentGateway",
						"label": "merchantBalances",
						"offset": 0,
						"slot": "2",
						"type": "t_mapping(t_bytes32,t_uint256)"
					},
					{
						"astId": 980,
						"contract": "contracts/PaymentGateway.sol:PaymentGateway",
						"label": "stableCoin",
						"offset": 0,
						"slot": "3",
						"type": "t_contract(IStableCoin)940"
					},
					{
						"astId": 983,
						"contract": "contracts/PaymentGateway.sol:PaymentGateway",
						"label": "cBTC",
						"offset": 0,
						"slot": "4",
						"type": "t_contract(ICBTC)959"
					},
					{
						"astId": 986,
						"contract": "contracts/PaymentGateway.sol:PaymentGateway",
						"label": "aggregator",
						"offset": 0,
						"slot": "5",
						"type": "t_contract(IAggregatorOracle)948"
					},
					{
						"astId": 989,
						"contract": "contracts/PaymentGateway.sol:PaymentGateway",
						"label": "dex",
						"offset": 0,
						"slot": "6",
						"type": "t_contract(IDexInterface)956"
					}
				],
				"types": {
					"t_address": {
						"encoding": "inplace",
						"label": "address",
						"numberOfBytes": "20"
					},
					"t_address_payable": {
						"encoding": "inplace",
						"label": "address payable",
						"numberOfBytes": "20"
					},
					"t_bool": {
						"encoding": "inplace",
						"label": "bool",
						"numberOfBytes": "1"
					},
					"t_bytes32": {
						"encoding": "inplace",
						"label": "bytes32",
						"numberOfBytes": "32"
					},
					"t_contract(IAggregatorOracle)948": {
						"encoding": "inplace",
						"label": "contract IAggregatorOracle",
						"numberOfBytes": "20"
					},
					"t_contract(ICBTC)959": {
						"encoding": "inplace",
						"label": "contract ICBTC",
						"numberOfBytes": "20"
					},
					"t_contract(IDexInterface)956": {
						"encoding": "inplace",
						"label": "contract IDexInterface",
						"numberOfBytes": "20"
					},
					"t_contract(IStableCoin)940": {
						"encoding": "inplace",
						"label": "contract IStableCoin",
						"numberOfBytes": "20"
					},
					"t_mapping(t_bytes32,t_struct(Merchant)968_storage)": {
						"encoding": "mapping",
						"key": "t_bytes32",
						"label": "mapping(bytes32 => struct PaymentGateway.Merchant)",
						"numberOfBytes": "32",
						"value": "t_struct(Merchant)968_storage"
					},
					"t_mapping(t_bytes32,t_uint256)": {
						"encoding": "mapping",
						"key": "t_bytes32",
						"label": "mapping(bytes32 => uint256)",
						"numberOfBytes": "32",
						"value": "t_uint256"
					},
					"t_struct(Merchant)968_storage": {
						"encoding": "inplace",
						"label": "struct PaymentGateway.Merchant",
						"members": [
							{
								"astId": 965,
								"contract": "contracts/PaymentGateway.sol:PaymentGateway",
								"label": "payoutAddress",
								"offset": 0,
								"slot": "0",
								"type": "t_address_payable"
							},
							{
								"astId": 967,
								"contract": "contracts/PaymentGateway.sol:PaymentGateway",
								"label": "active",
								"offset": 20,
								"slot": "0",
								"type": "t_bool"
							}
						],
						"numberOfBytes": "32"
					},
					"t_uint256": {
						"encoding": "inplace",
						"label": "uint256",
						"numberOfBytes": "32"
					}
				}
			},
			"userdoc": {
				"kind": "user",
				"methods": {},
				"version": 1
			}
		}
	}
}