{
	"contracts/StableCoin.sol": {
		"StableCoin": {
			"abi": [
				{
					"inputs": [
						{
							"internalType": "address",
							"name": "_cBTC",
							"type": "address"
						},
						{
							"internalType": "uint256",
							"name": "_collateralRatio",
							"type": "uint256"
						},
						{
							"internalType": "address",
							"name": "_oracle",
							"type": "address"
						},
						{
							"internalType": "uint256",
							"name": "_stabilityFee",
							"type": "uint256"
						}
					],
					"stateMutability": "nonpayable",
					"type": "constructor"
				},
				{
					"inputs": [
						{
							"internalType": "address",
							"name": "spender",
							"type": "address"
						},
						{
							"internalType": "uint256",
							"name": "allowance",
							"type": "uint256"
						},
						{
							"internalType": "uint256",
							"name": "needed",
							"type": "uint256"
						}
					],
					"name": "ERC20InsufficientAllowance",
					"type": "error"
				},
				{
					"inputs": [
						{
							"internalType": "address",
							"name": "sender",
							"type": "address"
						},
						{
							"internalType": "uint256",
							"name": "balance",
							"type": "uint256"
						},
						{
							"internalType": "uint256",
							"name": "needed",
							"type": "uint256"
						}
					],
					"name": "ERC20InsufficientBalance",
					"type": "error"
				},
				{
					"inputs": [
						{
							"internalType": "address",
							"name": "approver",
							"type": "address"
						}
					],
					"name": "ERC20InvalidApprover",
					"type": "error"
				},
				{
					"inputs": [
						{
							"internalType": "address",
							"name": "receiver",
							"type": "address"
						}
					],
					"name": "ERC20InvalidReceiver",
					"type": "error"
				},
				{
					"inputs": [
						{
							"internalType": "address",
							"name": "sender",
							"type": "address"
						}
					],
					"name": "ERC20InvalidSender",
					"type": "error"
				},
				{
					"inputs": [
						{
							"internalType": "address",
							"name": "spender",
							"type": "address"
						}
					],
					"name": "ERC20InvalidSpender",
					"type": "error"
				},
				{
					"inputs": [
						{
							"internalType": "address",
							"name": "owner",
							"type": "address"
						}
					],
					"name": "OwnableInvalidOwner",
					"type": "error"
				},
				{
					"inputs": [
						{
							"internalType": "address",
							"name": "account",
							"type": "address"
						}
					],
					"name": "OwnableUnauthorizedAccount",
					"type": "error"
				},
				{
					"anonymous": false,
					"inputs": [
						{
							"indexed": true,
							"internalType": "address",
							"name": "owner",
							"type": "address"
						},
						{
							"indexed": true,
							"internalType": "address",
							"name": "spender",
							"type": "address"
						},
						{
							"indexed": false,
							"internalType": "uint256",
							"name": "value",
							"type": "uint256"
						}
					],
					"name": "Approval",
					"type": "event"
				},
				{
					"anonymous": false,
					"inputs": [
						{
							"indexed": true,
							"internalType": "address",
							"name": "user",
							"type": "address"
						},
						{
							"indexed": false,
							"internalType": "uint256",
							"name": "amount",
							"type": "uint256"
						}
					],
					"name": "CollateralDeposited",
					"type": "event"
				},
				{
					"anonymous": false,
					"inputs": [
						{
							"indexed": true,
							"internalType": "address",
							"name": "user",
							"type": "address"
						},
						{
							"indexed": false,
							"internalType": "uint256",
							"name": "amount",
							"type": "uint256"
						}
					],
					"name": "CollateralWithdrawn",
					"type": "event"
				},
				{
					"anonymous": false,
					"inputs": [
						{
							"indexed": true,
							"internalType": "address",
							"name": "user",
							"type": "address"
						},
						{
							"indexed": false,
							"internalType": "uint256",
							"name": "debtRepaid",
							"type": "uint256"
						},
						{
							"indexed": false,
							"internalType": "uint256",
							"name": "collateralSeized",
							"type": "uint256"
						}
					],
					"name": "Liquidated",
					"type": "event"
				},
				{
					"anonymous": false,
					"inputs": [
						{
							"indexed": true,
							"internalType": "address",
							"name": "user",
							"type": "address"
						},
						{
							"indexed": false,
							"internalType": "uint256",
							"name": "amount",
							"type": "uint256"
						}
					],
					"name": "Minted",
					"type": "event"
				},
				{
					"anonymous": false,
					"inputs": [
						{
							"indexed": true,
							"internalType": "address",
							"name": "previousOwner",
							"type": "address"
						},
						{
							"indexed": true,
							"internalType": "address",
							"name": "newOwner",
							"type": "address"
						}
					],
					"name": "OwnershipTransferred",
					"type": "event"
				},
				{
					"anonymous": false,
					"inputs": [
						{
							"indexed": true,
							"internalType": "address",
							"name": "user",
							"type": "address"
						},
						{
							"indexed": false,
							"internalType": "uint256",
							"name": "amount",
							"type": "uint256"
						}
					],
					"name": "Redeemed",
					"type": "event"
				},
				{
					"anonymous": false,
					"inputs": [
						{
							"indexed": true,
							"internalType": "address",
							"name": "from",
							"type": "address"
						},
						{
							"indexed": true,
							"internalType": "address",
							"name": "to",
							"type": "address"
						},
						{
							"indexed": false,
							"internalType": "uint256",
							"name": "value",
							"type": "uint256"
						}
					],
					"name": "Transfer",
					"type": "event"
				},
				{
					"inputs": [],
					"name": "accrueInterest",
					"outputs": [],
					"stateMutability": "nonpayable",
					"type": "function"
				},
				{
					"inputs": [
						{
							"internalType": "address",
							"name": "owner",
							"type": "address"
						},
						{
							"internalType": "address",
							"name": "spender",
							"type": "address"
						}
					],
					"name": "allowance",
					"outputs": [
						{
							"internalType": "uint256",
							"name": "",
							"type": "uint256"
						}
					],
					"stateMutability": "view",
					"type": "function"
				},
				{
					"inputs": [
						{
							"internalType": "address",
							"name": "spender",
							"type": "address"
						},
						{
							"internalType": "uint256",
							"name": "value",
							"type": "uint256"
						}
					],
					"name": "approve",
					"outputs": [
						{
							"internalType": "bool",
							"name": "",
							"type": "bool"
						}
					],
					"stateMutability": "nonpayable",
					"type": "function"
				},
				{
					"inputs": [
						{
							"internalType": "address",
							"name": "account",
							"type": "address"
						}
					],
					"name": "balanceOf",
					"outputs": [
						{
							"internalType": "uint256",
							"name": "",
							"type": "uint256"
						}
					],
					"stateMutability": "view",
					"type": "function"
				},
				{
					"inputs": [
						{
							"internalType": "address",
							"name": "from",
							"type": "address"
						},
						{
							"internalType": "uint256",
							"name": "cUSDAmount",
							"type": "uint256"
						}
					],
					"name": "burnStableCoin",
					"outputs": [],
					"stateMutability": "nonpayable",
					"type": "function"
				},
				{
					"inputs": [],
					"name": "cBTC",
					"outputs": [
						{
							"internalType": "contract IERC20",
							"name": "",
							"type": "address"
						}
					],
					"stateMutability": "view",
					"type": "function"
				},
				{
					"inputs": [
						{
							"internalType": "address",
							"name": "",
							"type": "address"
						}
					],
					"name": "cBTCDeposits",
					"outputs": [
						{
							"internalType": "uint256",
							"name": "",
							"type": "uint256"
						}
					],
					"stateMutability": "view",
					"type": "function"
				},
				{
					"inputs": [],
					"name": "collateralRatio",
					"outputs": [
						{
							"internalType": "uint256",
							"name": "",
							"type": "uint256"
						}
					],
					"stateMutability": "view",
					"type": "function"
				},
				{
					"inputs": [],
					"name": "decimals",
					"outputs": [
						{
							"internalType": "uint8",
							"name": "",
							"type": "uint8"
						}
					],
					"stateMutability": "view",
					"type": "function"
				},
				{
					"inputs": [
						{
							"internalType": "address",
							"name": "user",
							"type": "address"
						},
						{
							"internalType": "uint256",
							"name": "amount",
							"type": "uint256"
						}
					],
					"name": "depositCollateral",
					"outputs": [],
					"stateMutability": "nonpayable",
					"type": "function"
				},
				{
					"inputs": [],
					"name": "getCollateralRatio",
					"outputs": [
						{
							"internalType": "uint256",
							"name": "",
							"type": "uint256"
						}
					],
					"stateMutability": "view",
					"type": "function"
				},
				{
					"inputs": [
						{
							"internalType": "address",
							"name": "user",
							"type": "address"
						}
					],
					"name": "getUserCollateral",
					"outputs": [
						{
							"internalType": "uint256",
							"name": "",
							"type": "uint256"
						}
					],
					"stateMutability": "view",
					"type": "function"
				},
				{
					"inputs": [],
					"name": "lastAccrualTime",
					"outputs": [
						{
							"internalType": "uint256",
							"name": "",
							"type": "uint256"
						}
					],
					"stateMutability": "view",
					"type": "function"
				},
				{
					"inputs": [
						{
							"internalType": "address",
							"name": "user",
							"type": "address"
						},
						{
							"internalType": "uint256",
							"name": "cUSDAmount",
							"type": "uint256"
						}
					],
					"name": "liquidate",
					"outputs": [],
					"stateMutability": "nonpayable",
					"type": "function"
				},
				{
					"inputs": [
						{
							"internalType": "address",
							"name": "to",
							"type": "address"
						},
						{
							"internalType": "uint256",
							"name": "cUSDAmount",
							"type": "uint256"
						}
					],
					"name": "mintStableCoin",
					"outputs": [],
					"stateMutability": "nonpayable",
					"type": "function"
				},
				{
					"inputs": [],
					"name": "name",
					"outputs": [
						{
							"internalType": "string",
							"name": "",
							"type": "string"
						}
					],
					"stateMutability": "view",
					"type": "function"
				},
				{
					"inputs": [],
					"name": "oracle",
					"outputs": [
						{
							"internalType": "contract IPriceOracle",
							"name": "",
							"type": "address"
						}
					],
					"stateMutability": "view",
					"type": "function"
				},
				{
					"inputs": [],
					"name": "owner",
					"outputs": [
						{
							"internalType": "address",
							"name": "",
							"type": "address"
						}
					],
					"stateMutability": "view",
					"type": "function"
				},
				{
					"inputs": [],
					"name": "renounceOwnership",
					"outputs": [],
					"stateMutability": "nonpayable",
					"type": "function"
				},
				{
					"inputs": [
						{
							"internalType": "uint256",
							"name": "_newRatio",
							"type": "uint256"
						}
					],
					"name": "setCollateralRatio",
					"outputs": [],
					"stateMutability": "nonpayable",
					"type": "function"
				},
				{
					"inputs": [
						{
							"internalType": "uint256",
							"name": "_newFee",
							"type": "uint256"
						}
					],
					"name": "setStabilityFee",
					"outputs": [],
					"stateMutability": "nonpayable",
					"type": "function"
				},
				{
					"inputs": [],
					"name": "stabilityFee",
					"outputs": [
						{
							"internalType": "uint256",
							"name": "",
							"type": "uint256"
						}
					],
					"stateMutability": "view",
					"type": "function"
				},
				{
					"inputs": [],
					"name": "symbol",
					"outputs": [
						{
							"internalType": "string",
							"name": "",
							"type": "string"
						}
					],
					"stateMutability": "view",
					"type": "function"
				},
				{
					"inputs": [],
					"name": "totalSupply",
					"outputs": [
						{
							"internalType": "uint256",
							"name": "",
							"type": "uint256"
						}
					],
					"stateMutability": "view",
					"type": "function"
				},
				{
					"inputs": [
						{
							"internalType": "address",
							"name": "to",
							"type": "address"
						},
						{
							"internalType": "uint256",
							"name": "value",
							"type": "uint256"
						}
					],
					"name": "transfer",
					"outputs": [
						{
							"internalType": "bool",
							"name": "",
							"type": "bool"
						}
					],
					"stateMutability": "nonpayable",
					"type": "function"
				},
				{
					"inputs": [
						{
							"internalType": "address",
							"name": "from",
							"type": "address"
						},
						{
							"internalType": "address",
							"name": "to",
							"type": "address"
						},
						{
							"internalType": "uint256",
							"name": "value",
							"type": "uint256"
						}
					],
					"name": "transferFrom",
					"outputs": [
						{
							"internalType": "bool",
							"name": "",
							"type": "bool"
						}
					],
					"stateMutability": "nonpayable",
					"type": "function"
				},
				{
					"inputs": [
						{
							"internalType": "address",
							"name": "newOwner",
							"type": "address"
						}
					],
					"name": "transferOwnership",
					"outputs": [],
					"stateMutability": "nonpayable",
					"type": "function"
				},
				{
					"inputs": [
						{
							"internalType": "address",
							"name": "user",
							"type": "address"
						},
						{
							"internalType": "uint256",
							"name": "amount",
							"type": "uint256"
						}
					],
					"name": "withdrawCollateral",
					"outputs": [],
					"stateMutability": "nonpayable",
					"type": "function"
				}
			],
			"devdoc": {
				"details": "A simple stablecoin implementation that uses cBTC as collateral.      Supports accruing a stability fee over time, minting, burning, and liquidation.",
				"errors": {
					"ERC20InsufficientAllowance(address,uint256,uint256)": [
						{
							"details": "Indicates a failure with the `spender`’s `allowance`. Used in transfers.",
							"params": {
								"allowance": "Amount of tokens a `spender` is allowed to operate with.",
								"needed": "Minimum amount required to perform a transfer.",
								"spender": "Address that may be allowed to operate on tokens without being their owner."
							}
						}
					],
					"ERC20InsufficientBalance(address,uint256,uint256)": [
						{
							"details": "Indicates an error related to the current `balance` of a `sender`. Used in transfers.",
							"params": {
								"balance": "Current balance for the interacting account.",
								"needed": "Minimum amount required to perform a transfer.",
								"sender": "Address whose tokens are being transferred."
							}
						}
					],
					"ERC20InvalidApprover(address)": [
						{
							"details": "Indicates a failure with the `approver` of a token to be approved. Used in approvals.",
							"params": {
								"approver": "Address initiating an approval operation."
							}
						}
					],
					"ERC20InvalidReceiver(address)": [
						{
							"details": "Indicates a failure with the token `receiver`. Used in transfers.",
							"params": {
								"receiver": "Address to which tokens are being transferred."
							}
						}
					],
					"ERC20InvalidSender(address)": [
						{
							"details": "Indicates a failure with the token `sender`. Used in transfers.",
							"params": {
								"sender": "Address whose tokens are being transferred."
							}
						}
					],
					"ERC20InvalidSpender(address)": [
						{
							"details": "Indicates a failure with the `spender` to be approved. Used in approvals.",
							"params": {
								"spender": "Address that may be allowed to operate on tokens without being their owner."
							}
						}
					],
					"OwnableInvalidOwner(address)": [
						{
							"details": "The owner is not a valid owner account. (eg. `address(0)`)"
						}
					],
					"OwnableUnauthorizedAccount(address)": [
						{
							"details": "The caller account is not authorized to perform an operation."
						}
					]
				},
				"events": {
					"Approval(address,address,uint256)": {
						"details": "Emitted when the allowance of a `spender` for an `owner` is set by a call to {approve}. `value` is the new allowance."
					},
					"Transfer(address,address,uint256)": {
						"details": "Emitted when `value` tokens are moved from one account (`from`) to another (`to`). Note that `value` may be zero."
					}
				},
				"kind": "dev",
				"methods": {
					"accrueInterest()": {
						"details": "Accrues interest on the stablecoin supply by minting stability fee to owner.      Stability fee accumulates over time, increasing total supply."
					},
					"allowance(address,address)": {
						"details": "See {IERC20-allowance}."
					},
					"approve(address,uint256)": {
						"details": "See {IERC20-approve}. NOTE: If `value` is the maximum `uint256`, the allowance is not updated on `transferFrom`. This is semantically equivalent to an infinite approval. Requirements: - `spender` cannot be the zero address."
					},
					"balanceOf(address)": {
						"details": "See {IERC20-balanceOf}."
					},
					"burnStableCoin(address,uint256)": {
						"details": "Burn stablecoins from the user's balance."
					},
					"decimals()": {
						"details": "Returns the number of decimals used to get its user representation. For example, if `decimals` equals `2`, a balance of `505` tokens should be displayed to a user as `5.05` (`505 / 10 ** 2`). Tokens usually opt for a value of 18, imitating the relationship between Ether and Wei. This is the default value returned by this function, unless it's overridden. NOTE: This information is only used for _display_ purposes: it in no way affects any of the arithmetic of the contract, including {IERC20-balanceOf} and {IERC20-transfer}."
					},
					"depositCollateral(address,uint256)": {
						"details": "Deposit cBTC as collateral."
					},
					"getUserCollateral(address)": {
						"details": "Get how much cBTC collateral a user has deposited."
					},
					"liquidate(address,uint256)": {
						"details": "Liquidate an undercollateralized user.      A liquidator repays a portion of the user's debt, and in return seizes collateral      at a discount."
					},
					"mintStableCoin(address,uint256)": {
						"details": "Mint stablecoins if the user has enough collateral."
					},
					"name()": {
						"details": "Returns the name of the token."
					},
					"owner()": {
						"details": "Returns the address of the current owner."
					},
					"renounceOwnership()": {
						"details": "Leaves the contract without owner. It will not be possible to call `onlyOwner` functions. Can only be called by the current owner. NOTE: Renouncing ownership will leave the contract without an owner, thereby disabling any functionality that is only available to the owner."
					},
					"setCollateralRatio(uint256)": {
						"details": "Owner can update collateral ratio."
					},
					"setStabilityFee(uint256)": {
						"details": "Owner can set the stability fee (annualized in bps)."
					},
					"symbol()": {
						"details": "Returns the symbol of the token, usually a shorter version of the name."
					},
					"totalSupply()": {
						"details": "See {IERC20-totalSupply}."
					},
					"transfer(address,uint256)": {
						"details": "See {IERC20-transfer}. Requirements: - `to` cannot be the zero address. - the caller must have a balance of at least `value`."
					},
					"transferFrom(address,address,uint256)": {
						"details": "See {IERC20-transferFrom}. Skips emitting an {Approval} event indicating an allowance update. This is not required by the ERC. See {xref-ERC20-_approve-address-address-uint256-bool-}[_approve]. NOTE: Does not update the allowance if the current allowance is the maximum `uint256`. Requirements: - `from` and `to` cannot be the zero address. - `from` must have a balance of at least `value`. - the caller must have allowance for ``from``'s tokens of at least `value`."
					},
					"transferOwnership(address)": {
						"details": "Transfers ownership of the contract to a new account (`newOwner`). Can only be called by the current owner."
					},
					"withdrawCollateral(address,uint256)": {
						"details": "Withdraw cBTC collateral as long as the user remains over-collateralized."
					}
				},
				"title": "StableCoin",
				"version": 1
			},
			"evm": {
				"assembly": "    /* \"contracts/StableCoin.sol\":494:7376  contract StableCoin is ERC20, Ownable, IStableCoin {... */\n  mstore(0x40, 0x80)\n    /* \"contracts/StableCoin.sol\":1257:1827  constructor(... */\n  callvalue\n  dup1\n  iszero\n  tag_1\n  jumpi\n  0x00\n  dup1\n  revert\ntag_1:\n  pop\n  mload(0x40)\n  sub(codesize, bytecodeSize)\n  dup1\n  bytecodeSize\n  dup4\n  codecopy\n  dup2\n  dup2\n  add\n  0x40\n  mstore\n  dup2\n  add\n  swap1\n  tag_2\n  swap2\n  swap1\n  tag_3\n  jump\t// in\ntag_2:\n    /* \"contracts/StableCoin.sol\":1424:1434  msg.sender */\n  caller\n    /* \"@openzeppelin/contracts/token/ERC20/ERC20.sol\":1601:1714  constructor(string memory name_, string memory symbol_) {... */\n  mload(0x40)\n  dup1\n  0x40\n  add\n  0x40\n  mstore\n  dup1\n  0x0a\n  dup2\n  mstore\n  0x20\n  add\n  0x4369747265612055534400000000000000000000000000000000000000000000\n  dup2\n  mstore\n  pop\n  mload(0x40)\n  dup1\n  0x40\n  add\n  0x40\n  mstore\n  dup1\n  0x04\n  dup2\n  mstore\n  0x20\n  add\n  0x6355534400000000000000000000000000000000000000000000000000000000\n  dup2\n  mstore\n  pop\n    /* \"@openzeppelin/contracts/token/ERC20/ERC20.sol\":1675:1680  name_ */\n  dup2\n    /* \"@openzeppelin/contracts/token/ERC20/ERC20.sol\":1667:1672  _name */\n  0x03\n    /* \"@openzeppelin/contracts/token/ERC20/ERC20.sol\":1667:1680  _name = name_ */\n  swap1\n  dup2\n  tag_8\n  swap2\n  swap1\n  tag_9\n  jump\t// in\ntag_8:\n  pop\n    /* \"@openzeppelin/contracts/token/ERC20/ERC20.sol\":1700:1707  symbol_ */\n  dup1\n    /* \"@openzeppelin/contracts/token/ERC20/ERC20.sol\":1690:1697  _symbol */\n  0x04\n    /* \"@openzeppelin/contracts/token/ERC20/ERC20.sol\":1690:1707  _symbol = symbol_ */\n  swap1\n  dup2\n  tag_10\n  swap2\n  swap1\n  tag_9\n  jump\t// in\ntag_10:\n  pop\n    /* \"@openzeppelin/contracts/token/ERC20/ERC20.sol\":1601:1714  constructor(string memory name_, string memory symbol_) {... */\n  pop\n  pop\n    /* \"@openzeppelin/contracts/access/Ownable.sol\":1297:1298  0 */\n  0x00\n    /* \"@openzeppelin/contracts/access/Ownable.sol\":1273:1299  initialOwner == address(0) */\n  0xffffffffffffffffffffffffffffffffffffffff\n  and\n    /* \"@openzeppelin/contracts/access/Ownable.sol\":1273:1285  initialOwner */\n  dup2\n    /* \"@openzeppelin/contracts/access/Ownable.sol\":1273:1299  initialOwner == address(0) */\n  0xffffffffffffffffffffffffffffffffffffffff\n  and\n  sub\n    /* \"@openzeppelin/contracts/access/Ownable.sol\":1269:1364  if (initialOwner == address(0)) {... */\n  tag_12\n  jumpi\n    /* \"@openzeppelin/contracts/access/Ownable.sol\":1350:1351  0 */\n  0x00\n    /* \"@openzeppelin/contracts/access/Ownable.sol\":1322:1353  OwnableInvalidOwner(address(0)) */\n  mload(0x40)\n  0x1e4fbdf700000000000000000000000000000000000000000000000000000000\n  dup2\n  mstore\n  0x04\n  add\n  tag_13\n  swap2\n  swap1\n  tag_14\n  jump\t// in\ntag_13:\n  mload(0x40)\n  dup1\n  swap2\n  sub\n  swap1\n  revert\n    /* \"@openzeppelin/contracts/access/Ownable.sol\":1269:1364  if (initialOwner == address(0)) {... */\ntag_12:\n    /* \"@openzeppelin/contracts/access/Ownable.sol\":1373:1405  _transferOwnership(initialOwner) */\n  tag_15\n    /* \"@openzeppelin/contracts/access/Ownable.sol\":1392:1404  initialOwner */\n  dup2\n    /* \"@openzeppelin/contracts/access/Ownable.sol\":1373:1391  _transferOwnership */\n  shl(0x20, tag_16)\n    /* \"@openzeppelin/contracts/access/Ownable.sol\":1373:1405  _transferOwnership(initialOwner) */\n  0x20\n  shr\n  jump\t// in\ntag_15:\n    /* \"@openzeppelin/contracts/access/Ownable.sol\":1225:1412  constructor(address initialOwner) {... */\n  pop\n    /* \"contracts/StableCoin.sol\":1471:1472  0 */\n  0x00\n    /* \"contracts/StableCoin.sol\":1454:1473  _cBTC != address(0) */\n  0xffffffffffffffffffffffffffffffffffffffff\n  and\n    /* \"contracts/StableCoin.sol\":1454:1459  _cBTC */\n  dup5\n    /* \"contracts/StableCoin.sol\":1454:1473  _cBTC != address(0) */\n  0xffffffffffffffffffffffffffffffffffffffff\n  and\n  sub\n    /* \"contracts/StableCoin.sol\":1446:1498  require(_cBTC != address(0), \"Invalid cBTC address\") */\n  tag_18\n  jumpi\n  mload(0x40)\n  0x08c379a000000000000000000000000000000000000000000000000000000000\n  dup2\n  mstore\n  0x04\n  add\n  tag_19\n  swap1\n  tag_20\n  jump\t// in\ntag_19:\n  mload(0x40)\n  dup1\n  swap2\n  sub\n  swap1\n  revert\ntag_18:\n    /* \"contracts/StableCoin.sol\":1535:1536  0 */\n  0x00\n    /* \"contracts/StableCoin.sol\":1516:1537  _oracle != address(0) */\n  0xffffffffffffffffffffffffffffffffffffffff\n  and\n    /* \"contracts/StableCoin.sol\":1516:1523  _oracle */\n  dup3\n    /* \"contracts/StableCoin.sol\":1516:1537  _oracle != address(0) */\n  0xffffffffffffffffffffffffffffffffffffffff\n  and\n  sub\n    /* \"contracts/StableCoin.sol\":1508:1556  require(_oracle != address(0), \"Invalid oracle\") */\n  tag_21\n  jumpi\n  mload(0x40)\n  0x08c379a000000000000000000000000000000000000000000000000000000000\n  dup2\n  mstore\n  0x04\n  add\n  tag_22\n  swap1\n  tag_23\n  jump\t// in\ntag_22:\n  mload(0x40)\n  dup1\n  swap2\n  sub\n  swap1\n  revert\ntag_21:\n    /* \"contracts/StableCoin.sol\":1594:1598  1e18 */\n  0x0de0b6b3a7640000\n    /* \"contracts/StableCoin.sol\":1574:1590  _collateralRatio */\n  dup4\n    /* \"contracts/StableCoin.sol\":1574:1598  _collateralRatio >= 1e18 */\n  lt\n  iszero\n    /* \"contracts/StableCoin.sol\":1566:1624  require(_collateralRatio >= 1e18, \"Ratio must be >= 100%\") */\n  tag_24\n  jumpi\n  mload(0x40)\n  0x08c379a000000000000000000000000000000000000000000000000000000000\n  dup2\n  mstore\n  0x04\n  add\n  tag_25\n  swap1\n  tag_26\n  jump\t// in\ntag_25:\n  mload(0x40)\n  dup1\n  swap2\n  sub\n  swap1\n  revert\ntag_24:\n    /* \"contracts/StableCoin.sol\":1649:1654  _cBTC */\n  dup4\n    /* \"contracts/StableCoin.sol\":1635:1639  cBTC */\n  0x06\n  0x00\n    /* \"contracts/StableCoin.sol\":1635:1655  cBTC = IERC20(_cBTC) */\n  0x0100\n  exp\n  dup2\n  sload\n  dup2\n  0xffffffffffffffffffffffffffffffffffffffff\n  mul\n  not\n  and\n  swap1\n  dup4\n  0xffffffffffffffffffffffffffffffffffffffff\n  and\n  mul\n  or\n  swap1\n  sstore\n  pop\n    /* \"contracts/StableCoin.sol\":1683:1699  _collateralRatio */\n  dup3\n    /* \"contracts/StableCoin.sol\":1665:1680  collateralRatio */\n  0x08\n    /* \"contracts/StableCoin.sol\":1665:1699  collateralRatio = _collateralRatio */\n  dup2\n  swap1\n  sstore\n  pop\n    /* \"contracts/StableCoin.sol\":1731:1738  _oracle */\n  dup2\n    /* \"contracts/StableCoin.sol\":1709:1715  oracle */\n  0x07\n  0x00\n    /* \"contracts/StableCoin.sol\":1709:1739  oracle = IPriceOracle(_oracle) */\n  0x0100\n  exp\n  dup2\n  sload\n  dup2\n  0xffffffffffffffffffffffffffffffffffffffff\n  mul\n  not\n  and\n  swap1\n  dup4\n  0xffffffffffffffffffffffffffffffffffffffff\n  and\n  mul\n  or\n  swap1\n  sstore\n  pop\n    /* \"contracts/StableCoin.sol\":1764:1777  _stabilityFee */\n  dup1\n    /* \"contracts/StableCoin.sol\":1749:1761  stabilityFee */\n  0x09\n    /* \"contracts/StableCoin.sol\":1749:1777  stabilityFee = _stabilityFee */\n  dup2\n  swap1\n  sstore\n  pop\n    /* \"contracts/StableCoin.sol\":1805:1820  block.timestamp */\n  timestamp\n    /* \"contracts/StableCoin.sol\":1787:1802  lastAccrualTime */\n  0x0a\n    /* \"contracts/StableCoin.sol\":1787:1820  lastAccrualTime = block.timestamp */\n  dup2\n  swap1\n  sstore\n  pop\n    /* \"contracts/StableCoin.sol\":1257:1827  constructor(... */\n  pop\n  pop\n  pop\n  pop\n    /* \"contracts/StableCoin.sol\":494:7376  contract StableCoin is ERC20, Ownable, IStableCoin {... */\n  jump(tag_27)\n    /* \"@openzeppelin/contracts/access/Ownable.sol\":2912:3099  function _transferOwnership(address newOwner) internal virtual {... */\ntag_16:\n    /* \"@openzeppelin/contracts/access/Ownable.sol\":2985:3001  address oldOwner */\n  0x00\n    /* \"@openzeppelin/contracts/access/Ownable.sol\":3004:3010  _owner */\n  0x05\n  0x00\n  swap1\n  sload\n  swap1\n  0x0100\n  exp\n  swap1\n  div\n  0xffffffffffffffffffffffffffffffffffffffff\n  and\n    /* \"@openzeppelin/contracts/access/Ownable.sol\":2985:3010  address oldOwner = _owner */\n  swap1\n  pop\n    /* \"@openzeppelin/contracts/access/Ownable.sol\":3029:3037  newOwner */\n  dup2\n    /* \"@openzeppelin/contracts/access/Ownable.sol\":3020:3026  _owner */\n  0x05\n  0x00\n    /* \"@openzeppelin/contracts/access/Ownable.sol\":3020:3037  _owner = newOwner */\n  0x0100\n  exp\n  dup2\n  sload\n  dup2\n  0xffffffffffffffffffffffffffffffffffffffff\n  mul\n  not\n  and\n  swap1\n  dup4\n  0xffffffffffffffffffffffffffffffffffffffff\n  and\n  mul\n  or\n  swap1\n  sstore\n  pop\n    /* \"@openzeppelin/contracts/access/Ownable.sol\":3083:3091  newOwner */\n  dup2\n    /* \"@openzeppelin/contracts/access/Ownable.sol\":3052:3092  OwnershipTransferred(oldOwner, newOwner) */\n  0xffffffffffffffffffffffffffffffffffffffff\n  and\n    /* \"@openzeppelin/contracts/access/Ownable.sol\":3073:3081  oldOwner */\n  dup2\n    /* \"@openzeppelin/contracts/access/Ownable.sol\":3052:3092  OwnershipTransferred(oldOwner, newOwner) */\n  0xffffffffffffffffffffffffffffffffffffffff\n  and\n  0x8be0079c531659141344cd1fd0a4f28419497f9722a3daafe3b4186f6b6457e0\n  mload(0x40)\n  mload(0x40)\n  dup1\n  swap2\n  sub\n  swap1\n  log3\n    /* \"@openzeppelin/contracts/access/Ownable.sol\":2975:3099  {... */\n  pop\n    /* \"@openzeppelin/contracts/access/Ownable.sol\":2912:3099  function _transferOwnership(address newOwner) internal virtual {... */\n  pop\n  jump\t// out\n    /* \"#utility.yul\":88:205   */\ntag_30:\n    /* \"#utility.yul\":197:198   */\n  0x00\n    /* \"#utility.yul\":194:195   */\n  dup1\n    /* \"#utility.yul\":187:199   */\n  revert\n    /* \"#utility.yul\":334:460   */\ntag_32:\n    /* \"#utility.yul\":371:378   */\n  0x00\n    /* \"#utility.yul\":411:453   */\n  0xffffffffffffffffffffffffffffffffffffffff\n    /* \"#utility.yul\":404:409   */\n  dup3\n    /* \"#utility.yul\":400:454   */\n  and\n    /* \"#utility.yul\":389:454   */\n  swap1\n  pop\n    /* \"#utility.yul\":334:460   */\n  swap2\n  swap1\n  pop\n  jump\t// out\n    /* \"#utility.yul\":466:562   */\ntag_33:\n    /* \"#utility.yul\":503:510   */\n  0x00\n    /* \"#utility.yul\":532:556   */\n  tag_72\n    /* \"#utility.yul\":550:555   */\n  dup3\n    /* \"#utility.yul\":532:556   */\n  tag_32\n  jump\t// in\ntag_72:\n    /* \"#utility.yul\":521:556   */\n  swap1\n  pop\n    /* \"#utility.yul\":466:562   */\n  swap2\n  swap1\n  pop\n  jump\t// out\n    /* \"#utility.yul\":568:690   */\ntag_34:\n    /* \"#utility.yul\":641:665   */\n  tag_74\n    /* \"#utility.yul\":659:664   */\n  dup2\n    /* \"#utility.yul\":641:665   */\n  tag_33\n  jump\t// in\ntag_74:\n    /* \"#utility.yul\":634:639   */\n  dup2\n    /* \"#utility.yul\":631:666   */\n  eq\n    /* \"#utility.yul\":621:684   */\n  tag_75\n  jumpi\n    /* \"#utility.yul\":680:681   */\n  0x00\n    /* \"#utility.yul\":677:678   */\n  dup1\n    /* \"#utility.yul\":670:682   */\n  revert\n    /* \"#utility.yul\":621:684   */\ntag_75:\n    /* \"#utility.yul\":568:690   */\n  pop\n  jump\t// out\n    /* \"#utility.yul\":696:839   */\ntag_35:\n    /* \"#utility.yul\":753:758   */\n  0x00\n    /* \"#utility.yul\":784:790   */\n  dup2\n    /* \"#utility.yul\":778:791   */\n  mload\n    /* \"#utility.yul\":769:791   */\n  swap1\n  pop\n    /* \"#utility.yul\":800:833   */\n  tag_77\n    /* \"#utility.yul\":827:832   */\n  dup2\n    /* \"#utility.yul\":800:833   */\n  tag_34\n  jump\t// in\ntag_77:\n    /* \"#utility.yul\":696:839   */\n  swap3\n  swap2\n  pop\n  pop\n  jump\t// out\n    /* \"#utility.yul\":845:922   */\ntag_36:\n    /* \"#utility.yul\":882:889   */\n  0x00\n    /* \"#utility.yul\":911:916   */\n  dup2\n    /* \"#utility.yul\":900:916   */\n  swap1\n  pop\n    /* \"#utility.yul\":845:922   */\n  swap2\n  swap1\n  pop\n  jump\t// out\n    /* \"#utility.yul\":928:1050   */\ntag_37:\n    /* \"#utility.yul\":1001:1025   */\n  tag_80\n    /* \"#utility.yul\":1019:1024   */\n  dup2\n    /* \"#utility.yul\":1001:1025   */\n  tag_36\n  jump\t// in\ntag_80:\n    /* \"#utility.yul\":994:999   */\n  dup2\n    /* \"#utility.yul\":991:1026   */\n  eq\n    /* \"#utility.yul\":981:1044   */\n  tag_81\n  jumpi\n    /* \"#utility.yul\":1040:1041   */\n  0x00\n    /* \"#utility.yul\":1037:1038   */\n  dup1\n    /* \"#utility.yul\":1030:1042   */\n  revert\n    /* \"#utility.yul\":981:1044   */\ntag_81:\n    /* \"#utility.yul\":928:1050   */\n  pop\n  jump\t// out\n    /* \"#utility.yul\":1056:1199   */\ntag_38:\n    /* \"#utility.yul\":1113:1118   */\n  0x00\n    /* \"#utility.yul\":1144:1150   */\n  dup2\n    /* \"#utility.yul\":1138:1151   */\n  mload\n    /* \"#utility.yul\":1129:1151   */\n  swap1\n  pop\n    /* \"#utility.yul\":1160:1193   */\n  tag_83\n    /* \"#utility.yul\":1187:1192   */\n  dup2\n    /* \"#utility.yul\":1160:1193   */\n  tag_37\n  jump\t// in\ntag_83:\n    /* \"#utility.yul\":1056:1199   */\n  swap3\n  swap2\n  pop\n  pop\n  jump\t// out\n    /* \"#utility.yul\":1205:2025   */\ntag_3:\n    /* \"#utility.yul\":1302:1308   */\n  0x00\n    /* \"#utility.yul\":1310:1316   */\n  dup1\n    /* \"#utility.yul\":1318:1324   */\n  0x00\n    /* \"#utility.yul\":1326:1332   */\n  dup1\n    /* \"#utility.yul\":1375:1378   */\n  0x80\n    /* \"#utility.yul\":1363:1372   */\n  dup6\n    /* \"#utility.yul\":1354:1361   */\n  dup8\n    /* \"#utility.yul\":1350:1373   */\n  sub\n    /* \"#utility.yul\":1346:1379   */\n  slt\n    /* \"#utility.yul\":1343:1463   */\n  iszero\n  tag_85\n  jumpi\n    /* \"#utility.yul\":1382:1461   */\n  tag_86\n  tag_30\n  jump\t// in\ntag_86:\n    /* \"#utility.yul\":1343:1463   */\ntag_85:\n    /* \"#utility.yul\":1502:1503   */\n  0x00\n    /* \"#utility.yul\":1527:1591   */\n  tag_87\n    /* \"#utility.yul\":1583:1590   */\n  dup8\n    /* \"#utility.yul\":1574:1580   */\n  dup3\n    /* \"#utility.yul\":1563:1572   */\n  dup9\n    /* \"#utility.yul\":1559:1581   */\n  add\n    /* \"#utility.yul\":1527:1591   */\n  tag_35\n  jump\t// in\ntag_87:\n    /* \"#utility.yul\":1517:1591   */\n  swap5\n  pop\n    /* \"#utility.yul\":1473:1601   */\n  pop\n    /* \"#utility.yul\":1640:1642   */\n  0x20\n    /* \"#utility.yul\":1666:1730   */\n  tag_88\n    /* \"#utility.yul\":1722:1729   */\n  dup8\n    /* \"#utility.yul\":1713:1719   */\n  dup3\n    /* \"#utility.yul\":1702:1711   */\n  dup9\n    /* \"#utility.yul\":1698:1720   */\n  add\n    /* \"#utility.yul\":1666:1730   */\n  tag_38\n  jump\t// in\ntag_88:\n    /* \"#utility.yul\":1656:1730   */\n  swap4\n  pop\n    /* \"#utility.yul\":1611:1740   */\n  pop\n    /* \"#utility.yul\":1779:1781   */\n  0x40\n    /* \"#utility.yul\":1805:1869   */\n  tag_89\n    /* \"#utility.yul\":1861:1868   */\n  dup8\n    /* \"#utility.yul\":1852:1858   */\n  dup3\n    /* \"#utility.yul\":1841:1850   */\n  dup9\n    /* \"#utility.yul\":1837:1859   */\n  add\n    /* \"#utility.yul\":1805:1869   */\n  tag_35\n  jump\t// in\ntag_89:\n    /* \"#utility.yul\":1795:1869   */\n  swap3\n  pop\n    /* \"#utility.yul\":1750:1879   */\n  pop\n    /* \"#utility.yul\":1918:1920   */\n  0x60\n    /* \"#utility.yul\":1944:2008   */\n  tag_90\n    /* \"#utility.yul\":2000:2007   */\n  dup8\n    /* \"#utility.yul\":1991:1997   */\n  dup3\n    /* \"#utility.yul\":1980:1989   */\n  dup9\n    /* \"#utility.yul\":1976:1998   */\n  add\n    /* \"#utility.yul\":1944:2008   */\n  tag_38\n  jump\t// in\ntag_90:\n    /* \"#utility.yul\":1934:2008   */\n  swap2\n  pop\n    /* \"#utility.yul\":1889:2018   */\n  pop\n    /* \"#utility.yul\":1205:2025   */\n  swap3\n  swap6\n  swap2\n  swap5\n  pop\n  swap3\n  pop\n  jump\t// out\n    /* \"#utility.yul\":2031:2130   */\ntag_39:\n    /* \"#utility.yul\":2083:2089   */\n  0x00\n    /* \"#utility.yul\":2117:2122   */\n  dup2\n    /* \"#utility.yul\":2111:2123   */\n  mload\n    /* \"#utility.yul\":2101:2123   */\n  swap1\n  pop\n    /* \"#utility.yul\":2031:2130   */\n  swap2\n  swap1\n  pop\n  jump\t// out\n    /* \"#utility.yul\":2136:2316   */\ntag_40:\n    /* \"#utility.yul\":2184:2261   */\n  0x4e487b7100000000000000000000000000000000000000000000000000000000\n    /* \"#utility.yul\":2181:2182   */\n  0x00\n    /* \"#utility.yul\":2174:2262   */\n  mstore\n    /* \"#utility.yul\":2281:2285   */\n  0x41\n    /* \"#utility.yul\":2278:2279   */\n  0x04\n    /* \"#utility.yul\":2271:2286   */\n  mstore\n    /* \"#utility.yul\":2305:2309   */\n  0x24\n    /* \"#utility.yul\":2302:2303   */\n  0x00\n    /* \"#utility.yul\":2295:2310   */\n  revert\n    /* \"#utility.yul\":2322:2502   */\ntag_41:\n    /* \"#utility.yul\":2370:2447   */\n  0x4e487b7100000000000000000000000000000000000000000000000000000000\n    /* \"#utility.yul\":2367:2368   */\n  0x00\n    /* \"#utility.yul\":2360:2448   */\n  mstore\n    /* \"#utility.yul\":2467:2471   */\n  0x22\n    /* \"#utility.yul\":2464:2465   */\n  0x04\n    /* \"#utility.yul\":2457:2472   */\n  mstore\n    /* \"#utility.yul\":2491:2495   */\n  0x24\n    /* \"#utility.yul\":2488:2489   */\n  0x00\n    /* \"#utility.yul\":2481:2496   */\n  revert\n    /* \"#utility.yul\":2508:2828   */\ntag_42:\n    /* \"#utility.yul\":2552:2558   */\n  0x00\n    /* \"#utility.yul\":2589:2590   */\n  0x02\n    /* \"#utility.yul\":2583:2587   */\n  dup3\n    /* \"#utility.yul\":2579:2591   */\n  div\n    /* \"#utility.yul\":2569:2591   */\n  swap1\n  pop\n    /* \"#utility.yul\":2636:2637   */\n  0x01\n    /* \"#utility.yul\":2630:2634   */\n  dup3\n    /* \"#utility.yul\":2626:2638   */\n  and\n    /* \"#utility.yul\":2657:2675   */\n  dup1\n    /* \"#utility.yul\":2647:2728   */\n  tag_95\n  jumpi\n    /* \"#utility.yul\":2713:2717   */\n  0x7f\n    /* \"#utility.yul\":2705:2711   */\n  dup3\n    /* \"#utility.yul\":2701:2718   */\n  and\n    /* \"#utility.yul\":2691:2718   */\n  swap2\n  pop\n    /* \"#utility.yul\":2647:2728   */\ntag_95:\n    /* \"#utility.yul\":2775:2777   */\n  0x20\n    /* \"#utility.yul\":2767:2773   */\n  dup3\n    /* \"#utility.yul\":2764:2778   */\n  lt\n    /* \"#utility.yul\":2744:2762   */\n  dup2\n    /* \"#utility.yul\":2741:2779   */\n  sub\n    /* \"#utility.yul\":2738:2822   */\n  tag_96\n  jumpi\n    /* \"#utility.yul\":2794:2812   */\n  tag_97\n  tag_41\n  jump\t// in\ntag_97:\n    /* \"#utility.yul\":2738:2822   */\ntag_96:\n    /* \"#utility.yul\":2559:2828   */\n  pop\n    /* \"#utility.yul\":2508:2828   */\n  swap2\n  swap1\n  pop\n  jump\t// out\n    /* \"#utility.yul\":2834:2975   */\ntag_43:\n    /* \"#utility.yul\":2883:2887   */\n  0x00\n    /* \"#utility.yul\":2906:2909   */\n  dup2\n    /* \"#utility.yul\":2898:2909   */\n  swap1\n  pop\n    /* \"#utility.yul\":2929:2932   */\n  dup2\n    /* \"#utility.yul\":2926:2927   */\n  0x00\n    /* \"#utility.yul\":2919:2933   */\n  mstore\n    /* \"#utility.yul\":2963:2967   */\n  0x20\n    /* \"#utility.yul\":2960:2961   */\n  0x00\n    /* \"#utility.yul\":2950:2968   */\n  keccak256\n    /* \"#utility.yul\":2942:2968   */\n  swap1\n  pop\n    /* \"#utility.yul\":2834:2975   */\n  swap2\n  swap1\n  pop\n  jump\t// out\n    /* \"#utility.yul\":2981:3074   */\ntag_44:\n    /* \"#utility.yul\":3018:3024   */\n  0x00\n    /* \"#utility.yul\":3065:3067   */\n  0x20\n    /* \"#utility.yul\":3060:3062   */\n  0x1f\n    /* \"#utility.yul\":3053:3058   */\n  dup4\n    /* \"#utility.yul\":3049:3063   */\n  add\n    /* \"#utility.yul\":3045:3068   */\n  div\n    /* \"#utility.yul\":3035:3068   */\n  swap1\n  pop\n    /* \"#utility.yul\":2981:3074   */\n  swap2\n  swap1\n  pop\n  jump\t// out\n    /* \"#utility.yul\":3080:3187   */\ntag_45:\n    /* \"#utility.yul\":3124:3132   */\n  0x00\n    /* \"#utility.yul\":3174:3179   */\n  dup3\n    /* \"#utility.yul\":3168:3172   */\n  dup3\n    /* \"#utility.yul\":3164:3180   */\n  shl\n    /* \"#utility.yul\":3143:3180   */\n  swap1\n  pop\n    /* \"#utility.yul\":3080:3187   */\n  swap3\n  swap2\n  pop\n  pop\n  jump\t// out\n    /* \"#utility.yul\":3193:3586   */\ntag_46:\n    /* \"#utility.yul\":3262:3268   */\n  0x00\n    /* \"#utility.yul\":3312:3313   */\n  0x08\n    /* \"#utility.yul\":3300:3310   */\n  dup4\n    /* \"#utility.yul\":3296:3314   */\n  mul\n    /* \"#utility.yul\":3335:3432   */\n  tag_102\n    /* \"#utility.yul\":3365:3431   */\n  0xffffffffffffffffffffffffffffffffffffffffffffffffffffffffffffffff\n    /* \"#utility.yul\":3354:3363   */\n  dup3\n    /* \"#utility.yul\":3335:3432   */\n  tag_45\n  jump\t// in\ntag_102:\n    /* \"#utility.yul\":3453:3492   */\n  tag_103\n    /* \"#utility.yul\":3483:3491   */\n  dup7\n    /* \"#utility.yul\":3472:3481   */\n  dup4\n    /* \"#utility.yul\":3453:3492   */\n  tag_45\n  jump\t// in\ntag_103:\n    /* \"#utility.yul\":3441:3492   */\n  swap6\n  pop\n    /* \"#utility.yul\":3525:3529   */\n  dup1\n    /* \"#utility.yul\":3521:3530   */\n  not\n    /* \"#utility.yul\":3514:3519   */\n  dup5\n    /* \"#utility.yul\":3510:3531   */\n  and\n    /* \"#utility.yul\":3501:3531   */\n  swap4\n  pop\n    /* \"#utility.yul\":3574:3578   */\n  dup1\n    /* \"#utility.yul\":3564:3572   */\n  dup7\n    /* \"#utility.yul\":3560:3579   */\n  and\n    /* \"#utility.yul\":3553:3558   */\n  dup5\n    /* \"#utility.yul\":3550:3580   */\n  or\n    /* \"#utility.yul\":3540:3580   */\n  swap3\n  pop\n    /* \"#utility.yul\":3269:3586   */\n  pop\n  pop\n    /* \"#utility.yul\":3193:3586   */\n  swap4\n  swap3\n  pop\n  pop\n  pop\n  jump\t// out\n    /* \"#utility.yul\":3592:3652   */\ntag_47:\n    /* \"#utility.yul\":3620:3623   */\n  0x00\n    /* \"#utility.yul\":3641:3646   */\n  dup2\n    /* \"#utility.yul\":3634:3646   */\n  swap1\n  pop\n    /* \"#utility.yul\":3592:3652   */\n  swap2\n  swap1\n  pop\n  jump\t// out\n    /* \"#utility.yul\":3658:3800   */\ntag_48:\n    /* \"#utility.yul\":3708:3717   */\n  0x00\n    /* \"#utility.yul\":3741:3794   */\n  tag_106\n    /* \"#utility.yul\":3759:3793   */\n  tag_107\n    /* \"#utility.yul\":3768:3792   */\n  tag_108\n    /* \"#utility.yul\":3786:3791   */\n  dup5\n    /* \"#utility.yul\":3768:3792   */\n  tag_36\n  jump\t// in\ntag_108:\n    /* \"#utility.yul\":3759:3793   */\n  tag_47\n  jump\t// in\ntag_107:\n    /* \"#utility.yul\":3741:3794   */\n  tag_36\n  jump\t// in\ntag_106:\n    /* \"#utility.yul\":3728:3794   */\n  swap1\n  pop\n    /* \"#utility.yul\":3658:3800   */\n  swap2\n  swap1\n  pop\n  jump\t// out\n    /* \"#utility.yul\":3806:3881   */\ntag_49:\n    /* \"#utility.yul\":3849:3852   */\n  0x00\n    /* \"#utility.yul\":3870:3875   */\n  dup2\n    /* \"#utility.yul\":3863:3875   */\n  swap1\n  pop\n    /* \"#utility.yul\":3806:3881   */\n  swap2\n  swap1\n  pop\n  jump\t// out\n    /* \"#utility.yul\":3887:4156   */\ntag_50:\n    /* \"#utility.yul\":3997:4036   */\n  tag_111\n    /* \"#utility.yul\":4028:4035   */\n  dup4\n    /* \"#utility.yul\":3997:4036   */\n  tag_48\n  jump\t// in\ntag_111:\n    /* \"#utility.yul\":4058:4149   */\n  tag_112\n    /* \"#utility.yul\":4107:4148   */\n  tag_113\n    /* \"#utility.yul\":4131:4147   */\n  dup3\n    /* \"#utility.yul\":4107:4148   */\n  tag_49\n  jump\t// in\ntag_113:\n    /* \"#utility.yul\":4099:4105   */\n  dup5\n    /* \"#utility.yul\":4092:4096   */\n  dup5\n    /* \"#utility.yul\":4086:4097   */\n  sload\n    /* \"#utility.yul\":4058:4149   */\n  tag_46\n  jump\t// in\ntag_112:\n    /* \"#utility.yul\":4052:4056   */\n  dup3\n    /* \"#utility.yul\":4045:4150   */\n  sstore\n    /* \"#utility.yul\":3963:4156   */\n  pop\n    /* \"#utility.yul\":3887:4156   */\n  pop\n  pop\n  pop\n  jump\t// out\n    /* \"#utility.yul\":4162:4235   */\ntag_51:\n    /* \"#utility.yul\":4207:4210   */\n  0x00\n    /* \"#utility.yul\":4162:4235   */\n  swap1\n  jump\t// out\n    /* \"#utility.yul\":4241:4430   */\ntag_52:\n    /* \"#utility.yul\":4318:4350   */\n  tag_116\n  tag_51\n  jump\t// in\ntag_116:\n    /* \"#utility.yul\":4359:4424   */\n  tag_117\n    /* \"#utility.yul\":4417:4423   */\n  dup2\n    /* \"#utility.yul\":4409:4415   */\n  dup5\n    /* \"#utility.yul\":4403:4407   */\n  dup5\n    /* \"#utility.yul\":4359:4424   */\n  tag_50\n  jump\t// in\ntag_117:\n    /* \"#utility.yul\":4294:4430   */\n  pop\n    /* \"#utility.yul\":4241:4430   */\n  pop\n  pop\n  jump\t// out\n    /* \"#utility.yul\":4436:4622   */\ntag_53:\n    /* \"#utility.yul\":4496:4616   */\ntag_119:\n    /* \"#utility.yul\":4513:4516   */\n  dup2\n    /* \"#utility.yul\":4506:4511   */\n  dup2\n    /* \"#utility.yul\":4503:4517   */\n  lt\n    /* \"#utility.yul\":4496:4616   */\n  iszero\n  tag_121\n  jumpi\n    /* \"#utility.yul\":4567:4606   */\n  tag_122\n    /* \"#utility.yul\":4604:4605   */\n  0x00\n    /* \"#utility.yul\":4597:4602   */\n  dup3\n    /* \"#utility.yul\":4567:4606   */\n  tag_52\n  jump\t// in\ntag_122:\n    /* \"#utility.yul\":4540:4541   */\n  0x01\n    /* \"#utility.yul\":4533:4538   */\n  dup2\n    /* \"#utility.yul\":4529:4542   */\n  add\n    /* \"#utility.yul\":4520:4542   */\n  swap1\n  pop\n    /* \"#utility.yul\":4496:4616   */\n  jump(tag_119)\ntag_121:\n    /* \"#utility.yul\":4436:4622   */\n  pop\n  pop\n  jump\t// out\n    /* \"#utility.yul\":4628:5171   */\ntag_54:\n    /* \"#utility.yul\":4729:4731   */\n  0x1f\n    /* \"#utility.yul\":4724:4727   */\n  dup3\n    /* \"#utility.yul\":4721:4732   */\n  gt\n    /* \"#utility.yul\":4718:5164   */\n  iszero\n  tag_124\n  jumpi\n    /* \"#utility.yul\":4763:4801   */\n  tag_125\n    /* \"#utility.yul\":4795:4800   */\n  dup2\n    /* \"#utility.yul\":4763:4801   */\n  tag_43\n  jump\t// in\ntag_125:\n    /* \"#utility.yul\":4847:4876   */\n  tag_126\n    /* \"#utility.yul\":4865:4875   */\n  dup5\n    /* \"#utility.yul\":4847:4876   */\n  tag_44\n  jump\t// in\ntag_126:\n    /* \"#utility.yul\":4837:4845   */\n  dup2\n    /* \"#utility.yul\":4833:4877   */\n  add\n    /* \"#utility.yul\":5030:5032   */\n  0x20\n    /* \"#utility.yul\":5018:5028   */\n  dup6\n    /* \"#utility.yul\":5015:5033   */\n  lt\n    /* \"#utility.yul\":5012:5061   */\n  iszero\n  tag_127\n  jumpi\n    /* \"#utility.yul\":5051:5059   */\n  dup2\n    /* \"#utility.yul\":5036:5059   */\n  swap1\n  pop\n    /* \"#utility.yul\":5012:5061   */\ntag_127:\n    /* \"#utility.yul\":5074:5154   */\n  tag_128\n    /* \"#utility.yul\":5130:5152   */\n  tag_129\n    /* \"#utility.yul\":5148:5151   */\n  dup6\n    /* \"#utility.yul\":5130:5152   */\n  tag_44\n  jump\t// in\ntag_129:\n    /* \"#utility.yul\":5120:5128   */\n  dup4\n    /* \"#utility.yul\":5116:5153   */\n  add\n    /* \"#utility.yul\":5103:5114   */\n  dup3\n    /* \"#utility.yul\":5074:5154   */\n  tag_53\n  jump\t// in\ntag_128:\n    /* \"#utility.yul\":4733:5164   */\n  pop\n  pop\n    /* \"#utility.yul\":4718:5164   */\ntag_124:\n    /* \"#utility.yul\":4628:5171   */\n  pop\n  pop\n  pop\n  jump\t// out\n    /* \"#utility.yul\":5177:5294   */\ntag_55:\n    /* \"#utility.yul\":5231:5239   */\n  0x00\n    /* \"#utility.yul\":5281:5286   */\n  dup3\n    /* \"#utility.yul\":5275:5279   */\n  dup3\n    /* \"#utility.yul\":5271:5287   */\n  shr\n    /* \"#utility.yul\":5250:5287   */\n  swap1\n  pop\n    /* \"#utility.yul\":5177:5294   */\n  swap3\n  swap2\n  pop\n  pop\n  jump\t// out\n    /* \"#utility.yul\":5300:5469   */\ntag_56:\n    /* \"#utility.yul\":5344:5350   */\n  0x00\n    /* \"#utility.yul\":5377:5428   */\n  tag_132\n    /* \"#utility.yul\":5425:5426   */\n  0x00\n    /* \"#utility.yul\":5421:5427   */\n  not\n    /* \"#utility.yul\":5413:5418   */\n  dup5\n    /* \"#utility.yul\":5410:5411   */\n  0x08\n    /* \"#utility.yul\":5406:5419   */\n  mul\n    /* \"#utility.yul\":5377:5428   */\n  tag_55\n  jump\t// in\ntag_132:\n    /* \"#utility.yul\":5373:5429   */\n  not\n    /* \"#utility.yul\":5458:5462   */\n  dup1\n    /* \"#utility.yul\":5452:5456   */\n  dup4\n    /* \"#utility.yul\":5448:5463   */\n  and\n    /* \"#utility.yul\":5438:5463   */\n  swap2\n  pop\n    /* \"#utility.yul\":5351:5469   */\n  pop\n    /* \"#utility.yul\":5300:5469   */\n  swap3\n  swap2\n  pop\n  pop\n  jump\t// out\n    /* \"#utility.yul\":5474:5769   */\ntag_57:\n    /* \"#utility.yul\":5550:5554   */\n  0x00\n    /* \"#utility.yul\":5696:5725   */\n  tag_134\n    /* \"#utility.yul\":5721:5724   */\n  dup4\n    /* \"#utility.yul\":5715:5719   */\n  dup4\n    /* \"#utility.yul\":5696:5725   */\n  tag_56\n  jump\t// in\ntag_134:\n    /* \"#utility.yul\":5688:5725   */\n  swap2\n  pop\n    /* \"#utility.yul\":5758:5761   */\n  dup3\n    /* \"#utility.yul\":5755:5756   */\n  0x02\n    /* \"#utility.yul\":5751:5762   */\n  mul\n    /* \"#utility.yul\":5745:5749   */\n  dup3\n    /* \"#utility.yul\":5742:5763   */\n  or\n    /* \"#utility.yul\":5734:5763   */\n  swap1\n  pop\n    /* \"#utility.yul\":5474:5769   */\n  swap3\n  swap2\n  pop\n  pop\n  jump\t// out\n    /* \"#utility.yul\":5774:7169   */\ntag_9:\n    /* \"#utility.yul\":5891:5928   */\n  tag_136\n    /* \"#utility.yul\":5924:5927   */\n  dup3\n    /* \"#utility.yul\":5891:5928   */\n  tag_39\n  jump\t// in\ntag_136:\n    /* \"#utility.yul\":5993:6011   */\n  0xffffffffffffffff\n    /* \"#utility.yul\":5985:5991   */\n  dup2\n    /* \"#utility.yul\":5982:6012   */\n  gt\n    /* \"#utility.yul\":5979:6035   */\n  iszero\n  tag_137\n  jumpi\n    /* \"#utility.yul\":6015:6033   */\n  tag_138\n  tag_40\n  jump\t// in\ntag_138:\n    /* \"#utility.yul\":5979:6035   */\ntag_137:\n    /* \"#utility.yul\":6059:6097   */\n  tag_139\n    /* \"#utility.yul\":6091:6095   */\n  dup3\n    /* \"#utility.yul\":6085:6096   */\n  sload\n    /* \"#utility.yul\":6059:6097   */\n  tag_42\n  jump\t// in\ntag_139:\n    /* \"#utility.yul\":6144:6211   */\n  tag_140\n    /* \"#utility.yul\":6204:6210   */\n  dup3\n    /* \"#utility.yul\":6196:6202   */\n  dup3\n    /* \"#utility.yul\":6190:6194   */\n  dup6\n    /* \"#utility.yul\":6144:6211   */\n  tag_54\n  jump\t// in\ntag_140:\n    /* \"#utility.yul\":6238:6239   */\n  0x00\n    /* \"#utility.yul\":6262:6266   */\n  0x20\n    /* \"#utility.yul\":6249:6266   */\n  swap1\n  pop\n    /* \"#utility.yul\":6294:6296   */\n  0x1f\n    /* \"#utility.yul\":6286:6292   */\n  dup4\n    /* \"#utility.yul\":6283:6297   */\n  gt\n    /* \"#utility.yul\":6311:6312   */\n  0x01\n    /* \"#utility.yul\":6306:6924   */\n  dup2\n  eq\n  tag_142\n  jumpi\n    /* \"#utility.yul\":6968:6969   */\n  0x00\n    /* \"#utility.yul\":6985:6991   */\n  dup5\n    /* \"#utility.yul\":6982:7059   */\n  iszero\n  tag_143\n  jumpi\n    /* \"#utility.yul\":7034:7043   */\n  dup3\n    /* \"#utility.yul\":7029:7032   */\n  dup8\n    /* \"#utility.yul\":7025:7044   */\n  add\n    /* \"#utility.yul\":7019:7045   */\n  mload\n    /* \"#utility.yul\":7010:7045   */\n  swap1\n  pop\n    /* \"#utility.yul\":6982:7059   */\ntag_143:\n    /* \"#utility.yul\":7085:7152   */\n  tag_144\n    /* \"#utility.yul\":7145:7151   */\n  dup6\n    /* \"#utility.yul\":7138:7143   */\n  dup3\n    /* \"#utility.yul\":7085:7152   */\n  tag_57\n  jump\t// in\ntag_144:\n    /* \"#utility.yul\":7079:7083   */\n  dup7\n    /* \"#utility.yul\":7072:7153   */\n  sstore\n    /* \"#utility.yul\":6941:7163   */\n  pop\n    /* \"#utility.yul\":6276:7163   */\n  jump(tag_141)\n    /* \"#utility.yul\":6306:6924   */\ntag_142:\n    /* \"#utility.yul\":6358:6362   */\n  0x1f\n    /* \"#utility.yul\":6354:6363   */\n  not\n    /* \"#utility.yul\":6346:6352   */\n  dup5\n    /* \"#utility.yul\":6342:6364   */\n  and\n    /* \"#utility.yul\":6392:6429   */\n  tag_145\n    /* \"#utility.yul\":6424:6428   */\n  dup7\n    /* \"#utility.yul\":6392:6429   */\n  tag_43\n  jump\t// in\ntag_145:\n    /* \"#utility.yul\":6451:6452   */\n  0x00\n    /* \"#utility.yul\":6465:6673   */\ntag_146:\n    /* \"#utility.yul\":6479:6486   */\n  dup3\n    /* \"#utility.yul\":6476:6477   */\n  dup2\n    /* \"#utility.yul\":6473:6487   */\n  lt\n    /* \"#utility.yul\":6465:6673   */\n  iszero\n  tag_148\n  jumpi\n    /* \"#utility.yul\":6558:6567   */\n  dup5\n    /* \"#utility.yul\":6553:6556   */\n  dup10\n    /* \"#utility.yul\":6549:6568   */\n  add\n    /* \"#utility.yul\":6543:6569   */\n  mload\n    /* \"#utility.yul\":6535:6541   */\n  dup3\n    /* \"#utility.yul\":6528:6570   */\n  sstore\n    /* \"#utility.yul\":6609:6610   */\n  0x01\n    /* \"#utility.yul\":6601:6607   */\n  dup3\n    /* \"#utility.yul\":6597:6611   */\n  add\n    /* \"#utility.yul\":6587:6611   */\n  swap2\n  pop\n    /* \"#utility.yul\":6656:6658   */\n  0x20\n    /* \"#utility.yul\":6645:6654   */\n  dup6\n    /* \"#utility.yul\":6641:6659   */\n  add\n    /* \"#utility.yul\":6628:6659   */\n  swap5\n  pop\n    /* \"#utility.yul\":6502:6506   */\n  0x20\n    /* \"#utility.yul\":6499:6500   */\n  dup2\n    /* \"#utility.yul\":6495:6507   */\n  add\n    /* \"#utility.yul\":6490:6507   */\n  swap1\n  pop\n    /* \"#utility.yul\":6465:6673   */\n  jump(tag_146)\ntag_148:\n    /* \"#utility.yul\":6701:6707   */\n  dup7\n    /* \"#utility.yul\":6692:6699   */\n  dup4\n    /* \"#utility.yul\":6689:6708   */\n  lt\n    /* \"#utility.yul\":6686:6865   */\n  iszero\n  tag_149\n  jumpi\n    /* \"#utility.yul\":6759:6768   */\n  dup5\n    /* \"#utility.yul\":6754:6757   */\n  dup10\n    /* \"#utility.yul\":6750:6769   */\n  add\n    /* \"#utility.yul\":6744:6770   */\n  mload\n    /* \"#utility.yul\":6802:6850   */\n  tag_150\n    /* \"#utility.yul\":6844:6848   */\n  0x1f\n    /* \"#utility.yul\":6836:6842   */\n  dup10\n    /* \"#utility.yul\":6832:6849   */\n  and\n    /* \"#utility.yul\":6821:6830   */\n  dup3\n    /* \"#utility.yul\":6802:6850   */\n  tag_56\n  jump\t// in\ntag_150:\n    /* \"#utility.yul\":6794:6800   */\n  dup4\n    /* \"#utility.yul\":6787:6851   */\n  sstore\n    /* \"#utility.yul\":6709:6865   */\n  pop\n    /* \"#utility.yul\":6686:6865   */\ntag_149:\n    /* \"#utility.yul\":6911:6912   */\n  0x01\n    /* \"#utility.yul\":6907:6908   */\n  0x02\n    /* \"#utility.yul\":6899:6905   */\n  dup9\n    /* \"#utility.yul\":6895:6909   */\n  mul\n    /* \"#utility.yul\":6891:6913   */\n  add\n    /* \"#utility.yul\":6885:6889   */\n  dup9\n    /* \"#utility.yul\":6878:6914   */\n  sstore\n    /* \"#utility.yul\":6313:6924   */\n  pop\n  pop\n  pop\n    /* \"#utility.yul\":6276:7163   */\ntag_141:\n  pop\n    /* \"#utility.yul\":5866:7169   */\n  pop\n  pop\n  pop\n    /* \"#utility.yul\":5774:7169   */\n  pop\n  pop\n  jump\t// out\n    /* \"#utility.yul\":7175:7293   */\ntag_58:\n    /* \"#utility.yul\":7262:7286   */\n  tag_152\n    /* \"#utility.yul\":7280:7285   */\n  dup2\n    /* \"#utility.yul\":7262:7286   */\n  tag_33\n  jump\t// in\ntag_152:\n    /* \"#utility.yul\":7257:7260   */\n  dup3\n    /* \"#utility.yul\":7250:7287   */\n  mstore\n    /* \"#utility.yul\":7175:7293   */\n  pop\n  pop\n  jump\t// out\n    /* \"#utility.yul\":7299:7521   */\ntag_14:\n    /* \"#utility.yul\":7392:7396   */\n  0x00\n    /* \"#utility.yul\":7430:7432   */\n  0x20\n    /* \"#utility.yul\":7419:7428   */\n  dup3\n    /* \"#utility.yul\":7415:7433   */\n  add\n    /* \"#utility.yul\":7407:7433   */\n  swap1\n  pop\n    /* \"#utility.yul\":7443:7514   */\n  tag_154\n    /* \"#utility.yul\":7511:7512   */\n  0x00\n    /* \"#utility.yul\":7500:7509   */\n  dup4\n    /* \"#utility.yul\":7496:7513   */\n  add\n    /* \"#utility.yul\":7487:7493   */\n  dup5\n    /* \"#utility.yul\":7443:7514   */\n  tag_58\n  jump\t// in\ntag_154:\n    /* \"#utility.yul\":7299:7521   */\n  swap3\n  swap2\n  pop\n  pop\n  jump\t// out\n    /* \"#utility.yul\":7527:7696   */\ntag_59:\n    /* \"#utility.yul\":7611:7622   */\n  0x00\n    /* \"#utility.yul\":7645:7651   */\n  dup3\n    /* \"#utility.yul\":7640:7643   */\n  dup3\n    /* \"#utility.yul\":7633:7652   */\n  mstore\n    /* \"#utility.yul\":7685:7689   */\n  0x20\n    /* \"#utility.yul\":7680:7683   */\n  dup3\n    /* \"#utility.yul\":7676:7690   */\n  add\n    /* \"#utility.yul\":7661:7690   */\n  swap1\n  pop\n    /* \"#utility.yul\":7527:7696   */\n  swap3\n  swap2\n  pop\n  pop\n  jump\t// out\n    /* \"#utility.yul\":7702:7872   */\ntag_60:\n    /* \"#utility.yul\":7842:7864   */\n  0x496e76616c696420634254432061646472657373000000000000000000000000\n    /* \"#utility.yul\":7838:7839   */\n  0x00\n    /* \"#utility.yul\":7830:7836   */\n  dup3\n    /* \"#utility.yul\":7826:7840   */\n  add\n    /* \"#utility.yul\":7819:7865   */\n  mstore\n    /* \"#utility.yul\":7702:7872   */\n  pop\n  jump\t// out\n    /* \"#utility.yul\":7878:8244   */\ntag_61:\n    /* \"#utility.yul\":8020:8023   */\n  0x00\n    /* \"#utility.yul\":8041:8108   */\n  tag_158\n    /* \"#utility.yul\":8105:8107   */\n  0x14\n    /* \"#utility.yul\":8100:8103   */\n  dup4\n    /* \"#utility.yul\":8041:8108   */\n  tag_59\n  jump\t// in\ntag_158:\n    /* \"#utility.yul\":8034:8108   */\n  swap2\n  pop\n    /* \"#utility.yul\":8117:8210   */\n  tag_159\n    /* \"#utility.yul\":8206:8209   */\n  dup3\n    /* \"#utility.yul\":8117:8210   */\n  tag_60\n  jump\t// in\ntag_159:\n    /* \"#utility.yul\":8235:8237   */\n  0x20\n    /* \"#utility.yul\":8230:8233   */\n  dup3\n    /* \"#utility.yul\":8226:8238   */\n  add\n    /* \"#utility.yul\":8219:8238   */\n  swap1\n  pop\n    /* \"#utility.yul\":7878:8244   */\n  swap2\n  swap1\n  pop\n  jump\t// out\n    /* \"#utility.yul\":8250:8669   */\ntag_20:\n    /* \"#utility.yul\":8416:8420   */\n  0x00\n    /* \"#utility.yul\":8454:8456   */\n  0x20\n    /* \"#utility.yul\":8443:8452   */\n  dup3\n    /* \"#utility.yul\":8439:8457   */\n  add\n    /* \"#utility.yul\":8431:8457   */\n  swap1\n  pop\n    /* \"#utility.yul\":8503:8512   */\n  dup2\n    /* \"#utility.yul\":8497:8501   */\n  dup2\n    /* \"#utility.yul\":8493:8513   */\n  sub\n    /* \"#utility.yul\":8489:8490   */\n  0x00\n    /* \"#utility.yul\":8478:8487   */\n  dup4\n    /* \"#utility.yul\":8474:8491   */\n  add\n    /* \"#utility.yul\":8467:8514   */\n  mstore\n    /* \"#utility.yul\":8531:8662   */\n  tag_161\n    /* \"#utility.yul\":8657:8661   */\n  dup2\n    /* \"#utility.yul\":8531:8662   */\n  tag_61\n  jump\t// in\ntag_161:\n    /* \"#utility.yul\":8523:8662   */\n  swap1\n  pop\n    /* \"#utility.yul\":8250:8669   */\n  swap2\n  swap1\n  pop\n  jump\t// out\n    /* \"#utility.yul\":8675:8839   */\ntag_62:\n    /* \"#utility.yul\":8815:8831   */\n  0x496e76616c6964206f7261636c65000000000000000000000000000000000000\n    /* \"#utility.yul\":8811:8812   */\n  0x00\n    /* \"#utility.yul\":8803:8809   */\n  dup3\n    /* \"#utility.yul\":8799:8813   */\n  add\n    /* \"#utility.yul\":8792:8832   */\n  mstore\n    /* \"#utility.yul\":8675:8839   */\n  pop\n  jump\t// out\n    /* \"#utility.yul\":8845:9211   */\ntag_63:\n    /* \"#utility.yul\":8987:8990   */\n  0x00\n    /* \"#utility.yul\":9008:9075   */\n  tag_164\n    /* \"#utility.yul\":9072:9074   */\n  0x0e\n    /* \"#utility.yul\":9067:9070   */\n  dup4\n    /* \"#utility.yul\":9008:9075   */\n  tag_59\n  jump\t// in\ntag_164:\n    /* \"#utility.yul\":9001:9075   */\n  swap2\n  pop\n    /* \"#utility.yul\":9084:9177   */\n  tag_165\n    /* \"#utility.yul\":9173:9176   */\n  dup3\n    /* \"#utility.yul\":9084:9177   */\n  tag_62\n  jump\t// in\ntag_165:\n    /* \"#utility.yul\":9202:9204   */\n  0x20\n    /* \"#utility.yul\":9197:9200   */\n  dup3\n    /* \"#utility.yul\":9193:9205   */\n  add\n    /* \"#utility.yul\":9186:9205   */\n  swap1\n  pop\n    /* \"#utility.yul\":8845:9211   */\n  swap2\n  swap1\n  pop\n  jump\t// out\n    /* \"#utility.yul\":9217:9636   */\ntag_23:\n    /* \"#utility.yul\":9383:9387   */\n  0x00\n    /* \"#utility.yul\":9421:9423   */\n  0x20\n    /* \"#utility.yul\":9410:9419   */\n  dup3\n    /* \"#utility.yul\":9406:9424   */\n  add\n    /* \"#utility.yul\":9398:9424   */\n  swap1\n  pop\n    /* \"#utility.yul\":9470:9479   */\n  dup2\n    /* \"#utility.yul\":9464:9468   */\n  dup2\n    /* \"#utility.yul\":9460:9480   */\n  sub\n    /* \"#utility.yul\":9456:9457   */\n  0x00\n    /* \"#utility.yul\":9445:9454   */\n  dup4\n    /* \"#utility.yul\":9441:9458   */\n  add\n    /* \"#utility.yul\":9434:9481   */\n  mstore\n    /* \"#utility.yul\":9498:9629   */\n  tag_167\n    /* \"#utility.yul\":9624:9628   */\n  dup2\n    /* \"#utility.yul\":9498:9629   */\n  tag_63\n  jump\t// in\ntag_167:\n    /* \"#utility.yul\":9490:9629   */\n  swap1\n  pop\n    /* \"#utility.yul\":9217:9636   */\n  swap2\n  swap1\n  pop\n  jump\t// out\n    /* \"#utility.yul\":9642:9813   */\ntag_64:\n    /* \"#utility.yul\":9782:9805   */\n  0x526174696f206d757374206265203e3d20313030250000000000000000000000\n    /* \"#utility.yul\":9778:9779   */\n  0x00\n    /* \"#utility.yul\":9770:9776   */\n  dup3\n    /* \"#utility.yul\":9766:9780   */\n  add\n    /* \"#utility.yul\":9759:9806   */\n  mstore\n    /* \"#utility.yul\":9642:9813   */\n  pop\n  jump\t// out\n    /* \"#utility.yul\":9819:10185   */\ntag_65:\n    /* \"#utility.yul\":9961:9964   */\n  0x00\n    /* \"#utility.yul\":9982:10049   */\n  tag_170\n    /* \"#utility.yul\":10046:10048   */\n  0x15\n    /* \"#utility.yul\":10041:10044   */\n  dup4\n    /* \"#utility.yul\":9982:10049   */\n  tag_59\n  jump\t// in\ntag_170:\n    /* \"#utility.yul\":9975:10049   */\n  swap2\n  pop\n    /* \"#utility.yul\":10058:10151   */\n  tag_171\n    /* \"#utility.yul\":10147:10150   */\n  dup3\n    /* \"#utility.yul\":10058:10151   */\n  tag_64\n  jump\t// in\ntag_171:\n    /* \"#utility.yul\":10176:10178   */\n  0x20\n    /* \"#utility.yul\":10171:10174   */\n  dup3\n    /* \"#utility.yul\":10167:10179   */\n  add\n    /* \"#utility.yul\":10160:10179   */\n  swap1\n  pop\n    /* \"#utility.yul\":9819:10185   */\n  swap2\n  swap1\n  pop\n  jump\t// out\n    /* \"#utility.yul\":10191:10610   */\ntag_26:\n    /* \"#utility.yul\":10357:10361   */\n  0x00\n    /* \"#utility.yul\":10395:10397   */\n  0x20\n    /* \"#utility.yul\":10384:10393   */\n  dup3\n    /* \"#utility.yul\":10380:10398   */\n  add\n    /* \"#utility.yul\":10372:10398   */\n  swap1\n  pop\n    /* \"#utility.yul\":10444:10453   */\n  dup2\n    /* \"#utility.yul\":10438:10442   */\n  dup2\n    /* \"#utility.yul\":10434:10454   */\n  sub\n    /* \"#utility.yul\":10430:10431   */\n  0x00\n    /* \"#utility.yul\":10419:10428   */\n  dup4\n    /* \"#utility.yul\":10415:10432   */\n  add\n    /* \"#utility.yul\":10408:10455   */\n  mstore\n    /* \"#utility.yul\":10472:10603   */\n  tag_173\n    /* \"#utility.yul\":10598:10602   */\n  dup2\n    /* \"#utility.yul\":10472:10603   */\n  tag_65\n  jump\t// in\ntag_173:\n    /* \"#utility.yul\":10464:10603   */\n  swap1\n  pop\n    /* \"#utility.yul\":10191:10610   */\n  swap2\n  swap1\n  pop\n  jump\t// out\n    /* \"contracts/StableCoin.sol\":494:7376  contract StableCoin is ERC20, Ownable, IStableCoin {... */\ntag_27:\n  dataSize(sub_0)\n  dup1\n  dataOffset(sub_0)\n  0x00\n  codecopy\n  0x00\n  return\nstop\n\nsub_0: assembly {\n        /* \"contracts/StableCoin.sol\":494:7376  contract StableCoin is ERC20, Ownable, IStableCoin {... */\n      mstore(0x40, 0x80)\n      callvalue\n      dup1\n      iszero\n      tag_1\n      jumpi\n      0x00\n      dup1\n      revert\n    tag_1:\n      pop\n      jumpi(tag_2, lt(calldatasize, 0x04))\n      shr(0xe0, calldataload(0x00))\n      dup1\n      0x8da5cb5b\n      gt\n      tag_31\n      jumpi\n      dup1\n      0xbcbaf487\n      gt\n      tag_32\n      jumpi\n      dup1\n      0xdd62ed3e\n      gt\n      tag_33\n      jumpi\n      dup1\n      0xdd62ed3e\n      eq\n      tag_27\n      jumpi\n      dup1\n      0xea629db0\n      eq\n      tag_28\n      jumpi\n      dup1\n      0xf2fde38b\n      eq\n      tag_29\n      jumpi\n      dup1\n      0xfb4ca35b\n      eq\n      tag_30\n      jumpi\n      jump(tag_2)\n    tag_33:\n      dup1\n      0xbcbaf487\n      eq\n      tag_24\n      jumpi\n      dup1\n      0xcd377c53\n      eq\n      tag_25\n      jumpi\n      dup1\n      0xd7e72708\n      eq\n      tag_26\n      jumpi\n      jump(tag_2)\n    tag_32:\n      dup1\n      0xa6afed95\n      gt\n      tag_34\n      jumpi\n      dup1\n      0xa6afed95\n      eq\n      tag_20\n      jumpi\n      dup1\n      0xa9059cbb\n      eq\n      tag_21\n      jumpi\n      dup1\n      0xb4eae1cb\n      eq\n      tag_22\n      jumpi\n      dup1\n      0xb6f7132f\n      eq\n      tag_23\n      jumpi\n      jump(tag_2)\n    tag_34:\n      dup1\n      0x8da5cb5b\n      eq\n      tag_17\n      jumpi\n      dup1\n      0x95d89b41\n      eq\n      tag_18\n      jumpi\n      dup1\n      0xa5d5db0c\n      eq\n      tag_19\n      jumpi\n      jump(tag_2)\n    tag_31:\n      dup1\n      0x350c35e9\n      gt\n      tag_35\n      jumpi\n      dup1\n      0x6060663e\n      gt\n      tag_36\n      jumpi\n      dup1\n      0x6060663e\n      eq\n      tag_13\n      jumpi\n      dup1\n      0x70a08231\n      eq\n      tag_14\n      jumpi\n      dup1\n      0x715018a6\n      eq\n      tag_15\n      jumpi\n      dup1\n      0x7dc0d1d0\n      eq\n      tag_16\n      jumpi\n      jump(tag_2)\n    tag_36:\n      dup1\n      0x350c35e9\n      eq\n      tag_10\n      jumpi\n      dup1\n      0x361416e1\n      eq\n      tag_11\n      jumpi\n      dup1\n      0x4e8d048b\n      eq\n      tag_12\n      jumpi\n      jump(tag_2)\n    tag_35:\n      dup1\n      0x1455b3ab\n      gt\n      tag_37\n      jumpi\n      dup1\n      0x1455b3ab\n      eq\n      tag_6\n      jumpi\n      dup1\n      0x18160ddd\n      eq\n      tag_7\n      jumpi\n      dup1\n      0x23b872dd\n      eq\n      tag_8\n      jumpi\n      dup1\n      0x313ce567\n      eq\n      tag_9\n      jumpi\n      jump(tag_2)\n    tag_37:\n      dup1\n      0x06fdde03\n      eq\n      tag_3\n      jumpi\n      dup1\n      0x095ea7b3\n      eq\n      tag_4\n      jumpi\n      dup1\n      0x0ae8c4dc\n      eq\n      tag_5\n      jumpi\n    tag_2:\n      0x00\n      dup1\n      revert\n        /* \"@openzeppelin/contracts/token/ERC20/ERC20.sol\":1779:1868  function name() public view virtual returns (string memory) {... */\n    tag_3:\n      tag_38\n      tag_39\n      jump\t// in\n    tag_38:\n      mload(0x40)\n      tag_40\n      swap2\n      swap1\n      tag_41\n      jump\t// in\n    tag_40:\n      mload(0x40)\n      dup1\n      swap2\n      sub\n      swap1\n      return\n        /* \"@openzeppelin/contracts/token/ERC20/ERC20.sol\":3998:4184  function approve(address spender, uint256 value) public virtual returns (bool) {... */\n    tag_4:\n      tag_42\n      0x04\n      dup1\n      calldatasize\n      sub\n      dup2\n      add\n      swap1\n      tag_43\n      swap2\n      swap1\n      tag_44\n      jump\t// in\n    tag_43:\n      tag_45\n      jump\t// in\n    tag_42:\n      mload(0x40)\n      tag_46\n      swap2\n      swap1\n      tag_47\n      jump\t// in\n    tag_46:\n      mload(0x40)\n      dup1\n      swap2\n      sub\n      swap1\n      return\n        /* \"contracts/StableCoin.sol\":551:569  IERC20 public cBTC */\n    tag_5:\n      tag_48\n      tag_49\n      jump\t// in\n    tag_48:\n      mload(0x40)\n      tag_50\n      swap2\n      swap1\n      tag_51\n      jump\t// in\n    tag_50:\n      mload(0x40)\n      dup1\n      swap2\n      sub\n      swap1\n      return\n        /* \"contracts/StableCoin.sol\":4718:4968  function burnStableCoin(address from, uint256 cUSDAmount) external override {... */\n    tag_6:\n      tag_52\n      0x04\n      dup1\n      calldatasize\n      sub\n      dup2\n      add\n      swap1\n      tag_53\n      swap2\n      swap1\n      tag_44\n      jump\t// in\n    tag_53:\n      tag_54\n      jump\t// in\n    tag_52:\n      stop\n        /* \"@openzeppelin/contracts/token/ERC20/ERC20.sol\":2849:2946  function totalSupply() public view virtual returns (uint256) {... */\n    tag_7:\n      tag_55\n      tag_56\n      jump\t// in\n    tag_55:\n      mload(0x40)\n      tag_57\n      swap2\n      swap1\n      tag_58\n      jump\t// in\n    tag_57:\n      mload(0x40)\n      dup1\n      swap2\n      sub\n      swap1\n      return\n        /* \"@openzeppelin/contracts/token/ERC20/ERC20.sol\":4776:5020  function transferFrom(address from, address to, uint256 value) public virtual returns (bool) {... */\n    tag_8:\n      tag_59\n      0x04\n      dup1\n      calldatasize\n      sub\n      dup2\n      add\n      swap1\n      tag_60\n      swap2\n      swap1\n      tag_61\n      jump\t// in\n    tag_60:\n      tag_62\n      jump\t// in\n    tag_59:\n      mload(0x40)\n      tag_63\n      swap2\n      swap1\n      tag_47\n      jump\t// in\n    tag_63:\n      mload(0x40)\n      dup1\n      swap2\n      sub\n      swap1\n      return\n        /* \"@openzeppelin/contracts/token/ERC20/ERC20.sol\":2707:2789  function decimals() public view virtual returns (uint8) {... */\n    tag_9:\n      tag_64\n      tag_65\n      jump\t// in\n    tag_64:\n      mload(0x40)\n      tag_66\n      swap2\n      swap1\n      tag_67\n      jump\t// in\n    tag_66:\n      mload(0x40)\n      dup1\n      swap2\n      sub\n      swap1\n      return\n        /* \"contracts/StableCoin.sol\":3220:4085  function withdrawCollateral(address user, uint256 amount) external override {... */\n    tag_10:\n      tag_68\n      0x04\n      dup1\n      calldatasize\n      sub\n      dup2\n      add\n      swap1\n      tag_69\n      swap2\n      swap1\n      tag_44\n      jump\t// in\n    tag_69:\n      tag_70\n      jump\t// in\n    tag_68:\n      stop\n        /* \"contracts/StableCoin.sol\":694:721  uint256 public stabilityFee */\n    tag_11:\n      tag_71\n      tag_72\n      jump\t// in\n    tag_71:\n      mload(0x40)\n      tag_73\n      swap2\n      swap1\n      tag_58\n      jump\t// in\n    tag_73:\n      mload(0x40)\n      dup1\n      swap2\n      sub\n      swap1\n      return\n        /* \"contracts/StableCoin.sol\":813:860  mapping(address => uint256) public cBTCDeposits */\n    tag_12:\n      tag_74\n      0x04\n      dup1\n      calldatasize\n      sub\n      dup2\n      add\n      swap1\n      tag_75\n      swap2\n      swap1\n      tag_76\n      jump\t// in\n    tag_75:\n      tag_77\n      jump\t// in\n    tag_74:\n      mload(0x40)\n      tag_78\n      swap2\n      swap1\n      tag_58\n      jump\t// in\n    tag_78:\n      mload(0x40)\n      dup1\n      swap2\n      sub\n      swap1\n      return\n        /* \"contracts/StableCoin.sol\":6766:6937  function setCollateralRatio(uint256 _newRatio) external onlyOwner {... */\n    tag_13:\n      tag_79\n      0x04\n      dup1\n      calldatasize\n      sub\n      dup2\n      add\n      swap1\n      tag_80\n      swap2\n      swap1\n      tag_81\n      jump\t// in\n    tag_80:\n      tag_82\n      jump\t// in\n    tag_79:\n      stop\n        /* \"@openzeppelin/contracts/token/ERC20/ERC20.sol\":3004:3120  function balanceOf(address account) public view virtual returns (uint256) {... */\n    tag_14:\n      tag_83\n      0x04\n      dup1\n      calldatasize\n      sub\n      dup2\n      add\n      swap1\n      tag_84\n      swap2\n      swap1\n      tag_76\n      jump\t// in\n    tag_84:\n      tag_85\n      jump\t// in\n    tag_83:\n      mload(0x40)\n      tag_86\n      swap2\n      swap1\n      tag_58\n      jump\t// in\n    tag_86:\n      mload(0x40)\n      dup1\n      swap2\n      sub\n      swap1\n      return\n        /* \"@openzeppelin/contracts/access/Ownable.sol\":2293:2394  function renounceOwnership() public virtual onlyOwner {... */\n    tag_15:\n      tag_87\n      tag_88\n      jump\t// in\n    tag_87:\n      stop\n        /* \"contracts/StableCoin.sol\":575:601  IPriceOracle public oracle */\n    tag_16:\n      tag_89\n      tag_90\n      jump\t// in\n    tag_89:\n      mload(0x40)\n      tag_91\n      swap2\n      swap1\n      tag_92\n      jump\t// in\n    tag_91:\n      mload(0x40)\n      dup1\n      swap2\n      sub\n      swap1\n      return\n        /* \"@openzeppelin/contracts/access/Ownable.sol\":1638:1723  function owner() public view virtual returns (address) {... */\n    tag_17:\n      tag_93\n      tag_94\n      jump\t// in\n    tag_93:\n      mload(0x40)\n      tag_95\n      swap2\n      swap1\n      tag_96\n      jump\t// in\n    tag_95:\n      mload(0x40)\n      dup1\n      swap2\n      sub\n      swap1\n      return\n        /* \"@openzeppelin/contracts/token/ERC20/ERC20.sol\":1981:2074  function symbol() public view virtual returns (string memory) {... */\n    tag_18:\n      tag_97\n      tag_98\n      jump\t// in\n    tag_97:\n      mload(0x40)\n      tag_99\n      swap2\n      swap1\n      tag_41\n      jump\t// in\n    tag_99:\n      mload(0x40)\n      dup1\n      swap2\n      sub\n      swap1\n      return\n        /* \"contracts/StableCoin.sol\":2804:3112  function depositCollateral(address user, uint256 amount) external override {... */\n    tag_19:\n      tag_100\n      0x04\n      dup1\n      calldatasize\n      sub\n      dup2\n      add\n      swap1\n      tag_101\n      swap2\n      swap1\n      tag_44\n      jump\t// in\n    tag_101:\n      tag_102\n      jump\t// in\n    tag_100:\n      stop\n        /* \"contracts/StableCoin.sol\":2012:2626  function accrueInterest() public override {... */\n    tag_20:\n      tag_103\n      tag_104\n      jump\t// in\n    tag_103:\n      stop\n        /* \"@openzeppelin/contracts/token/ERC20/ERC20.sol\":3315:3493  function transfer(address to, uint256 value) public virtual returns (bool) {... */\n    tag_21:\n      tag_105\n      0x04\n      dup1\n      calldatasize\n      sub\n      dup2\n      add\n      swap1\n      tag_106\n      swap2\n      swap1\n      tag_44\n      jump\t// in\n    tag_106:\n      tag_107\n      jump\t// in\n    tag_105:\n      mload(0x40)\n      tag_108\n      swap2\n      swap1\n      tag_47\n      jump\t// in\n    tag_108:\n      mload(0x40)\n      dup1\n      swap2\n      sub\n      swap1\n      return\n        /* \"contracts/StableCoin.sol\":608:638  uint256 public collateralRatio */\n    tag_22:\n      tag_109\n      tag_110\n      jump\t// in\n    tag_109:\n      mload(0x40)\n      tag_111\n      swap2\n      swap1\n      tag_58\n      jump\t// in\n    tag_111:\n      mload(0x40)\n      dup1\n      swap2\n      sub\n      swap1\n      return\n        /* \"contracts/StableCoin.sol\":7259:7374  function getUserCollateral(address user) external view returns (uint256) {... */\n    tag_23:\n      tag_112\n      0x04\n      dup1\n      calldatasize\n      sub\n      dup2\n      add\n      swap1\n      tag_113\n      swap2\n      swap1\n      tag_76\n      jump\t// in\n    tag_113:\n      tag_114\n      jump\t// in\n    tag_112:\n      mload(0x40)\n      tag_115\n      swap2\n      swap1\n      tag_58\n      jump\t// in\n    tag_115:\n      mload(0x40)\n      dup1\n      swap2\n      sub\n      swap1\n      return\n        /* \"contracts/StableCoin.sol\":5162:6697  function liquidate(address user, uint256 cUSDAmount) external override {... */\n    tag_24:\n      tag_116\n      0x04\n      dup1\n      calldatasize\n      sub\n      dup2\n      add\n      swap1\n      tag_117\n      swap2\n      swap1\n      tag_44\n      jump\t// in\n    tag_117:\n      tag_118\n      jump\t// in\n    tag_116:\n      stop\n        /* \"contracts/StableCoin.sol\":2632:2742  function getCollateralRatio() external view override returns (uint256) {... */\n    tag_25:\n      tag_119\n      tag_120\n      jump\t// in\n    tag_119:\n      mload(0x40)\n      tag_121\n      swap2\n      swap1\n      tag_58\n      jump\t// in\n    tag_121:\n      mload(0x40)\n      dup1\n      swap2\n      sub\n      swap1\n      return\n        /* \"contracts/StableCoin.sol\":776:806  uint256 public lastAccrualTime */\n    tag_26:\n      tag_122\n      tag_123\n      jump\t// in\n    tag_122:\n      mload(0x40)\n      tag_124\n      swap2\n      swap1\n      tag_58\n      jump\t// in\n    tag_124:\n      mload(0x40)\n      dup1\n      swap2\n      sub\n      swap1\n      return\n        /* \"@openzeppelin/contracts/token/ERC20/ERC20.sol\":3551:3691  function allowance(address owner, address spender) public view virtual returns (uint256) {... */\n    tag_27:\n      tag_125\n      0x04\n      dup1\n      calldatasize\n      sub\n      dup2\n      add\n      swap1\n      tag_126\n      swap2\n      swap1\n      tag_127\n      jump\t// in\n    tag_126:\n      tag_128\n      jump\t// in\n    tag_125:\n      mload(0x40)\n      tag_129\n      swap2\n      swap1\n      tag_58\n      jump\t// in\n    tag_129:\n      mload(0x40)\n      dup1\n      swap2\n      sub\n      swap1\n      return\n        /* \"contracts/StableCoin.sol\":4171:4642  function mintStableCoin(address to, uint256 cUSDAmount) external override {... */\n    tag_28:\n      tag_130\n      0x04\n      dup1\n      calldatasize\n      sub\n      dup2\n      add\n      swap1\n      tag_131\n      swap2\n      swap1\n      tag_44\n      jump\t// in\n    tag_131:\n      tag_132\n      jump\t// in\n    tag_130:\n      stop\n        /* \"@openzeppelin/contracts/access/Ownable.sol\":2543:2758  function transferOwnership(address newOwner) public virtual onlyOwner {... */\n    tag_29:\n      tag_133\n      0x04\n      dup1\n      calldatasize\n      sub\n      dup2\n      add\n      swap1\n      tag_134\n      swap2\n      swap1\n      tag_76\n      jump\t// in\n    tag_134:\n      tag_135\n      jump\t// in\n    tag_133:\n      stop\n        /* \"contracts/StableCoin.sol\":7024:7174  function setStabilityFee(uint256 _newFee) external onlyOwner {... */\n    tag_30:\n      tag_136\n      0x04\n      dup1\n      calldatasize\n      sub\n      dup2\n      add\n      swap1\n      tag_137\n      swap2\n      swap1\n      tag_81\n      jump\t// in\n    tag_137:\n      tag_138\n      jump\t// in\n    tag_136:\n      stop\n        /* \"@openzeppelin/contracts/token/ERC20/ERC20.sol\":1779:1868  function name() public view virtual returns (string memory) {... */\n    tag_39:\n        /* \"@openzeppelin/contracts/token/ERC20/ERC20.sol\":1824:1837  string memory */\n      0x60\n        /* \"@openzeppelin/contracts/token/ERC20/ERC20.sol\":1856:1861  _name */\n      0x03\n        /* \"@openzeppelin/contracts/token/ERC20/ERC20.sol\":1849:1861  return _name */\n      dup1\n      sload\n      tag_140\n      swap1\n      tag_141\n      jump\t// in\n    tag_140:\n      dup1\n      0x1f\n      add\n      0x20\n      dup1\n      swap2\n      div\n      mul\n      0x20\n      add\n      mload(0x40)\n      swap1\n      dup2\n      add\n      0x40\n      mstore\n      dup1\n      swap3\n      swap2\n      swap1\n      dup2\n      dup2\n      mstore\n      0x20\n      add\n      dup3\n      dup1\n      sload\n      tag_142\n      swap1\n      tag_141\n      jump\t// in\n    tag_142:\n      dup1\n      iszero\n      tag_143\n      jumpi\n      dup1\n      0x1f\n      lt\n      tag_144\n      jumpi\n      0x0100\n      dup1\n      dup4\n      sload\n      div\n      mul\n      dup4\n      mstore\n      swap2\n      0x20\n      add\n      swap2\n      jump(tag_143)\n    tag_144:\n      dup3\n      add\n      swap2\n      swap1\n      0x00\n      mstore\n      keccak256(0x00, 0x20)\n      swap1\n    tag_145:\n      dup2\n      sload\n      dup2\n      mstore\n      swap1\n      0x01\n      add\n      swap1\n      0x20\n      add\n      dup1\n      dup4\n      gt\n      tag_145\n      jumpi\n      dup3\n      swap1\n      sub\n      0x1f\n      and\n      dup3\n      add\n      swap2\n    tag_143:\n      pop\n      pop\n      pop\n      pop\n      pop\n      swap1\n      pop\n        /* \"@openzeppelin/contracts/token/ERC20/ERC20.sol\":1779:1868  function name() public view virtual returns (string memory) {... */\n      swap1\n      jump\t// out\n        /* \"@openzeppelin/contracts/token/ERC20/ERC20.sol\":3998:4184  function approve(address spender, uint256 value) public virtual returns (bool) {... */\n    tag_45:\n        /* \"@openzeppelin/contracts/token/ERC20/ERC20.sol\":4071:4075  bool */\n      0x00\n        /* \"@openzeppelin/contracts/token/ERC20/ERC20.sol\":4087:4100  address owner */\n      dup1\n        /* \"@openzeppelin/contracts/token/ERC20/ERC20.sol\":4103:4115  _msgSender() */\n      tag_147\n        /* \"@openzeppelin/contracts/token/ERC20/ERC20.sol\":4103:4113  _msgSender */\n      tag_148\n        /* \"@openzeppelin/contracts/token/ERC20/ERC20.sol\":4103:4115  _msgSender() */\n      jump\t// in\n    tag_147:\n        /* \"@openzeppelin/contracts/token/ERC20/ERC20.sol\":4087:4115  address owner = _msgSender() */\n      swap1\n      pop\n        /* \"@openzeppelin/contracts/token/ERC20/ERC20.sol\":4125:4156  _approve(owner, spender, value) */\n      tag_149\n        /* \"@openzeppelin/contracts/token/ERC20/ERC20.sol\":4134:4139  owner */\n      dup2\n        /* \"@openzeppelin/contracts/token/ERC20/ERC20.sol\":4141:4148  spender */\n      dup6\n        /* \"@openzeppelin/contracts/token/ERC20/ERC20.sol\":4150:4155  value */\n      dup6\n        /* \"@openzeppelin/contracts/token/ERC20/ERC20.sol\":4125:4133  _approve */\n      tag_150\n        /* \"@openzeppelin/contracts/token/ERC20/ERC20.sol\":4125:4156  _approve(owner, spender, value) */\n      jump\t// in\n    tag_149:\n        /* \"@openzeppelin/contracts/token/ERC20/ERC20.sol\":4173:4177  true */\n      0x01\n        /* \"@openzeppelin/contracts/token/ERC20/ERC20.sol\":4166:4177  return true */\n      swap2\n      pop\n      pop\n        /* \"@openzeppelin/contracts/token/ERC20/ERC20.sol\":3998:4184  function approve(address spender, uint256 value) public virtual returns (bool) {... */\n      swap3\n      swap2\n      pop\n      pop\n      jump\t// out\n        /* \"contracts/StableCoin.sol\":551:569  IERC20 public cBTC */\n    tag_49:\n      0x06\n      0x00\n      swap1\n      sload\n      swap1\n      0x0100\n      exp\n      swap1\n      div\n      0xffffffffffffffffffffffffffffffffffffffff\n      and\n      dup2\n      jump\t// out\n        /* \"contracts/StableCoin.sol\":4718:4968  function burnStableCoin(address from, uint256 cUSDAmount) external override {... */\n    tag_54:\n        /* \"contracts/StableCoin.sol\":4804:4820  accrueInterest() */\n      tag_152\n        /* \"contracts/StableCoin.sol\":4804:4818  accrueInterest */\n      tag_104\n        /* \"contracts/StableCoin.sol\":4804:4820  accrueInterest() */\n      jump\t// in\n    tag_152:\n        /* \"contracts/StableCoin.sol\":4857:4867  cUSDAmount */\n      dup1\n        /* \"contracts/StableCoin.sol\":4838:4853  balanceOf(from) */\n      tag_153\n        /* \"contracts/StableCoin.sol\":4848:4852  from */\n      dup4\n        /* \"contracts/StableCoin.sol\":4838:4847  balanceOf */\n      tag_85\n        /* \"contracts/StableCoin.sol\":4838:4853  balanceOf(from) */\n      jump\t// in\n    tag_153:\n        /* \"contracts/StableCoin.sol\":4838:4867  balanceOf(from) >= cUSDAmount */\n      lt\n      iszero\n        /* \"contracts/StableCoin.sol\":4830:4887  require(balanceOf(from) >= cUSDAmount, \"Not enough cUSD\") */\n      tag_154\n      jumpi\n      mload(0x40)\n      0x08c379a000000000000000000000000000000000000000000000000000000000\n      dup2\n      mstore\n      0x04\n      add\n      tag_155\n      swap1\n      tag_156\n      jump\t// in\n    tag_155:\n      mload(0x40)\n      dup1\n      swap2\n      sub\n      swap1\n      revert\n    tag_154:\n        /* \"contracts/StableCoin.sol\":4897:4920  _burn(from, cUSDAmount) */\n      tag_157\n        /* \"contracts/StableCoin.sol\":4903:4907  from */\n      dup3\n        /* \"contracts/StableCoin.sol\":4909:4919  cUSDAmount */\n      dup3\n        /* \"contracts/StableCoin.sol\":4897:4902  _burn */\n      tag_158\n        /* \"contracts/StableCoin.sol\":4897:4920  _burn(from, cUSDAmount) */\n      jump\t// in\n    tag_157:\n        /* \"contracts/StableCoin.sol\":4944:4948  from */\n      dup2\n        /* \"contracts/StableCoin.sol\":4935:4961  Redeemed(from, cUSDAmount) */\n      0xffffffffffffffffffffffffffffffffffffffff\n      and\n      0x4896181ff8f4543cc00db9fe9b6fb7e6f032b7eb772c72ab1ec1b4d2e03b9369\n        /* \"contracts/StableCoin.sol\":4950:4960  cUSDAmount */\n      dup3\n        /* \"contracts/StableCoin.sol\":4935:4961  Redeemed(from, cUSDAmount) */\n      mload(0x40)\n      tag_159\n      swap2\n      swap1\n      tag_58\n      jump\t// in\n    tag_159:\n      mload(0x40)\n      dup1\n      swap2\n      sub\n      swap1\n      log2\n        /* \"contracts/StableCoin.sol\":4718:4968  function burnStableCoin(address from, uint256 cUSDAmount) external override {... */\n      pop\n      pop\n      jump\t// out\n        /* \"@openzeppelin/contracts/token/ERC20/ERC20.sol\":2849:2946  function totalSupply() public view virtual returns (uint256) {... */\n    tag_56:\n        /* \"@openzeppelin/contracts/token/ERC20/ERC20.sol\":2901:2908  uint256 */\n      0x00\n        /* \"@openzeppelin/contracts/token/ERC20/ERC20.sol\":2927:2939  _totalSupply */\n      sload(0x02)\n        /* \"@openzeppelin/contracts/token/ERC20/ERC20.sol\":2920:2939  return _totalSupply */\n      swap1\n      pop\n        /* \"@openzeppelin/contracts/token/ERC20/ERC20.sol\":2849:2946  function totalSupply() public view virtual returns (uint256) {... */\n      swap1\n      jump\t// out\n        /* \"@openzeppelin/contracts/token/ERC20/ERC20.sol\":4776:5020  function transferFrom(address from, address to, uint256 value) public virtual returns (bool) {... */\n    tag_62:\n        /* \"@openzeppelin/contracts/token/ERC20/ERC20.sol\":4863:4867  bool */\n      0x00\n        /* \"@openzeppelin/contracts/token/ERC20/ERC20.sol\":4879:4894  address spender */\n      dup1\n        /* \"@openzeppelin/contracts/token/ERC20/ERC20.sol\":4897:4909  _msgSender() */\n      tag_162\n        /* \"@openzeppelin/contracts/token/ERC20/ERC20.sol\":4897:4907  _msgSender */\n      tag_148\n        /* \"@openzeppelin/contracts/token/ERC20/ERC20.sol\":4897:4909  _msgSender() */\n      jump\t// in\n    tag_162:\n        /* \"@openzeppelin/contracts/token/ERC20/ERC20.sol\":4879:4909  address spender = _msgSender() */\n      swap1\n      pop\n        /* \"@openzeppelin/contracts/token/ERC20/ERC20.sol\":4919:4956  _spendAllowance(from, spender, value) */\n      tag_163\n        /* \"@openzeppelin/contracts/token/ERC20/ERC20.sol\":4935:4939  from */\n      dup6\n        /* \"@openzeppelin/contracts/token/ERC20/ERC20.sol\":4941:4948  spender */\n      dup3\n        /* \"@openzeppelin/contracts/token/ERC20/ERC20.sol\":4950:4955  value */\n      dup6\n        /* \"@openzeppelin/contracts/token/ERC20/ERC20.sol\":4919:4934  _spendAllowance */\n      tag_164\n        /* \"@openzeppelin/contracts/token/ERC20/ERC20.sol\":4919:4956  _spendAllowance(from, spender, value) */\n      jump\t// in\n    tag_163:\n        /* \"@openzeppelin/contracts/token/ERC20/ERC20.sol\":4966:4992  _transfer(from, to, value) */\n      tag_165\n        /* \"@openzeppelin/contracts/token/ERC20/ERC20.sol\":4976:4980  from */\n      dup6\n        /* \"@openzeppelin/contracts/token/ERC20/ERC20.sol\":4982:4984  to */\n      dup6\n        /* \"@openzeppelin/contracts/token/ERC20/ERC20.sol\":4986:4991  value */\n      dup6\n        /* \"@openzeppelin/contracts/token/ERC20/ERC20.sol\":4966:4975  _transfer */\n      tag_166\n        /* \"@openzeppelin/contracts/token/ERC20/ERC20.sol\":4966:4992  _transfer(from, to, value) */\n      jump\t// in\n    tag_165:\n        /* \"@openzeppelin/contracts/token/ERC20/ERC20.sol\":5009:5013  true */\n      0x01\n        /* \"@openzeppelin/contracts/token/ERC20/ERC20.sol\":5002:5013  return true */\n      swap2\n      pop\n      pop\n        /* \"@openzeppelin/contracts/token/ERC20/ERC20.sol\":4776:5020  function transferFrom(address from, address to, uint256 value) public virtual returns (bool) {... */\n      swap4\n      swap3\n      pop\n      pop\n      pop\n      jump\t// out\n        /* \"@openzeppelin/contracts/token/ERC20/ERC20.sol\":2707:2789  function decimals() public view virtual returns (uint8) {... */\n    tag_65:\n        /* \"@openzeppelin/contracts/token/ERC20/ERC20.sol\":2756:2761  uint8 */\n      0x00\n        /* \"@openzeppelin/contracts/token/ERC20/ERC20.sol\":2780:2782  18 */\n      0x12\n        /* \"@openzeppelin/contracts/token/ERC20/ERC20.sol\":2773:2782  return 18 */\n      swap1\n      pop\n        /* \"@openzeppelin/contracts/token/ERC20/ERC20.sol\":2707:2789  function decimals() public view virtual returns (uint8) {... */\n      swap1\n      jump\t// out\n        /* \"contracts/StableCoin.sol\":3220:4085  function withdrawCollateral(address user, uint256 amount) external override {... */\n    tag_70:\n        /* \"contracts/StableCoin.sol\":3306:3322  accrueInterest() */\n      tag_169\n        /* \"contracts/StableCoin.sol\":3306:3320  accrueInterest */\n      tag_104\n        /* \"contracts/StableCoin.sol\":3306:3322  accrueInterest() */\n      jump\t// in\n    tag_169:\n        /* \"contracts/StableCoin.sol\":3350:3362  cBTCDeposits */\n      0x0b\n        /* \"contracts/StableCoin.sol\":3350:3368  cBTCDeposits[user] */\n      0x00\n        /* \"contracts/StableCoin.sol\":3363:3367  user */\n      dup4\n        /* \"contracts/StableCoin.sol\":3350:3368  cBTCDeposits[user] */\n      0xffffffffffffffffffffffffffffffffffffffff\n      and\n      0xffffffffffffffffffffffffffffffffffffffff\n      and\n      dup2\n      mstore\n      0x20\n      add\n      swap1\n      dup2\n      mstore\n      0x20\n      add\n      0x00\n      keccak256\n      sload\n        /* \"contracts/StableCoin.sol\":3340:3346  amount */\n      dup2\n        /* \"contracts/StableCoin.sol\":3340:3368  amount <= cBTCDeposits[user] */\n      gt\n      iszero\n        /* \"contracts/StableCoin.sol\":3332:3394  require(amount <= cBTCDeposits[user], \"Not enough collateral\") */\n      tag_170\n      jumpi\n      mload(0x40)\n      0x08c379a000000000000000000000000000000000000000000000000000000000\n      dup2\n      mstore\n      0x04\n      add\n      tag_171\n      swap1\n      tag_172\n      jump\t// in\n    tag_171:\n      mload(0x40)\n      dup1\n      swap2\n      sub\n      swap1\n      revert\n    tag_170:\n        /* \"contracts/StableCoin.sol\":3405:3421  uint256 userDebt */\n      0x00\n        /* \"contracts/StableCoin.sol\":3424:3439  balanceOf(user) */\n      tag_173\n        /* \"contracts/StableCoin.sol\":3434:3438  user */\n      dup4\n        /* \"contracts/StableCoin.sol\":3424:3433  balanceOf */\n      tag_85\n        /* \"contracts/StableCoin.sol\":3424:3439  balanceOf(user) */\n      jump\t// in\n    tag_173:\n        /* \"contracts/StableCoin.sol\":3405:3439  uint256 userDebt = balanceOf(user) */\n      swap1\n      pop\n        /* \"contracts/StableCoin.sol\":3449:3462  uint256 price */\n      0x00\n        /* \"contracts/StableCoin.sol\":3465:3471  oracle */\n      0x07\n      0x00\n      swap1\n      sload\n      swap1\n      0x0100\n      exp\n      swap1\n      div\n      0xffffffffffffffffffffffffffffffffffffffff\n      and\n        /* \"contracts/StableCoin.sol\":3465:3480  oracle.getPrice */\n      0xffffffffffffffffffffffffffffffffffffffff\n      and\n      0x41976e09\n        /* \"contracts/StableCoin.sol\":3489:3493  cBTC */\n      0x06\n      0x00\n      swap1\n      sload\n      swap1\n      0x0100\n      exp\n      swap1\n      div\n      0xffffffffffffffffffffffffffffffffffffffff\n      and\n        /* \"contracts/StableCoin.sol\":3465:3495  oracle.getPrice(address(cBTC)) */\n      mload(0x40)\n      dup3\n      0xffffffff\n      and\n      0xe0\n      shl\n      dup2\n      mstore\n      0x04\n      add\n      tag_174\n      swap2\n      swap1\n      tag_96\n      jump\t// in\n    tag_174:\n      0x20\n      mload(0x40)\n      dup1\n      dup4\n      sub\n      dup2\n      dup7\n      gas\n      staticcall\n      iszero\n      dup1\n      iszero\n      tag_176\n      jumpi\n      returndatasize\n      0x00\n      dup1\n      returndatacopy\n      revert(0x00, returndatasize)\n    tag_176:\n      pop\n      pop\n      pop\n      pop\n      mload(0x40)\n      returndatasize\n      not(0x1f)\n      0x1f\n      dup3\n      add\n      and\n      dup3\n      add\n      dup1\n      0x40\n      mstore\n      pop\n      dup2\n      add\n      swap1\n      tag_177\n      swap2\n      swap1\n      tag_178\n      jump\t// in\n    tag_177:\n        /* \"contracts/StableCoin.sol\":3449:3495  uint256 price = oracle.getPrice(address(cBTC)) */\n      swap1\n      pop\n        /* \"contracts/StableCoin.sol\":3505:3531  uint256 requiredCollateral */\n      0x00\n        /* \"contracts/StableCoin.sol\":3565:3569  1e18 */\n      0x0de0b6b3a7640000\n        /* \"contracts/StableCoin.sol\":3546:3561  collateralRatio */\n      sload(0x08)\n        /* \"contracts/StableCoin.sol\":3535:3543  userDebt */\n      dup5\n        /* \"contracts/StableCoin.sol\":3535:3561  userDebt * collateralRatio */\n      tag_179\n      swap2\n      swap1\n      tag_180\n      jump\t// in\n    tag_179:\n        /* \"contracts/StableCoin.sol\":3534:3569  (userDebt * collateralRatio) / 1e18 */\n      tag_181\n      swap2\n      swap1\n      tag_182\n      jump\t// in\n    tag_181:\n        /* \"contracts/StableCoin.sol\":3505:3569  uint256 requiredCollateral = (userDebt * collateralRatio) / 1e18 */\n      swap1\n      pop\n        /* \"contracts/StableCoin.sol\":3695:3700  price */\n      dup2\n        /* \"contracts/StableCoin.sol\":3687:3691  1e18 */\n      0x0de0b6b3a7640000\n        /* \"contracts/StableCoin.sol\":3666:3684  requiredCollateral */\n      dup3\n        /* \"contracts/StableCoin.sol\":3666:3691  requiredCollateral * 1e18 */\n      tag_183\n      swap2\n      swap1\n      tag_180\n      jump\t// in\n    tag_183:\n        /* \"contracts/StableCoin.sol\":3665:3700  (requiredCollateral * 1e18) / price */\n      tag_184\n      swap2\n      swap1\n      tag_182\n      jump\t// in\n    tag_184:\n        /* \"contracts/StableCoin.sol\":3644:3700  requiredCollateral = (requiredCollateral * 1e18) / price */\n      swap1\n      pop\n        /* \"contracts/StableCoin.sol\":3711:3730  uint256 maxWithdraw */\n      0x00\n        /* \"contracts/StableCoin.sol\":3754:3772  requiredCollateral */\n      dup2\n        /* \"contracts/StableCoin.sol\":3733:3745  cBTCDeposits */\n      0x0b\n        /* \"contracts/StableCoin.sol\":3733:3751  cBTCDeposits[user] */\n      0x00\n        /* \"contracts/StableCoin.sol\":3746:3750  user */\n      dup9\n        /* \"contracts/StableCoin.sol\":3733:3751  cBTCDeposits[user] */\n      0xffffffffffffffffffffffffffffffffffffffff\n      and\n      0xffffffffffffffffffffffffffffffffffffffff\n      and\n      dup2\n      mstore\n      0x20\n      add\n      swap1\n      dup2\n      mstore\n      0x20\n      add\n      0x00\n      keccak256\n      sload\n        /* \"contracts/StableCoin.sol\":3733:3772  cBTCDeposits[user] > requiredCollateral */\n      gt\n        /* \"contracts/StableCoin.sol\":3733:3842  cBTCDeposits[user] > requiredCollateral... */\n      tag_185\n      jumpi\n        /* \"contracts/StableCoin.sol\":3841:3842  0 */\n      0x00\n        /* \"contracts/StableCoin.sol\":3733:3842  cBTCDeposits[user] > requiredCollateral... */\n      jump(tag_186)\n    tag_185:\n        /* \"contracts/StableCoin.sol\":3808:3826  requiredCollateral */\n      dup2\n        /* \"contracts/StableCoin.sol\":3787:3799  cBTCDeposits */\n      0x0b\n        /* \"contracts/StableCoin.sol\":3787:3805  cBTCDeposits[user] */\n      0x00\n        /* \"contracts/StableCoin.sol\":3800:3804  user */\n      dup9\n        /* \"contracts/StableCoin.sol\":3787:3805  cBTCDeposits[user] */\n      0xffffffffffffffffffffffffffffffffffffffff\n      and\n      0xffffffffffffffffffffffffffffffffffffffff\n      and\n      dup2\n      mstore\n      0x20\n      add\n      swap1\n      dup2\n      mstore\n      0x20\n      add\n      0x00\n      keccak256\n      sload\n        /* \"contracts/StableCoin.sol\":3787:3826  cBTCDeposits[user] - requiredCollateral */\n      tag_187\n      swap2\n      swap1\n      tag_188\n      jump\t// in\n    tag_187:\n        /* \"contracts/StableCoin.sol\":3733:3842  cBTCDeposits[user] > requiredCollateral... */\n    tag_186:\n        /* \"contracts/StableCoin.sol\":3711:3842  uint256 maxWithdraw = cBTCDeposits[user] > requiredCollateral... */\n      swap1\n      pop\n        /* \"contracts/StableCoin.sol\":3871:3882  maxWithdraw */\n      dup1\n        /* \"contracts/StableCoin.sol\":3861:3867  amount */\n      dup6\n        /* \"contracts/StableCoin.sol\":3861:3882  amount <= maxWithdraw */\n      gt\n      iszero\n        /* \"contracts/StableCoin.sol\":3853:3922  require(amount <= maxWithdraw, \"Withdrawal would undercollateralize\") */\n      tag_189\n      jumpi\n      mload(0x40)\n      0x08c379a000000000000000000000000000000000000000000000000000000000\n      dup2\n      mstore\n      0x04\n      add\n      tag_190\n      swap1\n      tag_191\n      jump\t// in\n    tag_190:\n      mload(0x40)\n      dup1\n      swap2\n      sub\n      swap1\n      revert\n    tag_189:\n        /* \"contracts/StableCoin.sol\":3954:3960  amount */\n      dup5\n        /* \"contracts/StableCoin.sol\":3932:3944  cBTCDeposits */\n      0x0b\n        /* \"contracts/StableCoin.sol\":3932:3950  cBTCDeposits[user] */\n      0x00\n        /* \"contracts/StableCoin.sol\":3945:3949  user */\n      dup9\n        /* \"contracts/StableCoin.sol\":3932:3950  cBTCDeposits[user] */\n      0xffffffffffffffffffffffffffffffffffffffff\n      and\n      0xffffffffffffffffffffffffffffffffffffffff\n      and\n      dup2\n      mstore\n      0x20\n      add\n      swap1\n      dup2\n      mstore\n      0x20\n      add\n      0x00\n      keccak256\n      0x00\n        /* \"contracts/StableCoin.sol\":3932:3960  cBTCDeposits[user] -= amount */\n      dup3\n      dup3\n      sload\n      tag_192\n      swap2\n      swap1\n      tag_188\n      jump\t// in\n    tag_192:\n      swap3\n      pop\n      pop\n      dup2\n      swap1\n      sstore\n      pop\n        /* \"contracts/StableCoin.sol\":3978:3982  cBTC */\n      0x06\n      0x00\n      swap1\n      sload\n      swap1\n      0x0100\n      exp\n      swap1\n      div\n      0xffffffffffffffffffffffffffffffffffffffff\n      and\n        /* \"contracts/StableCoin.sol\":3978:3991  cBTC.transfer */\n      0xffffffffffffffffffffffffffffffffffffffff\n      and\n      0xa9059cbb\n        /* \"contracts/StableCoin.sol\":3992:3996  user */\n      dup8\n        /* \"contracts/StableCoin.sol\":3998:4004  amount */\n      dup8\n        /* \"contracts/StableCoin.sol\":3978:4005  cBTC.transfer(user, amount) */\n      mload(0x40)\n      dup4\n      0xffffffff\n      and\n      0xe0\n      shl\n      dup2\n      mstore\n      0x04\n      add\n      tag_193\n      swap3\n      swap2\n      swap1\n      tag_194\n      jump\t// in\n    tag_193:\n      0x20\n      mload(0x40)\n      dup1\n      dup4\n      sub\n      dup2\n      0x00\n      dup8\n      gas\n      call\n      iszero\n      dup1\n      iszero\n      tag_196\n      jumpi\n      returndatasize\n      0x00\n      dup1\n      returndatacopy\n      revert(0x00, returndatasize)\n    tag_196:\n      pop\n      pop\n      pop\n      pop\n      mload(0x40)\n      returndatasize\n      not(0x1f)\n      0x1f\n      dup3\n      add\n      and\n      dup3\n      add\n      dup1\n      0x40\n      mstore\n      pop\n      dup2\n      add\n      swap1\n      tag_197\n      swap2\n      swap1\n      tag_198\n      jump\t// in\n    tag_197:\n        /* \"contracts/StableCoin.sol\":3970:4030  require(cBTC.transfer(user, amount), \"cBTC transfer failed\") */\n      tag_199\n      jumpi\n      mload(0x40)\n      0x08c379a000000000000000000000000000000000000000000000000000000000\n      dup2\n      mstore\n      0x04\n      add\n      tag_200\n      swap1\n      tag_201\n      jump\t// in\n    tag_200:\n      mload(0x40)\n      dup1\n      swap2\n      sub\n      swap1\n      revert\n    tag_199:\n        /* \"contracts/StableCoin.sol\":4065:4069  user */\n      dup6\n        /* \"contracts/StableCoin.sol\":4045:4078  CollateralWithdrawn(user, amount) */\n      0xffffffffffffffffffffffffffffffffffffffff\n      and\n      0xc30fcfbcaac9e0deffa719714eaa82396ff506a0d0d0eebe170830177288715d\n        /* \"contracts/StableCoin.sol\":4071:4077  amount */\n      dup7\n        /* \"contracts/StableCoin.sol\":4045:4078  CollateralWithdrawn(user, amount) */\n      mload(0x40)\n      tag_202\n      swap2\n      swap1\n      tag_58\n      jump\t// in\n    tag_202:\n      mload(0x40)\n      dup1\n      swap2\n      sub\n      swap1\n      log2\n        /* \"contracts/StableCoin.sol\":3296:4085  {... */\n      pop\n      pop\n      pop\n      pop\n        /* \"contracts/StableCoin.sol\":3220:4085  function withdrawCollateral(address user, uint256 amount) external override {... */\n      pop\n      pop\n      jump\t// out\n        /* \"contracts/StableCoin.sol\":694:721  uint256 public stabilityFee */\n    tag_72:\n      sload(0x09)\n      dup2\n      jump\t// out\n        /* \"contracts/StableCoin.sol\":813:860  mapping(address => uint256) public cBTCDeposits */\n    tag_77:\n      mstore(0x20, 0x0b)\n      dup1\n      0x00\n      mstore\n      keccak256(0x00, 0x40)\n      0x00\n      swap2\n      pop\n      swap1\n      pop\n      sload\n      dup2\n      jump\t// out\n        /* \"contracts/StableCoin.sol\":6766:6937  function setCollateralRatio(uint256 _newRatio) external onlyOwner {... */\n    tag_82:\n        /* \"@openzeppelin/contracts/access/Ownable.sol\":1531:1544  _checkOwner() */\n      tag_204\n        /* \"@openzeppelin/contracts/access/Ownable.sol\":1531:1542  _checkOwner */\n      tag_205\n        /* \"@openzeppelin/contracts/access/Ownable.sol\":1531:1544  _checkOwner() */\n      jump\t// in\n    tag_204:\n        /* \"contracts/StableCoin.sol\":6863:6867  1e18 */\n      0x0de0b6b3a7640000\n        /* \"contracts/StableCoin.sol\":6850:6859  _newRatio */\n      dup2\n        /* \"contracts/StableCoin.sol\":6850:6867  _newRatio >= 1e18 */\n      lt\n      iszero\n        /* \"contracts/StableCoin.sol\":6842:6893  require(_newRatio >= 1e18, \"Ratio must be >= 100%\") */\n      tag_207\n      jumpi\n      mload(0x40)\n      0x08c379a000000000000000000000000000000000000000000000000000000000\n      dup2\n      mstore\n      0x04\n      add\n      tag_208\n      swap1\n      tag_209\n      jump\t// in\n    tag_208:\n      mload(0x40)\n      dup1\n      swap2\n      sub\n      swap1\n      revert\n    tag_207:\n        /* \"contracts/StableCoin.sol\":6921:6930  _newRatio */\n      dup1\n        /* \"contracts/StableCoin.sol\":6903:6918  collateralRatio */\n      0x08\n        /* \"contracts/StableCoin.sol\":6903:6930  collateralRatio = _newRatio */\n      dup2\n      swap1\n      sstore\n      pop\n        /* \"contracts/StableCoin.sol\":6766:6937  function setCollateralRatio(uint256 _newRatio) external onlyOwner {... */\n      pop\n      jump\t// out\n        /* \"@openzeppelin/contracts/token/ERC20/ERC20.sol\":3004:3120  function balanceOf(address account) public view virtual returns (uint256) {... */\n    tag_85:\n        /* \"@openzeppelin/contracts/token/ERC20/ERC20.sol\":3069:3076  uint256 */\n      0x00\n        /* \"@openzeppelin/contracts/token/ERC20/ERC20.sol\":3095:3104  _balances */\n      dup1\n        /* \"@openzeppelin/contracts/token/ERC20/ERC20.sol\":3095:3113  _balances[account] */\n      0x00\n        /* \"@openzeppelin/contracts/token/ERC20/ERC20.sol\":3105:3112  account */\n      dup4\n        /* \"@openzeppelin/contracts/token/ERC20/ERC20.sol\":3095:3113  _balances[account] */\n      0xffffffffffffffffffffffffffffffffffffffff\n      and\n      0xffffffffffffffffffffffffffffffffffffffff\n      and\n      dup2\n      mstore\n      0x20\n      add\n      swap1\n      dup2\n      mstore\n      0x20\n      add\n      0x00\n      keccak256\n      sload\n        /* \"@openzeppelin/contracts/token/ERC20/ERC20.sol\":3088:3113  return _balances[account] */\n      swap1\n      pop\n        /* \"@openzeppelin/contracts/token/ERC20/ERC20.sol\":3004:3120  function balanceOf(address account) public view virtual returns (uint256) {... */\n      swap2\n      swap1\n      pop\n      jump\t// out\n        /* \"@openzeppelin/contracts/access/Ownable.sol\":2293:2394  function renounceOwnership() public virtual onlyOwner {... */\n    tag_88:\n        /* \"@openzeppelin/contracts/access/Ownable.sol\":1531:1544  _checkOwner() */\n      tag_212\n        /* \"@openzeppelin/contracts/access/Ownable.sol\":1531:1542  _checkOwner */\n      tag_205\n        /* \"@openzeppelin/contracts/access/Ownable.sol\":1531:1544  _checkOwner() */\n      jump\t// in\n    tag_212:\n        /* \"@openzeppelin/contracts/access/Ownable.sol\":2357:2387  _transferOwnership(address(0)) */\n      tag_214\n        /* \"@openzeppelin/contracts/access/Ownable.sol\":2384:2385  0 */\n      0x00\n        /* \"@openzeppelin/contracts/access/Ownable.sol\":2357:2375  _transferOwnership */\n      tag_215\n        /* \"@openzeppelin/contracts/access/Ownable.sol\":2357:2387  _transferOwnership(address(0)) */\n      jump\t// in\n    tag_214:\n        /* \"@openzeppelin/contracts/access/Ownable.sol\":2293:2394  function renounceOwnership() public virtual onlyOwner {... */\n      jump\t// out\n        /* \"contracts/StableCoin.sol\":575:601  IPriceOracle public oracle */\n    tag_90:\n      0x07\n      0x00\n      swap1\n      sload\n      swap1\n      0x0100\n      exp\n      swap1\n      div\n      0xffffffffffffffffffffffffffffffffffffffff\n      and\n      dup2\n      jump\t// out\n        /* \"@openzeppelin/contracts/access/Ownable.sol\":1638:1723  function owner() public view virtual returns (address) {... */\n    tag_94:\n        /* \"@openzeppelin/contracts/access/Ownable.sol\":1684:1691  address */\n      0x00\n        /* \"@openzeppelin/contracts/access/Ownable.sol\":1710:1716  _owner */\n      0x05\n      0x00\n      swap1\n      sload\n      swap1\n      0x0100\n      exp\n      swap1\n      div\n      0xffffffffffffffffffffffffffffffffffffffff\n      and\n        /* \"@openzeppelin/contracts/access/Ownable.sol\":1703:1716  return _owner */\n      swap1\n      pop\n        /* \"@openzeppelin/contracts/access/Ownable.sol\":1638:1723  function owner() public view virtual returns (address) {... */\n      swap1\n      jump\t// out\n        /* \"@openzeppelin/contracts/token/ERC20/ERC20.sol\":1981:2074  function symbol() public view virtual returns (string memory) {... */\n    tag_98:\n        /* \"@openzeppelin/contracts/token/ERC20/ERC20.sol\":2028:2041  string memory */\n      0x60\n        /* \"@openzeppelin/contracts/token/ERC20/ERC20.sol\":2060:2067  _symbol */\n      0x04\n        /* \"@openzeppelin/contracts/token/ERC20/ERC20.sol\":2053:2067  return _symbol */\n      dup1\n      sload\n      tag_218\n      swap1\n      tag_141\n      jump\t// in\n    tag_218:\n      dup1\n      0x1f\n      add\n      0x20\n      dup1\n      swap2\n      div\n      mul\n      0x20\n      add\n      mload(0x40)\n      swap1\n      dup2\n      add\n      0x40\n      mstore\n      dup1\n      swap3\n      swap2\n      swap1\n      dup2\n      dup2\n      mstore\n      0x20\n      add\n      dup3\n      dup1\n      sload\n      tag_219\n      swap1\n      tag_141\n      jump\t// in\n    tag_219:\n      dup1\n      iszero\n      tag_220\n      jumpi\n      dup1\n      0x1f\n      lt\n      tag_221\n      jumpi\n      0x0100\n      dup1\n      dup4\n      sload\n      div\n      mul\n      dup4\n      mstore\n      swap2\n      0x20\n      add\n      swap2\n      jump(tag_220)\n    tag_221:\n      dup3\n      add\n      swap2\n      swap1\n      0x00\n      mstore\n      keccak256(0x00, 0x20)\n      swap1\n    tag_222:\n      dup2\n      sload\n      dup2\n      mstore\n      swap1\n      0x01\n      add\n      swap1\n      0x20\n      add\n      dup1\n      dup4\n      gt\n      tag_222\n      jumpi\n      dup3\n      swap1\n      sub\n      0x1f\n      and\n      dup3\n      add\n      swap2\n    tag_220:\n      pop\n      pop\n      pop\n      pop\n      pop\n      swap1\n      pop\n        /* \"@openzeppelin/contracts/token/ERC20/ERC20.sol\":1981:2074  function symbol() public view virtual returns (string memory) {... */\n      swap1\n      jump\t// out\n        /* \"contracts/StableCoin.sol\":2804:3112  function depositCollateral(address user, uint256 amount) external override {... */\n    tag_102:\n        /* \"contracts/StableCoin.sol\":2906:2907  0 */\n      0x00\n        /* \"contracts/StableCoin.sol\":2897:2903  amount */\n      dup2\n        /* \"contracts/StableCoin.sol\":2897:2907  amount > 0 */\n      gt\n        /* \"contracts/StableCoin.sol\":2889:2930  require(amount > 0, \"Amount must be > 0\") */\n      tag_224\n      jumpi\n      mload(0x40)\n      0x08c379a000000000000000000000000000000000000000000000000000000000\n      dup2\n      mstore\n      0x04\n      add\n      tag_225\n      swap1\n      tag_226\n      jump\t// in\n    tag_225:\n      mload(0x40)\n      dup1\n      swap2\n      sub\n      swap1\n      revert\n    tag_224:\n        /* \"contracts/StableCoin.sol\":2948:2952  cBTC */\n      0x06\n      0x00\n      swap1\n      sload\n      swap1\n      0x0100\n      exp\n      swap1\n      div\n      0xffffffffffffffffffffffffffffffffffffffff\n      and\n        /* \"contracts/StableCoin.sol\":2948:2965  cBTC.transferFrom */\n      0xffffffffffffffffffffffffffffffffffffffff\n      and\n      0x23b872dd\n        /* \"contracts/StableCoin.sol\":2966:2970  user */\n      dup4\n        /* \"contracts/StableCoin.sol\":2980:2984  this */\n      address\n        /* \"contracts/StableCoin.sol\":2987:2993  amount */\n      dup5\n        /* \"contracts/StableCoin.sol\":2948:2994  cBTC.transferFrom(user, address(this), amount) */\n      mload(0x40)\n      dup5\n      0xffffffff\n      and\n      0xe0\n      shl\n      dup2\n      mstore\n      0x04\n      add\n      tag_227\n      swap4\n      swap3\n      swap2\n      swap1\n      tag_228\n      jump\t// in\n    tag_227:\n      0x20\n      mload(0x40)\n      dup1\n      dup4\n      sub\n      dup2\n      0x00\n      dup8\n      gas\n      call\n      iszero\n      dup1\n      iszero\n      tag_230\n      jumpi\n      returndatasize\n      0x00\n      dup1\n      returndatacopy\n      revert(0x00, returndatasize)\n    tag_230:\n      pop\n      pop\n      pop\n      pop\n      mload(0x40)\n      returndatasize\n      not(0x1f)\n      0x1f\n      dup3\n      add\n      and\n      dup3\n      add\n      dup1\n      0x40\n      mstore\n      pop\n      dup2\n      add\n      swap1\n      tag_231\n      swap2\n      swap1\n      tag_198\n      jump\t// in\n    tag_231:\n        /* \"contracts/StableCoin.sol\":2940:3019  require(cBTC.transferFrom(user, address(this), amount), \"cBTC transfer failed\") */\n      tag_232\n      jumpi\n      mload(0x40)\n      0x08c379a000000000000000000000000000000000000000000000000000000000\n      dup2\n      mstore\n      0x04\n      add\n      tag_233\n      swap1\n      tag_201\n      jump\t// in\n    tag_233:\n      mload(0x40)\n      dup1\n      swap2\n      sub\n      swap1\n      revert\n    tag_232:\n        /* \"contracts/StableCoin.sol\":3051:3057  amount */\n      dup1\n        /* \"contracts/StableCoin.sol\":3029:3041  cBTCDeposits */\n      0x0b\n        /* \"contracts/StableCoin.sol\":3029:3047  cBTCDeposits[user] */\n      0x00\n        /* \"contracts/StableCoin.sol\":3042:3046  user */\n      dup5\n        /* \"contracts/StableCoin.sol\":3029:3047  cBTCDeposits[user] */\n      0xffffffffffffffffffffffffffffffffffffffff\n      and\n      0xffffffffffffffffffffffffffffffffffffffff\n      and\n      dup2\n      mstore\n      0x20\n      add\n      swap1\n      dup2\n      mstore\n      0x20\n      add\n      0x00\n      keccak256\n      0x00\n        /* \"contracts/StableCoin.sol\":3029:3057  cBTCDeposits[user] += amount */\n      dup3\n      dup3\n      sload\n      tag_234\n      swap2\n      swap1\n      tag_235\n      jump\t// in\n    tag_234:\n      swap3\n      pop\n      pop\n      dup2\n      swap1\n      sstore\n      pop\n        /* \"contracts/StableCoin.sol\":3092:3096  user */\n      dup2\n        /* \"contracts/StableCoin.sol\":3072:3105  CollateralDeposited(user, amount) */\n      0xffffffffffffffffffffffffffffffffffffffff\n      and\n      0xd7243f6f8212d5188fd054141cf6ea89cfc0d91facb8c3afe2f88a1358480142\n        /* \"contracts/StableCoin.sol\":3098:3104  amount */\n      dup3\n        /* \"contracts/StableCoin.sol\":3072:3105  CollateralDeposited(user, amount) */\n      mload(0x40)\n      tag_236\n      swap2\n      swap1\n      tag_58\n      jump\t// in\n    tag_236:\n      mload(0x40)\n      dup1\n      swap2\n      sub\n      swap1\n      log2\n        /* \"contracts/StableCoin.sol\":2804:3112  function depositCollateral(address user, uint256 amount) external override {... */\n      pop\n      pop\n      jump\t// out\n        /* \"contracts/StableCoin.sol\":2012:2626  function accrueInterest() public override {... */\n    tag_104:\n        /* \"contracts/StableCoin.sol\":2064:2083  uint256 timeElapsed */\n      0x00\n        /* \"contracts/StableCoin.sol\":2104:2119  lastAccrualTime */\n      sload(0x0a)\n        /* \"contracts/StableCoin.sol\":2086:2101  block.timestamp */\n      timestamp\n        /* \"contracts/StableCoin.sol\":2086:2119  block.timestamp - lastAccrualTime */\n      tag_238\n      swap2\n      swap1\n      tag_188\n      jump\t// in\n    tag_238:\n        /* \"contracts/StableCoin.sol\":2064:2119  uint256 timeElapsed = block.timestamp - lastAccrualTime */\n      swap1\n      pop\n        /* \"contracts/StableCoin.sol\":2147:2148  0 */\n      0x00\n        /* \"contracts/StableCoin.sol\":2133:2144  timeElapsed */\n      dup2\n        /* \"contracts/StableCoin.sol\":2133:2148  timeElapsed > 0 */\n      gt\n        /* \"contracts/StableCoin.sol\":2133:2169  timeElapsed > 0 && totalSupply() > 0 */\n      dup1\n      iszero\n      tag_239\n      jumpi\n      pop\n        /* \"contracts/StableCoin.sol\":2168:2169  0 */\n      0x00\n        /* \"contracts/StableCoin.sol\":2152:2165  totalSupply() */\n      tag_240\n        /* \"contracts/StableCoin.sol\":2152:2163  totalSupply */\n      tag_56\n        /* \"contracts/StableCoin.sol\":2152:2165  totalSupply() */\n      jump\t// in\n    tag_240:\n        /* \"contracts/StableCoin.sol\":2152:2169  totalSupply() > 0 */\n      gt\n        /* \"contracts/StableCoin.sol\":2133:2169  timeElapsed > 0 && totalSupply() > 0 */\n    tag_239:\n        /* \"contracts/StableCoin.sol\":2129:2620  if (timeElapsed > 0 && totalSupply() > 0) {... */\n      iszero\n      tag_241\n      jumpi\n        /* \"contracts/StableCoin.sol\":2299:2318  uint256 feeFraction */\n      0x00\n        /* \"contracts/StableCoin.sol\":2352:2360  31536000 */\n      0x01e13380\n        /* \"contracts/StableCoin.sol\":2337:2348  timeElapsed */\n      dup3\n        /* \"contracts/StableCoin.sol\":2322:2334  stabilityFee */\n      sload(0x09)\n        /* \"contracts/StableCoin.sol\":2322:2348  stabilityFee * timeElapsed */\n      tag_242\n      swap2\n      swap1\n      tag_180\n      jump\t// in\n    tag_242:\n        /* \"contracts/StableCoin.sol\":2321:2360  (stabilityFee * timeElapsed) / 31536000 */\n      tag_243\n      swap2\n      swap1\n      tag_182\n      jump\t// in\n    tag_243:\n        /* \"contracts/StableCoin.sol\":2299:2360  uint256 feeFraction = (stabilityFee * timeElapsed) / 31536000 */\n      swap1\n      pop\n        /* \"contracts/StableCoin.sol\":2394:2418  uint256 additionalSupply */\n      0x00\n        /* \"contracts/StableCoin.sol\":2453:2458  10000 */\n      0x2710\n        /* \"contracts/StableCoin.sol\":2438:2449  feeFraction */\n      dup3\n        /* \"contracts/StableCoin.sol\":2422:2435  totalSupply() */\n      tag_244\n        /* \"contracts/StableCoin.sol\":2422:2433  totalSupply */\n      tag_56\n        /* \"contracts/StableCoin.sol\":2422:2435  totalSupply() */\n      jump\t// in\n    tag_244:\n        /* \"contracts/StableCoin.sol\":2422:2449  totalSupply() * feeFraction */\n      tag_245\n      swap2\n      swap1\n      tag_180\n      jump\t// in\n    tag_245:\n        /* \"contracts/StableCoin.sol\":2421:2458  (totalSupply() * feeFraction) / 10000 */\n      tag_246\n      swap2\n      swap1\n      tag_182\n      jump\t// in\n    tag_246:\n        /* \"contracts/StableCoin.sol\":2394:2458  uint256 additionalSupply = (totalSupply() * feeFraction) / 10000 */\n      swap1\n      pop\n        /* \"contracts/StableCoin.sol\":2495:2496  0 */\n      0x00\n        /* \"contracts/StableCoin.sol\":2476:2492  additionalSupply */\n      dup2\n        /* \"contracts/StableCoin.sol\":2476:2496  additionalSupply > 0 */\n      gt\n        /* \"contracts/StableCoin.sol\":2472:2563  if (additionalSupply > 0) {... */\n      iszero\n      tag_247\n      jumpi\n        /* \"contracts/StableCoin.sol\":2516:2548  _mint(owner(), additionalSupply) */\n      tag_248\n        /* \"contracts/StableCoin.sol\":2522:2529  owner() */\n      tag_249\n        /* \"contracts/StableCoin.sol\":2522:2527  owner */\n      tag_94\n        /* \"contracts/StableCoin.sol\":2522:2529  owner() */\n      jump\t// in\n    tag_249:\n        /* \"contracts/StableCoin.sol\":2531:2547  additionalSupply */\n      dup3\n        /* \"contracts/StableCoin.sol\":2516:2521  _mint */\n      tag_250\n        /* \"contracts/StableCoin.sol\":2516:2548  _mint(owner(), additionalSupply) */\n      jump\t// in\n    tag_248:\n        /* \"contracts/StableCoin.sol\":2472:2563  if (additionalSupply > 0) {... */\n    tag_247:\n        /* \"contracts/StableCoin.sol\":2594:2609  block.timestamp */\n      timestamp\n        /* \"contracts/StableCoin.sol\":2576:2591  lastAccrualTime */\n      0x0a\n        /* \"contracts/StableCoin.sol\":2576:2609  lastAccrualTime = block.timestamp */\n      dup2\n      swap1\n      sstore\n      pop\n        /* \"contracts/StableCoin.sol\":2171:2620  {... */\n      pop\n      pop\n        /* \"contracts/StableCoin.sol\":2129:2620  if (timeElapsed > 0 && totalSupply() > 0) {... */\n    tag_241:\n        /* \"contracts/StableCoin.sol\":2054:2626  {... */\n      pop\n        /* \"contracts/StableCoin.sol\":2012:2626  function accrueInterest() public override {... */\n      jump\t// out\n        /* \"@openzeppelin/contracts/token/ERC20/ERC20.sol\":3315:3493  function transfer(address to, uint256 value) public virtual returns (bool) {... */\n    tag_107:\n        /* \"@openzeppelin/contracts/token/ERC20/ERC20.sol\":3384:3388  bool */\n      0x00\n        /* \"@openzeppelin/contracts/token/ERC20/ERC20.sol\":3400:3413  address owner */\n      dup1\n        /* \"@openzeppelin/contracts/token/ERC20/ERC20.sol\":3416:3428  _msgSender() */\n      tag_252\n        /* \"@openzeppelin/contracts/token/ERC20/ERC20.sol\":3416:3426  _msgSender */\n      tag_148\n        /* \"@openzeppelin/contracts/token/ERC20/ERC20.sol\":3416:3428  _msgSender() */\n      jump\t// in\n    tag_252:\n        /* \"@openzeppelin/contracts/token/ERC20/ERC20.sol\":3400:3428  address owner = _msgSender() */\n      swap1\n      pop\n        /* \"@openzeppelin/contracts/token/ERC20/ERC20.sol\":3438:3465  _transfer(owner, to, value) */\n      tag_253\n        /* \"@openzeppelin/contracts/token/ERC20/ERC20.sol\":3448:3453  owner */\n      dup2\n        /* \"@openzeppelin/contracts/token/ERC20/ERC20.sol\":3455:3457  to */\n      dup6\n        /* \"@openzeppelin/contracts/token/ERC20/ERC20.sol\":3459:3464  value */\n      dup6\n        /* \"@openzeppelin/contracts/token/ERC20/ERC20.sol\":3438:3447  _transfer */\n      tag_166\n        /* \"@openzeppelin/contracts/token/ERC20/ERC20.sol\":3438:3465  _transfer(owner, to, value) */\n      jump\t// in\n    tag_253:\n        /* \"@openzeppelin/contracts/token/ERC20/ERC20.sol\":3482:3486  true */\n      0x01\n        /* \"@openzeppelin/contracts/token/ERC20/ERC20.sol\":3475:3486  return true */\n      swap2\n      pop\n      pop\n        /* \"@openzeppelin/contracts/token/ERC20/ERC20.sol\":3315:3493  function transfer(address to, uint256 value) public virtual returns (bool) {... */\n      swap3\n      swap2\n      pop\n      pop\n      jump\t// out\n        /* \"contracts/StableCoin.sol\":608:638  uint256 public collateralRatio */\n    tag_110:\n      sload(0x08)\n      dup2\n      jump\t// out\n        /* \"contracts/StableCoin.sol\":7259:7374  function getUserCollateral(address user) external view returns (uint256) {... */\n    tag_114:\n        /* \"contracts/StableCoin.sol\":7323:7330  uint256 */\n      0x00\n        /* \"contracts/StableCoin.sol\":7349:7361  cBTCDeposits */\n      0x0b\n        /* \"contracts/StableCoin.sol\":7349:7367  cBTCDeposits[user] */\n      0x00\n        /* \"contracts/StableCoin.sol\":7362:7366  user */\n      dup4\n        /* \"contracts/StableCoin.sol\":7349:7367  cBTCDeposits[user] */\n      0xffffffffffffffffffffffffffffffffffffffff\n      and\n      0xffffffffffffffffffffffffffffffffffffffff\n      and\n      dup2\n      mstore\n      0x20\n      add\n      swap1\n      dup2\n      mstore\n      0x20\n      add\n      0x00\n      keccak256\n      sload\n        /* \"contracts/StableCoin.sol\":7342:7367  return cBTCDeposits[user] */\n      swap1\n      pop\n        /* \"contracts/StableCoin.sol\":7259:7374  function getUserCollateral(address user) external view returns (uint256) {... */\n      swap2\n      swap1\n      pop\n      jump\t// out\n        /* \"contracts/StableCoin.sol\":5162:6697  function liquidate(address user, uint256 cUSDAmount) external override {... */\n    tag_118:\n        /* \"contracts/StableCoin.sol\":5243:5259  accrueInterest() */\n      tag_256\n        /* \"contracts/StableCoin.sol\":5243:5257  accrueInterest */\n      tag_104\n        /* \"contracts/StableCoin.sol\":5243:5259  accrueInterest() */\n      jump\t// in\n    tag_256:\n        /* \"contracts/StableCoin.sol\":5269:5282  uint256 price */\n      0x00\n        /* \"contracts/StableCoin.sol\":5285:5291  oracle */\n      0x07\n      0x00\n      swap1\n      sload\n      swap1\n      0x0100\n      exp\n      swap1\n      div\n      0xffffffffffffffffffffffffffffffffffffffff\n      and\n        /* \"contracts/StableCoin.sol\":5285:5300  oracle.getPrice */\n      0xffffffffffffffffffffffffffffffffffffffff\n      and\n      0x41976e09\n        /* \"contracts/StableCoin.sol\":5309:5313  cBTC */\n      0x06\n      0x00\n      swap1\n      sload\n      swap1\n      0x0100\n      exp\n      swap1\n      div\n      0xffffffffffffffffffffffffffffffffffffffff\n      and\n        /* \"contracts/StableCoin.sol\":5285:5315  oracle.getPrice(address(cBTC)) */\n      mload(0x40)\n      dup3\n      0xffffffff\n      and\n      0xe0\n      shl\n      dup2\n      mstore\n      0x04\n      add\n      tag_257\n      swap2\n      swap1\n      tag_96\n      jump\t// in\n    tag_257:\n      0x20\n      mload(0x40)\n      dup1\n      dup4\n      sub\n      dup2\n      dup7\n      gas\n      staticcall\n      iszero\n      dup1\n      iszero\n      tag_259\n      jumpi\n      returndatasize\n      0x00\n      dup1\n      returndatacopy\n      revert(0x00, returndatasize)\n    tag_259:\n      pop\n      pop\n      pop\n      pop\n      mload(0x40)\n      returndatasize\n      not(0x1f)\n      0x1f\n      dup3\n      add\n      and\n      dup3\n      add\n      dup1\n      0x40\n      mstore\n      pop\n      dup2\n      add\n      swap1\n      tag_260\n      swap2\n      swap1\n      tag_178\n      jump\t// in\n    tag_260:\n        /* \"contracts/StableCoin.sol\":5269:5315  uint256 price = oracle.getPrice(address(cBTC)) */\n      swap1\n      pop\n        /* \"contracts/StableCoin.sol\":5325:5341  uint256 userDebt */\n      0x00\n        /* \"contracts/StableCoin.sol\":5344:5359  balanceOf(user) */\n      tag_261\n        /* \"contracts/StableCoin.sol\":5354:5358  user */\n      dup5\n        /* \"contracts/StableCoin.sol\":5344:5353  balanceOf */\n      tag_85\n        /* \"contracts/StableCoin.sol\":5344:5359  balanceOf(user) */\n      jump\t// in\n    tag_261:\n        /* \"contracts/StableCoin.sol\":5325:5359  uint256 userDebt = balanceOf(user) */\n      swap1\n      pop\n        /* \"contracts/StableCoin.sol\":5385:5386  0 */\n      0x00\n        /* \"contracts/StableCoin.sol\":5373:5381  userDebt */\n      dup2\n        /* \"contracts/StableCoin.sol\":5373:5386  userDebt == 0 */\n      sub\n        /* \"contracts/StableCoin.sol\":5369:5395  if (userDebt == 0) return; */\n      tag_262\n      jumpi\n        /* \"contracts/StableCoin.sol\":5388:5395  return; */\n      pop\n      pop\n      jump(tag_255)\n        /* \"contracts/StableCoin.sol\":5369:5395  if (userDebt == 0) return; */\n    tag_262:\n        /* \"contracts/StableCoin.sol\":5508:5529  uint256 requiredValue */\n      0x00\n        /* \"contracts/StableCoin.sol\":5563:5567  1e18 */\n      0x0de0b6b3a7640000\n        /* \"contracts/StableCoin.sol\":5544:5559  collateralRatio */\n      sload(0x08)\n        /* \"contracts/StableCoin.sol\":5533:5541  userDebt */\n      dup4\n        /* \"contracts/StableCoin.sol\":5533:5559  userDebt * collateralRatio */\n      tag_263\n      swap2\n      swap1\n      tag_180\n      jump\t// in\n    tag_263:\n        /* \"contracts/StableCoin.sol\":5532:5567  (userDebt * collateralRatio) / 1e18 */\n      tag_264\n      swap2\n      swap1\n      tag_182\n      jump\t// in\n    tag_264:\n        /* \"contracts/StableCoin.sol\":5508:5567  uint256 requiredValue = (userDebt * collateralRatio) / 1e18 */\n      swap1\n      pop\n        /* \"contracts/StableCoin.sol\":5600:5627  uint256 userCollateralValue */\n      0x00\n        /* \"contracts/StableCoin.sol\":5661:5665  1e18 */\n      0x0de0b6b3a7640000\n        /* \"contracts/StableCoin.sol\":5652:5657  price */\n      dup5\n        /* \"contracts/StableCoin.sol\":5631:5643  cBTCDeposits */\n      0x0b\n        /* \"contracts/StableCoin.sol\":5631:5649  cBTCDeposits[user] */\n      0x00\n        /* \"contracts/StableCoin.sol\":5644:5648  user */\n      dup10\n        /* \"contracts/StableCoin.sol\":5631:5649  cBTCDeposits[user] */\n      0xffffffffffffffffffffffffffffffffffffffff\n      and\n      0xffffffffffffffffffffffffffffffffffffffff\n      and\n      dup2\n      mstore\n      0x20\n      add\n      swap1\n      dup2\n      mstore\n      0x20\n      add\n      0x00\n      keccak256\n      sload\n        /* \"contracts/StableCoin.sol\":5631:5657  cBTCDeposits[user] * price */\n      tag_265\n      swap2\n      swap1\n      tag_180\n      jump\t// in\n    tag_265:\n        /* \"contracts/StableCoin.sol\":5630:5665  (cBTCDeposits[user] * price) / 1e18 */\n      tag_266\n      swap2\n      swap1\n      tag_182\n      jump\t// in\n    tag_266:\n        /* \"contracts/StableCoin.sol\":5600:5665  uint256 userCollateralValue = (cBTCDeposits[user] * price) / 1e18 */\n      swap1\n      pop\n        /* \"contracts/StableCoin.sol\":5702:5715  requiredValue */\n      dup2\n        /* \"contracts/StableCoin.sol\":5680:5699  userCollateralValue */\n      dup2\n        /* \"contracts/StableCoin.sol\":5680:5715  userCollateralValue < requiredValue */\n      lt\n        /* \"contracts/StableCoin.sol\":5676:6691  if (userCollateralValue < requiredValue) {... */\n      iszero\n      tag_267\n      jumpi\n        /* \"contracts/StableCoin.sol\":5731:5750  uint256 repayAmount */\n      0x00\n        /* \"contracts/StableCoin.sol\":5766:5774  userDebt */\n      dup4\n        /* \"contracts/StableCoin.sol\":5753:5763  cUSDAmount */\n      dup7\n        /* \"contracts/StableCoin.sol\":5753:5774  cUSDAmount > userDebt */\n      gt\n        /* \"contracts/StableCoin.sol\":5753:5798  cUSDAmount > userDebt ? userDebt : cUSDAmount */\n      tag_268\n      jumpi\n        /* \"contracts/StableCoin.sol\":5788:5798  cUSDAmount */\n      dup6\n        /* \"contracts/StableCoin.sol\":5753:5798  cUSDAmount > userDebt ? userDebt : cUSDAmount */\n      jump(tag_269)\n    tag_268:\n        /* \"contracts/StableCoin.sol\":5777:5785  userDebt */\n      dup4\n        /* \"contracts/StableCoin.sol\":5753:5798  cUSDAmount > userDebt ? userDebt : cUSDAmount */\n    tag_269:\n        /* \"contracts/StableCoin.sol\":5731:5798  uint256 repayAmount = cUSDAmount > userDebt ? userDebt : cUSDAmount */\n      swap1\n      pop\n        /* \"contracts/StableCoin.sol\":5845:5856  repayAmount */\n      dup1\n        /* \"contracts/StableCoin.sol\":5820:5841  balanceOf(msg.sender) */\n      tag_270\n        /* \"contracts/StableCoin.sol\":5830:5840  msg.sender */\n      caller\n        /* \"contracts/StableCoin.sol\":5820:5829  balanceOf */\n      tag_85\n        /* \"contracts/StableCoin.sol\":5820:5841  balanceOf(msg.sender) */\n      jump\t// in\n    tag_270:\n        /* \"contracts/StableCoin.sol\":5820:5856  balanceOf(msg.sender) >= repayAmount */\n      lt\n      iszero\n        /* \"contracts/StableCoin.sol\":5812:5887  require(balanceOf(msg.sender) >= repayAmount, \"Liquidator not enough cUSD\") */\n      tag_271\n      jumpi\n      mload(0x40)\n      0x08c379a000000000000000000000000000000000000000000000000000000000\n      dup2\n      mstore\n      0x04\n      add\n      tag_272\n      swap1\n      tag_273\n      jump\t// in\n    tag_272:\n      mload(0x40)\n      dup1\n      swap2\n      sub\n      swap1\n      revert\n    tag_271:\n        /* \"contracts/StableCoin.sol\":5901:5950  _transfer(msg.sender, address(this), repayAmount) */\n      tag_274\n        /* \"contracts/StableCoin.sol\":5911:5921  msg.sender */\n      caller\n        /* \"contracts/StableCoin.sol\":5931:5935  this */\n      address\n        /* \"contracts/StableCoin.sol\":5938:5949  repayAmount */\n      dup4\n        /* \"contracts/StableCoin.sol\":5901:5910  _transfer */\n      tag_166\n        /* \"contracts/StableCoin.sol\":5901:5950  _transfer(msg.sender, address(this), repayAmount) */\n      jump\t// in\n    tag_274:\n        /* \"contracts/StableCoin.sol\":5964:5997  _burn(address(this), repayAmount) */\n      tag_275\n        /* \"contracts/StableCoin.sol\":5978:5982  this */\n      address\n        /* \"contracts/StableCoin.sol\":5985:5996  repayAmount */\n      dup3\n        /* \"contracts/StableCoin.sol\":5964:5969  _burn */\n      tag_158\n        /* \"contracts/StableCoin.sol\":5964:5997  _burn(address(this), repayAmount) */\n      jump\t// in\n    tag_275:\n        /* \"contracts/StableCoin.sol\":6073:6096  uint256 collateralSeize */\n      0x00\n        /* \"contracts/StableCoin.sol\":6133:6137  1e18 */\n      0x0de0b6b3a7640000\n        /* \"contracts/StableCoin.sol\":6114:6129  collateralRatio */\n      sload(0x08)\n        /* \"contracts/StableCoin.sol\":6100:6111  repayAmount */\n      dup4\n        /* \"contracts/StableCoin.sol\":6100:6129  repayAmount * collateralRatio */\n      tag_276\n      swap2\n      swap1\n      tag_180\n      jump\t// in\n    tag_276:\n        /* \"contracts/StableCoin.sol\":6099:6137  (repayAmount * collateralRatio) / 1e18 */\n      tag_277\n      swap2\n      swap1\n      tag_182\n      jump\t// in\n    tag_277:\n        /* \"contracts/StableCoin.sol\":6073:6137  uint256 collateralSeize = (repayAmount * collateralRatio) / 1e18 */\n      swap1\n      pop\n        /* \"contracts/StableCoin.sol\":6196:6201  price */\n      dup6\n        /* \"contracts/StableCoin.sol\":6188:6192  1e18 */\n      0x0de0b6b3a7640000\n        /* \"contracts/StableCoin.sol\":6170:6185  collateralSeize */\n      dup3\n        /* \"contracts/StableCoin.sol\":6170:6192  collateralSeize * 1e18 */\n      tag_278\n      swap2\n      swap1\n      tag_180\n      jump\t// in\n    tag_278:\n        /* \"contracts/StableCoin.sol\":6169:6201  (collateralSeize * 1e18) / price */\n      tag_279\n      swap2\n      swap1\n      tag_182\n      jump\t// in\n    tag_279:\n        /* \"contracts/StableCoin.sol\":6151:6201  collateralSeize = (collateralSeize * 1e18) / price */\n      swap1\n      pop\n        /* \"contracts/StableCoin.sol\":6259:6262  100 */\n      0x64\n        /* \"contracts/StableCoin.sol\":6252:6255  110 */\n      0x6e\n        /* \"contracts/StableCoin.sol\":6234:6249  collateralSeize */\n      dup3\n        /* \"contracts/StableCoin.sol\":6234:6255  collateralSeize * 110 */\n      tag_280\n      swap2\n      swap1\n      tag_180\n      jump\t// in\n    tag_280:\n        /* \"contracts/StableCoin.sol\":6233:6262  (collateralSeize * 110) / 100 */\n      tag_281\n      swap2\n      swap1\n      tag_182\n      jump\t// in\n    tag_281:\n        /* \"contracts/StableCoin.sol\":6215:6262  collateralSeize = (collateralSeize * 110) / 100 */\n      swap1\n      pop\n        /* \"contracts/StableCoin.sol\":6299:6311  cBTCDeposits */\n      0x0b\n        /* \"contracts/StableCoin.sol\":6299:6317  cBTCDeposits[user] */\n      0x00\n        /* \"contracts/StableCoin.sol\":6312:6316  user */\n      dup10\n        /* \"contracts/StableCoin.sol\":6299:6317  cBTCDeposits[user] */\n      0xffffffffffffffffffffffffffffffffffffffff\n      and\n      0xffffffffffffffffffffffffffffffffffffffff\n      and\n      dup2\n      mstore\n      0x20\n      add\n      swap1\n      dup2\n      mstore\n      0x20\n      add\n      0x00\n      keccak256\n      sload\n        /* \"contracts/StableCoin.sol\":6281:6296  collateralSeize */\n      dup2\n        /* \"contracts/StableCoin.sol\":6281:6317  collateralSeize > cBTCDeposits[user] */\n      gt\n        /* \"contracts/StableCoin.sol\":6277:6388  if (collateralSeize > cBTCDeposits[user]) {... */\n      iszero\n      tag_282\n      jumpi\n        /* \"contracts/StableCoin.sol\":6355:6367  cBTCDeposits */\n      0x0b\n        /* \"contracts/StableCoin.sol\":6355:6373  cBTCDeposits[user] */\n      0x00\n        /* \"contracts/StableCoin.sol\":6368:6372  user */\n      dup10\n        /* \"contracts/StableCoin.sol\":6355:6373  cBTCDeposits[user] */\n      0xffffffffffffffffffffffffffffffffffffffff\n      and\n      0xffffffffffffffffffffffffffffffffffffffff\n      and\n      dup2\n      mstore\n      0x20\n      add\n      swap1\n      dup2\n      mstore\n      0x20\n      add\n      0x00\n      keccak256\n      sload\n        /* \"contracts/StableCoin.sol\":6337:6373  collateralSeize = cBTCDeposits[user] */\n      swap1\n      pop\n        /* \"contracts/StableCoin.sol\":6277:6388  if (collateralSeize > cBTCDeposits[user]) {... */\n    tag_282:\n        /* \"contracts/StableCoin.sol\":6424:6439  collateralSeize */\n      dup1\n        /* \"contracts/StableCoin.sol\":6402:6414  cBTCDeposits */\n      0x0b\n        /* \"contracts/StableCoin.sol\":6402:6420  cBTCDeposits[user] */\n      0x00\n        /* \"contracts/StableCoin.sol\":6415:6419  user */\n      dup11\n        /* \"contracts/StableCoin.sol\":6402:6420  cBTCDeposits[user] */\n      0xffffffffffffffffffffffffffffffffffffffff\n      and\n      0xffffffffffffffffffffffffffffffffffffffff\n      and\n      dup2\n      mstore\n      0x20\n      add\n      swap1\n      dup2\n      mstore\n      0x20\n      add\n      0x00\n      keccak256\n      0x00\n        /* \"contracts/StableCoin.sol\":6402:6439  cBTCDeposits[user] -= collateralSeize */\n      dup3\n      dup3\n      sload\n      tag_283\n      swap2\n      swap1\n      tag_188\n      jump\t// in\n    tag_283:\n      swap3\n      pop\n      pop\n      dup2\n      swap1\n      sstore\n      pop\n        /* \"contracts/StableCoin.sol\":6461:6465  cBTC */\n      0x06\n      0x00\n      swap1\n      sload\n      swap1\n      0x0100\n      exp\n      swap1\n      div\n      0xffffffffffffffffffffffffffffffffffffffff\n      and\n        /* \"contracts/StableCoin.sol\":6461:6474  cBTC.transfer */\n      0xffffffffffffffffffffffffffffffffffffffff\n      and\n      0xa9059cbb\n        /* \"contracts/StableCoin.sol\":6475:6485  msg.sender */\n      caller\n        /* \"contracts/StableCoin.sol\":6487:6502  collateralSeize */\n      dup4\n        /* \"contracts/StableCoin.sol\":6461:6503  cBTC.transfer(msg.sender, collateralSeize) */\n      mload(0x40)\n      dup4\n      0xffffffff\n      and\n      0xe0\n      shl\n      dup2\n      mstore\n      0x04\n      add\n      tag_284\n      swap3\n      swap2\n      swap1\n      tag_194\n      jump\t// in\n    tag_284:\n      0x20\n      mload(0x40)\n      dup1\n      dup4\n      sub\n      dup2\n      0x00\n      dup8\n      gas\n      call\n      iszero\n      dup1\n      iszero\n      tag_286\n      jumpi\n      returndatasize\n      0x00\n      dup1\n      returndatacopy\n      revert(0x00, returndatasize)\n    tag_286:\n      pop\n      pop\n      pop\n      pop\n      mload(0x40)\n      returndatasize\n      not(0x1f)\n      0x1f\n      dup3\n      add\n      and\n      dup3\n      add\n      dup1\n      0x40\n      mstore\n      pop\n      dup2\n      add\n      swap1\n      tag_287\n      swap2\n      swap1\n      tag_198\n      jump\t// in\n    tag_287:\n        /* \"contracts/StableCoin.sol\":6453:6528  require(cBTC.transfer(msg.sender, collateralSeize), \"cBTC transfer failed\") */\n      tag_288\n      jumpi\n      mload(0x40)\n      0x08c379a000000000000000000000000000000000000000000000000000000000\n      dup2\n      mstore\n      0x04\n      add\n      tag_289\n      swap1\n      tag_201\n      jump\t// in\n    tag_289:\n      mload(0x40)\n      dup1\n      swap2\n      sub\n      swap1\n      revert\n    tag_288:\n        /* \"contracts/StableCoin.sol\":6645:6649  user */\n      dup8\n        /* \"contracts/StableCoin.sol\":6634:6680  Liquidated(user, repayAmount, collateralSeize) */\n      0xffffffffffffffffffffffffffffffffffffffff\n      and\n      0x09c223cfcd8c93e245f558f5f8de755fc0930fd9bc257441155ef5d54a170e0f\n        /* \"contracts/StableCoin.sol\":6651:6662  repayAmount */\n      dup4\n        /* \"contracts/StableCoin.sol\":6664:6679  collateralSeize */\n      dup4\n        /* \"contracts/StableCoin.sol\":6634:6680  Liquidated(user, repayAmount, collateralSeize) */\n      mload(0x40)\n      tag_290\n      swap3\n      swap2\n      swap1\n      tag_291\n      jump\t// in\n    tag_290:\n      mload(0x40)\n      dup1\n      swap2\n      sub\n      swap1\n      log2\n        /* \"contracts/StableCoin.sol\":5717:6691  {... */\n      pop\n      pop\n        /* \"contracts/StableCoin.sol\":5676:6691  if (userCollateralValue < requiredValue) {... */\n    tag_267:\n        /* \"contracts/StableCoin.sol\":5233:6697  {... */\n      pop\n      pop\n      pop\n      pop\n        /* \"contracts/StableCoin.sol\":5162:6697  function liquidate(address user, uint256 cUSDAmount) external override {... */\n    tag_255:\n      pop\n      pop\n      jump\t// out\n        /* \"contracts/StableCoin.sol\":2632:2742  function getCollateralRatio() external view override returns (uint256) {... */\n    tag_120:\n        /* \"contracts/StableCoin.sol\":2694:2701  uint256 */\n      0x00\n        /* \"contracts/StableCoin.sol\":2720:2735  collateralRatio */\n      sload(0x08)\n        /* \"contracts/StableCoin.sol\":2713:2735  return collateralRatio */\n      swap1\n      pop\n        /* \"contracts/StableCoin.sol\":2632:2742  function getCollateralRatio() external view override returns (uint256) {... */\n      swap1\n      jump\t// out\n        /* \"contracts/StableCoin.sol\":776:806  uint256 public lastAccrualTime */\n    tag_123:\n      sload(0x0a)\n      dup2\n      jump\t// out\n        /* \"@openzeppelin/contracts/token/ERC20/ERC20.sol\":3551:3691  function allowance(address owner, address spender) public view virtual returns (uint256) {... */\n    tag_128:\n        /* \"@openzeppelin/contracts/token/ERC20/ERC20.sol\":3631:3638  uint256 */\n      0x00\n        /* \"@openzeppelin/contracts/token/ERC20/ERC20.sol\":3657:3668  _allowances */\n      0x01\n        /* \"@openzeppelin/contracts/token/ERC20/ERC20.sol\":3657:3675  _allowances[owner] */\n      0x00\n        /* \"@openzeppelin/contracts/token/ERC20/ERC20.sol\":3669:3674  owner */\n      dup5\n        /* \"@openzeppelin/contracts/token/ERC20/ERC20.sol\":3657:3675  _allowances[owner] */\n      0xffffffffffffffffffffffffffffffffffffffff\n      and\n      0xffffffffffffffffffffffffffffffffffffffff\n      and\n      dup2\n      mstore\n      0x20\n      add\n      swap1\n      dup2\n      mstore\n      0x20\n      add\n      0x00\n      keccak256\n        /* \"@openzeppelin/contracts/token/ERC20/ERC20.sol\":3657:3684  _allowances[owner][spender] */\n      0x00\n        /* \"@openzeppelin/contracts/token/ERC20/ERC20.sol\":3676:3683  spender */\n      dup4\n        /* \"@openzeppelin/contracts/token/ERC20/ERC20.sol\":3657:3684  _allowances[owner][spender] */\n      0xffffffffffffffffffffffffffffffffffffffff\n      and\n      0xffffffffffffffffffffffffffffffffffffffff\n      and\n      dup2\n      mstore\n      0x20\n      add\n      swap1\n      dup2\n      mstore\n      0x20\n      add\n      0x00\n      keccak256\n      sload\n        /* \"@openzeppelin/contracts/token/ERC20/ERC20.sol\":3650:3684  return _allowances[owner][spender] */\n      swap1\n      pop\n        /* \"@openzeppelin/contracts/token/ERC20/ERC20.sol\":3551:3691  function allowance(address owner, address spender) public view virtual returns (uint256) {... */\n      swap3\n      swap2\n      pop\n      pop\n      jump\t// out\n        /* \"contracts/StableCoin.sol\":4171:4642  function mintStableCoin(address to, uint256 cUSDAmount) external override {... */\n    tag_132:\n        /* \"contracts/StableCoin.sol\":4255:4271  accrueInterest() */\n      tag_295\n        /* \"contracts/StableCoin.sol\":4255:4269  accrueInterest */\n      tag_104\n        /* \"contracts/StableCoin.sol\":4255:4271  accrueInterest() */\n      jump\t// in\n    tag_295:\n        /* \"contracts/StableCoin.sol\":4281:4294  uint256 price */\n      0x00\n        /* \"contracts/StableCoin.sol\":4297:4303  oracle */\n      0x07\n      0x00\n      swap1\n      sload\n      swap1\n      0x0100\n      exp\n      swap1\n      div\n      0xffffffffffffffffffffffffffffffffffffffff\n      and\n        /* \"contracts/StableCoin.sol\":4297:4312  oracle.getPrice */\n      0xffffffffffffffffffffffffffffffffffffffff\n      and\n      0x41976e09\n        /* \"contracts/StableCoin.sol\":4321:4325  cBTC */\n      0x06\n      0x00\n      swap1\n      sload\n      swap1\n      0x0100\n      exp\n      swap1\n      div\n      0xffffffffffffffffffffffffffffffffffffffff\n      and\n        /* \"contracts/StableCoin.sol\":4297:4327  oracle.getPrice(address(cBTC)) */\n      mload(0x40)\n      dup3\n      0xffffffff\n      and\n      0xe0\n      shl\n      dup2\n      mstore\n      0x04\n      add\n      tag_296\n      swap2\n      swap1\n      tag_96\n      jump\t// in\n    tag_296:\n      0x20\n      mload(0x40)\n      dup1\n      dup4\n      sub\n      dup2\n      dup7\n      gas\n      staticcall\n      iszero\n      dup1\n      iszero\n      tag_298\n      jumpi\n      returndatasize\n      0x00\n      dup1\n      returndatacopy\n      revert(0x00, returndatasize)\n    tag_298:\n      pop\n      pop\n      pop\n      pop\n      mload(0x40)\n      returndatasize\n      not(0x1f)\n      0x1f\n      dup3\n      add\n      and\n      dup3\n      add\n      dup1\n      0x40\n      mstore\n      pop\n      dup2\n      add\n      swap1\n      tag_299\n      swap2\n      swap1\n      tag_178\n      jump\t// in\n    tag_299:\n        /* \"contracts/StableCoin.sol\":4281:4327  uint256 price = oracle.getPrice(address(cBTC)) */\n      swap1\n      pop\n        /* \"contracts/StableCoin.sol\":4337:4363  uint256 requiredCollateral */\n      0x00\n        /* \"contracts/StableCoin.sol\":4399:4403  1e18 */\n      0x0de0b6b3a7640000\n        /* \"contracts/StableCoin.sol\":4380:4395  collateralRatio */\n      sload(0x08)\n        /* \"contracts/StableCoin.sol\":4367:4377  cUSDAmount */\n      dup5\n        /* \"contracts/StableCoin.sol\":4367:4395  cUSDAmount * collateralRatio */\n      tag_300\n      swap2\n      swap1\n      tag_180\n      jump\t// in\n    tag_300:\n        /* \"contracts/StableCoin.sol\":4366:4403  (cUSDAmount * collateralRatio) / 1e18 */\n      tag_301\n      swap2\n      swap1\n      tag_182\n      jump\t// in\n    tag_301:\n        /* \"contracts/StableCoin.sol\":4337:4403  uint256 requiredCollateral = (cUSDAmount * collateralRatio) / 1e18 */\n      swap1\n      pop\n        /* \"contracts/StableCoin.sol\":4464:4469  price */\n      dup2\n        /* \"contracts/StableCoin.sol\":4456:4460  1e18 */\n      0x0de0b6b3a7640000\n        /* \"contracts/StableCoin.sol\":4435:4453  requiredCollateral */\n      dup3\n        /* \"contracts/StableCoin.sol\":4435:4460  requiredCollateral * 1e18 */\n      tag_302\n      swap2\n      swap1\n      tag_180\n      jump\t// in\n    tag_302:\n        /* \"contracts/StableCoin.sol\":4434:4469  (requiredCollateral * 1e18) / price */\n      tag_303\n      swap2\n      swap1\n      tag_182\n      jump\t// in\n    tag_303:\n        /* \"contracts/StableCoin.sol\":4413:4469  requiredCollateral = (requiredCollateral * 1e18) / price */\n      swap1\n      pop\n        /* \"contracts/StableCoin.sol\":4515:4533  requiredCollateral */\n      dup1\n        /* \"contracts/StableCoin.sol\":4487:4499  cBTCDeposits */\n      0x0b\n        /* \"contracts/StableCoin.sol\":4487:4511  cBTCDeposits[msg.sender] */\n      0x00\n        /* \"contracts/StableCoin.sol\":4500:4510  msg.sender */\n      caller\n        /* \"contracts/StableCoin.sol\":4487:4511  cBTCDeposits[msg.sender] */\n      0xffffffffffffffffffffffffffffffffffffffff\n      and\n      0xffffffffffffffffffffffffffffffffffffffff\n      and\n      dup2\n      mstore\n      0x20\n      add\n      swap1\n      dup2\n      mstore\n      0x20\n      add\n      0x00\n      keccak256\n      sload\n        /* \"contracts/StableCoin.sol\":4487:4533  cBTCDeposits[msg.sender] >= requiredCollateral */\n      lt\n      iszero\n        /* \"contracts/StableCoin.sol\":4479:4559  require(cBTCDeposits[msg.sender] >= requiredCollateral, \"Not enough collateral\") */\n      tag_304\n      jumpi\n      mload(0x40)\n      0x08c379a000000000000000000000000000000000000000000000000000000000\n      dup2\n      mstore\n      0x04\n      add\n      tag_305\n      swap1\n      tag_172\n      jump\t// in\n    tag_305:\n      mload(0x40)\n      dup1\n      swap2\n      sub\n      swap1\n      revert\n    tag_304:\n        /* \"contracts/StableCoin.sol\":4569:4590  _mint(to, cUSDAmount) */\n      tag_306\n        /* \"contracts/StableCoin.sol\":4575:4577  to */\n      dup5\n        /* \"contracts/StableCoin.sol\":4579:4589  cUSDAmount */\n      dup5\n        /* \"contracts/StableCoin.sol\":4569:4574  _mint */\n      tag_250\n        /* \"contracts/StableCoin.sol\":4569:4590  _mint(to, cUSDAmount) */\n      jump\t// in\n    tag_306:\n        /* \"contracts/StableCoin.sol\":4612:4622  msg.sender */\n      caller\n        /* \"contracts/StableCoin.sol\":4605:4635  Minted(msg.sender, cUSDAmount) */\n      0xffffffffffffffffffffffffffffffffffffffff\n      and\n      0x30385c845b448a36257a6a1716e6ad2e1bc2cbe333cde1e69fe849ad6511adfe\n        /* \"contracts/StableCoin.sol\":4624:4634  cUSDAmount */\n      dup5\n        /* \"contracts/StableCoin.sol\":4605:4635  Minted(msg.sender, cUSDAmount) */\n      mload(0x40)\n      tag_307\n      swap2\n      swap1\n      tag_58\n      jump\t// in\n    tag_307:\n      mload(0x40)\n      dup1\n      swap2\n      sub\n      swap1\n      log2\n        /* \"contracts/StableCoin.sol\":4245:4642  {... */\n      pop\n      pop\n        /* \"contracts/StableCoin.sol\":4171:4642  function mintStableCoin(address to, uint256 cUSDAmount) external override {... */\n      pop\n      pop\n      jump\t// out\n        /* \"@openzeppelin/contracts/access/Ownable.sol\":2543:2758  function transferOwnership(address newOwner) public virtual onlyOwner {... */\n    tag_135:\n        /* \"@openzeppelin/contracts/access/Ownable.sol\":1531:1544  _checkOwner() */\n      tag_309\n        /* \"@openzeppelin/contracts/access/Ownable.sol\":1531:1542  _checkOwner */\n      tag_205\n        /* \"@openzeppelin/contracts/access/Ownable.sol\":1531:1544  _checkOwner() */\n      jump\t// in\n    tag_309:\n        /* \"@openzeppelin/contracts/access/Ownable.sol\":2647:2648  0 */\n      0x00\n        /* \"@openzeppelin/contracts/access/Ownable.sol\":2627:2649  newOwner == address(0) */\n      0xffffffffffffffffffffffffffffffffffffffff\n      and\n        /* \"@openzeppelin/contracts/access/Ownable.sol\":2627:2635  newOwner */\n      dup2\n        /* \"@openzeppelin/contracts/access/Ownable.sol\":2627:2649  newOwner == address(0) */\n      0xffffffffffffffffffffffffffffffffffffffff\n      and\n      sub\n        /* \"@openzeppelin/contracts/access/Ownable.sol\":2623:2714  if (newOwner == address(0)) {... */\n      tag_311\n      jumpi\n        /* \"@openzeppelin/contracts/access/Ownable.sol\":2700:2701  0 */\n      0x00\n        /* \"@openzeppelin/contracts/access/Ownable.sol\":2672:2703  OwnableInvalidOwner(address(0)) */\n      mload(0x40)\n      0x1e4fbdf700000000000000000000000000000000000000000000000000000000\n      dup2\n      mstore\n      0x04\n      add\n      tag_312\n      swap2\n      swap1\n      tag_96\n      jump\t// in\n    tag_312:\n      mload(0x40)\n      dup1\n      swap2\n      sub\n      swap1\n      revert\n        /* \"@openzeppelin/contracts/access/Ownable.sol\":2623:2714  if (newOwner == address(0)) {... */\n    tag_311:\n        /* \"@openzeppelin/contracts/access/Ownable.sol\":2723:2751  _transferOwnership(newOwner) */\n      tag_313\n        /* \"@openzeppelin/contracts/access/Ownable.sol\":2742:2750  newOwner */\n      dup2\n        /* \"@openzeppelin/contracts/access/Ownable.sol\":2723:2741  _transferOwnership */\n      tag_215\n        /* \"@openzeppelin/contracts/access/Ownable.sol\":2723:2751  _transferOwnership(newOwner) */\n      jump\t// in\n    tag_313:\n        /* \"@openzeppelin/contracts/access/Ownable.sol\":2543:2758  function transferOwnership(address newOwner) public virtual onlyOwner {... */\n      pop\n      jump\t// out\n        /* \"contracts/StableCoin.sol\":7024:7174  function setStabilityFee(uint256 _newFee) external onlyOwner {... */\n    tag_138:\n        /* \"@openzeppelin/contracts/access/Ownable.sol\":1531:1544  _checkOwner() */\n      tag_315\n        /* \"@openzeppelin/contracts/access/Ownable.sol\":1531:1542  _checkOwner */\n      tag_205\n        /* \"@openzeppelin/contracts/access/Ownable.sol\":1531:1544  _checkOwner() */\n      jump\t// in\n    tag_315:\n        /* \"contracts/StableCoin.sol\":7114:7118  2000 */\n      0x07d0\n        /* \"contracts/StableCoin.sol\":7103:7110  _newFee */\n      dup2\n        /* \"contracts/StableCoin.sol\":7103:7118  _newFee <= 2000 */\n      gt\n      iszero\n        /* \"contracts/StableCoin.sol\":7095:7135  require(_newFee <= 2000, \"Fee too high\") */\n      tag_317\n      jumpi\n      mload(0x40)\n      0x08c379a000000000000000000000000000000000000000000000000000000000\n      dup2\n      mstore\n      0x04\n      add\n      tag_318\n      swap1\n      tag_319\n      jump\t// in\n    tag_318:\n      mload(0x40)\n      dup1\n      swap2\n      sub\n      swap1\n      revert\n    tag_317:\n        /* \"contracts/StableCoin.sol\":7160:7167  _newFee */\n      dup1\n        /* \"contracts/StableCoin.sol\":7145:7157  stabilityFee */\n      0x09\n        /* \"contracts/StableCoin.sol\":7145:7167  stabilityFee = _newFee */\n      dup2\n      swap1\n      sstore\n      pop\n        /* \"contracts/StableCoin.sol\":7024:7174  function setStabilityFee(uint256 _newFee) external onlyOwner {... */\n      pop\n      jump\t// out\n        /* \"@openzeppelin/contracts/utils/Context.sol\":656:752  function _msgSender() internal view virtual returns (address) {... */\n    tag_148:\n        /* \"@openzeppelin/contracts/utils/Context.sol\":709:716  address */\n      0x00\n        /* \"@openzeppelin/contracts/utils/Context.sol\":735:745  msg.sender */\n      caller\n        /* \"@openzeppelin/contracts/utils/Context.sol\":728:745  return msg.sender */\n      swap1\n      pop\n        /* \"@openzeppelin/contracts/utils/Context.sol\":656:752  function _msgSender() internal view virtual returns (address) {... */\n      swap1\n      jump\t// out\n        /* \"@openzeppelin/contracts/token/ERC20/ERC20.sol\":8726:8854  function _approve(address owner, address spender, uint256 value) internal {... */\n    tag_150:\n        /* \"@openzeppelin/contracts/token/ERC20/ERC20.sol\":8810:8847  _approve(owner, spender, value, true) */\n      tag_322\n        /* \"@openzeppelin/contracts/token/ERC20/ERC20.sol\":8819:8824  owner */\n      dup4\n        /* \"@openzeppelin/contracts/token/ERC20/ERC20.sol\":8826:8833  spender */\n      dup4\n        /* \"@openzeppelin/contracts/token/ERC20/ERC20.sol\":8835:8840  value */\n      dup4\n        /* \"@openzeppelin/contracts/token/ERC20/ERC20.sol\":8842:8846  true */\n      0x01\n        /* \"@openzeppelin/contracts/token/ERC20/ERC20.sol\":8810:8818  _approve */\n      tag_323\n        /* \"@openzeppelin/contracts/token/ERC20/ERC20.sol\":8810:8847  _approve(owner, spender, value, true) */\n      jump\t// in\n    tag_322:\n        /* \"@openzeppelin/contracts/token/ERC20/ERC20.sol\":8726:8854  function _approve(address owner, address spender, uint256 value) internal {... */\n      pop\n      pop\n      pop\n      jump\t// out\n        /* \"@openzeppelin/contracts/token/ERC20/ERC20.sol\":7984:8190  function _burn(address account, uint256 value) internal {... */\n    tag_158:\n        /* \"@openzeppelin/contracts/token/ERC20/ERC20.sol\":8073:8074  0 */\n      0x00\n        /* \"@openzeppelin/contracts/token/ERC20/ERC20.sol\":8054:8075  account == address(0) */\n      0xffffffffffffffffffffffffffffffffffffffff\n      and\n        /* \"@openzeppelin/contracts/token/ERC20/ERC20.sol\":8054:8061  account */\n      dup3\n        /* \"@openzeppelin/contracts/token/ERC20/ERC20.sol\":8054:8075  account == address(0) */\n      0xffffffffffffffffffffffffffffffffffffffff\n      and\n      sub\n        /* \"@openzeppelin/contracts/token/ERC20/ERC20.sol\":8050:8139  if (account == address(0)) {... */\n      tag_325\n      jumpi\n        /* \"@openzeppelin/contracts/token/ERC20/ERC20.sol\":8125:8126  0 */\n      0x00\n        /* \"@openzeppelin/contracts/token/ERC20/ERC20.sol\":8098:8128  ERC20InvalidSender(address(0)) */\n      mload(0x40)\n      0x96c6fd1e00000000000000000000000000000000000000000000000000000000\n      dup2\n      mstore\n      0x04\n      add\n      tag_326\n      swap2\n      swap1\n      tag_96\n      jump\t// in\n    tag_326:\n      mload(0x40)\n      dup1\n      swap2\n      sub\n      swap1\n      revert\n        /* \"@openzeppelin/contracts/token/ERC20/ERC20.sol\":8050:8139  if (account == address(0)) {... */\n    tag_325:\n        /* \"@openzeppelin/contracts/token/ERC20/ERC20.sol\":8148:8183  _update(account, address(0), value) */\n      tag_327\n        /* \"@openzeppelin/contracts/token/ERC20/ERC20.sol\":8156:8163  account */\n      dup3\n        /* \"@openzeppelin/contracts/token/ERC20/ERC20.sol\":8173:8174  0 */\n      0x00\n        /* \"@openzeppelin/contracts/token/ERC20/ERC20.sol\":8177:8182  value */\n      dup4\n        /* \"@openzeppelin/contracts/token/ERC20/ERC20.sol\":8148:8155  _update */\n      tag_328\n        /* \"@openzeppelin/contracts/token/ERC20/ERC20.sol\":8148:8183  _update(account, address(0), value) */\n      jump\t// in\n    tag_327:\n        /* \"@openzeppelin/contracts/token/ERC20/ERC20.sol\":7984:8190  function _burn(address account, uint256 value) internal {... */\n      pop\n      pop\n      jump\t// out\n        /* \"@openzeppelin/contracts/token/ERC20/ERC20.sol\":10415:10892  function _spendAllowance(address owner, address spender, uint256 value) internal virtual {... */\n    tag_164:\n        /* \"@openzeppelin/contracts/token/ERC20/ERC20.sol\":10514:10538  uint256 currentAllowance */\n      0x00\n        /* \"@openzeppelin/contracts/token/ERC20/ERC20.sol\":10541:10566  allowance(owner, spender) */\n      tag_330\n        /* \"@openzeppelin/contracts/token/ERC20/ERC20.sol\":10551:10556  owner */\n      dup5\n        /* \"@openzeppelin/contracts/token/ERC20/ERC20.sol\":10558:10565  spender */\n      dup5\n        /* \"@openzeppelin/contracts/token/ERC20/ERC20.sol\":10541:10550  allowance */\n      tag_128\n        /* \"@openzeppelin/contracts/token/ERC20/ERC20.sol\":10541:10566  allowance(owner, spender) */\n      jump\t// in\n    tag_330:\n        /* \"@openzeppelin/contracts/token/ERC20/ERC20.sol\":10514:10566  uint256 currentAllowance = allowance(owner, spender) */\n      swap1\n      pop\n        /* \"@openzeppelin/contracts/token/ERC20/ERC20.sol\":10600:10617  type(uint256).max */\n      0xffffffffffffffffffffffffffffffffffffffffffffffffffffffffffffffff\n        /* \"@openzeppelin/contracts/token/ERC20/ERC20.sol\":10580:10596  currentAllowance */\n      dup2\n        /* \"@openzeppelin/contracts/token/ERC20/ERC20.sol\":10580:10617  currentAllowance != type(uint256).max */\n      eq\n        /* \"@openzeppelin/contracts/token/ERC20/ERC20.sol\":10576:10886  if (currentAllowance != type(uint256).max) {... */\n      tag_331\n      jumpi\n        /* \"@openzeppelin/contracts/token/ERC20/ERC20.sol\":10656:10661  value */\n      dup2\n        /* \"@openzeppelin/contracts/token/ERC20/ERC20.sol\":10637:10653  currentAllowance */\n      dup2\n        /* \"@openzeppelin/contracts/token/ERC20/ERC20.sol\":10637:10661  currentAllowance < value */\n      lt\n        /* \"@openzeppelin/contracts/token/ERC20/ERC20.sol\":10633:10763  if (currentAllowance < value) {... */\n      iszero\n      tag_332\n      jumpi\n        /* \"@openzeppelin/contracts/token/ERC20/ERC20.sol\":10715:10722  spender */\n      dup3\n        /* \"@openzeppelin/contracts/token/ERC20/ERC20.sol\":10724:10740  currentAllowance */\n      dup2\n        /* \"@openzeppelin/contracts/token/ERC20/ERC20.sol\":10742:10747  value */\n      dup4\n        /* \"@openzeppelin/contracts/token/ERC20/ERC20.sol\":10688:10748  ERC20InsufficientAllowance(spender, currentAllowance, value) */\n      mload(0x40)\n      0xfb8f41b200000000000000000000000000000000000000000000000000000000\n      dup2\n      mstore\n      0x04\n      add\n      tag_333\n      swap4\n      swap3\n      swap2\n      swap1\n      tag_334\n      jump\t// in\n    tag_333:\n      mload(0x40)\n      dup1\n      swap2\n      sub\n      swap1\n      revert\n        /* \"@openzeppelin/contracts/token/ERC20/ERC20.sol\":10633:10763  if (currentAllowance < value) {... */\n    tag_332:\n        /* \"@openzeppelin/contracts/token/ERC20/ERC20.sol\":10804:10861  _approve(owner, spender, currentAllowance - value, false) */\n      tag_335\n        /* \"@openzeppelin/contracts/token/ERC20/ERC20.sol\":10813:10818  owner */\n      dup5\n        /* \"@openzeppelin/contracts/token/ERC20/ERC20.sol\":10820:10827  spender */\n      dup5\n        /* \"@openzeppelin/contracts/token/ERC20/ERC20.sol\":10848:10853  value */\n      dup5\n        /* \"@openzeppelin/contracts/token/ERC20/ERC20.sol\":10829:10845  currentAllowance */\n      dup5\n        /* \"@openzeppelin/contracts/token/ERC20/ERC20.sol\":10829:10853  currentAllowance - value */\n      sub\n        /* \"@openzeppelin/contracts/token/ERC20/ERC20.sol\":10855:10860  false */\n      0x00\n        /* \"@openzeppelin/contracts/token/ERC20/ERC20.sol\":10804:10812  _approve */\n      tag_323\n        /* \"@openzeppelin/contracts/token/ERC20/ERC20.sol\":10804:10861  _approve(owner, spender, currentAllowance - value, false) */\n      jump\t// in\n    tag_335:\n        /* \"@openzeppelin/contracts/token/ERC20/ERC20.sol\":10576:10886  if (currentAllowance != type(uint256).max) {... */\n    tag_331:\n        /* \"@openzeppelin/contracts/token/ERC20/ERC20.sol\":10504:10892  {... */\n      pop\n        /* \"@openzeppelin/contracts/token/ERC20/ERC20.sol\":10415:10892  function _spendAllowance(address owner, address spender, uint256 value) internal virtual {... */\n      pop\n      pop\n      pop\n      jump\t// out\n        /* \"@openzeppelin/contracts/token/ERC20/ERC20.sol\":5393:5693  function _transfer(address from, address to, uint256 value) internal {... */\n    tag_166:\n        /* \"@openzeppelin/contracts/token/ERC20/ERC20.sol\":5492:5493  0 */\n      0x00\n        /* \"@openzeppelin/contracts/token/ERC20/ERC20.sol\":5476:5494  from == address(0) */\n      0xffffffffffffffffffffffffffffffffffffffff\n      and\n        /* \"@openzeppelin/contracts/token/ERC20/ERC20.sol\":5476:5480  from */\n      dup4\n        /* \"@openzeppelin/contracts/token/ERC20/ERC20.sol\":5476:5494  from == address(0) */\n      0xffffffffffffffffffffffffffffffffffffffff\n      and\n      sub\n        /* \"@openzeppelin/contracts/token/ERC20/ERC20.sol\":5472:5558  if (from == address(0)) {... */\n      tag_337\n      jumpi\n        /* \"@openzeppelin/contracts/token/ERC20/ERC20.sol\":5544:5545  0 */\n      0x00\n        /* \"@openzeppelin/contracts/token/ERC20/ERC20.sol\":5517:5547  ERC20InvalidSender(address(0)) */\n      mload(0x40)\n      0x96c6fd1e00000000000000000000000000000000000000000000000000000000\n      dup2\n      mstore\n      0x04\n      add\n      tag_338\n      swap2\n      swap1\n      tag_96\n      jump\t// in\n    tag_338:\n      mload(0x40)\n      dup1\n      swap2\n      sub\n      swap1\n      revert\n        /* \"@openzeppelin/contracts/token/ERC20/ERC20.sol\":5472:5558  if (from == address(0)) {... */\n    tag_337:\n        /* \"@openzeppelin/contracts/token/ERC20/ERC20.sol\":5585:5586  0 */\n      0x00\n        /* \"@openzeppelin/contracts/token/ERC20/ERC20.sol\":5571:5587  to == address(0) */\n      0xffffffffffffffffffffffffffffffffffffffff\n      and\n        /* \"@openzeppelin/contracts/token/ERC20/ERC20.sol\":5571:5573  to */\n      dup3\n        /* \"@openzeppelin/contracts/token/ERC20/ERC20.sol\":5571:5587  to == address(0) */\n      0xffffffffffffffffffffffffffffffffffffffff\n      and\n      sub\n        /* \"@openzeppelin/contracts/token/ERC20/ERC20.sol\":5567:5653  if (to == address(0)) {... */\n      tag_339\n      jumpi\n        /* \"@openzeppelin/contracts/token/ERC20/ERC20.sol\":5639:5640  0 */\n      0x00\n        /* \"@openzeppelin/contracts/token/ERC20/ERC20.sol\":5610:5642  ERC20InvalidReceiver(address(0)) */\n      mload(0x40)\n      0xec442f0500000000000000000000000000000000000000000000000000000000\n      dup2\n      mstore\n      0x04\n      add\n      tag_340\n      swap2\n      swap1\n      tag_96\n      jump\t// in\n    tag_340:\n      mload(0x40)\n      dup1\n      swap2\n      sub\n      swap1\n      revert\n        /* \"@openzeppelin/contracts/token/ERC20/ERC20.sol\":5567:5653  if (to == address(0)) {... */\n    tag_339:\n        /* \"@openzeppelin/contracts/token/ERC20/ERC20.sol\":5662:5686  _update(from, to, value) */\n      tag_341\n        /* \"@openzeppelin/contracts/token/ERC20/ERC20.sol\":5670:5674  from */\n      dup4\n        /* \"@openzeppelin/contracts/token/ERC20/ERC20.sol\":5676:5678  to */\n      dup4\n        /* \"@openzeppelin/contracts/token/ERC20/ERC20.sol\":5680:5685  value */\n      dup4\n        /* \"@openzeppelin/contracts/token/ERC20/ERC20.sol\":5662:5669  _update */\n      tag_328\n        /* \"@openzeppelin/contracts/token/ERC20/ERC20.sol\":5662:5686  _update(from, to, value) */\n      jump\t// in\n    tag_341:\n        /* \"@openzeppelin/contracts/token/ERC20/ERC20.sol\":5393:5693  function _transfer(address from, address to, uint256 value) internal {... */\n      pop\n      pop\n      pop\n      jump\t// out\n        /* \"@openzeppelin/contracts/access/Ownable.sol\":1796:1958  function _checkOwner() internal view virtual {... */\n    tag_205:\n        /* \"@openzeppelin/contracts/access/Ownable.sol\":1866:1878  _msgSender() */\n      tag_343\n        /* \"@openzeppelin/contracts/access/Ownable.sol\":1866:1876  _msgSender */\n      tag_148\n        /* \"@openzeppelin/contracts/access/Ownable.sol\":1866:1878  _msgSender() */\n      jump\t// in\n    tag_343:\n        /* \"@openzeppelin/contracts/access/Ownable.sol\":1855:1878  owner() != _msgSender() */\n      0xffffffffffffffffffffffffffffffffffffffff\n      and\n        /* \"@openzeppelin/contracts/access/Ownable.sol\":1855:1862  owner() */\n      tag_344\n        /* \"@openzeppelin/contracts/access/Ownable.sol\":1855:1860  owner */\n      tag_94\n        /* \"@openzeppelin/contracts/access/Ownable.sol\":1855:1862  owner() */\n      jump\t// in\n    tag_344:\n        /* \"@openzeppelin/contracts/access/Ownable.sol\":1855:1878  owner() != _msgSender() */\n      0xffffffffffffffffffffffffffffffffffffffff\n      and\n      eq\n        /* \"@openzeppelin/contracts/access/Ownable.sol\":1851:1952  if (owner() != _msgSender()) {... */\n      tag_345\n      jumpi\n        /* \"@openzeppelin/contracts/access/Ownable.sol\":1928:1940  _msgSender() */\n      tag_346\n        /* \"@openzeppelin/contracts/access/Ownable.sol\":1928:1938  _msgSender */\n      tag_148\n        /* \"@openzeppelin/contracts/access/Ownable.sol\":1928:1940  _msgSender() */\n      jump\t// in\n    tag_346:\n        /* \"@openzeppelin/contracts/access/Ownable.sol\":1901:1941  OwnableUnauthorizedAccount(_msgSender()) */\n      mload(0x40)\n      0x118cdaa700000000000000000000000000000000000000000000000000000000\n      dup2\n      mstore\n      0x04\n      add\n      tag_347\n      swap2\n      swap1\n      tag_96\n      jump\t// in\n    tag_347:\n      mload(0x40)\n      dup1\n      swap2\n      sub\n      swap1\n      revert\n        /* \"@openzeppelin/contracts/access/Ownable.sol\":1851:1952  if (owner() != _msgSender()) {... */\n    tag_345:\n        /* \"@openzeppelin/contracts/access/Ownable.sol\":1796:1958  function _checkOwner() internal view virtual {... */\n      jump\t// out\n        /* \"@openzeppelin/contracts/access/Ownable.sol\":2912:3099  function _transferOwnership(address newOwner) internal virtual {... */\n    tag_215:\n        /* \"@openzeppelin/contracts/access/Ownable.sol\":2985:3001  address oldOwner */\n      0x00\n        /* \"@openzeppelin/contracts/access/Ownable.sol\":3004:3010  _owner */\n      0x05\n      0x00\n      swap1\n      sload\n      swap1\n      0x0100\n      exp\n      swap1\n      div\n      0xffffffffffffffffffffffffffffffffffffffff\n      and\n        /* \"@openzeppelin/contracts/access/Ownable.sol\":2985:3010  address oldOwner = _owner */\n      swap1\n      pop\n        /* \"@openzeppelin/contracts/access/Ownable.sol\":3029:3037  newOwner */\n      dup2\n        /* \"@openzeppelin/contracts/access/Ownable.sol\":3020:3026  _owner */\n      0x05\n      0x00\n        /* \"@openzeppelin/contracts/access/Ownable.sol\":3020:3037  _owner = newOwner */\n      0x0100\n      exp\n      dup2\n      sload\n      dup2\n      0xffffffffffffffffffffffffffffffffffffffff\n      mul\n      not\n      and\n      swap1\n      dup4\n      0xffffffffffffffffffffffffffffffffffffffff\n      and\n      mul\n      or\n      swap1\n      sstore\n      pop\n        /* \"@openzeppelin/contracts/access/Ownable.sol\":3083:3091  newOwner */\n      dup2\n        /* \"@openzeppelin/contracts/access/Ownable.sol\":3052:3092  OwnershipTransferred(oldOwner, newOwner) */\n      0xffffffffffffffffffffffffffffffffffffffff\n      and\n        /* \"@openzeppelin/contracts/access/Ownable.sol\":3073:3081  oldOwner */\n      dup2\n        /* \"@openzeppelin/contracts/access/Ownable.sol\":3052:3092  OwnershipTransferred(oldOwner, newOwner) */\n      0xffffffffffffffffffffffffffffffffffffffff\n      and\n      0x8be0079c531659141344cd1fd0a4f28419497f9722a3daafe3b4186f6b6457e0\n      mload(0x40)\n      mload(0x40)\n      dup1\n      swap2\n      sub\n      swap1\n      log3\n        /* \"@openzeppelin/contracts/access/Ownable.sol\":2975:3099  {... */\n      pop\n        /* \"@openzeppelin/contracts/access/Ownable.sol\":2912:3099  function _transferOwnership(address newOwner) internal virtual {... */\n      pop\n      jump\t// out\n        /* \"@openzeppelin/contracts/token/ERC20/ERC20.sol\":7458:7666  function _mint(address account, uint256 value) internal {... */\n    tag_250:\n        /* \"@openzeppelin/contracts/token/ERC20/ERC20.sol\":7547:7548  0 */\n      0x00\n        /* \"@openzeppelin/contracts/token/ERC20/ERC20.sol\":7528:7549  account == address(0) */\n      0xffffffffffffffffffffffffffffffffffffffff\n      and\n        /* \"@openzeppelin/contracts/token/ERC20/ERC20.sol\":7528:7535  account */\n      dup3\n        /* \"@openzeppelin/contracts/token/ERC20/ERC20.sol\":7528:7549  account == address(0) */\n      0xffffffffffffffffffffffffffffffffffffffff\n      and\n      sub\n        /* \"@openzeppelin/contracts/token/ERC20/ERC20.sol\":7524:7615  if (account == address(0)) {... */\n      tag_350\n      jumpi\n        /* \"@openzeppelin/contracts/token/ERC20/ERC20.sol\":7601:7602  0 */\n      0x00\n        /* \"@openzeppelin/contracts/token/ERC20/ERC20.sol\":7572:7604  ERC20InvalidReceiver(address(0)) */\n      mload(0x40)\n      0xec442f0500000000000000000000000000000000000000000000000000000000\n      dup2\n      mstore\n      0x04\n      add\n      tag_351\n      swap2\n      swap1\n      tag_96\n      jump\t// in\n    tag_351:\n      mload(0x40)\n      dup1\n      swap2\n      sub\n      swap1\n      revert\n        /* \"@openzeppelin/contracts/token/ERC20/ERC20.sol\":7524:7615  if (account == address(0)) {... */\n    tag_350:\n        /* \"@openzeppelin/contracts/token/ERC20/ERC20.sol\":7624:7659  _update(address(0), account, value) */\n      tag_352\n        /* \"@openzeppelin/contracts/token/ERC20/ERC20.sol\":7640:7641  0 */\n      0x00\n        /* \"@openzeppelin/contracts/token/ERC20/ERC20.sol\":7644:7651  account */\n      dup4\n        /* \"@openzeppelin/contracts/token/ERC20/ERC20.sol\":7653:7658  value */\n      dup4\n        /* \"@openzeppelin/contracts/token/ERC20/ERC20.sol\":7624:7631  _update */\n      tag_328\n        /* \"@openzeppelin/contracts/token/ERC20/ERC20.sol\":7624:7659  _update(address(0), account, value) */\n      jump\t// in\n    tag_352:\n        /* \"@openzeppelin/contracts/token/ERC20/ERC20.sol\":7458:7666  function _mint(address account, uint256 value) internal {... */\n      pop\n      pop\n      jump\t// out\n        /* \"@openzeppelin/contracts/token/ERC20/ERC20.sol\":9701:10133  function _approve(address owner, address spender, uint256 value, bool emitEvent) internal virtual {... */\n    tag_323:\n        /* \"@openzeppelin/contracts/token/ERC20/ERC20.sol\":9830:9831  0 */\n      0x00\n        /* \"@openzeppelin/contracts/token/ERC20/ERC20.sol\":9813:9832  owner == address(0) */\n      0xffffffffffffffffffffffffffffffffffffffff\n      and\n        /* \"@openzeppelin/contracts/token/ERC20/ERC20.sol\":9813:9818  owner */\n      dup5\n        /* \"@openzeppelin/contracts/token/ERC20/ERC20.sol\":9813:9832  owner == address(0) */\n      0xffffffffffffffffffffffffffffffffffffffff\n      and\n      sub\n        /* \"@openzeppelin/contracts/token/ERC20/ERC20.sol\":9809:9898  if (owner == address(0)) {... */\n      tag_354\n      jumpi\n        /* \"@openzeppelin/contracts/token/ERC20/ERC20.sol\":9884:9885  0 */\n      0x00\n        /* \"@openzeppelin/contracts/token/ERC20/ERC20.sol\":9855:9887  ERC20InvalidApprover(address(0)) */\n      mload(0x40)\n      0xe602df0500000000000000000000000000000000000000000000000000000000\n      dup2\n      mstore\n      0x04\n      add\n      tag_355\n      swap2\n      swap1\n      tag_96\n      jump\t// in\n    tag_355:\n      mload(0x40)\n      dup1\n      swap2\n      sub\n      swap1\n      revert\n        /* \"@openzeppelin/contracts/token/ERC20/ERC20.sol\":9809:9898  if (owner == address(0)) {... */\n    tag_354:\n        /* \"@openzeppelin/contracts/token/ERC20/ERC20.sol\":9930:9931  0 */\n      0x00\n        /* \"@openzeppelin/contracts/token/ERC20/ERC20.sol\":9911:9932  spender == address(0) */\n      0xffffffffffffffffffffffffffffffffffffffff\n      and\n        /* \"@openzeppelin/contracts/token/ERC20/ERC20.sol\":9911:9918  spender */\n      dup4\n        /* \"@openzeppelin/contracts/token/ERC20/ERC20.sol\":9911:9932  spender == address(0) */\n      0xffffffffffffffffffffffffffffffffffffffff\n      and\n      sub\n        /* \"@openzeppelin/contracts/token/ERC20/ERC20.sol\":9907:9997  if (spender == address(0)) {... */\n      tag_356\n      jumpi\n        /* \"@openzeppelin/contracts/token/ERC20/ERC20.sol\":9983:9984  0 */\n      0x00\n        /* \"@openzeppelin/contracts/token/ERC20/ERC20.sol\":9955:9986  ERC20InvalidSpender(address(0)) */\n      mload(0x40)\n      0x94280d6200000000000000000000000000000000000000000000000000000000\n      dup2\n      mstore\n      0x04\n      add\n      tag_357\n      swap2\n      swap1\n      tag_96\n      jump\t// in\n    tag_357:\n      mload(0x40)\n      dup1\n      swap2\n      sub\n      swap1\n      revert\n        /* \"@openzeppelin/contracts/token/ERC20/ERC20.sol\":9907:9997  if (spender == address(0)) {... */\n    tag_356:\n        /* \"@openzeppelin/contracts/token/ERC20/ERC20.sol\":10036:10041  value */\n      dup2\n        /* \"@openzeppelin/contracts/token/ERC20/ERC20.sol\":10006:10017  _allowances */\n      0x01\n        /* \"@openzeppelin/contracts/token/ERC20/ERC20.sol\":10006:10024  _allowances[owner] */\n      0x00\n        /* \"@openzeppelin/contracts/token/ERC20/ERC20.sol\":10018:10023  owner */\n      dup7\n        /* \"@openzeppelin/contracts/token/ERC20/ERC20.sol\":10006:10024  _allowances[owner] */\n      0xffffffffffffffffffffffffffffffffffffffff\n      and\n      0xffffffffffffffffffffffffffffffffffffffff\n      and\n      dup2\n      mstore\n      0x20\n      add\n      swap1\n      dup2\n      mstore\n      0x20\n      add\n      0x00\n      keccak256\n        /* \"@openzeppelin/contracts/token/ERC20/ERC20.sol\":10006:10033  _allowances[owner][spender] */\n      0x00\n        /* \"@openzeppelin/contracts/token/ERC20/ERC20.sol\":10025:10032  spender */\n      dup6\n        /* \"@openzeppelin/contracts/token/ERC20/ERC20.sol\":10006:10033  _allowances[owner][spender] */\n      0xffffffffffffffffffffffffffffffffffffffff\n      and\n      0xffffffffffffffffffffffffffffffffffffffff\n      and\n      dup2\n      mstore\n      0x20\n      add\n      swap1\n      dup2\n      mstore\n      0x20\n      add\n      0x00\n      keccak256\n        /* \"@openzeppelin/contracts/token/ERC20/ERC20.sol\":10006:10041  _allowances[owner][spender] = value */\n      dup2\n      swap1\n      sstore\n      pop\n        /* \"@openzeppelin/contracts/token/ERC20/ERC20.sol\":10055:10064  emitEvent */\n      dup1\n        /* \"@openzeppelin/contracts/token/ERC20/ERC20.sol\":10051:10127  if (emitEvent) {... */\n      iszero\n      tag_358\n      jumpi\n        /* \"@openzeppelin/contracts/token/ERC20/ERC20.sol\":10101:10108  spender */\n      dup3\n        /* \"@openzeppelin/contracts/token/ERC20/ERC20.sol\":10085:10116  Approval(owner, spender, value) */\n      0xffffffffffffffffffffffffffffffffffffffff\n      and\n        /* \"@openzeppelin/contracts/token/ERC20/ERC20.sol\":10094:10099  owner */\n      dup5\n        /* \"@openzeppelin/contracts/token/ERC20/ERC20.sol\":10085:10116  Approval(owner, spender, value) */\n      0xffffffffffffffffffffffffffffffffffffffff\n      and\n      0x8c5be1e5ebec7d5bd14f71427d1e84f3dd0314c0f7b2291e5b200ac8c7c3b925\n        /* \"@openzeppelin/contracts/token/ERC20/ERC20.sol\":10110:10115  value */\n      dup5\n        /* \"@openzeppelin/contracts/token/ERC20/ERC20.sol\":10085:10116  Approval(owner, spender, value) */\n      mload(0x40)\n      tag_359\n      swap2\n      swap1\n      tag_58\n      jump\t// in\n    tag_359:\n      mload(0x40)\n      dup1\n      swap2\n      sub\n      swap1\n      log3\n        /* \"@openzeppelin/contracts/token/ERC20/ERC20.sol\":10051:10127  if (emitEvent) {... */\n    tag_358:\n        /* \"@openzeppelin/contracts/token/ERC20/ERC20.sol\":9701:10133  function _approve(address owner, address spender, uint256 value, bool emitEvent) internal virtual {... */\n      pop\n      pop\n      pop\n      pop\n      jump\t// out\n        /* \"@openzeppelin/contracts/token/ERC20/ERC20.sol\":6008:7115  function _update(address from, address to, uint256 value) internal virtual {... */\n    tag_328:\n        /* \"@openzeppelin/contracts/token/ERC20/ERC20.sol\":6113:6114  0 */\n      0x00\n        /* \"@openzeppelin/contracts/token/ERC20/ERC20.sol\":6097:6115  from == address(0) */\n      0xffffffffffffffffffffffffffffffffffffffff\n      and\n        /* \"@openzeppelin/contracts/token/ERC20/ERC20.sol\":6097:6101  from */\n      dup4\n        /* \"@openzeppelin/contracts/token/ERC20/ERC20.sol\":6097:6115  from == address(0) */\n      0xffffffffffffffffffffffffffffffffffffffff\n      and\n      sub\n        /* \"@openzeppelin/contracts/token/ERC20/ERC20.sol\":6093:6633  if (from == address(0)) {... */\n      tag_361\n      jumpi\n        /* \"@openzeppelin/contracts/token/ERC20/ERC20.sol\":6249:6254  value */\n      dup1\n        /* \"@openzeppelin/contracts/token/ERC20/ERC20.sol\":6233:6245  _totalSupply */\n      0x02\n      0x00\n        /* \"@openzeppelin/contracts/token/ERC20/ERC20.sol\":6233:6254  _totalSupply += value */\n      dup3\n      dup3\n      sload\n      tag_362\n      swap2\n      swap1\n      tag_235\n      jump\t// in\n    tag_362:\n      swap3\n      pop\n      pop\n      dup2\n      swap1\n      sstore\n      pop\n        /* \"@openzeppelin/contracts/token/ERC20/ERC20.sol\":6093:6633  if (from == address(0)) {... */\n      jump(tag_363)\n    tag_361:\n        /* \"@openzeppelin/contracts/token/ERC20/ERC20.sol\":6285:6304  uint256 fromBalance */\n      0x00\n        /* \"@openzeppelin/contracts/token/ERC20/ERC20.sol\":6307:6316  _balances */\n      dup1\n        /* \"@openzeppelin/contracts/token/ERC20/ERC20.sol\":6307:6322  _balances[from] */\n      0x00\n        /* \"@openzeppelin/contracts/token/ERC20/ERC20.sol\":6317:6321  from */\n      dup6\n        /* \"@openzeppelin/contracts/token/ERC20/ERC20.sol\":6307:6322  _balances[from] */\n      0xffffffffffffffffffffffffffffffffffffffff\n      and\n      0xffffffffffffffffffffffffffffffffffffffff\n      and\n      dup2\n      mstore\n      0x20\n      add\n      swap1\n      dup2\n      mstore\n      0x20\n      add\n      0x00\n      keccak256\n      sload\n        /* \"@openzeppelin/contracts/token/ERC20/ERC20.sol\":6285:6322  uint256 fromBalance = _balances[from] */\n      swap1\n      pop\n        /* \"@openzeppelin/contracts/token/ERC20/ERC20.sol\":6354:6359  value */\n      dup2\n        /* \"@openzeppelin/contracts/token/ERC20/ERC20.sol\":6340:6351  fromBalance */\n      dup2\n        /* \"@openzeppelin/contracts/token/ERC20/ERC20.sol\":6340:6359  fromBalance < value */\n      lt\n        /* \"@openzeppelin/contracts/token/ERC20/ERC20.sol\":6336:6451  if (fromBalance < value) {... */\n      iszero\n      tag_364\n      jumpi\n        /* \"@openzeppelin/contracts/token/ERC20/ERC20.sol\":6411:6415  from */\n      dup4\n        /* \"@openzeppelin/contracts/token/ERC20/ERC20.sol\":6417:6428  fromBalance */\n      dup2\n        /* \"@openzeppelin/contracts/token/ERC20/ERC20.sol\":6430:6435  value */\n      dup4\n        /* \"@openzeppelin/contracts/token/ERC20/ERC20.sol\":6386:6436  ERC20InsufficientBalance(from, fromBalance, value) */\n      mload(0x40)\n      0xe450d38c00000000000000000000000000000000000000000000000000000000\n      dup2\n      mstore\n      0x04\n      add\n      tag_365\n      swap4\n      swap3\n      swap2\n      swap1\n      tag_334\n      jump\t// in\n    tag_365:\n      mload(0x40)\n      dup1\n      swap2\n      sub\n      swap1\n      revert\n        /* \"@openzeppelin/contracts/token/ERC20/ERC20.sol\":6336:6451  if (fromBalance < value) {... */\n    tag_364:\n        /* \"@openzeppelin/contracts/token/ERC20/ERC20.sol\":6603:6608  value */\n      dup2\n        /* \"@openzeppelin/contracts/token/ERC20/ERC20.sol\":6589:6600  fromBalance */\n      dup2\n        /* \"@openzeppelin/contracts/token/ERC20/ERC20.sol\":6589:6608  fromBalance - value */\n      sub\n        /* \"@openzeppelin/contracts/token/ERC20/ERC20.sol\":6571:6580  _balances */\n      0x00\n        /* \"@openzeppelin/contracts/token/ERC20/ERC20.sol\":6571:6586  _balances[from] */\n      dup1\n        /* \"@openzeppelin/contracts/token/ERC20/ERC20.sol\":6581:6585  from */\n      dup7\n        /* \"@openzeppelin/contracts/token/ERC20/ERC20.sol\":6571:6586  _balances[from] */\n      0xffffffffffffffffffffffffffffffffffffffff\n      and\n      0xffffffffffffffffffffffffffffffffffffffff\n      and\n      dup2\n      mstore\n      0x20\n      add\n      swap1\n      dup2\n      mstore\n      0x20\n      add\n      0x00\n      keccak256\n        /* \"@openzeppelin/contracts/token/ERC20/ERC20.sol\":6571:6608  _balances[from] = fromBalance - value */\n      dup2\n      swap1\n      sstore\n      pop\n        /* \"@openzeppelin/contracts/token/ERC20/ERC20.sol\":6271:6633  {... */\n      pop\n        /* \"@openzeppelin/contracts/token/ERC20/ERC20.sol\":6093:6633  if (from == address(0)) {... */\n    tag_363:\n        /* \"@openzeppelin/contracts/token/ERC20/ERC20.sol\":6661:6662  0 */\n      0x00\n        /* \"@openzeppelin/contracts/token/ERC20/ERC20.sol\":6647:6663  to == address(0) */\n      0xffffffffffffffffffffffffffffffffffffffff\n      and\n        /* \"@openzeppelin/contracts/token/ERC20/ERC20.sol\":6647:6649  to */\n      dup3\n        /* \"@openzeppelin/contracts/token/ERC20/ERC20.sol\":6647:6663  to == address(0) */\n      0xffffffffffffffffffffffffffffffffffffffff\n      and\n      sub\n        /* \"@openzeppelin/contracts/token/ERC20/ERC20.sol\":6643:7068  if (to == address(0)) {... */\n      tag_366\n      jumpi\n        /* \"@openzeppelin/contracts/token/ERC20/ERC20.sol\":6826:6831  value */\n      dup1\n        /* \"@openzeppelin/contracts/token/ERC20/ERC20.sol\":6810:6822  _totalSupply */\n      0x02\n      0x00\n        /* \"@openzeppelin/contracts/token/ERC20/ERC20.sol\":6810:6831  _totalSupply -= value */\n      dup3\n      dup3\n      sload\n      sub\n      swap3\n      pop\n      pop\n      dup2\n      swap1\n      sstore\n      pop\n        /* \"@openzeppelin/contracts/token/ERC20/ERC20.sol\":6643:7068  if (to == address(0)) {... */\n      jump(tag_367)\n    tag_366:\n        /* \"@openzeppelin/contracts/token/ERC20/ERC20.sol\":7038:7043  value */\n      dup1\n        /* \"@openzeppelin/contracts/token/ERC20/ERC20.sol\":7021:7030  _balances */\n      0x00\n        /* \"@openzeppelin/contracts/token/ERC20/ERC20.sol\":7021:7034  _balances[to] */\n      dup1\n        /* \"@openzeppelin/contracts/token/ERC20/ERC20.sol\":7031:7033  to */\n      dup5\n        /* \"@openzeppelin/contracts/token/ERC20/ERC20.sol\":7021:7034  _balances[to] */\n      0xffffffffffffffffffffffffffffffffffffffff\n      and\n      0xffffffffffffffffffffffffffffffffffffffff\n      and\n      dup2\n      mstore\n      0x20\n      add\n      swap1\n      dup2\n      mstore\n      0x20\n      add\n      0x00\n      keccak256\n      0x00\n        /* \"@openzeppelin/contracts/token/ERC20/ERC20.sol\":7021:7043  _balances[to] += value */\n      dup3\n      dup3\n      sload\n      add\n      swap3\n      pop\n      pop\n      dup2\n      swap1\n      sstore\n      pop\n        /* \"@openzeppelin/contracts/token/ERC20/ERC20.sol\":6643:7068  if (to == address(0)) {... */\n    tag_367:\n        /* \"@openzeppelin/contracts/token/ERC20/ERC20.sol\":7098:7100  to */\n      dup2\n        /* \"@openzeppelin/contracts/token/ERC20/ERC20.sol\":7083:7108  Transfer(from, to, value) */\n      0xffffffffffffffffffffffffffffffffffffffff\n      and\n        /* \"@openzeppelin/contracts/token/ERC20/ERC20.sol\":7092:7096  from */\n      dup4\n        /* \"@openzeppelin/contracts/token/ERC20/ERC20.sol\":7083:7108  Transfer(from, to, value) */\n      0xffffffffffffffffffffffffffffffffffffffff\n      and\n      0xddf252ad1be2c89b69c2b068fc378daa952ba7f163c4a11628f55a4df523b3ef\n        /* \"@openzeppelin/contracts/token/ERC20/ERC20.sol\":7102:7107  value */\n      dup4\n        /* \"@openzeppelin/contracts/token/ERC20/ERC20.sol\":7083:7108  Transfer(from, to, value) */\n      mload(0x40)\n      tag_368\n      swap2\n      swap1\n      tag_58\n      jump\t// in\n    tag_368:\n      mload(0x40)\n      dup1\n      swap2\n      sub\n      swap1\n      log3\n        /* \"@openzeppelin/contracts/token/ERC20/ERC20.sol\":6008:7115  function _update(address from, address to, uint256 value) internal virtual {... */\n      pop\n      pop\n      pop\n      jump\t// out\n        /* \"#utility.yul\":7:106   */\n    tag_369:\n        /* \"#utility.yul\":59:65   */\n      0x00\n        /* \"#utility.yul\":93:98   */\n      dup2\n        /* \"#utility.yul\":87:99   */\n      mload\n        /* \"#utility.yul\":77:99   */\n      swap1\n      pop\n        /* \"#utility.yul\":7:106   */\n      swap2\n      swap1\n      pop\n      jump\t// out\n        /* \"#utility.yul\":112:281   */\n    tag_370:\n        /* \"#utility.yul\":196:207   */\n      0x00\n        /* \"#utility.yul\":230:236   */\n      dup3\n        /* \"#utility.yul\":225:228   */\n      dup3\n        /* \"#utility.yul\":218:237   */\n      mstore\n        /* \"#utility.yul\":270:274   */\n      0x20\n        /* \"#utility.yul\":265:268   */\n      dup3\n        /* \"#utility.yul\":261:275   */\n      add\n        /* \"#utility.yul\":246:275   */\n      swap1\n      pop\n        /* \"#utility.yul\":112:281   */\n      swap3\n      swap2\n      pop\n      pop\n      jump\t// out\n        /* \"#utility.yul\":287:535   */\n    tag_371:\n        /* \"#utility.yul\":369:370   */\n      0x00\n        /* \"#utility.yul\":379:492   */\n    tag_423:\n        /* \"#utility.yul\":393:399   */\n      dup4\n        /* \"#utility.yul\":390:391   */\n      dup2\n        /* \"#utility.yul\":387:400   */\n      lt\n        /* \"#utility.yul\":379:492   */\n      iszero\n      tag_425\n      jumpi\n        /* \"#utility.yul\":478:479   */\n      dup1\n        /* \"#utility.yul\":473:476   */\n      dup3\n        /* \"#utility.yul\":469:480   */\n      add\n        /* \"#utility.yul\":463:481   */\n      mload\n        /* \"#utility.yul\":459:460   */\n      dup2\n        /* \"#utility.yul\":454:457   */\n      dup5\n        /* \"#utility.yul\":450:461   */\n      add\n        /* \"#utility.yul\":443:482   */\n      mstore\n        /* \"#utility.yul\":415:417   */\n      0x20\n        /* \"#utility.yul\":412:413   */\n      dup2\n        /* \"#utility.yul\":408:418   */\n      add\n        /* \"#utility.yul\":403:418   */\n      swap1\n      pop\n        /* \"#utility.yul\":379:492   */\n      jump(tag_423)\n    tag_425:\n        /* \"#utility.yul\":526:527   */\n      0x00\n        /* \"#utility.yul\":517:523   */\n      dup5\n        /* \"#utility.yul\":512:515   */\n      dup5\n        /* \"#utility.yul\":508:524   */\n      add\n        /* \"#utility.yul\":501:528   */\n      mstore\n        /* \"#utility.yul\":349:535   */\n      pop\n        /* \"#utility.yul\":287:535   */\n      pop\n      pop\n      pop\n      jump\t// out\n        /* \"#utility.yul\":541:643   */\n    tag_372:\n        /* \"#utility.yul\":582:588   */\n      0x00\n        /* \"#utility.yul\":633:635   */\n      0x1f\n        /* \"#utility.yul\":629:636   */\n      not\n        /* \"#utility.yul\":624:626   */\n      0x1f\n        /* \"#utility.yul\":617:622   */\n      dup4\n        /* \"#utility.yul\":613:627   */\n      add\n        /* \"#utility.yul\":609:637   */\n      and\n        /* \"#utility.yul\":599:637   */\n      swap1\n      pop\n        /* \"#utility.yul\":541:643   */\n      swap2\n      swap1\n      pop\n      jump\t// out\n        /* \"#utility.yul\":649:1026   */\n    tag_373:\n        /* \"#utility.yul\":737:740   */\n      0x00\n        /* \"#utility.yul\":765:804   */\n      tag_428\n        /* \"#utility.yul\":798:803   */\n      dup3\n        /* \"#utility.yul\":765:804   */\n      tag_369\n      jump\t// in\n    tag_428:\n        /* \"#utility.yul\":820:891   */\n      tag_429\n        /* \"#utility.yul\":884:890   */\n      dup2\n        /* \"#utility.yul\":879:882   */\n      dup6\n        /* \"#utility.yul\":820:891   */\n      tag_370\n      jump\t// in\n    tag_429:\n        /* \"#utility.yul\":813:891   */\n      swap4\n      pop\n        /* \"#utility.yul\":900:965   */\n      tag_430\n        /* \"#utility.yul\":958:964   */\n      dup2\n        /* \"#utility.yul\":953:956   */\n      dup6\n        /* \"#utility.yul\":946:950   */\n      0x20\n        /* \"#utility.yul\":939:944   */\n      dup7\n        /* \"#utility.yul\":935:951   */\n      add\n        /* \"#utility.yul\":900:965   */\n      tag_371\n      jump\t// in\n    tag_430:\n        /* \"#utility.yul\":990:1019   */\n      tag_431\n        /* \"#utility.yul\":1012:1018   */\n      dup2\n        /* \"#utility.yul\":990:1019   */\n      tag_372\n      jump\t// in\n    tag_431:\n        /* \"#utility.yul\":985:988   */\n      dup5\n        /* \"#utility.yul\":981:1020   */\n      add\n        /* \"#utility.yul\":974:1020   */\n      swap2\n      pop\n        /* \"#utility.yul\":741:1026   */\n      pop\n        /* \"#utility.yul\":649:1026   */\n      swap3\n      swap2\n      pop\n      pop\n      jump\t// out\n        /* \"#utility.yul\":1032:1345   */\n    tag_41:\n        /* \"#utility.yul\":1145:1149   */\n      0x00\n        /* \"#utility.yul\":1183:1185   */\n      0x20\n        /* \"#utility.yul\":1172:1181   */\n      dup3\n        /* \"#utility.yul\":1168:1186   */\n      add\n        /* \"#utility.yul\":1160:1186   */\n      swap1\n      pop\n        /* \"#utility.yul\":1232:1241   */\n      dup2\n        /* \"#utility.yul\":1226:1230   */\n      dup2\n        /* \"#utility.yul\":1222:1242   */\n      sub\n        /* \"#utility.yul\":1218:1219   */\n      0x00\n        /* \"#utility.yul\":1207:1216   */\n      dup4\n        /* \"#utility.yul\":1203:1220   */\n      add\n        /* \"#utility.yul\":1196:1243   */\n      mstore\n        /* \"#utility.yul\":1260:1338   */\n      tag_433\n        /* \"#utility.yul\":1333:1337   */\n      dup2\n        /* \"#utility.yul\":1324:1330   */\n      dup5\n        /* \"#utility.yul\":1260:1338   */\n      tag_373\n      jump\t// in\n    tag_433:\n        /* \"#utility.yul\":1252:1338   */\n      swap1\n      pop\n        /* \"#utility.yul\":1032:1345   */\n      swap3\n      swap2\n      pop\n      pop\n      jump\t// out\n        /* \"#utility.yul\":1432:1549   */\n    tag_375:\n        /* \"#utility.yul\":1541:1542   */\n      0x00\n        /* \"#utility.yul\":1538:1539   */\n      dup1\n        /* \"#utility.yul\":1531:1543   */\n      revert\n        /* \"#utility.yul\":1678:1804   */\n    tag_377:\n        /* \"#utility.yul\":1715:1722   */\n      0x00\n        /* \"#utility.yul\":1755:1797   */\n      0xffffffffffffffffffffffffffffffffffffffff\n        /* \"#utility.yul\":1748:1753   */\n      dup3\n        /* \"#utility.yul\":1744:1798   */\n      and\n        /* \"#utility.yul\":1733:1798   */\n      swap1\n      pop\n        /* \"#utility.yul\":1678:1804   */\n      swap2\n      swap1\n      pop\n      jump\t// out\n        /* \"#utility.yul\":1810:1906   */\n    tag_378:\n        /* \"#utility.yul\":1847:1854   */\n      0x00\n        /* \"#utility.yul\":1876:1900   */\n      tag_439\n        /* \"#utility.yul\":1894:1899   */\n      dup3\n        /* \"#utility.yul\":1876:1900   */\n      tag_377\n      jump\t// in\n    tag_439:\n        /* \"#utility.yul\":1865:1900   */\n      swap1\n      pop\n        /* \"#utility.yul\":1810:1906   */\n      swap2\n      swap1\n      pop\n      jump\t// out\n        /* \"#utility.yul\":1912:2034   */\n    tag_379:\n        /* \"#utility.yul\":1985:2009   */\n      tag_441\n        /* \"#utility.yul\":2003:2008   */\n      dup2\n        /* \"#utility.yul\":1985:2009   */\n      tag_378\n      jump\t// in\n    tag_441:\n        /* \"#utility.yul\":1978:1983   */\n      dup2\n        /* \"#utility.yul\":1975:2010   */\n      eq\n        /* \"#utility.yul\":1965:2028   */\n      tag_442\n      jumpi\n        /* \"#utility.yul\":2024:2025   */\n      0x00\n        /* \"#utility.yul\":2021:2022   */\n      dup1\n        /* \"#utility.yul\":2014:2026   */\n      revert\n        /* \"#utility.yul\":1965:2028   */\n    tag_442:\n        /* \"#utility.yul\":1912:2034   */\n      pop\n      jump\t// out\n        /* \"#utility.yul\":2040:2179   */\n    tag_380:\n        /* \"#utility.yul\":2086:2091   */\n      0x00\n        /* \"#utility.yul\":2124:2130   */\n      dup2\n        /* \"#utility.yul\":2111:2131   */\n      calldataload\n        /* \"#utility.yul\":2102:2131   */\n      swap1\n      pop\n        /* \"#utility.yul\":2140:2173   */\n      tag_444\n        /* \"#utility.yul\":2167:2172   */\n      dup2\n        /* \"#utility.yul\":2140:2173   */\n      tag_379\n      jump\t// in\n    tag_444:\n        /* \"#utility.yul\":2040:2179   */\n      swap3\n      swap2\n      pop\n      pop\n      jump\t// out\n        /* \"#utility.yul\":2185:2262   */\n    tag_381:\n        /* \"#utility.yul\":2222:2229   */\n      0x00\n        /* \"#utility.yul\":2251:2256   */\n      dup2\n        /* \"#utility.yul\":2240:2256   */\n      swap1\n      pop\n        /* \"#utility.yul\":2185:2262   */\n      swap2\n      swap1\n      pop\n      jump\t// out\n        /* \"#utility.yul\":2268:2390   */\n    tag_382:\n        /* \"#utility.yul\":2341:2365   */\n      tag_447\n        /* \"#utility.yul\":2359:2364   */\n      dup2\n        /* \"#utility.yul\":2341:2365   */\n      tag_381\n      jump\t// in\n    tag_447:\n        /* \"#utility.yul\":2334:2339   */\n      dup2\n        /* \"#utility.yul\":2331:2366   */\n      eq\n        /* \"#utility.yul\":2321:2384   */\n      tag_448\n      jumpi\n        /* \"#utility.yul\":2380:2381   */\n      0x00\n        /* \"#utility.yul\":2377:2378   */\n      dup1\n        /* \"#utility.yul\":2370:2382   */\n      revert\n        /* \"#utility.yul\":2321:2384   */\n    tag_448:\n        /* \"#utility.yul\":2268:2390   */\n      pop\n      jump\t// out\n        /* \"#utility.yul\":2396:2535   */\n    tag_383:\n        /* \"#utility.yul\":2442:2447   */\n      0x00\n        /* \"#utility.yul\":2480:2486   */\n      dup2\n        /* \"#utility.yul\":2467:2487   */\n      calldataload\n        /* \"#utility.yul\":2458:2487   */\n      swap1\n      pop\n        /* \"#utility.yul\":2496:2529   */\n      tag_450\n        /* \"#utility.yul\":2523:2528   */\n      dup2\n        /* \"#utility.yul\":2496:2529   */\n      tag_382\n      jump\t// in\n    tag_450:\n        /* \"#utility.yul\":2396:2535   */\n      swap3\n      swap2\n      pop\n      pop\n      jump\t// out\n        /* \"#utility.yul\":2541:3015   */\n    tag_44:\n        /* \"#utility.yul\":2609:2615   */\n      0x00\n        /* \"#utility.yul\":2617:2623   */\n      dup1\n        /* \"#utility.yul\":2666:2668   */\n      0x40\n        /* \"#utility.yul\":2654:2663   */\n      dup4\n        /* \"#utility.yul\":2645:2652   */\n      dup6\n        /* \"#utility.yul\":2641:2664   */\n      sub\n        /* \"#utility.yul\":2637:2669   */\n      slt\n        /* \"#utility.yul\":2634:2753   */\n      iszero\n      tag_452\n      jumpi\n        /* \"#utility.yul\":2672:2751   */\n      tag_453\n      tag_375\n      jump\t// in\n    tag_453:\n        /* \"#utility.yul\":2634:2753   */\n    tag_452:\n        /* \"#utility.yul\":2792:2793   */\n      0x00\n        /* \"#utility.yul\":2817:2870   */\n      tag_454\n        /* \"#utility.yul\":2862:2869   */\n      dup6\n        /* \"#utility.yul\":2853:2859   */\n      dup3\n        /* \"#utility.yul\":2842:2851   */\n      dup7\n        /* \"#utility.yul\":2838:2860   */\n      add\n        /* \"#utility.yul\":2817:2870   */\n      tag_380\n      jump\t// in\n    tag_454:\n        /* \"#utility.yul\":2807:2870   */\n      swap3\n      pop\n        /* \"#utility.yul\":2763:2880   */\n      pop\n        /* \"#utility.yul\":2919:2921   */\n      0x20\n        /* \"#utility.yul\":2945:2998   */\n      tag_455\n        /* \"#utility.yul\":2990:2997   */\n      dup6\n        /* \"#utility.yul\":2981:2987   */\n      dup3\n        /* \"#utility.yul\":2970:2979   */\n      dup7\n        /* \"#utility.yul\":2966:2988   */\n      add\n        /* \"#utility.yul\":2945:2998   */\n      tag_383\n      jump\t// in\n    tag_455:\n        /* \"#utility.yul\":2935:2998   */\n      swap2\n      pop\n        /* \"#utility.yul\":2890:3008   */\n      pop\n        /* \"#utility.yul\":2541:3015   */\n      swap3\n      pop\n      swap3\n      swap1\n      pop\n      jump\t// out\n        /* \"#utility.yul\":3021:3111   */\n    tag_384:\n        /* \"#utility.yul\":3055:3062   */\n      0x00\n        /* \"#utility.yul\":3098:3103   */\n      dup2\n        /* \"#utility.yul\":3091:3104   */\n      iszero\n        /* \"#utility.yul\":3084:3105   */\n      iszero\n        /* \"#utility.yul\":3073:3105   */\n      swap1\n      pop\n        /* \"#utility.yul\":3021:3111   */\n      swap2\n      swap1\n      pop\n      jump\t// out\n        /* \"#utility.yul\":3117:3226   */\n    tag_385:\n        /* \"#utility.yul\":3198:3219   */\n      tag_458\n        /* \"#utility.yul\":3213:3218   */\n      dup2\n        /* \"#utility.yul\":3198:3219   */\n      tag_384\n      jump\t// in\n    tag_458:\n        /* \"#utility.yul\":3193:3196   */\n      dup3\n        /* \"#utility.yul\":3186:3220   */\n      mstore\n        /* \"#utility.yul\":3117:3226   */\n      pop\n      pop\n      jump\t// out\n        /* \"#utility.yul\":3232:3442   */\n    tag_47:\n        /* \"#utility.yul\":3319:3323   */\n      0x00\n        /* \"#utility.yul\":3357:3359   */\n      0x20\n        /* \"#utility.yul\":3346:3355   */\n      dup3\n        /* \"#utility.yul\":3342:3360   */\n      add\n        /* \"#utility.yul\":3334:3360   */\n      swap1\n      pop\n        /* \"#utility.yul\":3370:3435   */\n      tag_460\n        /* \"#utility.yul\":3432:3433   */\n      0x00\n        /* \"#utility.yul\":3421:3430   */\n      dup4\n        /* \"#utility.yul\":3417:3434   */\n      add\n        /* \"#utility.yul\":3408:3414   */\n      dup5\n        /* \"#utility.yul\":3370:3435   */\n      tag_385\n      jump\t// in\n    tag_460:\n        /* \"#utility.yul\":3232:3442   */\n      swap3\n      swap2\n      pop\n      pop\n      jump\t// out\n        /* \"#utility.yul\":3448:3508   */\n    tag_386:\n        /* \"#utility.yul\":3476:3479   */\n      0x00\n        /* \"#utility.yul\":3497:3502   */\n      dup2\n        /* \"#utility.yul\":3490:3502   */\n      swap1\n      pop\n        /* \"#utility.yul\":3448:3508   */\n      swap2\n      swap1\n      pop\n      jump\t// out\n        /* \"#utility.yul\":3514:3656   */\n    tag_387:\n        /* \"#utility.yul\":3564:3573   */\n      0x00\n        /* \"#utility.yul\":3597:3650   */\n      tag_463\n        /* \"#utility.yul\":3615:3649   */\n      tag_464\n        /* \"#utility.yul\":3624:3648   */\n      tag_465\n        /* \"#utility.yul\":3642:3647   */\n      dup5\n        /* \"#utility.yul\":3624:3648   */\n      tag_377\n      jump\t// in\n    tag_465:\n        /* \"#utility.yul\":3615:3649   */\n      tag_386\n      jump\t// in\n    tag_464:\n        /* \"#utility.yul\":3597:3650   */\n      tag_377\n      jump\t// in\n    tag_463:\n        /* \"#utility.yul\":3584:3650   */\n      swap1\n      pop\n        /* \"#utility.yul\":3514:3656   */\n      swap2\n      swap1\n      pop\n      jump\t// out\n        /* \"#utility.yul\":3662:3788   */\n    tag_388:\n        /* \"#utility.yul\":3712:3721   */\n      0x00\n        /* \"#utility.yul\":3745:3782   */\n      tag_467\n        /* \"#utility.yul\":3776:3781   */\n      dup3\n        /* \"#utility.yul\":3745:3782   */\n      tag_387\n      jump\t// in\n    tag_467:\n        /* \"#utility.yul\":3732:3782   */\n      swap1\n      pop\n        /* \"#utility.yul\":3662:3788   */\n      swap2\n      swap1\n      pop\n      jump\t// out\n        /* \"#utility.yul\":3794:3934   */\n    tag_389:\n        /* \"#utility.yul\":3858:3867   */\n      0x00\n        /* \"#utility.yul\":3891:3928   */\n      tag_469\n        /* \"#utility.yul\":3922:3927   */\n      dup3\n        /* \"#utility.yul\":3891:3928   */\n      tag_388\n      jump\t// in\n    tag_469:\n        /* \"#utility.yul\":3878:3928   */\n      swap1\n      pop\n        /* \"#utility.yul\":3794:3934   */\n      swap2\n      swap1\n      pop\n      jump\t// out\n        /* \"#utility.yul\":3940:4099   */\n    tag_390:\n        /* \"#utility.yul\":4041:4092   */\n      tag_471\n        /* \"#utility.yul\":4086:4091   */\n      dup2\n        /* \"#utility.yul\":4041:4092   */\n      tag_389\n      jump\t// in\n    tag_471:\n        /* \"#utility.yul\":4036:4039   */\n      dup3\n        /* \"#utility.yul\":4029:4093   */\n      mstore\n        /* \"#utility.yul\":3940:4099   */\n      pop\n      pop\n      jump\t// out\n        /* \"#utility.yul\":4105:4355   */\n    tag_51:\n        /* \"#utility.yul\":4212:4216   */\n      0x00\n        /* \"#utility.yul\":4250:4252   */\n      0x20\n        /* \"#utility.yul\":4239:4248   */\n      dup3\n        /* \"#utility.yul\":4235:4253   */\n      add\n        /* \"#utility.yul\":4227:4253   */\n      swap1\n      pop\n        /* \"#utility.yul\":4263:4348   */\n      tag_473\n        /* \"#utility.yul\":4345:4346   */\n      0x00\n        /* \"#utility.yul\":4334:4343   */\n      dup4\n        /* \"#utility.yul\":4330:4347   */\n      add\n        /* \"#utility.yul\":4321:4327   */\n      dup5\n        /* \"#utility.yul\":4263:4348   */\n      tag_390\n      jump\t// in\n    tag_473:\n        /* \"#utility.yul\":4105:4355   */\n      swap3\n      swap2\n      pop\n      pop\n      jump\t// out\n        /* \"#utility.yul\":4361:4479   */\n    tag_391:\n        /* \"#utility.yul\":4448:4472   */\n      tag_475\n        /* \"#utility.yul\":4466:4471   */\n      dup2\n        /* \"#utility.yul\":4448:4472   */\n      tag_381\n      jump\t// in\n    tag_475:\n        /* \"#utility.yul\":4443:4446   */\n      dup3\n        /* \"#utility.yul\":4436:4473   */\n      mstore\n        /* \"#utility.yul\":4361:4479   */\n      pop\n      pop\n      jump\t// out\n        /* \"#utility.yul\":4485:4707   */\n    tag_58:\n        /* \"#utility.yul\":4578:4582   */\n      0x00\n        /* \"#utility.yul\":4616:4618   */\n      0x20\n        /* \"#utility.yul\":4605:4614   */\n      dup3\n        /* \"#utility.yul\":4601:4619   */\n      add\n        /* \"#utility.yul\":4593:4619   */\n      swap1\n      pop\n        /* \"#utility.yul\":4629:4700   */\n      tag_477\n        /* \"#utility.yul\":4697:4698   */\n      0x00\n        /* \"#utility.yul\":4686:4695   */\n      dup4\n        /* \"#utility.yul\":4682:4699   */\n      add\n        /* \"#utility.yul\":4673:4679   */\n      dup5\n        /* \"#utility.yul\":4629:4700   */\n      tag_391\n      jump\t// in\n    tag_477:\n        /* \"#utility.yul\":4485:4707   */\n      swap3\n      swap2\n      pop\n      pop\n      jump\t// out\n        /* \"#utility.yul\":4713:5332   */\n    tag_61:\n        /* \"#utility.yul\":4790:4796   */\n      0x00\n        /* \"#utility.yul\":4798:4804   */\n      dup1\n        /* \"#utility.yul\":4806:4812   */\n      0x00\n        /* \"#utility.yul\":4855:4857   */\n      0x60\n        /* \"#utility.yul\":4843:4852   */\n      dup5\n        /* \"#utility.yul\":4834:4841   */\n      dup7\n        /* \"#utility.yul\":4830:4853   */\n      sub\n        /* \"#utility.yul\":4826:4858   */\n      slt\n        /* \"#utility.yul\":4823:4942   */\n      iszero\n      tag_479\n      jumpi\n        /* \"#utility.yul\":4861:4940   */\n      tag_480\n      tag_375\n      jump\t// in\n    tag_480:\n        /* \"#utility.yul\":4823:4942   */\n    tag_479:\n        /* \"#utility.yul\":4981:4982   */\n      0x00\n        /* \"#utility.yul\":5006:5059   */\n      tag_481\n        /* \"#utility.yul\":5051:5058   */\n      dup7\n        /* \"#utility.yul\":5042:5048   */\n      dup3\n        /* \"#utility.yul\":5031:5040   */\n      dup8\n        /* \"#utility.yul\":5027:5049   */\n      add\n        /* \"#utility.yul\":5006:5059   */\n      tag_380\n      jump\t// in\n    tag_481:\n        /* \"#utility.yul\":4996:5059   */\n      swap4\n      pop\n        /* \"#utility.yul\":4952:5069   */\n      pop\n        /* \"#utility.yul\":5108:5110   */\n      0x20\n        /* \"#utility.yul\":5134:5187   */\n      tag_482\n        /* \"#utility.yul\":5179:5186   */\n      dup7\n        /* \"#utility.yul\":5170:5176   */\n      dup3\n        /* \"#utility.yul\":5159:5168   */\n      dup8\n        /* \"#utility.yul\":5155:5177   */\n      add\n        /* \"#utility.yul\":5134:5187   */\n      tag_380\n      jump\t// in\n    tag_482:\n        /* \"#utility.yul\":5124:5187   */\n      swap3\n      pop\n        /* \"#utility.yul\":5079:5197   */\n      pop\n        /* \"#utility.yul\":5236:5238   */\n      0x40\n        /* \"#utility.yul\":5262:5315   */\n      tag_483\n        /* \"#utility.yul\":5307:5314   */\n      dup7\n        /* \"#utility.yul\":5298:5304   */\n      dup3\n        /* \"#utility.yul\":5287:5296   */\n      dup8\n        /* \"#utility.yul\":5283:5305   */\n      add\n        /* \"#utility.yul\":5262:5315   */\n      tag_383\n      jump\t// in\n    tag_483:\n        /* \"#utility.yul\":5252:5315   */\n      swap2\n      pop\n        /* \"#utility.yul\":5207:5325   */\n      pop\n        /* \"#utility.yul\":4713:5332   */\n      swap3\n      pop\n      swap3\n      pop\n      swap3\n      jump\t// out\n        /* \"#utility.yul\":5338:5424   */\n    tag_392:\n        /* \"#utility.yul\":5373:5380   */\n      0x00\n        /* \"#utility.yul\":5413:5417   */\n      0xff\n        /* \"#utility.yul\":5406:5411   */\n      dup3\n        /* \"#utility.yul\":5402:5418   */\n      and\n        /* \"#utility.yul\":5391:5418   */\n      swap1\n      pop\n        /* \"#utility.yul\":5338:5424   */\n      swap2\n      swap1\n      pop\n      jump\t// out\n        /* \"#utility.yul\":5430:5542   */\n    tag_393:\n        /* \"#utility.yul\":5513:5535   */\n      tag_486\n        /* \"#utility.yul\":5529:5534   */\n      dup2\n        /* \"#utility.yul\":5513:5535   */\n      tag_392\n      jump\t// in\n    tag_486:\n        /* \"#utility.yul\":5508:5511   */\n      dup3\n        /* \"#utility.yul\":5501:5536   */\n      mstore\n        /* \"#utility.yul\":5430:5542   */\n      pop\n      pop\n      jump\t// out\n        /* \"#utility.yul\":5548:5762   */\n    tag_67:\n        /* \"#utility.yul\":5637:5641   */\n      0x00\n        /* \"#utility.yul\":5675:5677   */\n      0x20\n        /* \"#utility.yul\":5664:5673   */\n      dup3\n        /* \"#utility.yul\":5660:5678   */\n      add\n        /* \"#utility.yul\":5652:5678   */\n      swap1\n      pop\n        /* \"#utility.yul\":5688:5755   */\n      tag_488\n        /* \"#utility.yul\":5752:5753   */\n      0x00\n        /* \"#utility.yul\":5741:5750   */\n      dup4\n        /* \"#utility.yul\":5737:5754   */\n      add\n        /* \"#utility.yul\":5728:5734   */\n      dup5\n        /* \"#utility.yul\":5688:5755   */\n      tag_393\n      jump\t// in\n    tag_488:\n        /* \"#utility.yul\":5548:5762   */\n      swap3\n      swap2\n      pop\n      pop\n      jump\t// out\n        /* \"#utility.yul\":5768:6097   */\n    tag_76:\n        /* \"#utility.yul\":5827:5833   */\n      0x00\n        /* \"#utility.yul\":5876:5878   */\n      0x20\n        /* \"#utility.yul\":5864:5873   */\n      dup3\n        /* \"#utility.yul\":5855:5862   */\n      dup5\n        /* \"#utility.yul\":5851:5874   */\n      sub\n        /* \"#utility.yul\":5847:5879   */\n      slt\n        /* \"#utility.yul\":5844:5963   */\n      iszero\n      tag_490\n      jumpi\n        /* \"#utility.yul\":5882:5961   */\n      tag_491\n      tag_375\n      jump\t// in\n    tag_491:\n        /* \"#utility.yul\":5844:5963   */\n    tag_490:\n        /* \"#utility.yul\":6002:6003   */\n      0x00\n        /* \"#utility.yul\":6027:6080   */\n      tag_492\n        /* \"#utility.yul\":6072:6079   */\n      dup5\n        /* \"#utility.yul\":6063:6069   */\n      dup3\n        /* \"#utility.yul\":6052:6061   */\n      dup6\n        /* \"#utility.yul\":6048:6070   */\n      add\n        /* \"#utility.yul\":6027:6080   */\n      tag_380\n      jump\t// in\n    tag_492:\n        /* \"#utility.yul\":6017:6080   */\n      swap2\n      pop\n        /* \"#utility.yul\":5973:6090   */\n      pop\n        /* \"#utility.yul\":5768:6097   */\n      swap3\n      swap2\n      pop\n      pop\n      jump\t// out\n        /* \"#utility.yul\":6103:6432   */\n    tag_81:\n        /* \"#utility.yul\":6162:6168   */\n      0x00\n        /* \"#utility.yul\":6211:6213   */\n      0x20\n        /* \"#utility.yul\":6199:6208   */\n      dup3\n        /* \"#utility.yul\":6190:6197   */\n      dup5\n        /* \"#utility.yul\":6186:6209   */\n      sub\n        /* \"#utility.yul\":6182:6214   */\n      slt\n        /* \"#utility.yul\":6179:6298   */\n      iszero\n      tag_494\n      jumpi\n        /* \"#utility.yul\":6217:6296   */\n      tag_495\n      tag_375\n      jump\t// in\n    tag_495:\n        /* \"#utility.yul\":6179:6298   */\n    tag_494:\n        /* \"#utility.yul\":6337:6338   */\n      0x00\n        /* \"#utility.yul\":6362:6415   */\n      tag_496\n        /* \"#utility.yul\":6407:6414   */\n      dup5\n        /* \"#utility.yul\":6398:6404   */\n      dup3\n        /* \"#utility.yul\":6387:6396   */\n      dup6\n        /* \"#utility.yul\":6383:6405   */\n      add\n        /* \"#utility.yul\":6362:6415   */\n      tag_383\n      jump\t// in\n    tag_496:\n        /* \"#utility.yul\":6352:6415   */\n      swap2\n      pop\n        /* \"#utility.yul\":6308:6425   */\n      pop\n        /* \"#utility.yul\":6103:6432   */\n      swap3\n      swap2\n      pop\n      pop\n      jump\t// out\n        /* \"#utility.yul\":6438:6585   */\n    tag_394:\n        /* \"#utility.yul\":6509:6518   */\n      0x00\n        /* \"#utility.yul\":6542:6579   */\n      tag_498\n        /* \"#utility.yul\":6573:6578   */\n      dup3\n        /* \"#utility.yul\":6542:6579   */\n      tag_388\n      jump\t// in\n    tag_498:\n        /* \"#utility.yul\":6529:6579   */\n      swap1\n      pop\n        /* \"#utility.yul\":6438:6585   */\n      swap2\n      swap1\n      pop\n      jump\t// out\n        /* \"#utility.yul\":6591:6764   */\n    tag_395:\n        /* \"#utility.yul\":6699:6757   */\n      tag_500\n        /* \"#utility.yul\":6751:6756   */\n      dup2\n        /* \"#utility.yul\":6699:6757   */\n      tag_394\n      jump\t// in\n    tag_500:\n        /* \"#utility.yul\":6694:6697   */\n      dup3\n        /* \"#utility.yul\":6687:6758   */\n      mstore\n        /* \"#utility.yul\":6591:6764   */\n      pop\n      pop\n      jump\t// out\n        /* \"#utility.yul\":6770:7034   */\n    tag_92:\n        /* \"#utility.yul\":6884:6888   */\n      0x00\n        /* \"#utility.yul\":6922:6924   */\n      0x20\n        /* \"#utility.yul\":6911:6920   */\n      dup3\n        /* \"#utility.yul\":6907:6925   */\n      add\n        /* \"#utility.yul\":6899:6925   */\n      swap1\n      pop\n        /* \"#utility.yul\":6935:7027   */\n      tag_502\n        /* \"#utility.yul\":7024:7025   */\n      0x00\n        /* \"#utility.yul\":7013:7022   */\n      dup4\n        /* \"#utility.yul\":7009:7026   */\n      add\n        /* \"#utility.yul\":7000:7006   */\n      dup5\n        /* \"#utility.yul\":6935:7027   */\n      tag_395\n      jump\t// in\n    tag_502:\n        /* \"#utility.yul\":6770:7034   */\n      swap3\n      swap2\n      pop\n      pop\n      jump\t// out\n        /* \"#utility.yul\":7040:7158   */\n    tag_396:\n        /* \"#utility.yul\":7127:7151   */\n      tag_504\n        /* \"#utility.yul\":7145:7150   */\n      dup2\n        /* \"#utility.yul\":7127:7151   */\n      tag_378\n      jump\t// in\n    tag_504:\n        /* \"#utility.yul\":7122:7125   */\n      dup3\n        /* \"#utility.yul\":7115:7152   */\n      mstore\n        /* \"#utility.yul\":7040:7158   */\n      pop\n      pop\n      jump\t// out\n        /* \"#utility.yul\":7164:7386   */\n    tag_96:\n        /* \"#utility.yul\":7257:7261   */\n      0x00\n        /* \"#utility.yul\":7295:7297   */\n      0x20\n        /* \"#utility.yul\":7284:7293   */\n      dup3\n        /* \"#utility.yul\":7280:7298   */\n      add\n        /* \"#utility.yul\":7272:7298   */\n      swap1\n      pop\n        /* \"#utility.yul\":7308:7379   */\n      tag_506\n        /* \"#utility.yul\":7376:7377   */\n      0x00\n        /* \"#utility.yul\":7365:7374   */\n      dup4\n        /* \"#utility.yul\":7361:7378   */\n      add\n        /* \"#utility.yul\":7352:7358   */\n      dup5\n        /* \"#utility.yul\":7308:7379   */\n      tag_396\n      jump\t// in\n    tag_506:\n        /* \"#utility.yul\":7164:7386   */\n      swap3\n      swap2\n      pop\n      pop\n      jump\t// out\n        /* \"#utility.yul\":7392:7866   */\n    tag_127:\n        /* \"#utility.yul\":7460:7466   */\n      0x00\n        /* \"#utility.yul\":7468:7474   */\n      dup1\n        /* \"#utility.yul\":7517:7519   */\n      0x40\n        /* \"#utility.yul\":7505:7514   */\n      dup4\n        /* \"#utility.yul\":7496:7503   */\n      dup6\n        /* \"#utility.yul\":7492:7515   */\n      sub\n        /* \"#utility.yul\":7488:7520   */\n      slt\n        /* \"#utility.yul\":7485:7604   */\n      iszero\n      tag_508\n      jumpi\n        /* \"#utility.yul\":7523:7602   */\n      tag_509\n      tag_375\n      jump\t// in\n    tag_509:\n        /* \"#utility.yul\":7485:7604   */\n    tag_508:\n        /* \"#utility.yul\":7643:7644   */\n      0x00\n        /* \"#utility.yul\":7668:7721   */\n      tag_510\n        /* \"#utility.yul\":7713:7720   */\n      dup6\n        /* \"#utility.yul\":7704:7710   */\n      dup3\n        /* \"#utility.yul\":7693:7702   */\n      dup7\n        /* \"#utility.yul\":7689:7711   */\n      add\n        /* \"#utility.yul\":7668:7721   */\n      tag_380\n      jump\t// in\n    tag_510:\n        /* \"#utility.yul\":7658:7721   */\n      swap3\n      pop\n        /* \"#utility.yul\":7614:7731   */\n      pop\n        /* \"#utility.yul\":7770:7772   */\n      0x20\n        /* \"#utility.yul\":7796:7849   */\n      tag_511\n        /* \"#utility.yul\":7841:7848   */\n      dup6\n        /* \"#utility.yul\":7832:7838   */\n      dup3\n        /* \"#utility.yul\":7821:7830   */\n      dup7\n        /* \"#utility.yul\":7817:7839   */\n      add\n        /* \"#utility.yul\":7796:7849   */\n      tag_380\n      jump\t// in\n    tag_511:\n        /* \"#utility.yul\":7786:7849   */\n      swap2\n      pop\n        /* \"#utility.yul\":7741:7859   */\n      pop\n        /* \"#utility.yul\":7392:7866   */\n      swap3\n      pop\n      swap3\n      swap1\n      pop\n      jump\t// out\n        /* \"#utility.yul\":7872:8052   */\n    tag_397:\n        /* \"#utility.yul\":7920:7997   */\n      0x4e487b7100000000000000000000000000000000000000000000000000000000\n        /* \"#utility.yul\":7917:7918   */\n      0x00\n        /* \"#utility.yul\":7910:7998   */\n      mstore\n        /* \"#utility.yul\":8017:8021   */\n      0x22\n        /* \"#utility.yul\":8014:8015   */\n      0x04\n        /* \"#utility.yul\":8007:8022   */\n      mstore\n        /* \"#utility.yul\":8041:8045   */\n      0x24\n        /* \"#utility.yul\":8038:8039   */\n      0x00\n        /* \"#utility.yul\":8031:8046   */\n      revert\n        /* \"#utility.yul\":8058:8378   */\n    tag_141:\n        /* \"#utility.yul\":8102:8108   */\n      0x00\n        /* \"#utility.yul\":8139:8140   */\n      0x02\n        /* \"#utility.yul\":8133:8137   */\n      dup3\n        /* \"#utility.yul\":8129:8141   */\n      div\n        /* \"#utility.yul\":8119:8141   */\n      swap1\n      pop\n        /* \"#utility.yul\":8186:8187   */\n      0x01\n        /* \"#utility.yul\":8180:8184   */\n      dup3\n        /* \"#utility.yul\":8176:8188   */\n      and\n        /* \"#utility.yul\":8207:8225   */\n      dup1\n        /* \"#utility.yul\":8197:8278   */\n      tag_514\n      jumpi\n        /* \"#utility.yul\":8263:8267   */\n      0x7f\n        /* \"#utility.yul\":8255:8261   */\n      dup3\n        /* \"#utility.yul\":8251:8268   */\n      and\n        /* \"#utility.yul\":8241:8268   */\n      swap2\n      pop\n        /* \"#utility.yul\":8197:8278   */\n    tag_514:\n        /* \"#utility.yul\":8325:8327   */\n      0x20\n        /* \"#utility.yul\":8317:8323   */\n      dup3\n        /* \"#utility.yul\":8314:8328   */\n      lt\n        /* \"#utility.yul\":8294:8312   */\n      dup2\n        /* \"#utility.yul\":8291:8329   */\n      sub\n        /* \"#utility.yul\":8288:8372   */\n      tag_515\n      jumpi\n        /* \"#utility.yul\":8344:8362   */\n      tag_516\n      tag_397\n      jump\t// in\n    tag_516:\n        /* \"#utility.yul\":8288:8372   */\n    tag_515:\n        /* \"#utility.yul\":8109:8378   */\n      pop\n        /* \"#utility.yul\":8058:8378   */\n      swap2\n      swap1\n      pop\n      jump\t// out\n        /* \"#utility.yul\":8384:8549   */\n    tag_398:\n        /* \"#utility.yul\":8524:8541   */\n      0x4e6f7420656e6f75676820635553440000000000000000000000000000000000\n        /* \"#utility.yul\":8520:8521   */\n      0x00\n        /* \"#utility.yul\":8512:8518   */\n      dup3\n        /* \"#utility.yul\":8508:8522   */\n      add\n        /* \"#utility.yul\":8501:8542   */\n      mstore\n        /* \"#utility.yul\":8384:8549   */\n      pop\n      jump\t// out\n        /* \"#utility.yul\":8555:8921   */\n    tag_399:\n        /* \"#utility.yul\":8697:8700   */\n      0x00\n        /* \"#utility.yul\":8718:8785   */\n      tag_519\n        /* \"#utility.yul\":8782:8784   */\n      0x0f\n        /* \"#utility.yul\":8777:8780   */\n      dup4\n        /* \"#utility.yul\":8718:8785   */\n      tag_370\n      jump\t// in\n    tag_519:\n        /* \"#utility.yul\":8711:8785   */\n      swap2\n      pop\n        /* \"#utility.yul\":8794:8887   */\n      tag_520\n        /* \"#utility.yul\":8883:8886   */\n      dup3\n        /* \"#utility.yul\":8794:8887   */\n      tag_398\n      jump\t// in\n    tag_520:\n        /* \"#utility.yul\":8912:8914   */\n      0x20\n        /* \"#utility.yul\":8907:8910   */\n      dup3\n        /* \"#utility.yul\":8903:8915   */\n      add\n        /* \"#utility.yul\":8896:8915   */\n      swap1\n      pop\n        /* \"#utility.yul\":8555:8921   */\n      swap2\n      swap1\n      pop\n      jump\t// out\n        /* \"#utility.yul\":8927:9346   */\n    tag_156:\n        /* \"#utility.yul\":9093:9097   */\n      0x00\n        /* \"#utility.yul\":9131:9133   */\n      0x20\n        /* \"#utility.yul\":9120:9129   */\n      dup3\n        /* \"#utility.yul\":9116:9134   */\n      add\n        /* \"#utility.yul\":9108:9134   */\n      swap1\n      pop\n        /* \"#utility.yul\":9180:9189   */\n      dup2\n        /* \"#utility.yul\":9174:9178   */\n      dup2\n        /* \"#utility.yul\":9170:9190   */\n      sub\n        /* \"#utility.yul\":9166:9167   */\n      0x00\n        /* \"#utility.yul\":9155:9164   */\n      dup4\n        /* \"#utility.yul\":9151:9168   */\n      add\n        /* \"#utility.yul\":9144:9191   */\n      mstore\n        /* \"#utility.yul\":9208:9339   */\n      tag_522\n        /* \"#utility.yul\":9334:9338   */\n      dup2\n        /* \"#utility.yul\":9208:9339   */\n      tag_399\n      jump\t// in\n    tag_522:\n        /* \"#utility.yul\":9200:9339   */\n      swap1\n      pop\n        /* \"#utility.yul\":8927:9346   */\n      swap2\n      swap1\n      pop\n      jump\t// out\n        /* \"#utility.yul\":9352:9523   */\n    tag_400:\n        /* \"#utility.yul\":9492:9515   */\n      0x4e6f7420656e6f75676820636f6c6c61746572616c0000000000000000000000\n        /* \"#utility.yul\":9488:9489   */\n      0x00\n        /* \"#utility.yul\":9480:9486   */\n      dup3\n        /* \"#utility.yul\":9476:9490   */\n      add\n        /* \"#utility.yul\":9469:9516   */\n      mstore\n        /* \"#utility.yul\":9352:9523   */\n      pop\n      jump\t// out\n        /* \"#utility.yul\":9529:9895   */\n    tag_401:\n        /* \"#utility.yul\":9671:9674   */\n      0x00\n        /* \"#utility.yul\":9692:9759   */\n      tag_525\n        /* \"#utility.yul\":9756:9758   */\n      0x15\n        /* \"#utility.yul\":9751:9754   */\n      dup4\n        /* \"#utility.yul\":9692:9759   */\n      tag_370\n      jump\t// in\n    tag_525:\n        /* \"#utility.yul\":9685:9759   */\n      swap2\n      pop\n        /* \"#utility.yul\":9768:9861   */\n      tag_526\n        /* \"#utility.yul\":9857:9860   */\n      dup3\n        /* \"#utility.yul\":9768:9861   */\n      tag_400\n      jump\t// in\n    tag_526:\n        /* \"#utility.yul\":9886:9888   */\n      0x20\n        /* \"#utility.yul\":9881:9884   */\n      dup3\n        /* \"#utility.yul\":9877:9889   */\n      add\n        /* \"#utility.yul\":9870:9889   */\n      swap1\n      pop\n        /* \"#utility.yul\":9529:9895   */\n      swap2\n      swap1\n      pop\n      jump\t// out\n        /* \"#utility.yul\":9901:10320   */\n    tag_172:\n        /* \"#utility.yul\":10067:10071   */\n      0x00\n        /* \"#utility.yul\":10105:10107   */\n      0x20\n        /* \"#utility.yul\":10094:10103   */\n      dup3\n        /* \"#utility.yul\":10090:10108   */\n      add\n        /* \"#utility.yul\":10082:10108   */\n      swap1\n      pop\n        /* \"#utility.yul\":10154:10163   */\n      dup2\n        /* \"#utility.yul\":10148:10152   */\n      dup2\n        /* \"#utility.yul\":10144:10164   */\n      sub\n        /* \"#utility.yul\":10140:10141   */\n      0x00\n        /* \"#utility.yul\":10129:10138   */\n      dup4\n        /* \"#utility.yul\":10125:10142   */\n      add\n        /* \"#utility.yul\":10118:10165   */\n      mstore\n        /* \"#utility.yul\":10182:10313   */\n      tag_528\n        /* \"#utility.yul\":10308:10312   */\n      dup2\n        /* \"#utility.yul\":10182:10313   */\n      tag_401\n      jump\t// in\n    tag_528:\n        /* \"#utility.yul\":10174:10313   */\n      swap1\n      pop\n        /* \"#utility.yul\":9901:10320   */\n      swap2\n      swap1\n      pop\n      jump\t// out\n        /* \"#utility.yul\":10326:10469   */\n    tag_402:\n        /* \"#utility.yul\":10383:10388   */\n      0x00\n        /* \"#utility.yul\":10414:10420   */\n      dup2\n        /* \"#utility.yul\":10408:10421   */\n      mload\n        /* \"#utility.yul\":10399:10421   */\n      swap1\n      pop\n        /* \"#utility.yul\":10430:10463   */\n      tag_530\n        /* \"#utility.yul\":10457:10462   */\n      dup2\n        /* \"#utility.yul\":10430:10463   */\n      tag_382\n      jump\t// in\n    tag_530:\n        /* \"#utility.yul\":10326:10469   */\n      swap3\n      swap2\n      pop\n      pop\n      jump\t// out\n        /* \"#utility.yul\":10475:10826   */\n    tag_178:\n        /* \"#utility.yul\":10545:10551   */\n      0x00\n        /* \"#utility.yul\":10594:10596   */\n      0x20\n        /* \"#utility.yul\":10582:10591   */\n      dup3\n        /* \"#utility.yul\":10573:10580   */\n      dup5\n        /* \"#utility.yul\":10569:10592   */\n      sub\n        /* \"#utility.yul\":10565:10597   */\n      slt\n        /* \"#utility.yul\":10562:10681   */\n      iszero\n      tag_532\n      jumpi\n        /* \"#utility.yul\":10600:10679   */\n      tag_533\n      tag_375\n      jump\t// in\n    tag_533:\n        /* \"#utility.yul\":10562:10681   */\n    tag_532:\n        /* \"#utility.yul\":10720:10721   */\n      0x00\n        /* \"#utility.yul\":10745:10809   */\n      tag_534\n        /* \"#utility.yul\":10801:10808   */\n      dup5\n        /* \"#utility.yul\":10792:10798   */\n      dup3\n        /* \"#utility.yul\":10781:10790   */\n      dup6\n        /* \"#utility.yul\":10777:10799   */\n      add\n        /* \"#utility.yul\":10745:10809   */\n      tag_402\n      jump\t// in\n    tag_534:\n        /* \"#utility.yul\":10735:10809   */\n      swap2\n      pop\n        /* \"#utility.yul\":10691:10819   */\n      pop\n        /* \"#utility.yul\":10475:10826   */\n      swap3\n      swap2\n      pop\n      pop\n      jump\t// out\n        /* \"#utility.yul\":10832:11012   */\n    tag_403:\n        /* \"#utility.yul\":10880:10957   */\n      0x4e487b7100000000000000000000000000000000000000000000000000000000\n        /* \"#utility.yul\":10877:10878   */\n      0x00\n        /* \"#utility.yul\":10870:10958   */\n      mstore\n        /* \"#utility.yul\":10977:10981   */\n      0x11\n        /* \"#utility.yul\":10974:10975   */\n      0x04\n        /* \"#utility.yul\":10967:10982   */\n      mstore\n        /* \"#utility.yul\":11001:11005   */\n      0x24\n        /* \"#utility.yul\":10998:10999   */\n      0x00\n        /* \"#utility.yul\":10991:11006   */\n      revert\n        /* \"#utility.yul\":11018:11428   */\n    tag_180:\n        /* \"#utility.yul\":11058:11065   */\n      0x00\n        /* \"#utility.yul\":11081:11101   */\n      tag_537\n        /* \"#utility.yul\":11099:11100   */\n      dup3\n        /* \"#utility.yul\":11081:11101   */\n      tag_381\n      jump\t// in\n    tag_537:\n        /* \"#utility.yul\":11076:11101   */\n      swap2\n      pop\n        /* \"#utility.yul\":11115:11135   */\n      tag_538\n        /* \"#utility.yul\":11133:11134   */\n      dup4\n        /* \"#utility.yul\":11115:11135   */\n      tag_381\n      jump\t// in\n    tag_538:\n        /* \"#utility.yul\":11110:11135   */\n      swap3\n      pop\n        /* \"#utility.yul\":11170:11171   */\n      dup3\n        /* \"#utility.yul\":11167:11168   */\n      dup3\n        /* \"#utility.yul\":11163:11172   */\n      mul\n        /* \"#utility.yul\":11192:11222   */\n      tag_539\n        /* \"#utility.yul\":11210:11221   */\n      dup2\n        /* \"#utility.yul\":11192:11222   */\n      tag_381\n      jump\t// in\n    tag_539:\n        /* \"#utility.yul\":11181:11222   */\n      swap2\n      pop\n        /* \"#utility.yul\":11371:11372   */\n      dup3\n        /* \"#utility.yul\":11362:11369   */\n      dup3\n        /* \"#utility.yul\":11358:11373   */\n      div\n        /* \"#utility.yul\":11355:11356   */\n      dup5\n        /* \"#utility.yul\":11352:11374   */\n      eq\n        /* \"#utility.yul\":11332:11333   */\n      dup4\n        /* \"#utility.yul\":11325:11334   */\n      iszero\n        /* \"#utility.yul\":11305:11388   */\n      or\n        /* \"#utility.yul\":11282:11421   */\n      tag_540\n      jumpi\n        /* \"#utility.yul\":11401:11419   */\n      tag_541\n      tag_403\n      jump\t// in\n    tag_541:\n        /* \"#utility.yul\":11282:11421   */\n    tag_540:\n        /* \"#utility.yul\":11066:11428   */\n      pop\n        /* \"#utility.yul\":11018:11428   */\n      swap3\n      swap2\n      pop\n      pop\n      jump\t// out\n        /* \"#utility.yul\":11434:11614   */\n    tag_404:\n        /* \"#utility.yul\":11482:11559   */\n      0x4e487b7100000000000000000000000000000000000000000000000000000000\n        /* \"#utility.yul\":11479:11480   */\n      0x00\n        /* \"#utility.yul\":11472:11560   */\n      mstore\n        /* \"#utility.yul\":11579:11583   */\n      0x12\n        /* \"#utility.yul\":11576:11577   */\n      0x04\n        /* \"#utility.yul\":11569:11584   */\n      mstore\n        /* \"#utility.yul\":11603:11607   */\n      0x24\n        /* \"#utility.yul\":11600:11601   */\n      0x00\n        /* \"#utility.yul\":11593:11608   */\n      revert\n        /* \"#utility.yul\":11620:11805   */\n    tag_182:\n        /* \"#utility.yul\":11660:11661   */\n      0x00\n        /* \"#utility.yul\":11677:11697   */\n      tag_544\n        /* \"#utility.yul\":11695:11696   */\n      dup3\n        /* \"#utility.yul\":11677:11697   */\n      tag_381\n      jump\t// in\n    tag_544:\n        /* \"#utility.yul\":11672:11697   */\n      swap2\n      pop\n        /* \"#utility.yul\":11711:11731   */\n      tag_545\n        /* \"#utility.yul\":11729:11730   */\n      dup4\n        /* \"#utility.yul\":11711:11731   */\n      tag_381\n      jump\t// in\n    tag_545:\n        /* \"#utility.yul\":11706:11731   */\n      swap3\n      pop\n        /* \"#utility.yul\":11750:11751   */\n      dup3\n        /* \"#utility.yul\":11740:11775   */\n      tag_546\n      jumpi\n        /* \"#utility.yul\":11755:11773   */\n      tag_547\n      tag_404\n      jump\t// in\n    tag_547:\n        /* \"#utility.yul\":11740:11775   */\n    tag_546:\n        /* \"#utility.yul\":11797:11798   */\n      dup3\n        /* \"#utility.yul\":11794:11795   */\n      dup3\n        /* \"#utility.yul\":11790:11799   */\n      div\n        /* \"#utility.yul\":11785:11799   */\n      swap1\n      pop\n        /* \"#utility.yul\":11620:11805   */\n      swap3\n      swap2\n      pop\n      pop\n      jump\t// out\n        /* \"#utility.yul\":11811:12005   */\n    tag_188:\n        /* \"#utility.yul\":11851:11855   */\n      0x00\n        /* \"#utility.yul\":11871:11891   */\n      tag_549\n        /* \"#utility.yul\":11889:11890   */\n      dup3\n        /* \"#utility.yul\":11871:11891   */\n      tag_381\n      jump\t// in\n    tag_549:\n        /* \"#utility.yul\":11866:11891   */\n      swap2\n      pop\n        /* \"#utility.yul\":11905:11925   */\n      tag_550\n        /* \"#utility.yul\":11923:11924   */\n      dup4\n        /* \"#utility.yul\":11905:11925   */\n      tag_381\n      jump\t// in\n    tag_550:\n        /* \"#utility.yul\":11900:11925   */\n      swap3\n      pop\n        /* \"#utility.yul\":11949:11950   */\n      dup3\n        /* \"#utility.yul\":11946:11947   */\n      dup3\n        /* \"#utility.yul\":11942:11951   */\n      sub\n        /* \"#utility.yul\":11934:11951   */\n      swap1\n      pop\n        /* \"#utility.yul\":11973:11974   */\n      dup2\n        /* \"#utility.yul\":11967:11971   */\n      dup2\n        /* \"#utility.yul\":11964:11975   */\n      gt\n        /* \"#utility.yul\":11961:11998   */\n      iszero\n      tag_551\n      jumpi\n        /* \"#utility.yul\":11978:11996   */\n      tag_552\n      tag_403\n      jump\t// in\n    tag_552:\n        /* \"#utility.yul\":11961:11998   */\n    tag_551:\n        /* \"#utility.yul\":11811:12005   */\n      swap3\n      swap2\n      pop\n      pop\n      jump\t// out\n        /* \"#utility.yul\":12011:12233   */\n    tag_405:\n        /* \"#utility.yul\":12151:12185   */\n      0x5769746864726177616c20776f756c6420756e646572636f6c6c61746572616c\n        /* \"#utility.yul\":12147:12148   */\n      0x00\n        /* \"#utility.yul\":12139:12145   */\n      dup3\n        /* \"#utility.yul\":12135:12149   */\n      add\n        /* \"#utility.yul\":12128:12186   */\n      mstore\n        /* \"#utility.yul\":12220:12225   */\n      0x697a650000000000000000000000000000000000000000000000000000000000\n        /* \"#utility.yul\":12215:12217   */\n      0x20\n        /* \"#utility.yul\":12207:12213   */\n      dup3\n        /* \"#utility.yul\":12203:12218   */\n      add\n        /* \"#utility.yul\":12196:12226   */\n      mstore\n        /* \"#utility.yul\":12011:12233   */\n      pop\n      jump\t// out\n        /* \"#utility.yul\":12239:12605   */\n    tag_406:\n        /* \"#utility.yul\":12381:12384   */\n      0x00\n        /* \"#utility.yul\":12402:12469   */\n      tag_555\n        /* \"#utility.yul\":12466:12468   */\n      0x23\n        /* \"#utility.yul\":12461:12464   */\n      dup4\n        /* \"#utility.yul\":12402:12469   */\n      tag_370\n      jump\t// in\n    tag_555:\n        /* \"#utility.yul\":12395:12469   */\n      swap2\n      pop\n        /* \"#utility.yul\":12478:12571   */\n      tag_556\n        /* \"#utility.yul\":12567:12570   */\n      dup3\n        /* \"#utility.yul\":12478:12571   */\n      tag_405\n      jump\t// in\n    tag_556:\n        /* \"#utility.yul\":12596:12598   */\n      0x40\n        /* \"#utility.yul\":12591:12594   */\n      dup3\n        /* \"#utility.yul\":12587:12599   */\n      add\n        /* \"#utility.yul\":12580:12599   */\n      swap1\n      pop\n        /* \"#utility.yul\":12239:12605   */\n      swap2\n      swap1\n      pop\n      jump\t// out\n        /* \"#utility.yul\":12611:13030   */\n    tag_191:\n        /* \"#utility.yul\":12777:12781   */\n      0x00\n        /* \"#utility.yul\":12815:12817   */\n      0x20\n        /* \"#utility.yul\":12804:12813   */\n      dup3\n        /* \"#utility.yul\":12800:12818   */\n      add\n        /* \"#utility.yul\":12792:12818   */\n      swap1\n      pop\n        /* \"#utility.yul\":12864:12873   */\n      dup2\n        /* \"#utility.yul\":12858:12862   */\n      dup2\n        /* \"#utility.yul\":12854:12874   */\n      sub\n        /* \"#utility.yul\":12850:12851   */\n      0x00\n        /* \"#utility.yul\":12839:12848   */\n      dup4\n        /* \"#utility.yul\":12835:12852   */\n      add\n        /* \"#utility.yul\":12828:12875   */\n      mstore\n        /* \"#utility.yul\":12892:13023   */\n      tag_558\n        /* \"#utility.yul\":13018:13022   */\n      dup2\n        /* \"#utility.yul\":12892:13023   */\n      tag_406\n      jump\t// in\n    tag_558:\n        /* \"#utility.yul\":12884:13023   */\n      swap1\n      pop\n        /* \"#utility.yul\":12611:13030   */\n      swap2\n      swap1\n      pop\n      jump\t// out\n        /* \"#utility.yul\":13036:13368   */\n    tag_194:\n        /* \"#utility.yul\":13157:13161   */\n      0x00\n        /* \"#utility.yul\":13195:13197   */\n      0x40\n        /* \"#utility.yul\":13184:13193   */\n      dup3\n        /* \"#utility.yul\":13180:13198   */\n      add\n        /* \"#utility.yul\":13172:13198   */\n      swap1\n      pop\n        /* \"#utility.yul\":13208:13279   */\n      tag_560\n        /* \"#utility.yul\":13276:13277   */\n      0x00\n        /* \"#utility.yul\":13265:13274   */\n      dup4\n        /* \"#utility.yul\":13261:13278   */\n      add\n        /* \"#utility.yul\":13252:13258   */\n      dup6\n        /* \"#utility.yul\":13208:13279   */\n      tag_396\n      jump\t// in\n    tag_560:\n        /* \"#utility.yul\":13289:13361   */\n      tag_561\n        /* \"#utility.yul\":13357:13359   */\n      0x20\n        /* \"#utility.yul\":13346:13355   */\n      dup4\n        /* \"#utility.yul\":13342:13360   */\n      add\n        /* \"#utility.yul\":13333:13339   */\n      dup5\n        /* \"#utility.yul\":13289:13361   */\n      tag_391\n      jump\t// in\n    tag_561:\n        /* \"#utility.yul\":13036:13368   */\n      swap4\n      swap3\n      pop\n      pop\n      pop\n      jump\t// out\n        /* \"#utility.yul\":13374:13490   */\n    tag_407:\n        /* \"#utility.yul\":13444:13465   */\n      tag_563\n        /* \"#utility.yul\":13459:13464   */\n      dup2\n        /* \"#utility.yul\":13444:13465   */\n      tag_384\n      jump\t// in\n    tag_563:\n        /* \"#utility.yul\":13437:13442   */\n      dup2\n        /* \"#utility.yul\":13434:13466   */\n      eq\n        /* \"#utility.yul\":13424:13484   */\n      tag_564\n      jumpi\n        /* \"#utility.yul\":13480:13481   */\n      0x00\n        /* \"#utility.yul\":13477:13478   */\n      dup1\n        /* \"#utility.yul\":13470:13482   */\n      revert\n        /* \"#utility.yul\":13424:13484   */\n    tag_564:\n        /* \"#utility.yul\":13374:13490   */\n      pop\n      jump\t// out\n        /* \"#utility.yul\":13496:13633   */\n    tag_408:\n        /* \"#utility.yul\":13550:13555   */\n      0x00\n        /* \"#utility.yul\":13581:13587   */\n      dup2\n        /* \"#utility.yul\":13575:13588   */\n      mload\n        /* \"#utility.yul\":13566:13588   */\n      swap1\n      pop\n        /* \"#utility.yul\":13597:13627   */\n      tag_566\n        /* \"#utility.yul\":13621:13626   */\n      dup2\n        /* \"#utility.yul\":13597:13627   */\n      tag_407\n      jump\t// in\n    tag_566:\n        /* \"#utility.yul\":13496:13633   */\n      swap3\n      swap2\n      pop\n      pop\n      jump\t// out\n        /* \"#utility.yul\":13639:13984   */\n    tag_198:\n        /* \"#utility.yul\":13706:13712   */\n      0x00\n        /* \"#utility.yul\":13755:13757   */\n      0x20\n        /* \"#utility.yul\":13743:13752   */\n      dup3\n        /* \"#utility.yul\":13734:13741   */\n      dup5\n        /* \"#utility.yul\":13730:13753   */\n      sub\n        /* \"#utility.yul\":13726:13758   */\n      slt\n        /* \"#utility.yul\":13723:13842   */\n      iszero\n      tag_568\n      jumpi\n        /* \"#utility.yul\":13761:13840   */\n      tag_569\n      tag_375\n      jump\t// in\n    tag_569:\n        /* \"#utility.yul\":13723:13842   */\n    tag_568:\n        /* \"#utility.yul\":13881:13882   */\n      0x00\n        /* \"#utility.yul\":13906:13967   */\n      tag_570\n        /* \"#utility.yul\":13959:13966   */\n      dup5\n        /* \"#utility.yul\":13950:13956   */\n      dup3\n        /* \"#utility.yul\":13939:13948   */\n      dup6\n        /* \"#utility.yul\":13935:13957   */\n      add\n        /* \"#utility.yul\":13906:13967   */\n      tag_408\n      jump\t// in\n    tag_570:\n        /* \"#utility.yul\":13896:13967   */\n      swap2\n      pop\n        /* \"#utility.yul\":13852:13977   */\n      pop\n        /* \"#utility.yul\":13639:13984   */\n      swap3\n      swap2\n      pop\n      pop\n      jump\t// out\n        /* \"#utility.yul\":13990:14160   */\n    tag_409:\n        /* \"#utility.yul\":14130:14152   */\n      0x63425443207472616e73666572206661696c6564000000000000000000000000\n        /* \"#utility.yul\":14126:14127   */\n      0x00\n        /* \"#utility.yul\":14118:14124   */\n      dup3\n        /* \"#utility.yul\":14114:14128   */\n      add\n        /* \"#utility.yul\":14107:14153   */\n      mstore\n        /* \"#utility.yul\":13990:14160   */\n      pop\n      jump\t// out\n        /* \"#utility.yul\":14166:14532   */\n    tag_410:\n        /* \"#utility.yul\":14308:14311   */\n      0x00\n        /* \"#utility.yul\":14329:14396   */\n      tag_573\n        /* \"#utility.yul\":14393:14395   */\n      0x14\n        /* \"#utility.yul\":14388:14391   */\n      dup4\n        /* \"#utility.yul\":14329:14396   */\n      tag_370\n      jump\t// in\n    tag_573:\n        /* \"#utility.yul\":14322:14396   */\n      swap2\n      pop\n        /* \"#utility.yul\":14405:14498   */\n      tag_574\n        /* \"#utility.yul\":14494:14497   */\n      dup3\n        /* \"#utility.yul\":14405:14498   */\n      tag_409\n      jump\t// in\n    tag_574:\n        /* \"#utility.yul\":14523:14525   */\n      0x20\n        /* \"#utility.yul\":14518:14521   */\n      dup3\n        /* \"#utility.yul\":14514:14526   */\n      add\n        /* \"#utility.yul\":14507:14526   */\n      swap1\n      pop\n        /* \"#utility.yul\":14166:14532   */\n      swap2\n      swap1\n      pop\n      jump\t// out\n        /* \"#utility.yul\":14538:14957   */\n    tag_201:\n        /* \"#utility.yul\":14704:14708   */\n      0x00\n        /* \"#utility.yul\":14742:14744   */\n      0x20\n        /* \"#utility.yul\":14731:14740   */\n      dup3\n        /* \"#utility.yul\":14727:14745   */\n      add\n        /* \"#utility.yul\":14719:14745   */\n      swap1\n      pop\n        /* \"#utility.yul\":14791:14800   */\n      dup2\n        /* \"#utility.yul\":14785:14789   */\n      dup2\n        /* \"#utility.yul\":14781:14801   */\n      sub\n        /* \"#utility.yul\":14777:14778   */\n      0x00\n        /* \"#utility.yul\":14766:14775   */\n      dup4\n        /* \"#utility.yul\":14762:14779   */\n      add\n        /* \"#utility.yul\":14755:14802   */\n      mstore\n        /* \"#utility.yul\":14819:14950   */\n      tag_576\n        /* \"#utility.yul\":14945:14949   */\n      dup2\n        /* \"#utility.yul\":14819:14950   */\n      tag_410\n      jump\t// in\n    tag_576:\n        /* \"#utility.yul\":14811:14950   */\n      swap1\n      pop\n        /* \"#utility.yul\":14538:14957   */\n      swap2\n      swap1\n      pop\n      jump\t// out\n        /* \"#utility.yul\":14963:15134   */\n    tag_411:\n        /* \"#utility.yul\":15103:15126   */\n      0x526174696f206d757374206265203e3d20313030250000000000000000000000\n        /* \"#utility.yul\":15099:15100   */\n      0x00\n        /* \"#utility.yul\":15091:15097   */\n      dup3\n        /* \"#utility.yul\":15087:15101   */\n      add\n        /* \"#utility.yul\":15080:15127   */\n      mstore\n        /* \"#utility.yul\":14963:15134   */\n      pop\n      jump\t// out\n        /* \"#utility.yul\":15140:15506   */\n    tag_412:\n        /* \"#utility.yul\":15282:15285   */\n      0x00\n        /* \"#utility.yul\":15303:15370   */\n      tag_579\n        /* \"#utility.yul\":15367:15369   */\n      0x15\n        /* \"#utility.yul\":15362:15365   */\n      dup4\n        /* \"#utility.yul\":15303:15370   */\n      tag_370\n      jump\t// in\n    tag_579:\n        /* \"#utility.yul\":15296:15370   */\n      swap2\n      pop\n        /* \"#utility.yul\":15379:15472   */\n      tag_580\n        /* \"#utility.yul\":15468:15471   */\n      dup3\n        /* \"#utility.yul\":15379:15472   */\n      tag_411\n      jump\t// in\n    tag_580:\n        /* \"#utility.yul\":15497:15499   */\n      0x20\n        /* \"#utility.yul\":15492:15495   */\n      dup3\n        /* \"#utility.yul\":15488:15500   */\n      add\n        /* \"#utility.yul\":15481:15500   */\n      swap1\n      pop\n        /* \"#utility.yul\":15140:15506   */\n      swap2\n      swap1\n      pop\n      jump\t// out\n        /* \"#utility.yul\":15512:15931   */\n    tag_209:\n        /* \"#utility.yul\":15678:15682   */\n      0x00\n        /* \"#utility.yul\":15716:15718   */\n      0x20\n        /* \"#utility.yul\":15705:15714   */\n      dup3\n        /* \"#utility.yul\":15701:15719   */\n      add\n        /* \"#utility.yul\":15693:15719   */\n      swap1\n      pop\n        /* \"#utility.yul\":15765:15774   */\n      dup2\n        /* \"#utility.yul\":15759:15763   */\n      dup2\n        /* \"#utility.yul\":15755:15775   */\n      sub\n        /* \"#utility.yul\":15751:15752   */\n      0x00\n        /* \"#utility.yul\":15740:15749   */\n      dup4\n        /* \"#utility.yul\":15736:15753   */\n      add\n        /* \"#utility.yul\":15729:15776   */\n      mstore\n        /* \"#utility.yul\":15793:15924   */\n      tag_582\n        /* \"#utility.yul\":15919:15923   */\n      dup2\n        /* \"#utility.yul\":15793:15924   */\n      tag_412\n      jump\t// in\n    tag_582:\n        /* \"#utility.yul\":15785:15924   */\n      swap1\n      pop\n        /* \"#utility.yul\":15512:15931   */\n      swap2\n      swap1\n      pop\n      jump\t// out\n        /* \"#utility.yul\":15937:16105   */\n    tag_413:\n        /* \"#utility.yul\":16077:16097   */\n      0x416d6f756e74206d757374206265203e20300000000000000000000000000000\n        /* \"#utility.yul\":16073:16074   */\n      0x00\n        /* \"#utility.yul\":16065:16071   */\n      dup3\n        /* \"#utility.yul\":16061:16075   */\n      add\n        /* \"#utility.yul\":16054:16098   */\n      mstore\n        /* \"#utility.yul\":15937:16105   */\n      pop\n      jump\t// out\n        /* \"#utility.yul\":16111:16477   */\n    tag_414:\n        /* \"#utility.yul\":16253:16256   */\n      0x00\n        /* \"#utility.yul\":16274:16341   */\n      tag_585\n        /* \"#utility.yul\":16338:16340   */\n      0x12\n        /* \"#utility.yul\":16333:16336   */\n      dup4\n        /* \"#utility.yul\":16274:16341   */\n      tag_370\n      jump\t// in\n    tag_585:\n        /* \"#utility.yul\":16267:16341   */\n      swap2\n      pop\n        /* \"#utility.yul\":16350:16443   */\n      tag_586\n        /* \"#utility.yul\":16439:16442   */\n      dup3\n        /* \"#utility.yul\":16350:16443   */\n      tag_413\n      jump\t// in\n    tag_586:\n        /* \"#utility.yul\":16468:16470   */\n      0x20\n        /* \"#utility.yul\":16463:16466   */\n      dup3\n        /* \"#utility.yul\":16459:16471   */\n      add\n        /* \"#utility.yul\":16452:16471   */\n      swap1\n      pop\n        /* \"#utility.yul\":16111:16477   */\n      swap2\n      swap1\n      pop\n      jump\t// out\n        /* \"#utility.yul\":16483:16902   */\n    tag_226:\n        /* \"#utility.yul\":16649:16653   */\n      0x00\n        /* \"#utility.yul\":16687:16689   */\n      0x20\n        /* \"#utility.yul\":16676:16685   */\n      dup3\n        /* \"#utility.yul\":16672:16690   */\n      add\n        /* \"#utility.yul\":16664:16690   */\n      swap1\n      pop\n        /* \"#utility.yul\":16736:16745   */\n      dup2\n        /* \"#utility.yul\":16730:16734   */\n      dup2\n        /* \"#utility.yul\":16726:16746   */\n      sub\n        /* \"#utility.yul\":16722:16723   */\n      0x00\n        /* \"#utility.yul\":16711:16720   */\n      dup4\n        /* \"#utility.yul\":16707:16724   */\n      add\n        /* \"#utility.yul\":16700:16747   */\n      mstore\n        /* \"#utility.yul\":16764:16895   */\n      tag_588\n        /* \"#utility.yul\":16890:16894   */\n      dup2\n        /* \"#utility.yul\":16764:16895   */\n      tag_414\n      jump\t// in\n    tag_588:\n        /* \"#utility.yul\":16756:16895   */\n      swap1\n      pop\n        /* \"#utility.yul\":16483:16902   */\n      swap2\n      swap1\n      pop\n      jump\t// out\n        /* \"#utility.yul\":16908:17350   */\n    tag_228:\n        /* \"#utility.yul\":17057:17061   */\n      0x00\n        /* \"#utility.yul\":17095:17097   */\n      0x60\n        /* \"#utility.yul\":17084:17093   */\n      dup3\n        /* \"#utility.yul\":17080:17098   */\n      add\n        /* \"#utility.yul\":17072:17098   */\n      swap1\n      pop\n        /* \"#utility.yul\":17108:17179   */\n      tag_590\n        /* \"#utility.yul\":17176:17177   */\n      0x00\n        /* \"#utility.yul\":17165:17174   */\n      dup4\n        /* \"#utility.yul\":17161:17178   */\n      add\n        /* \"#utility.yul\":17152:17158   */\n      dup7\n        /* \"#utility.yul\":17108:17179   */\n      tag_396\n      jump\t// in\n    tag_590:\n        /* \"#utility.yul\":17189:17261   */\n      tag_591\n        /* \"#utility.yul\":17257:17259   */\n      0x20\n        /* \"#utility.yul\":17246:17255   */\n      dup4\n        /* \"#utility.yul\":17242:17260   */\n      add\n        /* \"#utility.yul\":17233:17239   */\n      dup6\n        /* \"#utility.yul\":17189:17261   */\n      tag_396\n      jump\t// in\n    tag_591:\n        /* \"#utility.yul\":17271:17343   */\n      tag_592\n        /* \"#utility.yul\":17339:17341   */\n      0x40\n        /* \"#utility.yul\":17328:17337   */\n      dup4\n        /* \"#utility.yul\":17324:17342   */\n      add\n        /* \"#utility.yul\":17315:17321   */\n      dup5\n        /* \"#utility.yul\":17271:17343   */\n      tag_391\n      jump\t// in\n    tag_592:\n        /* \"#utility.yul\":16908:17350   */\n      swap5\n      swap4\n      pop\n      pop\n      pop\n      pop\n      jump\t// out\n        /* \"#utility.yul\":17356:17547   */\n    tag_235:\n        /* \"#utility.yul\":17396:17399   */\n      0x00\n        /* \"#utility.yul\":17415:17435   */\n      tag_594\n        /* \"#utility.yul\":17433:17434   */\n      dup3\n        /* \"#utility.yul\":17415:17435   */\n      tag_381\n      jump\t// in\n    tag_594:\n        /* \"#utility.yul\":17410:17435   */\n      swap2\n      pop\n        /* \"#utility.yul\":17449:17469   */\n      tag_595\n        /* \"#utility.yul\":17467:17468   */\n      dup4\n        /* \"#utility.yul\":17449:17469   */\n      tag_381\n      jump\t// in\n    tag_595:\n        /* \"#utility.yul\":17444:17469   */\n      swap3\n      pop\n        /* \"#utility.yul\":17492:17493   */\n      dup3\n        /* \"#utility.yul\":17489:17490   */\n      dup3\n        /* \"#utility.yul\":17485:17494   */\n      add\n        /* \"#utility.yul\":17478:17494   */\n      swap1\n      pop\n        /* \"#utility.yul\":17513:17516   */\n      dup1\n        /* \"#utility.yul\":17510:17511   */\n      dup3\n        /* \"#utility.yul\":17507:17517   */\n      gt\n        /* \"#utility.yul\":17504:17540   */\n      iszero\n      tag_596\n      jumpi\n        /* \"#utility.yul\":17520:17538   */\n      tag_597\n      tag_403\n      jump\t// in\n    tag_597:\n        /* \"#utility.yul\":17504:17540   */\n    tag_596:\n        /* \"#utility.yul\":17356:17547   */\n      swap3\n      swap2\n      pop\n      pop\n      jump\t// out\n        /* \"#utility.yul\":17553:17729   */\n    tag_415:\n        /* \"#utility.yul\":17693:17721   */\n      0x4c697175696461746f72206e6f7420656e6f7567682063555344000000000000\n        /* \"#utility.yul\":17689:17690   */\n      0x00\n        /* \"#utility.yul\":17681:17687   */\n      dup3\n        /* \"#utility.yul\":17677:17691   */\n      add\n        /* \"#utility.yul\":17670:17722   */\n      mstore\n        /* \"#utility.yul\":17553:17729   */\n      pop\n      jump\t// out\n        /* \"#utility.yul\":17735:18101   */\n    tag_416:\n        /* \"#utility.yul\":17877:17880   */\n      0x00\n        /* \"#utility.yul\":17898:17965   */\n      tag_600\n        /* \"#utility.yul\":17962:17964   */\n      0x1a\n        /* \"#utility.yul\":17957:17960   */\n      dup4\n        /* \"#utility.yul\":17898:17965   */\n      tag_370\n      jump\t// in\n    tag_600:\n        /* \"#utility.yul\":17891:17965   */\n      swap2\n      pop\n        /* \"#utility.yul\":17974:18067   */\n      tag_601\n        /* \"#utility.yul\":18063:18066   */\n      dup3\n        /* \"#utility.yul\":17974:18067   */\n      tag_415\n      jump\t// in\n    tag_601:\n        /* \"#utility.yul\":18092:18094   */\n      0x20\n        /* \"#utility.yul\":18087:18090   */\n      dup3\n        /* \"#utility.yul\":18083:18095   */\n      add\n        /* \"#utility.yul\":18076:18095   */\n      swap1\n      pop\n        /* \"#utility.yul\":17735:18101   */\n      swap2\n      swap1\n      pop\n      jump\t// out\n        /* \"#utility.yul\":18107:18526   */\n    tag_273:\n        /* \"#utility.yul\":18273:18277   */\n      0x00\n        /* \"#utility.yul\":18311:18313   */\n      0x20\n        /* \"#utility.yul\":18300:18309   */\n      dup3\n        /* \"#utility.yul\":18296:18314   */\n      add\n        /* \"#utility.yul\":18288:18314   */\n      swap1\n      pop\n        /* \"#utility.yul\":18360:18369   */\n      dup2\n        /* \"#utility.yul\":18354:18358   */\n      dup2\n        /* \"#utility.yul\":18350:18370   */\n      sub\n        /* \"#utility.yul\":18346:18347   */\n      0x00\n        /* \"#utility.yul\":18335:18344   */\n      dup4\n        /* \"#utility.yul\":18331:18348   */\n      add\n        /* \"#utility.yul\":18324:18371   */\n      mstore\n        /* \"#utility.yul\":18388:18519   */\n      tag_603\n        /* \"#utility.yul\":18514:18518   */\n      dup2\n        /* \"#utility.yul\":18388:18519   */\n      tag_416\n      jump\t// in\n    tag_603:\n        /* \"#utility.yul\":18380:18519   */\n      swap1\n      pop\n        /* \"#utility.yul\":18107:18526   */\n      swap2\n      swap1\n      pop\n      jump\t// out\n        /* \"#utility.yul\":18532:18864   */\n    tag_291:\n        /* \"#utility.yul\":18653:18657   */\n      0x00\n        /* \"#utility.yul\":18691:18693   */\n      0x40\n        /* \"#utility.yul\":18680:18689   */\n      dup3\n        /* \"#utility.yul\":18676:18694   */\n      add\n        /* \"#utility.yul\":18668:18694   */\n      swap1\n      pop\n        /* \"#utility.yul\":18704:18775   */\n      tag_605\n        /* \"#utility.yul\":18772:18773   */\n      0x00\n        /* \"#utility.yul\":18761:18770   */\n      dup4\n        /* \"#utility.yul\":18757:18774   */\n      add\n        /* \"#utility.yul\":18748:18754   */\n      dup6\n        /* \"#utility.yul\":18704:18775   */\n      tag_391\n      jump\t// in\n    tag_605:\n        /* \"#utility.yul\":18785:18857   */\n      tag_606\n        /* \"#utility.yul\":18853:18855   */\n      0x20\n        /* \"#utility.yul\":18842:18851   */\n      dup4\n        /* \"#utility.yul\":18838:18856   */\n      add\n        /* \"#utility.yul\":18829:18835   */\n      dup5\n        /* \"#utility.yul\":18785:18857   */\n      tag_391\n      jump\t// in\n    tag_606:\n        /* \"#utility.yul\":18532:18864   */\n      swap4\n      swap3\n      pop\n      pop\n      pop\n      jump\t// out\n        /* \"#utility.yul\":18870:19032   */\n    tag_417:\n        /* \"#utility.yul\":19010:19024   */\n      0x46656520746f6f20686967680000000000000000000000000000000000000000\n        /* \"#utility.yul\":19006:19007   */\n      0x00\n        /* \"#utility.yul\":18998:19004   */\n      dup3\n        /* \"#utility.yul\":18994:19008   */\n      add\n        /* \"#utility.yul\":18987:19025   */\n      mstore\n        /* \"#utility.yul\":18870:19032   */\n      pop\n      jump\t// out\n        /* \"#utility.yul\":19038:19404   */\n    tag_418:\n        /* \"#utility.yul\":19180:19183   */\n      0x00\n        /* \"#utility.yul\":19201:19268   */\n      tag_609\n        /* \"#utility.yul\":19265:19267   */\n      0x0c\n        /* \"#utility.yul\":19260:19263   */\n      dup4\n        /* \"#utility.yul\":19201:19268   */\n      tag_370\n      jump\t// in\n    tag_609:\n        /* \"#utility.yul\":19194:19268   */\n      swap2\n      pop\n        /* \"#utility.yul\":19277:19370   */\n      tag_610\n        /* \"#utility.yul\":19366:19369   */\n      dup3\n        /* \"#utility.yul\":19277:19370   */\n      tag_417\n      jump\t// in\n    tag_610:\n        /* \"#utility.yul\":19395:19397   */\n      0x20\n        /* \"#utility.yul\":19390:19393   */\n      dup3\n        /* \"#utility.yul\":19386:19398   */\n      add\n        /* \"#utility.yul\":19379:19398   */\n      swap1\n      pop\n        /* \"#utility.yul\":19038:19404   */\n      swap2\n      swap1\n      pop\n      jump\t// out\n        /* \"#utility.yul\":19410:19829   */\n    tag_319:\n        /* \"#utility.yul\":19576:19580   */\n      0x00\n        /* \"#utility.yul\":19614:19616   */\n      0x20\n        /* \"#utility.yul\":19603:19612   */\n      dup3\n        /* \"#utility.yul\":19599:19617   */\n      add\n        /* \"#utility.yul\":19591:19617   */\n      swap1\n      pop\n        /* \"#utility.yul\":19663:19672   */\n      dup2\n        /* \"#utility.yul\":19657:19661   */\n      dup2\n        /* \"#utility.yul\":19653:19673   */\n      sub\n        /* \"#utility.yul\":19649:19650   */\n      0x00\n        /* \"#utility.yul\":19638:19647   */\n      dup4\n        /* \"#utility.yul\":19634:19651   */\n      add\n        /* \"#utility.yul\":19627:19674   */\n      mstore\n        /* \"#utility.yul\":19691:19822   */\n      tag_612\n        /* \"#utility.yul\":19817:19821   */\n      dup2\n        /* \"#utility.yul\":19691:19822   */\n      tag_418\n      jump\t// in\n    tag_612:\n        /* \"#utility.yul\":19683:19822   */\n      swap1\n      pop\n        /* \"#utility.yul\":19410:19829   */\n      swap2\n      swap1\n      pop\n      jump\t// out\n        /* \"#utility.yul\":19835:20277   */\n    tag_334:\n        /* \"#utility.yul\":19984:19988   */\n      0x00\n        /* \"#utility.yul\":20022:20024   */\n      0x60\n        /* \"#utility.yul\":20011:20020   */\n      dup3\n        /* \"#utility.yul\":20007:20025   */\n      add\n        /* \"#utility.yul\":19999:20025   */\n      swap1\n      pop\n        /* \"#utility.yul\":20035:20106   */\n      tag_614\n        /* \"#utility.yul\":20103:20104   */\n      0x00\n        /* \"#utility.yul\":20092:20101   */\n      dup4\n        /* \"#utility.yul\":20088:20105   */\n      add\n        /* \"#utility.yul\":20079:20085   */\n      dup7\n        /* \"#utility.yul\":20035:20106   */\n      tag_396\n      jump\t// in\n    tag_614:\n        /* \"#utility.yul\":20116:20188   */\n      tag_615\n        /* \"#utility.yul\":20184:20186   */\n      0x20\n        /* \"#utility.yul\":20173:20182   */\n      dup4\n        /* \"#utility.yul\":20169:20187   */\n      add\n        /* \"#utility.yul\":20160:20166   */\n      dup6\n        /* \"#utility.yul\":20116:20188   */\n      tag_391\n      jump\t// in\n    tag_615:\n        /* \"#utility.yul\":20198:20270   */\n      tag_616\n        /* \"#utility.yul\":20266:20268   */\n      0x40\n        /* \"#utility.yul\":20255:20264   */\n      dup4\n        /* \"#utility.yul\":20251:20269   */\n      add\n        /* \"#utility.yul\":20242:20248   */\n      dup5\n        /* \"#utility.yul\":20198:20270   */\n      tag_391\n      jump\t// in\n    tag_616:\n        /* \"#utility.yul\":19835:20277   */\n      swap5\n      swap4\n      pop\n      pop\n      pop\n      pop\n      jump\t// out\n\n    auxdata: 0xa2646970667358221220114ab43328aaca5c3f2996a132a5ff5dc3d383dc4267e9a438d4ba8f9239f2c164736f6c634300081a0033\n}\n",
				"bytecode": {
					"linkReferences": {},
					"object": "608060405234801561000f575f80fd5b5060405161325d38038061325d83398181016040528101906100319190610459565b336040518060400160405280600a81526020017f43697472656120555344000000000000000000000000000000000000000000008152506040518060400160405280600481526020017f635553440000000000000000000000000000000000000000000000000000000081525081600390816100ad91906106ee565b5080600490816100bd91906106ee565b5050505f73ffffffffffffffffffffffffffffffffffffffff168173ffffffffffffffffffffffffffffffffffffffff1603610130575f6040517f1e4fbdf700000000000000000000000000000000000000000000000000000000815260040161012791906107cc565b60405180910390fd5b61013f8161030560201b60201c565b505f73ffffffffffffffffffffffffffffffffffffffff168473ffffffffffffffffffffffffffffffffffffffff16036101ae576040517f08c379a00000000000000000000000000000000000000000000000000000000081526004016101a59061083f565b60405180910390fd5b5f73ffffffffffffffffffffffffffffffffffffffff168273ffffffffffffffffffffffffffffffffffffffff160361021c576040517f08c379a0000000000000000000000000000000000000000000000000000000008152600401610213906108a7565b60405180910390fd5b670de0b6b3a7640000831015610267576040517f08c379a000000000000000000000000000000000000000000000000000000000815260040161025e9061090f565b60405180910390fd5b8360065f6101000a81548173ffffffffffffffffffffffffffffffffffffffff021916908373ffffffffffffffffffffffffffffffffffffffff160217905550826008819055508160075f6101000a81548173ffffffffffffffffffffffffffffffffffffffff021916908373ffffffffffffffffffffffffffffffffffffffff1602179055508060098190555042600a819055505050505061092d565b5f60055f9054906101000a900473ffffffffffffffffffffffffffffffffffffffff1690508160055f6101000a81548173ffffffffffffffffffffffffffffffffffffffff021916908373ffffffffffffffffffffffffffffffffffffffff1602179055508173ffffffffffffffffffffffffffffffffffffffff168173ffffffffffffffffffffffffffffffffffffffff167f8be0079c531659141344cd1fd0a4f28419497f9722a3daafe3b4186f6b6457e060405160405180910390a35050565b5f80fd5b5f73ffffffffffffffffffffffffffffffffffffffff82169050919050565b5f6103f5826103cc565b9050919050565b610405816103eb565b811461040f575f80fd5b50565b5f81519050610420816103fc565b92915050565b5f819050919050565b61043881610426565b8114610442575f80fd5b50565b5f815190506104538161042f565b92915050565b5f805f8060808587031215610471576104706103c8565b5b5f61047e87828801610412565b945050602061048f87828801610445565b93505060406104a087828801610412565b92505060606104b187828801610445565b91505092959194509250565b5f81519050919050565b7f4e487b71000000000000000000000000000000000000000000000000000000005f52604160045260245ffd5b7f4e487b71000000000000000000000000000000000000000000000000000000005f52602260045260245ffd5b5f600282049050600182168061053857607f821691505b60208210810361054b5761054a6104f4565b5b50919050565b5f819050815f5260205f209050919050565b5f6020601f8301049050919050565b5f82821b905092915050565b5f600883026105ad7fffffffffffffffffffffffffffffffffffffffffffffffffffffffffffffffff82610572565b6105b78683610572565b95508019841693508086168417925050509392505050565b5f819050919050565b5f6105f26105ed6105e884610426565b6105cf565b610426565b9050919050565b5f819050919050565b61060b836105d8565b61061f610617826105f9565b84845461057e565b825550505050565b5f90565b610633610627565b61063e818484610602565b505050565b5b81811015610661576106565f8261062b565b600181019050610644565b5050565b601f8211156106a65761067781610551565b61068084610563565b8101602085101561068f578190505b6106a361069b85610563565b830182610643565b50505b505050565b5f82821c905092915050565b5f6106c65f19846008026106ab565b1980831691505092915050565b5f6106de83836106b7565b9150826002028217905092915050565b6106f7826104bd565b67ffffffffffffffff8111156107105761070f6104c7565b5b61071a8254610521565b610725828285610665565b5f60209050601f831160018114610756575f8415610744578287015190505b61074e85826106d3565b8655506107b5565b601f19841661076486610551565b5f5b8281101561078b57848901518255600182019150602085019450602081019050610766565b868310156107a857848901516107a4601f8916826106b7565b8355505b6001600288020188555050505b505050505050565b6107c6816103eb565b82525050565b5f6020820190506107df5f8301846107bd565b92915050565b5f82825260208201905092915050565b7f496e76616c6964206342544320616464726573730000000000000000000000005f82015250565b5f6108296014836107e5565b9150610834826107f5565b602082019050919050565b5f6020820190508181035f8301526108568161081d565b9050919050565b7f496e76616c6964206f7261636c650000000000000000000000000000000000005f82015250565b5f610891600e836107e5565b915061089c8261085d565b602082019050919050565b5f6020820190508181035f8301526108be81610885565b9050919050565b7f526174696f206d757374206265203e3d203130302500000000000000000000005f82015250565b5f6108f96015836107e5565b9150610904826108c5565b602082019050919050565b5f6020820190508181035f830152610926816108ed565b9050919050565b6129238061093a5f395ff3fe608060405234801561000f575f80fd5b50600436106101c2575f3560e01c80638da5cb5b116100f7578063bcbaf48711610095578063dd62ed3e1161006f578063dd62ed3e146104d0578063ea629db014610500578063f2fde38b1461051c578063fb4ca35b14610538576101c2565b8063bcbaf48714610478578063cd377c5314610494578063d7e72708146104b2576101c2565b8063a6afed95116100d1578063a6afed95146103f0578063a9059cbb146103fa578063b4eae1cb1461042a578063b6f7132f14610448576101c2565b80638da5cb5b1461039857806395d89b41146103b6578063a5d5db0c146103d4576101c2565b8063350c35e9116101645780636060663e1161013e5780636060663e1461032457806370a0823114610340578063715018a6146103705780637dc0d1d01461037a576101c2565b8063350c35e9146102ba578063361416e1146102d65780634e8d048b146102f4576101c2565b80631455b3ab116101a05780631455b3ab1461023257806318160ddd1461024e57806323b872dd1461026c578063313ce5671461029c576101c2565b806306fdde03146101c6578063095ea7b3146101e45780630ae8c4dc14610214575b5f80fd5b6101ce610554565b6040516101db9190611f76565b60405180910390f35b6101fe60048036038101906101f99190612027565b6105e4565b60405161020b919061207f565b60405180910390f35b61021c610606565b60405161022991906120f3565b60405180910390f35b61024c60048036038101906102479190612027565b61062b565b005b6102566106da565b604051610263919061211b565b60405180910390f35b61028660048036038101906102819190612134565b6106e3565b604051610293919061207f565b60405180910390f35b6102a4610711565b6040516102b1919061219f565b60405180910390f35b6102d460048036038101906102cf9190612027565b610719565b005b6102de610b0d565b6040516102eb919061211b565b60405180910390f35b61030e600480360381019061030991906121b8565b610b13565b60405161031b919061211b565b60405180910390f35b61033e600480360381019061033991906121e3565b610b28565b005b61035a600480360381019061035591906121b8565b610b85565b604051610367919061211b565b60405180910390f35b610378610bca565b005b610382610bdd565b60405161038f919061222e565b60405180910390f35b6103a0610c02565b6040516103ad9190612256565b60405180910390f35b6103be610c2a565b6040516103cb9190611f76565b60405180910390f35b6103ee60048036038101906103e99190612027565b610cba565b005b6103f8610e7e565b005b610414600480360381019061040f9190612027565b610f13565b604051610421919061207f565b60405180910390f35b610432610f35565b60405161043f919061211b565b60405180910390f35b610462600480360381019061045d91906121b8565b610f3b565b60405161046f919061211b565b60405180910390f35b610492600480360381019061048d9190612027565b610f81565b005b61049c6113cd565b6040516104a9919061211b565b60405180910390f35b6104ba6113d6565b6040516104c7919061211b565b60405180910390f35b6104ea60048036038101906104e5919061226f565b6113dc565b6040516104f7919061211b565b60405180910390f35b61051a60048036038101906105159190612027565b61145e565b005b610536600480360381019061053191906121b8565b611646565b005b610552600480360381019061054d91906121e3565b6116ca565b005b606060038054610563906122da565b80601f016020809104026020016040519081016040528092919081815260200182805461058f906122da565b80156105da5780601f106105b1576101008083540402835291602001916105da565b820191905f5260205f20905b8154815290600101906020018083116105bd57829003601f168201915b5050505050905090565b5f806105ee611721565b90506105fb818585611728565b600191505092915050565b60065f9054906101000a900473ffffffffffffffffffffffffffffffffffffffff1681565b610633610e7e565b8061063d83610b85565b101561067e576040517f08c379a000000000000000000000000000000000000000000000000000000000815260040161067590612354565b60405180910390fd5b610688828261173a565b8173ffffffffffffffffffffffffffffffffffffffff167f4896181ff8f4543cc00db9fe9b6fb7e6f032b7eb772c72ab1ec1b4d2e03b9369826040516106ce919061211b565b60405180910390a25050565b5f600254905090565b5f806106ed611721565b90506106fa8582856117b9565b61070585858561184b565b60019150509392505050565b5f6012905090565b610721610e7e565b600b5f8373ffffffffffffffffffffffffffffffffffffffff1673ffffffffffffffffffffffffffffffffffffffff1681526020019081526020015f20548111156107a1576040517f08c379a0000000000000000000000000000000000000000000000000000000008152600401610798906123bc565b60405180910390fd5b5f6107ab83610b85565b90505f60075f9054906101000a900473ffffffffffffffffffffffffffffffffffffffff1673ffffffffffffffffffffffffffffffffffffffff166341976e0960065f9054906101000a900473ffffffffffffffffffffffffffffffffffffffff166040518263ffffffff1660e01b81526004016108299190612256565b602060405180830381865afa158015610844573d5f803e3d5ffd5b505050506040513d601f19601f8201168201806040525081019061086891906123ee565b90505f670de0b6b3a7640000600854846108829190612446565b61088c91906124b4565b905081670de0b6b3a7640000826108a39190612446565b6108ad91906124b4565b90505f81600b5f8873ffffffffffffffffffffffffffffffffffffffff1673ffffffffffffffffffffffffffffffffffffffff1681526020019081526020015f2054116108fa575f610944565b81600b5f8873ffffffffffffffffffffffffffffffffffffffff1673ffffffffffffffffffffffffffffffffffffffff1681526020019081526020015f205461094391906124e4565b5b905080851115610989576040517f08c379a000000000000000000000000000000000000000000000000000000000815260040161098090612587565b60405180910390fd5b84600b5f8873ffffffffffffffffffffffffffffffffffffffff1673ffffffffffffffffffffffffffffffffffffffff1681526020019081526020015f205f8282546109d591906124e4565b9250508190555060065f9054906101000a900473ffffffffffffffffffffffffffffffffffffffff1673ffffffffffffffffffffffffffffffffffffffff1663a9059cbb87876040518363ffffffff1660e01b8152600401610a389291906125a5565b6020604051808303815f875af1158015610a54573d5f803e3d5ffd5b505050506040513d601f19601f82011682018060405250810190610a7891906125f6565b610ab7576040517f08c379a0000000000000000000000000000000000000000000000000000000008152600401610aae9061266b565b60405180910390fd5b8573ffffffffffffffffffffffffffffffffffffffff167fc30fcfbcaac9e0deffa719714eaa82396ff506a0d0d0eebe170830177288715d86604051610afd919061211b565b60405180910390a2505050505050565b60095481565b600b602052805f5260405f205f915090505481565b610b3061193b565b670de0b6b3a7640000811015610b7b576040517f08c379a0000000000000000000000000000000000000000000000000000000008152600401610b72906126d3565b60405180910390fd5b8060088190555050565b5f805f8373ffffffffffffffffffffffffffffffffffffffff1673ffffffffffffffffffffffffffffffffffffffff1681526020019081526020015f20549050919050565b610bd261193b565b610bdb5f6119c2565b565b60075f9054906101000a900473ffffffffffffffffffffffffffffffffffffffff1681565b5f60055f9054906101000a900473ffffffffffffffffffffffffffffffffffffffff16905090565b606060048054610c39906122da565b80601f0160208091040260200160405190810160405280929190818152602001828054610c65906122da565b8015610cb05780601f10610c8757610100808354040283529160200191610cb0565b820191905f5260205f20905b815481529060010190602001808311610c9357829003601f168201915b5050505050905090565b5f8111610cfc576040517f08c379a0000000000000000000000000000000000000000000000000000000008152600401610cf39061273b565b60405180910390fd5b60065f9054906101000a900473ffffffffffffffffffffffffffffffffffffffff1673ffffffffffffffffffffffffffffffffffffffff166323b872dd8330846040518463ffffffff1660e01b8152600401610d5a93929190612759565b6020604051808303815f875af1158015610d76573d5f803e3d5ffd5b505050506040513d601f19601f82011682018060405250810190610d9a91906125f6565b610dd9576040517f08c379a0000000000000000000000000000000000000000000000000000000008152600401610dd09061266b565b60405180910390fd5b80600b5f8473ffffffffffffffffffffffffffffffffffffffff1673ffffffffffffffffffffffffffffffffffffffff1681526020019081526020015f205f828254610e25919061278e565b925050819055508173ffffffffffffffffffffffffffffffffffffffff167fd7243f6f8212d5188fd054141cf6ea89cfc0d91facb8c3afe2f88a135848014282604051610e72919061211b565b60405180910390a25050565b5f600a5442610e8d91906124e4565b90505f81118015610ea457505f610ea26106da565b115b15610f10575f6301e1338082600954610ebd9190612446565b610ec791906124b4565b90505f61271082610ed66106da565b610ee09190612446565b610eea91906124b4565b90505f811115610f0657610f05610eff610c02565b82611a85565b5b42600a8190555050505b50565b5f80610f1d611721565b9050610f2a81858561184b565b600191505092915050565b60085481565b5f600b5f8373ffffffffffffffffffffffffffffffffffffffff1673ffffffffffffffffffffffffffffffffffffffff1681526020019081526020015f20549050919050565b610f89610e7e565b5f60075f9054906101000a900473ffffffffffffffffffffffffffffffffffffffff1673ffffffffffffffffffffffffffffffffffffffff166341976e0960065f9054906101000a900473ffffffffffffffffffffffffffffffffffffffff166040518263ffffffff1660e01b81526004016110059190612256565b602060405180830381865afa158015611020573d5f803e3d5ffd5b505050506040513d601f19601f8201168201806040525081019061104491906123ee565b90505f61105084610b85565b90505f81036110605750506113c9565b5f670de0b6b3a7640000600854836110789190612446565b61108291906124b4565b90505f670de0b6b3a764000084600b5f8973ffffffffffffffffffffffffffffffffffffffff1673ffffffffffffffffffffffffffffffffffffffff1681526020019081526020015f20546110d79190612446565b6110e191906124b4565b9050818110156113c4575f8386116110f957856110fb565b835b90508061110733610b85565b1015611148576040517f08c379a000000000000000000000000000000000000000000000000000000000815260040161113f9061280b565b60405180910390fd5b61115333308361184b565b61115d308261173a565b5f670de0b6b3a7640000600854836111759190612446565b61117f91906124b4565b905085670de0b6b3a7640000826111969190612446565b6111a091906124b4565b90506064606e826111b19190612446565b6111bb91906124b4565b9050600b5f8973ffffffffffffffffffffffffffffffffffffffff1673ffffffffffffffffffffffffffffffffffffffff1681526020019081526020015f205481111561124357600b5f8973ffffffffffffffffffffffffffffffffffffffff1673ffffffffffffffffffffffffffffffffffffffff1681526020019081526020015f205490505b80600b5f8a73ffffffffffffffffffffffffffffffffffffffff1673ffffffffffffffffffffffffffffffffffffffff1681526020019081526020015f205f82825461128f91906124e4565b9250508190555060065f9054906101000a900473ffffffffffffffffffffffffffffffffffffffff1673ffffffffffffffffffffffffffffffffffffffff1663a9059cbb33836040518363ffffffff1660e01b81526004016112f29291906125a5565b6020604051808303815f875af115801561130e573d5f803e3d5ffd5b505050506040513d601f19601f8201168201806040525081019061133291906125f6565b611371576040517f08c379a00000000000000000000000000000000000000000000000000000000081526004016113689061266b565b60405180910390fd5b8773ffffffffffffffffffffffffffffffffffffffff167f09c223cfcd8c93e245f558f5f8de755fc0930fd9bc257441155ef5d54a170e0f83836040516113b9929190612829565b60405180910390a250505b505050505b5050565b5f600854905090565b600a5481565b5f60015f8473ffffffffffffffffffffffffffffffffffffffff1673ffffffffffffffffffffffffffffffffffffffff1681526020019081526020015f205f8373ffffffffffffffffffffffffffffffffffffffff1673ffffffffffffffffffffffffffffffffffffffff1681526020019081526020015f2054905092915050565b611466610e7e565b5f60075f9054906101000a900473ffffffffffffffffffffffffffffffffffffffff1673ffffffffffffffffffffffffffffffffffffffff166341976e0960065f9054906101000a900473ffffffffffffffffffffffffffffffffffffffff166040518263ffffffff1660e01b81526004016114e29190612256565b602060405180830381865afa1580156114fd573d5f803e3d5ffd5b505050506040513d601f19601f8201168201806040525081019061152191906123ee565b90505f670de0b6b3a76400006008548461153b9190612446565b61154591906124b4565b905081670de0b6b3a76400008261155c9190612446565b61156691906124b4565b905080600b5f3373ffffffffffffffffffffffffffffffffffffffff1673ffffffffffffffffffffffffffffffffffffffff1681526020019081526020015f205410156115e8576040517f08c379a00000000000000000000000000000000000000000000000000000000081526004016115df906123bc565b60405180910390fd5b6115f28484611a85565b3373ffffffffffffffffffffffffffffffffffffffff167f30385c845b448a36257a6a1716e6ad2e1bc2cbe333cde1e69fe849ad6511adfe84604051611638919061211b565b60405180910390a250505050565b61164e61193b565b5f73ffffffffffffffffffffffffffffffffffffffff168173ffffffffffffffffffffffffffffffffffffffff16036116be575f6040517f1e4fbdf70000000000000000000000000000000000000000000000000000000081526004016116b59190612256565b60405180910390fd5b6116c7816119c2565b50565b6116d261193b565b6107d0811115611717576040517f08c379a000000000000000000000000000000000000000000000000000000000815260040161170e9061289a565b60405180910390fd5b8060098190555050565b5f33905090565b6117358383836001611b04565b505050565b5f73ffffffffffffffffffffffffffffffffffffffff168273ffffffffffffffffffffffffffffffffffffffff16036117aa575f6040517f96c6fd1e0000000000000000000000000000000000000000000000000000000081526004016117a19190612256565b60405180910390fd5b6117b5825f83611cd3565b5050565b5f6117c484846113dc565b90507fffffffffffffffffffffffffffffffffffffffffffffffffffffffffffffffff81146118455781811015611836578281836040517ffb8f41b200000000000000000000000000000000000000000000000000000000815260040161182d939291906128b8565b60405180910390fd5b61184484848484035f611b04565b5b50505050565b5f73ffffffffffffffffffffffffffffffffffffffff168373ffffffffffffffffffffffffffffffffffffffff16036118bb575f6040517f96c6fd1e0000000000000000000000000000000000000000000000000000000081526004016118b29190612256565b60405180910390fd5b5f73ffffffffffffffffffffffffffffffffffffffff168273ffffffffffffffffffffffffffffffffffffffff160361192b575f6040517fec442f050000000000000000000000000000000000000000000000000000000081526004016119229190612256565b60405180910390fd5b611936838383611cd3565b505050565b611943611721565b73ffffffffffffffffffffffffffffffffffffffff16611961610c02565b73ffffffffffffffffffffffffffffffffffffffff16146119c057611984611721565b6040517f118cdaa70000000000000000000000000000000000000000000000000000000081526004016119b79190612256565b60405180910390fd5b565b5f60055f9054906101000a900473ffffffffffffffffffffffffffffffffffffffff1690508160055f6101000a81548173ffffffffffffffffffffffffffffffffffffffff021916908373ffffffffffffffffffffffffffffffffffffffff1602179055508173ffffffffffffffffffffffffffffffffffffffff168173ffffffffffffffffffffffffffffffffffffffff167f8be0079c531659141344cd1fd0a4f28419497f9722a3daafe3b4186f6b6457e060405160405180910390a35050565b5f73ffffffffffffffffffffffffffffffffffffffff168273ffffffffffffffffffffffffffffffffffffffff1603611af5575f6040517fec442f05000000000000000000000000000000000000000000000000000000008152600401611aec9190612256565b60405180910390fd5b611b005f8383611cd3565b5050565b5f73ffffffffffffffffffffffffffffffffffffffff168473ffffffffffffffffffffffffffffffffffffffff1603611b74575f6040517fe602df05000000000000000000000000000000000000000000000000000000008152600401611b6b9190612256565b60405180910390fd5b5f73ffffffffffffffffffffffffffffffffffffffff168373ffffffffffffffffffffffffffffffffffffffff1603611be4575f6040517f94280d62000000000000000000000000000000000000000000000000000000008152600401611bdb9190612256565b60405180910390fd5b8160015f8673ffffffffffffffffffffffffffffffffffffffff1673ffffffffffffffffffffffffffffffffffffffff1681526020019081526020015f205f8573ffffffffffffffffffffffffffffffffffffffff1673ffffffffffffffffffffffffffffffffffffffff1681526020019081526020015f20819055508015611ccd578273ffffffffffffffffffffffffffffffffffffffff168473ffffffffffffffffffffffffffffffffffffffff167f8c5be1e5ebec7d5bd14f71427d1e84f3dd0314c0f7b2291e5b200ac8c7c3b92584604051611cc4919061211b565b60405180910390a35b50505050565b5f73ffffffffffffffffffffffffffffffffffffffff168373ffffffffffffffffffffffffffffffffffffffff1603611d23578060025f828254611d17919061278e565b92505081905550611df1565b5f805f8573ffffffffffffffffffffffffffffffffffffffff1673ffffffffffffffffffffffffffffffffffffffff1681526020019081526020015f2054905081811015611dac578381836040517fe450d38c000000000000000000000000000000000000000000000000000000008152600401611da3939291906128b8565b60405180910390fd5b8181035f808673ffffffffffffffffffffffffffffffffffffffff1673ffffffffffffffffffffffffffffffffffffffff1681526020019081526020015f2081905550505b5f73ffffffffffffffffffffffffffffffffffffffff168273ffffffffffffffffffffffffffffffffffffffff1603611e38578060025f8282540392505081905550611e82565b805f808473ffffffffffffffffffffffffffffffffffffffff1673ffffffffffffffffffffffffffffffffffffffff1681526020019081526020015f205f82825401925050819055505b8173ffffffffffffffffffffffffffffffffffffffff168373ffffffffffffffffffffffffffffffffffffffff167fddf252ad1be2c89b69c2b068fc378daa952ba7f163c4a11628f55a4df523b3ef83604051611edf919061211b565b60405180910390a3505050565b5f81519050919050565b5f82825260208201905092915050565b5f5b83811015611f23578082015181840152602081019050611f08565b5f8484015250505050565b5f601f19601f8301169050919050565b5f611f4882611eec565b611f528185611ef6565b9350611f62818560208601611f06565b611f6b81611f2e565b840191505092915050565b5f6020820190508181035f830152611f8e8184611f3e565b905092915050565b5f80fd5b5f73ffffffffffffffffffffffffffffffffffffffff82169050919050565b5f611fc382611f9a565b9050919050565b611fd381611fb9565b8114611fdd575f80fd5b50565b5f81359050611fee81611fca565b92915050565b5f819050919050565b61200681611ff4565b8114612010575f80fd5b50565b5f8135905061202181611ffd565b92915050565b5f806040838503121561203d5761203c611f96565b5b5f61204a85828601611fe0565b925050602061205b85828601612013565b9150509250929050565b5f8115159050919050565b61207981612065565b82525050565b5f6020820190506120925f830184612070565b92915050565b5f819050919050565b5f6120bb6120b66120b184611f9a565b612098565b611f9a565b9050919050565b5f6120cc826120a1565b9050919050565b5f6120dd826120c2565b9050919050565b6120ed816120d3565b82525050565b5f6020820190506121065f8301846120e4565b92915050565b61211581611ff4565b82525050565b5f60208201905061212e5f83018461210c565b92915050565b5f805f6060848603121561214b5761214a611f96565b5b5f61215886828701611fe0565b935050602061216986828701611fe0565b925050604061217a86828701612013565b9150509250925092565b5f60ff82169050919050565b61219981612184565b82525050565b5f6020820190506121b25f830184612190565b92915050565b5f602082840312156121cd576121cc611f96565b5b5f6121da84828501611fe0565b91505092915050565b5f602082840312156121f8576121f7611f96565b5b5f61220584828501612013565b91505092915050565b5f612218826120c2565b9050919050565b6122288161220e565b82525050565b5f6020820190506122415f83018461221f565b92915050565b61225081611fb9565b82525050565b5f6020820190506122695f830184612247565b92915050565b5f806040838503121561228557612284611f96565b5b5f61229285828601611fe0565b92505060206122a385828601611fe0565b9150509250929050565b7f4e487b71000000000000000000000000000000000000000000000000000000005f52602260045260245ffd5b5f60028204905060018216806122f157607f821691505b602082108103612304576123036122ad565b5b50919050565b7f4e6f7420656e6f756768206355534400000000000000000000000000000000005f82015250565b5f61233e600f83611ef6565b91506123498261230a565b602082019050919050565b5f6020820190508181035f83015261236b81612332565b9050919050565b7f4e6f7420656e6f75676820636f6c6c61746572616c00000000000000000000005f82015250565b5f6123a6601583611ef6565b91506123b182612372565b602082019050919050565b5f6020820190508181035f8301526123d38161239a565b9050919050565b5f815190506123e881611ffd565b92915050565b5f6020828403121561240357612402611f96565b5b5f612410848285016123da565b91505092915050565b7f4e487b71000000000000000000000000000000000000000000000000000000005f52601160045260245ffd5b5f61245082611ff4565b915061245b83611ff4565b925082820261246981611ff4565b915082820484148315176124805761247f612419565b5b5092915050565b7f4e487b71000000000000000000000000000000000000000000000000000000005f52601260045260245ffd5b5f6124be82611ff4565b91506124c983611ff4565b9250826124d9576124d8612487565b5b828204905092915050565b5f6124ee82611ff4565b91506124f983611ff4565b925082820390508181111561251157612510612419565b5b92915050565b7f5769746864726177616c20776f756c6420756e646572636f6c6c61746572616c5f8201527f697a650000000000000000000000000000000000000000000000000000000000602082015250565b5f612571602383611ef6565b915061257c82612517565b604082019050919050565b5f6020820190508181035f83015261259e81612565565b9050919050565b5f6040820190506125b85f830185612247565b6125c5602083018461210c565b9392505050565b6125d581612065565b81146125df575f80fd5b50565b5f815190506125f0816125cc565b92915050565b5f6020828403121561260b5761260a611f96565b5b5f612618848285016125e2565b91505092915050565b7f63425443207472616e73666572206661696c65640000000000000000000000005f82015250565b5f612655601483611ef6565b915061266082612621565b602082019050919050565b5f6020820190508181035f83015261268281612649565b9050919050565b7f526174696f206d757374206265203e3d203130302500000000000000000000005f82015250565b5f6126bd601583611ef6565b91506126c882612689565b602082019050919050565b5f6020820190508181035f8301526126ea816126b1565b9050919050565b7f416d6f756e74206d757374206265203e203000000000000000000000000000005f82015250565b5f612725601283611ef6565b9150612730826126f1565b602082019050919050565b5f6020820190508181035f83015261275281612719565b9050919050565b5f60608201905061276c5f830186612247565b6127796020830185612247565b612786604083018461210c565b949350505050565b5f61279882611ff4565b91506127a383611ff4565b92508282019050808211156127bb576127ba612419565b5b92915050565b7f4c697175696461746f72206e6f7420656e6f75676820635553440000000000005f82015250565b5f6127f5601a83611ef6565b9150612800826127c1565b602082019050919050565b5f6020820190508181035f830152612822816127e9565b9050919050565b5f60408201905061283c5f83018561210c565b612849602083018461210c565b9392505050565b7f46656520746f6f206869676800000000000000000000000000000000000000005f82015250565b5f612884600c83611ef6565b915061288f82612850565b602082019050919050565b5f6020820190508181035f8301526128b181612878565b9050919050565b5f6060820190506128cb5f830186612247565b6128d8602083018561210c565b6128e5604083018461210c565b94935050505056fea2646970667358221220114ab43328aaca5c3f2996a132a5ff5dc3d383dc4267e9a438d4ba8f9239f2c164736f6c634300081a0033",
					"opcodes": "PUSH1 0x80 PUSH1 0x40 MSTORE CALLVALUE DUP1 ISZERO PUSH2 0xF JUMPI PUSH0 DUP1 REVERT JUMPDEST POP PUSH1 0x40 MLOAD PUSH2 0x325D CODESIZE SUB DUP1 PUSH2 0x325D DUP4 CODECOPY DUP2 DUP2 ADD PUSH1 0x40 MSTORE DUP2 ADD SWAP1 PUSH2 0x31 SWAP2 SWAP1 PUSH2 0x459 JUMP JUMPDEST CALLER PUSH1 0x40 MLOAD DUP1 PUSH1 0x40 ADD PUSH1 0x40 MSTORE DUP1 PUSH1 0xA DUP2 MSTORE PUSH1 0x20 ADD PUSH32 0x4369747265612055534400000000000000000000000000000000000000000000 DUP2 MSTORE POP PUSH1 0x40 MLOAD DUP1 PUSH1 0x40 ADD PUSH1 0x40 MSTORE DUP1 PUSH1 0x4 DUP2 MSTORE PUSH1 0x20 ADD PUSH32 0x6355534400000000000000000000000000000000000000000000000000000000 DUP2 MSTORE POP DUP2 PUSH1 0x3 SWAP1 DUP2 PUSH2 0xAD SWAP2 SWAP1 PUSH2 0x6EE JUMP JUMPDEST POP DUP1 PUSH1 0x4 SWAP1 DUP2 PUSH2 0xBD SWAP2 SWAP1 PUSH2 0x6EE JUMP JUMPDEST POP POP POP PUSH0 PUSH20 0xFFFFFFFFFFFFFFFFFFFFFFFFFFFFFFFFFFFFFFFF AND DUP2 PUSH20 0xFFFFFFFFFFFFFFFFFFFFFFFFFFFFFFFFFFFFFFFF AND SUB PUSH2 0x130 JUMPI PUSH0 PUSH1 0x40 MLOAD PUSH32 0x1E4FBDF700000000000000000000000000000000000000000000000000000000 DUP2 MSTORE PUSH1 0x4 ADD PUSH2 0x127 SWAP2 SWAP1 PUSH2 0x7CC JUMP JUMPDEST PUSH1 0x40 MLOAD DUP1 SWAP2 SUB SWAP1 REVERT JUMPDEST PUSH2 0x13F DUP2 PUSH2 0x305 PUSH1 0x20 SHL PUSH1 0x20 SHR JUMP JUMPDEST POP PUSH0 PUSH20 0xFFFFFFFFFFFFFFFFFFFFFFFFFFFFFFFFFFFFFFFF AND DUP5 PUSH20 0xFFFFFFFFFFFFFFFFFFFFFFFFFFFFFFFFFFFFFFFF AND SUB PUSH2 0x1AE JUMPI PUSH1 0x40 MLOAD PUSH32 0x8C379A000000000000000000000000000000000000000000000000000000000 DUP2 MSTORE PUSH1 0x4 ADD PUSH2 0x1A5 SWAP1 PUSH2 0x83F JUMP JUMPDEST PUSH1 0x40 MLOAD DUP1 SWAP2 SUB SWAP1 REVERT JUMPDEST PUSH0 PUSH20 0xFFFFFFFFFFFFFFFFFFFFFFFFFFFFFFFFFFFFFFFF AND DUP3 PUSH20 0xFFFFFFFFFFFFFFFFFFFFFFFFFFFFFFFFFFFFFFFF AND SUB PUSH2 0x21C JUMPI PUSH1 0x40 MLOAD PUSH32 0x8C379A000000000000000000000000000000000000000000000000000000000 DUP2 MSTORE PUSH1 0x4 ADD PUSH2 0x213 SWAP1 PUSH2 0x8A7 JUMP JUMPDEST PUSH1 0x40 MLOAD DUP1 SWAP2 SUB SWAP1 REVERT JUMPDEST PUSH8 0xDE0B6B3A7640000 DUP4 LT ISZERO PUSH2 0x267 JUMPI PUSH1 0x40 MLOAD PUSH32 0x8C379A000000000000000000000000000000000000000000000000000000000 DUP2 MSTORE PUSH1 0x4 ADD PUSH2 0x25E SWAP1 PUSH2 0x90F JUMP JUMPDEST PUSH1 0x40 MLOAD DUP1 SWAP2 SUB SWAP1 REVERT JUMPDEST DUP4 PUSH1 0x6 PUSH0 PUSH2 0x100 EXP DUP2 SLOAD DUP2 PUSH20 0xFFFFFFFFFFFFFFFFFFFFFFFFFFFFFFFFFFFFFFFF MUL NOT AND SWAP1 DUP4 PUSH20 0xFFFFFFFFFFFFFFFFFFFFFFFFFFFFFFFFFFFFFFFF AND MUL OR SWAP1 SSTORE POP DUP3 PUSH1 0x8 DUP2 SWAP1 SSTORE POP DUP2 PUSH1 0x7 PUSH0 PUSH2 0x100 EXP DUP2 SLOAD DUP2 PUSH20 0xFFFFFFFFFFFFFFFFFFFFFFFFFFFFFFFFFFFFFFFF MUL NOT AND SWAP1 DUP4 PUSH20 0xFFFFFFFFFFFFFFFFFFFFFFFFFFFFFFFFFFFFFFFF AND MUL OR SWAP1 SSTORE POP DUP1 PUSH1 0x9 DUP2 SWAP1 SSTORE POP TIMESTAMP PUSH1 0xA DUP2 SWAP1 SSTORE POP POP POP POP POP PUSH2 0x92D JUMP JUMPDEST PUSH0 PUSH1 0x5 PUSH0 SWAP1 SLOAD SWAP1 PUSH2 0x100 EXP SWAP1 DIV PUSH20 0xFFFFFFFFFFFFFFFFFFFFFFFFFFFFFFFFFFFFFFFF AND SWAP1 POP DUP2 PUSH1 0x5 PUSH0 PUSH2 0x100 EXP DUP2 SLOAD DUP2 PUSH20 0xFFFFFFFFFFFFFFFFFFFFFFFFFFFFFFFFFFFFFFFF MUL NOT AND SWAP1 DUP4 PUSH20 0xFFFFFFFFFFFFFFFFFFFFFFFFFFFFFFFFFFFFFFFF AND MUL OR SWAP1 SSTORE POP DUP2 PUSH20 0xFFFFFFFFFFFFFFFFFFFFFFFFFFFFFFFFFFFFFFFF AND DUP2 PUSH20 0xFFFFFFFFFFFFFFFFFFFFFFFFFFFFFFFFFFFFFFFF AND PUSH32 0x8BE0079C531659141344CD1FD0A4F28419497F9722A3DAAFE3B4186F6B6457E0 PUSH1 0x40 MLOAD PUSH1 0x40 MLOAD DUP1 SWAP2 SUB SWAP1 LOG3 POP POP JUMP JUMPDEST PUSH0 DUP1 REVERT JUMPDEST PUSH0 PUSH20 0xFFFFFFFFFFFFFFFFFFFFFFFFFFFFFFFFFFFFFFFF DUP3 AND SWAP1 POP SWAP2 SWAP1 POP JUMP JUMPDEST PUSH0 PUSH2 0x3F5 DUP3 PUSH2 0x3CC JUMP JUMPDEST SWAP1 POP SWAP2 SWAP1 POP JUMP JUMPDEST PUSH2 0x405 DUP2 PUSH2 0x3EB JUMP JUMPDEST DUP2 EQ PUSH2 0x40F JUMPI PUSH0 DUP1 REVERT JUMPDEST POP JUMP JUMPDEST PUSH0 DUP2 MLOAD SWAP1 POP PUSH2 0x420 DUP2 PUSH2 0x3FC JUMP JUMPDEST SWAP3 SWAP2 POP POP JUMP JUMPDEST PUSH0 DUP2 SWAP1 POP SWAP2 SWAP1 POP JUMP JUMPDEST PUSH2 0x438 DUP2 PUSH2 0x426 JUMP JUMPDEST DUP2 EQ PUSH2 0x442 JUMPI PUSH0 DUP1 REVERT JUMPDEST POP JUMP JUMPDEST PUSH0 DUP2 MLOAD SWAP1 POP PUSH2 0x453 DUP2 PUSH2 0x42F JUMP JUMPDEST SWAP3 SWAP2 POP POP JUMP JUMPDEST PUSH0 DUP1 PUSH0 DUP1 PUSH1 0x80 DUP6 DUP8 SUB SLT ISZERO PUSH2 0x471 JUMPI PUSH2 0x470 PUSH2 0x3C8 JUMP JUMPDEST JUMPDEST PUSH0 PUSH2 0x47E DUP8 DUP3 DUP9 ADD PUSH2 0x412 JUMP JUMPDEST SWAP5 POP POP PUSH1 0x20 PUSH2 0x48F DUP8 DUP3 DUP9 ADD PUSH2 0x445 JUMP JUMPDEST SWAP4 POP POP PUSH1 0x40 PUSH2 0x4A0 DUP8 DUP3 DUP9 ADD PUSH2 0x412 JUMP JUMPDEST SWAP3 POP POP PUSH1 0x60 PUSH2 0x4B1 DUP8 DUP3 DUP9 ADD PUSH2 0x445 JUMP JUMPDEST SWAP2 POP POP SWAP3 SWAP6 SWAP2 SWAP5 POP SWAP3 POP JUMP JUMPDEST PUSH0 DUP2 MLOAD SWAP1 POP SWAP2 SWAP1 POP JUMP JUMPDEST PUSH32 0x4E487B7100000000000000000000000000000000000000000000000000000000 PUSH0 MSTORE PUSH1 0x41 PUSH1 0x4 MSTORE PUSH1 0x24 PUSH0 REVERT JUMPDEST PUSH32 0x4E487B7100000000000000000000000000000000000000000000000000000000 PUSH0 MSTORE PUSH1 0x22 PUSH1 0x4 MSTORE PUSH1 0x24 PUSH0 REVERT JUMPDEST PUSH0 PUSH1 0x2 DUP3 DIV SWAP1 POP PUSH1 0x1 DUP3 AND DUP1 PUSH2 0x538 JUMPI PUSH1 0x7F DUP3 AND SWAP2 POP JUMPDEST PUSH1 0x20 DUP3 LT DUP2 SUB PUSH2 0x54B JUMPI PUSH2 0x54A PUSH2 0x4F4 JUMP JUMPDEST JUMPDEST POP SWAP2 SWAP1 POP JUMP JUMPDEST PUSH0 DUP2 SWAP1 POP DUP2 PUSH0 MSTORE PUSH1 0x20 PUSH0 KECCAK256 SWAP1 POP SWAP2 SWAP1 POP JUMP JUMPDEST PUSH0 PUSH1 0x20 PUSH1 0x1F DUP4 ADD DIV SWAP1 POP SWAP2 SWAP1 POP JUMP JUMPDEST PUSH0 DUP3 DUP3 SHL SWAP1 POP SWAP3 SWAP2 POP POP JUMP JUMPDEST PUSH0 PUSH1 0x8 DUP4 MUL PUSH2 0x5AD PUSH32 0xFFFFFFFFFFFFFFFFFFFFFFFFFFFFFFFFFFFFFFFFFFFFFFFFFFFFFFFFFFFFFFFF DUP3 PUSH2 0x572 JUMP JUMPDEST PUSH2 0x5B7 DUP7 DUP4 PUSH2 0x572 JUMP JUMPDEST SWAP6 POP DUP1 NOT DUP5 AND SWAP4 POP DUP1 DUP7 AND DUP5 OR SWAP3 POP POP POP SWAP4 SWAP3 POP POP POP JUMP JUMPDEST PUSH0 DUP2 SWAP1 POP SWAP2 SWAP1 POP JUMP JUMPDEST PUSH0 PUSH2 0x5F2 PUSH2 0x5ED PUSH2 0x5E8 DUP5 PUSH2 0x426 JUMP JUMPDEST PUSH2 0x5CF JUMP JUMPDEST PUSH2 0x426 JUMP JUMPDEST SWAP1 POP SWAP2 SWAP1 POP JUMP JUMPDEST PUSH0 DUP2 SWAP1 POP SWAP2 SWAP1 POP JUMP JUMPDEST PUSH2 0x60B DUP4 PUSH2 0x5D8 JUMP JUMPDEST PUSH2 0x61F PUSH2 0x617 DUP3 PUSH2 0x5F9 JUMP JUMPDEST DUP5 DUP5 SLOAD PUSH2 0x57E JUMP JUMPDEST DUP3 SSTORE POP POP POP POP JUMP JUMPDEST PUSH0 SWAP1 JUMP JUMPDEST PUSH2 0x633 PUSH2 0x627 JUMP JUMPDEST PUSH2 0x63E DUP2 DUP5 DUP5 PUSH2 0x602 JUMP JUMPDEST POP POP POP JUMP JUMPDEST JUMPDEST DUP2 DUP2 LT ISZERO PUSH2 0x661 JUMPI PUSH2 0x656 PUSH0 DUP3 PUSH2 0x62B JUMP JUMPDEST PUSH1 0x1 DUP2 ADD SWAP1 POP PUSH2 0x644 JUMP JUMPDEST POP POP JUMP JUMPDEST PUSH1 0x1F DUP3 GT ISZERO PUSH2 0x6A6 JUMPI PUSH2 0x677 DUP2 PUSH2 0x551 JUMP JUMPDEST PUSH2 0x680 DUP5 PUSH2 0x563 JUMP JUMPDEST DUP2 ADD PUSH1 0x20 DUP6 LT ISZERO PUSH2 0x68F JUMPI DUP2 SWAP1 POP JUMPDEST PUSH2 0x6A3 PUSH2 0x69B DUP6 PUSH2 0x563 JUMP JUMPDEST DUP4 ADD DUP3 PUSH2 0x643 JUMP JUMPDEST POP POP JUMPDEST POP POP POP JUMP JUMPDEST PUSH0 DUP3 DUP3 SHR SWAP1 POP SWAP3 SWAP2 POP POP JUMP JUMPDEST PUSH0 PUSH2 0x6C6 PUSH0 NOT DUP5 PUSH1 0x8 MUL PUSH2 0x6AB JUMP JUMPDEST NOT DUP1 DUP4 AND SWAP2 POP POP SWAP3 SWAP2 POP POP JUMP JUMPDEST PUSH0 PUSH2 0x6DE DUP4 DUP4 PUSH2 0x6B7 JUMP JUMPDEST SWAP2 POP DUP3 PUSH1 0x2 MUL DUP3 OR SWAP1 POP SWAP3 SWAP2 POP POP JUMP JUMPDEST PUSH2 0x6F7 DUP3 PUSH2 0x4BD JUMP JUMPDEST PUSH8 0xFFFFFFFFFFFFFFFF DUP2 GT ISZERO PUSH2 0x710 JUMPI PUSH2 0x70F PUSH2 0x4C7 JUMP JUMPDEST JUMPDEST PUSH2 0x71A DUP3 SLOAD PUSH2 0x521 JUMP JUMPDEST PUSH2 0x725 DUP3 DUP3 DUP6 PUSH2 0x665 JUMP JUMPDEST PUSH0 PUSH1 0x20 SWAP1 POP PUSH1 0x1F DUP4 GT PUSH1 0x1 DUP2 EQ PUSH2 0x756 JUMPI PUSH0 DUP5 ISZERO PUSH2 0x744 JUMPI DUP3 DUP8 ADD MLOAD SWAP1 POP JUMPDEST PUSH2 0x74E DUP6 DUP3 PUSH2 0x6D3 JUMP JUMPDEST DUP7 SSTORE POP PUSH2 0x7B5 JUMP JUMPDEST PUSH1 0x1F NOT DUP5 AND PUSH2 0x764 DUP7 PUSH2 0x551 JUMP JUMPDEST PUSH0 JUMPDEST DUP3 DUP2 LT ISZERO PUSH2 0x78B JUMPI DUP5 DUP10 ADD MLOAD DUP3 SSTORE PUSH1 0x1 DUP3 ADD SWAP2 POP PUSH1 0x20 DUP6 ADD SWAP5 POP PUSH1 0x20 DUP2 ADD SWAP1 POP PUSH2 0x766 JUMP JUMPDEST DUP7 DUP4 LT ISZERO PUSH2 0x7A8 JUMPI DUP5 DUP10 ADD MLOAD PUSH2 0x7A4 PUSH1 0x1F DUP10 AND DUP3 PUSH2 0x6B7 JUMP JUMPDEST DUP4 SSTORE POP JUMPDEST PUSH1 0x1 PUSH1 0x2 DUP9 MUL ADD DUP9 SSTORE POP POP POP JUMPDEST POP POP POP POP POP POP JUMP JUMPDEST PUSH2 0x7C6 DUP2 PUSH2 0x3EB JUMP JUMPDEST DUP3 MSTORE POP POP JUMP JUMPDEST PUSH0 PUSH1 0x20 DUP3 ADD SWAP1 POP PUSH2 0x7DF PUSH0 DUP4 ADD DUP5 PUSH2 0x7BD JUMP JUMPDEST SWAP3 SWAP2 POP POP JUMP JUMPDEST PUSH0 DUP3 DUP3 MSTORE PUSH1 0x20 DUP3 ADD SWAP1 POP SWAP3 SWAP2 POP POP JUMP JUMPDEST PUSH32 0x496E76616C696420634254432061646472657373000000000000000000000000 PUSH0 DUP3 ADD MSTORE POP JUMP JUMPDEST PUSH0 PUSH2 0x829 PUSH1 0x14 DUP4 PUSH2 0x7E5 JUMP JUMPDEST SWAP2 POP PUSH2 0x834 DUP3 PUSH2 0x7F5 JUMP JUMPDEST PUSH1 0x20 DUP3 ADD SWAP1 POP SWAP2 SWAP1 POP JUMP JUMPDEST PUSH0 PUSH1 0x20 DUP3 ADD SWAP1 POP DUP2 DUP2 SUB PUSH0 DUP4 ADD MSTORE PUSH2 0x856 DUP2 PUSH2 0x81D JUMP JUMPDEST SWAP1 POP SWAP2 SWAP1 POP JUMP JUMPDEST PUSH32 0x496E76616C6964206F7261636C65000000000000000000000000000000000000 PUSH0 DUP3 ADD MSTORE POP JUMP JUMPDEST PUSH0 PUSH2 0x891 PUSH1 0xE DUP4 PUSH2 0x7E5 JUMP JUMPDEST SWAP2 POP PUSH2 0x89C DUP3 PUSH2 0x85D JUMP JUMPDEST PUSH1 0x20 DUP3 ADD SWAP1 POP SWAP2 SWAP1 POP JUMP JUMPDEST PUSH0 PUSH1 0x20 DUP3 ADD SWAP1 POP DUP2 DUP2 SUB PUSH0 DUP4 ADD MSTORE PUSH2 0x8BE DUP2 PUSH2 0x885 JUMP JUMPDEST SWAP1 POP SWAP2 SWAP1 POP JUMP JUMPDEST PUSH32 0x526174696F206D757374206265203E3D20313030250000000000000000000000 PUSH0 DUP3 ADD MSTORE POP JUMP JUMPDEST PUSH0 PUSH2 0x8F9 PUSH1 0x15 DUP4 PUSH2 0x7E5 JUMP JUMPDEST SWAP2 POP PUSH2 0x904 DUP3 PUSH2 0x8C5 JUMP JUMPDEST PUSH1 0x20 DUP3 ADD SWAP1 POP SWAP2 SWAP1 POP JUMP JUMPDEST PUSH0 PUSH1 0x20 DUP3 ADD SWAP1 POP DUP2 DUP2 SUB PUSH0 DUP4 ADD MSTORE PUSH2 0x926 DUP2 PUSH2 0x8ED JUMP JUMPDEST SWAP1 POP SWAP2 SWAP1 POP JUMP JUMPDEST PUSH2 0x2923 DUP1 PUSH2 0x93A PUSH0 CODECOPY PUSH0 RETURN INVALID PUSH1 0x80 PUSH1 0x40 MSTORE CALLVALUE DUP1 ISZERO PUSH2 0xF JUMPI PUSH0 DUP1 REVERT JUMPDEST POP PUSH1 0x4 CALLDATASIZE LT PUSH2 0x1C2 JUMPI PUSH0 CALLDATALOAD PUSH1 0xE0 SHR DUP1 PUSH4 0x8DA5CB5B GT PUSH2 0xF7 JUMPI DUP1 PUSH4 0xBCBAF487 GT PUSH2 0x95 JUMPI DUP1 PUSH4 0xDD62ED3E GT PUSH2 0x6F JUMPI DUP1 PUSH4 0xDD62ED3E EQ PUSH2 0x4D0 JUMPI DUP1 PUSH4 0xEA629DB0 EQ PUSH2 0x500 JUMPI DUP1 PUSH4 0xF2FDE38B EQ PUSH2 0x51C JUMPI DUP1 PUSH4 0xFB4CA35B EQ PUSH2 0x538 JUMPI PUSH2 0x1C2 JUMP JUMPDEST DUP1 PUSH4 0xBCBAF487 EQ PUSH2 0x478 JUMPI DUP1 PUSH4 0xCD377C53 EQ PUSH2 0x494 JUMPI DUP1 PUSH4 0xD7E72708 EQ PUSH2 0x4B2 JUMPI PUSH2 0x1C2 JUMP JUMPDEST DUP1 PUSH4 0xA6AFED95 GT PUSH2 0xD1 JUMPI DUP1 PUSH4 0xA6AFED95 EQ PUSH2 0x3F0 JUMPI DUP1 PUSH4 0xA9059CBB EQ PUSH2 0x3FA JUMPI DUP1 PUSH4 0xB4EAE1CB EQ PUSH2 0x42A JUMPI DUP1 PUSH4 0xB6F7132F EQ PUSH2 0x448 JUMPI PUSH2 0x1C2 JUMP JUMPDEST DUP1 PUSH4 0x8DA5CB5B EQ PUSH2 0x398 JUMPI DUP1 PUSH4 0x95D89B41 EQ PUSH2 0x3B6 JUMPI DUP1 PUSH4 0xA5D5DB0C EQ PUSH2 0x3D4 JUMPI PUSH2 0x1C2 JUMP JUMPDEST DUP1 PUSH4 0x350C35E9 GT PUSH2 0x164 JUMPI DUP1 PUSH4 0x6060663E GT PUSH2 0x13E JUMPI DUP1 PUSH4 0x6060663E EQ PUSH2 0x324 JUMPI DUP1 PUSH4 0x70A08231 EQ PUSH2 0x340 JUMPI DUP1 PUSH4 0x715018A6 EQ PUSH2 0x370 JUMPI DUP1 PUSH4 0x7DC0D1D0 EQ PUSH2 0x37A JUMPI PUSH2 0x1C2 JUMP JUMPDEST DUP1 PUSH4 0x350C35E9 EQ PUSH2 0x2BA JUMPI DUP1 PUSH4 0x361416E1 EQ PUSH2 0x2D6 JUMPI DUP1 PUSH4 0x4E8D048B EQ PUSH2 0x2F4 JUMPI PUSH2 0x1C2 JUMP JUMPDEST DUP1 PUSH4 0x1455B3AB GT PUSH2 0x1A0 JUMPI DUP1 PUSH4 0x1455B3AB EQ PUSH2 0x232 JUMPI DUP1 PUSH4 0x18160DDD EQ PUSH2 0x24E JUMPI DUP1 PUSH4 0x23B872DD EQ PUSH2 0x26C JUMPI DUP1 PUSH4 0x313CE567 EQ PUSH2 0x29C JUMPI PUSH2 0x1C2 JUMP JUMPDEST DUP1 PUSH4 0x6FDDE03 EQ PUSH2 0x1C6 JUMPI DUP1 PUSH4 0x95EA7B3 EQ PUSH2 0x1E4 JUMPI DUP1 PUSH4 0xAE8C4DC EQ PUSH2 0x214 JUMPI JUMPDEST PUSH0 DUP1 REVERT JUMPDEST PUSH2 0x1CE PUSH2 0x554 JUMP JUMPDEST PUSH1 0x40 MLOAD PUSH2 0x1DB SWAP2 SWAP1 PUSH2 0x1F76 JUMP JUMPDEST PUSH1 0x40 MLOAD DUP1 SWAP2 SUB SWAP1 RETURN JUMPDEST PUSH2 0x1FE PUSH1 0x4 DUP1 CALLDATASIZE SUB DUP2 ADD SWAP1 PUSH2 0x1F9 SWAP2 SWAP1 PUSH2 0x2027 JUMP JUMPDEST PUSH2 0x5E4 JUMP JUMPDEST PUSH1 0x40 MLOAD PUSH2 0x20B SWAP2 SWAP1 PUSH2 0x207F JUMP JUMPDEST PUSH1 0x40 MLOAD DUP1 SWAP2 SUB SWAP1 RETURN JUMPDEST PUSH2 0x21C PUSH2 0x606 JUMP JUMPDEST PUSH1 0x40 MLOAD PUSH2 0x229 SWAP2 SWAP1 PUSH2 0x20F3 JUMP JUMPDEST PUSH1 0x40 MLOAD DUP1 SWAP2 SUB SWAP1 RETURN JUMPDEST PUSH2 0x24C PUSH1 0x4 DUP1 CALLDATASIZE SUB DUP2 ADD SWAP1 PUSH2 0x247 SWAP2 SWAP1 PUSH2 0x2027 JUMP JUMPDEST PUSH2 0x62B JUMP JUMPDEST STOP JUMPDEST PUSH2 0x256 PUSH2 0x6DA JUMP JUMPDEST PUSH1 0x40 MLOAD PUSH2 0x263 SWAP2 SWAP1 PUSH2 0x211B JUMP JUMPDEST PUSH1 0x40 MLOAD DUP1 SWAP2 SUB SWAP1 RETURN JUMPDEST PUSH2 0x286 PUSH1 0x4 DUP1 CALLDATASIZE SUB DUP2 ADD SWAP1 PUSH2 0x281 SWAP2 SWAP1 PUSH2 0x2134 JUMP JUMPDEST PUSH2 0x6E3 JUMP JUMPDEST PUSH1 0x40 MLOAD PUSH2 0x293 SWAP2 SWAP1 PUSH2 0x207F JUMP JUMPDEST PUSH1 0x40 MLOAD DUP1 SWAP2 SUB SWAP1 RETURN JUMPDEST PUSH2 0x2A4 PUSH2 0x711 JUMP JUMPDEST PUSH1 0x40 MLOAD PUSH2 0x2B1 SWAP2 SWAP1 PUSH2 0x219F JUMP JUMPDEST PUSH1 0x40 MLOAD DUP1 SWAP2 SUB SWAP1 RETURN JUMPDEST PUSH2 0x2D4 PUSH1 0x4 DUP1 CALLDATASIZE SUB DUP2 ADD SWAP1 PUSH2 0x2CF SWAP2 SWAP1 PUSH2 0x2027 JUMP JUMPDEST PUSH2 0x719 JUMP JUMPDEST STOP JUMPDEST PUSH2 0x2DE PUSH2 0xB0D JUMP JUMPDEST PUSH1 0x40 MLOAD PUSH2 0x2EB SWAP2 SWAP1 PUSH2 0x211B JUMP JUMPDEST PUSH1 0x40 MLOAD DUP1 SWAP2 SUB SWAP1 RETURN JUMPDEST PUSH2 0x30E PUSH1 0x4 DUP1 CALLDATASIZE SUB DUP2 ADD SWAP1 PUSH2 0x309 SWAP2 SWAP1 PUSH2 0x21B8 JUMP JUMPDEST PUSH2 0xB13 JUMP JUMPDEST PUSH1 0x40 MLOAD PUSH2 0x31B SWAP2 SWAP1 PUSH2 0x211B JUMP JUMPDEST PUSH1 0x40 MLOAD DUP1 SWAP2 SUB SWAP1 RETURN JUMPDEST PUSH2 0x33E PUSH1 0x4 DUP1 CALLDATASIZE SUB DUP2 ADD SWAP1 PUSH2 0x339 SWAP2 SWAP1 PUSH2 0x21E3 JUMP JUMPDEST PUSH2 0xB28 JUMP JUMPDEST STOP JUMPDEST PUSH2 0x35A PUSH1 0x4 DUP1 CALLDATASIZE SUB DUP2 ADD SWAP1 PUSH2 0x355 SWAP2 SWAP1 PUSH2 0x21B8 JUMP JUMPDEST PUSH2 0xB85 JUMP JUMPDEST PUSH1 0x40 MLOAD PUSH2 0x367 SWAP2 SWAP1 PUSH2 0x211B JUMP JUMPDEST PUSH1 0x40 MLOAD DUP1 SWAP2 SUB SWAP1 RETURN JUMPDEST PUSH2 0x378 PUSH2 0xBCA JUMP JUMPDEST STOP JUMPDEST PUSH2 0x382 PUSH2 0xBDD JUMP JUMPDEST PUSH1 0x40 MLOAD PUSH2 0x38F SWAP2 SWAP1 PUSH2 0x222E JUMP JUMPDEST PUSH1 0x40 MLOAD DUP1 SWAP2 SUB SWAP1 RETURN JUMPDEST PUSH2 0x3A0 PUSH2 0xC02 JUMP JUMPDEST PUSH1 0x40 MLOAD PUSH2 0x3AD SWAP2 SWAP1 PUSH2 0x2256 JUMP JUMPDEST PUSH1 0x40 MLOAD DUP1 SWAP2 SUB SWAP1 RETURN JUMPDEST PUSH2 0x3BE PUSH2 0xC2A JUMP JUMPDEST PUSH1 0x40 MLOAD PUSH2 0x3CB SWAP2 SWAP1 PUSH2 0x1F76 JUMP JUMPDEST PUSH1 0x40 MLOAD DUP1 SWAP2 SUB SWAP1 RETURN JUMPDEST PUSH2 0x3EE PUSH1 0x4 DUP1 CALLDATASIZE SUB DUP2 ADD SWAP1 PUSH2 0x3E9 SWAP2 SWAP1 PUSH2 0x2027 JUMP JUMPDEST PUSH2 0xCBA JUMP JUMPDEST STOP JUMPDEST PUSH2 0x3F8 PUSH2 0xE7E JUMP JUMPDEST STOP JUMPDEST PUSH2 0x414 PUSH1 0x4 DUP1 CALLDATASIZE SUB DUP2 ADD SWAP1 PUSH2 0x40F SWAP2 SWAP1 PUSH2 0x2027 JUMP JUMPDEST PUSH2 0xF13 JUMP JUMPDEST PUSH1 0x40 MLOAD PUSH2 0x421 SWAP2 SWAP1 PUSH2 0x207F JUMP JUMPDEST PUSH1 0x40 MLOAD DUP1 SWAP2 SUB SWAP1 RETURN JUMPDEST PUSH2 0x432 PUSH2 0xF35 JUMP JUMPDEST PUSH1 0x40 MLOAD PUSH2 0x43F SWAP2 SWAP1 PUSH2 0x211B JUMP JUMPDEST PUSH1 0x40 MLOAD DUP1 SWAP2 SUB SWAP1 RETURN JUMPDEST PUSH2 0x462 PUSH1 0x4 DUP1 CALLDATASIZE SUB DUP2 ADD SWAP1 PUSH2 0x45D SWAP2 SWAP1 PUSH2 0x21B8 JUMP JUMPDEST PUSH2 0xF3B JUMP JUMPDEST PUSH1 0x40 MLOAD PUSH2 0x46F SWAP2 SWAP1 PUSH2 0x211B JUMP JUMPDEST PUSH1 0x40 MLOAD DUP1 SWAP2 SUB SWAP1 RETURN JUMPDEST PUSH2 0x492 PUSH1 0x4 DUP1 CALLDATASIZE SUB DUP2 ADD SWAP1 PUSH2 0x48D SWAP2 SWAP1 PUSH2 0x2027 JUMP JUMPDEST PUSH2 0xF81 JUMP JUMPDEST STOP JUMPDEST PUSH2 0x49C PUSH2 0x13CD JUMP JUMPDEST PUSH1 0x40 MLOAD PUSH2 0x4A9 SWAP2 SWAP1 PUSH2 0x211B JUMP JUMPDEST PUSH1 0x40 MLOAD DUP1 SWAP2 SUB SWAP1 RETURN JUMPDEST PUSH2 0x4BA PUSH2 0x13D6 JUMP JUMPDEST PUSH1 0x40 MLOAD PUSH2 0x4C7 SWAP2 SWAP1 PUSH2 0x211B JUMP JUMPDEST PUSH1 0x40 MLOAD DUP1 SWAP2 SUB SWAP1 RETURN JUMPDEST PUSH2 0x4EA PUSH1 0x4 DUP1 CALLDATASIZE SUB DUP2 ADD SWAP1 PUSH2 0x4E5 SWAP2 SWAP1 PUSH2 0x226F JUMP JUMPDEST PUSH2 0x13DC JUMP JUMPDEST PUSH1 0x40 MLOAD PUSH2 0x4F7 SWAP2 SWAP1 PUSH2 0x211B JUMP JUMPDEST PUSH1 0x40 MLOAD DUP1 SWAP2 SUB SWAP1 RETURN JUMPDEST PUSH2 0x51A PUSH1 0x4 DUP1 CALLDATASIZE SUB DUP2 ADD SWAP1 PUSH2 0x515 SWAP2 SWAP1 PUSH2 0x2027 JUMP JUMPDEST PUSH2 0x145E JUMP JUMPDEST STOP JUMPDEST PUSH2 0x536 PUSH1 0x4 DUP1 CALLDATASIZE SUB DUP2 ADD SWAP1 PUSH2 0x531 SWAP2 SWAP1 PUSH2 0x21B8 JUMP JUMPDEST PUSH2 0x1646 JUMP JUMPDEST STOP JUMPDEST PUSH2 0x552 PUSH1 0x4 DUP1 CALLDATASIZE SUB DUP2 ADD SWAP1 PUSH2 0x54D SWAP2 SWAP1 PUSH2 0x21E3 JUMP JUMPDEST PUSH2 0x16CA JUMP JUMPDEST STOP JUMPDEST PUSH1 0x60 PUSH1 0x3 DUP1 SLOAD PUSH2 0x563 SWAP1 PUSH2 0x22DA JUMP JUMPDEST DUP1 PUSH1 0x1F ADD PUSH1 0x20 DUP1 SWAP2 DIV MUL PUSH1 0x20 ADD PUSH1 0x40 MLOAD SWAP1 DUP2 ADD PUSH1 0x40 MSTORE DUP1 SWAP3 SWAP2 SWAP1 DUP2 DUP2 MSTORE PUSH1 0x20 ADD DUP3 DUP1 SLOAD PUSH2 0x58F SWAP1 PUSH2 0x22DA JUMP JUMPDEST DUP1 ISZERO PUSH2 0x5DA JUMPI DUP1 PUSH1 0x1F LT PUSH2 0x5B1 JUMPI PUSH2 0x100 DUP1 DUP4 SLOAD DIV MUL DUP4 MSTORE SWAP2 PUSH1 0x20 ADD SWAP2 PUSH2 0x5DA JUMP JUMPDEST DUP3 ADD SWAP2 SWAP1 PUSH0 MSTORE PUSH1 0x20 PUSH0 KECCAK256 SWAP1 JUMPDEST DUP2 SLOAD DUP2 MSTORE SWAP1 PUSH1 0x1 ADD SWAP1 PUSH1 0x20 ADD DUP1 DUP4 GT PUSH2 0x5BD JUMPI DUP3 SWAP1 SUB PUSH1 0x1F AND DUP3 ADD SWAP2 JUMPDEST POP POP POP POP POP SWAP1 POP SWAP1 JUMP JUMPDEST PUSH0 DUP1 PUSH2 0x5EE PUSH2 0x1721 JUMP JUMPDEST SWAP1 POP PUSH2 0x5FB DUP2 DUP6 DUP6 PUSH2 0x1728 JUMP JUMPDEST PUSH1 0x1 SWAP2 POP POP SWAP3 SWAP2 POP POP JUMP JUMPDEST PUSH1 0x6 PUSH0 SWAP1 SLOAD SWAP1 PUSH2 0x100 EXP SWAP1 DIV PUSH20 0xFFFFFFFFFFFFFFFFFFFFFFFFFFFFFFFFFFFFFFFF AND DUP2 JUMP JUMPDEST PUSH2 0x633 PUSH2 0xE7E JUMP JUMPDEST DUP1 PUSH2 0x63D DUP4 PUSH2 0xB85 JUMP JUMPDEST LT ISZERO PUSH2 0x67E JUMPI PUSH1 0x40 MLOAD PUSH32 0x8C379A000000000000000000000000000000000000000000000000000000000 DUP2 MSTORE PUSH1 0x4 ADD PUSH2 0x675 SWAP1 PUSH2 0x2354 JUMP JUMPDEST PUSH1 0x40 MLOAD DUP1 SWAP2 SUB SWAP1 REVERT JUMPDEST PUSH2 0x688 DUP3 DUP3 PUSH2 0x173A JUMP JUMPDEST DUP2 PUSH20 0xFFFFFFFFFFFFFFFFFFFFFFFFFFFFFFFFFFFFFFFF AND PUSH32 0x4896181FF8F4543CC00DB9FE9B6FB7E6F032B7EB772C72AB1EC1B4D2E03B9369 DUP3 PUSH1 0x40 MLOAD PUSH2 0x6CE SWAP2 SWAP1 PUSH2 0x211B JUMP JUMPDEST PUSH1 0x40 MLOAD DUP1 SWAP2 SUB SWAP1 LOG2 POP POP JUMP JUMPDEST PUSH0 PUSH1 0x2 SLOAD SWAP1 POP SWAP1 JUMP JUMPDEST PUSH0 DUP1 PUSH2 0x6ED PUSH2 0x1721 JUMP JUMPDEST SWAP1 POP PUSH2 0x6FA DUP6 DUP3 DUP6 PUSH2 0x17B9 JUMP JUMPDEST PUSH2 0x705 DUP6 DUP6 DUP6 PUSH2 0x184B JUMP JUMPDEST PUSH1 0x1 SWAP2 POP POP SWAP4 SWAP3 POP POP POP JUMP JUMPDEST PUSH0 PUSH1 0x12 SWAP1 POP SWAP1 JUMP JUMPDEST PUSH2 0x721 PUSH2 0xE7E JUMP JUMPDEST PUSH1 0xB PUSH0 DUP4 PUSH20 0xFFFFFFFFFFFFFFFFFFFFFFFFFFFFFFFFFFFFFFFF AND PUSH20 0xFFFFFFFFFFFFFFFFFFFFFFFFFFFFFFFFFFFFFFFF AND DUP2 MSTORE PUSH1 0x20 ADD SWAP1 DUP2 MSTORE PUSH1 0x20 ADD PUSH0 KECCAK256 SLOAD DUP2 GT ISZERO PUSH2 0x7A1 JUMPI PUSH1 0x40 MLOAD PUSH32 0x8C379A000000000000000000000000000000000000000000000000000000000 DUP2 MSTORE PUSH1 0x4 ADD PUSH2 0x798 SWAP1 PUSH2 0x23BC JUMP JUMPDEST PUSH1 0x40 MLOAD DUP1 SWAP2 SUB SWAP1 REVERT JUMPDEST PUSH0 PUSH2 0x7AB DUP4 PUSH2 0xB85 JUMP JUMPDEST SWAP1 POP PUSH0 PUSH1 0x7 PUSH0 SWAP1 SLOAD SWAP1 PUSH2 0x100 EXP SWAP1 DIV PUSH20 0xFFFFFFFFFFFFFFFFFFFFFFFFFFFFFFFFFFFFFFFF AND PUSH20 0xFFFFFFFFFFFFFFFFFFFFFFFFFFFFFFFFFFFFFFFF AND PUSH4 0x41976E09 PUSH1 0x6 PUSH0 SWAP1 SLOAD SWAP1 PUSH2 0x100 EXP SWAP1 DIV PUSH20 0xFFFFFFFFFFFFFFFFFFFFFFFFFFFFFFFFFFFFFFFF AND PUSH1 0x40 MLOAD DUP3 PUSH4 0xFFFFFFFF AND PUSH1 0xE0 SHL DUP2 MSTORE PUSH1 0x4 ADD PUSH2 0x829 SWAP2 SWAP1 PUSH2 0x2256 JUMP JUMPDEST PUSH1 0x20 PUSH1 0x40 MLOAD DUP1 DUP4 SUB DUP2 DUP7 GAS STATICCALL ISZERO DUP1 ISZERO PUSH2 0x844 JUMPI RETURNDATASIZE PUSH0 DUP1 RETURNDATACOPY RETURNDATASIZE PUSH0 REVERT JUMPDEST POP POP POP POP PUSH1 0x40 MLOAD RETURNDATASIZE PUSH1 0x1F NOT PUSH1 0x1F DUP3 ADD AND DUP3 ADD DUP1 PUSH1 0x40 MSTORE POP DUP2 ADD SWAP1 PUSH2 0x868 SWAP2 SWAP1 PUSH2 0x23EE JUMP JUMPDEST SWAP1 POP PUSH0 PUSH8 0xDE0B6B3A7640000 PUSH1 0x8 SLOAD DUP5 PUSH2 0x882 SWAP2 SWAP1 PUSH2 0x2446 JUMP JUMPDEST PUSH2 0x88C SWAP2 SWAP1 PUSH2 0x24B4 JUMP JUMPDEST SWAP1 POP DUP2 PUSH8 0xDE0B6B3A7640000 DUP3 PUSH2 0x8A3 SWAP2 SWAP1 PUSH2 0x2446 JUMP JUMPDEST PUSH2 0x8AD SWAP2 SWAP1 PUSH2 0x24B4 JUMP JUMPDEST SWAP1 POP PUSH0 DUP2 PUSH1 0xB PUSH0 DUP9 PUSH20 0xFFFFFFFFFFFFFFFFFFFFFFFFFFFFFFFFFFFFFFFF AND PUSH20 0xFFFFFFFFFFFFFFFFFFFFFFFFFFFFFFFFFFFFFFFF AND DUP2 MSTORE PUSH1 0x20 ADD SWAP1 DUP2 MSTORE PUSH1 0x20 ADD PUSH0 KECCAK256 SLOAD GT PUSH2 0x8FA JUMPI PUSH0 PUSH2 0x944 JUMP JUMPDEST DUP2 PUSH1 0xB PUSH0 DUP9 PUSH20 0xFFFFFFFFFFFFFFFFFFFFFFFFFFFFFFFFFFFFFFFF AND PUSH20 0xFFFFFFFFFFFFFFFFFFFFFFFFFFFFFFFFFFFFFFFF AND DUP2 MSTORE PUSH1 0x20 ADD SWAP1 DUP2 MSTORE PUSH1 0x20 ADD PUSH0 KECCAK256 SLOAD PUSH2 0x943 SWAP2 SWAP1 PUSH2 0x24E4 JUMP JUMPDEST JUMPDEST SWAP1 POP DUP1 DUP6 GT ISZERO PUSH2 0x989 JUMPI PUSH1 0x40 MLOAD PUSH32 0x8C379A000000000000000000000000000000000000000000000000000000000 DUP2 MSTORE PUSH1 0x4 ADD PUSH2 0x980 SWAP1 PUSH2 0x2587 JUMP JUMPDEST PUSH1 0x40 MLOAD DUP1 SWAP2 SUB SWAP1 REVERT JUMPDEST DUP5 PUSH1 0xB PUSH0 DUP9 PUSH20 0xFFFFFFFFFFFFFFFFFFFFFFFFFFFFFFFFFFFFFFFF AND PUSH20 0xFFFFFFFFFFFFFFFFFFFFFFFFFFFFFFFFFFFFFFFF AND DUP2 MSTORE PUSH1 0x20 ADD SWAP1 DUP2 MSTORE PUSH1 0x20 ADD PUSH0 KECCAK256 PUSH0 DUP3 DUP3 SLOAD PUSH2 0x9D5 SWAP2 SWAP1 PUSH2 0x24E4 JUMP JUMPDEST SWAP3 POP POP DUP2 SWAP1 SSTORE POP PUSH1 0x6 PUSH0 SWAP1 SLOAD SWAP1 PUSH2 0x100 EXP SWAP1 DIV PUSH20 0xFFFFFFFFFFFFFFFFFFFFFFFFFFFFFFFFFFFFFFFF AND PUSH20 0xFFFFFFFFFFFFFFFFFFFFFFFFFFFFFFFFFFFFFFFF AND PUSH4 0xA9059CBB DUP8 DUP8 PUSH1 0x40 MLOAD DUP4 PUSH4 0xFFFFFFFF AND PUSH1 0xE0 SHL DUP2 MSTORE PUSH1 0x4 ADD PUSH2 0xA38 SWAP3 SWAP2 SWAP1 PUSH2 0x25A5 JUMP JUMPDEST PUSH1 0x20 PUSH1 0x40 MLOAD DUP1 DUP4 SUB DUP2 PUSH0 DUP8 GAS CALL ISZERO DUP1 ISZERO PUSH2 0xA54 JUMPI RETURNDATASIZE PUSH0 DUP1 RETURNDATACOPY RETURNDATASIZE PUSH0 REVERT JUMPDEST POP POP POP POP PUSH1 0x40 MLOAD RETURNDATASIZE PUSH1 0x1F NOT PUSH1 0x1F DUP3 ADD AND DUP3 ADD DUP1 PUSH1 0x40 MSTORE POP DUP2 ADD SWAP1 PUSH2 0xA78 SWAP2 SWAP1 PUSH2 0x25F6 JUMP JUMPDEST PUSH2 0xAB7 JUMPI PUSH1 0x40 MLOAD PUSH32 0x8C379A000000000000000000000000000000000000000000000000000000000 DUP2 MSTORE PUSH1 0x4 ADD PUSH2 0xAAE SWAP1 PUSH2 0x266B JUMP JUMPDEST PUSH1 0x40 MLOAD DUP1 SWAP2 SUB SWAP1 REVERT JUMPDEST DUP6 PUSH20 0xFFFFFFFFFFFFFFFFFFFFFFFFFFFFFFFFFFFFFFFF AND PUSH32 0xC30FCFBCAAC9E0DEFFA719714EAA82396FF506A0D0D0EEBE170830177288715D DUP7 PUSH1 0x40 MLOAD PUSH2 0xAFD SWAP2 SWAP1 PUSH2 0x211B JUMP JUMPDEST PUSH1 0x40 MLOAD DUP1 SWAP2 SUB SWAP1 LOG2 POP POP POP POP POP POP JUMP JUMPDEST PUSH1 0x9 SLOAD DUP2 JUMP JUMPDEST PUSH1 0xB PUSH1 0x20 MSTORE DUP1 PUSH0 MSTORE PUSH1 0x40 PUSH0 KECCAK256 PUSH0 SWAP2 POP SWAP1 POP SLOAD DUP2 JUMP JUMPDEST PUSH2 0xB30 PUSH2 0x193B JUMP JUMPDEST PUSH8 0xDE0B6B3A7640000 DUP2 LT ISZERO PUSH2 0xB7B JUMPI PUSH1 0x40 MLOAD PUSH32 0x8C379A000000000000000000000000000000000000000000000000000000000 DUP2 MSTORE PUSH1 0x4 ADD PUSH2 0xB72 SWAP1 PUSH2 0x26D3 JUMP JUMPDEST PUSH1 0x40 MLOAD DUP1 SWAP2 SUB SWAP1 REVERT JUMPDEST DUP1 PUSH1 0x8 DUP2 SWAP1 SSTORE POP POP JUMP JUMPDEST PUSH0 DUP1 PUSH0 DUP4 PUSH20 0xFFFFFFFFFFFFFFFFFFFFFFFFFFFFFFFFFFFFFFFF AND PUSH20 0xFFFFFFFFFFFFFFFFFFFFFFFFFFFFFFFFFFFFFFFF AND DUP2 MSTORE PUSH1 0x20 ADD SWAP1 DUP2 MSTORE PUSH1 0x20 ADD PUSH0 KECCAK256 SLOAD SWAP1 POP SWAP2 SWAP1 POP JUMP JUMPDEST PUSH2 0xBD2 PUSH2 0x193B JUMP JUMPDEST PUSH2 0xBDB PUSH0 PUSH2 0x19C2 JUMP JUMPDEST JUMP JUMPDEST PUSH1 0x7 PUSH0 SWAP1 SLOAD SWAP1 PUSH2 0x100 EXP SWAP1 DIV PUSH20 0xFFFFFFFFFFFFFFFFFFFFFFFFFFFFFFFFFFFFFFFF AND DUP2 JUMP JUMPDEST PUSH0 PUSH1 0x5 PUSH0 SWAP1 SLOAD SWAP1 PUSH2 0x100 EXP SWAP1 DIV PUSH20 0xFFFFFFFFFFFFFFFFFFFFFFFFFFFFFFFFFFFFFFFF AND SWAP1 POP SWAP1 JUMP JUMPDEST PUSH1 0x60 PUSH1 0x4 DUP1 SLOAD PUSH2 0xC39 SWAP1 PUSH2 0x22DA JUMP JUMPDEST DUP1 PUSH1 0x1F ADD PUSH1 0x20 DUP1 SWAP2 DIV MUL PUSH1 0x20 ADD PUSH1 0x40 MLOAD SWAP1 DUP2 ADD PUSH1 0x40 MSTORE DUP1 SWAP3 SWAP2 SWAP1 DUP2 DUP2 MSTORE PUSH1 0x20 ADD DUP3 DUP1 SLOAD PUSH2 0xC65 SWAP1 PUSH2 0x22DA JUMP JUMPDEST DUP1 ISZERO PUSH2 0xCB0 JUMPI DUP1 PUSH1 0x1F LT PUSH2 0xC87 JUMPI PUSH2 0x100 DUP1 DUP4 SLOAD DIV MUL DUP4 MSTORE SWAP2 PUSH1 0x20 ADD SWAP2 PUSH2 0xCB0 JUMP JUMPDEST DUP3 ADD SWAP2 SWAP1 PUSH0 MSTORE PUSH1 0x20 PUSH0 KECCAK256 SWAP1 JUMPDEST DUP2 SLOAD DUP2 MSTORE SWAP1 PUSH1 0x1 ADD SWAP1 PUSH1 0x20 ADD DUP1 DUP4 GT PUSH2 0xC93 JUMPI DUP3 SWAP1 SUB PUSH1 0x1F AND DUP3 ADD SWAP2 JUMPDEST POP POP POP POP POP SWAP1 POP SWAP1 JUMP JUMPDEST PUSH0 DUP2 GT PUSH2 0xCFC JUMPI PUSH1 0x40 MLOAD PUSH32 0x8C379A000000000000000000000000000000000000000000000000000000000 DUP2 MSTORE PUSH1 0x4 ADD PUSH2 0xCF3 SWAP1 PUSH2 0x273B JUMP JUMPDEST PUSH1 0x40 MLOAD DUP1 SWAP2 SUB SWAP1 REVERT JUMPDEST PUSH1 0x6 PUSH0 SWAP1 SLOAD SWAP1 PUSH2 0x100 EXP SWAP1 DIV PUSH20 0xFFFFFFFFFFFFFFFFFFFFFFFFFFFFFFFFFFFFFFFF AND PUSH20 0xFFFFFFFFFFFFFFFFFFFFFFFFFFFFFFFFFFFFFFFF AND PUSH4 0x23B872DD DUP4 ADDRESS DUP5 PUSH1 0x40 MLOAD DUP5 PUSH4 0xFFFFFFFF AND PUSH1 0xE0 SHL DUP2 MSTORE PUSH1 0x4 ADD PUSH2 0xD5A SWAP4 SWAP3 SWAP2 SWAP1 PUSH2 0x2759 JUMP JUMPDEST PUSH1 0x20 PUSH1 0x40 MLOAD DUP1 DUP4 SUB DUP2 PUSH0 DUP8 GAS CALL ISZERO DUP1 ISZERO PUSH2 0xD76 JUMPI RETURNDATASIZE PUSH0 DUP1 RETURNDATACOPY RETURNDATASIZE PUSH0 REVERT JUMPDEST POP POP POP POP PUSH1 0x40 MLOAD RETURNDATASIZE PUSH1 0x1F NOT PUSH1 0x1F DUP3 ADD AND DUP3 ADD DUP1 PUSH1 0x40 MSTORE POP DUP2 ADD SWAP1 PUSH2 0xD9A SWAP2 SWAP1 PUSH2 0x25F6 JUMP JUMPDEST PUSH2 0xDD9 JUMPI PUSH1 0x40 MLOAD PUSH32 0x8C379A000000000000000000000000000000000000000000000000000000000 DUP2 MSTORE PUSH1 0x4 ADD PUSH2 0xDD0 SWAP1 PUSH2 0x266B JUMP JUMPDEST PUSH1 0x40 MLOAD DUP1 SWAP2 SUB SWAP1 REVERT JUMPDEST DUP1 PUSH1 0xB PUSH0 DUP5 PUSH20 0xFFFFFFFFFFFFFFFFFFFFFFFFFFFFFFFFFFFFFFFF AND PUSH20 0xFFFFFFFFFFFFFFFFFFFFFFFFFFFFFFFFFFFFFFFF AND DUP2 MSTORE PUSH1 0x20 ADD SWAP1 DUP2 MSTORE PUSH1 0x20 ADD PUSH0 KECCAK256 PUSH0 DUP3 DUP3 SLOAD PUSH2 0xE25 SWAP2 SWAP1 PUSH2 0x278E JUMP JUMPDEST SWAP3 POP POP DUP2 SWAP1 SSTORE POP DUP2 PUSH20 0xFFFFFFFFFFFFFFFFFFFFFFFFFFFFFFFFFFFFFFFF AND PUSH32 0xD7243F6F8212D5188FD054141CF6EA89CFC0D91FACB8C3AFE2F88A1358480142 DUP3 PUSH1 0x40 MLOAD PUSH2 0xE72 SWAP2 SWAP1 PUSH2 0x211B JUMP JUMPDEST PUSH1 0x40 MLOAD DUP1 SWAP2 SUB SWAP1 LOG2 POP POP JUMP JUMPDEST PUSH0 PUSH1 0xA SLOAD TIMESTAMP PUSH2 0xE8D SWAP2 SWAP1 PUSH2 0x24E4 JUMP JUMPDEST SWAP1 POP PUSH0 DUP2 GT DUP1 ISZERO PUSH2 0xEA4 JUMPI POP PUSH0 PUSH2 0xEA2 PUSH2 0x6DA JUMP JUMPDEST GT JUMPDEST ISZERO PUSH2 0xF10 JUMPI PUSH0 PUSH4 0x1E13380 DUP3 PUSH1 0x9 SLOAD PUSH2 0xEBD SWAP2 SWAP1 PUSH2 0x2446 JUMP JUMPDEST PUSH2 0xEC7 SWAP2 SWAP1 PUSH2 0x24B4 JUMP JUMPDEST SWAP1 POP PUSH0 PUSH2 0x2710 DUP3 PUSH2 0xED6 PUSH2 0x6DA JUMP JUMPDEST PUSH2 0xEE0 SWAP2 SWAP1 PUSH2 0x2446 JUMP JUMPDEST PUSH2 0xEEA SWAP2 SWAP1 PUSH2 0x24B4 JUMP JUMPDEST SWAP1 POP PUSH0 DUP2 GT ISZERO PUSH2 0xF06 JUMPI PUSH2 0xF05 PUSH2 0xEFF PUSH2 0xC02 JUMP JUMPDEST DUP3 PUSH2 0x1A85 JUMP JUMPDEST JUMPDEST TIMESTAMP PUSH1 0xA DUP2 SWAP1 SSTORE POP POP POP JUMPDEST POP JUMP JUMPDEST PUSH0 DUP1 PUSH2 0xF1D PUSH2 0x1721 JUMP JUMPDEST SWAP1 POP PUSH2 0xF2A DUP2 DUP6 DUP6 PUSH2 0x184B JUMP JUMPDEST PUSH1 0x1 SWAP2 POP POP SWAP3 SWAP2 POP POP JUMP JUMPDEST PUSH1 0x8 SLOAD DUP2 JUMP JUMPDEST PUSH0 PUSH1 0xB PUSH0 DUP4 PUSH20 0xFFFFFFFFFFFFFFFFFFFFFFFFFFFFFFFFFFFFFFFF AND PUSH20 0xFFFFFFFFFFFFFFFFFFFFFFFFFFFFFFFFFFFFFFFF AND DUP2 MSTORE PUSH1 0x20 ADD SWAP1 DUP2 MSTORE PUSH1 0x20 ADD PUSH0 KECCAK256 SLOAD SWAP1 POP SWAP2 SWAP1 POP JUMP JUMPDEST PUSH2 0xF89 PUSH2 0xE7E JUMP JUMPDEST PUSH0 PUSH1 0x7 PUSH0 SWAP1 SLOAD SWAP1 PUSH2 0x100 EXP SWAP1 DIV PUSH20 0xFFFFFFFFFFFFFFFFFFFFFFFFFFFFFFFFFFFFFFFF AND PUSH20 0xFFFFFFFFFFFFFFFFFFFFFFFFFFFFFFFFFFFFFFFF AND PUSH4 0x41976E09 PUSH1 0x6 PUSH0 SWAP1 SLOAD SWAP1 PUSH2 0x100 EXP SWAP1 DIV PUSH20 0xFFFFFFFFFFFFFFFFFFFFFFFFFFFFFFFFFFFFFFFF AND PUSH1 0x40 MLOAD DUP3 PUSH4 0xFFFFFFFF AND PUSH1 0xE0 SHL DUP2 MSTORE PUSH1 0x4 ADD PUSH2 0x1005 SWAP2 SWAP1 PUSH2 0x2256 JUMP JUMPDEST PUSH1 0x20 PUSH1 0x40 MLOAD DUP1 DUP4 SUB DUP2 DUP7 GAS STATICCALL ISZERO DUP1 ISZERO PUSH2 0x1020 JUMPI RETURNDATASIZE PUSH0 DUP1 RETURNDATACOPY RETURNDATASIZE PUSH0 REVERT JUMPDEST POP POP POP POP PUSH1 0x40 MLOAD RETURNDATASIZE PUSH1 0x1F NOT PUSH1 0x1F DUP3 ADD AND DUP3 ADD DUP1 PUSH1 0x40 MSTORE POP DUP2 ADD SWAP1 PUSH2 0x1044 SWAP2 SWAP1 PUSH2 0x23EE JUMP JUMPDEST SWAP1 POP PUSH0 PUSH2 0x1050 DUP5 PUSH2 0xB85 JUMP JUMPDEST SWAP1 POP PUSH0 DUP2 SUB PUSH2 0x1060 JUMPI POP POP PUSH2 0x13C9 JUMP JUMPDEST PUSH0 PUSH8 0xDE0B6B3A7640000 PUSH1 0x8 SLOAD DUP4 PUSH2 0x1078 SWAP2 SWAP1 PUSH2 0x2446 JUMP JUMPDEST PUSH2 0x1082 SWAP2 SWAP1 PUSH2 0x24B4 JUMP JUMPDEST SWAP1 POP PUSH0 PUSH8 0xDE0B6B3A7640000 DUP5 PUSH1 0xB PUSH0 DUP10 PUSH20 0xFFFFFFFFFFFFFFFFFFFFFFFFFFFFFFFFFFFFFFFF AND PUSH20 0xFFFFFFFFFFFFFFFFFFFFFFFFFFFFFFFFFFFFFFFF AND DUP2 MSTORE PUSH1 0x20 ADD SWAP1 DUP2 MSTORE PUSH1 0x20 ADD PUSH0 KECCAK256 SLOAD PUSH2 0x10D7 SWAP2 SWAP1 PUSH2 0x2446 JUMP JUMPDEST PUSH2 0x10E1 SWAP2 SWAP1 PUSH2 0x24B4 JUMP JUMPDEST SWAP1 POP DUP2 DUP2 LT ISZERO PUSH2 0x13C4 JUMPI PUSH0 DUP4 DUP7 GT PUSH2 0x10F9 JUMPI DUP6 PUSH2 0x10FB JUMP JUMPDEST DUP4 JUMPDEST SWAP1 POP DUP1 PUSH2 0x1107 CALLER PUSH2 0xB85 JUMP JUMPDEST LT ISZERO PUSH2 0x1148 JUMPI PUSH1 0x40 MLOAD PUSH32 0x8C379A000000000000000000000000000000000000000000000000000000000 DUP2 MSTORE PUSH1 0x4 ADD PUSH2 0x113F SWAP1 PUSH2 0x280B JUMP JUMPDEST PUSH1 0x40 MLOAD DUP1 SWAP2 SUB SWAP1 REVERT JUMPDEST PUSH2 0x1153 CALLER ADDRESS DUP4 PUSH2 0x184B JUMP JUMPDEST PUSH2 0x115D ADDRESS DUP3 PUSH2 0x173A JUMP JUMPDEST PUSH0 PUSH8 0xDE0B6B3A7640000 PUSH1 0x8 SLOAD DUP4 PUSH2 0x1175 SWAP2 SWAP1 PUSH2 0x2446 JUMP JUMPDEST PUSH2 0x117F SWAP2 SWAP1 PUSH2 0x24B4 JUMP JUMPDEST SWAP1 POP DUP6 PUSH8 0xDE0B6B3A7640000 DUP3 PUSH2 0x1196 SWAP2 SWAP1 PUSH2 0x2446 JUMP JUMPDEST PUSH2 0x11A0 SWAP2 SWAP1 PUSH2 0x24B4 JUMP JUMPDEST SWAP1 POP PUSH1 0x64 PUSH1 0x6E DUP3 PUSH2 0x11B1 SWAP2 SWAP1 PUSH2 0x2446 JUMP JUMPDEST PUSH2 0x11BB SWAP2 SWAP1 PUSH2 0x24B4 JUMP JUMPDEST SWAP1 POP PUSH1 0xB PUSH0 DUP10 PUSH20 0xFFFFFFFFFFFFFFFFFFFFFFFFFFFFFFFFFFFFFFFF AND PUSH20 0xFFFFFFFFFFFFFFFFFFFFFFFFFFFFFFFFFFFFFFFF AND DUP2 MSTORE PUSH1 0x20 ADD SWAP1 DUP2 MSTORE PUSH1 0x20 ADD PUSH0 KECCAK256 SLOAD DUP2 GT ISZERO PUSH2 0x1243 JUMPI PUSH1 0xB PUSH0 DUP10 PUSH20 0xFFFFFFFFFFFFFFFFFFFFFFFFFFFFFFFFFFFFFFFF AND PUSH20 0xFFFFFFFFFFFFFFFFFFFFFFFFFFFFFFFFFFFFFFFF AND DUP2 MSTORE PUSH1 0x20 ADD SWAP1 DUP2 MSTORE PUSH1 0x20 ADD PUSH0 KECCAK256 SLOAD SWAP1 POP JUMPDEST DUP1 PUSH1 0xB PUSH0 DUP11 PUSH20 0xFFFFFFFFFFFFFFFFFFFFFFFFFFFFFFFFFFFFFFFF AND PUSH20 0xFFFFFFFFFFFFFFFFFFFFFFFFFFFFFFFFFFFFFFFF AND DUP2 MSTORE PUSH1 0x20 ADD SWAP1 DUP2 MSTORE PUSH1 0x20 ADD PUSH0 KECCAK256 PUSH0 DUP3 DUP3 SLOAD PUSH2 0x128F SWAP2 SWAP1 PUSH2 0x24E4 JUMP JUMPDEST SWAP3 POP POP DUP2 SWAP1 SSTORE POP PUSH1 0x6 PUSH0 SWAP1 SLOAD SWAP1 PUSH2 0x100 EXP SWAP1 DIV PUSH20 0xFFFFFFFFFFFFFFFFFFFFFFFFFFFFFFFFFFFFFFFF AND PUSH20 0xFFFFFFFFFFFFFFFFFFFFFFFFFFFFFFFFFFFFFFFF AND PUSH4 0xA9059CBB CALLER DUP4 PUSH1 0x40 MLOAD DUP4 PUSH4 0xFFFFFFFF AND PUSH1 0xE0 SHL DUP2 MSTORE PUSH1 0x4 ADD PUSH2 0x12F2 SWAP3 SWAP2 SWAP1 PUSH2 0x25A5 JUMP JUMPDEST PUSH1 0x20 PUSH1 0x40 MLOAD DUP1 DUP4 SUB DUP2 PUSH0 DUP8 GAS CALL ISZERO DUP1 ISZERO PUSH2 0x130E JUMPI RETURNDATASIZE PUSH0 DUP1 RETURNDATACOPY RETURNDATASIZE PUSH0 REVERT JUMPDEST POP POP POP POP PUSH1 0x40 MLOAD RETURNDATASIZE PUSH1 0x1F NOT PUSH1 0x1F DUP3 ADD AND DUP3 ADD DUP1 PUSH1 0x40 MSTORE POP DUP2 ADD SWAP1 PUSH2 0x1332 SWAP2 SWAP1 PUSH2 0x25F6 JUMP JUMPDEST PUSH2 0x1371 JUMPI PUSH1 0x40 MLOAD PUSH32 0x8C379A000000000000000000000000000000000000000000000000000000000 DUP2 MSTORE PUSH1 0x4 ADD PUSH2 0x1368 SWAP1 PUSH2 0x266B JUMP JUMPDEST PUSH1 0x40 MLOAD DUP1 SWAP2 SUB SWAP1 REVERT JUMPDEST DUP8 PUSH20 0xFFFFFFFFFFFFFFFFFFFFFFFFFFFFFFFFFFFFFFFF AND PUSH32 0x9C223CFCD8C93E245F558F5F8DE755FC0930FD9BC257441155EF5D54A170E0F DUP4 DUP4 PUSH1 0x40 MLOAD PUSH2 0x13B9 SWAP3 SWAP2 SWAP1 PUSH2 0x2829 JUMP JUMPDEST PUSH1 0x40 MLOAD DUP1 SWAP2 SUB SWAP1 LOG2 POP POP JUMPDEST POP POP POP POP JUMPDEST POP POP JUMP JUMPDEST PUSH0 PUSH1 0x8 SLOAD SWAP1 POP SWAP1 JUMP JUMPDEST PUSH1 0xA SLOAD DUP2 JUMP JUMPDEST PUSH0 PUSH1 0x1 PUSH0 DUP5 PUSH20 0xFFFFFFFFFFFFFFFFFFFFFFFFFFFFFFFFFFFFFFFF AND PUSH20 0xFFFFFFFFFFFFFFFFFFFFFFFFFFFFFFFFFFFFFFFF AND DUP2 MSTORE PUSH1 0x20 ADD SWAP1 DUP2 MSTORE PUSH1 0x20 ADD PUSH0 KECCAK256 PUSH0 DUP4 PUSH20 0xFFFFFFFFFFFFFFFFFFFFFFFFFFFFFFFFFFFFFFFF AND PUSH20 0xFFFFFFFFFFFFFFFFFFFFFFFFFFFFFFFFFFFFFFFF AND DUP2 MSTORE PUSH1 0x20 ADD SWAP1 DUP2 MSTORE PUSH1 0x20 ADD PUSH0 KECCAK256 SLOAD SWAP1 POP SWAP3 SWAP2 POP POP JUMP JUMPDEST PUSH2 0x1466 PUSH2 0xE7E JUMP JUMPDEST PUSH0 PUSH1 0x7 PUSH0 SWAP1 SLOAD SWAP1 PUSH2 0x100 EXP SWAP1 DIV PUSH20 0xFFFFFFFFFFFFFFFFFFFFFFFFFFFFFFFFFFFFFFFF AND PUSH20 0xFFFFFFFFFFFFFFFFFFFFFFFFFFFFFFFFFFFFFFFF AND PUSH4 0x41976E09 PUSH1 0x6 PUSH0 SWAP1 SLOAD SWAP1 PUSH2 0x100 EXP SWAP1 DIV PUSH20 0xFFFFFFFFFFFFFFFFFFFFFFFFFFFFFFFFFFFFFFFF AND PUSH1 0x40 MLOAD DUP3 PUSH4 0xFFFFFFFF AND PUSH1 0xE0 SHL DUP2 MSTORE PUSH1 0x4 ADD PUSH2 0x14E2 SWAP2 SWAP1 PUSH2 0x2256 JUMP JUMPDEST PUSH1 0x20 PUSH1 0x40 MLOAD DUP1 DUP4 SUB DUP2 DUP7 GAS STATICCALL ISZERO DUP1 ISZERO PUSH2 0x14FD JUMPI RETURNDATASIZE PUSH0 DUP1 RETURNDATACOPY RETURNDATASIZE PUSH0 REVERT JUMPDEST POP POP POP POP PUSH1 0x40 MLOAD RETURNDATASIZE PUSH1 0x1F NOT PUSH1 0x1F DUP3 ADD AND DUP3 ADD DUP1 PUSH1 0x40 MSTORE POP DUP2 ADD SWAP1 PUSH2 0x1521 SWAP2 SWAP1 PUSH2 0x23EE JUMP JUMPDEST SWAP1 POP PUSH0 PUSH8 0xDE0B6B3A7640000 PUSH1 0x8 SLOAD DUP5 PUSH2 0x153B SWAP2 SWAP1 PUSH2 0x2446 JUMP JUMPDEST PUSH2 0x1545 SWAP2 SWAP1 PUSH2 0x24B4 JUMP JUMPDEST SWAP1 POP DUP2 PUSH8 0xDE0B6B3A7640000 DUP3 PUSH2 0x155C SWAP2 SWAP1 PUSH2 0x2446 JUMP JUMPDEST PUSH2 0x1566 SWAP2 SWAP1 PUSH2 0x24B4 JUMP JUMPDEST SWAP1 POP DUP1 PUSH1 0xB PUSH0 CALLER PUSH20 0xFFFFFFFFFFFFFFFFFFFFFFFFFFFFFFFFFFFFFFFF AND PUSH20 0xFFFFFFFFFFFFFFFFFFFFFFFFFFFFFFFFFFFFFFFF AND DUP2 MSTORE PUSH1 0x20 ADD SWAP1 DUP2 MSTORE PUSH1 0x20 ADD PUSH0 KECCAK256 SLOAD LT ISZERO PUSH2 0x15E8 JUMPI PUSH1 0x40 MLOAD PUSH32 0x8C379A000000000000000000000000000000000000000000000000000000000 DUP2 MSTORE PUSH1 0x4 ADD PUSH2 0x15DF SWAP1 PUSH2 0x23BC JUMP JUMPDEST PUSH1 0x40 MLOAD DUP1 SWAP2 SUB SWAP1 REVERT JUMPDEST PUSH2 0x15F2 DUP5 DUP5 PUSH2 0x1A85 JUMP JUMPDEST CALLER PUSH20 0xFFFFFFFFFFFFFFFFFFFFFFFFFFFFFFFFFFFFFFFF AND PUSH32 0x30385C845B448A36257A6A1716E6AD2E1BC2CBE333CDE1E69FE849AD6511ADFE DUP5 PUSH1 0x40 MLOAD PUSH2 0x1638 SWAP2 SWAP1 PUSH2 0x211B JUMP JUMPDEST PUSH1 0x40 MLOAD DUP1 SWAP2 SUB SWAP1 LOG2 POP POP POP POP JUMP JUMPDEST PUSH2 0x164E PUSH2 0x193B JUMP JUMPDEST PUSH0 PUSH20 0xFFFFFFFFFFFFFFFFFFFFFFFFFFFFFFFFFFFFFFFF AND DUP2 PUSH20 0xFFFFFFFFFFFFFFFFFFFFFFFFFFFFFFFFFFFFFFFF AND SUB PUSH2 0x16BE JUMPI PUSH0 PUSH1 0x40 MLOAD PUSH32 0x1E4FBDF700000000000000000000000000000000000000000000000000000000 DUP2 MSTORE PUSH1 0x4 ADD PUSH2 0x16B5 SWAP2 SWAP1 PUSH2 0x2256 JUMP JUMPDEST PUSH1 0x40 MLOAD DUP1 SWAP2 SUB SWAP1 REVERT JUMPDEST PUSH2 0x16C7 DUP2 PUSH2 0x19C2 JUMP JUMPDEST POP JUMP JUMPDEST PUSH2 0x16D2 PUSH2 0x193B JUMP JUMPDEST PUSH2 0x7D0 DUP2 GT ISZERO PUSH2 0x1717 JUMPI PUSH1 0x40 MLOAD PUSH32 0x8C379A000000000000000000000000000000000000000000000000000000000 DUP2 MSTORE PUSH1 0x4 ADD PUSH2 0x170E SWAP1 PUSH2 0x289A JUMP JUMPDEST PUSH1 0x40 MLOAD DUP1 SWAP2 SUB SWAP1 REVERT JUMPDEST DUP1 PUSH1 0x9 DUP2 SWAP1 SSTORE POP POP JUMP JUMPDEST PUSH0 CALLER SWAP1 POP SWAP1 JUMP JUMPDEST PUSH2 0x1735 DUP4 DUP4 DUP4 PUSH1 0x1 PUSH2 0x1B04 JUMP JUMPDEST POP POP POP JUMP JUMPDEST PUSH0 PUSH20 0xFFFFFFFFFFFFFFFFFFFFFFFFFFFFFFFFFFFFFFFF AND DUP3 PUSH20 0xFFFFFFFFFFFFFFFFFFFFFFFFFFFFFFFFFFFFFFFF AND SUB PUSH2 0x17AA JUMPI PUSH0 PUSH1 0x40 MLOAD PUSH32 0x96C6FD1E00000000000000000000000000000000000000000000000000000000 DUP2 MSTORE PUSH1 0x4 ADD PUSH2 0x17A1 SWAP2 SWAP1 PUSH2 0x2256 JUMP JUMPDEST PUSH1 0x40 MLOAD DUP1 SWAP2 SUB SWAP1 REVERT JUMPDEST PUSH2 0x17B5 DUP3 PUSH0 DUP4 PUSH2 0x1CD3 JUMP JUMPDEST POP POP JUMP JUMPDEST PUSH0 PUSH2 0x17C4 DUP5 DUP5 PUSH2 0x13DC JUMP JUMPDEST SWAP1 POP PUSH32 0xFFFFFFFFFFFFFFFFFFFFFFFFFFFFFFFFFFFFFFFFFFFFFFFFFFFFFFFFFFFFFFFF DUP2 EQ PUSH2 0x1845 JUMPI DUP2 DUP2 LT ISZERO PUSH2 0x1836 JUMPI DUP3 DUP2 DUP4 PUSH1 0x40 MLOAD PUSH32 0xFB8F41B200000000000000000000000000000000000000000000000000000000 DUP2 MSTORE PUSH1 0x4 ADD PUSH2 0x182D SWAP4 SWAP3 SWAP2 SWAP1 PUSH2 0x28B8 JUMP JUMPDEST PUSH1 0x40 MLOAD DUP1 SWAP2 SUB SWAP1 REVERT JUMPDEST PUSH2 0x1844 DUP5 DUP5 DUP5 DUP5 SUB PUSH0 PUSH2 0x1B04 JUMP JUMPDEST JUMPDEST POP POP POP POP JUMP JUMPDEST PUSH0 PUSH20 0xFFFFFFFFFFFFFFFFFFFFFFFFFFFFFFFFFFFFFFFF AND DUP4 PUSH20 0xFFFFFFFFFFFFFFFFFFFFFFFFFFFFFFFFFFFFFFFF AND SUB PUSH2 0x18BB JUMPI PUSH0 PUSH1 0x40 MLOAD PUSH32 0x96C6FD1E00000000000000000000000000000000000000000000000000000000 DUP2 MSTORE PUSH1 0x4 ADD PUSH2 0x18B2 SWAP2 SWAP1 PUSH2 0x2256 JUMP JUMPDEST PUSH1 0x40 MLOAD DUP1 SWAP2 SUB SWAP1 REVERT JUMPDEST PUSH0 PUSH20 0xFFFFFFFFFFFFFFFFFFFFFFFFFFFFFFFFFFFFFFFF AND DUP3 PUSH20 0xFFFFFFFFFFFFFFFFFFFFFFFFFFFFFFFFFFFFFFFF AND SUB PUSH2 0x192B JUMPI PUSH0 PUSH1 0x40 MLOAD PUSH32 0xEC442F0500000000000000000000000000000000000000000000000000000000 DUP2 MSTORE PUSH1 0x4 ADD PUSH2 0x1922 SWAP2 SWAP1 PUSH2 0x2256 JUMP JUMPDEST PUSH1 0x40 MLOAD DUP1 SWAP2 SUB SWAP1 REVERT JUMPDEST PUSH2 0x1936 DUP4 DUP4 DUP4 PUSH2 0x1CD3 JUMP JUMPDEST POP POP POP JUMP JUMPDEST PUSH2 0x1943 PUSH2 0x1721 JUMP JUMPDEST PUSH20 0xFFFFFFFFFFFFFFFFFFFFFFFFFFFFFFFFFFFFFFFF AND PUSH2 0x1961 PUSH2 0xC02 JUMP JUMPDEST PUSH20 0xFFFFFFFFFFFFFFFFFFFFFFFFFFFFFFFFFFFFFFFF AND EQ PUSH2 0x19C0 JUMPI PUSH2 0x1984 PUSH2 0x1721 JUMP JUMPDEST PUSH1 0x40 MLOAD PUSH32 0x118CDAA700000000000000000000000000000000000000000000000000000000 DUP2 MSTORE PUSH1 0x4 ADD PUSH2 0x19B7 SWAP2 SWAP1 PUSH2 0x2256 JUMP JUMPDEST PUSH1 0x40 MLOAD DUP1 SWAP2 SUB SWAP1 REVERT JUMPDEST JUMP JUMPDEST PUSH0 PUSH1 0x5 PUSH0 SWAP1 SLOAD SWAP1 PUSH2 0x100 EXP SWAP1 DIV PUSH20 0xFFFFFFFFFFFFFFFFFFFFFFFFFFFFFFFFFFFFFFFF AND SWAP1 POP DUP2 PUSH1 0x5 PUSH0 PUSH2 0x100 EXP DUP2 SLOAD DUP2 PUSH20 0xFFFFFFFFFFFFFFFFFFFFFFFFFFFFFFFFFFFFFFFF MUL NOT AND SWAP1 DUP4 PUSH20 0xFFFFFFFFFFFFFFFFFFFFFFFFFFFFFFFFFFFFFFFF AND MUL OR SWAP1 SSTORE POP DUP2 PUSH20 0xFFFFFFFFFFFFFFFFFFFFFFFFFFFFFFFFFFFFFFFF AND DUP2 PUSH20 0xFFFFFFFFFFFFFFFFFFFFFFFFFFFFFFFFFFFFFFFF AND PUSH32 0x8BE0079C531659141344CD1FD0A4F28419497F9722A3DAAFE3B4186F6B6457E0 PUSH1 0x40 MLOAD PUSH1 0x40 MLOAD DUP1 SWAP2 SUB SWAP1 LOG3 POP POP JUMP JUMPDEST PUSH0 PUSH20 0xFFFFFFFFFFFFFFFFFFFFFFFFFFFFFFFFFFFFFFFF AND DUP3 PUSH20 0xFFFFFFFFFFFFFFFFFFFFFFFFFFFFFFFFFFFFFFFF AND SUB PUSH2 0x1AF5 JUMPI PUSH0 PUSH1 0x40 MLOAD PUSH32 0xEC442F0500000000000000000000000000000000000000000000000000000000 DUP2 MSTORE PUSH1 0x4 ADD PUSH2 0x1AEC SWAP2 SWAP1 PUSH2 0x2256 JUMP JUMPDEST PUSH1 0x40 MLOAD DUP1 SWAP2 SUB SWAP1 REVERT JUMPDEST PUSH2 0x1B00 PUSH0 DUP4 DUP4 PUSH2 0x1CD3 JUMP JUMPDEST POP POP JUMP JUMPDEST PUSH0 PUSH20 0xFFFFFFFFFFFFFFFFFFFFFFFFFFFFFFFFFFFFFFFF AND DUP5 PUSH20 0xFFFFFFFFFFFFFFFFFFFFFFFFFFFFFFFFFFFFFFFF AND SUB PUSH2 0x1B74 JUMPI PUSH0 PUSH1 0x40 MLOAD PUSH32 0xE602DF0500000000000000000000000000000000000000000000000000000000 DUP2 MSTORE PUSH1 0x4 ADD PUSH2 0x1B6B SWAP2 SWAP1 PUSH2 0x2256 JUMP JUMPDEST PUSH1 0x40 MLOAD DUP1 SWAP2 SUB SWAP1 REVERT JUMPDEST PUSH0 PUSH20 0xFFFFFFFFFFFFFFFFFFFFFFFFFFFFFFFFFFFFFFFF AND DUP4 PUSH20 0xFFFFFFFFFFFFFFFFFFFFFFFFFFFFFFFFFFFFFFFF AND SUB PUSH2 0x1BE4 JUMPI PUSH0 PUSH1 0x40 MLOAD PUSH32 0x94280D6200000000000000000000000000000000000000000000000000000000 DUP2 MSTORE PUSH1 0x4 ADD PUSH2 0x1BDB SWAP2 SWAP1 PUSH2 0x2256 JUMP JUMPDEST PUSH1 0x40 MLOAD DUP1 SWAP2 SUB SWAP1 REVERT JUMPDEST DUP2 PUSH1 0x1 PUSH0 DUP7 PUSH20 0xFFFFFFFFFFFFFFFFFFFFFFFFFFFFFFFFFFFFFFFF AND PUSH20 0xFFFFFFFFFFFFFFFFFFFFFFFFFFFFFFFFFFFFFFFF AND DUP2 MSTORE PUSH1 0x20 ADD SWAP1 DUP2 MSTORE PUSH1 0x20 ADD PUSH0 KECCAK256 PUSH0 DUP6 PUSH20 0xFFFFFFFFFFFFFFFFFFFFFFFFFFFFFFFFFFFFFFFF AND PUSH20 0xFFFFFFFFFFFFFFFFFFFFFFFFFFFFFFFFFFFFFFFF AND DUP2 MSTORE PUSH1 0x20 ADD SWAP1 DUP2 MSTORE PUSH1 0x20 ADD PUSH0 KECCAK256 DUP2 SWAP1 SSTORE POP DUP1 ISZERO PUSH2 0x1CCD JUMPI DUP3 PUSH20 0xFFFFFFFFFFFFFFFFFFFFFFFFFFFFFFFFFFFFFFFF AND DUP5 PUSH20 0xFFFFFFFFFFFFFFFFFFFFFFFFFFFFFFFFFFFFFFFF AND PUSH32 0x8C5BE1E5EBEC7D5BD14F71427D1E84F3DD0314C0F7B2291E5B200AC8C7C3B925 DUP5 PUSH1 0x40 MLOAD PUSH2 0x1CC4 SWAP2 SWAP1 PUSH2 0x211B JUMP JUMPDEST PUSH1 0x40 MLOAD DUP1 SWAP2 SUB SWAP1 LOG3 JUMPDEST POP POP POP POP JUMP JUMPDEST PUSH0 PUSH20 0xFFFFFFFFFFFFFFFFFFFFFFFFFFFFFFFFFFFFFFFF AND DUP4 PUSH20 0xFFFFFFFFFFFFFFFFFFFFFFFFFFFFFFFFFFFFFFFF AND SUB PUSH2 0x1D23 JUMPI DUP1 PUSH1 0x2 PUSH0 DUP3 DUP3 SLOAD PUSH2 0x1D17 SWAP2 SWAP1 PUSH2 0x278E JUMP JUMPDEST SWAP3 POP POP DUP2 SWAP1 SSTORE POP PUSH2 0x1DF1 JUMP JUMPDEST PUSH0 DUP1 PUSH0 DUP6 PUSH20 0xFFFFFFFFFFFFFFFFFFFFFFFFFFFFFFFFFFFFFFFF AND PUSH20 0xFFFFFFFFFFFFFFFFFFFFFFFFFFFFFFFFFFFFFFFF AND DUP2 MSTORE PUSH1 0x20 ADD SWAP1 DUP2 MSTORE PUSH1 0x20 ADD PUSH0 KECCAK256 SLOAD SWAP1 POP DUP2 DUP2 LT ISZERO PUSH2 0x1DAC JUMPI DUP4 DUP2 DUP4 PUSH1 0x40 MLOAD PUSH32 0xE450D38C00000000000000000000000000000000000000000000000000000000 DUP2 MSTORE PUSH1 0x4 ADD PUSH2 0x1DA3 SWAP4 SWAP3 SWAP2 SWAP1 PUSH2 0x28B8 JUMP JUMPDEST PUSH1 0x40 MLOAD DUP1 SWAP2 SUB SWAP1 REVERT JUMPDEST DUP2 DUP2 SUB PUSH0 DUP1 DUP7 PUSH20 0xFFFFFFFFFFFFFFFFFFFFFFFFFFFFFFFFFFFFFFFF AND PUSH20 0xFFFFFFFFFFFFFFFFFFFFFFFFFFFFFFFFFFFFFFFF AND DUP2 MSTORE PUSH1 0x20 ADD SWAP1 DUP2 MSTORE PUSH1 0x20 ADD PUSH0 KECCAK256 DUP2 SWAP1 SSTORE POP POP JUMPDEST PUSH0 PUSH20 0xFFFFFFFFFFFFFFFFFFFFFFFFFFFFFFFFFFFFFFFF AND DUP3 PUSH20 0xFFFFFFFFFFFFFFFFFFFFFFFFFFFFFFFFFFFFFFFF AND SUB PUSH2 0x1E38 JUMPI DUP1 PUSH1 0x2 PUSH0 DUP3 DUP3 SLOAD SUB SWAP3 POP POP DUP2 SWAP1 SSTORE POP PUSH2 0x1E82 JUMP JUMPDEST DUP1 PUSH0 DUP1 DUP5 PUSH20 0xFFFFFFFFFFFFFFFFFFFFFFFFFFFFFFFFFFFFFFFF AND PUSH20 0xFFFFFFFFFFFFFFFFFFFFFFFFFFFFFFFFFFFFFFFF AND DUP2 MSTORE PUSH1 0x20 ADD SWAP1 DUP2 MSTORE PUSH1 0x20 ADD PUSH0 KECCAK256 PUSH0 DUP3 DUP3 SLOAD ADD SWAP3 POP POP DUP2 SWAP1 SSTORE POP JUMPDEST DUP2 PUSH20 0xFFFFFFFFFFFFFFFFFFFFFFFFFFFFFFFFFFFFFFFF AND DUP4 PUSH20 0xFFFFFFFFFFFFFFFFFFFFFFFFFFFFFFFFFFFFFFFF AND PUSH32 0xDDF252AD1BE2C89B69C2B068FC378DAA952BA7F163C4A11628F55A4DF523B3EF DUP4 PUSH1 0x40 MLOAD PUSH2 0x1EDF SWAP2 SWAP1 PUSH2 0x211B JUMP JUMPDEST PUSH1 0x40 MLOAD DUP1 SWAP2 SUB SWAP1 LOG3 POP POP POP JUMP JUMPDEST PUSH0 DUP2 MLOAD SWAP1 POP SWAP2 SWAP1 POP JUMP JUMPDEST PUSH0 DUP3 DUP3 MSTORE PUSH1 0x20 DUP3 ADD SWAP1 POP SWAP3 SWAP2 POP POP JUMP JUMPDEST PUSH0 JUMPDEST DUP4 DUP2 LT ISZERO PUSH2 0x1F23 JUMPI DUP1 DUP3 ADD MLOAD DUP2 DUP5 ADD MSTORE PUSH1 0x20 DUP2 ADD SWAP1 POP PUSH2 0x1F08 JUMP JUMPDEST PUSH0 DUP5 DUP5 ADD MSTORE POP POP POP POP JUMP JUMPDEST PUSH0 PUSH1 0x1F NOT PUSH1 0x1F DUP4 ADD AND SWAP1 POP SWAP2 SWAP1 POP JUMP JUMPDEST PUSH0 PUSH2 0x1F48 DUP3 PUSH2 0x1EEC JUMP JUMPDEST PUSH2 0x1F52 DUP2 DUP6 PUSH2 0x1EF6 JUMP JUMPDEST SWAP4 POP PUSH2 0x1F62 DUP2 DUP6 PUSH1 0x20 DUP7 ADD PUSH2 0x1F06 JUMP JUMPDEST PUSH2 0x1F6B DUP2 PUSH2 0x1F2E JUMP JUMPDEST DUP5 ADD SWAP2 POP POP SWAP3 SWAP2 POP POP JUMP JUMPDEST PUSH0 PUSH1 0x20 DUP3 ADD SWAP1 POP DUP2 DUP2 SUB PUSH0 DUP4 ADD MSTORE PUSH2 0x1F8E DUP2 DUP5 PUSH2 0x1F3E JUMP JUMPDEST SWAP1 POP SWAP3 SWAP2 POP POP JUMP JUMPDEST PUSH0 DUP1 REVERT JUMPDEST PUSH0 PUSH20 0xFFFFFFFFFFFFFFFFFFFFFFFFFFFFFFFFFFFFFFFF DUP3 AND SWAP1 POP SWAP2 SWAP1 POP JUMP JUMPDEST PUSH0 PUSH2 0x1FC3 DUP3 PUSH2 0x1F9A JUMP JUMPDEST SWAP1 POP SWAP2 SWAP1 POP JUMP JUMPDEST PUSH2 0x1FD3 DUP2 PUSH2 0x1FB9 JUMP JUMPDEST DUP2 EQ PUSH2 0x1FDD JUMPI PUSH0 DUP1 REVERT JUMPDEST POP JUMP JUMPDEST PUSH0 DUP2 CALLDATALOAD SWAP1 POP PUSH2 0x1FEE DUP2 PUSH2 0x1FCA JUMP JUMPDEST SWAP3 SWAP2 POP POP JUMP JUMPDEST PUSH0 DUP2 SWAP1 POP SWAP2 SWAP1 POP JUMP JUMPDEST PUSH2 0x2006 DUP2 PUSH2 0x1FF4 JUMP JUMPDEST DUP2 EQ PUSH2 0x2010 JUMPI PUSH0 DUP1 REVERT JUMPDEST POP JUMP JUMPDEST PUSH0 DUP2 CALLDATALOAD SWAP1 POP PUSH2 0x2021 DUP2 PUSH2 0x1FFD JUMP JUMPDEST SWAP3 SWAP2 POP POP JUMP JUMPDEST PUSH0 DUP1 PUSH1 0x40 DUP4 DUP6 SUB SLT ISZERO PUSH2 0x203D JUMPI PUSH2 0x203C PUSH2 0x1F96 JUMP JUMPDEST JUMPDEST PUSH0 PUSH2 0x204A DUP6 DUP3 DUP7 ADD PUSH2 0x1FE0 JUMP JUMPDEST SWAP3 POP POP PUSH1 0x20 PUSH2 0x205B DUP6 DUP3 DUP7 ADD PUSH2 0x2013 JUMP JUMPDEST SWAP2 POP POP SWAP3 POP SWAP3 SWAP1 POP JUMP JUMPDEST PUSH0 DUP2 ISZERO ISZERO SWAP1 POP SWAP2 SWAP1 POP JUMP JUMPDEST PUSH2 0x2079 DUP2 PUSH2 0x2065 JUMP JUMPDEST DUP3 MSTORE POP POP JUMP JUMPDEST PUSH0 PUSH1 0x20 DUP3 ADD SWAP1 POP PUSH2 0x2092 PUSH0 DUP4 ADD DUP5 PUSH2 0x2070 JUMP JUMPDEST SWAP3 SWAP2 POP POP JUMP JUMPDEST PUSH0 DUP2 SWAP1 POP SWAP2 SWAP1 POP JUMP JUMPDEST PUSH0 PUSH2 0x20BB PUSH2 0x20B6 PUSH2 0x20B1 DUP5 PUSH2 0x1F9A JUMP JUMPDEST PUSH2 0x2098 JUMP JUMPDEST PUSH2 0x1F9A JUMP JUMPDEST SWAP1 POP SWAP2 SWAP1 POP JUMP JUMPDEST PUSH0 PUSH2 0x20CC DUP3 PUSH2 0x20A1 JUMP JUMPDEST SWAP1 POP SWAP2 SWAP1 POP JUMP JUMPDEST PUSH0 PUSH2 0x20DD DUP3 PUSH2 0x20C2 JUMP JUMPDEST SWAP1 POP SWAP2 SWAP1 POP JUMP JUMPDEST PUSH2 0x20ED DUP2 PUSH2 0x20D3 JUMP JUMPDEST DUP3 MSTORE POP POP JUMP JUMPDEST PUSH0 PUSH1 0x20 DUP3 ADD SWAP1 POP PUSH2 0x2106 PUSH0 DUP4 ADD DUP5 PUSH2 0x20E4 JUMP JUMPDEST SWAP3 SWAP2 POP POP JUMP JUMPDEST PUSH2 0x2115 DUP2 PUSH2 0x1FF4 JUMP JUMPDEST DUP3 MSTORE POP POP JUMP JUMPDEST PUSH0 PUSH1 0x20 DUP3 ADD SWAP1 POP PUSH2 0x212E PUSH0 DUP4 ADD DUP5 PUSH2 0x210C JUMP JUMPDEST SWAP3 SWAP2 POP POP JUMP JUMPDEST PUSH0 DUP1 PUSH0 PUSH1 0x60 DUP5 DUP7 SUB SLT ISZERO PUSH2 0x214B JUMPI PUSH2 0x214A PUSH2 0x1F96 JUMP JUMPDEST JUMPDEST PUSH0 PUSH2 0x2158 DUP7 DUP3 DUP8 ADD PUSH2 0x1FE0 JUMP JUMPDEST SWAP4 POP POP PUSH1 0x20 PUSH2 0x2169 DUP7 DUP3 DUP8 ADD PUSH2 0x1FE0 JUMP JUMPDEST SWAP3 POP POP PUSH1 0x40 PUSH2 0x217A DUP7 DUP3 DUP8 ADD PUSH2 0x2013 JUMP JUMPDEST SWAP2 POP POP SWAP3 POP SWAP3 POP SWAP3 JUMP JUMPDEST PUSH0 PUSH1 0xFF DUP3 AND SWAP1 POP SWAP2 SWAP1 POP JUMP JUMPDEST PUSH2 0x2199 DUP2 PUSH2 0x2184 JUMP JUMPDEST DUP3 MSTORE POP POP JUMP JUMPDEST PUSH0 PUSH1 0x20 DUP3 ADD SWAP1 POP PUSH2 0x21B2 PUSH0 DUP4 ADD DUP5 PUSH2 0x2190 JUMP JUMPDEST SWAP3 SWAP2 POP POP JUMP JUMPDEST PUSH0 PUSH1 0x20 DUP3 DUP5 SUB SLT ISZERO PUSH2 0x21CD JUMPI PUSH2 0x21CC PUSH2 0x1F96 JUMP JUMPDEST JUMPDEST PUSH0 PUSH2 0x21DA DUP5 DUP3 DUP6 ADD PUSH2 0x1FE0 JUMP JUMPDEST SWAP2 POP POP SWAP3 SWAP2 POP POP JUMP JUMPDEST PUSH0 PUSH1 0x20 DUP3 DUP5 SUB SLT ISZERO PUSH2 0x21F8 JUMPI PUSH2 0x21F7 PUSH2 0x1F96 JUMP JUMPDEST JUMPDEST PUSH0 PUSH2 0x2205 DUP5 DUP3 DUP6 ADD PUSH2 0x2013 JUMP JUMPDEST SWAP2 POP POP SWAP3 SWAP2 POP POP JUMP JUMPDEST PUSH0 PUSH2 0x2218 DUP3 PUSH2 0x20C2 JUMP JUMPDEST SWAP1 POP SWAP2 SWAP1 POP JUMP JUMPDEST PUSH2 0x2228 DUP2 PUSH2 0x220E JUMP JUMPDEST DUP3 MSTORE POP POP JUMP JUMPDEST PUSH0 PUSH1 0x20 DUP3 ADD SWAP1 POP PUSH2 0x2241 PUSH0 DUP4 ADD DUP5 PUSH2 0x221F JUMP JUMPDEST SWAP3 SWAP2 POP POP JUMP JUMPDEST PUSH2 0x2250 DUP2 PUSH2 0x1FB9 JUMP JUMPDEST DUP3 MSTORE POP POP JUMP JUMPDEST PUSH0 PUSH1 0x20 DUP3 ADD SWAP1 POP PUSH2 0x2269 PUSH0 DUP4 ADD DUP5 PUSH2 0x2247 JUMP JUMPDEST SWAP3 SWAP2 POP POP JUMP JUMPDEST PUSH0 DUP1 PUSH1 0x40 DUP4 DUP6 SUB SLT ISZERO PUSH2 0x2285 JUMPI PUSH2 0x2284 PUSH2 0x1F96 JUMP JUMPDEST JUMPDEST PUSH0 PUSH2 0x2292 DUP6 DUP3 DUP7 ADD PUSH2 0x1FE0 JUMP JUMPDEST SWAP3 POP POP PUSH1 0x20 PUSH2 0x22A3 DUP6 DUP3 DUP7 ADD PUSH2 0x1FE0 JUMP JUMPDEST SWAP2 POP POP SWAP3 POP SWAP3 SWAP1 POP JUMP JUMPDEST PUSH32 0x4E487B7100000000000000000000000000000000000000000000000000000000 PUSH0 MSTORE PUSH1 0x22 PUSH1 0x4 MSTORE PUSH1 0x24 PUSH0 REVERT JUMPDEST PUSH0 PUSH1 0x2 DUP3 DIV SWAP1 POP PUSH1 0x1 DUP3 AND DUP1 PUSH2 0x22F1 JUMPI PUSH1 0x7F DUP3 AND SWAP2 POP JUMPDEST PUSH1 0x20 DUP3 LT DUP2 SUB PUSH2 0x2304 JUMPI PUSH2 0x2303 PUSH2 0x22AD JUMP JUMPDEST JUMPDEST POP SWAP2 SWAP1 POP JUMP JUMPDEST PUSH32 0x4E6F7420656E6F75676820635553440000000000000000000000000000000000 PUSH0 DUP3 ADD MSTORE POP JUMP JUMPDEST PUSH0 PUSH2 0x233E PUSH1 0xF DUP4 PUSH2 0x1EF6 JUMP JUMPDEST SWAP2 POP PUSH2 0x2349 DUP3 PUSH2 0x230A JUMP JUMPDEST PUSH1 0x20 DUP3 ADD SWAP1 POP SWAP2 SWAP1 POP JUMP JUMPDEST PUSH0 PUSH1 0x20 DUP3 ADD SWAP1 POP DUP2 DUP2 SUB PUSH0 DUP4 ADD MSTORE PUSH2 0x236B DUP2 PUSH2 0x2332 JUMP JUMPDEST SWAP1 POP SWAP2 SWAP1 POP JUMP JUMPDEST PUSH32 0x4E6F7420656E6F75676820636F6C6C61746572616C0000000000000000000000 PUSH0 DUP3 ADD MSTORE POP JUMP JUMPDEST PUSH0 PUSH2 0x23A6 PUSH1 0x15 DUP4 PUSH2 0x1EF6 JUMP JUMPDEST SWAP2 POP PUSH2 0x23B1 DUP3 PUSH2 0x2372 JUMP JUMPDEST PUSH1 0x20 DUP3 ADD SWAP1 POP SWAP2 SWAP1 POP JUMP JUMPDEST PUSH0 PUSH1 0x20 DUP3 ADD SWAP1 POP DUP2 DUP2 SUB PUSH0 DUP4 ADD MSTORE PUSH2 0x23D3 DUP2 PUSH2 0x239A JUMP JUMPDEST SWAP1 POP SWAP2 SWAP1 POP JUMP JUMPDEST PUSH0 DUP2 MLOAD SWAP1 POP PUSH2 0x23E8 DUP2 PUSH2 0x1FFD JUMP JUMPDEST SWAP3 SWAP2 POP POP JUMP JUMPDEST PUSH0 PUSH1 0x20 DUP3 DUP5 SUB SLT ISZERO PUSH2 0x2403 JUMPI PUSH2 0x2402 PUSH2 0x1F96 JUMP JUMPDEST JUMPDEST PUSH0 PUSH2 0x2410 DUP5 DUP3 DUP6 ADD PUSH2 0x23DA JUMP JUMPDEST SWAP2 POP POP SWAP3 SWAP2 POP POP JUMP JUMPDEST PUSH32 0x4E487B7100000000000000000000000000000000000000000000000000000000 PUSH0 MSTORE PUSH1 0x11 PUSH1 0x4 MSTORE PUSH1 0x24 PUSH0 REVERT JUMPDEST PUSH0 PUSH2 0x2450 DUP3 PUSH2 0x1FF4 JUMP JUMPDEST SWAP2 POP PUSH2 0x245B DUP4 PUSH2 0x1FF4 JUMP JUMPDEST SWAP3 POP DUP3 DUP3 MUL PUSH2 0x2469 DUP2 PUSH2 0x1FF4 JUMP JUMPDEST SWAP2 POP DUP3 DUP3 DIV DUP5 EQ DUP4 ISZERO OR PUSH2 0x2480 JUMPI PUSH2 0x247F PUSH2 0x2419 JUMP JUMPDEST JUMPDEST POP SWAP3 SWAP2 POP POP JUMP JUMPDEST PUSH32 0x4E487B7100000000000000000000000000000000000000000000000000000000 PUSH0 MSTORE PUSH1 0x12 PUSH1 0x4 MSTORE PUSH1 0x24 PUSH0 REVERT JUMPDEST PUSH0 PUSH2 0x24BE DUP3 PUSH2 0x1FF4 JUMP JUMPDEST SWAP2 POP PUSH2 0x24C9 DUP4 PUSH2 0x1FF4 JUMP JUMPDEST SWAP3 POP DUP3 PUSH2 0x24D9 JUMPI PUSH2 0x24D8 PUSH2 0x2487 JUMP JUMPDEST JUMPDEST DUP3 DUP3 DIV SWAP1 POP SWAP3 SWAP2 POP POP JUMP JUMPDEST PUSH0 PUSH2 0x24EE DUP3 PUSH2 0x1FF4 JUMP JUMPDEST SWAP2 POP PUSH2 0x24F9 DUP4 PUSH2 0x1FF4 JUMP JUMPDEST SWAP3 POP DUP3 DUP3 SUB SWAP1 POP DUP2 DUP2 GT ISZERO PUSH2 0x2511 JUMPI PUSH2 0x2510 PUSH2 0x2419 JUMP JUMPDEST JUMPDEST SWAP3 SWAP2 POP POP JUMP JUMPDEST PUSH32 0x5769746864726177616C20776F756C6420756E646572636F6C6C61746572616C PUSH0 DUP3 ADD MSTORE PUSH32 0x697A650000000000000000000000000000000000000000000000000000000000 PUSH1 0x20 DUP3 ADD MSTORE POP JUMP JUMPDEST PUSH0 PUSH2 0x2571 PUSH1 0x23 DUP4 PUSH2 0x1EF6 JUMP JUMPDEST SWAP2 POP PUSH2 0x257C DUP3 PUSH2 0x2517 JUMP JUMPDEST PUSH1 0x40 DUP3 ADD SWAP1 POP SWAP2 SWAP1 POP JUMP JUMPDEST PUSH0 PUSH1 0x20 DUP3 ADD SWAP1 POP DUP2 DUP2 SUB PUSH0 DUP4 ADD MSTORE PUSH2 0x259E DUP2 PUSH2 0x2565 JUMP JUMPDEST SWAP1 POP SWAP2 SWAP1 POP JUMP JUMPDEST PUSH0 PUSH1 0x40 DUP3 ADD SWAP1 POP PUSH2 0x25B8 PUSH0 DUP4 ADD DUP6 PUSH2 0x2247 JUMP JUMPDEST PUSH2 0x25C5 PUSH1 0x20 DUP4 ADD DUP5 PUSH2 0x210C JUMP JUMPDEST SWAP4 SWAP3 POP POP POP JUMP JUMPDEST PUSH2 0x25D5 DUP2 PUSH2 0x2065 JUMP JUMPDEST DUP2 EQ PUSH2 0x25DF JUMPI PUSH0 DUP1 REVERT JUMPDEST POP JUMP JUMPDEST PUSH0 DUP2 MLOAD SWAP1 POP PUSH2 0x25F0 DUP2 PUSH2 0x25CC JUMP JUMPDEST SWAP3 SWAP2 POP POP JUMP JUMPDEST PUSH0 PUSH1 0x20 DUP3 DUP5 SUB SLT ISZERO PUSH2 0x260B JUMPI PUSH2 0x260A PUSH2 0x1F96 JUMP JUMPDEST JUMPDEST PUSH0 PUSH2 0x2618 DUP5 DUP3 DUP6 ADD PUSH2 0x25E2 JUMP JUMPDEST SWAP2 POP POP SWAP3 SWAP2 POP POP JUMP JUMPDEST PUSH32 0x63425443207472616E73666572206661696C6564000000000000000000000000 PUSH0 DUP3 ADD MSTORE POP JUMP JUMPDEST PUSH0 PUSH2 0x2655 PUSH1 0x14 DUP4 PUSH2 0x1EF6 JUMP JUMPDEST SWAP2 POP PUSH2 0x2660 DUP3 PUSH2 0x2621 JUMP JUMPDEST PUSH1 0x20 DUP3 ADD SWAP1 POP SWAP2 SWAP1 POP JUMP JUMPDEST PUSH0 PUSH1 0x20 DUP3 ADD SWAP1 POP DUP2 DUP2 SUB PUSH0 DUP4 ADD MSTORE PUSH2 0x2682 DUP2 PUSH2 0x2649 JUMP JUMPDEST SWAP1 POP SWAP2 SWAP1 POP JUMP JUMPDEST PUSH32 0x526174696F206D757374206265203E3D20313030250000000000000000000000 PUSH0 DUP3 ADD MSTORE POP JUMP JUMPDEST PUSH0 PUSH2 0x26BD PUSH1 0x15 DUP4 PUSH2 0x1EF6 JUMP JUMPDEST SWAP2 POP PUSH2 0x26C8 DUP3 PUSH2 0x2689 JUMP JUMPDEST PUSH1 0x20 DUP3 ADD SWAP1 POP SWAP2 SWAP1 POP JUMP JUMPDEST PUSH0 PUSH1 0x20 DUP3 ADD SWAP1 POP DUP2 DUP2 SUB PUSH0 DUP4 ADD MSTORE PUSH2 0x26EA DUP2 PUSH2 0x26B1 JUMP JUMPDEST SWAP1 POP SWAP2 SWAP1 POP JUMP JUMPDEST PUSH32 0x416D6F756E74206D757374206265203E20300000000000000000000000000000 PUSH0 DUP3 ADD MSTORE POP JUMP JUMPDEST PUSH0 PUSH2 0x2725 PUSH1 0x12 DUP4 PUSH2 0x1EF6 JUMP JUMPDEST SWAP2 POP PUSH2 0x2730 DUP3 PUSH2 0x26F1 JUMP JUMPDEST PUSH1 0x20 DUP3 ADD SWAP1 POP SWAP2 SWAP1 POP JUMP JUMPDEST PUSH0 PUSH1 0x20 DUP3 ADD SWAP1 POP DUP2 DUP2 SUB PUSH0 DUP4 ADD MSTORE PUSH2 0x2752 DUP2 PUSH2 0x2719 JUMP JUMPDEST SWAP1 POP SWAP2 SWAP1 POP JUMP JUMPDEST PUSH0 PUSH1 0x60 DUP3 ADD SWAP1 POP PUSH2 0x276C PUSH0 DUP4 ADD DUP7 PUSH2 0x2247 JUMP JUMPDEST PUSH2 0x2779 PUSH1 0x20 DUP4 ADD DUP6 PUSH2 0x2247 JUMP JUMPDEST PUSH2 0x2786 PUSH1 0x40 DUP4 ADD DUP5 PUSH2 0x210C JUMP JUMPDEST SWAP5 SWAP4 POP POP POP POP JUMP JUMPDEST PUSH0 PUSH2 0x2798 DUP3 PUSH2 0x1FF4 JUMP JUMPDEST SWAP2 POP PUSH2 0x27A3 DUP4 PUSH2 0x1FF4 JUMP JUMPDEST SWAP3 POP DUP3 DUP3 ADD SWAP1 POP DUP1 DUP3 GT ISZERO PUSH2 0x27BB JUMPI PUSH2 0x27BA PUSH2 0x2419 JUMP JUMPDEST JUMPDEST SWAP3 SWAP2 POP POP JUMP JUMPDEST PUSH32 0x4C697175696461746F72206E6F7420656E6F7567682063555344000000000000 PUSH0 DUP3 ADD MSTORE POP JUMP JUMPDEST PUSH0 PUSH2 0x27F5 PUSH1 0x1A DUP4 PUSH2 0x1EF6 JUMP JUMPDEST SWAP2 POP PUSH2 0x2800 DUP3 PUSH2 0x27C1 JUMP JUMPDEST PUSH1 0x20 DUP3 ADD SWAP1 POP SWAP2 SWAP1 POP JUMP JUMPDEST PUSH0 PUSH1 0x20 DUP3 ADD SWAP1 POP DUP2 DUP2 SUB PUSH0 DUP4 ADD MSTORE PUSH2 0x2822 DUP2 PUSH2 0x27E9 JUMP JUMPDEST SWAP1 POP SWAP2 SWAP1 POP JUMP JUMPDEST PUSH0 PUSH1 0x40 DUP3 ADD SWAP1 POP PUSH2 0x283C PUSH0 DUP4 ADD DUP6 PUSH2 0x210C JUMP JUMPDEST PUSH2 0x2849 PUSH1 0x20 DUP4 ADD DUP5 PUSH2 0x210C JUMP JUMPDEST SWAP4 SWAP3 POP POP POP JUMP JUMPDEST PUSH32 0x46656520746F6F20686967680000000000000000000000000000000000000000 PUSH0 DUP3 ADD MSTORE POP JUMP JUMPDEST PUSH0 PUSH2 0x2884 PUSH1 0xC DUP4 PUSH2 0x1EF6 JUMP JUMPDEST SWAP2 POP PUSH2 0x288F DUP3 PUSH2 0x2850 JUMP JUMPDEST PUSH1 0x20 DUP3 ADD SWAP1 POP SWAP2 SWAP1 POP JUMP JUMPDEST PUSH0 PUSH1 0x20 DUP3 ADD SWAP1 POP DUP2 DUP2 SUB PUSH0 DUP4 ADD MSTORE PUSH2 0x28B1 DUP2 PUSH2 0x2878 JUMP JUMPDEST SWAP1 POP SWAP2 SWAP1 POP JUMP JUMPDEST PUSH0 PUSH1 0x60 DUP3 ADD SWAP1 POP PUSH2 0x28CB PUSH0 DUP4 ADD DUP7 PUSH2 0x2247 JUMP JUMPDEST PUSH2 0x28D8 PUSH1 0x20 DUP4 ADD DUP6 PUSH2 0x210C JUMP JUMPDEST PUSH2 0x28E5 PUSH1 0x40 DUP4 ADD DUP5 PUSH2 0x210C JUMP JUMPDEST SWAP5 SWAP4 POP POP POP POP JUMP INVALID LOG2 PUSH5 0x6970667358 0x22 SLT KECCAK256 GT BLOBBASEFEE 0xB4 CALLER 0x28 0xAA 0xCA TLOAD EXTCODEHASH 0x29 SWAP7 LOG1 ORIGIN 0xA5 SELFDESTRUCT TSTORE 0xC3 0xD3 DUP4 0xDC TIMESTAMP PUSH8 0xE9A438D4BA8F9239 CALLCODE 0xC1 PUSH5 0x736F6C6343 STOP ADDMOD BYTE STOP CALLER "
				},
				"gasEstimates": {
					"creation": {
						"codeDepositCost": "2106200",
						"executionCost": "infinite",
						"totalCost": "infinite"
					},
					"external": {
						"accrueInterest()": "infinite",
						"allowance(address,address)": "infinite",
						"approve(address,uint256)": "infinite",
						"balanceOf(address)": "2896",
						"burnStableCoin(address,uint256)": "infinite",
						"cBTC()": "infinite",
						"cBTCDeposits(address)": "2892",
						"collateralRatio()": "2514",
						"decimals()": "450",
						"depositCollateral(address,uint256)": "infinite",
						"getCollateralRatio()": "2499",
						"getUserCollateral(address)": "2940",
						"lastAccrualTime()": "2514",
						"liquidate(address,uint256)": "infinite",
						"mintStableCoin(address,uint256)": "infinite",
						"name()": "infinite",
						"oracle()": "infinite",
						"owner()": "2561",
						"renounceOwnership()": "infinite",
						"setCollateralRatio(uint256)": "infinite",
						"setStabilityFee(uint256)": "infinite",
						"stabilityFee()": "2493",
						"symbol()": "infinite",
						"totalSupply()": "2500",
						"transfer(address,uint256)": "infinite",
						"transferFrom(address,address,uint256)": "infinite",
						"transferOwnership(address)": "infinite",
						"withdrawCollateral(address,uint256)": "infinite"
					}
				},
				"methodIdentifiers": {
					"accrueInterest()": "a6afed95",
					"allowance(address,address)": "dd62ed3e",
					"approve(address,uint256)": "095ea7b3",
					"balanceOf(address)": "70a08231",
					"burnStableCoin(address,uint256)": "1455b3ab",
					"cBTC()": "0ae8c4dc",
					"cBTCDeposits(address)": "4e8d048b",
					"collateralRatio()": "b4eae1cb",
					"decimals()": "313ce567",
					"depositCollateral(address,uint256)": "a5d5db0c",
					"getCollateralRatio()": "cd377c53",
					"getUserCollateral(address)": "b6f7132f",
					"lastAccrualTime()": "d7e72708",
					"liquidate(address,uint256)": "bcbaf487",
					"mintStableCoin(address,uint256)": "ea629db0",
					"name()": "06fdde03",
					"oracle()": "7dc0d1d0",
					"owner()": "8da5cb5b",
					"renounceOwnership()": "715018a6",
					"setCollateralRatio(uint256)": "6060663e",
					"setStabilityFee(uint256)": "fb4ca35b",
					"stabilityFee()": "361416e1",
					"symbol()": "95d89b41",
					"totalSupply()": "18160ddd",
					"transfer(address,uint256)": "a9059cbb",
					"transferFrom(address,address,uint256)": "23b872dd",
					"transferOwnership(address)": "f2fde38b",
					"withdrawCollateral(address,uint256)": "350c35e9"
				}
			},
			"storageLayout": {
				"storage": [
					{
						"astId": 307,
						"contract": "contracts/StableCoin.sol:StableCoin",
						"label": "_balances",
						"offset": 0,
						"slot": "0",
						"type": "t_mapping(t_address,t_uint256)"
					},
					{
						"astId": 313,
						"contract": "contracts/StableCoin.sol:StableCoin",
						"label": "_allowances",
						"offset": 0,
						"slot": "1",
						"type": "t_mapping(t_address,t_mapping(t_address,t_uint256))"
					},
					{
						"astId": 315,
						"contract": "contracts/StableCoin.sol:StableCoin",
						"label": "_totalSupply",
						"offset": 0,
						"slot": "2",
						"type": "t_uint256"
					},
					{
						"astId": 317,
						"contract": "contracts/StableCoin.sol:StableCoin",
						"label": "_name",
						"offset": 0,
						"slot": "3",
						"type": "t_string_storage"
					},
					{
						"astId": 319,
						"contract": "contracts/StableCoin.sol:StableCoin",
						"label": "_symbol",
						"offset": 0,
						"slot": "4",
						"type": "t_string_storage"
					},
					{
						"astId": 8,
						"contract": "contracts/StableCoin.sol:StableCoin",
						"label": "_owner",
						"offset": 0,
						"slot": "5",
						"type": "t_address"
					},
					{
						"astId": 950,
						"contract": "contracts/StableCoin.sol:StableCoin",
						"label": "cBTC",
						"offset": 0,
						"slot": "6",
						"type": "t_contract(IERC20)877"
					},
					{
						"astId": 953,
						"contract": "contracts/StableCoin.sol:StableCoin",
						"label": "oracle",
						"offset": 0,
						"slot": "7",
						"type": "t_contract(IPriceOracle)1589"
					},
					{
						"astId": 955,
						"contract": "contracts/StableCoin.sol:StableCoin",
						"label": "collateralRatio",
						"offset": 0,
						"slot": "8",
						"type": "t_uint256"
					},
					{
						"astId": 957,
						"contract": "contracts/StableCoin.sol:StableCoin",
						"label": "stabilityFee",
						"offset": 0,
						"slot": "9",
						"type": "t_uint256"
					},
					{
						"astId": 959,
						"contract": "contracts/StableCoin.sol:StableCoin",
						"label": "lastAccrualTime",
						"offset": 0,
						"slot": "10",
						"type": "t_uint256"
					},
					{
						"astId": 963,
						"contract": "contracts/StableCoin.sol:StableCoin",
						"label": "cBTCDeposits",
						"offset": 0,
						"slot": "11",
						"type": "t_mapping(t_address,t_uint256)"
					}
				],
				"types": {
					"t_address": {
						"encoding": "inplace",
						"label": "address",
						"numberOfBytes": "20"
					},
					"t_contract(IERC20)877": {
						"encoding": "inplace",
						"label": "contract IERC20",
						"numberOfBytes": "20"
					},
					"t_contract(IPriceOracle)1589": {
						"encoding": "inplace",
						"label": "contract IPriceOracle",
						"numberOfBytes": "20"
					},
					"t_mapping(t_address,t_mapping(t_address,t_uint256))": {
						"encoding": "mapping",
						"key": "t_address",
						"label": "mapping(address => mapping(address => uint256))",
						"numberOfBytes": "32",
						"value": "t_mapping(t_address,t_uint256)"
					},
					"t_mapping(t_address,t_uint256)": {
						"encoding": "mapping",
						"key": "t_address",
						"label": "mapping(address => uint256)",
						"numberOfBytes": "32",
						"value": "t_uint256"
					},
					"t_string_storage": {
						"encoding": "bytes",
						"label": "string",
						"numberOfBytes": "32"
					},
					"t_uint256": {
						"encoding": "inplace",
						"label": "uint256",
						"numberOfBytes": "32"
					}
				}
			},
			"userdoc": {
				"kind": "user",
				"methods": {},
				"version": 1
			}
		}
	}
}