{
	"data": {
		"bytecode": {
			"linkReferences": {},
			"object": "610180604052348015610010575f80fd5b506040516169b83803806169b88339818101604052810190610032919061042a565b81816040518060400160405280600e81526020017f436974726561476f7665726e6f720000000000000000000000000000000000008152508061007961018060201b60201c565b61008c5f836101bd60201b90919060201c565b61012081815250506100a86001826101bd60201b90919060201c565b6101408181525050818051906020012060e08181525050808051906020012061010081815250504660a081815250506100e561020a60201b60201c565b608081815250503073ffffffffffffffffffffffffffffffffffffffff1660c08173ffffffffffffffffffffffffffffffffffffffff16815250505050806002908161013191906106a2565b50506101428161026460201b60201c565b508073ffffffffffffffffffffffffffffffffffffffff166101608173ffffffffffffffffffffffffffffffffffffffff1681525050505050610952565b60606040518060400160405280600181526020017f3100000000000000000000000000000000000000000000000000000000000000815250905090565b5f6020835110156101de576101d78361030160201b60201c565b9050610204565b826101ee8361036660201b60201c565b5f0190816101fc91906106a2565b5060ff5f1b90505b92915050565b5f7f8b73c3c69bb8fe3d512ecc4cf759cc79239f7b179b0ffacaa9a75d522b39400f60e0516101005146306040516020016102499594939291906107a7565b60405160208183030381529060405280519060200120905090565b7f08f74ea46ef7894f65eabfb5e6e695de773a000b47c529ab559178069b22640160075f9054906101000a900473ffffffffffffffffffffffffffffffffffffffff16826040516102b69291906107f8565b60405180910390a18060075f6101000a81548173ffffffffffffffffffffffffffffffffffffffff021916908373ffffffffffffffffffffffffffffffffffffffff16021790555050565b5f80829050601f8151111561034d57826040517f305a27a9000000000000000000000000000000000000000000000000000000008152600401610344919061089f565b60405180910390fd5b805181610359906108ec565b5f1c175f1b915050919050565b5f819050919050565b5f80fd5b5f73ffffffffffffffffffffffffffffffffffffffff82169050919050565b5f61039c82610373565b9050919050565b5f6103ad82610392565b9050919050565b6103bd816103a3565b81146103c7575f80fd5b50565b5f815190506103d8816103b4565b92915050565b5f6103e882610373565b9050919050565b5f6103f9826103de565b9050919050565b610409816103ef565b8114610413575f80fd5b50565b5f8151905061042481610400565b92915050565b5f80604083850312156104405761043f61036f565b5b5f61044d858286016103ca565b925050602061045e85828601610416565b9150509250929050565b5f81519050919050565b7f4e487b71000000000000000000000000000000000000000000000000000000005f52604160045260245ffd5b7f4e487b71000000000000000000000000000000000000000000000000000000005f52602260045260245ffd5b5f60028204905060018216806104e357607f821691505b6020821081036104f6576104f561049f565b5b50919050565b5f819050815f5260205f209050919050565b5f6020601f8301049050919050565b5f82821b905092915050565b5f600883026105587fffffffffffffffffffffffffffffffffffffffffffffffffffffffffffffffff8261051d565b610562868361051d565b95508019841693508086168417925050509392505050565b5f819050919050565b5f819050919050565b5f6105a66105a161059c8461057a565b610583565b61057a565b9050919050565b5f819050919050565b6105bf8361058c565b6105d36105cb826105ad565b848454610529565b825550505050565b5f90565b6105e76105db565b6105f28184846105b6565b505050565b5b818110156106155761060a5f826105df565b6001810190506105f8565b5050565b601f82111561065a5761062b816104fc565b6106348461050e565b81016020851015610643578190505b61065761064f8561050e565b8301826105f7565b50505b505050565b5f82821c905092915050565b5f61067a5f198460080261065f565b1980831691505092915050565b5f610692838361066b565b9150826002028217905092915050565b6106ab82610468565b67ffffffffffffffff8111156106c4576106c3610472565b5b6106ce82546104cc565b6106d9828285610619565b5f60209050601f83116001811461070a575f84156106f8578287015190505b6107028582610687565b865550610769565b601f198416610718866104fc565b5f5b8281101561073f5784890151825560018201915060208501945060208101905061071a565b8683101561075c5784890151610758601f89168261066b565b8355505b6001600288020188555050505b505050505050565b5f819050919050565b61078381610771565b82525050565b6107928161057a565b82525050565b6107a181610392565b82525050565b5f60a0820190506107ba5f83018861077a565b6107c7602083018761077a565b6107d4604083018661077a565b6107e16060830185610789565b6107ee6080830184610798565b9695505050505050565b5f60408201905061080b5f830185610798565b6108186020830184610798565b9392505050565b5f82825260208201905092915050565b5f5b8381101561084c578082015181840152602081019050610831565b5f8484015250505050565b5f601f19601f8301169050919050565b5f61087182610468565b61087b818561081f565b935061088b81856020860161082f565b61089481610857565b840191505092915050565b5f6020820190508181035f8301526108b78184610867565b905092915050565b5f81519050919050565b5f819050602082019050919050565b5f6108e38251610771565b80915050919050565b5f6108f6826108bf565b82610900846108c9565b905061090b816108d8565b9250602082101561094b576109467fffffffffffffffffffffffffffffffffffffffffffffffffffffffffffffffff8360200360080261051d565b831692505b5050919050565b60805160a05160c05160e05161010051610120516101405161016051615ff66109c25f395f81816113340152818161168901528181611bd8015261274701525f6115cd01525f61159901525f61366201525f61364101525f612bb501525f612c0b01525f612c340152615ff65ff3fe608060405260043610610233575f3560e01c80635f398a141161012d578063c01f9e37116100aa578063deaaa7cc1161006e578063deaaa7cc146109ad578063eb9019d4146109d7578063f23a6e6114610a13578063f8ce560a14610a4f578063fc0c546a14610a8b576102af565b8063c01f9e37146108c5578063c28bc2fa14610901578063c59057e41461091d578063d33219b414610959578063dd4e2ba514610983576102af565b80639a802a6d116100f15780639a802a6d146107bf578063a890c910146107fb578063ab58fb8e14610823578063b58131b01461085f578063bc197c8114610889576102af565b80635f398a14146106b15780637b3c71d3146106ed5780637d5e81e21461072957806384b0196e1461076557806391ddadf414610795576102af565b80632fe3e261116101bb578063452115d61161017f578063452115d6146105a75780634bf5d7e9146105e3578063544ffc9c1461060d57806354fd4d501461064b5780635678138814610675576102af565b80632fe3e2611461049f5780633932abb1146104c95780633bccf4fd146104f35780633e4f49e61461052f578063438596321461056b576102af565b8063143489d011610202578063143489d01461037f578063150b7a02146103bb578063160cbed7146103f75780632656227d146104335780632d63f69314610463576102af565b806301ffc9a7146102b357806302a251a3146102ef578063034201811461031957806306fdde0314610355576102af565b366102af573073ffffffffffffffffffffffffffffffffffffffff16610257610ab5565b73ffffffffffffffffffffffffffffffffffffffff16146102ad576040517f08c379a00000000000000000000000000000000000000000000000000000000081526004016102a49061391b565b60405180910390fd5b005b5f80fd5b3480156102be575f80fd5b506102d960048036038101906102d4919061399f565b610ac3565b6040516102e691906139e4565b60405180910390f35b3480156102fa575f80fd5b50610303610ad4565b6040516103109190613a15565b60405180910390f35b348015610324575f80fd5b5061033f600480360381019061033a9190613c5a565b610add565b60405161034c9190613a15565b60405180910390f35b348015610360575f80fd5b50610369610bc0565b6040516103769190613d9d565b60405180910390f35b34801561038a575f80fd5b506103a560048036038101906103a09190613dbd565b610c50565b6040516103b29190613e27565b60405180910390f35b3480156103c6575f80fd5b506103e160048036038101906103dc9190613e6a565b610c8c565b6040516103ee9190613ef9565b60405180910390f35b348015610402575f80fd5b5061041d60048036038101906104189190614170565b610c9f565b60405161042a9190613a15565b60405180910390f35b61044d60048036038101906104489190614170565b610f47565b60405161045a9190613a15565b60405180910390f35b34801561046e575f80fd5b5061048960048036038101906104849190613dbd565b611090565b6040516104969190613a15565b60405180910390f35b3480156104aa575f80fd5b506104b36110c9565b6040516104c09190614237565b60405180910390f35b3480156104d4575f80fd5b506104dd6110ed565b6040516104ea9190613a15565b60405180910390f35b3480156104fe575f80fd5b5061051960048036038101906105149190614250565b6110f5565b6040516105269190613a15565b60405180910390f35b34801561053a575f80fd5b5061055560048036038101906105509190613dbd565b61117d565b604051610562919061433a565b60405180910390f35b348015610576575f80fd5b50610591600480360381019061058c9190614353565b61118e565b60405161059e91906139e4565b60405180910390f35b3480156105b2575f80fd5b506105cd60048036038101906105c89190614170565b6111f3565b6040516105da9190613a15565b60405180910390f35b3480156105ee575f80fd5b506105f7611330565b6040516106049190613d9d565b60405180910390f35b348015610618575f80fd5b50610633600480360381019061062e9190613dbd565b611406565b60405161064293929190614391565b60405180910390f35b348015610656575f80fd5b5061065f611439565b60405161066c9190613d9d565b60405180910390f35b348015610680575f80fd5b5061069b600480360381019061069691906143c6565b611476565b6040516106a89190613a15565b60405180910390f35b3480156106bc575f80fd5b506106d760048036038101906106d29190614404565b6114a5565b6040516106e49190613a15565b60405180910390f35b3480156106f8575f80fd5b50610713600480360381019061070e91906144a4565b61150d565b6040516107209190613a15565b60405180910390f35b348015610734575f80fd5b5061074f600480360381019061074a91906145b3565b611573565b60405161075c9190613a15565b60405180910390f35b348015610770575f80fd5b5061077961158a565b60405161078c9796959493929190614778565b60405180910390f35b3480156107a0575f80fd5b506107a9611686565b6040516107b6919061481a565b60405180910390f35b3480156107ca575f80fd5b506107e560048036038101906107e09190614833565b61172b565b6040516107f29190613a15565b60405180910390f35b348015610806575f80fd5b50610821600480360381019061081c91906148eb565b611740565b005b34801561082e575f80fd5b5061084960048036038101906108449190613dbd565b611836565b6040516108569190613a15565b60405180910390f35b34801561086a575f80fd5b506108736118fc565b6040516108809190613a15565b60405180910390f35b348015610894575f80fd5b506108af60048036038101906108aa9190614916565b611900565b6040516108bc9190613ef9565b60405180910390f35b3480156108d0575f80fd5b506108eb60048036038101906108e69190613dbd565b611914565b6040516108f89190613a15565b60405180910390f35b61091b60048036038101906109169190614a36565b61194e565b005b348015610928575f80fd5b50610943600480360381019061093e9190614170565b611ad2565b6040516109509190613a15565b60405180910390f35b348015610964575f80fd5b5061096d611b0c565b60405161097a9190613e27565b60405180910390f35b34801561098e575f80fd5b50610997611b34565b6040516109a49190613d9d565b60405180910390f35b3480156109b8575f80fd5b506109c1611b71565b6040516109ce9190614237565b60405180910390f35b3480156109e2575f80fd5b506109fd60048036038101906109f89190614aa7565b611b95565b604051610a0a9190613a15565b60405180910390f35b348015610a1e575f80fd5b50610a396004803603810190610a349190614ae5565b611bb0565b604051610a469190613ef9565b60405180910390f35b348015610a5a575f80fd5b50610a756004803603810190610a709190613dbd565b611bc4565b604051610a829190613a15565b60405180910390f35b348015610a96575f80fd5b50610a9f611bd6565b604051610aac9190614bd3565b60405180910390f35b5f610abe611bfa565b905090565b5f610acd82611c22565b9050919050565b5f61b2fa905090565b5f80610b5f610b577fb3b3f3b703cd84ce352197dcff232b1b5d3cfb2025ce47cf04742d0651f1af888c8c8c8c604051610b18929190614c1a565b60405180910390208b80519060200120604051602001610b3c959493929190614c41565b60405160208183030381529060405280519060200120611c9b565b868686611cb4565b9050610bb18a828b8b8b8080601f0160208091040260200160405190810160405280939291908181526020018383808284375f81840152601f19601f820116905080830192505050505050508a611cdd565b91505098975050505050505050565b606060028054610bcf90614cbf565b80601f0160208091040260200160405190810160405280929190818152602001828054610bfb90614cbf565b8015610c465780601f10610c1d57610100808354040283529160200191610c46565b820191905f5260205f20905b815481529060010190602001808311610c2957829003601f168201915b5050505050905090565b5f60035f8381526020019081526020015f205f0160089054906101000a900473ffffffffffffffffffffffffffffffffffffffff169050919050565b5f63150b7a0260e01b9050949350505050565b5f80610cad86868686611ad2565b905060046007811115610cc357610cc26142c7565b5b610ccc8261117d565b6007811115610cde57610cdd6142c7565b5b14610d1e576040517f08c379a0000000000000000000000000000000000000000000000000000000008152600401610d1590614d5f565b60405180910390fd5b5f60075f9054906101000a900473ffffffffffffffffffffffffffffffffffffffff1673ffffffffffffffffffffffffffffffffffffffff1663f27a0c926040518163ffffffff1660e01b8152600401602060405180830381865afa158015610d89573d5f803e3d5ffd5b505050506040513d601f19601f82011682018060405250810190610dad9190614d91565b905060075f9054906101000a900473ffffffffffffffffffffffffffffffffffffffff1673ffffffffffffffffffffffffffffffffffffffff1663b1c5f4278888885f896040518663ffffffff1660e01b8152600401610e11959493929190614fc4565b602060405180830381865afa158015610e2c573d5f803e3d5ffd5b505050506040513d601f19601f82011682018060405250810190610e50919061503e565b60085f8481526020019081526020015f208190555060075f9054906101000a900473ffffffffffffffffffffffffffffffffffffffff1673ffffffffffffffffffffffffffffffffffffffff16638f2a0bb08888885f89876040518763ffffffff1660e01b8152600401610ec996959493929190615069565b5f604051808303815f87803b158015610ee0575f80fd5b505af1158015610ef2573d5f803e3d5ffd5b505050507f9a2e42fd6722813d69113e7d0079d3d940171428df7373df9c7f7617cfda2892828242610f24919061510a565b604051610f3292919061513d565b60405180910390a18192505050949350505050565b5f80610f5586868686611ad2565b90505f610f618261117d565b905060046007811115610f7757610f766142c7565b5b816007811115610f8a57610f896142c7565b5b1480610fba575060056007811115610fa557610fa46142c7565b5b816007811115610fb857610fb76142c7565b5b145b610ff9576040517f08c379a0000000000000000000000000000000000000000000000000000000008152600401610ff090614d5f565b60405180910390fd5b600160035f8481526020019081526020015f206002015f6101000a81548160ff0219169083151502179055507f712ae1383f79ac853f8d882153778e0260ef8f03b504e2866e0593e04d2b291f826040516110549190613a15565b60405180910390a16110698288888888611e62565b6110768288888888611f3e565b6110838288888888611f52565b8192505050949350505050565b5f60035f8381526020019081526020015f205f015f9054906101000a900467ffffffffffffffff1667ffffffffffffffff169050919050565b7fb3b3f3b703cd84ce352197dcff232b1b5d3cfb2025ce47cf04742d0651f1af8881565b5f6001905090565b5f8061115561114d7f150214d74d59b7d1e90c73fc22ef3d991dd0a76b046543d4d80ab92d2a50328f898960405160200161113293929190615164565b60405160208183030381529060405280519060200120611c9b565b868686611cb4565b905061117187828860405180602001604052805f815250611fad565b91505095945050505050565b5f61118782611fcc565b9050919050565b5f60065f8481526020019081526020015f206003015f8373ffffffffffffffffffffffffffffffffffffffff1673ffffffffffffffffffffffffffffffffffffffff1681526020019081526020015f205f9054906101000a900460ff16905092915050565b5f8061120186868686611ad2565b90505f6007811115611216576112156142c7565b5b61121f8261117d565b6007811115611231576112306142c7565b5b14611271576040517f08c379a0000000000000000000000000000000000000000000000000000000008152600401611268906151e3565b60405180910390fd5b60035f8281526020019081526020015f205f0160089054906101000a900473ffffffffffffffffffffffffffffffffffffffff1673ffffffffffffffffffffffffffffffffffffffff166112c3612194565b73ffffffffffffffffffffffffffffffffffffffff1614611319576040517f08c379a000000000000000000000000000000000000000000000000000000000815260040161131090615271565b60405180910390fd5b6113258686868661219b565b915050949350505050565b60607f000000000000000000000000000000000000000000000000000000000000000073ffffffffffffffffffffffffffffffffffffffff16634bf5d7e96040518163ffffffff1660e01b81526004015f60405180830381865afa9250505080156113bd57506040513d5f823e3d601f19601f820116820180604052508101906113ba91906152fd565b60015b6113fe576040518060400160405280601d81526020017f6d6f64653d626c6f636b6e756d6265722666726f6d3d64656661756c740000008152509050611403565b809150505b90565b5f805f8060065f8681526020019081526020015f209050805f015481600101548260020154935093509350509193909250565b60606040518060400160405280600181526020017f3100000000000000000000000000000000000000000000000000000000000000815250905090565b5f80611480612194565b905061149c84828560405180602001604052805f815250611fad565b91505092915050565b5f806114af612194565b905061150187828888888080601f0160208091040260200160405190810160405280939291908181526020018383808284375f81840152601f19601f8201169050808301925050505050505087611cdd565b91505095945050505050565b5f80611517612194565b905061156886828787878080601f0160208091040260200160405190810160405280939291908181526020018383808284375f81840152601f19601f82011690508083019250505050505050611fad565b915050949350505050565b5f611580858585856121b2565b9050949350505050565b5f6060805f805f60606115c65f7f000000000000000000000000000000000000000000000000000000000000000061264390919063ffffffff16565b6115fa60017f000000000000000000000000000000000000000000000000000000000000000061264390919063ffffffff16565b46305f801b5f67ffffffffffffffff81111561161957611618613b03565b5b6040519080825280602002602001820160405280156116475781602001602082028036833780820191505090505b507f0f00000000000000000000000000000000000000000000000000000000000000959493929190965096509650965096509650965090919293949596565b5f7f000000000000000000000000000000000000000000000000000000000000000073ffffffffffffffffffffffffffffffffffffffff166391ddadf46040518163ffffffff1660e01b8152600401602060405180830381865afa92505050801561170f57506040513d601f19601f8201168201806040525081019061170c919061536e565b60015b6117235761171c436126f0565b9050611728565b809150505b90565b5f611737848484612744565b90509392505050565b611748610ab5565b73ffffffffffffffffffffffffffffffffffffffff16611766612194565b73ffffffffffffffffffffffffffffffffffffffff16146117bc576040517f08c379a00000000000000000000000000000000000000000000000000000000081526004016117b3906153e3565b60405180910390fd5b3073ffffffffffffffffffffffffffffffffffffffff166117db610ab5565b73ffffffffffffffffffffffffffffffffffffffff161461182a575f6117ff6127e8565b60405161180d929190614c1a565b604051809103902090505b8061182360046127f4565b0361181857505b611833816128c5565b50565b5f8060075f9054906101000a900473ffffffffffffffffffffffffffffffffffffffff1673ffffffffffffffffffffffffffffffffffffffff1663d45c443560085f8681526020019081526020015f20546040518263ffffffff1660e01b81526004016118a39190614237565b602060405180830381865afa1580156118be573d5f803e3d5ffd5b505050506040513d601f19601f820116820180604052508101906118e29190614d91565b9050600181146118f257806118f4565b5f5b915050919050565b5f90565b5f63bc197c8160e01b905095945050505050565b5f60035f8381526020019081526020015f206001015f9054906101000a900467ffffffffffffffff1667ffffffffffffffff169050919050565b611956610ab5565b73ffffffffffffffffffffffffffffffffffffffff16611974612194565b73ffffffffffffffffffffffffffffffffffffffff16146119ca576040517f08c379a00000000000000000000000000000000000000000000000000000000081526004016119c1906153e3565b60405180910390fd5b3073ffffffffffffffffffffffffffffffffffffffff166119e9610ab5565b73ffffffffffffffffffffffffffffffffffffffff1614611a38575f611a0d6127e8565b604051611a1b929190614c1a565b604051809103902090505b80611a3160046127f4565b03611a2657505b5f808573ffffffffffffffffffffffffffffffffffffffff16858585604051611a62929190614c1a565b5f6040518083038185875af1925050503d805f8114611a9c576040519150601f19603f3d011682016040523d82523d5f602084013e611aa1565b606091505b5091509150611ac98282604051806060016040528060288152602001615f9960289139612962565b50505050505050565b5f84848484604051602001611aea9493929190615401565b604051602081830303815290604052805190602001205f1c9050949350505050565b5f60075f9054906101000a900473ffffffffffffffffffffffffffffffffffffffff16905090565b60606040518060400160405280602081526020017f737570706f72743d627261766f2671756f72756d3d666f722c6162737461696e815250905090565b7f150214d74d59b7d1e90c73fc22ef3d991dd0a76b046543d4d80ab92d2a50328f81565b5f611ba88383611ba3612984565b612744565b905092915050565b5f63f23a6e6160e01b905095945050505050565b5f68056bc75e2d631000009050919050565b7f000000000000000000000000000000000000000000000000000000000000000081565b5f60075f9054906101000a900473ffffffffffffffffffffffffffffffffffffffff16905090565b5f7f6e665ced000000000000000000000000000000000000000000000000000000007bffffffffffffffffffffffffffffffffffffffffffffffffffffffff1916827bffffffffffffffffffffffffffffffffffffffffffffffffffffffff19161480611c945750611c938261299a565b5b9050919050565b5f611cad611ca7612bb2565b83612c68565b9050919050565b5f805f611cc387878787612ca8565b91509150611cd081612d80565b8192505050949350505050565b5f8060035f8881526020019081526020015f20905060016007811115611d0657611d056142c7565b5b611d0f8861117d565b6007811115611d2157611d206142c7565b5b14611d61576040517f08c379a0000000000000000000000000000000000000000000000000000000008152600401611d58906154c9565b60405180910390fd5b5f611d8d87835f015f9054906101000a900467ffffffffffffffff1667ffffffffffffffff1686612744565b9050611d9c8888888488612ee5565b5f845103611dfd578673ffffffffffffffffffffffffffffffffffffffff167fb8e138887d0aa13bab447e82de9d5c1777041ecd21ca36ba824ff1e6c07ddda489888489604051611df094939291906154e7565b60405180910390a2611e54565b8673ffffffffffffffffffffffffffffffffffffffff167fe2babfbac5889a709b63bb7f598b324e08bc5a4fb9ec647fb3cbc9ec07eb87128988848989604051611e4b959493929190615579565b60405180910390a25b809250505095945050505050565b3073ffffffffffffffffffffffffffffffffffffffff16611e81610ab5565b73ffffffffffffffffffffffffffffffffffffffff1614611f37575f5b8451811015611f35573073ffffffffffffffffffffffffffffffffffffffff16858281518110611ed157611ed06155d8565b5b602002602001015173ffffffffffffffffffffffffffffffffffffffff1603611f2a57611f29838281518110611f0a57611f096155d8565b5b60200260200101518051906020012060046130db90919063ffffffff16565b5b806001019050611e9e565b505b5050505050565b611f4b8585858585613152565b5050505050565b3073ffffffffffffffffffffffffffffffffffffffff16611f71610ab5565b73ffffffffffffffffffffffffffffffffffffffff1614611fa657611f9660046131ea565b611fa557611fa4600461321b565b5b5b5050505050565b5f611fc285858585611fbd612984565b611cdd565b9050949350505050565b5f80611fd783613297565b905060046007811115611fed57611fec6142c7565b5b81600781111561200057611fff6142c7565b5b1461200e578091505061218f565b5f60085f8581526020019081526020015f205490505f801b810361203657819250505061218f565b60075f9054906101000a900473ffffffffffffffffffffffffffffffffffffffff1673ffffffffffffffffffffffffffffffffffffffff16632ab0f529826040518263ffffffff1660e01b81526004016120909190614237565b602060405180830381865afa1580156120ab573d5f803e3d5ffd5b505050506040513d601f19601f820116820180604052508101906120cf919061562f565b156120df5760079250505061218f565b60075f9054906101000a900473ffffffffffffffffffffffffffffffffffffffff1673ffffffffffffffffffffffffffffffffffffffff1663584b153e826040518263ffffffff1660e01b81526004016121399190614237565b602060405180830381865afa158015612154573d5f803e3d5ffd5b505050506040513d601f19601f82011682018060405250810190612178919061562f565b156121885760059250505061218f565b6002925050505b919050565b5f33905090565b5f6121a8858585856133ba565b9050949350505050565b5f806121bc612194565b90505f6121c7611686565b65ffffffffffff1690506121d96118fc565b6121ef836001846121ea919061565a565b611b95565b1015612230576040517f08c379a0000000000000000000000000000000000000000000000000000000008152600401612227906156fd565b60405180910390fd5b5f6122448888888880519060200120611ad2565b9050865188511461228a576040517f08c379a00000000000000000000000000000000000000000000000000000000081526004016122819061578b565b60405180910390fd5b85518851146122ce576040517f08c379a00000000000000000000000000000000000000000000000000000000081526004016122c59061578b565b60405180910390fd5b5f885111612311576040517f08c379a0000000000000000000000000000000000000000000000000000000008152600401612308906157f3565b60405180910390fd5b5f60035f8381526020019081526020015f205f015f9054906101000a900467ffffffffffffffff1667ffffffffffffffff1614612383576040517f08c379a000000000000000000000000000000000000000000000000000000000815260040161237a90615881565b60405180910390fd5b5f61238c6110ed565b83612397919061510a565b90505f6123a2610ad4565b826123ad919061510a565b90506040518060e001604052806123c38461349d565b67ffffffffffffffff1681526020018673ffffffffffffffffffffffffffffffffffffffff1681526020015f60e01b7bffffffffffffffffffffffffffffffffffffffffffffffffffffffff1916815260200161241f8361349d565b67ffffffffffffffff1681526020015f60401b67ffffffffffffffff191681526020015f151581526020015f151581525060035f8581526020019081526020015f205f820151815f015f6101000a81548167ffffffffffffffff021916908367ffffffffffffffff1602179055506020820151815f0160086101000a81548173ffffffffffffffffffffffffffffffffffffffff021916908373ffffffffffffffffffffffffffffffffffffffff1602179055506040820151815f01601c6101000a81548163ffffffff021916908360e01c02179055506060820151816001015f6101000a81548167ffffffffffffffff021916908367ffffffffffffffff16021790555060808201518160010160086101000a81548177ffffffffffffffffffffffffffffffffffffffffffffffff021916908360401c021790555060a0820151816002015f6101000a81548160ff02191690831515021790555060c08201518160020160016101000a81548160ff0219169083151502179055509050507f7d84a6263ae0d98d3329bd7b46bb4e8d6f98cd35a7adb45c274c8b7fd5ebd5e083868c8c8e5167ffffffffffffffff8111156125de576125dd613b03565b5b60405190808252806020026020018201604052801561261157816020015b60608152602001906001900390816125fc5790505b508d88888f60405161262b999897969594939291906159a2565b60405180910390a18295505050505050949350505050565b606060ff5f1b831461265f57612658836134f3565b90506126ea565b81805461266b90614cbf565b80601f016020809104026020016040519081016040528092919081815260200182805461269790614cbf565b80156126e25780601f106126b9576101008083540402835291602001916126e2565b820191905f5260205f20905b8154815290600101906020018083116126c557829003601f168201915b505050505090505b92915050565b5f65ffffffffffff801682111561273c576040517f08c379a000000000000000000000000000000000000000000000000000000000815260040161273390615ac0565b60405180910390fd5b819050919050565b5f7f000000000000000000000000000000000000000000000000000000000000000073ffffffffffffffffffffffffffffffffffffffff16633a46b1a885856040518363ffffffff1660e01b81526004016127a0929190615ade565b602060405180830381865afa1580156127bb573d5f803e3d5ffd5b505050506040513d601f19601f820116820180604052508101906127df9190614d91565b90509392505050565b365f8036915091509091565b5f6127fe826131ea565b15612835576040517f3db2a12a00000000000000000000000000000000000000000000000000000000815260040160405180910390fd5b5f825f015f9054906101000a9004600f0b9050826001015f82600f0b600f0b81526020019081526020015f20549150826001015f82600f0b600f0b81526020019081526020015f205f905560018101835f015f6101000a8154816fffffffffffffffffffffffffffffffff0219169083600f0b6fffffffffffffffffffffffffffffffff16021790555050919050565b7f08f74ea46ef7894f65eabfb5e6e695de773a000b47c529ab559178069b22640160075f9054906101000a900473ffffffffffffffffffffffffffffffffffffffff1682604051612917929190615b05565b60405180910390a18060075f6101000a81548173ffffffffffffffffffffffffffffffffffffffff021916908373ffffffffffffffffffffffffffffffffffffffff16021790555050565b606083156129725782905061297d565b61297c8383613565565b5b9392505050565b606060405180602001604052805f815250905090565b5f8063143489d060e01b63452115d660e01b1890505f639a802a6d60e01b630342018160e01b635f398a1460e01b181890505f81837fda287a1d000000000000000000000000000000000000000000000000000000007ff2e09f740000000000000000000000000000000000000000000000000000000018181890505f837fda287a1d000000000000000000000000000000000000000000000000000000007ff2e09f740000000000000000000000000000000000000000000000000000000018189050817bffffffffffffffffffffffffffffffffffffffffffffffffffffffff1916867bffffffffffffffffffffffffffffffffffffffffffffffffffffffff19161480612ae75750807bffffffffffffffffffffffffffffffffffffffffffffffffffffffff1916867bffffffffffffffffffffffffffffffffffffffffffffffffffffffff1916145b80612b2f5750837bffffffffffffffffffffffffffffffffffffffffffffffffffffffff1916867bffffffffffffffffffffffffffffffffffffffffffffffffffffffff1916145b80612b9757507f4e2312e0000000000000000000000000000000000000000000000000000000007bffffffffffffffffffffffffffffffffffffffffffffffffffffffff1916867bffffffffffffffffffffffffffffffffffffffffffffffffffffffff1916145b80612ba75750612ba6866135b4565b5b945050505050919050565b5f7f000000000000000000000000000000000000000000000000000000000000000073ffffffffffffffffffffffffffffffffffffffff163073ffffffffffffffffffffffffffffffffffffffff16148015612c2d57507f000000000000000000000000000000000000000000000000000000000000000046145b15612c5a577f00000000000000000000000000000000000000000000000000000000000000009050612c65565b612c6261361d565b90505b90565b5f6040517f190100000000000000000000000000000000000000000000000000000000000081528360028201528260228201526042812091505092915050565b5f807f7fffffffffffffffffffffffffffffff5d576e7357a4501ddfe92f46681b20a0835f1c1115612ce0575f600391509150612d77565b5f6001878787876040515f8152602001604052604051612d039493929190615b2c565b6020604051602081039080840390855afa158015612d23573d5f803e3d5ffd5b5050506020604051035190505f73ffffffffffffffffffffffffffffffffffffffff168173ffffffffffffffffffffffffffffffffffffffff1603612d6f575f60019250925050612d77565b805f92509250505b94509492505050565b5f6004811115612d9357612d926142c7565b5b816004811115612da657612da56142c7565b5b0315612ee25760016004811115612dc057612dbf6142c7565b5b816004811115612dd357612dd26142c7565b5b03612e13576040517f08c379a0000000000000000000000000000000000000000000000000000000008152600401612e0a90615bb9565b60405180910390fd5b60026004811115612e2757612e266142c7565b5b816004811115612e3a57612e396142c7565b5b03612e7a576040517f08c379a0000000000000000000000000000000000000000000000000000000008152600401612e7190615c21565b60405180910390fd5b60036004811115612e8e57612e8d6142c7565b5b816004811115612ea157612ea06142c7565b5b03612ee1576040517f08c379a0000000000000000000000000000000000000000000000000000000008152600401612ed890615caf565b60405180910390fd5b5b50565b5f60065f8781526020019081526020015f209050806003015f8673ffffffffffffffffffffffffffffffffffffffff1673ffffffffffffffffffffffffffffffffffffffff1681526020019081526020015f205f9054906101000a900460ff1615612f85576040517f08c379a0000000000000000000000000000000000000000000000000000000008152600401612f7c90615d3d565b60405180910390fd5b6001816003015f8773ffffffffffffffffffffffffffffffffffffffff1673ffffffffffffffffffffffffffffffffffffffff1681526020019081526020015f205f6101000a81548160ff0219169083151502179055505f6002811115612fef57612fee6142c7565b5b60ff168460ff16036130195782815f015f82825461300d919061510a565b925050819055506130d3565b6001600281111561302d5761302c6142c7565b5b60ff168460ff16036130585782816001015f82825461304c919061510a565b925050819055506130d2565b60028081111561306b5761306a6142c7565b5b60ff168460ff16036130965782816002015f82825461308a919061510a565b925050819055506130d1565b6040517f08c379a00000000000000000000000000000000000000000000000000000000081526004016130c890615dcb565b60405180910390fd5b5b5b505050505050565b5f825f0160109054906101000a9004600f0b905081836001015f83600f0b600f0b81526020019081526020015f208190555060018101835f0160106101000a8154816fffffffffffffffffffffffffffffffff0219169083600f0b6fffffffffffffffffffffffffffffffff160217905550505050565b60075f9054906101000a900473ffffffffffffffffffffffffffffffffffffffff1673ffffffffffffffffffffffffffffffffffffffff1663e38335e5348686865f876040518763ffffffff1660e01b81526004016131b5959493929190614fc4565b5f604051808303818588803b1580156131cc575f80fd5b505af11580156131de573d5f803e3d5ffd5b50505050505050505050565b5f815f015f9054906101000a9004600f0b600f0b825f0160109054906101000a9004600f0b600f0b13159050919050565b5f815f015f6101000a8154816fffffffffffffffffffffffffffffffff0219169083600f0b6fffffffffffffffffffffffffffffffff1602179055505f815f0160106101000a8154816fffffffffffffffffffffffffffffffff0219169083600f0b6fffffffffffffffffffffffffffffffff16021790555050565b5f8060035f8481526020019081526020015f209050806002015f9054906101000a900460ff16156132cc5760079150506133b5565b8060020160019054906101000a900460ff16156132ed5760029150506133b5565b5f6132f784611090565b90505f810361333b576040517f08c379a000000000000000000000000000000000000000000000000000000000815260040161333290615e33565b60405180910390fd5b5f613344611686565b65ffffffffffff169050808210613360575f93505050506133b5565b5f61336a86611914565b90508181106133805760019450505050506133b5565b613389866136b2565b801561339a5750613399866136f6565b5b156133ac5760049450505050506133b5565b60039450505050505b919050565b5f806133c88686868661371d565b90505f801b60085f8381526020019081526020015f2054146134915760075f9054906101000a900473ffffffffffffffffffffffffffffffffffffffff1673ffffffffffffffffffffffffffffffffffffffff1663c4d252f560085f8481526020019081526020015f20546040518263ffffffff1660e01b815260040161344f9190614237565b5f604051808303815f87803b158015613466575f80fd5b505af1158015613478573d5f803e3d5ffd5b5050505060085f8281526020019081526020015f205f90555b80915050949350505050565b5f67ffffffffffffffff80168211156134eb576040517f08c379a00000000000000000000000000000000000000000000000000000000081526004016134e290615ec1565b60405180910390fd5b819050919050565b60605f6134ff83613873565b90505f602067ffffffffffffffff81111561351d5761351c613b03565b5b6040519080825280601f01601f19166020018201604052801561354f5781602001600182028036833780820191505090505b5090508181528360208201528092505050919050565b5f825111156135775781518083602001fd5b806040517f08c379a00000000000000000000000000000000000000000000000000000000081526004016135ab9190613d9d565b60405180910390fd5b5f7f01ffc9a7000000000000000000000000000000000000000000000000000000007bffffffffffffffffffffffffffffffffffffffffffffffffffffffff1916827bffffffffffffffffffffffffffffffffffffffffffffffffffffffff1916149050919050565b5f7f8b73c3c69bb8fe3d512ecc4cf759cc79239f7b179b0ffacaa9a75d522b39400f7f00000000000000000000000000000000000000000000000000000000000000007f00000000000000000000000000000000000000000000000000000000000000004630604051602001613697959493929190615edf565b60405160208183030381529060405280519060200120905090565b5f8060065f8481526020019081526020015f209050806002015481600101546136db919061510a565b6136ec6136e785611090565b611bc4565b1115915050919050565b5f8060065f8481526020019081526020015f209050805f0154816001015411915050919050565b5f8061372b86868686611ad2565b90505f6137378261117d565b90506002600781111561374d5761374c6142c7565b5b8160078111156137605761375f6142c7565b5b1415801561379357506006600781111561377d5761377c6142c7565b5b8160078111156137905761378f6142c7565b5b14155b80156137c357506007808111156137ad576137ac6142c7565b5b8160078111156137c0576137bf6142c7565b5b14155b613802576040517f08c379a00000000000000000000000000000000000000000000000000000000081526004016137f990615f7a565b60405180910390fd5b600160035f8481526020019081526020015f2060020160016101000a81548160ff0219169083151502179055507f789cf55be980739dad1d0699b93b58e806b51c9d96619bfa8fe0a28abaa7b30c8260405161385e9190613a15565b60405180910390a18192505050949350505050565b5f8060ff835f1c169050601f8111156138b8576040517fb3512b0c00000000000000000000000000000000000000000000000000000000815260040160405180910390fd5b80915050919050565b5f82825260208201905092915050565b7f476f7665726e6f723a206d7573742073656e6420746f206578656375746f72005f82015250565b5f613905601f836138c1565b9150613910826138d1565b602082019050919050565b5f6020820190508181035f830152613932816138f9565b9050919050565b5f604051905090565b5f80fd5b5f80fd5b5f7fffffffff0000000000000000000000000000000000000000000000000000000082169050919050565b61397e8161394a565b8114613988575f80fd5b50565b5f8135905061399981613975565b92915050565b5f602082840312156139b4576139b3613942565b5b5f6139c18482850161398b565b91505092915050565b5f8115159050919050565b6139de816139ca565b82525050565b5f6020820190506139f75f8301846139d5565b92915050565b5f819050919050565b613a0f816139fd565b82525050565b5f602082019050613a285f830184613a06565b92915050565b613a37816139fd565b8114613a41575f80fd5b50565b5f81359050613a5281613a2e565b92915050565b5f60ff82169050919050565b613a6d81613a58565b8114613a77575f80fd5b50565b5f81359050613a8881613a64565b92915050565b5f80fd5b5f80fd5b5f80fd5b5f8083601f840112613aaf57613aae613a8e565b5b8235905067ffffffffffffffff811115613acc57613acb613a92565b5b602083019150836001820283011115613ae857613ae7613a96565b5b9250929050565b5f80fd5b5f601f19601f8301169050919050565b7f4e487b71000000000000000000000000000000000000000000000000000000005f52604160045260245ffd5b613b3982613af3565b810181811067ffffffffffffffff82111715613b5857613b57613b03565b5b80604052505050565b5f613b6a613939565b9050613b768282613b30565b919050565b5f67ffffffffffffffff821115613b9557613b94613b03565b5b613b9e82613af3565b9050602081019050919050565b828183375f83830152505050565b5f613bcb613bc684613b7b565b613b61565b905082815260208101848484011115613be757613be6613aef565b5b613bf2848285613bab565b509392505050565b5f82601f830112613c0e57613c0d613a8e565b5b8135613c1e848260208601613bb9565b91505092915050565b5f819050919050565b613c3981613c27565b8114613c43575f80fd5b50565b5f81359050613c5481613c30565b92915050565b5f805f805f805f8060e0898b031215613c7657613c75613942565b5b5f613c838b828c01613a44565b9850506020613c948b828c01613a7a565b975050604089013567ffffffffffffffff811115613cb557613cb4613946565b5b613cc18b828c01613a9a565b9650965050606089013567ffffffffffffffff811115613ce457613ce3613946565b5b613cf08b828c01613bfa565b9450506080613d018b828c01613a7a565b93505060a0613d128b828c01613c46565b92505060c0613d238b828c01613c46565b9150509295985092959890939650565b5f81519050919050565b5f5b83811015613d5a578082015181840152602081019050613d3f565b5f8484015250505050565b5f613d6f82613d33565b613d7981856138c1565b9350613d89818560208601613d3d565b613d9281613af3565b840191505092915050565b5f6020820190508181035f830152613db58184613d65565b905092915050565b5f60208284031215613dd257613dd1613942565b5b5f613ddf84828501613a44565b91505092915050565b5f73ffffffffffffffffffffffffffffffffffffffff82169050919050565b5f613e1182613de8565b9050919050565b613e2181613e07565b82525050565b5f602082019050613e3a5f830184613e18565b92915050565b613e4981613e07565b8114613e53575f80fd5b50565b5f81359050613e6481613e40565b92915050565b5f805f8060808587031215613e8257613e81613942565b5b5f613e8f87828801613e56565b9450506020613ea087828801613e56565b9350506040613eb187828801613a44565b925050606085013567ffffffffffffffff811115613ed257613ed1613946565b5b613ede87828801613bfa565b91505092959194509250565b613ef38161394a565b82525050565b5f602082019050613f0c5f830184613eea565b92915050565b5f67ffffffffffffffff821115613f2c57613f2b613b03565b5b602082029050602081019050919050565b5f613f4f613f4a84613f12565b613b61565b90508083825260208201905060208402830185811115613f7257613f71613a96565b5b835b81811015613f9b5780613f878882613e56565b845260208401935050602081019050613f74565b5050509392505050565b5f82601f830112613fb957613fb8613a8e565b5b8135613fc9848260208601613f3d565b91505092915050565b5f67ffffffffffffffff821115613fec57613feb613b03565b5b602082029050602081019050919050565b5f61400f61400a84613fd2565b613b61565b9050808382526020820190506020840283018581111561403257614031613a96565b5b835b8181101561405b57806140478882613a44565b845260208401935050602081019050614034565b5050509392505050565b5f82601f83011261407957614078613a8e565b5b8135614089848260208601613ffd565b91505092915050565b5f67ffffffffffffffff8211156140ac576140ab613b03565b5b602082029050602081019050919050565b5f6140cf6140ca84614092565b613b61565b905080838252602082019050602084028301858111156140f2576140f1613a96565b5b835b8181101561413957803567ffffffffffffffff81111561411757614116613a8e565b5b8086016141248982613bfa565b855260208501945050506020810190506140f4565b5050509392505050565b5f82601f83011261415757614156613a8e565b5b81356141678482602086016140bd565b91505092915050565b5f805f806080858703121561418857614187613942565b5b5f85013567ffffffffffffffff8111156141a5576141a4613946565b5b6141b187828801613fa5565b945050602085013567ffffffffffffffff8111156141d2576141d1613946565b5b6141de87828801614065565b935050604085013567ffffffffffffffff8111156141ff576141fe613946565b5b61420b87828801614143565b925050606061421c87828801613c46565b91505092959194509250565b61423181613c27565b82525050565b5f60208201905061424a5f830184614228565b92915050565b5f805f805f60a0868803121561426957614268613942565b5b5f61427688828901613a44565b955050602061428788828901613a7a565b945050604061429888828901613a7a565b93505060606142a988828901613c46565b92505060806142ba88828901613c46565b9150509295509295909350565b7f4e487b71000000000000000000000000000000000000000000000000000000005f52602160045260245ffd5b60088110614305576143046142c7565b5b50565b5f819050614315826142f4565b919050565b5f61432482614308565b9050919050565b6143348161431a565b82525050565b5f60208201905061434d5f83018461432b565b92915050565b5f806040838503121561436957614368613942565b5b5f61437685828601613a44565b925050602061438785828601613e56565b9150509250929050565b5f6060820190506143a45f830186613a06565b6143b16020830185613a06565b6143be6040830184613a06565b949350505050565b5f80604083850312156143dc576143db613942565b5b5f6143e985828601613a44565b92505060206143fa85828601613a7a565b9150509250929050565b5f805f805f6080868803121561441d5761441c613942565b5b5f61442a88828901613a44565b955050602061443b88828901613a7a565b945050604086013567ffffffffffffffff81111561445c5761445b613946565b5b61446888828901613a9a565b9350935050606086013567ffffffffffffffff81111561448b5761448a613946565b5b61449788828901613bfa565b9150509295509295909350565b5f805f80606085870312156144bc576144bb613942565b5b5f6144c987828801613a44565b94505060206144da87828801613a7a565b935050604085013567ffffffffffffffff8111156144fb576144fa613946565b5b61450787828801613a9a565b925092505092959194509250565b5f67ffffffffffffffff82111561452f5761452e613b03565b5b61453882613af3565b9050602081019050919050565b5f61455761455284614515565b613b61565b90508281526020810184848401111561457357614572613aef565b5b61457e848285613bab565b509392505050565b5f82601f83011261459a57614599613a8e565b5b81356145aa848260208601614545565b91505092915050565b5f805f80608085870312156145cb576145ca613942565b5b5f85013567ffffffffffffffff8111156145e8576145e7613946565b5b6145f487828801613fa5565b945050602085013567ffffffffffffffff81111561461557614614613946565b5b61462187828801614065565b935050604085013567ffffffffffffffff81111561464257614641613946565b5b61464e87828801614143565b925050606085013567ffffffffffffffff81111561466f5761466e613946565b5b61467b87828801614586565b91505092959194509250565b5f7fff0000000000000000000000000000000000000000000000000000000000000082169050919050565b6146bb81614687565b82525050565b5f81519050919050565b5f82825260208201905092915050565b5f819050602082019050919050565b6146f3816139fd565b82525050565b5f61470483836146ea565b60208301905092915050565b5f602082019050919050565b5f614726826146c1565b61473081856146cb565b935061473b836146db565b805f5b8381101561476b57815161475288826146f9565b975061475d83614710565b92505060018101905061473e565b5085935050505092915050565b5f60e08201905061478b5f83018a6146b2565b818103602083015261479d8189613d65565b905081810360408301526147b18188613d65565b90506147c06060830187613a06565b6147cd6080830186613e18565b6147da60a0830185614228565b81810360c08301526147ec818461471c565b905098975050505050505050565b5f65ffffffffffff82169050919050565b614814816147fa565b82525050565b5f60208201905061482d5f83018461480b565b92915050565b5f805f6060848603121561484a57614849613942565b5b5f61485786828701613e56565b935050602061486886828701613a44565b925050604084013567ffffffffffffffff81111561488957614888613946565b5b61489586828701613bfa565b9150509250925092565b5f6148a982613de8565b9050919050565b5f6148ba8261489f565b9050919050565b6148ca816148b0565b81146148d4575f80fd5b50565b5f813590506148e5816148c1565b92915050565b5f60208284031215614900576148ff613942565b5b5f61490d848285016148d7565b91505092915050565b5f805f805f60a0868803121561492f5761492e613942565b5b5f61493c88828901613e56565b955050602061494d88828901613e56565b945050604086013567ffffffffffffffff81111561496e5761496d613946565b5b61497a88828901614065565b935050606086013567ffffffffffffffff81111561499b5761499a613946565b5b6149a788828901614065565b925050608086013567ffffffffffffffff8111156149c8576149c7613946565b5b6149d488828901613bfa565b9150509295509295909350565b5f8083601f8401126149f6576149f5613a8e565b5b8235905067ffffffffffffffff811115614a1357614a12613a92565b5b602083019150836001820283011115614a2f57614a2e613a96565b5b9250929050565b5f805f8060608587031215614a4e57614a4d613942565b5b5f614a5b87828801613e56565b9450506020614a6c87828801613a44565b935050604085013567ffffffffffffffff811115614a8d57614a8c613946565b5b614a99878288016149e1565b925092505092959194509250565b5f8060408385031215614abd57614abc613942565b5b5f614aca85828601613e56565b9250506020614adb85828601613a44565b9150509250929050565b5f805f805f60a08688031215614afe57614afd613942565b5b5f614b0b88828901613e56565b9550506020614b1c88828901613e56565b9450506040614b2d88828901613a44565b9350506060614b3e88828901613a44565b925050608086013567ffffffffffffffff811115614b5f57614b5e613946565b5b614b6b88828901613bfa565b9150509295509295909350565b5f819050919050565b5f614b9b614b96614b9184613de8565b614b78565b613de8565b9050919050565b5f614bac82614b81565b9050919050565b5f614bbd82614ba2565b9050919050565b614bcd81614bb3565b82525050565b5f602082019050614be65f830184614bc4565b92915050565b5f81905092915050565b5f614c018385614bec565b9350614c0e838584613bab565b82840190509392505050565b5f614c26828486614bf6565b91508190509392505050565b614c3b81613a58565b82525050565b5f60a082019050614c545f830188614228565b614c616020830187613a06565b614c6e6040830186614c32565b614c7b6060830185614228565b614c886080830184614228565b9695505050505050565b7f4e487b71000000000000000000000000000000000000000000000000000000005f52602260045260245ffd5b5f6002820490506001821680614cd657607f821691505b602082108103614ce957614ce8614c92565b5b50919050565b7f476f7665726e6f723a2070726f706f73616c206e6f74207375636365737366755f8201527f6c00000000000000000000000000000000000000000000000000000000000000602082015250565b5f614d496021836138c1565b9150614d5482614cef565b604082019050919050565b5f6020820190508181035f830152614d7681614d3d565b9050919050565b5f81519050614d8b81613a2e565b92915050565b5f60208284031215614da657614da5613942565b5b5f614db384828501614d7d565b91505092915050565b5f81519050919050565b5f82825260208201905092915050565b5f819050602082019050919050565b614dee81613e07565b82525050565b5f614dff8383614de5565b60208301905092915050565b5f602082019050919050565b5f614e2182614dbc565b614e2b8185614dc6565b9350614e3683614dd6565b805f5b83811015614e66578151614e4d8882614df4565b9750614e5883614e0b565b925050600181019050614e39565b5085935050505092915050565b5f81519050919050565b5f82825260208201905092915050565b5f819050602082019050919050565b5f81519050919050565b5f82825260208201905092915050565b5f614ec082614e9c565b614eca8185614ea6565b9350614eda818560208601613d3d565b614ee381613af3565b840191505092915050565b5f614ef98383614eb6565b905092915050565b5f602082019050919050565b5f614f1782614e73565b614f218185614e7d565b935083602082028501614f3385614e8d565b805f5b85811015614f6e5784840389528151614f4f8582614eee565b9450614f5a83614f01565b925060208a01995050600181019050614f36565b50829750879550505050505092915050565b5f819050919050565b5f815f1b9050919050565b5f614fae614fa9614fa484614f80565b614f89565b613c27565b9050919050565b614fbe81614f94565b82525050565b5f60a0820190508181035f830152614fdc8188614e17565b90508181036020830152614ff0818761471c565b905081810360408301526150048186614f0d565b90506150136060830185614fb5565b6150206080830184614228565b9695505050505050565b5f8151905061503881613c30565b92915050565b5f6020828403121561505357615052613942565b5b5f6150608482850161502a565b91505092915050565b5f60c0820190508181035f8301526150818189614e17565b90508181036020830152615095818861471c565b905081810360408301526150a98187614f0d565b90506150b86060830186614fb5565b6150c56080830185614228565b6150d260a0830184613a06565b979650505050505050565b7f4e487b71000000000000000000000000000000000000000000000000000000005f52601160045260245ffd5b5f615114826139fd565b915061511f836139fd565b9250828201905080821115615137576151366150dd565b5b92915050565b5f6040820190506151505f830185613a06565b61515d6020830184613a06565b9392505050565b5f6060820190506151775f830186614228565b6151846020830185613a06565b6151916040830184614c32565b949350505050565b7f476f7665726e6f723a20746f6f206c61746520746f2063616e63656c000000005f82015250565b5f6151cd601c836138c1565b91506151d882615199565b602082019050919050565b5f6020820190508181035f8301526151fa816151c1565b9050919050565b7f476f7665726e6f723a206f6e6c792070726f706f7365722063616e2063616e635f8201527f656c000000000000000000000000000000000000000000000000000000000000602082015250565b5f61525b6022836138c1565b915061526682615201565b604082019050919050565b5f6020820190508181035f8301526152888161524f565b9050919050565b5f6152a161529c84614515565b613b61565b9050828152602081018484840111156152bd576152bc613aef565b5b6152c8848285613d3d565b509392505050565b5f82601f8301126152e4576152e3613a8e565b5b81516152f484826020860161528f565b91505092915050565b5f6020828403121561531257615311613942565b5b5f82015167ffffffffffffffff81111561532f5761532e613946565b5b61533b848285016152d0565b91505092915050565b61534d816147fa565b8114615357575f80fd5b50565b5f8151905061536881615344565b92915050565b5f6020828403121561538357615382613942565b5b5f6153908482850161535a565b91505092915050565b7f476f7665726e6f723a206f6e6c79476f7665726e616e636500000000000000005f82015250565b5f6153cd6018836138c1565b91506153d882615399565b602082019050919050565b5f6020820190508181035f8301526153fa816153c1565b9050919050565b5f6080820190508181035f8301526154198187614e17565b9050818103602083015261542d818661471c565b905081810360408301526154418185614f0d565b90506154506060830184614228565b95945050505050565b7f476f7665726e6f723a20766f7465206e6f742063757272656e746c79206163745f8201527f6976650000000000000000000000000000000000000000000000000000000000602082015250565b5f6154b36023836138c1565b91506154be82615459565b604082019050919050565b5f6020820190508181035f8301526154e0816154a7565b9050919050565b5f6080820190506154fa5f830187613a06565b6155076020830186614c32565b6155146040830185613a06565b81810360608301526155268184613d65565b905095945050505050565b5f82825260208201905092915050565b5f61554b82614e9c565b6155558185615531565b9350615565818560208601613d3d565b61556e81613af3565b840191505092915050565b5f60a08201905061558c5f830188613a06565b6155996020830187614c32565b6155a66040830186613a06565b81810360608301526155b88185613d65565b905081810360808301526155cc8184615541565b90509695505050505050565b7f4e487b71000000000000000000000000000000000000000000000000000000005f52603260045260245ffd5b61560e816139ca565b8114615618575f80fd5b50565b5f8151905061562981615605565b92915050565b5f6020828403121561564457615643613942565b5b5f6156518482850161561b565b91505092915050565b5f615664826139fd565b915061566f836139fd565b9250828203905081811115615687576156866150dd565b5b92915050565b7f476f7665726e6f723a2070726f706f73657220766f7465732062656c6f7720705f8201527f726f706f73616c207468726573686f6c64000000000000000000000000000000602082015250565b5f6156e76031836138c1565b91506156f28261568d565b604082019050919050565b5f6020820190508181035f830152615714816156db565b9050919050565b7f476f7665726e6f723a20696e76616c69642070726f706f73616c206c656e67745f8201527f6800000000000000000000000000000000000000000000000000000000000000602082015250565b5f6157756021836138c1565b91506157808261571b565b604082019050919050565b5f6020820190508181035f8301526157a281615769565b9050919050565b7f476f7665726e6f723a20656d7074792070726f706f73616c00000000000000005f82015250565b5f6157dd6018836138c1565b91506157e8826157a9565b602082019050919050565b5f6020820190508181035f83015261580a816157d1565b9050919050565b7f476f7665726e6f723a2070726f706f73616c20616c72656164792065786973745f8201527f7300000000000000000000000000000000000000000000000000000000000000602082015250565b5f61586b6021836138c1565b915061587682615811565b604082019050919050565b5f6020820190508181035f8301526158988161585f565b9050919050565b5f81519050919050565b5f82825260208201905092915050565b5f819050602082019050919050565b5f82825260208201905092915050565b5f6158e282613d33565b6158ec81856158c8565b93506158fc818560208601613d3d565b61590581613af3565b840191505092915050565b5f61591b83836158d8565b905092915050565b5f602082019050919050565b5f6159398261589f565b61594381856158a9565b935083602082028501615955856158b9565b805f5b8581101561599057848403895281516159718582615910565b945061597c83615923565b925060208a01995050600181019050615958565b50829750879550505050505092915050565b5f610120820190506159b65f83018c613a06565b6159c3602083018b613e18565b81810360408301526159d5818a614e17565b905081810360608301526159e9818961471c565b905081810360808301526159fd818861592f565b905081810360a0830152615a118187614f0d565b9050615a2060c0830186613a06565b615a2d60e0830185613a06565b818103610100830152615a408184613d65565b90509a9950505050505050505050565b7f53616665436173743a2076616c756520646f65736e27742066697420696e20345f8201527f3820626974730000000000000000000000000000000000000000000000000000602082015250565b5f615aaa6026836138c1565b9150615ab582615a50565b604082019050919050565b5f6020820190508181035f830152615ad781615a9e565b9050919050565b5f604082019050615af15f830185613e18565b615afe6020830184613a06565b9392505050565b5f604082019050615b185f830185613e18565b615b256020830184613e18565b9392505050565b5f608082019050615b3f5f830187614228565b615b4c6020830186614c32565b615b596040830185614228565b615b666060830184614228565b95945050505050565b7f45434453413a20696e76616c6964207369676e617475726500000000000000005f82015250565b5f615ba36018836138c1565b9150615bae82615b6f565b602082019050919050565b5f6020820190508181035f830152615bd081615b97565b9050919050565b7f45434453413a20696e76616c6964207369676e6174757265206c656e677468005f82015250565b5f615c0b601f836138c1565b9150615c1682615bd7565b602082019050919050565b5f6020820190508181035f830152615c3881615bff565b9050919050565b7f45434453413a20696e76616c6964207369676e6174757265202773272076616c5f8201527f7565000000000000000000000000000000000000000000000000000000000000602082015250565b5f615c996022836138c1565b9150615ca482615c3f565b604082019050919050565b5f6020820190508181035f830152615cc681615c8d565b9050919050565b7f476f7665726e6f72566f74696e6753696d706c653a20766f746520616c7265615f8201527f6479206361737400000000000000000000000000000000000000000000000000602082015250565b5f615d276027836138c1565b9150615d3282615ccd565b604082019050919050565b5f6020820190508181035f830152615d5481615d1b565b9050919050565b7f476f7665726e6f72566f74696e6753696d706c653a20696e76616c69642076615f8201527f6c756520666f7220656e756d20566f7465547970650000000000000000000000602082015250565b5f615db56035836138c1565b9150615dc082615d5b565b604082019050919050565b5f6020820190508181035f830152615de281615da9565b9050919050565b7f476f7665726e6f723a20756e6b6e6f776e2070726f706f73616c2069640000005f82015250565b5f615e1d601d836138c1565b9150615e2882615de9565b602082019050919050565b5f6020820190508181035f830152615e4a81615e11565b9050919050565b7f53616665436173743a2076616c756520646f65736e27742066697420696e20365f8201527f3420626974730000000000000000000000000000000000000000000000000000602082015250565b5f615eab6026836138c1565b9150615eb682615e51565b604082019050919050565b5f6020820190508181035f830152615ed881615e9f565b9050919050565b5f60a082019050615ef25f830188614228565b615eff6020830187614228565b615f0c6040830186614228565b615f196060830185613a06565b615f266080830184613e18565b9695505050505050565b7f476f7665726e6f723a2070726f706f73616c206e6f74206163746976650000005f82015250565b5f615f64601d836138c1565b9150615f6f82615f30565b602082019050919050565b5f6020820190508181035f830152615f9181615f58565b905091905056fe476f7665726e6f723a2072656c617920726576657274656420776974686f7574206d657373616765a2646970667358221220bc017e966714443041a288f8123aeb1bae356fa8a76403e745e207c76aa7edb464736f6c634300081a0033",
			"opcodes": "PUSH2 0x180 PUSH1 0x40 MSTORE CALLVALUE DUP1 ISZERO PUSH2 0x10 JUMPI PUSH0 DUP1 REVERT JUMPDEST POP PUSH1 0x40 MLOAD PUSH2 0x69B8 CODESIZE SUB DUP1 PUSH2 0x69B8 DUP4 CODECOPY DUP2 DUP2 ADD PUSH1 0x40 MSTORE DUP2 ADD SWAP1 PUSH2 0x32 SWAP2 SWAP1 PUSH2 0x42A JUMP JUMPDEST DUP2 DUP2 PUSH1 0x40 MLOAD DUP1 PUSH1 0x40 ADD PUSH1 0x40 MSTORE DUP1 PUSH1 0xE DUP2 MSTORE PUSH1 0x20 ADD PUSH32 0x436974726561476F7665726E6F72000000000000000000000000000000000000 DUP2 MSTORE POP DUP1 PUSH2 0x79 PUSH2 0x180 PUSH1 0x20 SHL PUSH1 0x20 SHR JUMP JUMPDEST PUSH2 0x8C PUSH0 DUP4 PUSH2 0x1BD PUSH1 0x20 SHL SWAP1 SWAP2 SWAP1 PUSH1 0x20 SHR JUMP JUMPDEST PUSH2 0x120 DUP2 DUP2 MSTORE POP POP PUSH2 0xA8 PUSH1 0x1 DUP3 PUSH2 0x1BD PUSH1 0x20 SHL SWAP1 SWAP2 SWAP1 PUSH1 0x20 SHR JUMP JUMPDEST PUSH2 0x140 DUP2 DUP2 MSTORE POP POP DUP2 DUP1 MLOAD SWAP1 PUSH1 0x20 ADD KECCAK256 PUSH1 0xE0 DUP2 DUP2 MSTORE POP POP DUP1 DUP1 MLOAD SWAP1 PUSH1 0x20 ADD KECCAK256 PUSH2 0x100 DUP2 DUP2 MSTORE POP POP CHAINID PUSH1 0xA0 DUP2 DUP2 MSTORE POP POP PUSH2 0xE5 PUSH2 0x20A PUSH1 0x20 SHL PUSH1 0x20 SHR JUMP JUMPDEST PUSH1 0x80 DUP2 DUP2 MSTORE POP POP ADDRESS PUSH20 0xFFFFFFFFFFFFFFFFFFFFFFFFFFFFFFFFFFFFFFFF AND PUSH1 0xC0 DUP2 PUSH20 0xFFFFFFFFFFFFFFFFFFFFFFFFFFFFFFFFFFFFFFFF AND DUP2 MSTORE POP POP POP POP DUP1 PUSH1 0x2 SWAP1 DUP2 PUSH2 0x131 SWAP2 SWAP1 PUSH2 0x6A2 JUMP JUMPDEST POP POP PUSH2 0x142 DUP2 PUSH2 0x264 PUSH1 0x20 SHL PUSH1 0x20 SHR JUMP JUMPDEST POP DUP1 PUSH20 0xFFFFFFFFFFFFFFFFFFFFFFFFFFFFFFFFFFFFFFFF AND PUSH2 0x160 DUP2 PUSH20 0xFFFFFFFFFFFFFFFFFFFFFFFFFFFFFFFFFFFFFFFF AND DUP2 MSTORE POP POP POP POP POP PUSH2 0x952 JUMP JUMPDEST PUSH1 0x60 PUSH1 0x40 MLOAD DUP1 PUSH1 0x40 ADD PUSH1 0x40 MSTORE DUP1 PUSH1 0x1 DUP2 MSTORE PUSH1 0x20 ADD PUSH32 0x3100000000000000000000000000000000000000000000000000000000000000 DUP2 MSTORE POP SWAP1 POP SWAP1 JUMP JUMPDEST PUSH0 PUSH1 0x20 DUP4 MLOAD LT ISZERO PUSH2 0x1DE JUMPI PUSH2 0x1D7 DUP4 PUSH2 0x301 PUSH1 0x20 SHL PUSH1 0x20 SHR JUMP JUMPDEST SWAP1 POP PUSH2 0x204 JUMP JUMPDEST DUP3 PUSH2 0x1EE DUP4 PUSH2 0x366 PUSH1 0x20 SHL PUSH1 0x20 SHR JUMP JUMPDEST PUSH0 ADD SWAP1 DUP2 PUSH2 0x1FC SWAP2 SWAP1 PUSH2 0x6A2 JUMP JUMPDEST POP PUSH1 0xFF PUSH0 SHL SWAP1 POP JUMPDEST SWAP3 SWAP2 POP POP JUMP JUMPDEST PUSH0 PUSH32 0x8B73C3C69BB8FE3D512ECC4CF759CC79239F7B179B0FFACAA9A75D522B39400F PUSH1 0xE0 MLOAD PUSH2 0x100 MLOAD CHAINID ADDRESS PUSH1 0x40 MLOAD PUSH1 0x20 ADD PUSH2 0x249 SWAP6 SWAP5 SWAP4 SWAP3 SWAP2 SWAP1 PUSH2 0x7A7 JUMP JUMPDEST PUSH1 0x40 MLOAD PUSH1 0x20 DUP2 DUP4 SUB SUB DUP2 MSTORE SWAP1 PUSH1 0x40 MSTORE DUP1 MLOAD SWAP1 PUSH1 0x20 ADD KECCAK256 SWAP1 POP SWAP1 JUMP JUMPDEST PUSH32 0x8F74EA46EF7894F65EABFB5E6E695DE773A000B47C529AB559178069B226401 PUSH1 0x7 PUSH0 SWAP1 SLOAD SWAP1 PUSH2 0x100 EXP SWAP1 DIV PUSH20 0xFFFFFFFFFFFFFFFFFFFFFFFFFFFFFFFFFFFFFFFF AND DUP3 PUSH1 0x40 MLOAD PUSH2 0x2B6 SWAP3 SWAP2 SWAP1 PUSH2 0x7F8 JUMP JUMPDEST PUSH1 0x40 MLOAD DUP1 SWAP2 SUB SWAP1 LOG1 DUP1 PUSH1 0x7 PUSH0 PUSH2 0x100 EXP DUP2 SLOAD DUP2 PUSH20 0xFFFFFFFFFFFFFFFFFFFFFFFFFFFFFFFFFFFFFFFF MUL NOT AND SWAP1 DUP4 PUSH20 0xFFFFFFFFFFFFFFFFFFFFFFFFFFFFFFFFFFFFFFFF AND MUL OR SWAP1 SSTORE POP POP JUMP JUMPDEST PUSH0 DUP1 DUP3 SWAP1 POP PUSH1 0x1F DUP2 MLOAD GT ISZERO PUSH2 0x34D JUMPI DUP3 PUSH1 0x40 MLOAD PUSH32 0x305A27A900000000000000000000000000000000000000000000000000000000 DUP2 MSTORE PUSH1 0x4 ADD PUSH2 0x344 SWAP2 SWAP1 PUSH2 0x89F JUMP JUMPDEST PUSH1 0x40 MLOAD DUP1 SWAP2 SUB SWAP1 REVERT JUMPDEST DUP1 MLOAD DUP2 PUSH2 0x359 SWAP1 PUSH2 0x8EC JUMP JUMPDEST PUSH0 SHR OR PUSH0 SHL SWAP2 POP POP SWAP2 SWAP1 POP JUMP JUMPDEST PUSH0 DUP2 SWAP1 POP SWAP2 SWAP1 POP JUMP JUMPDEST PUSH0 DUP1 REVERT JUMPDEST PUSH0 PUSH20 0xFFFFFFFFFFFFFFFFFFFFFFFFFFFFFFFFFFFFFFFF DUP3 AND SWAP1 POP SWAP2 SWAP1 POP JUMP JUMPDEST PUSH0 PUSH2 0x39C DUP3 PUSH2 0x373 JUMP JUMPDEST SWAP1 POP SWAP2 SWAP1 POP JUMP JUMPDEST PUSH0 PUSH2 0x3AD DUP3 PUSH2 0x392 JUMP JUMPDEST SWAP1 POP SWAP2 SWAP1 POP JUMP JUMPDEST PUSH2 0x3BD DUP2 PUSH2 0x3A3 JUMP JUMPDEST DUP2 EQ PUSH2 0x3C7 JUMPI PUSH0 DUP1 REVERT JUMPDEST POP JUMP JUMPDEST PUSH0 DUP2 MLOAD SWAP1 POP PUSH2 0x3D8 DUP2 PUSH2 0x3B4 JUMP JUMPDEST SWAP3 SWAP2 POP POP JUMP JUMPDEST PUSH0 PUSH2 0x3E8 DUP3 PUSH2 0x373 JUMP JUMPDEST SWAP1 POP SWAP2 SWAP1 POP JUMP JUMPDEST PUSH0 PUSH2 0x3F9 DUP3 PUSH2 0x3DE JUMP JUMPDEST SWAP1 POP SWAP2 SWAP1 POP JUMP JUMPDEST PUSH2 0x409 DUP2 PUSH2 0x3EF JUMP JUMPDEST DUP2 EQ PUSH2 0x413 JUMPI PUSH0 DUP1 REVERT JUMPDEST POP JUMP JUMPDEST PUSH0 DUP2 MLOAD SWAP1 POP PUSH2 0x424 DUP2 PUSH2 0x400 JUMP JUMPDEST SWAP3 SWAP2 POP POP JUMP JUMPDEST PUSH0 DUP1 PUSH1 0x40 DUP4 DUP6 SUB SLT ISZERO PUSH2 0x440 JUMPI PUSH2 0x43F PUSH2 0x36F JUMP JUMPDEST JUMPDEST PUSH0 PUSH2 0x44D DUP6 DUP3 DUP7 ADD PUSH2 0x3CA JUMP JUMPDEST SWAP3 POP POP PUSH1 0x20 PUSH2 0x45E DUP6 DUP3 DUP7 ADD PUSH2 0x416 JUMP JUMPDEST SWAP2 POP POP SWAP3 POP SWAP3 SWAP1 POP JUMP JUMPDEST PUSH0 DUP2 MLOAD SWAP1 POP SWAP2 SWAP1 POP JUMP JUMPDEST PUSH32 0x4E487B7100000000000000000000000000000000000000000000000000000000 PUSH0 MSTORE PUSH1 0x41 PUSH1 0x4 MSTORE PUSH1 0x24 PUSH0 REVERT JUMPDEST PUSH32 0x4E487B7100000000000000000000000000000000000000000000000000000000 PUSH0 MSTORE PUSH1 0x22 PUSH1 0x4 MSTORE PUSH1 0x24 PUSH0 REVERT JUMPDEST PUSH0 PUSH1 0x2 DUP3 DIV SWAP1 POP PUSH1 0x1 DUP3 AND DUP1 PUSH2 0x4E3 JUMPI PUSH1 0x7F DUP3 AND SWAP2 POP JUMPDEST PUSH1 0x20 DUP3 LT DUP2 SUB PUSH2 0x4F6 JUMPI PUSH2 0x4F5 PUSH2 0x49F JUMP JUMPDEST JUMPDEST POP SWAP2 SWAP1 POP JUMP JUMPDEST PUSH0 DUP2 SWAP1 POP DUP2 PUSH0 MSTORE PUSH1 0x20 PUSH0 KECCAK256 SWAP1 POP SWAP2 SWAP1 POP JUMP JUMPDEST PUSH0 PUSH1 0x20 PUSH1 0x1F DUP4 ADD DIV SWAP1 POP SWAP2 SWAP1 POP JUMP JUMPDEST PUSH0 DUP3 DUP3 SHL SWAP1 POP SWAP3 SWAP2 POP POP JUMP JUMPDEST PUSH0 PUSH1 0x8 DUP4 MUL PUSH2 0x558 PUSH32 0xFFFFFFFFFFFFFFFFFFFFFFFFFFFFFFFFFFFFFFFFFFFFFFFFFFFFFFFFFFFFFFFF DUP3 PUSH2 0x51D JUMP JUMPDEST PUSH2 0x562 DUP7 DUP4 PUSH2 0x51D JUMP JUMPDEST SWAP6 POP DUP1 NOT DUP5 AND SWAP4 POP DUP1 DUP7 AND DUP5 OR SWAP3 POP POP POP SWAP4 SWAP3 POP POP POP JUMP JUMPDEST PUSH0 DUP2 SWAP1 POP SWAP2 SWAP1 POP JUMP JUMPDEST PUSH0 DUP2 SWAP1 POP SWAP2 SWAP1 POP JUMP JUMPDEST PUSH0 PUSH2 0x5A6 PUSH2 0x5A1 PUSH2 0x59C DUP5 PUSH2 0x57A JUMP JUMPDEST PUSH2 0x583 JUMP JUMPDEST PUSH2 0x57A JUMP JUMPDEST SWAP1 POP SWAP2 SWAP1 POP JUMP JUMPDEST PUSH0 DUP2 SWAP1 POP SWAP2 SWAP1 POP JUMP JUMPDEST PUSH2 0x5BF DUP4 PUSH2 0x58C JUMP JUMPDEST PUSH2 0x5D3 PUSH2 0x5CB DUP3 PUSH2 0x5AD JUMP JUMPDEST DUP5 DUP5 SLOAD PUSH2 0x529 JUMP JUMPDEST DUP3 SSTORE POP POP POP POP JUMP JUMPDEST PUSH0 SWAP1 JUMP JUMPDEST PUSH2 0x5E7 PUSH2 0x5DB JUMP JUMPDEST PUSH2 0x5F2 DUP2 DUP5 DUP5 PUSH2 0x5B6 JUMP JUMPDEST POP POP POP JUMP JUMPDEST JUMPDEST DUP2 DUP2 LT ISZERO PUSH2 0x615 JUMPI PUSH2 0x60A PUSH0 DUP3 PUSH2 0x5DF JUMP JUMPDEST PUSH1 0x1 DUP2 ADD SWAP1 POP PUSH2 0x5F8 JUMP JUMPDEST POP POP JUMP JUMPDEST PUSH1 0x1F DUP3 GT ISZERO PUSH2 0x65A JUMPI PUSH2 0x62B DUP2 PUSH2 0x4FC JUMP JUMPDEST PUSH2 0x634 DUP5 PUSH2 0x50E JUMP JUMPDEST DUP2 ADD PUSH1 0x20 DUP6 LT ISZERO PUSH2 0x643 JUMPI DUP2 SWAP1 POP JUMPDEST PUSH2 0x657 PUSH2 0x64F DUP6 PUSH2 0x50E JUMP JUMPDEST DUP4 ADD DUP3 PUSH2 0x5F7 JUMP JUMPDEST POP POP JUMPDEST POP POP POP JUMP JUMPDEST PUSH0 DUP3 DUP3 SHR SWAP1 POP SWAP3 SWAP2 POP POP JUMP JUMPDEST PUSH0 PUSH2 0x67A PUSH0 NOT DUP5 PUSH1 0x8 MUL PUSH2 0x65F JUMP JUMPDEST NOT DUP1 DUP4 AND SWAP2 POP POP SWAP3 SWAP2 POP POP JUMP JUMPDEST PUSH0 PUSH2 0x692 DUP4 DUP4 PUSH2 0x66B JUMP JUMPDEST SWAP2 POP DUP3 PUSH1 0x2 MUL DUP3 OR SWAP1 POP SWAP3 SWAP2 POP POP JUMP JUMPDEST PUSH2 0x6AB DUP3 PUSH2 0x468 JUMP JUMPDEST PUSH8 0xFFFFFFFFFFFFFFFF DUP2 GT ISZERO PUSH2 0x6C4 JUMPI PUSH2 0x6C3 PUSH2 0x472 JUMP JUMPDEST JUMPDEST PUSH2 0x6CE DUP3 SLOAD PUSH2 0x4CC JUMP JUMPDEST PUSH2 0x6D9 DUP3 DUP3 DUP6 PUSH2 0x619 JUMP JUMPDEST PUSH0 PUSH1 0x20 SWAP1 POP PUSH1 0x1F DUP4 GT PUSH1 0x1 DUP2 EQ PUSH2 0x70A JUMPI PUSH0 DUP5 ISZERO PUSH2 0x6F8 JUMPI DUP3 DUP8 ADD MLOAD SWAP1 POP JUMPDEST PUSH2 0x702 DUP6 DUP3 PUSH2 0x687 JUMP JUMPDEST DUP7 SSTORE POP PUSH2 0x769 JUMP JUMPDEST PUSH1 0x1F NOT DUP5 AND PUSH2 0x718 DUP7 PUSH2 0x4FC JUMP JUMPDEST PUSH0 JUMPDEST DUP3 DUP2 LT ISZERO PUSH2 0x73F JUMPI DUP5 DUP10 ADD MLOAD DUP3 SSTORE PUSH1 0x1 DUP3 ADD SWAP2 POP PUSH1 0x20 DUP6 ADD SWAP5 POP PUSH1 0x20 DUP2 ADD SWAP1 POP PUSH2 0x71A JUMP JUMPDEST DUP7 DUP4 LT ISZERO PUSH2 0x75C JUMPI DUP5 DUP10 ADD MLOAD PUSH2 0x758 PUSH1 0x1F DUP10 AND DUP3 PUSH2 0x66B JUMP JUMPDEST DUP4 SSTORE POP JUMPDEST PUSH1 0x1 PUSH1 0x2 DUP9 MUL ADD DUP9 SSTORE POP POP POP JUMPDEST POP POP POP POP POP POP JUMP JUMPDEST PUSH0 DUP2 SWAP1 POP SWAP2 SWAP1 POP JUMP JUMPDEST PUSH2 0x783 DUP2 PUSH2 0x771 JUMP JUMPDEST DUP3 MSTORE POP POP JUMP JUMPDEST PUSH2 0x792 DUP2 PUSH2 0x57A JUMP JUMPDEST DUP3 MSTORE POP POP JUMP JUMPDEST PUSH2 0x7A1 DUP2 PUSH2 0x392 JUMP JUMPDEST DUP3 MSTORE POP POP JUMP JUMPDEST PUSH0 PUSH1 0xA0 DUP3 ADD SWAP1 POP PUSH2 0x7BA PUSH0 DUP4 ADD DUP9 PUSH2 0x77A JUMP JUMPDEST PUSH2 0x7C7 PUSH1 0x20 DUP4 ADD DUP8 PUSH2 0x77A JUMP JUMPDEST PUSH2 0x7D4 PUSH1 0x40 DUP4 ADD DUP7 PUSH2 0x77A JUMP JUMPDEST PUSH2 0x7E1 PUSH1 0x60 DUP4 ADD DUP6 PUSH2 0x789 JUMP JUMPDEST PUSH2 0x7EE PUSH1 0x80 DUP4 ADD DUP5 PUSH2 0x798 JUMP JUMPDEST SWAP7 SWAP6 POP POP POP POP POP POP JUMP JUMPDEST PUSH0 PUSH1 0x40 DUP3 ADD SWAP1 POP PUSH2 0x80B PUSH0 DUP4 ADD DUP6 PUSH2 0x798 JUMP JUMPDEST PUSH2 0x818 PUSH1 0x20 DUP4 ADD DUP5 PUSH2 0x798 JUMP JUMPDEST SWAP4 SWAP3 POP POP POP JUMP JUMPDEST PUSH0 DUP3 DUP3 MSTORE PUSH1 0x20 DUP3 ADD SWAP1 POP SWAP3 SWAP2 POP POP JUMP JUMPDEST PUSH0 JUMPDEST DUP4 DUP2 LT ISZERO PUSH2 0x84C JUMPI DUP1 DUP3 ADD MLOAD DUP2 DUP5 ADD MSTORE PUSH1 0x20 DUP2 ADD SWAP1 POP PUSH2 0x831 JUMP JUMPDEST PUSH0 DUP5 DUP5 ADD MSTORE POP POP POP POP JUMP JUMPDEST PUSH0 PUSH1 0x1F NOT PUSH1 0x1F DUP4 ADD AND SWAP1 POP SWAP2 SWAP1 POP JUMP JUMPDEST PUSH0 PUSH2 0x871 DUP3 PUSH2 0x468 JUMP JUMPDEST PUSH2 0x87B DUP2 DUP6 PUSH2 0x81F JUMP JUMPDEST SWAP4 POP PUSH2 0x88B DUP2 DUP6 PUSH1 0x20 DUP7 ADD PUSH2 0x82F JUMP JUMPDEST PUSH2 0x894 DUP2 PUSH2 0x857 JUMP JUMPDEST DUP5 ADD SWAP2 POP POP SWAP3 SWAP2 POP POP JUMP JUMPDEST PUSH0 PUSH1 0x20 DUP3 ADD SWAP1 POP DUP2 DUP2 SUB PUSH0 DUP4 ADD MSTORE PUSH2 0x8B7 DUP2 DUP5 PUSH2 0x867 JUMP JUMPDEST SWAP1 POP SWAP3 SWAP2 POP POP JUMP JUMPDEST PUSH0 DUP2 MLOAD SWAP1 POP SWAP2 SWAP1 POP JUMP JUMPDEST PUSH0 DUP2 SWAP1 POP PUSH1 0x20 DUP3 ADD SWAP1 POP SWAP2 SWAP1 POP JUMP JUMPDEST PUSH0 PUSH2 0x8E3 DUP3 MLOAD PUSH2 0x771 JUMP JUMPDEST DUP1 SWAP2 POP POP SWAP2 SWAP1 POP JUMP JUMPDEST PUSH0 PUSH2 0x8F6 DUP3 PUSH2 0x8BF JUMP JUMPDEST DUP3 PUSH2 0x900 DUP5 PUSH2 0x8C9 JUMP JUMPDEST SWAP1 POP PUSH2 0x90B DUP2 PUSH2 0x8D8 JUMP JUMPDEST SWAP3 POP PUSH1 0x20 DUP3 LT ISZERO PUSH2 0x94B JUMPI PUSH2 0x946 PUSH32 0xFFFFFFFFFFFFFFFFFFFFFFFFFFFFFFFFFFFFFFFFFFFFFFFFFFFFFFFFFFFFFFFF DUP4 PUSH1 0x20 SUB PUSH1 0x8 MUL PUSH2 0x51D JUMP JUMPDEST DUP4 AND SWAP3 POP JUMPDEST POP POP SWAP2 SWAP1 POP JUMP JUMPDEST PUSH1 0x80 MLOAD PUSH1 0xA0 MLOAD PUSH1 0xC0 MLOAD PUSH1 0xE0 MLOAD PUSH2 0x100 MLOAD PUSH2 0x120 MLOAD PUSH2 0x140 MLOAD PUSH2 0x160 MLOAD PUSH2 0x5FF6 PUSH2 0x9C2 PUSH0 CODECOPY PUSH0 DUP2 DUP2 PUSH2 0x1334 ADD MSTORE DUP2 DUP2 PUSH2 0x1689 ADD MSTORE DUP2 DUP2 PUSH2 0x1BD8 ADD MSTORE PUSH2 0x2747 ADD MSTORE PUSH0 PUSH2 0x15CD ADD MSTORE PUSH0 PUSH2 0x1599 ADD MSTORE PUSH0 PUSH2 0x3662 ADD MSTORE PUSH0 PUSH2 0x3641 ADD MSTORE PUSH0 PUSH2 0x2BB5 ADD MSTORE PUSH0 PUSH2 0x2C0B ADD MSTORE PUSH0 PUSH2 0x2C34 ADD MSTORE PUSH2 0x5FF6 PUSH0 RETURN INVALID PUSH1 0x80 PUSH1 0x40 MSTORE PUSH1 0x4 CALLDATASIZE LT PUSH2 0x233 JUMPI PUSH0 CALLDATALOAD PUSH1 0xE0 SHR DUP1 PUSH4 0x5F398A14 GT PUSH2 0x12D JUMPI DUP1 PUSH4 0xC01F9E37 GT PUSH2 0xAA JUMPI DUP1 PUSH4 0xDEAAA7CC GT PUSH2 0x6E JUMPI DUP1 PUSH4 0xDEAAA7CC EQ PUSH2 0x9AD JUMPI DUP1 PUSH4 0xEB9019D4 EQ PUSH2 0x9D7 JUMPI DUP1 PUSH4 0xF23A6E61 EQ PUSH2 0xA13 JUMPI DUP1 PUSH4 0xF8CE560A EQ PUSH2 0xA4F JUMPI DUP1 PUSH4 0xFC0C546A EQ PUSH2 0xA8B JUMPI PUSH2 0x2AF JUMP JUMPDEST DUP1 PUSH4 0xC01F9E37 EQ PUSH2 0x8C5 JUMPI DUP1 PUSH4 0xC28BC2FA EQ PUSH2 0x901 JUMPI DUP1 PUSH4 0xC59057E4 EQ PUSH2 0x91D JUMPI DUP1 PUSH4 0xD33219B4 EQ PUSH2 0x959 JUMPI DUP1 PUSH4 0xDD4E2BA5 EQ PUSH2 0x983 JUMPI PUSH2 0x2AF JUMP JUMPDEST DUP1 PUSH4 0x9A802A6D GT PUSH2 0xF1 JUMPI DUP1 PUSH4 0x9A802A6D EQ PUSH2 0x7BF JUMPI DUP1 PUSH4 0xA890C910 EQ PUSH2 0x7FB JUMPI DUP1 PUSH4 0xAB58FB8E EQ PUSH2 0x823 JUMPI DUP1 PUSH4 0xB58131B0 EQ PUSH2 0x85F JUMPI DUP1 PUSH4 0xBC197C81 EQ PUSH2 0x889 JUMPI PUSH2 0x2AF JUMP JUMPDEST DUP1 PUSH4 0x5F398A14 EQ PUSH2 0x6B1 JUMPI DUP1 PUSH4 0x7B3C71D3 EQ PUSH2 0x6ED JUMPI DUP1 PUSH4 0x7D5E81E2 EQ PUSH2 0x729 JUMPI DUP1 PUSH4 0x84B0196E EQ PUSH2 0x765 JUMPI DUP1 PUSH4 0x91DDADF4 EQ PUSH2 0x795 JUMPI PUSH2 0x2AF JUMP JUMPDEST DUP1 PUSH4 0x2FE3E261 GT PUSH2 0x1BB JUMPI DUP1 PUSH4 0x452115D6 GT PUSH2 0x17F JUMPI DUP1 PUSH4 0x452115D6 EQ PUSH2 0x5A7 JUMPI DUP1 PUSH4 0x4BF5D7E9 EQ PUSH2 0x5E3 JUMPI DUP1 PUSH4 0x544FFC9C EQ PUSH2 0x60D JUMPI DUP1 PUSH4 0x54FD4D50 EQ PUSH2 0x64B JUMPI DUP1 PUSH4 0x56781388 EQ PUSH2 0x675 JUMPI PUSH2 0x2AF JUMP JUMPDEST DUP1 PUSH4 0x2FE3E261 EQ PUSH2 0x49F JUMPI DUP1 PUSH4 0x3932ABB1 EQ PUSH2 0x4C9 JUMPI DUP1 PUSH4 0x3BCCF4FD EQ PUSH2 0x4F3 JUMPI DUP1 PUSH4 0x3E4F49E6 EQ PUSH2 0x52F JUMPI DUP1 PUSH4 0x43859632 EQ PUSH2 0x56B JUMPI PUSH2 0x2AF JUMP JUMPDEST DUP1 PUSH4 0x143489D0 GT PUSH2 0x202 JUMPI DUP1 PUSH4 0x143489D0 EQ PUSH2 0x37F JUMPI DUP1 PUSH4 0x150B7A02 EQ PUSH2 0x3BB JUMPI DUP1 PUSH4 0x160CBED7 EQ PUSH2 0x3F7 JUMPI DUP1 PUSH4 0x2656227D EQ PUSH2 0x433 JUMPI DUP1 PUSH4 0x2D63F693 EQ PUSH2 0x463 JUMPI PUSH2 0x2AF JUMP JUMPDEST DUP1 PUSH4 0x1FFC9A7 EQ PUSH2 0x2B3 JUMPI DUP1 PUSH4 0x2A251A3 EQ PUSH2 0x2EF JUMPI DUP1 PUSH4 0x3420181 EQ PUSH2 0x319 JUMPI DUP1 PUSH4 0x6FDDE03 EQ PUSH2 0x355 JUMPI PUSH2 0x2AF JUMP JUMPDEST CALLDATASIZE PUSH2 0x2AF JUMPI ADDRESS PUSH20 0xFFFFFFFFFFFFFFFFFFFFFFFFFFFFFFFFFFFFFFFF AND PUSH2 0x257 PUSH2 0xAB5 JUMP JUMPDEST PUSH20 0xFFFFFFFFFFFFFFFFFFFFFFFFFFFFFFFFFFFFFFFF AND EQ PUSH2 0x2AD JUMPI PUSH1 0x40 MLOAD PUSH32 0x8C379A000000000000000000000000000000000000000000000000000000000 DUP2 MSTORE PUSH1 0x4 ADD PUSH2 0x2A4 SWAP1 PUSH2 0x391B JUMP JUMPDEST PUSH1 0x40 MLOAD DUP1 SWAP2 SUB SWAP1 REVERT JUMPDEST STOP JUMPDEST PUSH0 DUP1 REVERT JUMPDEST CALLVALUE DUP1 ISZERO PUSH2 0x2BE JUMPI PUSH0 DUP1 REVERT JUMPDEST POP PUSH2 0x2D9 PUSH1 0x4 DUP1 CALLDATASIZE SUB DUP2 ADD SWAP1 PUSH2 0x2D4 SWAP2 SWAP1 PUSH2 0x399F JUMP JUMPDEST PUSH2 0xAC3 JUMP JUMPDEST PUSH1 0x40 MLOAD PUSH2 0x2E6 SWAP2 SWAP1 PUSH2 0x39E4 JUMP JUMPDEST PUSH1 0x40 MLOAD DUP1 SWAP2 SUB SWAP1 RETURN JUMPDEST CALLVALUE DUP1 ISZERO PUSH2 0x2FA JUMPI PUSH0 DUP1 REVERT JUMPDEST POP PUSH2 0x303 PUSH2 0xAD4 JUMP JUMPDEST PUSH1 0x40 MLOAD PUSH2 0x310 SWAP2 SWAP1 PUSH2 0x3A15 JUMP JUMPDEST PUSH1 0x40 MLOAD DUP1 SWAP2 SUB SWAP1 RETURN JUMPDEST CALLVALUE DUP1 ISZERO PUSH2 0x324 JUMPI PUSH0 DUP1 REVERT JUMPDEST POP PUSH2 0x33F PUSH1 0x4 DUP1 CALLDATASIZE SUB DUP2 ADD SWAP1 PUSH2 0x33A SWAP2 SWAP1 PUSH2 0x3C5A JUMP JUMPDEST PUSH2 0xADD JUMP JUMPDEST PUSH1 0x40 MLOAD PUSH2 0x34C SWAP2 SWAP1 PUSH2 0x3A15 JUMP JUMPDEST PUSH1 0x40 MLOAD DUP1 SWAP2 SUB SWAP1 RETURN JUMPDEST CALLVALUE DUP1 ISZERO PUSH2 0x360 JUMPI PUSH0 DUP1 REVERT JUMPDEST POP PUSH2 0x369 PUSH2 0xBC0 JUMP JUMPDEST PUSH1 0x40 MLOAD PUSH2 0x376 SWAP2 SWAP1 PUSH2 0x3D9D JUMP JUMPDEST PUSH1 0x40 MLOAD DUP1 SWAP2 SUB SWAP1 RETURN JUMPDEST CALLVALUE DUP1 ISZERO PUSH2 0x38A JUMPI PUSH0 DUP1 REVERT JUMPDEST POP PUSH2 0x3A5 PUSH1 0x4 DUP1 CALLDATASIZE SUB DUP2 ADD SWAP1 PUSH2 0x3A0 SWAP2 SWAP1 PUSH2 0x3DBD JUMP JUMPDEST PUSH2 0xC50 JUMP JUMPDEST PUSH1 0x40 MLOAD PUSH2 0x3B2 SWAP2 SWAP1 PUSH2 0x3E27 JUMP JUMPDEST PUSH1 0x40 MLOAD DUP1 SWAP2 SUB SWAP1 RETURN JUMPDEST CALLVALUE DUP1 ISZERO PUSH2 0x3C6 JUMPI PUSH0 DUP1 REVERT JUMPDEST POP PUSH2 0x3E1 PUSH1 0x4 DUP1 CALLDATASIZE SUB DUP2 ADD SWAP1 PUSH2 0x3DC SWAP2 SWAP1 PUSH2 0x3E6A JUMP JUMPDEST PUSH2 0xC8C JUMP JUMPDEST PUSH1 0x40 MLOAD PUSH2 0x3EE SWAP2 SWAP1 PUSH2 0x3EF9 JUMP JUMPDEST PUSH1 0x40 MLOAD DUP1 SWAP2 SUB SWAP1 RETURN JUMPDEST CALLVALUE DUP1 ISZERO PUSH2 0x402 JUMPI PUSH0 DUP1 REVERT JUMPDEST POP PUSH2 0x41D PUSH1 0x4 DUP1 CALLDATASIZE SUB DUP2 ADD SWAP1 PUSH2 0x418 SWAP2 SWAP1 PUSH2 0x4170 JUMP JUMPDEST PUSH2 0xC9F JUMP JUMPDEST PUSH1 0x40 MLOAD PUSH2 0x42A SWAP2 SWAP1 PUSH2 0x3A15 JUMP JUMPDEST PUSH1 0x40 MLOAD DUP1 SWAP2 SUB SWAP1 RETURN JUMPDEST PUSH2 0x44D PUSH1 0x4 DUP1 CALLDATASIZE SUB DUP2 ADD SWAP1 PUSH2 0x448 SWAP2 SWAP1 PUSH2 0x4170 JUMP JUMPDEST PUSH2 0xF47 JUMP JUMPDEST PUSH1 0x40 MLOAD PUSH2 0x45A SWAP2 SWAP1 PUSH2 0x3A15 JUMP JUMPDEST PUSH1 0x40 MLOAD DUP1 SWAP2 SUB SWAP1 RETURN JUMPDEST CALLVALUE DUP1 ISZERO PUSH2 0x46E JUMPI PUSH0 DUP1 REVERT JUMPDEST POP PUSH2 0x489 PUSH1 0x4 DUP1 CALLDATASIZE SUB DUP2 ADD SWAP1 PUSH2 0x484 SWAP2 SWAP1 PUSH2 0x3DBD JUMP JUMPDEST PUSH2 0x1090 JUMP JUMPDEST PUSH1 0x40 MLOAD PUSH2 0x496 SWAP2 SWAP1 PUSH2 0x3A15 JUMP JUMPDEST PUSH1 0x40 MLOAD DUP1 SWAP2 SUB SWAP1 RETURN JUMPDEST CALLVALUE DUP1 ISZERO PUSH2 0x4AA JUMPI PUSH0 DUP1 REVERT JUMPDEST POP PUSH2 0x4B3 PUSH2 0x10C9 JUMP JUMPDEST PUSH1 0x40 MLOAD PUSH2 0x4C0 SWAP2 SWAP1 PUSH2 0x4237 JUMP JUMPDEST PUSH1 0x40 MLOAD DUP1 SWAP2 SUB SWAP1 RETURN JUMPDEST CALLVALUE DUP1 ISZERO PUSH2 0x4D4 JUMPI PUSH0 DUP1 REVERT JUMPDEST POP PUSH2 0x4DD PUSH2 0x10ED JUMP JUMPDEST PUSH1 0x40 MLOAD PUSH2 0x4EA SWAP2 SWAP1 PUSH2 0x3A15 JUMP JUMPDEST PUSH1 0x40 MLOAD DUP1 SWAP2 SUB SWAP1 RETURN JUMPDEST CALLVALUE DUP1 ISZERO PUSH2 0x4FE JUMPI PUSH0 DUP1 REVERT JUMPDEST POP PUSH2 0x519 PUSH1 0x4 DUP1 CALLDATASIZE SUB DUP2 ADD SWAP1 PUSH2 0x514 SWAP2 SWAP1 PUSH2 0x4250 JUMP JUMPDEST PUSH2 0x10F5 JUMP JUMPDEST PUSH1 0x40 MLOAD PUSH2 0x526 SWAP2 SWAP1 PUSH2 0x3A15 JUMP JUMPDEST PUSH1 0x40 MLOAD DUP1 SWAP2 SUB SWAP1 RETURN JUMPDEST CALLVALUE DUP1 ISZERO PUSH2 0x53A JUMPI PUSH0 DUP1 REVERT JUMPDEST POP PUSH2 0x555 PUSH1 0x4 DUP1 CALLDATASIZE SUB DUP2 ADD SWAP1 PUSH2 0x550 SWAP2 SWAP1 PUSH2 0x3DBD JUMP JUMPDEST PUSH2 0x117D JUMP JUMPDEST PUSH1 0x40 MLOAD PUSH2 0x562 SWAP2 SWAP1 PUSH2 0x433A JUMP JUMPDEST PUSH1 0x40 MLOAD DUP1 SWAP2 SUB SWAP1 RETURN JUMPDEST CALLVALUE DUP1 ISZERO PUSH2 0x576 JUMPI PUSH0 DUP1 REVERT JUMPDEST POP PUSH2 0x591 PUSH1 0x4 DUP1 CALLDATASIZE SUB DUP2 ADD SWAP1 PUSH2 0x58C SWAP2 SWAP1 PUSH2 0x4353 JUMP JUMPDEST PUSH2 0x118E JUMP JUMPDEST PUSH1 0x40 MLOAD PUSH2 0x59E SWAP2 SWAP1 PUSH2 0x39E4 JUMP JUMPDEST PUSH1 0x40 MLOAD DUP1 SWAP2 SUB SWAP1 RETURN JUMPDEST CALLVALUE DUP1 ISZERO PUSH2 0x5B2 JUMPI PUSH0 DUP1 REVERT JUMPDEST POP PUSH2 0x5CD PUSH1 0x4 DUP1 CALLDATASIZE SUB DUP2 ADD SWAP1 PUSH2 0x5C8 SWAP2 SWAP1 PUSH2 0x4170 JUMP JUMPDEST PUSH2 0x11F3 JUMP JUMPDEST PUSH1 0x40 MLOAD PUSH2 0x5DA SWAP2 SWAP1 PUSH2 0x3A15 JUMP JUMPDEST PUSH1 0x40 MLOAD DUP1 SWAP2 SUB SWAP1 RETURN JUMPDEST CALLVALUE DUP1 ISZERO PUSH2 0x5EE JUMPI PUSH0 DUP1 REVERT JUMPDEST POP PUSH2 0x5F7 PUSH2 0x1330 JUMP JUMPDEST PUSH1 0x40 MLOAD PUSH2 0x604 SWAP2 SWAP1 PUSH2 0x3D9D JUMP JUMPDEST PUSH1 0x40 MLOAD DUP1 SWAP2 SUB SWAP1 RETURN JUMPDEST CALLVALUE DUP1 ISZERO PUSH2 0x618 JUMPI PUSH0 DUP1 REVERT JUMPDEST POP PUSH2 0x633 PUSH1 0x4 DUP1 CALLDATASIZE SUB DUP2 ADD SWAP1 PUSH2 0x62E SWAP2 SWAP1 PUSH2 0x3DBD JUMP JUMPDEST PUSH2 0x1406 JUMP JUMPDEST PUSH1 0x40 MLOAD PUSH2 0x642 SWAP4 SWAP3 SWAP2 SWAP1 PUSH2 0x4391 JUMP JUMPDEST PUSH1 0x40 MLOAD DUP1 SWAP2 SUB SWAP1 RETURN JUMPDEST CALLVALUE DUP1 ISZERO PUSH2 0x656 JUMPI PUSH0 DUP1 REVERT JUMPDEST POP PUSH2 0x65F PUSH2 0x1439 JUMP JUMPDEST PUSH1 0x40 MLOAD PUSH2 0x66C SWAP2 SWAP1 PUSH2 0x3D9D JUMP JUMPDEST PUSH1 0x40 MLOAD DUP1 SWAP2 SUB SWAP1 RETURN JUMPDEST CALLVALUE DUP1 ISZERO PUSH2 0x680 JUMPI PUSH0 DUP1 REVERT JUMPDEST POP PUSH2 0x69B PUSH1 0x4 DUP1 CALLDATASIZE SUB DUP2 ADD SWAP1 PUSH2 0x696 SWAP2 SWAP1 PUSH2 0x43C6 JUMP JUMPDEST PUSH2 0x1476 JUMP JUMPDEST PUSH1 0x40 MLOAD PUSH2 0x6A8 SWAP2 SWAP1 PUSH2 0x3A15 JUMP JUMPDEST PUSH1 0x40 MLOAD DUP1 SWAP2 SUB SWAP1 RETURN JUMPDEST CALLVALUE DUP1 ISZERO PUSH2 0x6BC JUMPI PUSH0 DUP1 REVERT JUMPDEST POP PUSH2 0x6D7 PUSH1 0x4 DUP1 CALLDATASIZE SUB DUP2 ADD SWAP1 PUSH2 0x6D2 SWAP2 SWAP1 PUSH2 0x4404 JUMP JUMPDEST PUSH2 0x14A5 JUMP JUMPDEST PUSH1 0x40 MLOAD PUSH2 0x6E4 SWAP2 SWAP1 PUSH2 0x3A15 JUMP JUMPDEST PUSH1 0x40 MLOAD DUP1 SWAP2 SUB SWAP1 RETURN JUMPDEST CALLVALUE DUP1 ISZERO PUSH2 0x6F8 JUMPI PUSH0 DUP1 REVERT JUMPDEST POP PUSH2 0x713 PUSH1 0x4 DUP1 CALLDATASIZE SUB DUP2 ADD SWAP1 PUSH2 0x70E SWAP2 SWAP1 PUSH2 0x44A4 JUMP JUMPDEST PUSH2 0x150D JUMP JUMPDEST PUSH1 0x40 MLOAD PUSH2 0x720 SWAP2 SWAP1 PUSH2 0x3A15 JUMP JUMPDEST PUSH1 0x40 MLOAD DUP1 SWAP2 SUB SWAP1 RETURN JUMPDEST CALLVALUE DUP1 ISZERO PUSH2 0x734 JUMPI PUSH0 DUP1 REVERT JUMPDEST POP PUSH2 0x74F PUSH1 0x4 DUP1 CALLDATASIZE SUB DUP2 ADD SWAP1 PUSH2 0x74A SWAP2 SWAP1 PUSH2 0x45B3 JUMP JUMPDEST PUSH2 0x1573 JUMP JUMPDEST PUSH1 0x40 MLOAD PUSH2 0x75C SWAP2 SWAP1 PUSH2 0x3A15 JUMP JUMPDEST PUSH1 0x40 MLOAD DUP1 SWAP2 SUB SWAP1 RETURN JUMPDEST CALLVALUE DUP1 ISZERO PUSH2 0x770 JUMPI PUSH0 DUP1 REVERT JUMPDEST POP PUSH2 0x779 PUSH2 0x158A JUMP JUMPDEST PUSH1 0x40 MLOAD PUSH2 0x78C SWAP8 SWAP7 SWAP6 SWAP5 SWAP4 SWAP3 SWAP2 SWAP1 PUSH2 0x4778 JUMP JUMPDEST PUSH1 0x40 MLOAD DUP1 SWAP2 SUB SWAP1 RETURN JUMPDEST CALLVALUE DUP1 ISZERO PUSH2 0x7A0 JUMPI PUSH0 DUP1 REVERT JUMPDEST POP PUSH2 0x7A9 PUSH2 0x1686 JUMP JUMPDEST PUSH1 0x40 MLOAD PUSH2 0x7B6 SWAP2 SWAP1 PUSH2 0x481A JUMP JUMPDEST PUSH1 0x40 MLOAD DUP1 SWAP2 SUB SWAP1 RETURN JUMPDEST CALLVALUE DUP1 ISZERO PUSH2 0x7CA JUMPI PUSH0 DUP1 REVERT JUMPDEST POP PUSH2 0x7E5 PUSH1 0x4 DUP1 CALLDATASIZE SUB DUP2 ADD SWAP1 PUSH2 0x7E0 SWAP2 SWAP1 PUSH2 0x4833 JUMP JUMPDEST PUSH2 0x172B JUMP JUMPDEST PUSH1 0x40 MLOAD PUSH2 0x7F2 SWAP2 SWAP1 PUSH2 0x3A15 JUMP JUMPDEST PUSH1 0x40 MLOAD DUP1 SWAP2 SUB SWAP1 RETURN JUMPDEST CALLVALUE DUP1 ISZERO PUSH2 0x806 JUMPI PUSH0 DUP1 REVERT JUMPDEST POP PUSH2 0x821 PUSH1 0x4 DUP1 CALLDATASIZE SUB DUP2 ADD SWAP1 PUSH2 0x81C SWAP2 SWAP1 PUSH2 0x48EB JUMP JUMPDEST PUSH2 0x1740 JUMP JUMPDEST STOP JUMPDEST CALLVALUE DUP1 ISZERO PUSH2 0x82E JUMPI PUSH0 DUP1 REVERT JUMPDEST POP PUSH2 0x849 PUSH1 0x4 DUP1 CALLDATASIZE SUB DUP2 ADD SWAP1 PUSH2 0x844 SWAP2 SWAP1 PUSH2 0x3DBD JUMP JUMPDEST PUSH2 0x1836 JUMP JUMPDEST PUSH1 0x40 MLOAD PUSH2 0x856 SWAP2 SWAP1 PUSH2 0x3A15 JUMP JUMPDEST PUSH1 0x40 MLOAD DUP1 SWAP2 SUB SWAP1 RETURN JUMPDEST CALLVALUE DUP1 ISZERO PUSH2 0x86A JUMPI PUSH0 DUP1 REVERT JUMPDEST POP PUSH2 0x873 PUSH2 0x18FC JUMP JUMPDEST PUSH1 0x40 MLOAD PUSH2 0x880 SWAP2 SWAP1 PUSH2 0x3A15 JUMP JUMPDEST PUSH1 0x40 MLOAD DUP1 SWAP2 SUB SWAP1 RETURN JUMPDEST CALLVALUE DUP1 ISZERO PUSH2 0x894 JUMPI PUSH0 DUP1 REVERT JUMPDEST POP PUSH2 0x8AF PUSH1 0x4 DUP1 CALLDATASIZE SUB DUP2 ADD SWAP1 PUSH2 0x8AA SWAP2 SWAP1 PUSH2 0x4916 JUMP JUMPDEST PUSH2 0x1900 JUMP JUMPDEST PUSH1 0x40 MLOAD PUSH2 0x8BC SWAP2 SWAP1 PUSH2 0x3EF9 JUMP JUMPDEST PUSH1 0x40 MLOAD DUP1 SWAP2 SUB SWAP1 RETURN JUMPDEST CALLVALUE DUP1 ISZERO PUSH2 0x8D0 JUMPI PUSH0 DUP1 REVERT JUMPDEST POP PUSH2 0x8EB PUSH1 0x4 DUP1 CALLDATASIZE SUB DUP2 ADD SWAP1 PUSH2 0x8E6 SWAP2 SWAP1 PUSH2 0x3DBD JUMP JUMPDEST PUSH2 0x1914 JUMP JUMPDEST PUSH1 0x40 MLOAD PUSH2 0x8F8 SWAP2 SWAP1 PUSH2 0x3A15 JUMP JUMPDEST PUSH1 0x40 MLOAD DUP1 SWAP2 SUB SWAP1 RETURN JUMPDEST PUSH2 0x91B PUSH1 0x4 DUP1 CALLDATASIZE SUB DUP2 ADD SWAP1 PUSH2 0x916 SWAP2 SWAP1 PUSH2 0x4A36 JUMP JUMPDEST PUSH2 0x194E JUMP JUMPDEST STOP JUMPDEST CALLVALUE DUP1 ISZERO PUSH2 0x928 JUMPI PUSH0 DUP1 REVERT JUMPDEST POP PUSH2 0x943 PUSH1 0x4 DUP1 CALLDATASIZE SUB DUP2 ADD SWAP1 PUSH2 0x93E SWAP2 SWAP1 PUSH2 0x4170 JUMP JUMPDEST PUSH2 0x1AD2 JUMP JUMPDEST PUSH1 0x40 MLOAD PUSH2 0x950 SWAP2 SWAP1 PUSH2 0x3A15 JUMP JUMPDEST PUSH1 0x40 MLOAD DUP1 SWAP2 SUB SWAP1 RETURN JUMPDEST CALLVALUE DUP1 ISZERO PUSH2 0x964 JUMPI PUSH0 DUP1 REVERT JUMPDEST POP PUSH2 0x96D PUSH2 0x1B0C JUMP JUMPDEST PUSH1 0x40 MLOAD PUSH2 0x97A SWAP2 SWAP1 PUSH2 0x3E27 JUMP JUMPDEST PUSH1 0x40 MLOAD DUP1 SWAP2 SUB SWAP1 RETURN JUMPDEST CALLVALUE DUP1 ISZERO PUSH2 0x98E JUMPI PUSH0 DUP1 REVERT JUMPDEST POP PUSH2 0x997 PUSH2 0x1B34 JUMP JUMPDEST PUSH1 0x40 MLOAD PUSH2 0x9A4 SWAP2 SWAP1 PUSH2 0x3D9D JUMP JUMPDEST PUSH1 0x40 MLOAD DUP1 SWAP2 SUB SWAP1 RETURN JUMPDEST CALLVALUE DUP1 ISZERO PUSH2 0x9B8 JUMPI PUSH0 DUP1 REVERT JUMPDEST POP PUSH2 0x9C1 PUSH2 0x1B71 JUMP JUMPDEST PUSH1 0x40 MLOAD PUSH2 0x9CE SWAP2 SWAP1 PUSH2 0x4237 JUMP JUMPDEST PUSH1 0x40 MLOAD DUP1 SWAP2 SUB SWAP1 RETURN JUMPDEST CALLVALUE DUP1 ISZERO PUSH2 0x9E2 JUMPI PUSH0 DUP1 REVERT JUMPDEST POP PUSH2 0x9FD PUSH1 0x4 DUP1 CALLDATASIZE SUB DUP2 ADD SWAP1 PUSH2 0x9F8 SWAP2 SWAP1 PUSH2 0x4AA7 JUMP JUMPDEST PUSH2 0x1B95 JUMP JUMPDEST PUSH1 0x40 MLOAD PUSH2 0xA0A SWAP2 SWAP1 PUSH2 0x3A15 JUMP JUMPDEST PUSH1 0x40 MLOAD DUP1 SWAP2 SUB SWAP1 RETURN JUMPDEST CALLVALUE DUP1 ISZERO PUSH2 0xA1E JUMPI PUSH0 DUP1 REVERT JUMPDEST POP PUSH2 0xA39 PUSH1 0x4 DUP1 CALLDATASIZE SUB DUP2 ADD SWAP1 PUSH2 0xA34 SWAP2 SWAP1 PUSH2 0x4AE5 JUMP JUMPDEST PUSH2 0x1BB0 JUMP JUMPDEST PUSH1 0x40 MLOAD PUSH2 0xA46 SWAP2 SWAP1 PUSH2 0x3EF9 JUMP JUMPDEST PUSH1 0x40 MLOAD DUP1 SWAP2 SUB SWAP1 RETURN JUMPDEST CALLVALUE DUP1 ISZERO PUSH2 0xA5A JUMPI PUSH0 DUP1 REVERT JUMPDEST POP PUSH2 0xA75 PUSH1 0x4 DUP1 CALLDATASIZE SUB DUP2 ADD SWAP1 PUSH2 0xA70 SWAP2 SWAP1 PUSH2 0x3DBD JUMP JUMPDEST PUSH2 0x1BC4 JUMP JUMPDEST PUSH1 0x40 MLOAD PUSH2 0xA82 SWAP2 SWAP1 PUSH2 0x3A15 JUMP JUMPDEST PUSH1 0x40 MLOAD DUP1 SWAP2 SUB SWAP1 RETURN JUMPDEST CALLVALUE DUP1 ISZERO PUSH2 0xA96 JUMPI PUSH0 DUP1 REVERT JUMPDEST POP PUSH2 0xA9F PUSH2 0x1BD6 JUMP JUMPDEST PUSH1 0x40 MLOAD PUSH2 0xAAC SWAP2 SWAP1 PUSH2 0x4BD3 JUMP JUMPDEST PUSH1 0x40 MLOAD DUP1 SWAP2 SUB SWAP1 RETURN JUMPDEST PUSH0 PUSH2 0xABE PUSH2 0x1BFA JUMP JUMPDEST SWAP1 POP SWAP1 JUMP JUMPDEST PUSH0 PUSH2 0xACD DUP3 PUSH2 0x1C22 JUMP JUMPDEST SWAP1 POP SWAP2 SWAP1 POP JUMP JUMPDEST PUSH0 PUSH2 0xB2FA SWAP1 POP SWAP1 JUMP JUMPDEST PUSH0 DUP1 PUSH2 0xB5F PUSH2 0xB57 PUSH32 0xB3B3F3B703CD84CE352197DCFF232B1B5D3CFB2025CE47CF04742D0651F1AF88 DUP13 DUP13 DUP13 DUP13 PUSH1 0x40 MLOAD PUSH2 0xB18 SWAP3 SWAP2 SWAP1 PUSH2 0x4C1A JUMP JUMPDEST PUSH1 0x40 MLOAD DUP1 SWAP2 SUB SWAP1 KECCAK256 DUP12 DUP1 MLOAD SWAP1 PUSH1 0x20 ADD KECCAK256 PUSH1 0x40 MLOAD PUSH1 0x20 ADD PUSH2 0xB3C SWAP6 SWAP5 SWAP4 SWAP3 SWAP2 SWAP1 PUSH2 0x4C41 JUMP JUMPDEST PUSH1 0x40 MLOAD PUSH1 0x20 DUP2 DUP4 SUB SUB DUP2 MSTORE SWAP1 PUSH1 0x40 MSTORE DUP1 MLOAD SWAP1 PUSH1 0x20 ADD KECCAK256 PUSH2 0x1C9B JUMP JUMPDEST DUP7 DUP7 DUP7 PUSH2 0x1CB4 JUMP JUMPDEST SWAP1 POP PUSH2 0xBB1 DUP11 DUP3 DUP12 DUP12 DUP12 DUP1 DUP1 PUSH1 0x1F ADD PUSH1 0x20 DUP1 SWAP2 DIV MUL PUSH1 0x20 ADD PUSH1 0x40 MLOAD SWAP1 DUP2 ADD PUSH1 0x40 MSTORE DUP1 SWAP4 SWAP3 SWAP2 SWAP1 DUP2 DUP2 MSTORE PUSH1 0x20 ADD DUP4 DUP4 DUP1 DUP3 DUP5 CALLDATACOPY PUSH0 DUP2 DUP5 ADD MSTORE PUSH1 0x1F NOT PUSH1 0x1F DUP3 ADD AND SWAP1 POP DUP1 DUP4 ADD SWAP3 POP POP POP POP POP POP POP DUP11 PUSH2 0x1CDD JUMP JUMPDEST SWAP2 POP POP SWAP9 SWAP8 POP POP POP POP POP POP POP POP JUMP JUMPDEST PUSH1 0x60 PUSH1 0x2 DUP1 SLOAD PUSH2 0xBCF SWAP1 PUSH2 0x4CBF JUMP JUMPDEST DUP1 PUSH1 0x1F ADD PUSH1 0x20 DUP1 SWAP2 DIV MUL PUSH1 0x20 ADD PUSH1 0x40 MLOAD SWAP1 DUP2 ADD PUSH1 0x40 MSTORE DUP1 SWAP3 SWAP2 SWAP1 DUP2 DUP2 MSTORE PUSH1 0x20 ADD DUP3 DUP1 SLOAD PUSH2 0xBFB SWAP1 PUSH2 0x4CBF JUMP JUMPDEST DUP1 ISZERO PUSH2 0xC46 JUMPI DUP1 PUSH1 0x1F LT PUSH2 0xC1D JUMPI PUSH2 0x100 DUP1 DUP4 SLOAD DIV MUL DUP4 MSTORE SWAP2 PUSH1 0x20 ADD SWAP2 PUSH2 0xC46 JUMP JUMPDEST DUP3 ADD SWAP2 SWAP1 PUSH0 MSTORE PUSH1 0x20 PUSH0 KECCAK256 SWAP1 JUMPDEST DUP2 SLOAD DUP2 MSTORE SWAP1 PUSH1 0x1 ADD SWAP1 PUSH1 0x20 ADD DUP1 DUP4 GT PUSH2 0xC29 JUMPI DUP3 SWAP1 SUB PUSH1 0x1F AND DUP3 ADD SWAP2 JUMPDEST POP POP POP POP POP SWAP1 POP SWAP1 JUMP JUMPDEST PUSH0 PUSH1 0x3 PUSH0 DUP4 DUP2 MSTORE PUSH1 0x20 ADD SWAP1 DUP2 MSTORE PUSH1 0x20 ADD PUSH0 KECCAK256 PUSH0 ADD PUSH1 0x8 SWAP1 SLOAD SWAP1 PUSH2 0x100 EXP SWAP1 DIV PUSH20 0xFFFFFFFFFFFFFFFFFFFFFFFFFFFFFFFFFFFFFFFF AND SWAP1 POP SWAP2 SWAP1 POP JUMP JUMPDEST PUSH0 PUSH4 0x150B7A02 PUSH1 0xE0 SHL SWAP1 POP SWAP5 SWAP4 POP POP POP POP JUMP JUMPDEST PUSH0 DUP1 PUSH2 0xCAD DUP7 DUP7 DUP7 DUP7 PUSH2 0x1AD2 JUMP JUMPDEST SWAP1 POP PUSH1 0x4 PUSH1 0x7 DUP2 GT ISZERO PUSH2 0xCC3 JUMPI PUSH2 0xCC2 PUSH2 0x42C7 JUMP JUMPDEST JUMPDEST PUSH2 0xCCC DUP3 PUSH2 0x117D JUMP JUMPDEST PUSH1 0x7 DUP2 GT ISZERO PUSH2 0xCDE JUMPI PUSH2 0xCDD PUSH2 0x42C7 JUMP JUMPDEST JUMPDEST EQ PUSH2 0xD1E JUMPI PUSH1 0x40 MLOAD PUSH32 0x8C379A000000000000000000000000000000000000000000000000000000000 DUP2 MSTORE PUSH1 0x4 ADD PUSH2 0xD15 SWAP1 PUSH2 0x4D5F JUMP JUMPDEST PUSH1 0x40 MLOAD DUP1 SWAP2 SUB SWAP1 REVERT JUMPDEST PUSH0 PUSH1 0x7 PUSH0 SWAP1 SLOAD SWAP1 PUSH2 0x100 EXP SWAP1 DIV PUSH20 0xFFFFFFFFFFFFFFFFFFFFFFFFFFFFFFFFFFFFFFFF AND PUSH20 0xFFFFFFFFFFFFFFFFFFFFFFFFFFFFFFFFFFFFFFFF AND PUSH4 0xF27A0C92 PUSH1 0x40 MLOAD DUP2 PUSH4 0xFFFFFFFF AND PUSH1 0xE0 SHL DUP2 MSTORE PUSH1 0x4 ADD PUSH1 0x20 PUSH1 0x40 MLOAD DUP1 DUP4 SUB DUP2 DUP7 GAS STATICCALL ISZERO DUP1 ISZERO PUSH2 0xD89 JUMPI RETURNDATASIZE PUSH0 DUP1 RETURNDATACOPY RETURNDATASIZE PUSH0 REVERT JUMPDEST POP POP POP POP PUSH1 0x40 MLOAD RETURNDATASIZE PUSH1 0x1F NOT PUSH1 0x1F DUP3 ADD AND DUP3 ADD DUP1 PUSH1 0x40 MSTORE POP DUP2 ADD SWAP1 PUSH2 0xDAD SWAP2 SWAP1 PUSH2 0x4D91 JUMP JUMPDEST SWAP1 POP PUSH1 0x7 PUSH0 SWAP1 SLOAD SWAP1 PUSH2 0x100 EXP SWAP1 DIV PUSH20 0xFFFFFFFFFFFFFFFFFFFFFFFFFFFFFFFFFFFFFFFF AND PUSH20 0xFFFFFFFFFFFFFFFFFFFFFFFFFFFFFFFFFFFFFFFF AND PUSH4 0xB1C5F427 DUP9 DUP9 DUP9 PUSH0 DUP10 PUSH1 0x40 MLOAD DUP7 PUSH4 0xFFFFFFFF AND PUSH1 0xE0 SHL DUP2 MSTORE PUSH1 0x4 ADD PUSH2 0xE11 SWAP6 SWAP5 SWAP4 SWAP3 SWAP2 SWAP1 PUSH2 0x4FC4 JUMP JUMPDEST PUSH1 0x20 PUSH1 0x40 MLOAD DUP1 DUP4 SUB DUP2 DUP7 GAS STATICCALL ISZERO DUP1 ISZERO PUSH2 0xE2C JUMPI RETURNDATASIZE PUSH0 DUP1 RETURNDATACOPY RETURNDATASIZE PUSH0 REVERT JUMPDEST POP POP POP POP PUSH1 0x40 MLOAD RETURNDATASIZE PUSH1 0x1F NOT PUSH1 0x1F DUP3 ADD AND DUP3 ADD DUP1 PUSH1 0x40 MSTORE POP DUP2 ADD SWAP1 PUSH2 0xE50 SWAP2 SWAP1 PUSH2 0x503E JUMP JUMPDEST PUSH1 0x8 PUSH0 DUP5 DUP2 MSTORE PUSH1 0x20 ADD SWAP1 DUP2 MSTORE PUSH1 0x20 ADD PUSH0 KECCAK256 DUP2 SWAP1 SSTORE POP PUSH1 0x7 PUSH0 SWAP1 SLOAD SWAP1 PUSH2 0x100 EXP SWAP1 DIV PUSH20 0xFFFFFFFFFFFFFFFFFFFFFFFFFFFFFFFFFFFFFFFF AND PUSH20 0xFFFFFFFFFFFFFFFFFFFFFFFFFFFFFFFFFFFFFFFF AND PUSH4 0x8F2A0BB0 DUP9 DUP9 DUP9 PUSH0 DUP10 DUP8 PUSH1 0x40 MLOAD DUP8 PUSH4 0xFFFFFFFF AND PUSH1 0xE0 SHL DUP2 MSTORE PUSH1 0x4 ADD PUSH2 0xEC9 SWAP7 SWAP6 SWAP5 SWAP4 SWAP3 SWAP2 SWAP1 PUSH2 0x5069 JUMP JUMPDEST PUSH0 PUSH1 0x40 MLOAD DUP1 DUP4 SUB DUP2 PUSH0 DUP8 DUP1 EXTCODESIZE ISZERO DUP1 ISZERO PUSH2 0xEE0 JUMPI PUSH0 DUP1 REVERT JUMPDEST POP GAS CALL ISZERO DUP1 ISZERO PUSH2 0xEF2 JUMPI RETURNDATASIZE PUSH0 DUP1 RETURNDATACOPY RETURNDATASIZE PUSH0 REVERT JUMPDEST POP POP POP POP PUSH32 0x9A2E42FD6722813D69113E7D0079D3D940171428DF7373DF9C7F7617CFDA2892 DUP3 DUP3 TIMESTAMP PUSH2 0xF24 SWAP2 SWAP1 PUSH2 0x510A JUMP JUMPDEST PUSH1 0x40 MLOAD PUSH2 0xF32 SWAP3 SWAP2 SWAP1 PUSH2 0x513D JUMP JUMPDEST PUSH1 0x40 MLOAD DUP1 SWAP2 SUB SWAP1 LOG1 DUP2 SWAP3 POP POP POP SWAP5 SWAP4 POP POP POP POP JUMP JUMPDEST PUSH0 DUP1 PUSH2 0xF55 DUP7 DUP7 DUP7 DUP7 PUSH2 0x1AD2 JUMP JUMPDEST SWAP1 POP PUSH0 PUSH2 0xF61 DUP3 PUSH2 0x117D JUMP JUMPDEST SWAP1 POP PUSH1 0x4 PUSH1 0x7 DUP2 GT ISZERO PUSH2 0xF77 JUMPI PUSH2 0xF76 PUSH2 0x42C7 JUMP JUMPDEST JUMPDEST DUP2 PUSH1 0x7 DUP2 GT ISZERO PUSH2 0xF8A JUMPI PUSH2 0xF89 PUSH2 0x42C7 JUMP JUMPDEST JUMPDEST EQ DUP1 PUSH2 0xFBA JUMPI POP PUSH1 0x5 PUSH1 0x7 DUP2 GT ISZERO PUSH2 0xFA5 JUMPI PUSH2 0xFA4 PUSH2 0x42C7 JUMP JUMPDEST JUMPDEST DUP2 PUSH1 0x7 DUP2 GT ISZERO PUSH2 0xFB8 JUMPI PUSH2 0xFB7 PUSH2 0x42C7 JUMP JUMPDEST JUMPDEST EQ JUMPDEST PUSH2 0xFF9 JUMPI PUSH1 0x40 MLOAD PUSH32 0x8C379A000000000000000000000000000000000000000000000000000000000 DUP2 MSTORE PUSH1 0x4 ADD PUSH2 0xFF0 SWAP1 PUSH2 0x4D5F JUMP JUMPDEST PUSH1 0x40 MLOAD DUP1 SWAP2 SUB SWAP1 REVERT JUMPDEST PUSH1 0x1 PUSH1 0x3 PUSH0 DUP5 DUP2 MSTORE PUSH1 0x20 ADD SWAP1 DUP2 MSTORE PUSH1 0x20 ADD PUSH0 KECCAK256 PUSH1 0x2 ADD PUSH0 PUSH2 0x100 EXP DUP2 SLOAD DUP2 PUSH1 0xFF MUL NOT AND SWAP1 DUP4 ISZERO ISZERO MUL OR SWAP1 SSTORE POP PUSH32 0x712AE1383F79AC853F8D882153778E0260EF8F03B504E2866E0593E04D2B291F DUP3 PUSH1 0x40 MLOAD PUSH2 0x1054 SWAP2 SWAP1 PUSH2 0x3A15 JUMP JUMPDEST PUSH1 0x40 MLOAD DUP1 SWAP2 SUB SWAP1 LOG1 PUSH2 0x1069 DUP3 DUP9 DUP9 DUP9 DUP9 PUSH2 0x1E62 JUMP JUMPDEST PUSH2 0x1076 DUP3 DUP9 DUP9 DUP9 DUP9 PUSH2 0x1F3E JUMP JUMPDEST PUSH2 0x1083 DUP3 DUP9 DUP9 DUP9 DUP9 PUSH2 0x1F52 JUMP JUMPDEST DUP2 SWAP3 POP POP POP SWAP5 SWAP4 POP POP POP POP JUMP JUMPDEST PUSH0 PUSH1 0x3 PUSH0 DUP4 DUP2 MSTORE PUSH1 0x20 ADD SWAP1 DUP2 MSTORE PUSH1 0x20 ADD PUSH0 KECCAK256 PUSH0 ADD PUSH0 SWAP1 SLOAD SWAP1 PUSH2 0x100 EXP SWAP1 DIV PUSH8 0xFFFFFFFFFFFFFFFF AND PUSH8 0xFFFFFFFFFFFFFFFF AND SWAP1 POP SWAP2 SWAP1 POP JUMP JUMPDEST PUSH32 0xB3B3F3B703CD84CE352197DCFF232B1B5D3CFB2025CE47CF04742D0651F1AF88 DUP2 JUMP JUMPDEST PUSH0 PUSH1 0x1 SWAP1 POP SWAP1 JUMP JUMPDEST PUSH0 DUP1 PUSH2 0x1155 PUSH2 0x114D PUSH32 0x150214D74D59B7D1E90C73FC22EF3D991DD0A76B046543D4D80AB92D2A50328F DUP10 DUP10 PUSH1 0x40 MLOAD PUSH1 0x20 ADD PUSH2 0x1132 SWAP4 SWAP3 SWAP2 SWAP1 PUSH2 0x5164 JUMP JUMPDEST PUSH1 0x40 MLOAD PUSH1 0x20 DUP2 DUP4 SUB SUB DUP2 MSTORE SWAP1 PUSH1 0x40 MSTORE DUP1 MLOAD SWAP1 PUSH1 0x20 ADD KECCAK256 PUSH2 0x1C9B JUMP JUMPDEST DUP7 DUP7 DUP7 PUSH2 0x1CB4 JUMP JUMPDEST SWAP1 POP PUSH2 0x1171 DUP8 DUP3 DUP9 PUSH1 0x40 MLOAD DUP1 PUSH1 0x20 ADD PUSH1 0x40 MSTORE DUP1 PUSH0 DUP2 MSTORE POP PUSH2 0x1FAD JUMP JUMPDEST SWAP2 POP POP SWAP6 SWAP5 POP POP POP POP POP JUMP JUMPDEST PUSH0 PUSH2 0x1187 DUP3 PUSH2 0x1FCC JUMP JUMPDEST SWAP1 POP SWAP2 SWAP1 POP JUMP JUMPDEST PUSH0 PUSH1 0x6 PUSH0 DUP5 DUP2 MSTORE PUSH1 0x20 ADD SWAP1 DUP2 MSTORE PUSH1 0x20 ADD PUSH0 KECCAK256 PUSH1 0x3 ADD PUSH0 DUP4 PUSH20 0xFFFFFFFFFFFFFFFFFFFFFFFFFFFFFFFFFFFFFFFF AND PUSH20 0xFFFFFFFFFFFFFFFFFFFFFFFFFFFFFFFFFFFFFFFF AND DUP2 MSTORE PUSH1 0x20 ADD SWAP1 DUP2 MSTORE PUSH1 0x20 ADD PUSH0 KECCAK256 PUSH0 SWAP1 SLOAD SWAP1 PUSH2 0x100 EXP SWAP1 DIV PUSH1 0xFF AND SWAP1 POP SWAP3 SWAP2 POP POP JUMP JUMPDEST PUSH0 DUP1 PUSH2 0x1201 DUP7 DUP7 DUP7 DUP7 PUSH2 0x1AD2 JUMP JUMPDEST SWAP1 POP PUSH0 PUSH1 0x7 DUP2 GT ISZERO PUSH2 0x1216 JUMPI PUSH2 0x1215 PUSH2 0x42C7 JUMP JUMPDEST JUMPDEST PUSH2 0x121F DUP3 PUSH2 0x117D JUMP JUMPDEST PUSH1 0x7 DUP2 GT ISZERO PUSH2 0x1231 JUMPI PUSH2 0x1230 PUSH2 0x42C7 JUMP JUMPDEST JUMPDEST EQ PUSH2 0x1271 JUMPI PUSH1 0x40 MLOAD PUSH32 0x8C379A000000000000000000000000000000000000000000000000000000000 DUP2 MSTORE PUSH1 0x4 ADD PUSH2 0x1268 SWAP1 PUSH2 0x51E3 JUMP JUMPDEST PUSH1 0x40 MLOAD DUP1 SWAP2 SUB SWAP1 REVERT JUMPDEST PUSH1 0x3 PUSH0 DUP3 DUP2 MSTORE PUSH1 0x20 ADD SWAP1 DUP2 MSTORE PUSH1 0x20 ADD PUSH0 KECCAK256 PUSH0 ADD PUSH1 0x8 SWAP1 SLOAD SWAP1 PUSH2 0x100 EXP SWAP1 DIV PUSH20 0xFFFFFFFFFFFFFFFFFFFFFFFFFFFFFFFFFFFFFFFF AND PUSH20 0xFFFFFFFFFFFFFFFFFFFFFFFFFFFFFFFFFFFFFFFF AND PUSH2 0x12C3 PUSH2 0x2194 JUMP JUMPDEST PUSH20 0xFFFFFFFFFFFFFFFFFFFFFFFFFFFFFFFFFFFFFFFF AND EQ PUSH2 0x1319 JUMPI PUSH1 0x40 MLOAD PUSH32 0x8C379A000000000000000000000000000000000000000000000000000000000 DUP2 MSTORE PUSH1 0x4 ADD PUSH2 0x1310 SWAP1 PUSH2 0x5271 JUMP JUMPDEST PUSH1 0x40 MLOAD DUP1 SWAP2 SUB SWAP1 REVERT JUMPDEST PUSH2 0x1325 DUP7 DUP7 DUP7 DUP7 PUSH2 0x219B JUMP JUMPDEST SWAP2 POP POP SWAP5 SWAP4 POP POP POP POP JUMP JUMPDEST PUSH1 0x60 PUSH32 0x0 PUSH20 0xFFFFFFFFFFFFFFFFFFFFFFFFFFFFFFFFFFFFFFFF AND PUSH4 0x4BF5D7E9 PUSH1 0x40 MLOAD DUP2 PUSH4 0xFFFFFFFF AND PUSH1 0xE0 SHL DUP2 MSTORE PUSH1 0x4 ADD PUSH0 PUSH1 0x40 MLOAD DUP1 DUP4 SUB DUP2 DUP7 GAS STATICCALL SWAP3 POP POP POP DUP1 ISZERO PUSH2 0x13BD JUMPI POP PUSH1 0x40 MLOAD RETURNDATASIZE PUSH0 DUP3 RETURNDATACOPY RETURNDATASIZE PUSH1 0x1F NOT PUSH1 0x1F DUP3 ADD AND DUP3 ADD DUP1 PUSH1 0x40 MSTORE POP DUP2 ADD SWAP1 PUSH2 0x13BA SWAP2 SWAP1 PUSH2 0x52FD JUMP JUMPDEST PUSH1 0x1 JUMPDEST PUSH2 0x13FE JUMPI PUSH1 0x40 MLOAD DUP1 PUSH1 0x40 ADD PUSH1 0x40 MSTORE DUP1 PUSH1 0x1D DUP2 MSTORE PUSH1 0x20 ADD PUSH32 0x6D6F64653D626C6F636B6E756D6265722666726F6D3D64656661756C74000000 DUP2 MSTORE POP SWAP1 POP PUSH2 0x1403 JUMP JUMPDEST DUP1 SWAP2 POP POP JUMPDEST SWAP1 JUMP JUMPDEST PUSH0 DUP1 PUSH0 DUP1 PUSH1 0x6 PUSH0 DUP7 DUP2 MSTORE PUSH1 0x20 ADD SWAP1 DUP2 MSTORE PUSH1 0x20 ADD PUSH0 KECCAK256 SWAP1 POP DUP1 PUSH0 ADD SLOAD DUP2 PUSH1 0x1 ADD SLOAD DUP3 PUSH1 0x2 ADD SLOAD SWAP4 POP SWAP4 POP SWAP4 POP POP SWAP2 SWAP4 SWAP1 SWAP3 POP JUMP JUMPDEST PUSH1 0x60 PUSH1 0x40 MLOAD DUP1 PUSH1 0x40 ADD PUSH1 0x40 MSTORE DUP1 PUSH1 0x1 DUP2 MSTORE PUSH1 0x20 ADD PUSH32 0x3100000000000000000000000000000000000000000000000000000000000000 DUP2 MSTORE POP SWAP1 POP SWAP1 JUMP JUMPDEST PUSH0 DUP1 PUSH2 0x1480 PUSH2 0x2194 JUMP JUMPDEST SWAP1 POP PUSH2 0x149C DUP5 DUP3 DUP6 PUSH1 0x40 MLOAD DUP1 PUSH1 0x20 ADD PUSH1 0x40 MSTORE DUP1 PUSH0 DUP2 MSTORE POP PUSH2 0x1FAD JUMP JUMPDEST SWAP2 POP POP SWAP3 SWAP2 POP POP JUMP JUMPDEST PUSH0 DUP1 PUSH2 0x14AF PUSH2 0x2194 JUMP JUMPDEST SWAP1 POP PUSH2 0x1501 DUP8 DUP3 DUP9 DUP9 DUP9 DUP1 DUP1 PUSH1 0x1F ADD PUSH1 0x20 DUP1 SWAP2 DIV MUL PUSH1 0x20 ADD PUSH1 0x40 MLOAD SWAP1 DUP2 ADD PUSH1 0x40 MSTORE DUP1 SWAP4 SWAP3 SWAP2 SWAP1 DUP2 DUP2 MSTORE PUSH1 0x20 ADD DUP4 DUP4 DUP1 DUP3 DUP5 CALLDATACOPY PUSH0 DUP2 DUP5 ADD MSTORE PUSH1 0x1F NOT PUSH1 0x1F DUP3 ADD AND SWAP1 POP DUP1 DUP4 ADD SWAP3 POP POP POP POP POP POP POP DUP8 PUSH2 0x1CDD JUMP JUMPDEST SWAP2 POP POP SWAP6 SWAP5 POP POP POP POP POP JUMP JUMPDEST PUSH0 DUP1 PUSH2 0x1517 PUSH2 0x2194 JUMP JUMPDEST SWAP1 POP PUSH2 0x1568 DUP7 DUP3 DUP8 DUP8 DUP8 DUP1 DUP1 PUSH1 0x1F ADD PUSH1 0x20 DUP1 SWAP2 DIV MUL PUSH1 0x20 ADD PUSH1 0x40 MLOAD SWAP1 DUP2 ADD PUSH1 0x40 MSTORE DUP1 SWAP4 SWAP3 SWAP2 SWAP1 DUP2 DUP2 MSTORE PUSH1 0x20 ADD DUP4 DUP4 DUP1 DUP3 DUP5 CALLDATACOPY PUSH0 DUP2 DUP5 ADD MSTORE PUSH1 0x1F NOT PUSH1 0x1F DUP3 ADD AND SWAP1 POP DUP1 DUP4 ADD SWAP3 POP POP POP POP POP POP POP PUSH2 0x1FAD JUMP JUMPDEST SWAP2 POP POP SWAP5 SWAP4 POP POP POP POP JUMP JUMPDEST PUSH0 PUSH2 0x1580 DUP6 DUP6 DUP6 DUP6 PUSH2 0x21B2 JUMP JUMPDEST SWAP1 POP SWAP5 SWAP4 POP POP POP POP JUMP JUMPDEST PUSH0 PUSH1 0x60 DUP1 PUSH0 DUP1 PUSH0 PUSH1 0x60 PUSH2 0x15C6 PUSH0 PUSH32 0x0 PUSH2 0x2643 SWAP1 SWAP2 SWAP1 PUSH4 0xFFFFFFFF AND JUMP JUMPDEST PUSH2 0x15FA PUSH1 0x1 PUSH32 0x0 PUSH2 0x2643 SWAP1 SWAP2 SWAP1 PUSH4 0xFFFFFFFF AND JUMP JUMPDEST CHAINID ADDRESS PUSH0 DUP1 SHL PUSH0 PUSH8 0xFFFFFFFFFFFFFFFF DUP2 GT ISZERO PUSH2 0x1619 JUMPI PUSH2 0x1618 PUSH2 0x3B03 JUMP JUMPDEST JUMPDEST PUSH1 0x40 MLOAD SWAP1 DUP1 DUP3 MSTORE DUP1 PUSH1 0x20 MUL PUSH1 0x20 ADD DUP3 ADD PUSH1 0x40 MSTORE DUP1 ISZERO PUSH2 0x1647 JUMPI DUP2 PUSH1 0x20 ADD PUSH1 0x20 DUP3 MUL DUP1 CALLDATASIZE DUP4 CALLDATACOPY DUP1 DUP3 ADD SWAP2 POP POP SWAP1 POP JUMPDEST POP PUSH32 0xF00000000000000000000000000000000000000000000000000000000000000 SWAP6 SWAP5 SWAP4 SWAP3 SWAP2 SWAP1 SWAP7 POP SWAP7 POP SWAP7 POP SWAP7 POP SWAP7 POP SWAP7 POP SWAP7 POP SWAP1 SWAP2 SWAP3 SWAP4 SWAP5 SWAP6 SWAP7 JUMP JUMPDEST PUSH0 PUSH32 0x0 PUSH20 0xFFFFFFFFFFFFFFFFFFFFFFFFFFFFFFFFFFFFFFFF AND PUSH4 0x91DDADF4 PUSH1 0x40 MLOAD DUP2 PUSH4 0xFFFFFFFF AND PUSH1 0xE0 SHL DUP2 MSTORE PUSH1 0x4 ADD PUSH1 0x20 PUSH1 0x40 MLOAD DUP1 DUP4 SUB DUP2 DUP7 GAS STATICCALL SWAP3 POP POP POP DUP1 ISZERO PUSH2 0x170F JUMPI POP PUSH1 0x40 MLOAD RETURNDATASIZE PUSH1 0x1F NOT PUSH1 0x1F DUP3 ADD AND DUP3 ADD DUP1 PUSH1 0x40 MSTORE POP DUP2 ADD SWAP1 PUSH2 0x170C SWAP2 SWAP1 PUSH2 0x536E JUMP JUMPDEST PUSH1 0x1 JUMPDEST PUSH2 0x1723 JUMPI PUSH2 0x171C NUMBER PUSH2 0x26F0 JUMP JUMPDEST SWAP1 POP PUSH2 0x1728 JUMP JUMPDEST DUP1 SWAP2 POP POP JUMPDEST SWAP1 JUMP JUMPDEST PUSH0 PUSH2 0x1737 DUP5 DUP5 DUP5 PUSH2 0x2744 JUMP JUMPDEST SWAP1 POP SWAP4 SWAP3 POP POP POP JUMP JUMPDEST PUSH2 0x1748 PUSH2 0xAB5 JUMP JUMPDEST PUSH20 0xFFFFFFFFFFFFFFFFFFFFFFFFFFFFFFFFFFFFFFFF AND PUSH2 0x1766 PUSH2 0x2194 JUMP JUMPDEST PUSH20 0xFFFFFFFFFFFFFFFFFFFFFFFFFFFFFFFFFFFFFFFF AND EQ PUSH2 0x17BC JUMPI PUSH1 0x40 MLOAD PUSH32 0x8C379A000000000000000000000000000000000000000000000000000000000 DUP2 MSTORE PUSH1 0x4 ADD PUSH2 0x17B3 SWAP1 PUSH2 0x53E3 JUMP JUMPDEST PUSH1 0x40 MLOAD DUP1 SWAP2 SUB SWAP1 REVERT JUMPDEST ADDRESS PUSH20 0xFFFFFFFFFFFFFFFFFFFFFFFFFFFFFFFFFFFFFFFF AND PUSH2 0x17DB PUSH2 0xAB5 JUMP JUMPDEST PUSH20 0xFFFFFFFFFFFFFFFFFFFFFFFFFFFFFFFFFFFFFFFF AND EQ PUSH2 0x182A JUMPI PUSH0 PUSH2 0x17FF PUSH2 0x27E8 JUMP JUMPDEST PUSH1 0x40 MLOAD PUSH2 0x180D SWAP3 SWAP2 SWAP1 PUSH2 0x4C1A JUMP JUMPDEST PUSH1 0x40 MLOAD DUP1 SWAP2 SUB SWAP1 KECCAK256 SWAP1 POP JUMPDEST DUP1 PUSH2 0x1823 PUSH1 0x4 PUSH2 0x27F4 JUMP JUMPDEST SUB PUSH2 0x1818 JUMPI POP JUMPDEST PUSH2 0x1833 DUP2 PUSH2 0x28C5 JUMP JUMPDEST POP JUMP JUMPDEST PUSH0 DUP1 PUSH1 0x7 PUSH0 SWAP1 SLOAD SWAP1 PUSH2 0x100 EXP SWAP1 DIV PUSH20 0xFFFFFFFFFFFFFFFFFFFFFFFFFFFFFFFFFFFFFFFF AND PUSH20 0xFFFFFFFFFFFFFFFFFFFFFFFFFFFFFFFFFFFFFFFF AND PUSH4 0xD45C4435 PUSH1 0x8 PUSH0 DUP7 DUP2 MSTORE PUSH1 0x20 ADD SWAP1 DUP2 MSTORE PUSH1 0x20 ADD PUSH0 KECCAK256 SLOAD PUSH1 0x40 MLOAD DUP3 PUSH4 0xFFFFFFFF AND PUSH1 0xE0 SHL DUP2 MSTORE PUSH1 0x4 ADD PUSH2 0x18A3 SWAP2 SWAP1 PUSH2 0x4237 JUMP JUMPDEST PUSH1 0x20 PUSH1 0x40 MLOAD DUP1 DUP4 SUB DUP2 DUP7 GAS STATICCALL ISZERO DUP1 ISZERO PUSH2 0x18BE JUMPI RETURNDATASIZE PUSH0 DUP1 RETURNDATACOPY RETURNDATASIZE PUSH0 REVERT JUMPDEST POP POP POP POP PUSH1 0x40 MLOAD RETURNDATASIZE PUSH1 0x1F NOT PUSH1 0x1F DUP3 ADD AND DUP3 ADD DUP1 PUSH1 0x40 MSTORE POP DUP2 ADD SWAP1 PUSH2 0x18E2 SWAP2 SWAP1 PUSH2 0x4D91 JUMP JUMPDEST SWAP1 POP PUSH1 0x1 DUP2 EQ PUSH2 0x18F2 JUMPI DUP1 PUSH2 0x18F4 JUMP JUMPDEST PUSH0 JUMPDEST SWAP2 POP POP SWAP2 SWAP1 POP JUMP JUMPDEST PUSH0 SWAP1 JUMP JUMPDEST PUSH0 PUSH4 0xBC197C81 PUSH1 0xE0 SHL SWAP1 POP SWAP6 SWAP5 POP POP POP POP POP JUMP JUMPDEST PUSH0 PUSH1 0x3 PUSH0 DUP4 DUP2 MSTORE PUSH1 0x20 ADD SWAP1 DUP2 MSTORE PUSH1 0x20 ADD PUSH0 KECCAK256 PUSH1 0x1 ADD PUSH0 SWAP1 SLOAD SWAP1 PUSH2 0x100 EXP SWAP1 DIV PUSH8 0xFFFFFFFFFFFFFFFF AND PUSH8 0xFFFFFFFFFFFFFFFF AND SWAP1 POP SWAP2 SWAP1 POP JUMP JUMPDEST PUSH2 0x1956 PUSH2 0xAB5 JUMP JUMPDEST PUSH20 0xFFFFFFFFFFFFFFFFFFFFFFFFFFFFFFFFFFFFFFFF AND PUSH2 0x1974 PUSH2 0x2194 JUMP JUMPDEST PUSH20 0xFFFFFFFFFFFFFFFFFFFFFFFFFFFFFFFFFFFFFFFF AND EQ PUSH2 0x19CA JUMPI PUSH1 0x40 MLOAD PUSH32 0x8C379A000000000000000000000000000000000000000000000000000000000 DUP2 MSTORE PUSH1 0x4 ADD PUSH2 0x19C1 SWAP1 PUSH2 0x53E3 JUMP JUMPDEST PUSH1 0x40 MLOAD DUP1 SWAP2 SUB SWAP1 REVERT JUMPDEST ADDRESS PUSH20 0xFFFFFFFFFFFFFFFFFFFFFFFFFFFFFFFFFFFFFFFF AND PUSH2 0x19E9 PUSH2 0xAB5 JUMP JUMPDEST PUSH20 0xFFFFFFFFFFFFFFFFFFFFFFFFFFFFFFFFFFFFFFFF AND EQ PUSH2 0x1A38 JUMPI PUSH0 PUSH2 0x1A0D PUSH2 0x27E8 JUMP JUMPDEST PUSH1 0x40 MLOAD PUSH2 0x1A1B SWAP3 SWAP2 SWAP1 PUSH2 0x4C1A JUMP JUMPDEST PUSH1 0x40 MLOAD DUP1 SWAP2 SUB SWAP1 KECCAK256 SWAP1 POP JUMPDEST DUP1 PUSH2 0x1A31 PUSH1 0x4 PUSH2 0x27F4 JUMP JUMPDEST SUB PUSH2 0x1A26 JUMPI POP JUMPDEST PUSH0 DUP1 DUP6 PUSH20 0xFFFFFFFFFFFFFFFFFFFFFFFFFFFFFFFFFFFFFFFF AND DUP6 DUP6 DUP6 PUSH1 0x40 MLOAD PUSH2 0x1A62 SWAP3 SWAP2 SWAP1 PUSH2 0x4C1A JUMP JUMPDEST PUSH0 PUSH1 0x40 MLOAD DUP1 DUP4 SUB DUP2 DUP6 DUP8 GAS CALL SWAP3 POP POP POP RETURNDATASIZE DUP1 PUSH0 DUP2 EQ PUSH2 0x1A9C JUMPI PUSH1 0x40 MLOAD SWAP2 POP PUSH1 0x1F NOT PUSH1 0x3F RETURNDATASIZE ADD AND DUP3 ADD PUSH1 0x40 MSTORE RETURNDATASIZE DUP3 MSTORE RETURNDATASIZE PUSH0 PUSH1 0x20 DUP5 ADD RETURNDATACOPY PUSH2 0x1AA1 JUMP JUMPDEST PUSH1 0x60 SWAP2 POP JUMPDEST POP SWAP2 POP SWAP2 POP PUSH2 0x1AC9 DUP3 DUP3 PUSH1 0x40 MLOAD DUP1 PUSH1 0x60 ADD PUSH1 0x40 MSTORE DUP1 PUSH1 0x28 DUP2 MSTORE PUSH1 0x20 ADD PUSH2 0x5F99 PUSH1 0x28 SWAP2 CODECOPY PUSH2 0x2962 JUMP JUMPDEST POP POP POP POP POP POP POP JUMP JUMPDEST PUSH0 DUP5 DUP5 DUP5 DUP5 PUSH1 0x40 MLOAD PUSH1 0x20 ADD PUSH2 0x1AEA SWAP5 SWAP4 SWAP3 SWAP2 SWAP1 PUSH2 0x5401 JUMP JUMPDEST PUSH1 0x40 MLOAD PUSH1 0x20 DUP2 DUP4 SUB SUB DUP2 MSTORE SWAP1 PUSH1 0x40 MSTORE DUP1 MLOAD SWAP1 PUSH1 0x20 ADD KECCAK256 PUSH0 SHR SWAP1 POP SWAP5 SWAP4 POP POP POP POP JUMP JUMPDEST PUSH0 PUSH1 0x7 PUSH0 SWAP1 SLOAD SWAP1 PUSH2 0x100 EXP SWAP1 DIV PUSH20 0xFFFFFFFFFFFFFFFFFFFFFFFFFFFFFFFFFFFFFFFF AND SWAP1 POP SWAP1 JUMP JUMPDEST PUSH1 0x60 PUSH1 0x40 MLOAD DUP1 PUSH1 0x40 ADD PUSH1 0x40 MSTORE DUP1 PUSH1 0x20 DUP2 MSTORE PUSH1 0x20 ADD PUSH32 0x737570706F72743D627261766F2671756F72756D3D666F722C6162737461696E DUP2 MSTORE POP SWAP1 POP SWAP1 JUMP JUMPDEST PUSH32 0x150214D74D59B7D1E90C73FC22EF3D991DD0A76B046543D4D80AB92D2A50328F DUP2 JUMP JUMPDEST PUSH0 PUSH2 0x1BA8 DUP4 DUP4 PUSH2 0x1BA3 PUSH2 0x2984 JUMP JUMPDEST PUSH2 0x2744 JUMP JUMPDEST SWAP1 POP SWAP3 SWAP2 POP POP JUMP JUMPDEST PUSH0 PUSH4 0xF23A6E61 PUSH1 0xE0 SHL SWAP1 POP SWAP6 SWAP5 POP POP POP POP POP JUMP JUMPDEST PUSH0 PUSH9 0x56BC75E2D63100000 SWAP1 POP SWAP2 SWAP1 POP JUMP JUMPDEST PUSH32 0x0 DUP2 JUMP JUMPDEST PUSH0 PUSH1 0x7 PUSH0 SWAP1 SLOAD SWAP1 PUSH2 0x100 EXP SWAP1 DIV PUSH20 0xFFFFFFFFFFFFFFFFFFFFFFFFFFFFFFFFFFFFFFFF AND SWAP1 POP SWAP1 JUMP JUMPDEST PUSH0 PUSH32 0x6E665CED00000000000000000000000000000000000000000000000000000000 PUSH28 0xFFFFFFFFFFFFFFFFFFFFFFFFFFFFFFFFFFFFFFFFFFFFFFFFFFFFFFFF NOT AND DUP3 PUSH28 0xFFFFFFFFFFFFFFFFFFFFFFFFFFFFFFFFFFFFFFFFFFFFFFFFFFFFFFFF NOT AND EQ DUP1 PUSH2 0x1C94 JUMPI POP PUSH2 0x1C93 DUP3 PUSH2 0x299A JUMP JUMPDEST JUMPDEST SWAP1 POP SWAP2 SWAP1 POP JUMP JUMPDEST PUSH0 PUSH2 0x1CAD PUSH2 0x1CA7 PUSH2 0x2BB2 JUMP JUMPDEST DUP4 PUSH2 0x2C68 JUMP JUMPDEST SWAP1 POP SWAP2 SWAP1 POP JUMP JUMPDEST PUSH0 DUP1 PUSH0 PUSH2 0x1CC3 DUP8 DUP8 DUP8 DUP8 PUSH2 0x2CA8 JUMP JUMPDEST SWAP2 POP SWAP2 POP PUSH2 0x1CD0 DUP2 PUSH2 0x2D80 JUMP JUMPDEST DUP2 SWAP3 POP POP POP SWAP5 SWAP4 POP POP POP POP JUMP JUMPDEST PUSH0 DUP1 PUSH1 0x3 PUSH0 DUP9 DUP2 MSTORE PUSH1 0x20 ADD SWAP1 DUP2 MSTORE PUSH1 0x20 ADD PUSH0 KECCAK256 SWAP1 POP PUSH1 0x1 PUSH1 0x7 DUP2 GT ISZERO PUSH2 0x1D06 JUMPI PUSH2 0x1D05 PUSH2 0x42C7 JUMP JUMPDEST JUMPDEST PUSH2 0x1D0F DUP9 PUSH2 0x117D JUMP JUMPDEST PUSH1 0x7 DUP2 GT ISZERO PUSH2 0x1D21 JUMPI PUSH2 0x1D20 PUSH2 0x42C7 JUMP JUMPDEST JUMPDEST EQ PUSH2 0x1D61 JUMPI PUSH1 0x40 MLOAD PUSH32 0x8C379A000000000000000000000000000000000000000000000000000000000 DUP2 MSTORE PUSH1 0x4 ADD PUSH2 0x1D58 SWAP1 PUSH2 0x54C9 JUMP JUMPDEST PUSH1 0x40 MLOAD DUP1 SWAP2 SUB SWAP1 REVERT JUMPDEST PUSH0 PUSH2 0x1D8D DUP8 DUP4 PUSH0 ADD PUSH0 SWAP1 SLOAD SWAP1 PUSH2 0x100 EXP SWAP1 DIV PUSH8 0xFFFFFFFFFFFFFFFF AND PUSH8 0xFFFFFFFFFFFFFFFF AND DUP7 PUSH2 0x2744 JUMP JUMPDEST SWAP1 POP PUSH2 0x1D9C DUP9 DUP9 DUP9 DUP5 DUP9 PUSH2 0x2EE5 JUMP JUMPDEST PUSH0 DUP5 MLOAD SUB PUSH2 0x1DFD JUMPI DUP7 PUSH20 0xFFFFFFFFFFFFFFFFFFFFFFFFFFFFFFFFFFFFFFFF AND PUSH32 0xB8E138887D0AA13BAB447E82DE9D5C1777041ECD21CA36BA824FF1E6C07DDDA4 DUP10 DUP9 DUP5 DUP10 PUSH1 0x40 MLOAD PUSH2 0x1DF0 SWAP5 SWAP4 SWAP3 SWAP2 SWAP1 PUSH2 0x54E7 JUMP JUMPDEST PUSH1 0x40 MLOAD DUP1 SWAP2 SUB SWAP1 LOG2 PUSH2 0x1E54 JUMP JUMPDEST DUP7 PUSH20 0xFFFFFFFFFFFFFFFFFFFFFFFFFFFFFFFFFFFFFFFF AND PUSH32 0xE2BABFBAC5889A709B63BB7F598B324E08BC5A4FB9EC647FB3CBC9EC07EB8712 DUP10 DUP9 DUP5 DUP10 DUP10 PUSH1 0x40 MLOAD PUSH2 0x1E4B SWAP6 SWAP5 SWAP4 SWAP3 SWAP2 SWAP1 PUSH2 0x5579 JUMP JUMPDEST PUSH1 0x40 MLOAD DUP1 SWAP2 SUB SWAP1 LOG2 JUMPDEST DUP1 SWAP3 POP POP POP SWAP6 SWAP5 POP POP POP POP POP JUMP JUMPDEST ADDRESS PUSH20 0xFFFFFFFFFFFFFFFFFFFFFFFFFFFFFFFFFFFFFFFF AND PUSH2 0x1E81 PUSH2 0xAB5 JUMP JUMPDEST PUSH20 0xFFFFFFFFFFFFFFFFFFFFFFFFFFFFFFFFFFFFFFFF AND EQ PUSH2 0x1F37 JUMPI PUSH0 JUMPDEST DUP5 MLOAD DUP2 LT ISZERO PUSH2 0x1F35 JUMPI ADDRESS PUSH20 0xFFFFFFFFFFFFFFFFFFFFFFFFFFFFFFFFFFFFFFFF AND DUP6 DUP3 DUP2 MLOAD DUP2 LT PUSH2 0x1ED1 JUMPI PUSH2 0x1ED0 PUSH2 0x55D8 JUMP JUMPDEST JUMPDEST PUSH1 0x20 MUL PUSH1 0x20 ADD ADD MLOAD PUSH20 0xFFFFFFFFFFFFFFFFFFFFFFFFFFFFFFFFFFFFFFFF AND SUB PUSH2 0x1F2A JUMPI PUSH2 0x1F29 DUP4 DUP3 DUP2 MLOAD DUP2 LT PUSH2 0x1F0A JUMPI PUSH2 0x1F09 PUSH2 0x55D8 JUMP JUMPDEST JUMPDEST PUSH1 0x20 MUL PUSH1 0x20 ADD ADD MLOAD DUP1 MLOAD SWAP1 PUSH1 0x20 ADD KECCAK256 PUSH1 0x4 PUSH2 0x30DB SWAP1 SWAP2 SWAP1 PUSH4 0xFFFFFFFF AND JUMP JUMPDEST JUMPDEST DUP1 PUSH1 0x1 ADD SWAP1 POP PUSH2 0x1E9E JUMP JUMPDEST POP JUMPDEST POP POP POP POP POP JUMP JUMPDEST PUSH2 0x1F4B DUP6 DUP6 DUP6 DUP6 DUP6 PUSH2 0x3152 JUMP JUMPDEST POP POP POP POP POP JUMP JUMPDEST ADDRESS PUSH20 0xFFFFFFFFFFFFFFFFFFFFFFFFFFFFFFFFFFFFFFFF AND PUSH2 0x1F71 PUSH2 0xAB5 JUMP JUMPDEST PUSH20 0xFFFFFFFFFFFFFFFFFFFFFFFFFFFFFFFFFFFFFFFF AND EQ PUSH2 0x1FA6 JUMPI PUSH2 0x1F96 PUSH1 0x4 PUSH2 0x31EA JUMP JUMPDEST PUSH2 0x1FA5 JUMPI PUSH2 0x1FA4 PUSH1 0x4 PUSH2 0x321B JUMP JUMPDEST JUMPDEST JUMPDEST POP POP POP POP POP JUMP JUMPDEST PUSH0 PUSH2 0x1FC2 DUP6 DUP6 DUP6 DUP6 PUSH2 0x1FBD PUSH2 0x2984 JUMP JUMPDEST PUSH2 0x1CDD JUMP JUMPDEST SWAP1 POP SWAP5 SWAP4 POP POP POP POP JUMP JUMPDEST PUSH0 DUP1 PUSH2 0x1FD7 DUP4 PUSH2 0x3297 JUMP JUMPDEST SWAP1 POP PUSH1 0x4 PUSH1 0x7 DUP2 GT ISZERO PUSH2 0x1FED JUMPI PUSH2 0x1FEC PUSH2 0x42C7 JUMP JUMPDEST JUMPDEST DUP2 PUSH1 0x7 DUP2 GT ISZERO PUSH2 0x2000 JUMPI PUSH2 0x1FFF PUSH2 0x42C7 JUMP JUMPDEST JUMPDEST EQ PUSH2 0x200E JUMPI DUP1 SWAP2 POP POP PUSH2 0x218F JUMP JUMPDEST PUSH0 PUSH1 0x8 PUSH0 DUP6 DUP2 MSTORE PUSH1 0x20 ADD SWAP1 DUP2 MSTORE PUSH1 0x20 ADD PUSH0 KECCAK256 SLOAD SWAP1 POP PUSH0 DUP1 SHL DUP2 SUB PUSH2 0x2036 JUMPI DUP2 SWAP3 POP POP POP PUSH2 0x218F JUMP JUMPDEST PUSH1 0x7 PUSH0 SWAP1 SLOAD SWAP1 PUSH2 0x100 EXP SWAP1 DIV PUSH20 0xFFFFFFFFFFFFFFFFFFFFFFFFFFFFFFFFFFFFFFFF AND PUSH20 0xFFFFFFFFFFFFFFFFFFFFFFFFFFFFFFFFFFFFFFFF AND PUSH4 0x2AB0F529 DUP3 PUSH1 0x40 MLOAD DUP3 PUSH4 0xFFFFFFFF AND PUSH1 0xE0 SHL DUP2 MSTORE PUSH1 0x4 ADD PUSH2 0x2090 SWAP2 SWAP1 PUSH2 0x4237 JUMP JUMPDEST PUSH1 0x20 PUSH1 0x40 MLOAD DUP1 DUP4 SUB DUP2 DUP7 GAS STATICCALL ISZERO DUP1 ISZERO PUSH2 0x20AB JUMPI RETURNDATASIZE PUSH0 DUP1 RETURNDATACOPY RETURNDATASIZE PUSH0 REVERT JUMPDEST POP POP POP POP PUSH1 0x40 MLOAD RETURNDATASIZE PUSH1 0x1F NOT PUSH1 0x1F DUP3 ADD AND DUP3 ADD DUP1 PUSH1 0x40 MSTORE POP DUP2 ADD SWAP1 PUSH2 0x20CF SWAP2 SWAP1 PUSH2 0x562F JUMP JUMPDEST ISZERO PUSH2 0x20DF JUMPI PUSH1 0x7 SWAP3 POP POP POP PUSH2 0x218F JUMP JUMPDEST PUSH1 0x7 PUSH0 SWAP1 SLOAD SWAP1 PUSH2 0x100 EXP SWAP1 DIV PUSH20 0xFFFFFFFFFFFFFFFFFFFFFFFFFFFFFFFFFFFFFFFF AND PUSH20 0xFFFFFFFFFFFFFFFFFFFFFFFFFFFFFFFFFFFFFFFF AND PUSH4 0x584B153E DUP3 PUSH1 0x40 MLOAD DUP3 PUSH4 0xFFFFFFFF AND PUSH1 0xE0 SHL DUP2 MSTORE PUSH1 0x4 ADD PUSH2 0x2139 SWAP2 SWAP1 PUSH2 0x4237 JUMP JUMPDEST PUSH1 0x20 PUSH1 0x40 MLOAD DUP1 DUP4 SUB DUP2 DUP7 GAS STATICCALL ISZERO DUP1 ISZERO PUSH2 0x2154 JUMPI RETURNDATASIZE PUSH0 DUP1 RETURNDATACOPY RETURNDATASIZE PUSH0 REVERT JUMPDEST POP POP POP POP PUSH1 0x40 MLOAD RETURNDATASIZE PUSH1 0x1F NOT PUSH1 0x1F DUP3 ADD AND DUP3 ADD DUP1 PUSH1 0x40 MSTORE POP DUP2 ADD SWAP1 PUSH2 0x2178 SWAP2 SWAP1 PUSH2 0x562F JUMP JUMPDEST ISZERO PUSH2 0x2188 JUMPI PUSH1 0x5 SWAP3 POP POP POP PUSH2 0x218F JUMP JUMPDEST PUSH1 0x2 SWAP3 POP POP POP JUMPDEST SWAP2 SWAP1 POP JUMP JUMPDEST PUSH0 CALLER SWAP1 POP SWAP1 JUMP JUMPDEST PUSH0 PUSH2 0x21A8 DUP6 DUP6 DUP6 DUP6 PUSH2 0x33BA JUMP JUMPDEST SWAP1 POP SWAP5 SWAP4 POP POP POP POP JUMP JUMPDEST PUSH0 DUP1 PUSH2 0x21BC PUSH2 0x2194 JUMP JUMPDEST SWAP1 POP PUSH0 PUSH2 0x21C7 PUSH2 0x1686 JUMP JUMPDEST PUSH6 0xFFFFFFFFFFFF AND SWAP1 POP PUSH2 0x21D9 PUSH2 0x18FC JUMP JUMPDEST PUSH2 0x21EF DUP4 PUSH1 0x1 DUP5 PUSH2 0x21EA SWAP2 SWAP1 PUSH2 0x565A JUMP JUMPDEST PUSH2 0x1B95 JUMP JUMPDEST LT ISZERO PUSH2 0x2230 JUMPI PUSH1 0x40 MLOAD PUSH32 0x8C379A000000000000000000000000000000000000000000000000000000000 DUP2 MSTORE PUSH1 0x4 ADD PUSH2 0x2227 SWAP1 PUSH2 0x56FD JUMP JUMPDEST PUSH1 0x40 MLOAD DUP1 SWAP2 SUB SWAP1 REVERT JUMPDEST PUSH0 PUSH2 0x2244 DUP9 DUP9 DUP9 DUP9 DUP1 MLOAD SWAP1 PUSH1 0x20 ADD KECCAK256 PUSH2 0x1AD2 JUMP JUMPDEST SWAP1 POP DUP7 MLOAD DUP9 MLOAD EQ PUSH2 0x228A JUMPI PUSH1 0x40 MLOAD PUSH32 0x8C379A000000000000000000000000000000000000000000000000000000000 DUP2 MSTORE PUSH1 0x4 ADD PUSH2 0x2281 SWAP1 PUSH2 0x578B JUMP JUMPDEST PUSH1 0x40 MLOAD DUP1 SWAP2 SUB SWAP1 REVERT JUMPDEST DUP6 MLOAD DUP9 MLOAD EQ PUSH2 0x22CE JUMPI PUSH1 0x40 MLOAD PUSH32 0x8C379A000000000000000000000000000000000000000000000000000000000 DUP2 MSTORE PUSH1 0x4 ADD PUSH2 0x22C5 SWAP1 PUSH2 0x578B JUMP JUMPDEST PUSH1 0x40 MLOAD DUP1 SWAP2 SUB SWAP1 REVERT JUMPDEST PUSH0 DUP9 MLOAD GT PUSH2 0x2311 JUMPI PUSH1 0x40 MLOAD PUSH32 0x8C379A000000000000000000000000000000000000000000000000000000000 DUP2 MSTORE PUSH1 0x4 ADD PUSH2 0x2308 SWAP1 PUSH2 0x57F3 JUMP JUMPDEST PUSH1 0x40 MLOAD DUP1 SWAP2 SUB SWAP1 REVERT JUMPDEST PUSH0 PUSH1 0x3 PUSH0 DUP4 DUP2 MSTORE PUSH1 0x20 ADD SWAP1 DUP2 MSTORE PUSH1 0x20 ADD PUSH0 KECCAK256 PUSH0 ADD PUSH0 SWAP1 SLOAD SWAP1 PUSH2 0x100 EXP SWAP1 DIV PUSH8 0xFFFFFFFFFFFFFFFF AND PUSH8 0xFFFFFFFFFFFFFFFF AND EQ PUSH2 0x2383 JUMPI PUSH1 0x40 MLOAD PUSH32 0x8C379A000000000000000000000000000000000000000000000000000000000 DUP2 MSTORE PUSH1 0x4 ADD PUSH2 0x237A SWAP1 PUSH2 0x5881 JUMP JUMPDEST PUSH1 0x40 MLOAD DUP1 SWAP2 SUB SWAP1 REVERT JUMPDEST PUSH0 PUSH2 0x238C PUSH2 0x10ED JUMP JUMPDEST DUP4 PUSH2 0x2397 SWAP2 SWAP1 PUSH2 0x510A JUMP JUMPDEST SWAP1 POP PUSH0 PUSH2 0x23A2 PUSH2 0xAD4 JUMP JUMPDEST DUP3 PUSH2 0x23AD SWAP2 SWAP1 PUSH2 0x510A JUMP JUMPDEST SWAP1 POP PUSH1 0x40 MLOAD DUP1 PUSH1 0xE0 ADD PUSH1 0x40 MSTORE DUP1 PUSH2 0x23C3 DUP5 PUSH2 0x349D JUMP JUMPDEST PUSH8 0xFFFFFFFFFFFFFFFF AND DUP2 MSTORE PUSH1 0x20 ADD DUP7 PUSH20 0xFFFFFFFFFFFFFFFFFFFFFFFFFFFFFFFFFFFFFFFF AND DUP2 MSTORE PUSH1 0x20 ADD PUSH0 PUSH1 0xE0 SHL PUSH28 0xFFFFFFFFFFFFFFFFFFFFFFFFFFFFFFFFFFFFFFFFFFFFFFFFFFFFFFFF NOT AND DUP2 MSTORE PUSH1 0x20 ADD PUSH2 0x241F DUP4 PUSH2 0x349D JUMP JUMPDEST PUSH8 0xFFFFFFFFFFFFFFFF AND DUP2 MSTORE PUSH1 0x20 ADD PUSH0 PUSH1 0x40 SHL PUSH8 0xFFFFFFFFFFFFFFFF NOT AND DUP2 MSTORE PUSH1 0x20 ADD PUSH0 ISZERO ISZERO DUP2 MSTORE PUSH1 0x20 ADD PUSH0 ISZERO ISZERO DUP2 MSTORE POP PUSH1 0x3 PUSH0 DUP6 DUP2 MSTORE PUSH1 0x20 ADD SWAP1 DUP2 MSTORE PUSH1 0x20 ADD PUSH0 KECCAK256 PUSH0 DUP3 ADD MLOAD DUP2 PUSH0 ADD PUSH0 PUSH2 0x100 EXP DUP2 SLOAD DUP2 PUSH8 0xFFFFFFFFFFFFFFFF MUL NOT AND SWAP1 DUP4 PUSH8 0xFFFFFFFFFFFFFFFF AND MUL OR SWAP1 SSTORE POP PUSH1 0x20 DUP3 ADD MLOAD DUP2 PUSH0 ADD PUSH1 0x8 PUSH2 0x100 EXP DUP2 SLOAD DUP2 PUSH20 0xFFFFFFFFFFFFFFFFFFFFFFFFFFFFFFFFFFFFFFFF MUL NOT AND SWAP1 DUP4 PUSH20 0xFFFFFFFFFFFFFFFFFFFFFFFFFFFFFFFFFFFFFFFF AND MUL OR SWAP1 SSTORE POP PUSH1 0x40 DUP3 ADD MLOAD DUP2 PUSH0 ADD PUSH1 0x1C PUSH2 0x100 EXP DUP2 SLOAD DUP2 PUSH4 0xFFFFFFFF MUL NOT AND SWAP1 DUP4 PUSH1 0xE0 SHR MUL OR SWAP1 SSTORE POP PUSH1 0x60 DUP3 ADD MLOAD DUP2 PUSH1 0x1 ADD PUSH0 PUSH2 0x100 EXP DUP2 SLOAD DUP2 PUSH8 0xFFFFFFFFFFFFFFFF MUL NOT AND SWAP1 DUP4 PUSH8 0xFFFFFFFFFFFFFFFF AND MUL OR SWAP1 SSTORE POP PUSH1 0x80 DUP3 ADD MLOAD DUP2 PUSH1 0x1 ADD PUSH1 0x8 PUSH2 0x100 EXP DUP2 SLOAD DUP2 PUSH24 0xFFFFFFFFFFFFFFFFFFFFFFFFFFFFFFFFFFFFFFFFFFFFFFFF MUL NOT AND SWAP1 DUP4 PUSH1 0x40 SHR MUL OR SWAP1 SSTORE POP PUSH1 0xA0 DUP3 ADD MLOAD DUP2 PUSH1 0x2 ADD PUSH0 PUSH2 0x100 EXP DUP2 SLOAD DUP2 PUSH1 0xFF MUL NOT AND SWAP1 DUP4 ISZERO ISZERO MUL OR SWAP1 SSTORE POP PUSH1 0xC0 DUP3 ADD MLOAD DUP2 PUSH1 0x2 ADD PUSH1 0x1 PUSH2 0x100 EXP DUP2 SLOAD DUP2 PUSH1 0xFF MUL NOT AND SWAP1 DUP4 ISZERO ISZERO MUL OR SWAP1 SSTORE POP SWAP1 POP POP PUSH32 0x7D84A6263AE0D98D3329BD7B46BB4E8D6F98CD35A7ADB45C274C8B7FD5EBD5E0 DUP4 DUP7 DUP13 DUP13 DUP15 MLOAD PUSH8 0xFFFFFFFFFFFFFFFF DUP2 GT ISZERO PUSH2 0x25DE JUMPI PUSH2 0x25DD PUSH2 0x3B03 JUMP JUMPDEST JUMPDEST PUSH1 0x40 MLOAD SWAP1 DUP1 DUP3 MSTORE DUP1 PUSH1 0x20 MUL PUSH1 0x20 ADD DUP3 ADD PUSH1 0x40 MSTORE DUP1 ISZERO PUSH2 0x2611 JUMPI DUP2 PUSH1 0x20 ADD JUMPDEST PUSH1 0x60 DUP2 MSTORE PUSH1 0x20 ADD SWAP1 PUSH1 0x1 SWAP1 SUB SWAP1 DUP2 PUSH2 0x25FC JUMPI SWAP1 POP JUMPDEST POP DUP14 DUP9 DUP9 DUP16 PUSH1 0x40 MLOAD PUSH2 0x262B SWAP10 SWAP9 SWAP8 SWAP7 SWAP6 SWAP5 SWAP4 SWAP3 SWAP2 SWAP1 PUSH2 0x59A2 JUMP JUMPDEST PUSH1 0x40 MLOAD DUP1 SWAP2 SUB SWAP1 LOG1 DUP3 SWAP6 POP POP POP POP POP POP SWAP5 SWAP4 POP POP POP POP JUMP JUMPDEST PUSH1 0x60 PUSH1 0xFF PUSH0 SHL DUP4 EQ PUSH2 0x265F JUMPI PUSH2 0x2658 DUP4 PUSH2 0x34F3 JUMP JUMPDEST SWAP1 POP PUSH2 0x26EA JUMP JUMPDEST DUP2 DUP1 SLOAD PUSH2 0x266B SWAP1 PUSH2 0x4CBF JUMP JUMPDEST DUP1 PUSH1 0x1F ADD PUSH1 0x20 DUP1 SWAP2 DIV MUL PUSH1 0x20 ADD PUSH1 0x40 MLOAD SWAP1 DUP2 ADD PUSH1 0x40 MSTORE DUP1 SWAP3 SWAP2 SWAP1 DUP2 DUP2 MSTORE PUSH1 0x20 ADD DUP3 DUP1 SLOAD PUSH2 0x2697 SWAP1 PUSH2 0x4CBF JUMP JUMPDEST DUP1 ISZERO PUSH2 0x26E2 JUMPI DUP1 PUSH1 0x1F LT PUSH2 0x26B9 JUMPI PUSH2 0x100 DUP1 DUP4 SLOAD DIV MUL DUP4 MSTORE SWAP2 PUSH1 0x20 ADD SWAP2 PUSH2 0x26E2 JUMP JUMPDEST DUP3 ADD SWAP2 SWAP1 PUSH0 MSTORE PUSH1 0x20 PUSH0 KECCAK256 SWAP1 JUMPDEST DUP2 SLOAD DUP2 MSTORE SWAP1 PUSH1 0x1 ADD SWAP1 PUSH1 0x20 ADD DUP1 DUP4 GT PUSH2 0x26C5 JUMPI DUP3 SWAP1 SUB PUSH1 0x1F AND DUP3 ADD SWAP2 JUMPDEST POP POP POP POP POP SWAP1 POP JUMPDEST SWAP3 SWAP2 POP POP JUMP JUMPDEST PUSH0 PUSH6 0xFFFFFFFFFFFF DUP1 AND DUP3 GT ISZERO PUSH2 0x273C JUMPI PUSH1 0x40 MLOAD PUSH32 0x8C379A000000000000000000000000000000000000000000000000000000000 DUP2 MSTORE PUSH1 0x4 ADD PUSH2 0x2733 SWAP1 PUSH2 0x5AC0 JUMP JUMPDEST PUSH1 0x40 MLOAD DUP1 SWAP2 SUB SWAP1 REVERT JUMPDEST DUP2 SWAP1 POP SWAP2 SWAP1 POP JUMP JUMPDEST PUSH0 PUSH32 0x0 PUSH20 0xFFFFFFFFFFFFFFFFFFFFFFFFFFFFFFFFFFFFFFFF AND PUSH4 0x3A46B1A8 DUP6 DUP6 PUSH1 0x40 MLOAD DUP4 PUSH4 0xFFFFFFFF AND PUSH1 0xE0 SHL DUP2 MSTORE PUSH1 0x4 ADD PUSH2 0x27A0 SWAP3 SWAP2 SWAP1 PUSH2 0x5ADE JUMP JUMPDEST PUSH1 0x20 PUSH1 0x40 MLOAD DUP1 DUP4 SUB DUP2 DUP7 GAS STATICCALL ISZERO DUP1 ISZERO PUSH2 0x27BB JUMPI RETURNDATASIZE PUSH0 DUP1 RETURNDATACOPY RETURNDATASIZE PUSH0 REVERT JUMPDEST POP POP POP POP PUSH1 0x40 MLOAD RETURNDATASIZE PUSH1 0x1F NOT PUSH1 0x1F DUP3 ADD AND DUP3 ADD DUP1 PUSH1 0x40 MSTORE POP DUP2 ADD SWAP1 PUSH2 0x27DF SWAP2 SWAP1 PUSH2 0x4D91 JUMP JUMPDEST SWAP1 POP SWAP4 SWAP3 POP POP POP JUMP JUMPDEST CALLDATASIZE PUSH0 DUP1 CALLDATASIZE SWAP2 POP SWAP2 POP SWAP1 SWAP2 JUMP JUMPDEST PUSH0 PUSH2 0x27FE DUP3 PUSH2 0x31EA JUMP JUMPDEST ISZERO PUSH2 0x2835 JUMPI PUSH1 0x40 MLOAD PUSH32 0x3DB2A12A00000000000000000000000000000000000000000000000000000000 DUP2 MSTORE PUSH1 0x4 ADD PUSH1 0x40 MLOAD DUP1 SWAP2 SUB SWAP1 REVERT JUMPDEST PUSH0 DUP3 PUSH0 ADD PUSH0 SWAP1 SLOAD SWAP1 PUSH2 0x100 EXP SWAP1 DIV PUSH1 0xF SIGNEXTEND SWAP1 POP DUP3 PUSH1 0x1 ADD PUSH0 DUP3 PUSH1 0xF SIGNEXTEND PUSH1 0xF SIGNEXTEND DUP2 MSTORE PUSH1 0x20 ADD SWAP1 DUP2 MSTORE PUSH1 0x20 ADD PUSH0 KECCAK256 SLOAD SWAP2 POP DUP3 PUSH1 0x1 ADD PUSH0 DUP3 PUSH1 0xF SIGNEXTEND PUSH1 0xF SIGNEXTEND DUP2 MSTORE PUSH1 0x20 ADD SWAP1 DUP2 MSTORE PUSH1 0x20 ADD PUSH0 KECCAK256 PUSH0 SWAP1 SSTORE PUSH1 0x1 DUP2 ADD DUP4 PUSH0 ADD PUSH0 PUSH2 0x100 EXP DUP2 SLOAD DUP2 PUSH16 0xFFFFFFFFFFFFFFFFFFFFFFFFFFFFFFFF MUL NOT AND SWAP1 DUP4 PUSH1 0xF SIGNEXTEND PUSH16 0xFFFFFFFFFFFFFFFFFFFFFFFFFFFFFFFF AND MUL OR SWAP1 SSTORE POP POP SWAP2 SWAP1 POP JUMP JUMPDEST PUSH32 0x8F74EA46EF7894F65EABFB5E6E695DE773A000B47C529AB559178069B226401 PUSH1 0x7 PUSH0 SWAP1 SLOAD SWAP1 PUSH2 0x100 EXP SWAP1 DIV PUSH20 0xFFFFFFFFFFFFFFFFFFFFFFFFFFFFFFFFFFFFFFFF AND DUP3 PUSH1 0x40 MLOAD PUSH2 0x2917 SWAP3 SWAP2 SWAP1 PUSH2 0x5B05 JUMP JUMPDEST PUSH1 0x40 MLOAD DUP1 SWAP2 SUB SWAP1 LOG1 DUP1 PUSH1 0x7 PUSH0 PUSH2 0x100 EXP DUP2 SLOAD DUP2 PUSH20 0xFFFFFFFFFFFFFFFFFFFFFFFFFFFFFFFFFFFFFFFF MUL NOT AND SWAP1 DUP4 PUSH20 0xFFFFFFFFFFFFFFFFFFFFFFFFFFFFFFFFFFFFFFFF AND MUL OR SWAP1 SSTORE POP POP JUMP JUMPDEST PUSH1 0x60 DUP4 ISZERO PUSH2 0x2972 JUMPI DUP3 SWAP1 POP PUSH2 0x297D JUMP JUMPDEST PUSH2 0x297C DUP4 DUP4 PUSH2 0x3565 JUMP JUMPDEST JUMPDEST SWAP4 SWAP3 POP POP POP JUMP JUMPDEST PUSH1 0x60 PUSH1 0x40 MLOAD DUP1 PUSH1 0x20 ADD PUSH1 0x40 MSTORE DUP1 PUSH0 DUP2 MSTORE POP SWAP1 POP SWAP1 JUMP JUMPDEST PUSH0 DUP1 PUSH4 0x143489D0 PUSH1 0xE0 SHL PUSH4 0x452115D6 PUSH1 0xE0 SHL XOR SWAP1 POP PUSH0 PUSH4 0x9A802A6D PUSH1 0xE0 SHL PUSH4 0x3420181 PUSH1 0xE0 SHL PUSH4 0x5F398A14 PUSH1 0xE0 SHL XOR XOR SWAP1 POP PUSH0 DUP2 DUP4 PUSH32 0xDA287A1D00000000000000000000000000000000000000000000000000000000 PUSH32 0xF2E09F7400000000000000000000000000000000000000000000000000000000 XOR XOR XOR SWAP1 POP PUSH0 DUP4 PUSH32 0xDA287A1D00000000000000000000000000000000000000000000000000000000 PUSH32 0xF2E09F7400000000000000000000000000000000000000000000000000000000 XOR XOR SWAP1 POP DUP2 PUSH28 0xFFFFFFFFFFFFFFFFFFFFFFFFFFFFFFFFFFFFFFFFFFFFFFFFFFFFFFFF NOT AND DUP7 PUSH28 0xFFFFFFFFFFFFFFFFFFFFFFFFFFFFFFFFFFFFFFFFFFFFFFFFFFFFFFFF NOT AND EQ DUP1 PUSH2 0x2AE7 JUMPI POP DUP1 PUSH28 0xFFFFFFFFFFFFFFFFFFFFFFFFFFFFFFFFFFFFFFFFFFFFFFFFFFFFFFFF NOT AND DUP7 PUSH28 0xFFFFFFFFFFFFFFFFFFFFFFFFFFFFFFFFFFFFFFFFFFFFFFFFFFFFFFFF NOT AND EQ JUMPDEST DUP1 PUSH2 0x2B2F JUMPI POP DUP4 PUSH28 0xFFFFFFFFFFFFFFFFFFFFFFFFFFFFFFFFFFFFFFFFFFFFFFFFFFFFFFFF NOT AND DUP7 PUSH28 0xFFFFFFFFFFFFFFFFFFFFFFFFFFFFFFFFFFFFFFFFFFFFFFFFFFFFFFFF NOT AND EQ JUMPDEST DUP1 PUSH2 0x2B97 JUMPI POP PUSH32 0x4E2312E000000000000000000000000000000000000000000000000000000000 PUSH28 0xFFFFFFFFFFFFFFFFFFFFFFFFFFFFFFFFFFFFFFFFFFFFFFFFFFFFFFFF NOT AND DUP7 PUSH28 0xFFFFFFFFFFFFFFFFFFFFFFFFFFFFFFFFFFFFFFFFFFFFFFFFFFFFFFFF NOT AND EQ JUMPDEST DUP1 PUSH2 0x2BA7 JUMPI POP PUSH2 0x2BA6 DUP7 PUSH2 0x35B4 JUMP JUMPDEST JUMPDEST SWAP5 POP POP POP POP POP SWAP2 SWAP1 POP JUMP JUMPDEST PUSH0 PUSH32 0x0 PUSH20 0xFFFFFFFFFFFFFFFFFFFFFFFFFFFFFFFFFFFFFFFF AND ADDRESS PUSH20 0xFFFFFFFFFFFFFFFFFFFFFFFFFFFFFFFFFFFFFFFF AND EQ DUP1 ISZERO PUSH2 0x2C2D JUMPI POP PUSH32 0x0 CHAINID EQ JUMPDEST ISZERO PUSH2 0x2C5A JUMPI PUSH32 0x0 SWAP1 POP PUSH2 0x2C65 JUMP JUMPDEST PUSH2 0x2C62 PUSH2 0x361D JUMP JUMPDEST SWAP1 POP JUMPDEST SWAP1 JUMP JUMPDEST PUSH0 PUSH1 0x40 MLOAD PUSH32 0x1901000000000000000000000000000000000000000000000000000000000000 DUP2 MSTORE DUP4 PUSH1 0x2 DUP3 ADD MSTORE DUP3 PUSH1 0x22 DUP3 ADD MSTORE PUSH1 0x42 DUP2 KECCAK256 SWAP2 POP POP SWAP3 SWAP2 POP POP JUMP JUMPDEST PUSH0 DUP1 PUSH32 0x7FFFFFFFFFFFFFFFFFFFFFFFFFFFFFFF5D576E7357A4501DDFE92F46681B20A0 DUP4 PUSH0 SHR GT ISZERO PUSH2 0x2CE0 JUMPI PUSH0 PUSH1 0x3 SWAP2 POP SWAP2 POP PUSH2 0x2D77 JUMP JUMPDEST PUSH0 PUSH1 0x1 DUP8 DUP8 DUP8 DUP8 PUSH1 0x40 MLOAD PUSH0 DUP2 MSTORE PUSH1 0x20 ADD PUSH1 0x40 MSTORE PUSH1 0x40 MLOAD PUSH2 0x2D03 SWAP5 SWAP4 SWAP3 SWAP2 SWAP1 PUSH2 0x5B2C JUMP JUMPDEST PUSH1 0x20 PUSH1 0x40 MLOAD PUSH1 0x20 DUP2 SUB SWAP1 DUP1 DUP5 SUB SWAP1 DUP6 GAS STATICCALL ISZERO DUP1 ISZERO PUSH2 0x2D23 JUMPI RETURNDATASIZE PUSH0 DUP1 RETURNDATACOPY RETURNDATASIZE PUSH0 REVERT JUMPDEST POP POP POP PUSH1 0x20 PUSH1 0x40 MLOAD SUB MLOAD SWAP1 POP PUSH0 PUSH20 0xFFFFFFFFFFFFFFFFFFFFFFFFFFFFFFFFFFFFFFFF AND DUP2 PUSH20 0xFFFFFFFFFFFFFFFFFFFFFFFFFFFFFFFFFFFFFFFF AND SUB PUSH2 0x2D6F JUMPI PUSH0 PUSH1 0x1 SWAP3 POP SWAP3 POP POP PUSH2 0x2D77 JUMP JUMPDEST DUP1 PUSH0 SWAP3 POP SWAP3 POP POP JUMPDEST SWAP5 POP SWAP5 SWAP3 POP POP POP JUMP JUMPDEST PUSH0 PUSH1 0x4 DUP2 GT ISZERO PUSH2 0x2D93 JUMPI PUSH2 0x2D92 PUSH2 0x42C7 JUMP JUMPDEST JUMPDEST DUP2 PUSH1 0x4 DUP2 GT ISZERO PUSH2 0x2DA6 JUMPI PUSH2 0x2DA5 PUSH2 0x42C7 JUMP JUMPDEST JUMPDEST SUB ISZERO PUSH2 0x2EE2 JUMPI PUSH1 0x1 PUSH1 0x4 DUP2 GT ISZERO PUSH2 0x2DC0 JUMPI PUSH2 0x2DBF PUSH2 0x42C7 JUMP JUMPDEST JUMPDEST DUP2 PUSH1 0x4 DUP2 GT ISZERO PUSH2 0x2DD3 JUMPI PUSH2 0x2DD2 PUSH2 0x42C7 JUMP JUMPDEST JUMPDEST SUB PUSH2 0x2E13 JUMPI PUSH1 0x40 MLOAD PUSH32 0x8C379A000000000000000000000000000000000000000000000000000000000 DUP2 MSTORE PUSH1 0x4 ADD PUSH2 0x2E0A SWAP1 PUSH2 0x5BB9 JUMP JUMPDEST PUSH1 0x40 MLOAD DUP1 SWAP2 SUB SWAP1 REVERT JUMPDEST PUSH1 0x2 PUSH1 0x4 DUP2 GT ISZERO PUSH2 0x2E27 JUMPI PUSH2 0x2E26 PUSH2 0x42C7 JUMP JUMPDEST JUMPDEST DUP2 PUSH1 0x4 DUP2 GT ISZERO PUSH2 0x2E3A JUMPI PUSH2 0x2E39 PUSH2 0x42C7 JUMP JUMPDEST JUMPDEST SUB PUSH2 0x2E7A JUMPI PUSH1 0x40 MLOAD PUSH32 0x8C379A000000000000000000000000000000000000000000000000000000000 DUP2 MSTORE PUSH1 0x4 ADD PUSH2 0x2E71 SWAP1 PUSH2 0x5C21 JUMP JUMPDEST PUSH1 0x40 MLOAD DUP1 SWAP2 SUB SWAP1 REVERT JUMPDEST PUSH1 0x3 PUSH1 0x4 DUP2 GT ISZERO PUSH2 0x2E8E JUMPI PUSH2 0x2E8D PUSH2 0x42C7 JUMP JUMPDEST JUMPDEST DUP2 PUSH1 0x4 DUP2 GT ISZERO PUSH2 0x2EA1 JUMPI PUSH2 0x2EA0 PUSH2 0x42C7 JUMP JUMPDEST JUMPDEST SUB PUSH2 0x2EE1 JUMPI PUSH1 0x40 MLOAD PUSH32 0x8C379A000000000000000000000000000000000000000000000000000000000 DUP2 MSTORE PUSH1 0x4 ADD PUSH2 0x2ED8 SWAP1 PUSH2 0x5CAF JUMP JUMPDEST PUSH1 0x40 MLOAD DUP1 SWAP2 SUB SWAP1 REVERT JUMPDEST JUMPDEST POP JUMP JUMPDEST PUSH0 PUSH1 0x6 PUSH0 DUP8 DUP2 MSTORE PUSH1 0x20 ADD SWAP1 DUP2 MSTORE PUSH1 0x20 ADD PUSH0 KECCAK256 SWAP1 POP DUP1 PUSH1 0x3 ADD PUSH0 DUP7 PUSH20 0xFFFFFFFFFFFFFFFFFFFFFFFFFFFFFFFFFFFFFFFF AND PUSH20 0xFFFFFFFFFFFFFFFFFFFFFFFFFFFFFFFFFFFFFFFF AND DUP2 MSTORE PUSH1 0x20 ADD SWAP1 DUP2 MSTORE PUSH1 0x20 ADD PUSH0 KECCAK256 PUSH0 SWAP1 SLOAD SWAP1 PUSH2 0x100 EXP SWAP1 DIV PUSH1 0xFF AND ISZERO PUSH2 0x2F85 JUMPI PUSH1 0x40 MLOAD PUSH32 0x8C379A000000000000000000000000000000000000000000000000000000000 DUP2 MSTORE PUSH1 0x4 ADD PUSH2 0x2F7C SWAP1 PUSH2 0x5D3D JUMP JUMPDEST PUSH1 0x40 MLOAD DUP1 SWAP2 SUB SWAP1 REVERT JUMPDEST PUSH1 0x1 DUP2 PUSH1 0x3 ADD PUSH0 DUP8 PUSH20 0xFFFFFFFFFFFFFFFFFFFFFFFFFFFFFFFFFFFFFFFF AND PUSH20 0xFFFFFFFFFFFFFFFFFFFFFFFFFFFFFFFFFFFFFFFF AND DUP2 MSTORE PUSH1 0x20 ADD SWAP1 DUP2 MSTORE PUSH1 0x20 ADD PUSH0 KECCAK256 PUSH0 PUSH2 0x100 EXP DUP2 SLOAD DUP2 PUSH1 0xFF MUL NOT AND SWAP1 DUP4 ISZERO ISZERO MUL OR SWAP1 SSTORE POP PUSH0 PUSH1 0x2 DUP2 GT ISZERO PUSH2 0x2FEF JUMPI PUSH2 0x2FEE PUSH2 0x42C7 JUMP JUMPDEST JUMPDEST PUSH1 0xFF AND DUP5 PUSH1 0xFF AND SUB PUSH2 0x3019 JUMPI DUP3 DUP2 PUSH0 ADD PUSH0 DUP3 DUP3 SLOAD PUSH2 0x300D SWAP2 SWAP1 PUSH2 0x510A JUMP JUMPDEST SWAP3 POP POP DUP2 SWAP1 SSTORE POP PUSH2 0x30D3 JUMP JUMPDEST PUSH1 0x1 PUSH1 0x2 DUP2 GT ISZERO PUSH2 0x302D JUMPI PUSH2 0x302C PUSH2 0x42C7 JUMP JUMPDEST JUMPDEST PUSH1 0xFF AND DUP5 PUSH1 0xFF AND SUB PUSH2 0x3058 JUMPI DUP3 DUP2 PUSH1 0x1 ADD PUSH0 DUP3 DUP3 SLOAD PUSH2 0x304C SWAP2 SWAP1 PUSH2 0x510A JUMP JUMPDEST SWAP3 POP POP DUP2 SWAP1 SSTORE POP PUSH2 0x30D2 JUMP JUMPDEST PUSH1 0x2 DUP1 DUP2 GT ISZERO PUSH2 0x306B JUMPI PUSH2 0x306A PUSH2 0x42C7 JUMP JUMPDEST JUMPDEST PUSH1 0xFF AND DUP5 PUSH1 0xFF AND SUB PUSH2 0x3096 JUMPI DUP3 DUP2 PUSH1 0x2 ADD PUSH0 DUP3 DUP3 SLOAD PUSH2 0x308A SWAP2 SWAP1 PUSH2 0x510A JUMP JUMPDEST SWAP3 POP POP DUP2 SWAP1 SSTORE POP PUSH2 0x30D1 JUMP JUMPDEST PUSH1 0x40 MLOAD PUSH32 0x8C379A000000000000000000000000000000000000000000000000000000000 DUP2 MSTORE PUSH1 0x4 ADD PUSH2 0x30C8 SWAP1 PUSH2 0x5DCB JUMP JUMPDEST PUSH1 0x40 MLOAD DUP1 SWAP2 SUB SWAP1 REVERT JUMPDEST JUMPDEST JUMPDEST POP POP POP POP POP POP JUMP JUMPDEST PUSH0 DUP3 PUSH0 ADD PUSH1 0x10 SWAP1 SLOAD SWAP1 PUSH2 0x100 EXP SWAP1 DIV PUSH1 0xF SIGNEXTEND SWAP1 POP DUP2 DUP4 PUSH1 0x1 ADD PUSH0 DUP4 PUSH1 0xF SIGNEXTEND PUSH1 0xF SIGNEXTEND DUP2 MSTORE PUSH1 0x20 ADD SWAP1 DUP2 MSTORE PUSH1 0x20 ADD PUSH0 KECCAK256 DUP2 SWAP1 SSTORE POP PUSH1 0x1 DUP2 ADD DUP4 PUSH0 ADD PUSH1 0x10 PUSH2 0x100 EXP DUP2 SLOAD DUP2 PUSH16 0xFFFFFFFFFFFFFFFFFFFFFFFFFFFFFFFF MUL NOT AND SWAP1 DUP4 PUSH1 0xF SIGNEXTEND PUSH16 0xFFFFFFFFFFFFFFFFFFFFFFFFFFFFFFFF AND MUL OR SWAP1 SSTORE POP POP POP POP JUMP JUMPDEST PUSH1 0x7 PUSH0 SWAP1 SLOAD SWAP1 PUSH2 0x100 EXP SWAP1 DIV PUSH20 0xFFFFFFFFFFFFFFFFFFFFFFFFFFFFFFFFFFFFFFFF AND PUSH20 0xFFFFFFFFFFFFFFFFFFFFFFFFFFFFFFFFFFFFFFFF AND PUSH4 0xE38335E5 CALLVALUE DUP7 DUP7 DUP7 PUSH0 DUP8 PUSH1 0x40 MLOAD DUP8 PUSH4 0xFFFFFFFF AND PUSH1 0xE0 SHL DUP2 MSTORE PUSH1 0x4 ADD PUSH2 0x31B5 SWAP6 SWAP5 SWAP4 SWAP3 SWAP2 SWAP1 PUSH2 0x4FC4 JUMP JUMPDEST PUSH0 PUSH1 0x40 MLOAD DUP1 DUP4 SUB DUP2 DUP6 DUP9 DUP1 EXTCODESIZE ISZERO DUP1 ISZERO PUSH2 0x31CC JUMPI PUSH0 DUP1 REVERT JUMPDEST POP GAS CALL ISZERO DUP1 ISZERO PUSH2 0x31DE JUMPI RETURNDATASIZE PUSH0 DUP1 RETURNDATACOPY RETURNDATASIZE PUSH0 REVERT JUMPDEST POP POP POP POP POP POP POP POP POP POP JUMP JUMPDEST PUSH0 DUP2 PUSH0 ADD PUSH0 SWAP1 SLOAD SWAP1 PUSH2 0x100 EXP SWAP1 DIV PUSH1 0xF SIGNEXTEND PUSH1 0xF SIGNEXTEND DUP3 PUSH0 ADD PUSH1 0x10 SWAP1 SLOAD SWAP1 PUSH2 0x100 EXP SWAP1 DIV PUSH1 0xF SIGNEXTEND PUSH1 0xF SIGNEXTEND SGT ISZERO SWAP1 POP SWAP2 SWAP1 POP JUMP JUMPDEST PUSH0 DUP2 PUSH0 ADD PUSH0 PUSH2 0x100 EXP DUP2 SLOAD DUP2 PUSH16 0xFFFFFFFFFFFFFFFFFFFFFFFFFFFFFFFF MUL NOT AND SWAP1 DUP4 PUSH1 0xF SIGNEXTEND PUSH16 0xFFFFFFFFFFFFFFFFFFFFFFFFFFFFFFFF AND MUL OR SWAP1 SSTORE POP PUSH0 DUP2 PUSH0 ADD PUSH1 0x10 PUSH2 0x100 EXP DUP2 SLOAD DUP2 PUSH16 0xFFFFFFFFFFFFFFFFFFFFFFFFFFFFFFFF MUL NOT AND SWAP1 DUP4 PUSH1 0xF SIGNEXTEND PUSH16 0xFFFFFFFFFFFFFFFFFFFFFFFFFFFFFFFF AND MUL OR SWAP1 SSTORE POP POP JUMP JUMPDEST PUSH0 DUP1 PUSH1 0x3 PUSH0 DUP5 DUP2 MSTORE PUSH1 0x20 ADD SWAP1 DUP2 MSTORE PUSH1 0x20 ADD PUSH0 KECCAK256 SWAP1 POP DUP1 PUSH1 0x2 ADD PUSH0 SWAP1 SLOAD SWAP1 PUSH2 0x100 EXP SWAP1 DIV PUSH1 0xFF AND ISZERO PUSH2 0x32CC JUMPI PUSH1 0x7 SWAP2 POP POP PUSH2 0x33B5 JUMP JUMPDEST DUP1 PUSH1 0x2 ADD PUSH1 0x1 SWAP1 SLOAD SWAP1 PUSH2 0x100 EXP SWAP1 DIV PUSH1 0xFF AND ISZERO PUSH2 0x32ED JUMPI PUSH1 0x2 SWAP2 POP POP PUSH2 0x33B5 JUMP JUMPDEST PUSH0 PUSH2 0x32F7 DUP5 PUSH2 0x1090 JUMP JUMPDEST SWAP1 POP PUSH0 DUP2 SUB PUSH2 0x333B JUMPI PUSH1 0x40 MLOAD PUSH32 0x8C379A000000000000000000000000000000000000000000000000000000000 DUP2 MSTORE PUSH1 0x4 ADD PUSH2 0x3332 SWAP1 PUSH2 0x5E33 JUMP JUMPDEST PUSH1 0x40 MLOAD DUP1 SWAP2 SUB SWAP1 REVERT JUMPDEST PUSH0 PUSH2 0x3344 PUSH2 0x1686 JUMP JUMPDEST PUSH6 0xFFFFFFFFFFFF AND SWAP1 POP DUP1 DUP3 LT PUSH2 0x3360 JUMPI PUSH0 SWAP4 POP POP POP POP PUSH2 0x33B5 JUMP JUMPDEST PUSH0 PUSH2 0x336A DUP7 PUSH2 0x1914 JUMP JUMPDEST SWAP1 POP DUP2 DUP2 LT PUSH2 0x3380 JUMPI PUSH1 0x1 SWAP5 POP POP POP POP POP PUSH2 0x33B5 JUMP JUMPDEST PUSH2 0x3389 DUP7 PUSH2 0x36B2 JUMP JUMPDEST DUP1 ISZERO PUSH2 0x339A JUMPI POP PUSH2 0x3399 DUP7 PUSH2 0x36F6 JUMP JUMPDEST JUMPDEST ISZERO PUSH2 0x33AC JUMPI PUSH1 0x4 SWAP5 POP POP POP POP POP PUSH2 0x33B5 JUMP JUMPDEST PUSH1 0x3 SWAP5 POP POP POP POP POP JUMPDEST SWAP2 SWAP1 POP JUMP JUMPDEST PUSH0 DUP1 PUSH2 0x33C8 DUP7 DUP7 DUP7 DUP7 PUSH2 0x371D JUMP JUMPDEST SWAP1 POP PUSH0 DUP1 SHL PUSH1 0x8 PUSH0 DUP4 DUP2 MSTORE PUSH1 0x20 ADD SWAP1 DUP2 MSTORE PUSH1 0x20 ADD PUSH0 KECCAK256 SLOAD EQ PUSH2 0x3491 JUMPI PUSH1 0x7 PUSH0 SWAP1 SLOAD SWAP1 PUSH2 0x100 EXP SWAP1 DIV PUSH20 0xFFFFFFFFFFFFFFFFFFFFFFFFFFFFFFFFFFFFFFFF AND PUSH20 0xFFFFFFFFFFFFFFFFFFFFFFFFFFFFFFFFFFFFFFFF AND PUSH4 0xC4D252F5 PUSH1 0x8 PUSH0 DUP5 DUP2 MSTORE PUSH1 0x20 ADD SWAP1 DUP2 MSTORE PUSH1 0x20 ADD PUSH0 KECCAK256 SLOAD PUSH1 0x40 MLOAD DUP3 PUSH4 0xFFFFFFFF AND PUSH1 0xE0 SHL DUP2 MSTORE PUSH1 0x4 ADD PUSH2 0x344F SWAP2 SWAP1 PUSH2 0x4237 JUMP JUMPDEST PUSH0 PUSH1 0x40 MLOAD DUP1 DUP4 SUB DUP2 PUSH0 DUP8 DUP1 EXTCODESIZE ISZERO DUP1 ISZERO PUSH2 0x3466 JUMPI PUSH0 DUP1 REVERT JUMPDEST POP GAS CALL ISZERO DUP1 ISZERO PUSH2 0x3478 JUMPI RETURNDATASIZE PUSH0 DUP1 RETURNDATACOPY RETURNDATASIZE PUSH0 REVERT JUMPDEST POP POP POP POP PUSH1 0x8 PUSH0 DUP3 DUP2 MSTORE PUSH1 0x20 ADD SWAP1 DUP2 MSTORE PUSH1 0x20 ADD PUSH0 KECCAK256 PUSH0 SWAP1 SSTORE JUMPDEST DUP1 SWAP2 POP POP SWAP5 SWAP4 POP POP POP POP JUMP JUMPDEST PUSH0 PUSH8 0xFFFFFFFFFFFFFFFF DUP1 AND DUP3 GT ISZERO PUSH2 0x34EB JUMPI PUSH1 0x40 MLOAD PUSH32 0x8C379A000000000000000000000000000000000000000000000000000000000 DUP2 MSTORE PUSH1 0x4 ADD PUSH2 0x34E2 SWAP1 PUSH2 0x5EC1 JUMP JUMPDEST PUSH1 0x40 MLOAD DUP1 SWAP2 SUB SWAP1 REVERT JUMPDEST DUP2 SWAP1 POP SWAP2 SWAP1 POP JUMP JUMPDEST PUSH1 0x60 PUSH0 PUSH2 0x34FF DUP4 PUSH2 0x3873 JUMP JUMPDEST SWAP1 POP PUSH0 PUSH1 0x20 PUSH8 0xFFFFFFFFFFFFFFFF DUP2 GT ISZERO PUSH2 0x351D JUMPI PUSH2 0x351C PUSH2 0x3B03 JUMP JUMPDEST JUMPDEST PUSH1 0x40 MLOAD SWAP1 DUP1 DUP3 MSTORE DUP1 PUSH1 0x1F ADD PUSH1 0x1F NOT AND PUSH1 0x20 ADD DUP3 ADD PUSH1 0x40 MSTORE DUP1 ISZERO PUSH2 0x354F JUMPI DUP2 PUSH1 0x20 ADD PUSH1 0x1 DUP3 MUL DUP1 CALLDATASIZE DUP4 CALLDATACOPY DUP1 DUP3 ADD SWAP2 POP POP SWAP1 POP JUMPDEST POP SWAP1 POP DUP2 DUP2 MSTORE DUP4 PUSH1 0x20 DUP3 ADD MSTORE DUP1 SWAP3 POP POP POP SWAP2 SWAP1 POP JUMP JUMPDEST PUSH0 DUP3 MLOAD GT ISZERO PUSH2 0x3577 JUMPI DUP2 MLOAD DUP1 DUP4 PUSH1 0x20 ADD REVERT JUMPDEST DUP1 PUSH1 0x40 MLOAD PUSH32 0x8C379A000000000000000000000000000000000000000000000000000000000 DUP2 MSTORE PUSH1 0x4 ADD PUSH2 0x35AB SWAP2 SWAP1 PUSH2 0x3D9D JUMP JUMPDEST PUSH1 0x40 MLOAD DUP1 SWAP2 SUB SWAP1 REVERT JUMPDEST PUSH0 PUSH32 0x1FFC9A700000000000000000000000000000000000000000000000000000000 PUSH28 0xFFFFFFFFFFFFFFFFFFFFFFFFFFFFFFFFFFFFFFFFFFFFFFFFFFFFFFFF NOT AND DUP3 PUSH28 0xFFFFFFFFFFFFFFFFFFFFFFFFFFFFFFFFFFFFFFFFFFFFFFFFFFFFFFFF NOT AND EQ SWAP1 POP SWAP2 SWAP1 POP JUMP JUMPDEST PUSH0 PUSH32 0x8B73C3C69BB8FE3D512ECC4CF759CC79239F7B179B0FFACAA9A75D522B39400F PUSH32 0x0 PUSH32 0x0 CHAINID ADDRESS PUSH1 0x40 MLOAD PUSH1 0x20 ADD PUSH2 0x3697 SWAP6 SWAP5 SWAP4 SWAP3 SWAP2 SWAP1 PUSH2 0x5EDF JUMP JUMPDEST PUSH1 0x40 MLOAD PUSH1 0x20 DUP2 DUP4 SUB SUB DUP2 MSTORE SWAP1 PUSH1 0x40 MSTORE DUP1 MLOAD SWAP1 PUSH1 0x20 ADD KECCAK256 SWAP1 POP SWAP1 JUMP JUMPDEST PUSH0 DUP1 PUSH1 0x6 PUSH0 DUP5 DUP2 MSTORE PUSH1 0x20 ADD SWAP1 DUP2 MSTORE PUSH1 0x20 ADD PUSH0 KECCAK256 SWAP1 POP DUP1 PUSH1 0x2 ADD SLOAD DUP2 PUSH1 0x1 ADD SLOAD PUSH2 0x36DB SWAP2 SWAP1 PUSH2 0x510A JUMP JUMPDEST PUSH2 0x36EC PUSH2 0x36E7 DUP6 PUSH2 0x1090 JUMP JUMPDEST PUSH2 0x1BC4 JUMP JUMPDEST GT ISZERO SWAP2 POP POP SWAP2 SWAP1 POP JUMP JUMPDEST PUSH0 DUP1 PUSH1 0x6 PUSH0 DUP5 DUP2 MSTORE PUSH1 0x20 ADD SWAP1 DUP2 MSTORE PUSH1 0x20 ADD PUSH0 KECCAK256 SWAP1 POP DUP1 PUSH0 ADD SLOAD DUP2 PUSH1 0x1 ADD SLOAD GT SWAP2 POP POP SWAP2 SWAP1 POP JUMP JUMPDEST PUSH0 DUP1 PUSH2 0x372B DUP7 DUP7 DUP7 DUP7 PUSH2 0x1AD2 JUMP JUMPDEST SWAP1 POP PUSH0 PUSH2 0x3737 DUP3 PUSH2 0x117D JUMP JUMPDEST SWAP1 POP PUSH1 0x2 PUSH1 0x7 DUP2 GT ISZERO PUSH2 0x374D JUMPI PUSH2 0x374C PUSH2 0x42C7 JUMP JUMPDEST JUMPDEST DUP2 PUSH1 0x7 DUP2 GT ISZERO PUSH2 0x3760 JUMPI PUSH2 0x375F PUSH2 0x42C7 JUMP JUMPDEST JUMPDEST EQ ISZERO DUP1 ISZERO PUSH2 0x3793 JUMPI POP PUSH1 0x6 PUSH1 0x7 DUP2 GT ISZERO PUSH2 0x377D JUMPI PUSH2 0x377C PUSH2 0x42C7 JUMP JUMPDEST JUMPDEST DUP2 PUSH1 0x7 DUP2 GT ISZERO PUSH2 0x3790 JUMPI PUSH2 0x378F PUSH2 0x42C7 JUMP JUMPDEST JUMPDEST EQ ISZERO JUMPDEST DUP1 ISZERO PUSH2 0x37C3 JUMPI POP PUSH1 0x7 DUP1 DUP2 GT ISZERO PUSH2 0x37AD JUMPI PUSH2 0x37AC PUSH2 0x42C7 JUMP JUMPDEST JUMPDEST DUP2 PUSH1 0x7 DUP2 GT ISZERO PUSH2 0x37C0 JUMPI PUSH2 0x37BF PUSH2 0x42C7 JUMP JUMPDEST JUMPDEST EQ ISZERO JUMPDEST PUSH2 0x3802 JUMPI PUSH1 0x40 MLOAD PUSH32 0x8C379A000000000000000000000000000000000000000000000000000000000 DUP2 MSTORE PUSH1 0x4 ADD PUSH2 0x37F9 SWAP1 PUSH2 0x5F7A JUMP JUMPDEST PUSH1 0x40 MLOAD DUP1 SWAP2 SUB SWAP1 REVERT JUMPDEST PUSH1 0x1 PUSH1 0x3 PUSH0 DUP5 DUP2 MSTORE PUSH1 0x20 ADD SWAP1 DUP2 MSTORE PUSH1 0x20 ADD PUSH0 KECCAK256 PUSH1 0x2 ADD PUSH1 0x1 PUSH2 0x100 EXP DUP2 SLOAD DUP2 PUSH1 0xFF MUL NOT AND SWAP1 DUP4 ISZERO ISZERO MUL OR SWAP1 SSTORE POP PUSH32 0x789CF55BE980739DAD1D0699B93B58E806B51C9D96619BFA8FE0A28ABAA7B30C DUP3 PUSH1 0x40 MLOAD PUSH2 0x385E SWAP2 SWAP1 PUSH2 0x3A15 JUMP JUMPDEST PUSH1 0x40 MLOAD DUP1 SWAP2 SUB SWAP1 LOG1 DUP2 SWAP3 POP POP POP SWAP5 SWAP4 POP POP POP POP JUMP JUMPDEST PUSH0 DUP1 PUSH1 0xFF DUP4 PUSH0 SHR AND SWAP1 POP PUSH1 0x1F DUP2 GT ISZERO PUSH2 0x38B8 JUMPI PUSH1 0x40 MLOAD PUSH32 0xB3512B0C00000000000000000000000000000000000000000000000000000000 DUP2 MSTORE PUSH1 0x4 ADD PUSH1 0x40 MLOAD DUP1 SWAP2 SUB SWAP1 REVERT JUMPDEST DUP1 SWAP2 POP POP SWAP2 SWAP1 POP JUMP JUMPDEST PUSH0 DUP3 DUP3 MSTORE PUSH1 0x20 DUP3 ADD SWAP1 POP SWAP3 SWAP2 POP POP JUMP JUMPDEST PUSH32 0x476F7665726E6F723A206D7573742073656E6420746F206578656375746F7200 PUSH0 DUP3 ADD MSTORE POP JUMP JUMPDEST PUSH0 PUSH2 0x3905 PUSH1 0x1F DUP4 PUSH2 0x38C1 JUMP JUMPDEST SWAP2 POP PUSH2 0x3910 DUP3 PUSH2 0x38D1 JUMP JUMPDEST PUSH1 0x20 DUP3 ADD SWAP1 POP SWAP2 SWAP1 POP JUMP JUMPDEST PUSH0 PUSH1 0x20 DUP3 ADD SWAP1 POP DUP2 DUP2 SUB PUSH0 DUP4 ADD MSTORE PUSH2 0x3932 DUP2 PUSH2 0x38F9 JUMP JUMPDEST SWAP1 POP SWAP2 SWAP1 POP JUMP JUMPDEST PUSH0 PUSH1 0x40 MLOAD SWAP1 POP SWAP1 JUMP JUMPDEST PUSH0 DUP1 REVERT JUMPDEST PUSH0 DUP1 REVERT JUMPDEST PUSH0 PUSH32 0xFFFFFFFF00000000000000000000000000000000000000000000000000000000 DUP3 AND SWAP1 POP SWAP2 SWAP1 POP JUMP JUMPDEST PUSH2 0x397E DUP2 PUSH2 0x394A JUMP JUMPDEST DUP2 EQ PUSH2 0x3988 JUMPI PUSH0 DUP1 REVERT JUMPDEST POP JUMP JUMPDEST PUSH0 DUP2 CALLDATALOAD SWAP1 POP PUSH2 0x3999 DUP2 PUSH2 0x3975 JUMP JUMPDEST SWAP3 SWAP2 POP POP JUMP JUMPDEST PUSH0 PUSH1 0x20 DUP3 DUP5 SUB SLT ISZERO PUSH2 0x39B4 JUMPI PUSH2 0x39B3 PUSH2 0x3942 JUMP JUMPDEST JUMPDEST PUSH0 PUSH2 0x39C1 DUP5 DUP3 DUP6 ADD PUSH2 0x398B JUMP JUMPDEST SWAP2 POP POP SWAP3 SWAP2 POP POP JUMP JUMPDEST PUSH0 DUP2 ISZERO ISZERO SWAP1 POP SWAP2 SWAP1 POP JUMP JUMPDEST PUSH2 0x39DE DUP2 PUSH2 0x39CA JUMP JUMPDEST DUP3 MSTORE POP POP JUMP JUMPDEST PUSH0 PUSH1 0x20 DUP3 ADD SWAP1 POP PUSH2 0x39F7 PUSH0 DUP4 ADD DUP5 PUSH2 0x39D5 JUMP JUMPDEST SWAP3 SWAP2 POP POP JUMP JUMPDEST PUSH0 DUP2 SWAP1 POP SWAP2 SWAP1 POP JUMP JUMPDEST PUSH2 0x3A0F DUP2 PUSH2 0x39FD JUMP JUMPDEST DUP3 MSTORE POP POP JUMP JUMPDEST PUSH0 PUSH1 0x20 DUP3 ADD SWAP1 POP PUSH2 0x3A28 PUSH0 DUP4 ADD DUP5 PUSH2 0x3A06 JUMP JUMPDEST SWAP3 SWAP2 POP POP JUMP JUMPDEST PUSH2 0x3A37 DUP2 PUSH2 0x39FD JUMP JUMPDEST DUP2 EQ PUSH2 0x3A41 JUMPI PUSH0 DUP1 REVERT JUMPDEST POP JUMP JUMPDEST PUSH0 DUP2 CALLDATALOAD SWAP1 POP PUSH2 0x3A52 DUP2 PUSH2 0x3A2E JUMP JUMPDEST SWAP3 SWAP2 POP POP JUMP JUMPDEST PUSH0 PUSH1 0xFF DUP3 AND SWAP1 POP SWAP2 SWAP1 POP JUMP JUMPDEST PUSH2 0x3A6D DUP2 PUSH2 0x3A58 JUMP JUMPDEST DUP2 EQ PUSH2 0x3A77 JUMPI PUSH0 DUP1 REVERT JUMPDEST POP JUMP JUMPDEST PUSH0 DUP2 CALLDATALOAD SWAP1 POP PUSH2 0x3A88 DUP2 PUSH2 0x3A64 JUMP JUMPDEST SWAP3 SWAP2 POP POP JUMP JUMPDEST PUSH0 DUP1 REVERT JUMPDEST PUSH0 DUP1 REVERT JUMPDEST PUSH0 DUP1 REVERT JUMPDEST PUSH0 DUP1 DUP4 PUSH1 0x1F DUP5 ADD SLT PUSH2 0x3AAF JUMPI PUSH2 0x3AAE PUSH2 0x3A8E JUMP JUMPDEST JUMPDEST DUP3 CALLDATALOAD SWAP1 POP PUSH8 0xFFFFFFFFFFFFFFFF DUP2 GT ISZERO PUSH2 0x3ACC JUMPI PUSH2 0x3ACB PUSH2 0x3A92 JUMP JUMPDEST JUMPDEST PUSH1 0x20 DUP4 ADD SWAP2 POP DUP4 PUSH1 0x1 DUP3 MUL DUP4 ADD GT ISZERO PUSH2 0x3AE8 JUMPI PUSH2 0x3AE7 PUSH2 0x3A96 JUMP JUMPDEST JUMPDEST SWAP3 POP SWAP3 SWAP1 POP JUMP JUMPDEST PUSH0 DUP1 REVERT JUMPDEST PUSH0 PUSH1 0x1F NOT PUSH1 0x1F DUP4 ADD AND SWAP1 POP SWAP2 SWAP1 POP JUMP JUMPDEST PUSH32 0x4E487B7100000000000000000000000000000000000000000000000000000000 PUSH0 MSTORE PUSH1 0x41 PUSH1 0x4 MSTORE PUSH1 0x24 PUSH0 REVERT JUMPDEST PUSH2 0x3B39 DUP3 PUSH2 0x3AF3 JUMP JUMPDEST DUP2 ADD DUP2 DUP2 LT PUSH8 0xFFFFFFFFFFFFFFFF DUP3 GT OR ISZERO PUSH2 0x3B58 JUMPI PUSH2 0x3B57 PUSH2 0x3B03 JUMP JUMPDEST JUMPDEST DUP1 PUSH1 0x40 MSTORE POP POP POP JUMP JUMPDEST PUSH0 PUSH2 0x3B6A PUSH2 0x3939 JUMP JUMPDEST SWAP1 POP PUSH2 0x3B76 DUP3 DUP3 PUSH2 0x3B30 JUMP JUMPDEST SWAP2 SWAP1 POP JUMP JUMPDEST PUSH0 PUSH8 0xFFFFFFFFFFFFFFFF DUP3 GT ISZERO PUSH2 0x3B95 JUMPI PUSH2 0x3B94 PUSH2 0x3B03 JUMP JUMPDEST JUMPDEST PUSH2 0x3B9E DUP3 PUSH2 0x3AF3 JUMP JUMPDEST SWAP1 POP PUSH1 0x20 DUP2 ADD SWAP1 POP SWAP2 SWAP1 POP JUMP JUMPDEST DUP3 DUP2 DUP4 CALLDATACOPY PUSH0 DUP4 DUP4 ADD MSTORE POP POP POP JUMP JUMPDEST PUSH0 PUSH2 0x3BCB PUSH2 0x3BC6 DUP5 PUSH2 0x3B7B JUMP JUMPDEST PUSH2 0x3B61 JUMP JUMPDEST SWAP1 POP DUP3 DUP2 MSTORE PUSH1 0x20 DUP2 ADD DUP5 DUP5 DUP5 ADD GT ISZERO PUSH2 0x3BE7 JUMPI PUSH2 0x3BE6 PUSH2 0x3AEF JUMP JUMPDEST JUMPDEST PUSH2 0x3BF2 DUP5 DUP3 DUP6 PUSH2 0x3BAB JUMP JUMPDEST POP SWAP4 SWAP3 POP POP POP JUMP JUMPDEST PUSH0 DUP3 PUSH1 0x1F DUP4 ADD SLT PUSH2 0x3C0E JUMPI PUSH2 0x3C0D PUSH2 0x3A8E JUMP JUMPDEST JUMPDEST DUP2 CALLDATALOAD PUSH2 0x3C1E DUP5 DUP3 PUSH1 0x20 DUP7 ADD PUSH2 0x3BB9 JUMP JUMPDEST SWAP2 POP POP SWAP3 SWAP2 POP POP JUMP JUMPDEST PUSH0 DUP2 SWAP1 POP SWAP2 SWAP1 POP JUMP JUMPDEST PUSH2 0x3C39 DUP2 PUSH2 0x3C27 JUMP JUMPDEST DUP2 EQ PUSH2 0x3C43 JUMPI PUSH0 DUP1 REVERT JUMPDEST POP JUMP JUMPDEST PUSH0 DUP2 CALLDATALOAD SWAP1 POP PUSH2 0x3C54 DUP2 PUSH2 0x3C30 JUMP JUMPDEST SWAP3 SWAP2 POP POP JUMP JUMPDEST PUSH0 DUP1 PUSH0 DUP1 PUSH0 DUP1 PUSH0 DUP1 PUSH1 0xE0 DUP10 DUP12 SUB SLT ISZERO PUSH2 0x3C76 JUMPI PUSH2 0x3C75 PUSH2 0x3942 JUMP JUMPDEST JUMPDEST PUSH0 PUSH2 0x3C83 DUP12 DUP3 DUP13 ADD PUSH2 0x3A44 JUMP JUMPDEST SWAP9 POP POP PUSH1 0x20 PUSH2 0x3C94 DUP12 DUP3 DUP13 ADD PUSH2 0x3A7A JUMP JUMPDEST SWAP8 POP POP PUSH1 0x40 DUP10 ADD CALLDATALOAD PUSH8 0xFFFFFFFFFFFFFFFF DUP2 GT ISZERO PUSH2 0x3CB5 JUMPI PUSH2 0x3CB4 PUSH2 0x3946 JUMP JUMPDEST JUMPDEST PUSH2 0x3CC1 DUP12 DUP3 DUP13 ADD PUSH2 0x3A9A JUMP JUMPDEST SWAP7 POP SWAP7 POP POP PUSH1 0x60 DUP10 ADD CALLDATALOAD PUSH8 0xFFFFFFFFFFFFFFFF DUP2 GT ISZERO PUSH2 0x3CE4 JUMPI PUSH2 0x3CE3 PUSH2 0x3946 JUMP JUMPDEST JUMPDEST PUSH2 0x3CF0 DUP12 DUP3 DUP13 ADD PUSH2 0x3BFA JUMP JUMPDEST SWAP5 POP POP PUSH1 0x80 PUSH2 0x3D01 DUP12 DUP3 DUP13 ADD PUSH2 0x3A7A JUMP JUMPDEST SWAP4 POP POP PUSH1 0xA0 PUSH2 0x3D12 DUP12 DUP3 DUP13 ADD PUSH2 0x3C46 JUMP JUMPDEST SWAP3 POP POP PUSH1 0xC0 PUSH2 0x3D23 DUP12 DUP3 DUP13 ADD PUSH2 0x3C46 JUMP JUMPDEST SWAP2 POP POP SWAP3 SWAP6 SWAP9 POP SWAP3 SWAP6 SWAP9 SWAP1 SWAP4 SWAP7 POP JUMP JUMPDEST PUSH0 DUP2 MLOAD SWAP1 POP SWAP2 SWAP1 POP JUMP JUMPDEST PUSH0 JUMPDEST DUP4 DUP2 LT ISZERO PUSH2 0x3D5A JUMPI DUP1 DUP3 ADD MLOAD DUP2 DUP5 ADD MSTORE PUSH1 0x20 DUP2 ADD SWAP1 POP PUSH2 0x3D3F JUMP JUMPDEST PUSH0 DUP5 DUP5 ADD MSTORE POP POP POP POP JUMP JUMPDEST PUSH0 PUSH2 0x3D6F DUP3 PUSH2 0x3D33 JUMP JUMPDEST PUSH2 0x3D79 DUP2 DUP6 PUSH2 0x38C1 JUMP JUMPDEST SWAP4 POP PUSH2 0x3D89 DUP2 DUP6 PUSH1 0x20 DUP7 ADD PUSH2 0x3D3D JUMP JUMPDEST PUSH2 0x3D92 DUP2 PUSH2 0x3AF3 JUMP JUMPDEST DUP5 ADD SWAP2 POP POP SWAP3 SWAP2 POP POP JUMP JUMPDEST PUSH0 PUSH1 0x20 DUP3 ADD SWAP1 POP DUP2 DUP2 SUB PUSH0 DUP4 ADD MSTORE PUSH2 0x3DB5 DUP2 DUP5 PUSH2 0x3D65 JUMP JUMPDEST SWAP1 POP SWAP3 SWAP2 POP POP JUMP JUMPDEST PUSH0 PUSH1 0x20 DUP3 DUP5 SUB SLT ISZERO PUSH2 0x3DD2 JUMPI PUSH2 0x3DD1 PUSH2 0x3942 JUMP JUMPDEST JUMPDEST PUSH0 PUSH2 0x3DDF DUP5 DUP3 DUP6 ADD PUSH2 0x3A44 JUMP JUMPDEST SWAP2 POP POP SWAP3 SWAP2 POP POP JUMP JUMPDEST PUSH0 PUSH20 0xFFFFFFFFFFFFFFFFFFFFFFFFFFFFFFFFFFFFFFFF DUP3 AND SWAP1 POP SWAP2 SWAP1 POP JUMP JUMPDEST PUSH0 PUSH2 0x3E11 DUP3 PUSH2 0x3DE8 JUMP JUMPDEST SWAP1 POP SWAP2 SWAP1 POP JUMP JUMPDEST PUSH2 0x3E21 DUP2 PUSH2 0x3E07 JUMP JUMPDEST DUP3 MSTORE POP POP JUMP JUMPDEST PUSH0 PUSH1 0x20 DUP3 ADD SWAP1 POP PUSH2 0x3E3A PUSH0 DUP4 ADD DUP5 PUSH2 0x3E18 JUMP JUMPDEST SWAP3 SWAP2 POP POP JUMP JUMPDEST PUSH2 0x3E49 DUP2 PUSH2 0x3E07 JUMP JUMPDEST DUP2 EQ PUSH2 0x3E53 JUMPI PUSH0 DUP1 REVERT JUMPDEST POP JUMP JUMPDEST PUSH0 DUP2 CALLDATALOAD SWAP1 POP PUSH2 0x3E64 DUP2 PUSH2 0x3E40 JUMP JUMPDEST SWAP3 SWAP2 POP POP JUMP JUMPDEST PUSH0 DUP1 PUSH0 DUP1 PUSH1 0x80 DUP6 DUP8 SUB SLT ISZERO PUSH2 0x3E82 JUMPI PUSH2 0x3E81 PUSH2 0x3942 JUMP JUMPDEST JUMPDEST PUSH0 PUSH2 0x3E8F DUP8 DUP3 DUP9 ADD PUSH2 0x3E56 JUMP JUMPDEST SWAP5 POP POP PUSH1 0x20 PUSH2 0x3EA0 DUP8 DUP3 DUP9 ADD PUSH2 0x3E56 JUMP JUMPDEST SWAP4 POP POP PUSH1 0x40 PUSH2 0x3EB1 DUP8 DUP3 DUP9 ADD PUSH2 0x3A44 JUMP JUMPDEST SWAP3 POP POP PUSH1 0x60 DUP6 ADD CALLDATALOAD PUSH8 0xFFFFFFFFFFFFFFFF DUP2 GT ISZERO PUSH2 0x3ED2 JUMPI PUSH2 0x3ED1 PUSH2 0x3946 JUMP JUMPDEST JUMPDEST PUSH2 0x3EDE DUP8 DUP3 DUP9 ADD PUSH2 0x3BFA JUMP JUMPDEST SWAP2 POP POP SWAP3 SWAP6 SWAP2 SWAP5 POP SWAP3 POP JUMP JUMPDEST PUSH2 0x3EF3 DUP2 PUSH2 0x394A JUMP JUMPDEST DUP3 MSTORE POP POP JUMP JUMPDEST PUSH0 PUSH1 0x20 DUP3 ADD SWAP1 POP PUSH2 0x3F0C PUSH0 DUP4 ADD DUP5 PUSH2 0x3EEA JUMP JUMPDEST SWAP3 SWAP2 POP POP JUMP JUMPDEST PUSH0 PUSH8 0xFFFFFFFFFFFFFFFF DUP3 GT ISZERO PUSH2 0x3F2C JUMPI PUSH2 0x3F2B PUSH2 0x3B03 JUMP JUMPDEST JUMPDEST PUSH1 0x20 DUP3 MUL SWAP1 POP PUSH1 0x20 DUP2 ADD SWAP1 POP SWAP2 SWAP1 POP JUMP JUMPDEST PUSH0 PUSH2 0x3F4F PUSH2 0x3F4A DUP5 PUSH2 0x3F12 JUMP JUMPDEST PUSH2 0x3B61 JUMP JUMPDEST SWAP1 POP DUP1 DUP4 DUP3 MSTORE PUSH1 0x20 DUP3 ADD SWAP1 POP PUSH1 0x20 DUP5 MUL DUP4 ADD DUP6 DUP2 GT ISZERO PUSH2 0x3F72 JUMPI PUSH2 0x3F71 PUSH2 0x3A96 JUMP JUMPDEST JUMPDEST DUP4 JUMPDEST DUP2 DUP2 LT ISZERO PUSH2 0x3F9B JUMPI DUP1 PUSH2 0x3F87 DUP9 DUP3 PUSH2 0x3E56 JUMP JUMPDEST DUP5 MSTORE PUSH1 0x20 DUP5 ADD SWAP4 POP POP PUSH1 0x20 DUP2 ADD SWAP1 POP PUSH2 0x3F74 JUMP JUMPDEST POP POP POP SWAP4 SWAP3 POP POP POP JUMP JUMPDEST PUSH0 DUP3 PUSH1 0x1F DUP4 ADD SLT PUSH2 0x3FB9 JUMPI PUSH2 0x3FB8 PUSH2 0x3A8E JUMP JUMPDEST JUMPDEST DUP2 CALLDATALOAD PUSH2 0x3FC9 DUP5 DUP3 PUSH1 0x20 DUP7 ADD PUSH2 0x3F3D JUMP JUMPDEST SWAP2 POP POP SWAP3 SWAP2 POP POP JUMP JUMPDEST PUSH0 PUSH8 0xFFFFFFFFFFFFFFFF DUP3 GT ISZERO PUSH2 0x3FEC JUMPI PUSH2 0x3FEB PUSH2 0x3B03 JUMP JUMPDEST JUMPDEST PUSH1 0x20 DUP3 MUL SWAP1 POP PUSH1 0x20 DUP2 ADD SWAP1 POP SWAP2 SWAP1 POP JUMP JUMPDEST PUSH0 PUSH2 0x400F PUSH2 0x400A DUP5 PUSH2 0x3FD2 JUMP JUMPDEST PUSH2 0x3B61 JUMP JUMPDEST SWAP1 POP DUP1 DUP4 DUP3 MSTORE PUSH1 0x20 DUP3 ADD SWAP1 POP PUSH1 0x20 DUP5 MUL DUP4 ADD DUP6 DUP2 GT ISZERO PUSH2 0x4032 JUMPI PUSH2 0x4031 PUSH2 0x3A96 JUMP JUMPDEST JUMPDEST DUP4 JUMPDEST DUP2 DUP2 LT ISZERO PUSH2 0x405B JUMPI DUP1 PUSH2 0x4047 DUP9 DUP3 PUSH2 0x3A44 JUMP JUMPDEST DUP5 MSTORE PUSH1 0x20 DUP5 ADD SWAP4 POP POP PUSH1 0x20 DUP2 ADD SWAP1 POP PUSH2 0x4034 JUMP JUMPDEST POP POP POP SWAP4 SWAP3 POP POP POP JUMP JUMPDEST PUSH0 DUP3 PUSH1 0x1F DUP4 ADD SLT PUSH2 0x4079 JUMPI PUSH2 0x4078 PUSH2 0x3A8E JUMP JUMPDEST JUMPDEST DUP2 CALLDATALOAD PUSH2 0x4089 DUP5 DUP3 PUSH1 0x20 DUP7 ADD PUSH2 0x3FFD JUMP JUMPDEST SWAP2 POP POP SWAP3 SWAP2 POP POP JUMP JUMPDEST PUSH0 PUSH8 0xFFFFFFFFFFFFFFFF DUP3 GT ISZERO PUSH2 0x40AC JUMPI PUSH2 0x40AB PUSH2 0x3B03 JUMP JUMPDEST JUMPDEST PUSH1 0x20 DUP3 MUL SWAP1 POP PUSH1 0x20 DUP2 ADD SWAP1 POP SWAP2 SWAP1 POP JUMP JUMPDEST PUSH0 PUSH2 0x40CF PUSH2 0x40CA DUP5 PUSH2 0x4092 JUMP JUMPDEST PUSH2 0x3B61 JUMP JUMPDEST SWAP1 POP DUP1 DUP4 DUP3 MSTORE PUSH1 0x20 DUP3 ADD SWAP1 POP PUSH1 0x20 DUP5 MUL DUP4 ADD DUP6 DUP2 GT ISZERO PUSH2 0x40F2 JUMPI PUSH2 0x40F1 PUSH2 0x3A96 JUMP JUMPDEST JUMPDEST DUP4 JUMPDEST DUP2 DUP2 LT ISZERO PUSH2 0x4139 JUMPI DUP1 CALLDATALOAD PUSH8 0xFFFFFFFFFFFFFFFF DUP2 GT ISZERO PUSH2 0x4117 JUMPI PUSH2 0x4116 PUSH2 0x3A8E JUMP JUMPDEST JUMPDEST DUP1 DUP7 ADD PUSH2 0x4124 DUP10 DUP3 PUSH2 0x3BFA JUMP JUMPDEST DUP6 MSTORE PUSH1 0x20 DUP6 ADD SWAP5 POP POP POP PUSH1 0x20 DUP2 ADD SWAP1 POP PUSH2 0x40F4 JUMP JUMPDEST POP POP POP SWAP4 SWAP3 POP POP POP JUMP JUMPDEST PUSH0 DUP3 PUSH1 0x1F DUP4 ADD SLT PUSH2 0x4157 JUMPI PUSH2 0x4156 PUSH2 0x3A8E JUMP JUMPDEST JUMPDEST DUP2 CALLDATALOAD PUSH2 0x4167 DUP5 DUP3 PUSH1 0x20 DUP7 ADD PUSH2 0x40BD JUMP JUMPDEST SWAP2 POP POP SWAP3 SWAP2 POP POP JUMP JUMPDEST PUSH0 DUP1 PUSH0 DUP1 PUSH1 0x80 DUP6 DUP8 SUB SLT ISZERO PUSH2 0x4188 JUMPI PUSH2 0x4187 PUSH2 0x3942 JUMP JUMPDEST JUMPDEST PUSH0 DUP6 ADD CALLDATALOAD PUSH8 0xFFFFFFFFFFFFFFFF DUP2 GT ISZERO PUSH2 0x41A5 JUMPI PUSH2 0x41A4 PUSH2 0x3946 JUMP JUMPDEST JUMPDEST PUSH2 0x41B1 DUP8 DUP3 DUP9 ADD PUSH2 0x3FA5 JUMP JUMPDEST SWAP5 POP POP PUSH1 0x20 DUP6 ADD CALLDATALOAD PUSH8 0xFFFFFFFFFFFFFFFF DUP2 GT ISZERO PUSH2 0x41D2 JUMPI PUSH2 0x41D1 PUSH2 0x3946 JUMP JUMPDEST JUMPDEST PUSH2 0x41DE DUP8 DUP3 DUP9 ADD PUSH2 0x4065 JUMP JUMPDEST SWAP4 POP POP PUSH1 0x40 DUP6 ADD CALLDATALOAD PUSH8 0xFFFFFFFFFFFFFFFF DUP2 GT ISZERO PUSH2 0x41FF JUMPI PUSH2 0x41FE PUSH2 0x3946 JUMP JUMPDEST JUMPDEST PUSH2 0x420B DUP8 DUP3 DUP9 ADD PUSH2 0x4143 JUMP JUMPDEST SWAP3 POP POP PUSH1 0x60 PUSH2 0x421C DUP8 DUP3 DUP9 ADD PUSH2 0x3C46 JUMP JUMPDEST SWAP2 POP POP SWAP3 SWAP6 SWAP2 SWAP5 POP SWAP3 POP JUMP JUMPDEST PUSH2 0x4231 DUP2 PUSH2 0x3C27 JUMP JUMPDEST DUP3 MSTORE POP POP JUMP JUMPDEST PUSH0 PUSH1 0x20 DUP3 ADD SWAP1 POP PUSH2 0x424A PUSH0 DUP4 ADD DUP5 PUSH2 0x4228 JUMP JUMPDEST SWAP3 SWAP2 POP POP JUMP JUMPDEST PUSH0 DUP1 PUSH0 DUP1 PUSH0 PUSH1 0xA0 DUP7 DUP9 SUB SLT ISZERO PUSH2 0x4269 JUMPI PUSH2 0x4268 PUSH2 0x3942 JUMP JUMPDEST JUMPDEST PUSH0 PUSH2 0x4276 DUP9 DUP3 DUP10 ADD PUSH2 0x3A44 JUMP JUMPDEST SWAP6 POP POP PUSH1 0x20 PUSH2 0x4287 DUP9 DUP3 DUP10 ADD PUSH2 0x3A7A JUMP JUMPDEST SWAP5 POP POP PUSH1 0x40 PUSH2 0x4298 DUP9 DUP3 DUP10 ADD PUSH2 0x3A7A JUMP JUMPDEST SWAP4 POP POP PUSH1 0x60 PUSH2 0x42A9 DUP9 DUP3 DUP10 ADD PUSH2 0x3C46 JUMP JUMPDEST SWAP3 POP POP PUSH1 0x80 PUSH2 0x42BA DUP9 DUP3 DUP10 ADD PUSH2 0x3C46 JUMP JUMPDEST SWAP2 POP POP SWAP3 SWAP6 POP SWAP3 SWAP6 SWAP1 SWAP4 POP JUMP JUMPDEST PUSH32 0x4E487B7100000000000000000000000000000000000000000000000000000000 PUSH0 MSTORE PUSH1 0x21 PUSH1 0x4 MSTORE PUSH1 0x24 PUSH0 REVERT JUMPDEST PUSH1 0x8 DUP2 LT PUSH2 0x4305 JUMPI PUSH2 0x4304 PUSH2 0x42C7 JUMP JUMPDEST JUMPDEST POP JUMP JUMPDEST PUSH0 DUP2 SWAP1 POP PUSH2 0x4315 DUP3 PUSH2 0x42F4 JUMP JUMPDEST SWAP2 SWAP1 POP JUMP JUMPDEST PUSH0 PUSH2 0x4324 DUP3 PUSH2 0x4308 JUMP JUMPDEST SWAP1 POP SWAP2 SWAP1 POP JUMP JUMPDEST PUSH2 0x4334 DUP2 PUSH2 0x431A JUMP JUMPDEST DUP3 MSTORE POP POP JUMP JUMPDEST PUSH0 PUSH1 0x20 DUP3 ADD SWAP1 POP PUSH2 0x434D PUSH0 DUP4 ADD DUP5 PUSH2 0x432B JUMP JUMPDEST SWAP3 SWAP2 POP POP JUMP JUMPDEST PUSH0 DUP1 PUSH1 0x40 DUP4 DUP6 SUB SLT ISZERO PUSH2 0x4369 JUMPI PUSH2 0x4368 PUSH2 0x3942 JUMP JUMPDEST JUMPDEST PUSH0 PUSH2 0x4376 DUP6 DUP3 DUP7 ADD PUSH2 0x3A44 JUMP JUMPDEST SWAP3 POP POP PUSH1 0x20 PUSH2 0x4387 DUP6 DUP3 DUP7 ADD PUSH2 0x3E56 JUMP JUMPDEST SWAP2 POP POP SWAP3 POP SWAP3 SWAP1 POP JUMP JUMPDEST PUSH0 PUSH1 0x60 DUP3 ADD SWAP1 POP PUSH2 0x43A4 PUSH0 DUP4 ADD DUP7 PUSH2 0x3A06 JUMP JUMPDEST PUSH2 0x43B1 PUSH1 0x20 DUP4 ADD DUP6 PUSH2 0x3A06 JUMP JUMPDEST PUSH2 0x43BE PUSH1 0x40 DUP4 ADD DUP5 PUSH2 0x3A06 JUMP JUMPDEST SWAP5 SWAP4 POP POP POP POP JUMP JUMPDEST PUSH0 DUP1 PUSH1 0x40 DUP4 DUP6 SUB SLT ISZERO PUSH2 0x43DC JUMPI PUSH2 0x43DB PUSH2 0x3942 JUMP JUMPDEST JUMPDEST PUSH0 PUSH2 0x43E9 DUP6 DUP3 DUP7 ADD PUSH2 0x3A44 JUMP JUMPDEST SWAP3 POP POP PUSH1 0x20 PUSH2 0x43FA DUP6 DUP3 DUP7 ADD PUSH2 0x3A7A JUMP JUMPDEST SWAP2 POP POP SWAP3 POP SWAP3 SWAP1 POP JUMP JUMPDEST PUSH0 DUP1 PUSH0 DUP1 PUSH0 PUSH1 0x80 DUP7 DUP9 SUB SLT ISZERO PUSH2 0x441D JUMPI PUSH2 0x441C PUSH2 0x3942 JUMP JUMPDEST JUMPDEST PUSH0 PUSH2 0x442A DUP9 DUP3 DUP10 ADD PUSH2 0x3A44 JUMP JUMPDEST SWAP6 POP POP PUSH1 0x20 PUSH2 0x443B DUP9 DUP3 DUP10 ADD PUSH2 0x3A7A JUMP JUMPDEST SWAP5 POP POP PUSH1 0x40 DUP7 ADD CALLDATALOAD PUSH8 0xFFFFFFFFFFFFFFFF DUP2 GT ISZERO PUSH2 0x445C JUMPI PUSH2 0x445B PUSH2 0x3946 JUMP JUMPDEST JUMPDEST PUSH2 0x4468 DUP9 DUP3 DUP10 ADD PUSH2 0x3A9A JUMP JUMPDEST SWAP4 POP SWAP4 POP POP PUSH1 0x60 DUP7 ADD CALLDATALOAD PUSH8 0xFFFFFFFFFFFFFFFF DUP2 GT ISZERO PUSH2 0x448B JUMPI PUSH2 0x448A PUSH2 0x3946 JUMP JUMPDEST JUMPDEST PUSH2 0x4497 DUP9 DUP3 DUP10 ADD PUSH2 0x3BFA JUMP JUMPDEST SWAP2 POP POP SWAP3 SWAP6 POP SWAP3 SWAP6 SWAP1 SWAP4 POP JUMP JUMPDEST PUSH0 DUP1 PUSH0 DUP1 PUSH1 0x60 DUP6 DUP8 SUB SLT ISZERO PUSH2 0x44BC JUMPI PUSH2 0x44BB PUSH2 0x3942 JUMP JUMPDEST JUMPDEST PUSH0 PUSH2 0x44C9 DUP8 DUP3 DUP9 ADD PUSH2 0x3A44 JUMP JUMPDEST SWAP5 POP POP PUSH1 0x20 PUSH2 0x44DA DUP8 DUP3 DUP9 ADD PUSH2 0x3A7A JUMP JUMPDEST SWAP4 POP POP PUSH1 0x40 DUP6 ADD CALLDATALOAD PUSH8 0xFFFFFFFFFFFFFFFF DUP2 GT ISZERO PUSH2 0x44FB JUMPI PUSH2 0x44FA PUSH2 0x3946 JUMP JUMPDEST JUMPDEST PUSH2 0x4507 DUP8 DUP3 DUP9 ADD PUSH2 0x3A9A JUMP JUMPDEST SWAP3 POP SWAP3 POP POP SWAP3 SWAP6 SWAP2 SWAP5 POP SWAP3 POP JUMP JUMPDEST PUSH0 PUSH8 0xFFFFFFFFFFFFFFFF DUP3 GT ISZERO PUSH2 0x452F JUMPI PUSH2 0x452E PUSH2 0x3B03 JUMP JUMPDEST JUMPDEST PUSH2 0x4538 DUP3 PUSH2 0x3AF3 JUMP JUMPDEST SWAP1 POP PUSH1 0x20 DUP2 ADD SWAP1 POP SWAP2 SWAP1 POP JUMP JUMPDEST PUSH0 PUSH2 0x4557 PUSH2 0x4552 DUP5 PUSH2 0x4515 JUMP JUMPDEST PUSH2 0x3B61 JUMP JUMPDEST SWAP1 POP DUP3 DUP2 MSTORE PUSH1 0x20 DUP2 ADD DUP5 DUP5 DUP5 ADD GT ISZERO PUSH2 0x4573 JUMPI PUSH2 0x4572 PUSH2 0x3AEF JUMP JUMPDEST JUMPDEST PUSH2 0x457E DUP5 DUP3 DUP6 PUSH2 0x3BAB JUMP JUMPDEST POP SWAP4 SWAP3 POP POP POP JUMP JUMPDEST PUSH0 DUP3 PUSH1 0x1F DUP4 ADD SLT PUSH2 0x459A JUMPI PUSH2 0x4599 PUSH2 0x3A8E JUMP JUMPDEST JUMPDEST DUP2 CALLDATALOAD PUSH2 0x45AA DUP5 DUP3 PUSH1 0x20 DUP7 ADD PUSH2 0x4545 JUMP JUMPDEST SWAP2 POP POP SWAP3 SWAP2 POP POP JUMP JUMPDEST PUSH0 DUP1 PUSH0 DUP1 PUSH1 0x80 DUP6 DUP8 SUB SLT ISZERO PUSH2 0x45CB JUMPI PUSH2 0x45CA PUSH2 0x3942 JUMP JUMPDEST JUMPDEST PUSH0 DUP6 ADD CALLDATALOAD PUSH8 0xFFFFFFFFFFFFFFFF DUP2 GT ISZERO PUSH2 0x45E8 JUMPI PUSH2 0x45E7 PUSH2 0x3946 JUMP JUMPDEST JUMPDEST PUSH2 0x45F4 DUP8 DUP3 DUP9 ADD PUSH2 0x3FA5 JUMP JUMPDEST SWAP5 POP POP PUSH1 0x20 DUP6 ADD CALLDATALOAD PUSH8 0xFFFFFFFFFFFFFFFF DUP2 GT ISZERO PUSH2 0x4615 JUMPI PUSH2 0x4614 PUSH2 0x3946 JUMP JUMPDEST JUMPDEST PUSH2 0x4621 DUP8 DUP3 DUP9 ADD PUSH2 0x4065 JUMP JUMPDEST SWAP4 POP POP PUSH1 0x40 DUP6 ADD CALLDATALOAD PUSH8 0xFFFFFFFFFFFFFFFF DUP2 GT ISZERO PUSH2 0x4642 JUMPI PUSH2 0x4641 PUSH2 0x3946 JUMP JUMPDEST JUMPDEST PUSH2 0x464E DUP8 DUP3 DUP9 ADD PUSH2 0x4143 JUMP JUMPDEST SWAP3 POP POP PUSH1 0x60 DUP6 ADD CALLDATALOAD PUSH8 0xFFFFFFFFFFFFFFFF DUP2 GT ISZERO PUSH2 0x466F JUMPI PUSH2 0x466E PUSH2 0x3946 JUMP JUMPDEST JUMPDEST PUSH2 0x467B DUP8 DUP3 DUP9 ADD PUSH2 0x4586 JUMP JUMPDEST SWAP2 POP POP SWAP3 SWAP6 SWAP2 SWAP5 POP SWAP3 POP JUMP JUMPDEST PUSH0 PUSH32 0xFF00000000000000000000000000000000000000000000000000000000000000 DUP3 AND SWAP1 POP SWAP2 SWAP1 POP JUMP JUMPDEST PUSH2 0x46BB DUP2 PUSH2 0x4687 JUMP JUMPDEST DUP3 MSTORE POP POP JUMP JUMPDEST PUSH0 DUP2 MLOAD SWAP1 POP SWAP2 SWAP1 POP JUMP JUMPDEST PUSH0 DUP3 DUP3 MSTORE PUSH1 0x20 DUP3 ADD SWAP1 POP SWAP3 SWAP2 POP POP JUMP JUMPDEST PUSH0 DUP2 SWAP1 POP PUSH1 0x20 DUP3 ADD SWAP1 POP SWAP2 SWAP1 POP JUMP JUMPDEST PUSH2 0x46F3 DUP2 PUSH2 0x39FD JUMP JUMPDEST DUP3 MSTORE POP POP JUMP JUMPDEST PUSH0 PUSH2 0x4704 DUP4 DUP4 PUSH2 0x46EA JUMP JUMPDEST PUSH1 0x20 DUP4 ADD SWAP1 POP SWAP3 SWAP2 POP POP JUMP JUMPDEST PUSH0 PUSH1 0x20 DUP3 ADD SWAP1 POP SWAP2 SWAP1 POP JUMP JUMPDEST PUSH0 PUSH2 0x4726 DUP3 PUSH2 0x46C1 JUMP JUMPDEST PUSH2 0x4730 DUP2 DUP6 PUSH2 0x46CB JUMP JUMPDEST SWAP4 POP PUSH2 0x473B DUP4 PUSH2 0x46DB JUMP JUMPDEST DUP1 PUSH0 JUMPDEST DUP4 DUP2 LT ISZERO PUSH2 0x476B JUMPI DUP2 MLOAD PUSH2 0x4752 DUP9 DUP3 PUSH2 0x46F9 JUMP JUMPDEST SWAP8 POP PUSH2 0x475D DUP4 PUSH2 0x4710 JUMP JUMPDEST SWAP3 POP POP PUSH1 0x1 DUP2 ADD SWAP1 POP PUSH2 0x473E JUMP JUMPDEST POP DUP6 SWAP4 POP POP POP POP SWAP3 SWAP2 POP POP JUMP JUMPDEST PUSH0 PUSH1 0xE0 DUP3 ADD SWAP1 POP PUSH2 0x478B PUSH0 DUP4 ADD DUP11 PUSH2 0x46B2 JUMP JUMPDEST DUP2 DUP2 SUB PUSH1 0x20 DUP4 ADD MSTORE PUSH2 0x479D DUP2 DUP10 PUSH2 0x3D65 JUMP JUMPDEST SWAP1 POP DUP2 DUP2 SUB PUSH1 0x40 DUP4 ADD MSTORE PUSH2 0x47B1 DUP2 DUP9 PUSH2 0x3D65 JUMP JUMPDEST SWAP1 POP PUSH2 0x47C0 PUSH1 0x60 DUP4 ADD DUP8 PUSH2 0x3A06 JUMP JUMPDEST PUSH2 0x47CD PUSH1 0x80 DUP4 ADD DUP7 PUSH2 0x3E18 JUMP JUMPDEST PUSH2 0x47DA PUSH1 0xA0 DUP4 ADD DUP6 PUSH2 0x4228 JUMP JUMPDEST DUP2 DUP2 SUB PUSH1 0xC0 DUP4 ADD MSTORE PUSH2 0x47EC DUP2 DUP5 PUSH2 0x471C JUMP JUMPDEST SWAP1 POP SWAP9 SWAP8 POP POP POP POP POP POP POP POP JUMP JUMPDEST PUSH0 PUSH6 0xFFFFFFFFFFFF DUP3 AND SWAP1 POP SWAP2 SWAP1 POP JUMP JUMPDEST PUSH2 0x4814 DUP2 PUSH2 0x47FA JUMP JUMPDEST DUP3 MSTORE POP POP JUMP JUMPDEST PUSH0 PUSH1 0x20 DUP3 ADD SWAP1 POP PUSH2 0x482D PUSH0 DUP4 ADD DUP5 PUSH2 0x480B JUMP JUMPDEST SWAP3 SWAP2 POP POP JUMP JUMPDEST PUSH0 DUP1 PUSH0 PUSH1 0x60 DUP5 DUP7 SUB SLT ISZERO PUSH2 0x484A JUMPI PUSH2 0x4849 PUSH2 0x3942 JUMP JUMPDEST JUMPDEST PUSH0 PUSH2 0x4857 DUP7 DUP3 DUP8 ADD PUSH2 0x3E56 JUMP JUMPDEST SWAP4 POP POP PUSH1 0x20 PUSH2 0x4868 DUP7 DUP3 DUP8 ADD PUSH2 0x3A44 JUMP JUMPDEST SWAP3 POP POP PUSH1 0x40 DUP5 ADD CALLDATALOAD PUSH8 0xFFFFFFFFFFFFFFFF DUP2 GT ISZERO PUSH2 0x4889 JUMPI PUSH2 0x4888 PUSH2 0x3946 JUMP JUMPDEST JUMPDEST PUSH2 0x4895 DUP7 DUP3 DUP8 ADD PUSH2 0x3BFA JUMP JUMPDEST SWAP2 POP POP SWAP3 POP SWAP3 POP SWAP3 JUMP JUMPDEST PUSH0 PUSH2 0x48A9 DUP3 PUSH2 0x3DE8 JUMP JUMPDEST SWAP1 POP SWAP2 SWAP1 POP JUMP JUMPDEST PUSH0 PUSH2 0x48BA DUP3 PUSH2 0x489F JUMP JUMPDEST SWAP1 POP SWAP2 SWAP1 POP JUMP JUMPDEST PUSH2 0x48CA DUP2 PUSH2 0x48B0 JUMP JUMPDEST DUP2 EQ PUSH2 0x48D4 JUMPI PUSH0 DUP1 REVERT JUMPDEST POP JUMP JUMPDEST PUSH0 DUP2 CALLDATALOAD SWAP1 POP PUSH2 0x48E5 DUP2 PUSH2 0x48C1 JUMP JUMPDEST SWAP3 SWAP2 POP POP JUMP JUMPDEST PUSH0 PUSH1 0x20 DUP3 DUP5 SUB SLT ISZERO PUSH2 0x4900 JUMPI PUSH2 0x48FF PUSH2 0x3942 JUMP JUMPDEST JUMPDEST PUSH0 PUSH2 0x490D DUP5 DUP3 DUP6 ADD PUSH2 0x48D7 JUMP JUMPDEST SWAP2 POP POP SWAP3 SWAP2 POP POP JUMP JUMPDEST PUSH0 DUP1 PUSH0 DUP1 PUSH0 PUSH1 0xA0 DUP7 DUP9 SUB SLT ISZERO PUSH2 0x492F JUMPI PUSH2 0x492E PUSH2 0x3942 JUMP JUMPDEST JUMPDEST PUSH0 PUSH2 0x493C DUP9 DUP3 DUP10 ADD PUSH2 0x3E56 JUMP JUMPDEST SWAP6 POP POP PUSH1 0x20 PUSH2 0x494D DUP9 DUP3 DUP10 ADD PUSH2 0x3E56 JUMP JUMPDEST SWAP5 POP POP PUSH1 0x40 DUP7 ADD CALLDATALOAD PUSH8 0xFFFFFFFFFFFFFFFF DUP2 GT ISZERO PUSH2 0x496E JUMPI PUSH2 0x496D PUSH2 0x3946 JUMP JUMPDEST JUMPDEST PUSH2 0x497A DUP9 DUP3 DUP10 ADD PUSH2 0x4065 JUMP JUMPDEST SWAP4 POP POP PUSH1 0x60 DUP7 ADD CALLDATALOAD PUSH8 0xFFFFFFFFFFFFFFFF DUP2 GT ISZERO PUSH2 0x499B JUMPI PUSH2 0x499A PUSH2 0x3946 JUMP JUMPDEST JUMPDEST PUSH2 0x49A7 DUP9 DUP3 DUP10 ADD PUSH2 0x4065 JUMP JUMPDEST SWAP3 POP POP PUSH1 0x80 DUP7 ADD CALLDATALOAD PUSH8 0xFFFFFFFFFFFFFFFF DUP2 GT ISZERO PUSH2 0x49C8 JUMPI PUSH2 0x49C7 PUSH2 0x3946 JUMP JUMPDEST JUMPDEST PUSH2 0x49D4 DUP9 DUP3 DUP10 ADD PUSH2 0x3BFA JUMP JUMPDEST SWAP2 POP POP SWAP3 SWAP6 POP SWAP3 SWAP6 SWAP1 SWAP4 POP JUMP JUMPDEST PUSH0 DUP1 DUP4 PUSH1 0x1F DUP5 ADD SLT PUSH2 0x49F6 JUMPI PUSH2 0x49F5 PUSH2 0x3A8E JUMP JUMPDEST JUMPDEST DUP3 CALLDATALOAD SWAP1 POP PUSH8 0xFFFFFFFFFFFFFFFF DUP2 GT ISZERO PUSH2 0x4A13 JUMPI PUSH2 0x4A12 PUSH2 0x3A92 JUMP JUMPDEST JUMPDEST PUSH1 0x20 DUP4 ADD SWAP2 POP DUP4 PUSH1 0x1 DUP3 MUL DUP4 ADD GT ISZERO PUSH2 0x4A2F JUMPI PUSH2 0x4A2E PUSH2 0x3A96 JUMP JUMPDEST JUMPDEST SWAP3 POP SWAP3 SWAP1 POP JUMP JUMPDEST PUSH0 DUP1 PUSH0 DUP1 PUSH1 0x60 DUP6 DUP8 SUB SLT ISZERO PUSH2 0x4A4E JUMPI PUSH2 0x4A4D PUSH2 0x3942 JUMP JUMPDEST JUMPDEST PUSH0 PUSH2 0x4A5B DUP8 DUP3 DUP9 ADD PUSH2 0x3E56 JUMP JUMPDEST SWAP5 POP POP PUSH1 0x20 PUSH2 0x4A6C DUP8 DUP3 DUP9 ADD PUSH2 0x3A44 JUMP JUMPDEST SWAP4 POP POP PUSH1 0x40 DUP6 ADD CALLDATALOAD PUSH8 0xFFFFFFFFFFFFFFFF DUP2 GT ISZERO PUSH2 0x4A8D JUMPI PUSH2 0x4A8C PUSH2 0x3946 JUMP JUMPDEST JUMPDEST PUSH2 0x4A99 DUP8 DUP3 DUP9 ADD PUSH2 0x49E1 JUMP JUMPDEST SWAP3 POP SWAP3 POP POP SWAP3 SWAP6 SWAP2 SWAP5 POP SWAP3 POP JUMP JUMPDEST PUSH0 DUP1 PUSH1 0x40 DUP4 DUP6 SUB SLT ISZERO PUSH2 0x4ABD JUMPI PUSH2 0x4ABC PUSH2 0x3942 JUMP JUMPDEST JUMPDEST PUSH0 PUSH2 0x4ACA DUP6 DUP3 DUP7 ADD PUSH2 0x3E56 JUMP JUMPDEST SWAP3 POP POP PUSH1 0x20 PUSH2 0x4ADB DUP6 DUP3 DUP7 ADD PUSH2 0x3A44 JUMP JUMPDEST SWAP2 POP POP SWAP3 POP SWAP3 SWAP1 POP JUMP JUMPDEST PUSH0 DUP1 PUSH0 DUP1 PUSH0 PUSH1 0xA0 DUP7 DUP9 SUB SLT ISZERO PUSH2 0x4AFE JUMPI PUSH2 0x4AFD PUSH2 0x3942 JUMP JUMPDEST JUMPDEST PUSH0 PUSH2 0x4B0B DUP9 DUP3 DUP10 ADD PUSH2 0x3E56 JUMP JUMPDEST SWAP6 POP POP PUSH1 0x20 PUSH2 0x4B1C DUP9 DUP3 DUP10 ADD PUSH2 0x3E56 JUMP JUMPDEST SWAP5 POP POP PUSH1 0x40 PUSH2 0x4B2D DUP9 DUP3 DUP10 ADD PUSH2 0x3A44 JUMP JUMPDEST SWAP4 POP POP PUSH1 0x60 PUSH2 0x4B3E DUP9 DUP3 DUP10 ADD PUSH2 0x3A44 JUMP JUMPDEST SWAP3 POP POP PUSH1 0x80 DUP7 ADD CALLDATALOAD PUSH8 0xFFFFFFFFFFFFFFFF DUP2 GT ISZERO PUSH2 0x4B5F JUMPI PUSH2 0x4B5E PUSH2 0x3946 JUMP JUMPDEST JUMPDEST PUSH2 0x4B6B DUP9 DUP3 DUP10 ADD PUSH2 0x3BFA JUMP JUMPDEST SWAP2 POP POP SWAP3 SWAP6 POP SWAP3 SWAP6 SWAP1 SWAP4 POP JUMP JUMPDEST PUSH0 DUP2 SWAP1 POP SWAP2 SWAP1 POP JUMP JUMPDEST PUSH0 PUSH2 0x4B9B PUSH2 0x4B96 PUSH2 0x4B91 DUP5 PUSH2 0x3DE8 JUMP JUMPDEST PUSH2 0x4B78 JUMP JUMPDEST PUSH2 0x3DE8 JUMP JUMPDEST SWAP1 POP SWAP2 SWAP1 POP JUMP JUMPDEST PUSH0 PUSH2 0x4BAC DUP3 PUSH2 0x4B81 JUMP JUMPDEST SWAP1 POP SWAP2 SWAP1 POP JUMP JUMPDEST PUSH0 PUSH2 0x4BBD DUP3 PUSH2 0x4BA2 JUMP JUMPDEST SWAP1 POP SWAP2 SWAP1 POP JUMP JUMPDEST PUSH2 0x4BCD DUP2 PUSH2 0x4BB3 JUMP JUMPDEST DUP3 MSTORE POP POP JUMP JUMPDEST PUSH0 PUSH1 0x20 DUP3 ADD SWAP1 POP PUSH2 0x4BE6 PUSH0 DUP4 ADD DUP5 PUSH2 0x4BC4 JUMP JUMPDEST SWAP3 SWAP2 POP POP JUMP JUMPDEST PUSH0 DUP2 SWAP1 POP SWAP3 SWAP2 POP POP JUMP JUMPDEST PUSH0 PUSH2 0x4C01 DUP4 DUP6 PUSH2 0x4BEC JUMP JUMPDEST SWAP4 POP PUSH2 0x4C0E DUP4 DUP6 DUP5 PUSH2 0x3BAB JUMP JUMPDEST DUP3 DUP5 ADD SWAP1 POP SWAP4 SWAP3 POP POP POP JUMP JUMPDEST PUSH0 PUSH2 0x4C26 DUP3 DUP5 DUP7 PUSH2 0x4BF6 JUMP JUMPDEST SWAP2 POP DUP2 SWAP1 POP SWAP4 SWAP3 POP POP POP JUMP JUMPDEST PUSH2 0x4C3B DUP2 PUSH2 0x3A58 JUMP JUMPDEST DUP3 MSTORE POP POP JUMP JUMPDEST PUSH0 PUSH1 0xA0 DUP3 ADD SWAP1 POP PUSH2 0x4C54 PUSH0 DUP4 ADD DUP9 PUSH2 0x4228 JUMP JUMPDEST PUSH2 0x4C61 PUSH1 0x20 DUP4 ADD DUP8 PUSH2 0x3A06 JUMP JUMPDEST PUSH2 0x4C6E PUSH1 0x40 DUP4 ADD DUP7 PUSH2 0x4C32 JUMP JUMPDEST PUSH2 0x4C7B PUSH1 0x60 DUP4 ADD DUP6 PUSH2 0x4228 JUMP JUMPDEST PUSH2 0x4C88 PUSH1 0x80 DUP4 ADD DUP5 PUSH2 0x4228 JUMP JUMPDEST SWAP7 SWAP6 POP POP POP POP POP POP JUMP JUMPDEST PUSH32 0x4E487B7100000000000000000000000000000000000000000000000000000000 PUSH0 MSTORE PUSH1 0x22 PUSH1 0x4 MSTORE PUSH1 0x24 PUSH0 REVERT JUMPDEST PUSH0 PUSH1 0x2 DUP3 DIV SWAP1 POP PUSH1 0x1 DUP3 AND DUP1 PUSH2 0x4CD6 JUMPI PUSH1 0x7F DUP3 AND SWAP2 POP JUMPDEST PUSH1 0x20 DUP3 LT DUP2 SUB PUSH2 0x4CE9 JUMPI PUSH2 0x4CE8 PUSH2 0x4C92 JUMP JUMPDEST JUMPDEST POP SWAP2 SWAP1 POP JUMP JUMPDEST PUSH32 0x476F7665726E6F723A2070726F706F73616C206E6F7420737563636573736675 PUSH0 DUP3 ADD MSTORE PUSH32 0x6C00000000000000000000000000000000000000000000000000000000000000 PUSH1 0x20 DUP3 ADD MSTORE POP JUMP JUMPDEST PUSH0 PUSH2 0x4D49 PUSH1 0x21 DUP4 PUSH2 0x38C1 JUMP JUMPDEST SWAP2 POP PUSH2 0x4D54 DUP3 PUSH2 0x4CEF JUMP JUMPDEST PUSH1 0x40 DUP3 ADD SWAP1 POP SWAP2 SWAP1 POP JUMP JUMPDEST PUSH0 PUSH1 0x20 DUP3 ADD SWAP1 POP DUP2 DUP2 SUB PUSH0 DUP4 ADD MSTORE PUSH2 0x4D76 DUP2 PUSH2 0x4D3D JUMP JUMPDEST SWAP1 POP SWAP2 SWAP1 POP JUMP JUMPDEST PUSH0 DUP2 MLOAD SWAP1 POP PUSH2 0x4D8B DUP2 PUSH2 0x3A2E JUMP JUMPDEST SWAP3 SWAP2 POP POP JUMP JUMPDEST PUSH0 PUSH1 0x20 DUP3 DUP5 SUB SLT ISZERO PUSH2 0x4DA6 JUMPI PUSH2 0x4DA5 PUSH2 0x3942 JUMP JUMPDEST JUMPDEST PUSH0 PUSH2 0x4DB3 DUP5 DUP3 DUP6 ADD PUSH2 0x4D7D JUMP JUMPDEST SWAP2 POP POP SWAP3 SWAP2 POP POP JUMP JUMPDEST PUSH0 DUP2 MLOAD SWAP1 POP SWAP2 SWAP1 POP JUMP JUMPDEST PUSH0 DUP3 DUP3 MSTORE PUSH1 0x20 DUP3 ADD SWAP1 POP SWAP3 SWAP2 POP POP JUMP JUMPDEST PUSH0 DUP2 SWAP1 POP PUSH1 0x20 DUP3 ADD SWAP1 POP SWAP2 SWAP1 POP JUMP JUMPDEST PUSH2 0x4DEE DUP2 PUSH2 0x3E07 JUMP JUMPDEST DUP3 MSTORE POP POP JUMP JUMPDEST PUSH0 PUSH2 0x4DFF DUP4 DUP4 PUSH2 0x4DE5 JUMP JUMPDEST PUSH1 0x20 DUP4 ADD SWAP1 POP SWAP3 SWAP2 POP POP JUMP JUMPDEST PUSH0 PUSH1 0x20 DUP3 ADD SWAP1 POP SWAP2 SWAP1 POP JUMP JUMPDEST PUSH0 PUSH2 0x4E21 DUP3 PUSH2 0x4DBC JUMP JUMPDEST PUSH2 0x4E2B DUP2 DUP6 PUSH2 0x4DC6 JUMP JUMPDEST SWAP4 POP PUSH2 0x4E36 DUP4 PUSH2 0x4DD6 JUMP JUMPDEST DUP1 PUSH0 JUMPDEST DUP4 DUP2 LT ISZERO PUSH2 0x4E66 JUMPI DUP2 MLOAD PUSH2 0x4E4D DUP9 DUP3 PUSH2 0x4DF4 JUMP JUMPDEST SWAP8 POP PUSH2 0x4E58 DUP4 PUSH2 0x4E0B JUMP JUMPDEST SWAP3 POP POP PUSH1 0x1 DUP2 ADD SWAP1 POP PUSH2 0x4E39 JUMP JUMPDEST POP DUP6 SWAP4 POP POP POP POP SWAP3 SWAP2 POP POP JUMP JUMPDEST PUSH0 DUP2 MLOAD SWAP1 POP SWAP2 SWAP1 POP JUMP JUMPDEST PUSH0 DUP3 DUP3 MSTORE PUSH1 0x20 DUP3 ADD SWAP1 POP SWAP3 SWAP2 POP POP JUMP JUMPDEST PUSH0 DUP2 SWAP1 POP PUSH1 0x20 DUP3 ADD SWAP1 POP SWAP2 SWAP1 POP JUMP JUMPDEST PUSH0 DUP2 MLOAD SWAP1 POP SWAP2 SWAP1 POP JUMP JUMPDEST PUSH0 DUP3 DUP3 MSTORE PUSH1 0x20 DUP3 ADD SWAP1 POP SWAP3 SWAP2 POP POP JUMP JUMPDEST PUSH0 PUSH2 0x4EC0 DUP3 PUSH2 0x4E9C JUMP JUMPDEST PUSH2 0x4ECA DUP2 DUP6 PUSH2 0x4EA6 JUMP JUMPDEST SWAP4 POP PUSH2 0x4EDA DUP2 DUP6 PUSH1 0x20 DUP7 ADD PUSH2 0x3D3D JUMP JUMPDEST PUSH2 0x4EE3 DUP2 PUSH2 0x3AF3 JUMP JUMPDEST DUP5 ADD SWAP2 POP POP SWAP3 SWAP2 POP POP JUMP JUMPDEST PUSH0 PUSH2 0x4EF9 DUP4 DUP4 PUSH2 0x4EB6 JUMP JUMPDEST SWAP1 POP SWAP3 SWAP2 POP POP JUMP JUMPDEST PUSH0 PUSH1 0x20 DUP3 ADD SWAP1 POP SWAP2 SWAP1 POP JUMP JUMPDEST PUSH0 PUSH2 0x4F17 DUP3 PUSH2 0x4E73 JUMP JUMPDEST PUSH2 0x4F21 DUP2 DUP6 PUSH2 0x4E7D JUMP JUMPDEST SWAP4 POP DUP4 PUSH1 0x20 DUP3 MUL DUP6 ADD PUSH2 0x4F33 DUP6 PUSH2 0x4E8D JUMP JUMPDEST DUP1 PUSH0 JUMPDEST DUP6 DUP2 LT ISZERO PUSH2 0x4F6E JUMPI DUP5 DUP5 SUB DUP10 MSTORE DUP2 MLOAD PUSH2 0x4F4F DUP6 DUP3 PUSH2 0x4EEE JUMP JUMPDEST SWAP5 POP PUSH2 0x4F5A DUP4 PUSH2 0x4F01 JUMP JUMPDEST SWAP3 POP PUSH1 0x20 DUP11 ADD SWAP10 POP POP PUSH1 0x1 DUP2 ADD SWAP1 POP PUSH2 0x4F36 JUMP JUMPDEST POP DUP3 SWAP8 POP DUP8 SWAP6 POP POP POP POP POP POP SWAP3 SWAP2 POP POP JUMP JUMPDEST PUSH0 DUP2 SWAP1 POP SWAP2 SWAP1 POP JUMP JUMPDEST PUSH0 DUP2 PUSH0 SHL SWAP1 POP SWAP2 SWAP1 POP JUMP JUMPDEST PUSH0 PUSH2 0x4FAE PUSH2 0x4FA9 PUSH2 0x4FA4 DUP5 PUSH2 0x4F80 JUMP JUMPDEST PUSH2 0x4F89 JUMP JUMPDEST PUSH2 0x3C27 JUMP JUMPDEST SWAP1 POP SWAP2 SWAP1 POP JUMP JUMPDEST PUSH2 0x4FBE DUP2 PUSH2 0x4F94 JUMP JUMPDEST DUP3 MSTORE POP POP JUMP JUMPDEST PUSH0 PUSH1 0xA0 DUP3 ADD SWAP1 POP DUP2 DUP2 SUB PUSH0 DUP4 ADD MSTORE PUSH2 0x4FDC DUP2 DUP9 PUSH2 0x4E17 JUMP JUMPDEST SWAP1 POP DUP2 DUP2 SUB PUSH1 0x20 DUP4 ADD MSTORE PUSH2 0x4FF0 DUP2 DUP8 PUSH2 0x471C JUMP JUMPDEST SWAP1 POP DUP2 DUP2 SUB PUSH1 0x40 DUP4 ADD MSTORE PUSH2 0x5004 DUP2 DUP7 PUSH2 0x4F0D JUMP JUMPDEST SWAP1 POP PUSH2 0x5013 PUSH1 0x60 DUP4 ADD DUP6 PUSH2 0x4FB5 JUMP JUMPDEST PUSH2 0x5020 PUSH1 0x80 DUP4 ADD DUP5 PUSH2 0x4228 JUMP JUMPDEST SWAP7 SWAP6 POP POP POP POP POP POP JUMP JUMPDEST PUSH0 DUP2 MLOAD SWAP1 POP PUSH2 0x5038 DUP2 PUSH2 0x3C30 JUMP JUMPDEST SWAP3 SWAP2 POP POP JUMP JUMPDEST PUSH0 PUSH1 0x20 DUP3 DUP5 SUB SLT ISZERO PUSH2 0x5053 JUMPI PUSH2 0x5052 PUSH2 0x3942 JUMP JUMPDEST JUMPDEST PUSH0 PUSH2 0x5060 DUP5 DUP3 DUP6 ADD PUSH2 0x502A JUMP JUMPDEST SWAP2 POP POP SWAP3 SWAP2 POP POP JUMP JUMPDEST PUSH0 PUSH1 0xC0 DUP3 ADD SWAP1 POP DUP2 DUP2 SUB PUSH0 DUP4 ADD MSTORE PUSH2 0x5081 DUP2 DUP10 PUSH2 0x4E17 JUMP JUMPDEST SWAP1 POP DUP2 DUP2 SUB PUSH1 0x20 DUP4 ADD MSTORE PUSH2 0x5095 DUP2 DUP9 PUSH2 0x471C JUMP JUMPDEST SWAP1 POP DUP2 DUP2 SUB PUSH1 0x40 DUP4 ADD MSTORE PUSH2 0x50A9 DUP2 DUP8 PUSH2 0x4F0D JUMP JUMPDEST SWAP1 POP PUSH2 0x50B8 PUSH1 0x60 DUP4 ADD DUP7 PUSH2 0x4FB5 JUMP JUMPDEST PUSH2 0x50C5 PUSH1 0x80 DUP4 ADD DUP6 PUSH2 0x4228 JUMP JUMPDEST PUSH2 0x50D2 PUSH1 0xA0 DUP4 ADD DUP5 PUSH2 0x3A06 JUMP JUMPDEST SWAP8 SWAP7 POP POP POP POP POP POP POP JUMP JUMPDEST PUSH32 0x4E487B7100000000000000000000000000000000000000000000000000000000 PUSH0 MSTORE PUSH1 0x11 PUSH1 0x4 MSTORE PUSH1 0x24 PUSH0 REVERT JUMPDEST PUSH0 PUSH2 0x5114 DUP3 PUSH2 0x39FD JUMP JUMPDEST SWAP2 POP PUSH2 0x511F DUP4 PUSH2 0x39FD JUMP JUMPDEST SWAP3 POP DUP3 DUP3 ADD SWAP1 POP DUP1 DUP3 GT ISZERO PUSH2 0x5137 JUMPI PUSH2 0x5136 PUSH2 0x50DD JUMP JUMPDEST JUMPDEST SWAP3 SWAP2 POP POP JUMP JUMPDEST PUSH0 PUSH1 0x40 DUP3 ADD SWAP1 POP PUSH2 0x5150 PUSH0 DUP4 ADD DUP6 PUSH2 0x3A06 JUMP JUMPDEST PUSH2 0x515D PUSH1 0x20 DUP4 ADD DUP5 PUSH2 0x3A06 JUMP JUMPDEST SWAP4 SWAP3 POP POP POP JUMP JUMPDEST PUSH0 PUSH1 0x60 DUP3 ADD SWAP1 POP PUSH2 0x5177 PUSH0 DUP4 ADD DUP7 PUSH2 0x4228 JUMP JUMPDEST PUSH2 0x5184 PUSH1 0x20 DUP4 ADD DUP6 PUSH2 0x3A06 JUMP JUMPDEST PUSH2 0x5191 PUSH1 0x40 DUP4 ADD DUP5 PUSH2 0x4C32 JUMP JUMPDEST SWAP5 SWAP4 POP POP POP POP JUMP JUMPDEST PUSH32 0x476F7665726E6F723A20746F6F206C61746520746F2063616E63656C00000000 PUSH0 DUP3 ADD MSTORE POP JUMP JUMPDEST PUSH0 PUSH2 0x51CD PUSH1 0x1C DUP4 PUSH2 0x38C1 JUMP JUMPDEST SWAP2 POP PUSH2 0x51D8 DUP3 PUSH2 0x5199 JUMP JUMPDEST PUSH1 0x20 DUP3 ADD SWAP1 POP SWAP2 SWAP1 POP JUMP JUMPDEST PUSH0 PUSH1 0x20 DUP3 ADD SWAP1 POP DUP2 DUP2 SUB PUSH0 DUP4 ADD MSTORE PUSH2 0x51FA DUP2 PUSH2 0x51C1 JUMP JUMPDEST SWAP1 POP SWAP2 SWAP1 POP JUMP JUMPDEST PUSH32 0x476F7665726E6F723A206F6E6C792070726F706F7365722063616E2063616E63 PUSH0 DUP3 ADD MSTORE PUSH32 0x656C000000000000000000000000000000000000000000000000000000000000 PUSH1 0x20 DUP3 ADD MSTORE POP JUMP JUMPDEST PUSH0 PUSH2 0x525B PUSH1 0x22 DUP4 PUSH2 0x38C1 JUMP JUMPDEST SWAP2 POP PUSH2 0x5266 DUP3 PUSH2 0x5201 JUMP JUMPDEST PUSH1 0x40 DUP3 ADD SWAP1 POP SWAP2 SWAP1 POP JUMP JUMPDEST PUSH0 PUSH1 0x20 DUP3 ADD SWAP1 POP DUP2 DUP2 SUB PUSH0 DUP4 ADD MSTORE PUSH2 0x5288 DUP2 PUSH2 0x524F JUMP JUMPDEST SWAP1 POP SWAP2 SWAP1 POP JUMP JUMPDEST PUSH0 PUSH2 0x52A1 PUSH2 0x529C DUP5 PUSH2 0x4515 JUMP JUMPDEST PUSH2 0x3B61 JUMP JUMPDEST SWAP1 POP DUP3 DUP2 MSTORE PUSH1 0x20 DUP2 ADD DUP5 DUP5 DUP5 ADD GT ISZERO PUSH2 0x52BD JUMPI PUSH2 0x52BC PUSH2 0x3AEF JUMP JUMPDEST JUMPDEST PUSH2 0x52C8 DUP5 DUP3 DUP6 PUSH2 0x3D3D JUMP JUMPDEST POP SWAP4 SWAP3 POP POP POP JUMP JUMPDEST PUSH0 DUP3 PUSH1 0x1F DUP4 ADD SLT PUSH2 0x52E4 JUMPI PUSH2 0x52E3 PUSH2 0x3A8E JUMP JUMPDEST JUMPDEST DUP2 MLOAD PUSH2 0x52F4 DUP5 DUP3 PUSH1 0x20 DUP7 ADD PUSH2 0x528F JUMP JUMPDEST SWAP2 POP POP SWAP3 SWAP2 POP POP JUMP JUMPDEST PUSH0 PUSH1 0x20 DUP3 DUP5 SUB SLT ISZERO PUSH2 0x5312 JUMPI PUSH2 0x5311 PUSH2 0x3942 JUMP JUMPDEST JUMPDEST PUSH0 DUP3 ADD MLOAD PUSH8 0xFFFFFFFFFFFFFFFF DUP2 GT ISZERO PUSH2 0x532F JUMPI PUSH2 0x532E PUSH2 0x3946 JUMP JUMPDEST JUMPDEST PUSH2 0x533B DUP5 DUP3 DUP6 ADD PUSH2 0x52D0 JUMP JUMPDEST SWAP2 POP POP SWAP3 SWAP2 POP POP JUMP JUMPDEST PUSH2 0x534D DUP2 PUSH2 0x47FA JUMP JUMPDEST DUP2 EQ PUSH2 0x5357 JUMPI PUSH0 DUP1 REVERT JUMPDEST POP JUMP JUMPDEST PUSH0 DUP2 MLOAD SWAP1 POP PUSH2 0x5368 DUP2 PUSH2 0x5344 JUMP JUMPDEST SWAP3 SWAP2 POP POP JUMP JUMPDEST PUSH0 PUSH1 0x20 DUP3 DUP5 SUB SLT ISZERO PUSH2 0x5383 JUMPI PUSH2 0x5382 PUSH2 0x3942 JUMP JUMPDEST JUMPDEST PUSH0 PUSH2 0x5390 DUP5 DUP3 DUP6 ADD PUSH2 0x535A JUMP JUMPDEST SWAP2 POP POP SWAP3 SWAP2 POP POP JUMP JUMPDEST PUSH32 0x476F7665726E6F723A206F6E6C79476F7665726E616E63650000000000000000 PUSH0 DUP3 ADD MSTORE POP JUMP JUMPDEST PUSH0 PUSH2 0x53CD PUSH1 0x18 DUP4 PUSH2 0x38C1 JUMP JUMPDEST SWAP2 POP PUSH2 0x53D8 DUP3 PUSH2 0x5399 JUMP JUMPDEST PUSH1 0x20 DUP3 ADD SWAP1 POP SWAP2 SWAP1 POP JUMP JUMPDEST PUSH0 PUSH1 0x20 DUP3 ADD SWAP1 POP DUP2 DUP2 SUB PUSH0 DUP4 ADD MSTORE PUSH2 0x53FA DUP2 PUSH2 0x53C1 JUMP JUMPDEST SWAP1 POP SWAP2 SWAP1 POP JUMP JUMPDEST PUSH0 PUSH1 0x80 DUP3 ADD SWAP1 POP DUP2 DUP2 SUB PUSH0 DUP4 ADD MSTORE PUSH2 0x5419 DUP2 DUP8 PUSH2 0x4E17 JUMP JUMPDEST SWAP1 POP DUP2 DUP2 SUB PUSH1 0x20 DUP4 ADD MSTORE PUSH2 0x542D DUP2 DUP7 PUSH2 0x471C JUMP JUMPDEST SWAP1 POP DUP2 DUP2 SUB PUSH1 0x40 DUP4 ADD MSTORE PUSH2 0x5441 DUP2 DUP6 PUSH2 0x4F0D JUMP JUMPDEST SWAP1 POP PUSH2 0x5450 PUSH1 0x60 DUP4 ADD DUP5 PUSH2 0x4228 JUMP JUMPDEST SWAP6 SWAP5 POP POP POP POP POP JUMP JUMPDEST PUSH32 0x476F7665726E6F723A20766F7465206E6F742063757272656E746C7920616374 PUSH0 DUP3 ADD MSTORE PUSH32 0x6976650000000000000000000000000000000000000000000000000000000000 PUSH1 0x20 DUP3 ADD MSTORE POP JUMP JUMPDEST PUSH0 PUSH2 0x54B3 PUSH1 0x23 DUP4 PUSH2 0x38C1 JUMP JUMPDEST SWAP2 POP PUSH2 0x54BE DUP3 PUSH2 0x5459 JUMP JUMPDEST PUSH1 0x40 DUP3 ADD SWAP1 POP SWAP2 SWAP1 POP JUMP JUMPDEST PUSH0 PUSH1 0x20 DUP3 ADD SWAP1 POP DUP2 DUP2 SUB PUSH0 DUP4 ADD MSTORE PUSH2 0x54E0 DUP2 PUSH2 0x54A7 JUMP JUMPDEST SWAP1 POP SWAP2 SWAP1 POP JUMP JUMPDEST PUSH0 PUSH1 0x80 DUP3 ADD SWAP1 POP PUSH2 0x54FA PUSH0 DUP4 ADD DUP8 PUSH2 0x3A06 JUMP JUMPDEST PUSH2 0x5507 PUSH1 0x20 DUP4 ADD DUP7 PUSH2 0x4C32 JUMP JUMPDEST PUSH2 0x5514 PUSH1 0x40 DUP4 ADD DUP6 PUSH2 0x3A06 JUMP JUMPDEST DUP2 DUP2 SUB PUSH1 0x60 DUP4 ADD MSTORE PUSH2 0x5526 DUP2 DUP5 PUSH2 0x3D65 JUMP JUMPDEST SWAP1 POP SWAP6 SWAP5 POP POP POP POP POP JUMP JUMPDEST PUSH0 DUP3 DUP3 MSTORE PUSH1 0x20 DUP3 ADD SWAP1 POP SWAP3 SWAP2 POP POP JUMP JUMPDEST PUSH0 PUSH2 0x554B DUP3 PUSH2 0x4E9C JUMP JUMPDEST PUSH2 0x5555 DUP2 DUP6 PUSH2 0x5531 JUMP JUMPDEST SWAP4 POP PUSH2 0x5565 DUP2 DUP6 PUSH1 0x20 DUP7 ADD PUSH2 0x3D3D JUMP JUMPDEST PUSH2 0x556E DUP2 PUSH2 0x3AF3 JUMP JUMPDEST DUP5 ADD SWAP2 POP POP SWAP3 SWAP2 POP POP JUMP JUMPDEST PUSH0 PUSH1 0xA0 DUP3 ADD SWAP1 POP PUSH2 0x558C PUSH0 DUP4 ADD DUP9 PUSH2 0x3A06 JUMP JUMPDEST PUSH2 0x5599 PUSH1 0x20 DUP4 ADD DUP8 PUSH2 0x4C32 JUMP JUMPDEST PUSH2 0x55A6 PUSH1 0x40 DUP4 ADD DUP7 PUSH2 0x3A06 JUMP JUMPDEST DUP2 DUP2 SUB PUSH1 0x60 DUP4 ADD MSTORE PUSH2 0x55B8 DUP2 DUP6 PUSH2 0x3D65 JUMP JUMPDEST SWAP1 POP DUP2 DUP2 SUB PUSH1 0x80 DUP4 ADD MSTORE PUSH2 0x55CC DUP2 DUP5 PUSH2 0x5541 JUMP JUMPDEST SWAP1 POP SWAP7 SWAP6 POP POP POP POP POP POP JUMP JUMPDEST PUSH32 0x4E487B7100000000000000000000000000000000000000000000000000000000 PUSH0 MSTORE PUSH1 0x32 PUSH1 0x4 MSTORE PUSH1 0x24 PUSH0 REVERT JUMPDEST PUSH2 0x560E DUP2 PUSH2 0x39CA JUMP JUMPDEST DUP2 EQ PUSH2 0x5618 JUMPI PUSH0 DUP1 REVERT JUMPDEST POP JUMP JUMPDEST PUSH0 DUP2 MLOAD SWAP1 POP PUSH2 0x5629 DUP2 PUSH2 0x5605 JUMP JUMPDEST SWAP3 SWAP2 POP POP JUMP JUMPDEST PUSH0 PUSH1 0x20 DUP3 DUP5 SUB SLT ISZERO PUSH2 0x5644 JUMPI PUSH2 0x5643 PUSH2 0x3942 JUMP JUMPDEST JUMPDEST PUSH0 PUSH2 0x5651 DUP5 DUP3 DUP6 ADD PUSH2 0x561B JUMP JUMPDEST SWAP2 POP POP SWAP3 SWAP2 POP POP JUMP JUMPDEST PUSH0 PUSH2 0x5664 DUP3 PUSH2 0x39FD JUMP JUMPDEST SWAP2 POP PUSH2 0x566F DUP4 PUSH2 0x39FD JUMP JUMPDEST SWAP3 POP DUP3 DUP3 SUB SWAP1 POP DUP2 DUP2 GT ISZERO PUSH2 0x5687 JUMPI PUSH2 0x5686 PUSH2 0x50DD JUMP JUMPDEST JUMPDEST SWAP3 SWAP2 POP POP JUMP JUMPDEST PUSH32 0x476F7665726E6F723A2070726F706F73657220766F7465732062656C6F772070 PUSH0 DUP3 ADD MSTORE PUSH32 0x726F706F73616C207468726573686F6C64000000000000000000000000000000 PUSH1 0x20 DUP3 ADD MSTORE POP JUMP JUMPDEST PUSH0 PUSH2 0x56E7 PUSH1 0x31 DUP4 PUSH2 0x38C1 JUMP JUMPDEST SWAP2 POP PUSH2 0x56F2 DUP3 PUSH2 0x568D JUMP JUMPDEST PUSH1 0x40 DUP3 ADD SWAP1 POP SWAP2 SWAP1 POP JUMP JUMPDEST PUSH0 PUSH1 0x20 DUP3 ADD SWAP1 POP DUP2 DUP2 SUB PUSH0 DUP4 ADD MSTORE PUSH2 0x5714 DUP2 PUSH2 0x56DB JUMP JUMPDEST SWAP1 POP SWAP2 SWAP1 POP JUMP JUMPDEST PUSH32 0x476F7665726E6F723A20696E76616C69642070726F706F73616C206C656E6774 PUSH0 DUP3 ADD MSTORE PUSH32 0x6800000000000000000000000000000000000000000000000000000000000000 PUSH1 0x20 DUP3 ADD MSTORE POP JUMP JUMPDEST PUSH0 PUSH2 0x5775 PUSH1 0x21 DUP4 PUSH2 0x38C1 JUMP JUMPDEST SWAP2 POP PUSH2 0x5780 DUP3 PUSH2 0x571B JUMP JUMPDEST PUSH1 0x40 DUP3 ADD SWAP1 POP SWAP2 SWAP1 POP JUMP JUMPDEST PUSH0 PUSH1 0x20 DUP3 ADD SWAP1 POP DUP2 DUP2 SUB PUSH0 DUP4 ADD MSTORE PUSH2 0x57A2 DUP2 PUSH2 0x5769 JUMP JUMPDEST SWAP1 POP SWAP2 SWAP1 POP JUMP JUMPDEST PUSH32 0x476F7665726E6F723A20656D7074792070726F706F73616C0000000000000000 PUSH0 DUP3 ADD MSTORE POP JUMP JUMPDEST PUSH0 PUSH2 0x57DD PUSH1 0x18 DUP4 PUSH2 0x38C1 JUMP JUMPDEST SWAP2 POP PUSH2 0x57E8 DUP3 PUSH2 0x57A9 JUMP JUMPDEST PUSH1 0x20 DUP3 ADD SWAP1 POP SWAP2 SWAP1 POP JUMP JUMPDEST PUSH0 PUSH1 0x20 DUP3 ADD SWAP1 POP DUP2 DUP2 SUB PUSH0 DUP4 ADD MSTORE PUSH2 0x580A DUP2 PUSH2 0x57D1 JUMP JUMPDEST SWAP1 POP SWAP2 SWAP1 POP JUMP JUMPDEST PUSH32 0x476F7665726E6F723A2070726F706F73616C20616C7265616479206578697374 PUSH0 DUP3 ADD MSTORE PUSH32 0x7300000000000000000000000000000000000000000000000000000000000000 PUSH1 0x20 DUP3 ADD MSTORE POP JUMP JUMPDEST PUSH0 PUSH2 0x586B PUSH1 0x21 DUP4 PUSH2 0x38C1 JUMP JUMPDEST SWAP2 POP PUSH2 0x5876 DUP3 PUSH2 0x5811 JUMP JUMPDEST PUSH1 0x40 DUP3 ADD SWAP1 POP SWAP2 SWAP1 POP JUMP JUMPDEST PUSH0 PUSH1 0x20 DUP3 ADD SWAP1 POP DUP2 DUP2 SUB PUSH0 DUP4 ADD MSTORE PUSH2 0x5898 DUP2 PUSH2 0x585F JUMP JUMPDEST SWAP1 POP SWAP2 SWAP1 POP JUMP JUMPDEST PUSH0 DUP2 MLOAD SWAP1 POP SWAP2 SWAP1 POP JUMP JUMPDEST PUSH0 DUP3 DUP3 MSTORE PUSH1 0x20 DUP3 ADD SWAP1 POP SWAP3 SWAP2 POP POP JUMP JUMPDEST PUSH0 DUP2 SWAP1 POP PUSH1 0x20 DUP3 ADD SWAP1 POP SWAP2 SWAP1 POP JUMP JUMPDEST PUSH0 DUP3 DUP3 MSTORE PUSH1 0x20 DUP3 ADD SWAP1 POP SWAP3 SWAP2 POP POP JUMP JUMPDEST PUSH0 PUSH2 0x58E2 DUP3 PUSH2 0x3D33 JUMP JUMPDEST PUSH2 0x58EC DUP2 DUP6 PUSH2 0x58C8 JUMP JUMPDEST SWAP4 POP PUSH2 0x58FC DUP2 DUP6 PUSH1 0x20 DUP7 ADD PUSH2 0x3D3D JUMP JUMPDEST PUSH2 0x5905 DUP2 PUSH2 0x3AF3 JUMP JUMPDEST DUP5 ADD SWAP2 POP POP SWAP3 SWAP2 POP POP JUMP JUMPDEST PUSH0 PUSH2 0x591B DUP4 DUP4 PUSH2 0x58D8 JUMP JUMPDEST SWAP1 POP SWAP3 SWAP2 POP POP JUMP JUMPDEST PUSH0 PUSH1 0x20 DUP3 ADD SWAP1 POP SWAP2 SWAP1 POP JUMP JUMPDEST PUSH0 PUSH2 0x5939 DUP3 PUSH2 0x589F JUMP JUMPDEST PUSH2 0x5943 DUP2 DUP6 PUSH2 0x58A9 JUMP JUMPDEST SWAP4 POP DUP4 PUSH1 0x20 DUP3 MUL DUP6 ADD PUSH2 0x5955 DUP6 PUSH2 0x58B9 JUMP JUMPDEST DUP1 PUSH0 JUMPDEST DUP6 DUP2 LT ISZERO PUSH2 0x5990 JUMPI DUP5 DUP5 SUB DUP10 MSTORE DUP2 MLOAD PUSH2 0x5971 DUP6 DUP3 PUSH2 0x5910 JUMP JUMPDEST SWAP5 POP PUSH2 0x597C DUP4 PUSH2 0x5923 JUMP JUMPDEST SWAP3 POP PUSH1 0x20 DUP11 ADD SWAP10 POP POP PUSH1 0x1 DUP2 ADD SWAP1 POP PUSH2 0x5958 JUMP JUMPDEST POP DUP3 SWAP8 POP DUP8 SWAP6 POP POP POP POP POP POP SWAP3 SWAP2 POP POP JUMP JUMPDEST PUSH0 PUSH2 0x120 DUP3 ADD SWAP1 POP PUSH2 0x59B6 PUSH0 DUP4 ADD DUP13 PUSH2 0x3A06 JUMP JUMPDEST PUSH2 0x59C3 PUSH1 0x20 DUP4 ADD DUP12 PUSH2 0x3E18 JUMP JUMPDEST DUP2 DUP2 SUB PUSH1 0x40 DUP4 ADD MSTORE PUSH2 0x59D5 DUP2 DUP11 PUSH2 0x4E17 JUMP JUMPDEST SWAP1 POP DUP2 DUP2 SUB PUSH1 0x60 DUP4 ADD MSTORE PUSH2 0x59E9 DUP2 DUP10 PUSH2 0x471C JUMP JUMPDEST SWAP1 POP DUP2 DUP2 SUB PUSH1 0x80 DUP4 ADD MSTORE PUSH2 0x59FD DUP2 DUP9 PUSH2 0x592F JUMP JUMPDEST SWAP1 POP DUP2 DUP2 SUB PUSH1 0xA0 DUP4 ADD MSTORE PUSH2 0x5A11 DUP2 DUP8 PUSH2 0x4F0D JUMP JUMPDEST SWAP1 POP PUSH2 0x5A20 PUSH1 0xC0 DUP4 ADD DUP7 PUSH2 0x3A06 JUMP JUMPDEST PUSH2 0x5A2D PUSH1 0xE0 DUP4 ADD DUP6 PUSH2 0x3A06 JUMP JUMPDEST DUP2 DUP2 SUB PUSH2 0x100 DUP4 ADD MSTORE PUSH2 0x5A40 DUP2 DUP5 PUSH2 0x3D65 JUMP JUMPDEST SWAP1 POP SWAP11 SWAP10 POP POP POP POP POP POP POP POP POP POP JUMP JUMPDEST PUSH32 0x53616665436173743A2076616C756520646F65736E27742066697420696E2034 PUSH0 DUP3 ADD MSTORE PUSH32 0x3820626974730000000000000000000000000000000000000000000000000000 PUSH1 0x20 DUP3 ADD MSTORE POP JUMP JUMPDEST PUSH0 PUSH2 0x5AAA PUSH1 0x26 DUP4 PUSH2 0x38C1 JUMP JUMPDEST SWAP2 POP PUSH2 0x5AB5 DUP3 PUSH2 0x5A50 JUMP JUMPDEST PUSH1 0x40 DUP3 ADD SWAP1 POP SWAP2 SWAP1 POP JUMP JUMPDEST PUSH0 PUSH1 0x20 DUP3 ADD SWAP1 POP DUP2 DUP2 SUB PUSH0 DUP4 ADD MSTORE PUSH2 0x5AD7 DUP2 PUSH2 0x5A9E JUMP JUMPDEST SWAP1 POP SWAP2 SWAP1 POP JUMP JUMPDEST PUSH0 PUSH1 0x40 DUP3 ADD SWAP1 POP PUSH2 0x5AF1 PUSH0 DUP4 ADD DUP6 PUSH2 0x3E18 JUMP JUMPDEST PUSH2 0x5AFE PUSH1 0x20 DUP4 ADD DUP5 PUSH2 0x3A06 JUMP JUMPDEST SWAP4 SWAP3 POP POP POP JUMP JUMPDEST PUSH0 PUSH1 0x40 DUP3 ADD SWAP1 POP PUSH2 0x5B18 PUSH0 DUP4 ADD DUP6 PUSH2 0x3E18 JUMP JUMPDEST PUSH2 0x5B25 PUSH1 0x20 DUP4 ADD DUP5 PUSH2 0x3E18 JUMP JUMPDEST SWAP4 SWAP3 POP POP POP JUMP JUMPDEST PUSH0 PUSH1 0x80 DUP3 ADD SWAP1 POP PUSH2 0x5B3F PUSH0 DUP4 ADD DUP8 PUSH2 0x4228 JUMP JUMPDEST PUSH2 0x5B4C PUSH1 0x20 DUP4 ADD DUP7 PUSH2 0x4C32 JUMP JUMPDEST PUSH2 0x5B59 PUSH1 0x40 DUP4 ADD DUP6 PUSH2 0x4228 JUMP JUMPDEST PUSH2 0x5B66 PUSH1 0x60 DUP4 ADD DUP5 PUSH2 0x4228 JUMP JUMPDEST SWAP6 SWAP5 POP POP POP POP POP JUMP JUMPDEST PUSH32 0x45434453413A20696E76616C6964207369676E61747572650000000000000000 PUSH0 DUP3 ADD MSTORE POP JUMP JUMPDEST PUSH0 PUSH2 0x5BA3 PUSH1 0x18 DUP4 PUSH2 0x38C1 JUMP JUMPDEST SWAP2 POP PUSH2 0x5BAE DUP3 PUSH2 0x5B6F JUMP JUMPDEST PUSH1 0x20 DUP3 ADD SWAP1 POP SWAP2 SWAP1 POP JUMP JUMPDEST PUSH0 PUSH1 0x20 DUP3 ADD SWAP1 POP DUP2 DUP2 SUB PUSH0 DUP4 ADD MSTORE PUSH2 0x5BD0 DUP2 PUSH2 0x5B97 JUMP JUMPDEST SWAP1 POP SWAP2 SWAP1 POP JUMP JUMPDEST PUSH32 0x45434453413A20696E76616C6964207369676E6174757265206C656E67746800 PUSH0 DUP3 ADD MSTORE POP JUMP JUMPDEST PUSH0 PUSH2 0x5C0B PUSH1 0x1F DUP4 PUSH2 0x38C1 JUMP JUMPDEST SWAP2 POP PUSH2 0x5C16 DUP3 PUSH2 0x5BD7 JUMP JUMPDEST PUSH1 0x20 DUP3 ADD SWAP1 POP SWAP2 SWAP1 POP JUMP JUMPDEST PUSH0 PUSH1 0x20 DUP3 ADD SWAP1 POP DUP2 DUP2 SUB PUSH0 DUP4 ADD MSTORE PUSH2 0x5C38 DUP2 PUSH2 0x5BFF JUMP JUMPDEST SWAP1 POP SWAP2 SWAP1 POP JUMP JUMPDEST PUSH32 0x45434453413A20696E76616C6964207369676E6174757265202773272076616C PUSH0 DUP3 ADD MSTORE PUSH32 0x7565000000000000000000000000000000000000000000000000000000000000 PUSH1 0x20 DUP3 ADD MSTORE POP JUMP JUMPDEST PUSH0 PUSH2 0x5C99 PUSH1 0x22 DUP4 PUSH2 0x38C1 JUMP JUMPDEST SWAP2 POP PUSH2 0x5CA4 DUP3 PUSH2 0x5C3F JUMP JUMPDEST PUSH1 0x40 DUP3 ADD SWAP1 POP SWAP2 SWAP1 POP JUMP JUMPDEST PUSH0 PUSH1 0x20 DUP3 ADD SWAP1 POP DUP2 DUP2 SUB PUSH0 DUP4 ADD MSTORE PUSH2 0x5CC6 DUP2 PUSH2 0x5C8D JUMP JUMPDEST SWAP1 POP SWAP2 SWAP1 POP JUMP JUMPDEST PUSH32 0x476F7665726E6F72566F74696E6753696D706C653A20766F746520616C726561 PUSH0 DUP3 ADD MSTORE PUSH32 0x6479206361737400000000000000000000000000000000000000000000000000 PUSH1 0x20 DUP3 ADD MSTORE POP JUMP JUMPDEST PUSH0 PUSH2 0x5D27 PUSH1 0x27 DUP4 PUSH2 0x38C1 JUMP JUMPDEST SWAP2 POP PUSH2 0x5D32 DUP3 PUSH2 0x5CCD JUMP JUMPDEST PUSH1 0x40 DUP3 ADD SWAP1 POP SWAP2 SWAP1 POP JUMP JUMPDEST PUSH0 PUSH1 0x20 DUP3 ADD SWAP1 POP DUP2 DUP2 SUB PUSH0 DUP4 ADD MSTORE PUSH2 0x5D54 DUP2 PUSH2 0x5D1B JUMP JUMPDEST SWAP1 POP SWAP2 SWAP1 POP JUMP JUMPDEST PUSH32 0x476F7665726E6F72566F74696E6753696D706C653A20696E76616C6964207661 PUSH0 DUP3 ADD MSTORE PUSH32 0x6C756520666F7220656E756D20566F7465547970650000000000000000000000 PUSH1 0x20 DUP3 ADD MSTORE POP JUMP JUMPDEST PUSH0 PUSH2 0x5DB5 PUSH1 0x35 DUP4 PUSH2 0x38C1 JUMP JUMPDEST SWAP2 POP PUSH2 0x5DC0 DUP3 PUSH2 0x5D5B JUMP JUMPDEST PUSH1 0x40 DUP3 ADD SWAP1 POP SWAP2 SWAP1 POP JUMP JUMPDEST PUSH0 PUSH1 0x20 DUP3 ADD SWAP1 POP DUP2 DUP2 SUB PUSH0 DUP4 ADD MSTORE PUSH2 0x5DE2 DUP2 PUSH2 0x5DA9 JUMP JUMPDEST SWAP1 POP SWAP2 SWAP1 POP JUMP JUMPDEST PUSH32 0x476F7665726E6F723A20756E6B6E6F776E2070726F706F73616C206964000000 PUSH0 DUP3 ADD MSTORE POP JUMP JUMPDEST PUSH0 PUSH2 0x5E1D PUSH1 0x1D DUP4 PUSH2 0x38C1 JUMP JUMPDEST SWAP2 POP PUSH2 0x5E28 DUP3 PUSH2 0x5DE9 JUMP JUMPDEST PUSH1 0x20 DUP3 ADD SWAP1 POP SWAP2 SWAP1 POP JUMP JUMPDEST PUSH0 PUSH1 0x20 DUP3 ADD SWAP1 POP DUP2 DUP2 SUB PUSH0 DUP4 ADD MSTORE PUSH2 0x5E4A DUP2 PUSH2 0x5E11 JUMP JUMPDEST SWAP1 POP SWAP2 SWAP1 POP JUMP JUMPDEST PUSH32 0x53616665436173743A2076616C756520646F65736E27742066697420696E2036 PUSH0 DUP3 ADD MSTORE PUSH32 0x3420626974730000000000000000000000000000000000000000000000000000 PUSH1 0x20 DUP3 ADD MSTORE POP JUMP JUMPDEST PUSH0 PUSH2 0x5EAB PUSH1 0x26 DUP4 PUSH2 0x38C1 JUMP JUMPDEST SWAP2 POP PUSH2 0x5EB6 DUP3 PUSH2 0x5E51 JUMP JUMPDEST PUSH1 0x40 DUP3 ADD SWAP1 POP SWAP2 SWAP1 POP JUMP JUMPDEST PUSH0 PUSH1 0x20 DUP3 ADD SWAP1 POP DUP2 DUP2 SUB PUSH0 DUP4 ADD MSTORE PUSH2 0x5ED8 DUP2 PUSH2 0x5E9F JUMP JUMPDEST SWAP1 POP SWAP2 SWAP1 POP JUMP JUMPDEST PUSH0 PUSH1 0xA0 DUP3 ADD SWAP1 POP PUSH2 0x5EF2 PUSH0 DUP4 ADD DUP9 PUSH2 0x4228 JUMP JUMPDEST PUSH2 0x5EFF PUSH1 0x20 DUP4 ADD DUP8 PUSH2 0x4228 JUMP JUMPDEST PUSH2 0x5F0C PUSH1 0x40 DUP4 ADD DUP7 PUSH2 0x4228 JUMP JUMPDEST PUSH2 0x5F19 PUSH1 0x60 DUP4 ADD DUP6 PUSH2 0x3A06 JUMP JUMPDEST PUSH2 0x5F26 PUSH1 0x80 DUP4 ADD DUP5 PUSH2 0x3E18 JUMP JUMPDEST SWAP7 SWAP6 POP POP POP POP POP POP JUMP JUMPDEST PUSH32 0x476F7665726E6F723A2070726F706F73616C206E6F7420616374697665000000 PUSH0 DUP3 ADD MSTORE POP JUMP JUMPDEST PUSH0 PUSH2 0x5F64 PUSH1 0x1D DUP4 PUSH2 0x38C1 JUMP JUMPDEST SWAP2 POP PUSH2 0x5F6F DUP3 PUSH2 0x5F30 JUMP JUMPDEST PUSH1 0x20 DUP3 ADD SWAP1 POP SWAP2 SWAP1 POP JUMP JUMPDEST PUSH0 PUSH1 0x20 DUP3 ADD SWAP1 POP DUP2 DUP2 SUB PUSH0 DUP4 ADD MSTORE PUSH2 0x5F91 DUP2 PUSH2 0x5F58 JUMP JUMPDEST SWAP1 POP SWAP2 SWAP1 POP JUMP INVALID SELFBALANCE PUSH16 0x7665726E6F723A2072656C6179207265 PUSH23 0x657274656420776974686F7574206D657373616765A264 PUSH10 0x70667358221220BC017E SWAP7 PUSH8 0x14443041A288F812 GASPRICE 0xEB SHL 0xAE CALLDATALOAD PUSH16 0xA8A76403E745E207C76AA7EDB464736F PUSH13 0x634300081A0033000000000000 "
		},
		"gasEstimates": {
			"creation": {
				"codeDepositCost": "4913200",
				"executionCost": "infinite",
				"totalCost": "infinite"
			},
			"external": {
				"BALLOT_TYPEHASH()": "369",
				"CLOCK_MODE()": "infinite",
				"COUNTING_MODE()": "infinite",
				"EXTENDED_BALLOT_TYPEHASH()": "371",
				"cancel(address[],uint256[],bytes[],bytes32)": "infinite",
				"castVote(uint256,uint8)": "infinite",
				"castVoteBySig(uint256,uint8,uint8,bytes32,bytes32)": "infinite",
				"castVoteWithReason(uint256,uint8,string)": "infinite",
				"castVoteWithReasonAndParams(uint256,uint8,string,bytes)": "infinite",
				"castVoteWithReasonAndParamsBySig(uint256,uint8,string,bytes,uint8,bytes32,bytes32)": "infinite",
				"clock()": "infinite",
				"eip712Domain()": "infinite",
				"execute(address[],uint256[],bytes[],bytes32)": "infinite",
				"getVotes(address,uint256)": "infinite",
				"getVotesWithParams(address,uint256,bytes)": "infinite",
				"hasVoted(uint256,address)": "3257",
				"hashProposal(address[],uint256[],bytes[],bytes32)": "infinite",
				"name()": "infinite",
				"onERC1155BatchReceived(address,address,uint256[],uint256[],bytes)": "infinite",
				"onERC1155Received(address,address,uint256,uint256,bytes)": "infinite",
				"onERC721Received(address,address,uint256,bytes)": "infinite",
				"proposalDeadline(uint256)": "infinite",
				"proposalEta(uint256)": "infinite",
				"proposalProposer(uint256)": "2954",
				"proposalSnapshot(uint256)": "infinite",
				"proposalThreshold()": "435",
				"proposalVotes(uint256)": "infinite",
				"propose(address[],uint256[],bytes[],string)": "infinite",
				"queue(address[],uint256[],bytes[],bytes32)": "infinite",
				"quorum(uint256)": "infinite",
				"relay(address,uint256,bytes)": "infinite",
				"state(uint256)": "infinite",
				"supportsInterface(bytes4)": "1159",
				"timelock()": "2626",
				"token()": "infinite",
				"updateTimelock(address)": "infinite",
				"version()": "infinite",
				"votingDelay()": "400",
				"votingPeriod()": "401"
			},
			"internal": {
				"_cancel(address[] memory,uint256[] memory,bytes memory[] memory,bytes32)": "infinite",
				"_execute(uint256,address[] memory,uint256[] memory,bytes memory[] memory,bytes32)": "infinite",
				"_executor()": "2191"
			}
		},
		"methodIdentifiers": {
			"BALLOT_TYPEHASH()": "deaaa7cc",
			"CLOCK_MODE()": "4bf5d7e9",
			"COUNTING_MODE()": "dd4e2ba5",
			"EXTENDED_BALLOT_TYPEHASH()": "2fe3e261",
			"cancel(address[],uint256[],bytes[],bytes32)": "452115d6",
			"castVote(uint256,uint8)": "56781388",
			"castVoteBySig(uint256,uint8,uint8,bytes32,bytes32)": "3bccf4fd",
			"castVoteWithReason(uint256,uint8,string)": "7b3c71d3",
			"castVoteWithReasonAndParams(uint256,uint8,string,bytes)": "5f398a14",
			"castVoteWithReasonAndParamsBySig(uint256,uint8,string,bytes,uint8,bytes32,bytes32)": "03420181",
			"clock()": "91ddadf4",
			"eip712Domain()": "84b0196e",
			"execute(address[],uint256[],bytes[],bytes32)": "2656227d",
			"getVotes(address,uint256)": "eb9019d4",
			"getVotesWithParams(address,uint256,bytes)": "9a802a6d",
			"hasVoted(uint256,address)": "43859632",
			"hashProposal(address[],uint256[],bytes[],bytes32)": "c59057e4",
			"name()": "06fdde03",
			"onERC1155BatchReceived(address,address,uint256[],uint256[],bytes)": "bc197c81",
			"onERC1155Received(address,address,uint256,uint256,bytes)": "f23a6e61",
			"onERC721Received(address,address,uint256,bytes)": "150b7a02",
			"proposalDeadline(uint256)": "c01f9e37",
			"proposalEta(uint256)": "ab58fb8e",
			"proposalProposer(uint256)": "143489d0",
			"proposalSnapshot(uint256)": "2d63f693",
			"proposalThreshold()": "b58131b0",
			"proposalVotes(uint256)": "544ffc9c",
			"propose(address[],uint256[],bytes[],string)": "7d5e81e2",
			"queue(address[],uint256[],bytes[],bytes32)": "160cbed7",
			"quorum(uint256)": "f8ce560a",
			"relay(address,uint256,bytes)": "c28bc2fa",
			"state(uint256)": "3e4f49e6",
			"supportsInterface(bytes4)": "01ffc9a7",
			"timelock()": "d33219b4",
			"token()": "fc0c546a",
			"updateTimelock(address)": "a890c910",
			"version()": "54fd4d50",
			"votingDelay()": "3932abb1",
			"votingPeriod()": "02a251a3"
		}
	},
	"abi": [
		{
			"inputs": [
				{
					"internalType": "contract ERC20Votes",
					"name": "_token",
					"type": "address"
				},
				{
					"internalType": "contract TimelockController",
					"name": "_timelock",
					"type": "address"
				}
			],
			"stateMutability": "nonpayable",
			"type": "constructor"
		},
		{
			"inputs": [],
			"name": "Empty",
			"type": "error"
		},
		{
			"inputs": [],
			"name": "InvalidShortString",
			"type": "error"
		},
		{
			"inputs": [
				{
					"internalType": "string",
					"name": "str",
					"type": "string"
				}
			],
			"name": "StringTooLong",
			"type": "error"
		},
		{
			"anonymous": false,
			"inputs": [],
			"name": "EIP712DomainChanged",
			"type": "event"
		},
		{
			"anonymous": false,
			"inputs": [
				{
					"indexed": false,
					"internalType": "uint256",
					"name": "proposalId",
					"type": "uint256"
				}
			],
			"name": "ProposalCanceled",
			"type": "event"
		},
		{
			"anonymous": false,
			"inputs": [
				{
					"indexed": false,
					"internalType": "uint256",
					"name": "proposalId",
					"type": "uint256"
				},
				{
					"indexed": false,
					"internalType": "address",
					"name": "proposer",
					"type": "address"
				},
				{
					"indexed": false,
					"internalType": "address[]",
					"name": "targets",
					"type": "address[]"
				},
				{
					"indexed": false,
					"internalType": "uint256[]",
					"name": "values",
					"type": "uint256[]"
				},
				{
					"indexed": false,
					"internalType": "string[]",
					"name": "signatures",
					"type": "string[]"
				},
				{
					"indexed": false,
					"internalType": "bytes[]",
					"name": "calldatas",
					"type": "bytes[]"
				},
				{
					"indexed": false,
					"internalType": "uint256",
					"name": "voteStart",
					"type": "uint256"
				},
				{
					"indexed": false,
					"internalType": "uint256",
					"name": "voteEnd",
					"type": "uint256"
				},
				{
					"indexed": false,
					"internalType": "string",
					"name": "description",
					"type": "string"
				}
			],
			"name": "ProposalCreated",
			"type": "event"
		},
		{
			"anonymous": false,
			"inputs": [
				{
					"indexed": false,
					"internalType": "uint256",
					"name": "proposalId",
					"type": "uint256"
				}
			],
			"name": "ProposalExecuted",
			"type": "event"
		},
		{
			"anonymous": false,
			"inputs": [
				{
					"indexed": false,
					"internalType": "uint256",
					"name": "proposalId",
					"type": "uint256"
				},
				{
					"indexed": false,
					"internalType": "uint256",
					"name": "eta",
					"type": "uint256"
				}
			],
			"name": "ProposalQueued",
			"type": "event"
		},
		{
			"anonymous": false,
			"inputs": [
				{
					"indexed": false,
					"internalType": "address",
					"name": "oldTimelock",
					"type": "address"
				},
				{
					"indexed": false,
					"internalType": "address",
					"name": "newTimelock",
					"type": "address"
				}
			],
			"name": "TimelockChange",
			"type": "event"
		},
		{
			"anonymous": false,
			"inputs": [
				{
					"indexed": true,
					"internalType": "address",
					"name": "voter",
					"type": "address"
				},
				{
					"indexed": false,
					"internalType": "uint256",
					"name": "proposalId",
					"type": "uint256"
				},
				{
					"indexed": false,
					"internalType": "uint8",
					"name": "support",
					"type": "uint8"
				},
				{
					"indexed": false,
					"internalType": "uint256",
					"name": "weight",
					"type": "uint256"
				},
				{
					"indexed": false,
					"internalType": "string",
					"name": "reason",
					"type": "string"
				}
			],
			"name": "VoteCast",
			"type": "event"
		},
		{
			"anonymous": false,
			"inputs": [
				{
					"indexed": true,
					"internalType": "address",
					"name": "voter",
					"type": "address"
				},
				{
					"indexed": false,
					"internalType": "uint256",
					"name": "proposalId",
					"type": "uint256"
				},
				{
					"indexed": false,
					"internalType": "uint8",
					"name": "support",
					"type": "uint8"
				},
				{
					"indexed": false,
					"internalType": "uint256",
					"name": "weight",
					"type": "uint256"
				},
				{
					"indexed": false,
					"internalType": "string",
					"name": "reason",
					"type": "string"
				},
				{
					"indexed": false,
					"internalType": "bytes",
					"name": "params",
					"type": "bytes"
				}
			],
			"name": "VoteCastWithParams",
			"type": "event"
		},
		{
			"inputs": [],
			"name": "BALLOT_TYPEHASH",
			"outputs": [
				{
					"internalType": "bytes32",
					"name": "",
					"type": "bytes32"
				}
			],
			"stateMutability": "view",
			"type": "function"
		},
		{
			"inputs": [],
			"name": "CLOCK_MODE",
			"outputs": [
				{
					"internalType": "string",
					"name": "",
					"type": "string"
				}
			],
			"stateMutability": "view",
			"type": "function"
		},
		{
			"inputs": [],
			"name": "COUNTING_MODE",
			"outputs": [
				{
					"internalType": "string",
					"name": "",
					"type": "string"
				}
			],
			"stateMutability": "pure",
			"type": "function"
		},
		{
			"inputs": [],
			"name": "EXTENDED_BALLOT_TYPEHASH",
			"outputs": [
				{
					"internalType": "bytes32",
					"name": "",
					"type": "bytes32"
				}
			],
			"stateMutability": "view",
			"type": "function"
		},
		{
			"inputs": [
				{
					"internalType": "address[]",
					"name": "targets",
					"type": "address[]"
				},
				{
					"internalType": "uint256[]",
					"name": "values",
					"type": "uint256[]"
				},
				{
					"internalType": "bytes[]",
					"name": "calldatas",
					"type": "bytes[]"
				},
				{
					"internalType": "bytes32",
					"name": "descriptionHash",
					"type": "bytes32"
				}
			],
			"name": "cancel",
			"outputs": [
				{
					"internalType": "uint256",
					"name": "",
					"type": "uint256"
				}
			],
			"stateMutability": "nonpayable",
			"type": "function"
		},
		{
			"inputs": [
				{
					"internalType": "uint256",
					"name": "proposalId",
					"type": "uint256"
				},
				{
					"internalType": "uint8",
					"name": "support",
					"type": "uint8"
				}
			],
			"name": "castVote",
			"outputs": [
				{
					"internalType": "uint256",
					"name": "",
					"type": "uint256"
				}
			],
			"stateMutability": "nonpayable",
			"type": "function"
		},
		{
			"inputs": [
				{
					"internalType": "uint256",
					"name": "proposalId",
					"type": "uint256"
				},
				{
					"internalType": "uint8",
					"name": "support",
					"type": "uint8"
				},
				{
					"internalType": "uint8",
					"name": "v",
					"type": "uint8"
				},
				{
					"internalType": "bytes32",
					"name": "r",
					"type": "bytes32"
				},
				{
					"internalType": "bytes32",
					"name": "s",
					"type": "bytes32"
				}
			],
			"name": "castVoteBySig",
			"outputs": [
				{
					"internalType": "uint256",
					"name": "",
					"type": "uint256"
				}
			],
			"stateMutability": "nonpayable",
			"type": "function"
		},
		{
			"inputs": [
				{
					"internalType": "uint256",
					"name": "proposalId",
					"type": "uint256"
				},
				{
					"internalType": "uint8",
					"name": "support",
					"type": "uint8"
				},
				{
					"internalType": "string",
					"name": "reason",
					"type": "string"
				}
			],
			"name": "castVoteWithReason",
			"outputs": [
				{
					"internalType": "uint256",
					"name": "",
					"type": "uint256"
				}
			],
			"stateMutability": "nonpayable",
			"type": "function"
		},
		{
			"inputs": [
				{
					"internalType": "uint256",
					"name": "proposalId",
					"type": "uint256"
				},
				{
					"internalType": "uint8",
					"name": "support",
					"type": "uint8"
				},
				{
					"internalType": "string",
					"name": "reason",
					"type": "string"
				},
				{
					"internalType": "bytes",
					"name": "params",
					"type": "bytes"
				}
			],
			"name": "castVoteWithReasonAndParams",
			"outputs": [
				{
					"internalType": "uint256",
					"name": "",
					"type": "uint256"
				}
			],
			"stateMutability": "nonpayable",
			"type": "function"
		},
		{
			"inputs": [
				{
					"internalType": "uint256",
					"name": "proposalId",
					"type": "uint256"
				},
				{
					"internalType": "uint8",
					"name": "support",
					"type": "uint8"
				},
				{
					"internalType": "string",
					"name": "reason",
					"type": "string"
				},
				{
					"internalType": "bytes",
					"name": "params",
					"type": "bytes"
				},
				{
					"internalType": "uint8",
					"name": "v",
					"type": "uint8"
				},
				{
					"internalType": "bytes32",
					"name": "r",
					"type": "bytes32"
				},
				{
					"internalType": "bytes32",
					"name": "s",
					"type": "bytes32"
				}
			],
			"name": "castVoteWithReasonAndParamsBySig",
			"outputs": [
				{
					"internalType": "uint256",
					"name": "",
					"type": "uint256"
				}
			],
			"stateMutability": "nonpayable",
			"type": "function"
		},
		{
			"inputs": [],
			"name": "clock",
			"outputs": [
				{
					"internalType": "uint48",
					"name": "",
					"type": "uint48"
				}
			],
			"stateMutability": "view",
			"type": "function"
		},
		{
			"inputs": [],
			"name": "eip712Domain",
			"outputs": [
				{
					"internalType": "bytes1",
					"name": "fields",
					"type": "bytes1"
				},
				{
					"internalType": "string",
					"name": "name",
					"type": "string"
				},
				{
					"internalType": "string",
					"name": "version",
					"type": "string"
				},
				{
					"internalType": "uint256",
					"name": "chainId",
					"type": "uint256"
				},
				{
					"internalType": "address",
					"name": "verifyingContract",
					"type": "address"
				},
				{
					"internalType": "bytes32",
					"name": "salt",
					"type": "bytes32"
				},
				{
					"internalType": "uint256[]",
					"name": "extensions",
					"type": "uint256[]"
				}
			],
			"stateMutability": "view",
			"type": "function"
		},
		{
			"inputs": [
				{
					"internalType": "address[]",
					"name": "targets",
					"type": "address[]"
				},
				{
					"internalType": "uint256[]",
					"name": "values",
					"type": "uint256[]"
				},
				{
					"internalType": "bytes[]",
					"name": "calldatas",
					"type": "bytes[]"
				},
				{
					"internalType": "bytes32",
					"name": "descriptionHash",
					"type": "bytes32"
				}
			],
			"name": "execute",
			"outputs": [
				{
					"internalType": "uint256",
					"name": "",
					"type": "uint256"
				}
			],
			"stateMutability": "payable",
			"type": "function"
		},
		{
			"inputs": [
				{
					"internalType": "address",
					"name": "account",
					"type": "address"
				},
				{
					"internalType": "uint256",
					"name": "timepoint",
					"type": "uint256"
				}
			],
			"name": "getVotes",
			"outputs": [
				{
					"internalType": "uint256",
					"name": "",
					"type": "uint256"
				}
			],
			"stateMutability": "view",
			"type": "function"
		},
		{
			"inputs": [
				{
					"internalType": "address",
					"name": "account",
					"type": "address"
				},
				{
					"internalType": "uint256",
					"name": "timepoint",
					"type": "uint256"
				},
				{
					"internalType": "bytes",
					"name": "params",
					"type": "bytes"
				}
			],
			"name": "getVotesWithParams",
			"outputs": [
				{
					"internalType": "uint256",
					"name": "",
					"type": "uint256"
				}
			],
			"stateMutability": "view",
			"type": "function"
		},
		{
			"inputs": [
				{
					"internalType": "uint256",
					"name": "proposalId",
					"type": "uint256"
				},
				{
					"internalType": "address",
					"name": "account",
					"type": "address"
				}
			],
			"name": "hasVoted",
			"outputs": [
				{
					"internalType": "bool",
					"name": "",
					"type": "bool"
				}
			],
			"stateMutability": "view",
			"type": "function"
		},
		{
			"inputs": [
				{
					"internalType": "address[]",
					"name": "targets",
					"type": "address[]"
				},
				{
					"internalType": "uint256[]",
					"name": "values",
					"type": "uint256[]"
				},
				{
					"internalType": "bytes[]",
					"name": "calldatas",
					"type": "bytes[]"
				},
				{
					"internalType": "bytes32",
					"name": "descriptionHash",
					"type": "bytes32"
				}
			],
			"name": "hashProposal",
			"outputs": [
				{
					"internalType": "uint256",
					"name": "",
					"type": "uint256"
				}
			],
			"stateMutability": "pure",
			"type": "function"
		},
		{
			"inputs": [],
			"name": "name",
			"outputs": [
				{
					"internalType": "string",
					"name": "",
					"type": "string"
				}
			],
			"stateMutability": "view",
			"type": "function"
		},
		{
			"inputs": [
				{
					"internalType": "address",
					"name": "",
					"type": "address"
				},
				{
					"internalType": "address",
					"name": "",
					"type": "address"
				},
				{
					"internalType": "uint256[]",
					"name": "",
					"type": "uint256[]"
				},
				{
					"internalType": "uint256[]",
					"name": "",
					"type": "uint256[]"
				},
				{
					"internalType": "bytes",
					"name": "",
					"type": "bytes"
				}
			],
			"name": "onERC1155BatchReceived",
			"outputs": [
				{
					"internalType": "bytes4",
					"name": "",
					"type": "bytes4"
				}
			],
			"stateMutability": "nonpayable",
			"type": "function"
		},
		{
			"inputs": [
				{
					"internalType": "address",
					"name": "",
					"type": "address"
				},
				{
					"internalType": "address",
					"name": "",
					"type": "address"
				},
				{
					"internalType": "uint256",
					"name": "",
					"type": "uint256"
				},
				{
					"internalType": "uint256",
					"name": "",
					"type": "uint256"
				},
				{
					"internalType": "bytes",
					"name": "",
					"type": "bytes"
				}
			],
			"name": "onERC1155Received",
			"outputs": [
				{
					"internalType": "bytes4",
					"name": "",
					"type": "bytes4"
				}
			],
			"stateMutability": "nonpayable",
			"type": "function"
		},
		{
			"inputs": [
				{
					"internalType": "address",
					"name": "",
					"type": "address"
				},
				{
					"internalType": "address",
					"name": "",
					"type": "address"
				},
				{
					"internalType": "uint256",
					"name": "",
					"type": "uint256"
				},
				{
					"internalType": "bytes",
					"name": "",
					"type": "bytes"
				}
			],
			"name": "onERC721Received",
			"outputs": [
				{
					"internalType": "bytes4",
					"name": "",
					"type": "bytes4"
				}
			],
			"stateMutability": "nonpayable",
			"type": "function"
		},
		{
			"inputs": [
				{
					"internalType": "uint256",
					"name": "proposalId",
					"type": "uint256"
				}
			],
			"name": "proposalDeadline",
			"outputs": [
				{
					"internalType": "uint256",
					"name": "",
					"type": "uint256"
				}
			],
			"stateMutability": "view",
			"type": "function"
		},
		{
			"inputs": [
				{
					"internalType": "uint256",
					"name": "proposalId",
					"type": "uint256"
				}
			],
			"name": "proposalEta",
			"outputs": [
				{
					"internalType": "uint256",
					"name": "",
					"type": "uint256"
				}
			],
			"stateMutability": "view",
			"type": "function"
		},
		{
			"inputs": [
				{
					"internalType": "uint256",
					"name": "proposalId",
					"type": "uint256"
				}
			],
			"name": "proposalProposer",
			"outputs": [
				{
					"internalType": "address",
					"name": "",
					"type": "address"
				}
			],
			"stateMutability": "view",
			"type": "function"
		},
		{
			"inputs": [
				{
					"internalType": "uint256",
					"name": "proposalId",
					"type": "uint256"
				}
			],
			"name": "proposalSnapshot",
			"outputs": [
				{
					"internalType": "uint256",
					"name": "",
					"type": "uint256"
				}
			],
			"stateMutability": "view",
			"type": "function"
		},
		{
			"inputs": [],
			"name": "proposalThreshold",
			"outputs": [
				{
					"internalType": "uint256",
					"name": "",
					"type": "uint256"
				}
			],
			"stateMutability": "view",
			"type": "function"
		},
		{
			"inputs": [
				{
					"internalType": "uint256",
					"name": "proposalId",
					"type": "uint256"
				}
			],
			"name": "proposalVotes",
			"outputs": [
				{
					"internalType": "uint256",
					"name": "againstVotes",
					"type": "uint256"
				},
				{
					"internalType": "uint256",
					"name": "forVotes",
					"type": "uint256"
				},
				{
					"internalType": "uint256",
					"name": "abstainVotes",
					"type": "uint256"
				}
			],
			"stateMutability": "view",
			"type": "function"
		},
		{
			"inputs": [
				{
					"internalType": "address[]",
					"name": "targets",
					"type": "address[]"
				},
				{
					"internalType": "uint256[]",
					"name": "values",
					"type": "uint256[]"
				},
				{
					"internalType": "bytes[]",
					"name": "calldatas",
					"type": "bytes[]"
				},
				{
					"internalType": "string",
					"name": "description",
					"type": "string"
				}
			],
			"name": "propose",
			"outputs": [
				{
					"internalType": "uint256",
					"name": "",
					"type": "uint256"
				}
			],
			"stateMutability": "nonpayable",
			"type": "function"
		},
		{
			"inputs": [
				{
					"internalType": "address[]",
					"name": "targets",
					"type": "address[]"
				},
				{
					"internalType": "uint256[]",
					"name": "values",
					"type": "uint256[]"
				},
				{
					"internalType": "bytes[]",
					"name": "calldatas",
					"type": "bytes[]"
				},
				{
					"internalType": "bytes32",
					"name": "descriptionHash",
					"type": "bytes32"
				}
			],
			"name": "queue",
			"outputs": [
				{
					"internalType": "uint256",
					"name": "",
					"type": "uint256"
				}
			],
			"stateMutability": "nonpayable",
			"type": "function"
		},
		{
			"inputs": [
				{
					"internalType": "uint256",
					"name": "",
					"type": "uint256"
				}
			],
			"name": "quorum",
			"outputs": [
				{
					"internalType": "uint256",
					"name": "",
					"type": "uint256"
				}
			],
			"stateMutability": "pure",
			"type": "function"
		},
		{
			"inputs": [
				{
					"internalType": "address",
					"name": "target",
					"type": "address"
				},
				{
					"internalType": "uint256",
					"name": "value",
					"type": "uint256"
				},
				{
					"internalType": "bytes",
					"name": "data",
					"type": "bytes"
				}
			],
			"name": "relay",
			"outputs": [],
			"stateMutability": "payable",
			"type": "function"
		},
		{
			"inputs": [
				{
					"internalType": "uint256",
					"name": "proposalId",
					"type": "uint256"
				}
			],
			"name": "state",
			"outputs": [
				{
					"internalType": "enum IGovernor.ProposalState",
					"name": "",
					"type": "uint8"
				}
			],
			"stateMutability": "view",
			"type": "function"
		},
		{
			"inputs": [
				{
					"internalType": "bytes4",
					"name": "interfaceId",
					"type": "bytes4"
				}
			],
			"name": "supportsInterface",
			"outputs": [
				{
					"internalType": "bool",
					"name": "",
					"type": "bool"
				}
			],
			"stateMutability": "view",
			"type": "function"
		},
		{
			"inputs": [],
			"name": "timelock",
			"outputs": [
				{
					"internalType": "address",
					"name": "",
					"type": "address"
				}
			],
			"stateMutability": "view",
			"type": "function"
		},
		{
			"inputs": [],
			"name": "token",
			"outputs": [
				{
					"internalType": "contract IERC5805",
					"name": "",
					"type": "address"
				}
			],
			"stateMutability": "view",
			"type": "function"
		},
		{
			"inputs": [
				{
					"internalType": "contract TimelockController",
					"name": "newTimelock",
					"type": "address"
				}
			],
			"name": "updateTimelock",
			"outputs": [],
			"stateMutability": "nonpayable",
			"type": "function"
		},
		{
			"inputs": [],
			"name": "version",
			"outputs": [
				{
					"internalType": "string",
					"name": "",
					"type": "string"
				}
			],
			"stateMutability": "view",
			"type": "function"
		},
		{
			"inputs": [],
			"name": "votingDelay",
			"outputs": [
				{
					"internalType": "uint256",
					"name": "",
					"type": "uint256"
				}
			],
			"stateMutability": "pure",
			"type": "function"
		},
		{
			"inputs": [],
			"name": "votingPeriod",
			"outputs": [
				{
					"internalType": "uint256",
					"name": "",
					"type": "uint256"
				}
			],
			"stateMutability": "pure",
			"type": "function"
		},
		{
			"stateMutability": "payable",
			"type": "receive"
		}
	]
}